{
    "_format": "hh-sol-artifact-1",
    "contractName": "IncentivePool",
    "sourceName": "contracts/tokenPools/implementation/IncentivePool.sol",
    "abi": [
        {
            "inputs": [
                {
                    "internalType": "address",
                    "name": "_governance",
                    "type": "address"
                },
                {
                    "internalType": "contract FlareDaemon",
                    "name": "_flareDaemon",
                    "type": "address"
                },
                {
                    "internalType": "address",
                    "name": "_addressUpdater",
                    "type": "address"
                },
                {
                    "internalType": "contract IncentivePoolTreasury",
                    "name": "_treasury",
                    "type": "address"
                },
                {
                    "internalType": "uint256",
                    "name": "_rewardEpochStartTs",
                    "type": "uint256"
                }
            ],
            "stateMutability": "nonpayable",
            "type": "constructor"
        },
        {
            "anonymous": false,
            "inputs": [
                {
                    "indexed": false,
                    "internalType": "bytes4",
                    "name": "selector",
                    "type": "bytes4"
                },
                {
                    "indexed": false,
                    "internalType": "uint256",
                    "name": "allowedAfterTimestamp",
                    "type": "uint256"
                },
                {
                    "indexed": false,
                    "internalType": "bytes",
                    "name": "encodedCall",
                    "type": "bytes"
                }
            ],
            "name": "GovernanceCallTimelocked",
            "type": "event"
        },
        {
            "anonymous": false,
            "inputs": [
                {
                    "indexed": false,
                    "internalType": "address",
                    "name": "initialGovernance",
                    "type": "address"
                }
            ],
            "name": "GovernanceInitialised",
            "type": "event"
        },
        {
            "anonymous": false,
            "inputs": [
                {
                    "indexed": false,
                    "internalType": "address",
                    "name": "governanceSettings",
                    "type": "address"
                }
            ],
            "name": "GovernedProductionModeEntered",
            "type": "event"
        },
        {
            "anonymous": false,
            "inputs": [
                {
                    "indexed": false,
                    "internalType": "uint256",
                    "name": "amountWei",
                    "type": "uint256"
                }
            ],
            "name": "IncentiveAuthorized",
            "type": "event"
        },
        {
            "anonymous": false,
            "inputs": [
                {
                    "indexed": false,
                    "internalType": "contract IIIncentivePoolAllocation",
                    "name": "incentivePoolAllocation",
                    "type": "address"
                }
            ],
            "name": "IncentivePoolAllocationSet",
            "type": "event"
        },
        {
            "anonymous": false,
            "inputs": [
                {
                    "indexed": false,
                    "internalType": "contract IIIncentivePoolReceiver",
                    "name": "incentivePoolReceiver",
                    "type": "address"
                },
                {
                    "indexed": false,
                    "internalType": "uint256",
                    "name": "amountWei",
                    "type": "uint256"
                }
            ],
            "name": "IncentivePoolRewardServiceDailyAuthorizedIncentiveComputed",
            "type": "event"
        },
        {
            "anonymous": false,
            "inputs": [
                {
                    "indexed": false,
                    "internalType": "contract IIIncentivePoolReceiver",
                    "name": "incentivePoolReceiver",
                    "type": "address"
                },
                {
                    "indexed": false,
                    "internalType": "uint256",
                    "name": "amountWei",
                    "type": "uint256"
                }
            ],
            "name": "IncentivePoolRewardServiceTopupComputed",
            "type": "event"
        },
        {
            "anonymous": false,
            "inputs": [
                {
                    "indexed": false,
                    "internalType": "contract IIIncentivePoolReceiver",
                    "name": "incentivePoolReceiver",
                    "type": "address"
                },
                {
                    "indexed": false,
                    "internalType": "uint256",
                    "name": "amountWei",
                    "type": "uint256"
                }
            ],
            "name": "IncentivePoolRewardServiceTopupRequestReceived",
            "type": "event"
        },
        {
            "anonymous": false,
            "inputs": [
                {
                    "indexed": false,
                    "internalType": "uint256",
                    "name": "startTimeStamp",
                    "type": "uint256"
                },
                {
                    "indexed": false,
                    "internalType": "uint256",
                    "name": "endTimeStamp",
                    "type": "uint256"
                },
                {
                    "indexed": false,
                    "internalType": "uint256",
                    "name": "inflatableSupplyWei",
                    "type": "uint256"
                },
                {
                    "indexed": false,
                    "internalType": "uint256",
                    "name": "recognizedIncentiveWei",
                    "type": "uint256"
                },
                {
                    "indexed": false,
                    "internalType": "uint256",
                    "name": "totalAuthorizedIncentiveWei",
                    "type": "uint256"
                },
                {
                    "indexed": false,
                    "internalType": "uint256",
                    "name": "totalIncentiveTopupRequestedWei",
                    "type": "uint256"
                },
                {
                    "indexed": false,
                    "internalType": "uint256",
                    "name": "totalIncentiveTopupReceivedWei",
                    "type": "uint256"
                },
                {
                    "indexed": false,
                    "internalType": "uint256",
                    "name": "totalIncentiveTopupWithdrawnWei",
                    "type": "uint256"
                }
            ],
            "name": "NewAnnumInitialized",
            "type": "event"
        },
        {
            "anonymous": false,
            "inputs": [
                {
                    "indexed": false,
                    "internalType": "contract IISupply",
                    "name": "oldSupply",
                    "type": "address"
                },
                {
                    "indexed": false,
                    "internalType": "contract IISupply",
                    "name": "newSupply",
                    "type": "address"
                }
            ],
            "name": "SupplySet",
            "type": "event"
        },
        {
            "anonymous": false,
            "inputs": [
                {
                    "indexed": false,
                    "internalType": "bytes4",
                    "name": "selector",
                    "type": "bytes4"
                },
                {
                    "indexed": false,
                    "internalType": "uint256",
                    "name": "timestamp",
                    "type": "uint256"
                }
            ],
            "name": "TimelockedGovernanceCallCanceled",
            "type": "event"
        },
        {
            "anonymous": false,
            "inputs": [
                {
                    "indexed": false,
                    "internalType": "bytes4",
                    "name": "selector",
                    "type": "bytes4"
                },
                {
                    "indexed": false,
                    "internalType": "uint256",
                    "name": "timestamp",
                    "type": "uint256"
                }
            ],
            "name": "TimelockedGovernanceCallExecuted",
            "type": "event"
        },
        {
            "anonymous": false,
            "inputs": [
                {
                    "components": [
                        {
                            "internalType": "enum TopupType",
                            "name": "topupType",
                            "type": "uint8"
                        },
                        {
                            "internalType": "uint256",
                            "name": "topupFactorX100",
                            "type": "uint256"
                        },
                        {
                            "internalType": "bool",
                            "name": "configured",
                            "type": "bool"
                        }
                    ],
                    "indexed": false,
                    "internalType": "struct TopupConfiguration",
                    "name": "topupConfiguration",
                    "type": "tuple"
                }
            ],
            "name": "TopupConfigurationSet",
            "type": "event"
        },
        {
            "anonymous": false,
            "inputs": [
                {
                    "indexed": false,
                    "internalType": "uint256",
                    "name": "amountWei",
                    "type": "uint256"
                }
            ],
            "name": "TopupRequested",
            "type": "event"
        },
        {
            "inputs": [
                {
                    "internalType": "bytes4",
                    "name": "_selector",
                    "type": "bytes4"
                }
            ],
            "name": "cancelGovernanceCall",
            "outputs": [],
            "stateMutability": "nonpayable",
            "type": "function"
        },
        {
            "inputs": [],
            "name": "daemonize",
            "outputs": [
                {
                    "internalType": "bool",
                    "name": "",
                    "type": "bool"
                }
            ],
            "stateMutability": "nonpayable",
            "type": "function"
        },
        {
            "inputs": [
                {
                    "internalType": "bytes4",
                    "name": "_selector",
                    "type": "bytes4"
                }
            ],
            "name": "executeGovernanceCall",
            "outputs": [],
            "stateMutability": "nonpayable",
            "type": "function"
        },
        {
            "inputs": [],
            "name": "flareDaemon",
            "outputs": [
                {
                    "internalType": "contract FlareDaemon",
                    "name": "",
                    "type": "address"
                }
            ],
            "stateMutability": "view",
            "type": "function"
        },
        {
            "inputs": [],
            "name": "getAddressUpdater",
            "outputs": [
                {
                    "internalType": "address",
                    "name": "_addressUpdater",
                    "type": "address"
                }
            ],
            "stateMutability": "view",
            "type": "function"
        },
        {
            "inputs": [
                {
                    "internalType": "uint256",
                    "name": "_index",
                    "type": "uint256"
                }
            ],
            "name": "getAnnum",
            "outputs": [
                {
                    "components": [
                        {
                            "internalType": "uint256",
                            "name": "recognizedIncentiveWei",
                            "type": "uint256"
                        },
                        {
                            "internalType": "uint256",
                            "name": "startTimeStamp",
                            "type": "uint256"
                        },
                        {
                            "internalType": "uint256",
                            "name": "endTimeStamp",
                            "type": "uint256"
                        },
                        {
                            "components": [
                                {
                                    "components": [
                                        {
                                            "internalType": "contract IIIncentivePoolReceiver",
                                            "name": "incentivePoolReceiver",
                                            "type": "address"
                                        },
                                        {
                                            "internalType": "uint256",
                                            "name": "authorizedIncentiveWei",
                                            "type": "uint256"
                                        },
                                        {
                                            "internalType": "uint256",
                                            "name": "lastDailyAuthorizedIncentiveWei",
                                            "type": "uint256"
                                        },
                                        {
                                            "internalType": "uint256",
                                            "name": "incentivePoolTopupRequestedWei",
                                            "type": "uint256"
                                        },
                                        {
                                            "internalType": "uint256",
                                            "name": "incentivePoolTopupReceivedWei",
                                            "type": "uint256"
                                        },
                                        {
                                            "internalType": "uint256",
                                            "name": "incentivePoolTopupWithdrawnWei",
                                            "type": "uint256"
                                        }
                                    ],
                                    "internalType": "struct IncentivePoolRewardService.IncentivePoolRewardServiceState[]",
                                    "name": "incentivePoolRewardServices",
                                    "type": "tuple[]"
                                },
                                {
                                    "internalType": "uint256",
                                    "name": "totalAuthorizedIncentiveWei",
                                    "type": "uint256"
                                },
                                {
                                    "internalType": "uint256",
                                    "name": "totalIncentiveTopupRequestedWei",
                                    "type": "uint256"
                                },
                                {
                                    "internalType": "uint256",
                                    "name": "totalIncentiveTopupReceivedWei",
                                    "type": "uint256"
                                },
                                {
                                    "internalType": "uint256",
                                    "name": "totalIncentiveTopupWithdrawnWei",
                                    "type": "uint256"
                                }
                            ],
                            "internalType": "struct IncentivePoolRewardServices.IncentivePoolRewardServicesState",
                            "name": "incentivePoolRewardServices",
                            "type": "tuple"
                        }
                    ],
                    "internalType": "struct IncentivePoolAnnum.IncentivePoolAnnumState",
                    "name": "",
                    "type": "tuple"
                }
            ],
            "stateMutability": "view",
            "type": "function"
        },
        {
            "inputs": [],
            "name": "getContractName",
            "outputs": [
                {
                    "internalType": "string",
                    "name": "",
                    "type": "string"
                }
            ],
            "stateMutability": "pure",
            "type": "function"
        },
        {
            "inputs": [],
            "name": "getCurrentAnnum",
            "outputs": [
                {
                    "components": [
                        {
                            "internalType": "uint256",
                            "name": "recognizedIncentiveWei",
                            "type": "uint256"
                        },
                        {
                            "internalType": "uint256",
                            "name": "startTimeStamp",
                            "type": "uint256"
                        },
                        {
                            "internalType": "uint256",
                            "name": "endTimeStamp",
                            "type": "uint256"
                        },
                        {
                            "components": [
                                {
                                    "components": [
                                        {
                                            "internalType": "contract IIIncentivePoolReceiver",
                                            "name": "incentivePoolReceiver",
                                            "type": "address"
                                        },
                                        {
                                            "internalType": "uint256",
                                            "name": "authorizedIncentiveWei",
                                            "type": "uint256"
                                        },
                                        {
                                            "internalType": "uint256",
                                            "name": "lastDailyAuthorizedIncentiveWei",
                                            "type": "uint256"
                                        },
                                        {
                                            "internalType": "uint256",
                                            "name": "incentivePoolTopupRequestedWei",
                                            "type": "uint256"
                                        },
                                        {
                                            "internalType": "uint256",
                                            "name": "incentivePoolTopupReceivedWei",
                                            "type": "uint256"
                                        },
                                        {
                                            "internalType": "uint256",
                                            "name": "incentivePoolTopupWithdrawnWei",
                                            "type": "uint256"
                                        }
                                    ],
                                    "internalType": "struct IncentivePoolRewardService.IncentivePoolRewardServiceState[]",
                                    "name": "incentivePoolRewardServices",
                                    "type": "tuple[]"
                                },
                                {
                                    "internalType": "uint256",
                                    "name": "totalAuthorizedIncentiveWei",
                                    "type": "uint256"
                                },
                                {
                                    "internalType": "uint256",
                                    "name": "totalIncentiveTopupRequestedWei",
                                    "type": "uint256"
                                },
                                {
                                    "internalType": "uint256",
                                    "name": "totalIncentiveTopupReceivedWei",
                                    "type": "uint256"
                                },
                                {
                                    "internalType": "uint256",
                                    "name": "totalIncentiveTopupWithdrawnWei",
                                    "type": "uint256"
                                }
                            ],
                            "internalType": "struct IncentivePoolRewardServices.IncentivePoolRewardServicesState",
                            "name": "incentivePoolRewardServices",
                            "type": "tuple"
                        }
                    ],
                    "internalType": "struct IncentivePoolAnnum.IncentivePoolAnnumState",
                    "name": "",
                    "type": "tuple"
                }
            ],
            "stateMutability": "view",
            "type": "function"
        },
        {
            "inputs": [],
            "name": "getNextExpectedTopupTs",
            "outputs": [
                {
                    "internalType": "uint256",
                    "name": "_nextTopupTs",
                    "type": "uint256"
                }
            ],
            "stateMutability": "view",
            "type": "function"
        },
        {
            "inputs": [],
            "name": "getTokenPoolSupplyData",
            "outputs": [
                {
                    "internalType": "uint256",
                    "name": "_lockedFundsWei",
                    "type": "uint256"
                },
                {
                    "internalType": "uint256",
                    "name": "_totalInflationAuthorizedWei",
                    "type": "uint256"
                },
                {
                    "internalType": "uint256",
                    "name": "_totalClaimedWei",
                    "type": "uint256"
                }
            ],
            "stateMutability": "view",
            "type": "function"
        },
        {
            "inputs": [
                {
                    "internalType": "contract IIIncentivePoolReceiver",
                    "name": "_incentivePoolReceiver",
                    "type": "address"
                }
            ],
            "name": "getTopupConfiguration",
            "outputs": [
                {
                    "components": [
                        {
                            "internalType": "enum TopupType",
                            "name": "topupType",
                            "type": "uint8"
                        },
                        {
                            "internalType": "uint256",
                            "name": "topupFactorX100",
                            "type": "uint256"
                        },
                        {
                            "internalType": "bool",
                            "name": "configured",
                            "type": "bool"
                        }
                    ],
                    "internalType": "struct TopupConfiguration",
                    "name": "_topupConfiguration",
                    "type": "tuple"
                }
            ],
            "stateMutability": "nonpayable",
            "type": "function"
        },
        {
            "inputs": [],
            "name": "getTotals",
            "outputs": [
                {
                    "internalType": "uint256",
                    "name": "_totalAuthorizedIncentiveWei",
                    "type": "uint256"
                },
                {
                    "internalType": "uint256",
                    "name": "_totalIncentiveTopupRequestedWei",
                    "type": "uint256"
                },
                {
                    "internalType": "uint256",
                    "name": "_totalIncentiveTopupReceivedWei",
                    "type": "uint256"
                },
                {
                    "internalType": "uint256",
                    "name": "_totalIncentiveTopupWithdrawnWei",
                    "type": "uint256"
                },
                {
                    "internalType": "uint256",
                    "name": "_totalRecognizedIncentiveWei",
                    "type": "uint256"
                }
            ],
            "stateMutability": "view",
            "type": "function"
        },
        {
            "inputs": [],
            "name": "governance",
            "outputs": [
                {
                    "internalType": "address",
                    "name": "",
                    "type": "address"
                }
            ],
            "stateMutability": "view",
            "type": "function"
        },
        {
            "inputs": [],
            "name": "governanceSettings",
            "outputs": [
                {
                    "internalType": "contract IGovernanceSettings",
                    "name": "",
                    "type": "address"
                }
            ],
            "stateMutability": "view",
            "type": "function"
        },
        {
            "inputs": [],
            "name": "incentivePoolAllocation",
            "outputs": [
                {
                    "internalType": "contract IIIncentivePoolAllocation",
                    "name": "",
                    "type": "address"
                }
            ],
            "stateMutability": "view",
            "type": "function"
        },
        {
            "inputs": [
                {
                    "internalType": "address",
                    "name": "_initialGovernance",
                    "type": "address"
                }
            ],
            "name": "initialise",
            "outputs": [],
            "stateMutability": "nonpayable",
            "type": "function"
        },
        {
            "inputs": [],
            "name": "lastAuthorizationTs",
            "outputs": [
                {
                    "internalType": "uint256",
                    "name": "",
                    "type": "uint256"
                }
            ],
            "stateMutability": "view",
            "type": "function"
        },
        {
            "inputs": [],
            "name": "productionMode",
            "outputs": [
                {
                    "internalType": "bool",
                    "name": "",
                    "type": "bool"
                }
            ],
            "stateMutability": "view",
            "type": "function"
        },
        {
            "inputs": [],
            "name": "rewardEpochStartTs",
            "outputs": [
                {
                    "internalType": "uint256",
                    "name": "",
                    "type": "uint256"
                }
            ],
            "stateMutability": "view",
            "type": "function"
        },
        {
            "inputs": [],
            "name": "rewardEpochStartedTs",
            "outputs": [
                {
                    "internalType": "uint256",
                    "name": "",
                    "type": "uint256"
                }
            ],
            "stateMutability": "view",
            "type": "function"
        },
        {
            "inputs": [
                {
                    "internalType": "contract IIIncentivePoolReceiver",
                    "name": "_incentivePoolReceiver",
                    "type": "address"
                },
                {
                    "internalType": "enum TopupType",
                    "name": "_topupType",
                    "type": "uint8"
                },
                {
                    "internalType": "uint256",
                    "name": "_topupFactorX100",
                    "type": "uint256"
                }
            ],
            "name": "setTopupConfiguration",
            "outputs": [],
            "stateMutability": "nonpayable",
            "type": "function"
        },
        {
            "inputs": [],
            "name": "supply",
            "outputs": [
                {
                    "internalType": "contract IISupply",
                    "name": "",
                    "type": "address"
                }
            ],
            "stateMutability": "view",
            "type": "function"
        },
        {
            "inputs": [],
            "name": "switchToFallbackMode",
            "outputs": [
                {
                    "internalType": "bool",
                    "name": "",
                    "type": "bool"
                }
            ],
            "stateMutability": "view",
            "type": "function"
        },
        {
            "inputs": [],
            "name": "switchToProductionMode",
            "outputs": [],
            "stateMutability": "nonpayable",
            "type": "function"
        },
        {
            "inputs": [
                {
                    "internalType": "bytes4",
                    "name": "",
                    "type": "bytes4"
                }
            ],
            "name": "timelockedCalls",
            "outputs": [
                {
                    "internalType": "uint256",
                    "name": "allowedAfterTimestamp",
                    "type": "uint256"
                },
                {
                    "internalType": "bytes",
                    "name": "encodedCall",
                    "type": "bytes"
                }
            ],
            "stateMutability": "view",
            "type": "function"
        },
        {
            "inputs": [],
            "name": "treasury",
            "outputs": [
                {
                    "internalType": "contract IncentivePoolTreasury",
                    "name": "",
                    "type": "address"
                }
            ],
            "stateMutability": "view",
            "type": "function"
        },
        {
            "inputs": [
                {
                    "internalType": "bytes32[]",
                    "name": "_contractNameHashes",
                    "type": "bytes32[]"
                },
                {
                    "internalType": "address[]",
                    "name": "_contractAddresses",
                    "type": "address[]"
                }
            ],
            "name": "updateContractAddresses",
            "outputs": [],
            "stateMutability": "nonpayable",
            "type": "function"
        },
        {
            "stateMutability": "payable",
            "type": "receive"
        }
    ],
    "bytecode": "0x60e06040523480156200001157600080fd5b506040516200399838038062003998833981016040819052620000349162000273565b82858581806001600160a01b03811615620000545762000054816200018c565b506001600160a01b038116620000a4576040805162461bcd60e51b815260206004820152601060248201526f5f676f7665726e616e6365207a65726f60801b604482015290519081900360640190fd5b506001600160a01b038116620000f5576040805162461bcd60e51b8152602060048201526011602482015270666c617265206461656d6f6e207a65726f60781b604482015290519081900360640190fd5b60601b6001600160601b0319166080525062000111816200024f565b5060408051808201909152600c81526b06164647265737320697320360a41b602082015282906001600160a01b0382166200016a5760405162461bcd60e51b8152600401620001619190620002e6565b60405180910390fd5b505060609190911b6001600160601b03191660a05260c0525062000355915050565b600054600160a01b900460ff1615620001ec576040805162461bcd60e51b815260206004820152601460248201527f696e697469616c6973656420213d2066616c7365000000000000000000000000604482015290519081900360640190fd5b60008054600160a01b60ff60a01b19909116176001600160a01b0319166001600160a01b03831690811790915560408051918252517f9789733827840833afc031fb2ef9ab6894271f77bad2085687cf4ae5c7bee4db916020908290030190a150565b7f714f205b2abd25bef1d06a1af944e38c113fe6160375c4e1d6d5cf28848e771955565b600080600080600060a086880312156200028b578081fd5b855162000298816200033c565b6020870151909550620002ab816200033c565b6040870151909450620002be816200033c565b6060870151909350620002d1816200033c565b80925050608086015190509295509295909350565b6000602080835283518082850152825b818110156200031457858101830151858201604001528201620002f6565b81811115620003265783604083870101525b50601f01601f1916929092016040019392505050565b6001600160a01b03811681146200035257600080fd5b50565b60805160601c60a05160601c60c0516135e3620003b560003980610c6c5280610c94528061139b5250806101d452806105585280610a925280610d495280610f0b52806118f7525080610c0452806112cc52806114fa52506135e36000f3fe6080604052600436106101a05760003560e01c806384e10a90116100ec578063c9d3dc871161008a578063f5a9838311610064578063f5a98383146104cd578063f5f5ba72146104e2578063f639c12c14610504578063f64cee61146105195761021e565b8063c9d3dc871461048e578063e17f212e146104a3578063e22fdece146104b85761021e565b8063a1077532116100c6578063a107753214610422578063b00c0b7614610437578063b8cca0cf14610457578063c39049e41461046c5761021e565b806384e10a90146103c7578063983963d8146103ed5780639d6a890f146104025761021e565b80635ff270791161015957806367fc40291161013357806367fc4029146103375780636d0e8c34146103575780636e61ab961461037957806374e6310e146103995761021e565b80635ff27079146102eb57806361d027b31461030d57806362354e03146103225761021e565b8063047fc9aa146102235780632dafdbbf1461024e57806333ed77cc146102725780634b13e872146102945780635267a15d146102c15780635aa6e675146102d65761021e565b3661021e5760408051808201909152600d81526c7472656173757279206f6e6c7960981b6020820152336001600160a01b037f0000000000000000000000000000000000000000000000000000000000000000161461021b5760405162461bcd60e51b81526004016102129190613275565b60405180910390fd5b50005b600080fd5b34801561022f57600080fd5b50610238610539565b6040516102459190613223565b60405180910390f35b34801561025a57600080fd5b50610263610548565b604051610245939291906133e8565b34801561027e57600080fd5b5061028761059f565b60405161024591906133c6565b3480156102a057600080fd5b506102b46102af366004612f28565b6105a5565b6040516102459190613363565b3480156102cd57600080fd5b50610238610680565b3480156102e257600080fd5b506102386106a5565b3480156102f757600080fd5b5061030b6103063660046130cc565b61073b565b005b34801561031957600080fd5b50610238610a90565b34801561032e57600080fd5b50610238610ab4565b34801561034357600080fd5b5061030b6103523660046130cc565b610abf565b34801561036357600080fd5b5061036c610ba7565b6040516102459190613237565b34801561038557600080fd5b5061030b6103943660046130f4565b610f96565b3480156103a557600080fd5b506103b96103b43660046130cc565b611142565b6040516102459291906133cf565b3480156103d357600080fd5b506103dc6111e8565b6040516102459594939291906133fe565b3480156103f957600080fd5b50610238611202565b34801561040e57600080fd5b5061030b61041d366004612f28565b611211565b34801561042e57600080fd5b506102386112ca565b34801561044357600080fd5b5061030b610452366004612f44565b6112ee565b34801561046357600080fd5b50610287611399565b34801561047857600080fd5b506104816113bd565b6040516102459190613288565b34801561049a57600080fd5b506102876114d7565b3480156104af57600080fd5b5061036c6114dd565b3480156104c457600080fd5b5061036c6114ed565b3480156104d957600080fd5b5061030b611566565b3480156104ee57600080fd5b506104f7611620565b6040516102459190613275565b34801561051057600080fd5b50610287611647565b34801561052557600080fd5b5061048161053436600461319a565b61165a565b6003546001600160a01b031681565b600080600061058f6004600601547f00000000000000000000000000000000000000000000000000000000000000006001600160a01b03163161177690919063ffffffff16565b600a549094600094509092509050565b600d5481565b6105ad612d55565b60408051808201909152600c81526b06164647265737320697320360a41b602082015282906001600160a01b0382166105f95760405162461bcd60e51b81526004016102129190613275565b506001600160a01b0383166000908152600c60205260409020600281015460ff1661064057805460ff19908116825560786001808401919091556002830180549092161790555b8054839060ff16600181111561065257fe5b9081600181111561065f57fe5b905250600181015460208401526002015460ff161515604083015250919050565b7f714f205b2abd25bef1d06a1af944e38c113fe6160375c4e1d6d5cf28848e77195490565b60008054600160a81b900460ff166106c8576000546001600160a01b0316610735565b60076001609c1b016001600160a01b031663732524946040518163ffffffff1660e01b815260040160206040518083038186803b15801561070857600080fd5b505afa15801561071c573d6000803e3d6000fd5b505050506040513d602081101561073257600080fd5b50515b90505b90565b60408051630debfda360e41b8152336004820152905160076001609c1b019163debfda30916024808301926020929190829003018186803b15801561077f57600080fd5b505afa158015610793573d6000803e3d6000fd5b505050506040513d60208110156107a957600080fd5b50516107ec576040805162461bcd60e51b815260206004820152600d60248201526c37b7363c9032bc32b1baba37b960991b604482015290519081900360640190fd5b6001600160e01b0319811660009081526001602052604090208054610858576040805162461bcd60e51b815260206004820152601a60248201527f74696d656c6f636b3a20696e76616c69642073656c6563746f72000000000000604482015290519081900360640190fd5b80544210156108ae576040805162461bcd60e51b815260206004820152601960248201527f74696d656c6f636b3a206e6f7420616c6c6f7765642079657400000000000000604482015290519081900360640190fd5b6000816001018054600181600116156101000203166002900480601f0160208091040260200160405190810160405280929190818152602001828054600181600116156101000203166002900480156109485780601f1061091d57610100808354040283529160200191610948565b820191906000526020600020905b81548152906001019060200180831161092b57829003601f168201915b5050506001600160e01b031986166000908152600160208190526040822082815594955090925061097c9150830182612d77565b50506000805460ff60b01b1916600160b01b178155604051825130918491819060208401908083835b602083106109c45780518252601f1990920191602091820191016109a5565b6001836020036101000a0380198251168184511680821785525050505050509050019150506000604051808303816000865af19150503d8060008114610a26576040519150601f19603f3d011682016040523d82523d6000602084013e610a2b565b606091505b50506000805460ff60b01b19169055604080516001600160e01b03198716815242602082015281519293507fa7326b57fc9cfe267aaea5e7f0b01757154d265620a0585819416ee9ddd2c438929081900390910190a1610a8a816117d9565b50505050565b7f000000000000000000000000000000000000000000000000000000000000000081565b60076001609c1b0181565b610ac76117f6565b6001600160e01b03198116600090815260016020526040902054610b32576040805162461bcd60e51b815260206004820152601a60248201527f74696d656c6f636b3a20696e76616c69642073656c6563746f72000000000000604482015290519081900360640190fd5b604080516001600160e01b03198316815242602082015281517f7735b2391c38a81419c513e30ca578db7158eadd7101511b23e221c654d19cf8929181900390910190a16001600160e01b03198116600090815260016020819052604082208281559190610ba290830182612d77565b505050565b60035460408051808201909152600c81526b06164647265737320697320360a41b60208201526000916001600160a01b03169081610bf85760405162461bcd60e51b81526004016102129190613275565b50336001600160a01b037f00000000000000000000000000000000000000000000000000000000000000001614610c6a576040805162461bcd60e51b815260206004820152601160248201527037b7363c90333630b932903230b2b6b7b760791b604482015290519081900360640190fd5b7f00000000000000000000000000000000000000000000000000000000000000001580610cb657507f000000000000000000000000000000000000000000000000000000000000000042105b15610cc45760019150610f92565b600d54610cd05742600d555b610cda6004611857565b610cec57610ce74261185b565b610d1b565b6000610cf86004611ba0565b60020154905080421115610d1957610d19610d14826001611776565b61185b565b505b600b544290610d2d9062015180611776565b11610f8d5742600b819055506000610e7542610ddf60646101907f00000000000000000000000000000000000000000000000000000000000000006001600160a01b03166397249db76040518163ffffffff1660e01b815260040160206040518083038186803b158015610da057600080fd5b505afa158015610db4573d6000803e3d6000fd5b505050506040513d601f19601f82011682018060405250810190610dd891906131b2565b9190611c15565b600260009054906101000a90046001600160a01b03166001600160a01b031663c853b8d46040518163ffffffff1660e01b8152600401600060405180830381600087803b158015610e2f57600080fd5b505af1158015610e43573d6000803e3d6000fd5b505050506040513d6000823e601f3d908101601f19168201604052610e6b9190810190612ffb565b6004929190611d23565b90507f83271265e292ba2d92e1eb89cdbda68f1803ae726a27a5afe6a77d6430cddbd581604051610ea691906133c6565b60405180910390a16000610ebb600430611d87565b90507f1f0936062e6ce780790714a1ec5787d290675660a8566059ac9d6cfb2a336eec81604051610eec91906133c6565b60405180910390a160405163ec8d877760e01b81526001600160a01b037f0000000000000000000000000000000000000000000000000000000000000000169063ec8d877790610f409084906004016133c6565b600060405180830381600087803b158015610f5a57600080fd5b505af1158015610f6e573d6000803e3d6000fd5b505050506000610f7e6004611dcf565b9050808214610f8957fe5b5050505b600191505b5090565b60408051808201909152600c81526b06164647265737320697320360a41b602082015283906001600160a01b038216610fe25760405162461bcd60e51b81526004016102129190613275565b50600054600160b01b900460ff16806110055750600054600160a81b900460ff16155b1561113757611012611e38565b600083600181111561102057fe5b14156110ae57604080518082019091526009815268746f707570206c6f7760b81b6020820152606483116110675760405162461bcd60e51b81526004016102129190613275565b5060408051808201909152600a8152690e8dee0eae040d0d2ced60b31b60208201526101908311156110ac5760405162461bcd60e51b81526004016102129190613275565b505b6001600160a01b0384166000908152600c6020526040902080548490829060ff1916600183818111156110dd57fe5b0217905550600180820184905560028201805460ff191690911790556040517fcf085312d79a75faa5f1b9f6bec58a64813338f5e5e5759573cab22c6da2d25b90611129908390613392565b60405180910390a150610a8a565b610a8a600036611e6d565b600160208181526000928352604092839020805481840180548651600296821615610100026000190190911695909504601f810185900485028601850190965285855290949193929091908301828280156111de5780601f106111b3576101008083540402835291602001916111de565b820191906000526020600020905b8154815290600101906020018083116111c157829003601f168201915b5050505050905082565b600754600854600954600a54600654939492939192909190565b6002546001600160a01b031681565b600054600160a01b900460ff1615611267576040805162461bcd60e51b8152602060048201526014602482015273696e697469616c6973656420213d2066616c736560601b604482015290519081900360640190fd5b60008054600160a01b60ff60a01b19909116176001600160a01b0319166001600160a01b03831690811790915560408051918252517f9789733827840833afc031fb2ef9ab6894271f77bad2085687cf4ae5c7bee4db916020908290030190a150565b7f000000000000000000000000000000000000000000000000000000000000000081565b6112f6610680565b6001600160a01b0316336001600160a01b031614611352576040805162461bcd60e51b815260206004820152601460248201527337b7363c9030b2323932b9b9903ab83230ba32b960611b604482015290519081900360640190fd5b61138b61138683836040518060400160405280600e81526020016d20b2323932b9b9aab83230ba32b960911b815250611ff0565b61211d565b6113958282612141565b5050565b7f000000000000000000000000000000000000000000000000000000000000000081565b6113c5612dbe565b6113cf6004611ba0565b604051806080016040529081600082015481526020016001820154815260200160028201548152602001600382016040518060a001604052908160008201805480602002602001604051908101604052809291908181526020016000905b8282101561149e5760008481526020908190206040805160c0810182526006860290920180546001600160a01b031683526001808201548486015260028201549284019290925260038101546060840152600481015460808401526005015460a0830152908352909201910161142d565b50505050815260200160018201548152602001600282015481526020016003820154815260200160048201548152505081525050905090565b600b5481565b600054600160a81b900460ff1681565b6000336001600160a01b037f00000000000000000000000000000000000000000000000000000000000000001614611560576040805162461bcd60e51b815260206004820152601160248201527037b7363c90333630b932903230b2b6b7b760791b604482015290519081900360640190fd5b50600090565b61156e6117f6565b600054600160a81b900460ff16156115cd576040805162461bcd60e51b815260206004820152601a60248201527f616c726561647920696e2070726f64756374696f6e206d6f6465000000000000604482015290519081900360640190fd5b60008054600161ff0160a01b031916600160a81b1790556040805160076001609c1b01815290517f83af113638b5422f9e977cebc0aaf0eaf2188eb9a8baae7f9d46c42b33a1560c9181900360200190a1565b60408051808201909152600d81526c125b98d95b9d1a5d99541bdbdb609a1b602082015290565b600b546000906107359062015180611776565b611662612dbe565b61166d60048361226b565b604051806080016040529081600082015481526020016001820154815260200160028201548152602001600382016040518060a001604052908160008201805480602002602001604051908101604052809291908181526020016000905b8282101561173c5760008481526020908190206040805160c0810182526006860290920180546001600160a01b031683526001808201548486015260028201549284019290925260038101546060840152600481015460808401526005015460a083015290835290920191016116cb565b5050509082525060018201546020820152600282015460408201526003820154606082015260049091015460809091015290525092915050565b6000828201838110156117d0576040805162461bcd60e51b815260206004820152601b60248201527f536166654d6174683a206164646974696f6e206f766572666c6f770000000000604482015290519081900360640190fd5b90505b92915050565b3d604051818101604052816000823e82156117f2578181f35b8181fd5b6117fe6106a5565b6001600160a01b0316336001600160a01b031614611855576040805162461bcd60e51b815260206004820152600f60248201526e6f6e6c7920676f7665726e616e636560881b604482015290519081900360640190fd5b565b5490565b60035460408051631b73b4cb60e01b815290516000926001600160a01b031691631b73b4cb916004808301926020929190829003018186803b1580156118a057600080fd5b505afa1580156118b4573d6000803e3d6000fd5b505050506040513d601f19601f820116820180604052508101906118d891906131b2565b600754600a54919250600091611924919061191e906001600160a01b037f0000000000000000000000000000000000000000000000000000000000000000163190611776565b906122dd565b9050600260009054906101000a90046001600160a01b03166001600160a01b031663981940296040518163ffffffff1660e01b8152600401602060405180830381600087803b15801561197657600080fd5b505af19250505080156119a6575060408051601f3d908101601f191682019092526119a3918101906131b2565b60015b611a09576119b261349f565b806119bd57506119d7565b8060405162461bcd60e51b81526004016102129190613275565b6040518060600160405280602681526020016135676026913960405162461bcd60e51b81526004016102129190613275565b611a1760048584868561233a565b506000611a246004611ba0565b604051806080016040529081600082015481526020016001820154815260200160028201548152602001600382016040518060a001604052908160008201805480602002602001604051908101604052809291908181526020016000905b82821015611af35760008481526020908190206040805160c0810182526006860290920180546001600160a01b031683526001808201548486015260028201549284019290925260038101546060840152600481015460808401526005015460a08301529083529092019101611a82565b5050505081526020016001820154815260200160028201548152602001600382015481526020016004820154815250508152505090507f677db469fe5eaf40f0415f5433ebc8ebe9ac089662feca0280495fb4c96da29181602001518260400151858460000151856060015160200151866060015160400151876060015160600151886060015160800151604051611b92989796959493929190613421565b60405180910390a150505050565b600080611bac83611857565b11604051806040016040528060088152602001676e6f20616e6e756d60c01b81525090611bec5760405162461bcd60e51b81526004016102129190613275565b5081600001826001015481548110611c0057fe5b90600052602060002090600802019050919050565b6000808211611c5e576040805162461bcd60e51b815260206004820152601060248201526f4469766973696f6e206279207a65726f60801b604482015290519081900360640190fd5b83611c6b57506000611d1c565b83830283858281611c7857fe5b041415611c9157828181611c8857fe5b04915050611d1c565b6000838681611c9c57fe5b0490506000848781611caa57fe5b0690506000858781611cb857fe5b0490506000868881611cc657fe5b069050611d14611ce088611cda86856123fc565b90612455565b611d0e611ced86866123fc565b611d0e611cfa89876123fc565b611d0e8d611d088c8b6123fc565b906123fc565b90611776565b955050505050505b9392505050565b600080611d2f86611ba0565b60028701546003880154919250611d5891611d4a84896124bc565b6003850192919088886124db565b6003870154909250611d6a9083611776565b6003870181905560028701541015611d7e57fe5b50949350505050565b600080611d9384611ba0565b9050611da26003820184612730565b6004850154909250611db49083611776565b6004850181905560038501541015611dc857fe5b5092915050565b600080611ddb83611ba0565b9050611de981600301612854565b6005840154909250611dfb9083611776565b6005840181905560048401541015611e0f57fe5b6006830154611e1e9083611776565b6006840181905560058401541015611e3257fe5b50919050565b600054600160b01b900460ff1615611e6557333014611e5357fe5b6000805460ff60b01b19169055611855565b6118556117f6565b611e756117f6565b600082359050600060076001609c1b016001600160a01b0316636221a54b6040518163ffffffff1660e01b815260040160206040518083038186803b158015611ebd57600080fd5b505afa158015611ed1573d6000803e3d6000fd5b505050506040513d6020811015611ee757600080fd5b505160408051808201825242830180825282516020601f89018190048102820181019094528781529394509290918281019190889088908190840183828082843760009201829052509390945250506001600160e01b03198616815260016020818152604090922084518155848301518051919450611f6b93928501920190612deb565b509050507fed948300a3694aa01d4a6b258bfd664350193d770c0b51f8387277f6d83ea3b68382878760405180856001600160e01b0319168152602001848152602001806020018281038252848482818152602001925080828437600083820152604051601f909101601f191690920182900397509095505050505050a15050505050565b600080826040516020018080602001828103825283818151815260200191508051906020019080838360005b8381101561203457818101518382015260200161201c565b50505050905090810190601f1680156120615780820380516001836020036101000a031916815260200191505b50925050506040516020818303038152906040528051906020012090506000805b86518110156120c95786818151811061209757fe5b60200260200101518314156120c1578581815181106120b257fe5b602002602001015191506120c9565b600101612082565b506001600160a01b038116612114576040805162461bcd60e51b815260206004820152600c60248201526b61646472657373207a65726f60a01b604482015290519081900360640190fd5b95945050505050565b7f714f205b2abd25bef1d06a1af944e38c113fe6160375c4e1d6d5cf28848e771955565b600061216c838360405180604001604052806006815260200165537570706c7960d01b815250611ff0565b6003546040519192507f9a9b245c8db671c90d6db95f7ff0c18c15378a1d55ee4aea21759be8ad27d30e916121ac916001600160a01b031690849061325b565b60405180910390a1600380546001600160a01b0319166001600160a01b03831617905560408051808201909152601781527f496e63656e74697665506f6f6c416c6c6f636174696f6e00000000000000000060208201526122109084908490611ff0565b600280546001600160a01b0319166001600160a01b0392831617908190556040517f8c42cf8a1561f290fbb07d1ff00cab15929cf29ebc85adb0b8aaee1cd57be7ec9261225e921690613223565b60405180910390a1505050565b600061227683611857565b8210604051806040016040528060088152602001676e6f20616e6e756d60c01b815250906122b75760405162461bcd60e51b81526004016102129190613275565b508260000182815481106122c757fe5b9060005260206000209060080201905092915050565b600082821115612334576040805162461bcd60e51b815260206004820152601e60248201527f536166654d6174683a207375627472616374696f6e206f766572666c6f770000604482015290519081900360640190fd5b50900390565b600061234586611857565b111561239c5761235485611ba0565b60020154841160405180604001604052806009815260200168746f6f206561726c7960b81b8152509061239a5760405162461bcd60e51b81526004016102129190613275565b505b84546001810186556000868152602090206008909102016123c081868686866129fe565b805460028701546123d091611776565b60028701558554600110156123f4576001868101546123ee91611776565b60018701555b505050505050565b60008261240b575060006117d3565b8282028284828161241857fe5b04146117d05760405162461bcd60e51b815260040180806020018281038252602181526020018061358d6021913960400191505060405180910390fd5b60008082116124ab576040805162461bcd60e51b815260206004820152601a60248201527f536166654d6174683a206469766973696f6e206279207a65726f000000000000604482015290519081900360640190fd5b8183816124b457fe5b049392505050565b600082600201548211156124cc57fe5b6117d06001611d0e8585612a2a565b60008151600014156124ef57506000612726565b600061250861250286611cda8a8a6122dd565b85612a56565b600189015490925082915061251d9082611776565b600189015561271060005b845181101561272257600061255f86838151811061254257fe5b6020026020010151602001518486611c159092919063ffffffff16565b905061256b84826122dd565b935061259786838151811061257c57fe5b602002602001015160200151846122dd90919063ffffffff16565b92506000806125bd8d8986815181106125ac57fe5b602002602001015160000151612a6c565b9150915081156126015760008d60000182815481106125d857fe5b906000526020600020906006020190506125fb8482612acf90919063ffffffff16565b50612652565b8c54600181018e5560008e815260209020895160069092020190612646908a908790811061262b57fe5b60200260200101516000015182612aeb90919063ffffffff16565b6126508185612acf565b505b87848151811061265e57fe5b6020026020010151600001516001600160a01b031663de6feb78846040518263ffffffff1660e01b815260040161269591906133c6565b600060405180830381600087803b1580156126af57600080fd5b505af11580156126c3573d6000803e3d6000fd5b505050507f7783f810e61c0050d5bcac23752779876844351f2984c24b51c19f7f949c8e498885815181106126f457fe5b6020026020010151600001518460405161270f929190613242565b60405180910390a1505050600101612528565b5050505b9695505050505050565b6000805b8354811015612830576000836001600160a01b0316634b13e87286600001848154811061275d57fe5b60009182526020909120600690910201546040516001600160e01b031960e084901b168152612798916001600160a01b031690600401613223565b606060405180830381600087803b1580156127b257600080fd5b505af11580156127c6573d6000803e3d6000fd5b505050506040513d601f19601f820116820180604052508101906127ea9190613134565b905061282561281e8287600001858154811061280257fe5b9060005260206000209060060201612b2c90919063ffffffff16565b8490611776565b925050600101612734565b5060028301546128409082611776565b60028401819055600184015410156117d357fe5b6000805b8254811015611e3257600061288884600001838154811061287557fe5b9060005260206000209060060201612c7a565b90506128b98185600001848154811061289d57fe5b9060005260206000209060060201612c9790919063ffffffff16565b60038401546128c89082611776565b600385015583548490839081106128db57fe5b6000918252602082206006909102015460408051630a763c4b60e31b815290516001600160a01b03909216926353b1e258928592600480820193929182900301818588803b15801561292c57600080fd5b505af1158015612940573d6000803e3d6000fd5b50505050506129748185600001848154811061295857fe5b9060005260206000209060060201612cb290919063ffffffff16565b60048401546129839082611776565b60048501556129928382611776565b92507f14539bbe7bf8bc27c7dd3cd8f969ee5ed76f196818aebbeb71de02ac27183a678460000183815481106129c457fe5b60009182526020909120600690910201546040516129ed916001600160a01b0316908490613242565b60405180910390a150600101612858565b60018501849055612a10838383612ccd565b8555612a1b84612cfd565b85600201819055505050505050565b600282015460009080831115612a445760009150506117d3565b612a4e8382612d15565b9150506117d3565b6000818310612a6557816117d0565b5090919050565b600080805b8454811015612ac757836001600160a01b0316856000018281548110612a9357fe5b60009182526020909120600690910201546001600160a01b03161415612abf5780915060019250612ac7565b600101612a71565b509250929050565b6001820154612ade9082611776565b6001830155600290910155565b81546001600160a01b0319166001600160a01b0391909116178155600060018201819055600282018190556003820181905560048201819055600590910155565b81546000906001600160a01b0316318183516001811115612b4957fe5b1415612be45760208301516002850154600091612b6891906064611c15565b9050600082821115612b8157612b7e82846122dd565b90505b6000612b8c87612c7a565b905081811115612b9f5760009450612bac565b612ba982826122dd565b94505b6000612bcd886004015461191e848b600101546122dd90919063ffffffff16565b905080861115612bdb578095505b50505050612c19565b600183516001811115612bf357fe5b1415612c135760038401546001850154612c0c916122dd565b9150612c19565b60009150fe5b6003840154612c289083611776565b600385015583546040517fd6c57656fb4211e1e1ca98fb5da438e294ee525b0eb501a7c143163416013da491612c6b916001600160a01b03909116908590613242565b60405180910390a15092915050565b60006117d3826004015483600301546122dd90919063ffffffff16565b6004820154612ca69082611776565b82600401819055505050565b6005820154612cc19082611776565b82600501819055505050565b6000612cf5612ce084846201d4c0611c15565b612cf0866103e86201d4c0611c15565b612a56565b949350505050565b60006117d36001612d0f84601e612d30565b90612d45565b600081831115612d2457600080fd5b620151808383036124b4565b6201518081028201828110156117d357600080fd5b808203828111156117d357600080fd5b6040805160608101909152806000815260006020820181905260409091015290565b50805460018160011615610100020316600290046000825580601f10612d9d5750612dbb565b601f016020900490600052602060002090810190612dbb9190612e6f565b50565b6040518060800160405280600081526020016000815260200160008152602001612de6612e84565b905290565b828054600181600116156101000203166002900490600052602060002090601f016020900481019282612e215760008555612e67565b82601f10612e3a57805160ff1916838001178555612e67565b82800160010185558215612e67579182015b82811115612e67578251825591602001919060010190612e4c565b50610f929291505b5b80821115610f925760008155600101612e70565b6040518060a0016040528060608152602001600081526020016000815260200160008152602001600081525090565b600082601f830112612ec3578081fd5b81356020612ed8612ed38361347b565b613457565b8281528181019085830183850287018401881015612ef4578586fd5b855b85811015612f1b578135612f0981613544565b84529284019290840190600101612ef6565b5090979650505050505050565b600060208284031215612f39578081fd5b81356117d081613544565b60008060408385031215612f56578081fd5b823567ffffffffffffffff80821115612f6d578283fd5b818501915085601f830112612f80578283fd5b81356020612f90612ed38361347b565b82815281810190858301838502870184018b1015612fac578788fd5b8796505b84871015612fce578035835260019690960195918301918301612fb0565b5096505086013592505080821115612fe4578283fd5b50612ff185828601612eb3565b9150509250929050565b6000602080838503121561300d578182fd5b825167ffffffffffffffff80821115613024578384fd5b818501915085601f830112613037578384fd5b8151613045612ed38261347b565b818152848101908486016040808502870188018b1015613063578889fd5b8896505b848710156130bd5780828c03121561307d578889fd5b8051818101818110888211171561309057fe5b8252825161309d81613544565b815282890151898201528452600196909601959287019290810190613067565b50909998505050505050505050565b6000602082840312156130dd578081fd5b81356001600160e01b0319811681146117d0578182fd5b600080600060608486031215613108578081fd5b833561311381613544565b9250602084013561312381613559565b929592945050506040919091013590565b600060608284031215613145578081fd5b6040516060810181811067ffffffffffffffff8211171561316257fe5b604052825161317081613559565b8152602083810151908201526040830151801515811461318e578283fd5b60408201529392505050565b6000602082840312156131ab578081fd5b5035919050565b6000602082840312156131c3578081fd5b5051919050565b60008151808452815b818110156131ef576020818501810151868301820152016131d3565b818111156132005782602083870101525b50601f01601f19169290920160200192915050565b6002811061321f57fe5b9052565b6001600160a01b0391909116815260200190565b901515815260200190565b6001600160a01b03929092168252602082015260400190565b6001600160a01b0392831681529116602082015260400190565b6000602082526117d060208301846131ca565b6000602080835260a0845182850152818501516040818187015280870151915060608281880152808801519250608080818901526101408801845186878b01528181518084526101608c01915089830193508a92505b8083101561333257835180516001600160a01b031683528a8101518b84015287810151888401528681015187840152858101518684015289015189830152928901926001929092019160c0909101906132de565b509786015160c08b015250509183015160e08801528201516101008701520151610120909401939093529392505050565b6000606082019050613376828451613215565b6020830151602083015260408301511515604083015292915050565b60006060820190506133a88260ff855416613215565b6001830154602083015260029092015460ff16151560409091015290565b90815260200190565b600083825260406020830152612cf560408301846131ca565b9283526020830191909152604082015260600190565b948552602085019390935260408401919091526060830152608082015260a00190565b978852602088019690965260408701949094526060860192909252608085015260a084015260c083015260e08201526101000190565b60405181810167ffffffffffffffff8111828210171561347357fe5b604052919050565b600067ffffffffffffffff82111561348f57fe5b5060209081020190565b60e01c90565b600060443d10156134af57610738565b600481823e6308c379a06134c38251613499565b146134cd57610738565b6040513d600319016004823e80513d67ffffffffffffffff81602484011181841117156134fd5750505050610738565b828401925082519150808211156135175750505050610738565b503d8301602082840101111561352f57505050610738565b601f01601f1916810160200160405291505090565b6001600160a01b0381168114612dbb57600080fd5b60028110612dbb57600080fdfe756e6b6e6f776e206572726f722e20676574416e6e75616c50657263656e7461676542697073536166654d6174683a206d756c7469706c69636174696f6e206f766572666c6f77a2646970667358221220639ce3005551919175a1e06034b9640d9c24cfcf3f3ce60b7526bf2a74881a4d64736f6c63430007060033",
    "linkReferences": {},
    "deployedLinkReferences": {}
}