{
    "_format": "hh-sol-artifact-1",
    "contractName": "InflationAllocation",
    "sourceName": "contracts/inflation/implementation/InflationAllocation.sol",
    "abi": [
        {
            "inputs": [
                {
                    "internalType": "address",
                    "name": "_governance",
                    "type": "address"
                },
                {
                    "internalType": "address",
                    "name": "_addressUpdater",
                    "type": "address"
                },
                {
                    "internalType": "uint256[]",
                    "name": "_timeSlotInflationScheduleBips",
                    "type": "uint256[]"
                }
            ],
            "stateMutability": "nonpayable",
            "type": "constructor"
        },
        {
            "anonymous": false,
            "inputs": [
                {
                    "indexed": false,
                    "internalType": "bytes4",
                    "name": "selector",
                    "type": "bytes4"
                },
                {
                    "indexed": false,
                    "internalType": "uint256",
                    "name": "allowedAfterTimestamp",
                    "type": "uint256"
                },
                {
                    "indexed": false,
                    "internalType": "bytes",
                    "name": "encodedCall",
                    "type": "bytes"
                }
            ],
            "name": "GovernanceCallTimelocked",
            "type": "event"
        },
        {
            "anonymous": false,
            "inputs": [
                {
                    "indexed": false,
                    "internalType": "address",
                    "name": "initialGovernance",
                    "type": "address"
                }
            ],
            "name": "GovernanceInitialised",
            "type": "event"
        },
        {
            "anonymous": false,
            "inputs": [
                {
                    "indexed": false,
                    "internalType": "address",
                    "name": "governanceSettings",
                    "type": "address"
                }
            ],
            "name": "GovernedProductionModeEntered",
            "type": "event"
        },
        {
            "anonymous": false,
            "inputs": [
                {
                    "indexed": false,
                    "internalType": "address",
                    "name": "oldAddress",
                    "type": "address"
                },
                {
                    "indexed": false,
                    "internalType": "address",
                    "name": "newAddress",
                    "type": "address"
                }
            ],
            "name": "InflationSet",
            "type": "event"
        },
        {
            "anonymous": false,
            "inputs": [
                {
                    "indexed": false,
                    "internalType": "contract IIInflationReceiver[]",
                    "name": "inflationReceivers",
                    "type": "address[]"
                },
                {
                    "indexed": false,
                    "internalType": "uint256[]",
                    "name": "percentagePerReceiverBips",
                    "type": "uint256[]"
                }
            ],
            "name": "InflationSharingPercentagesSet",
            "type": "event"
        },
        {
            "anonymous": false,
            "inputs": [
                {
                    "indexed": false,
                    "internalType": "uint256[]",
                    "name": "timeSlotInflationPercentagesBips",
                    "type": "uint256[]"
                }
            ],
            "name": "TimeSlotInflationPercentageScheduleSet",
            "type": "event"
        },
        {
            "anonymous": false,
            "inputs": [
                {
                    "indexed": false,
                    "internalType": "uint256",
                    "name": "percentageBips",
                    "type": "uint256"
                }
            ],
            "name": "TimeSlotInflationPercentageYielded",
            "type": "event"
        },
        {
            "anonymous": false,
            "inputs": [
                {
                    "indexed": false,
                    "internalType": "bytes4",
                    "name": "selector",
                    "type": "bytes4"
                },
                {
                    "indexed": false,
                    "internalType": "uint256",
                    "name": "timestamp",
                    "type": "uint256"
                }
            ],
            "name": "TimelockedGovernanceCallCanceled",
            "type": "event"
        },
        {
            "anonymous": false,
            "inputs": [
                {
                    "indexed": false,
                    "internalType": "bytes4",
                    "name": "selector",
                    "type": "bytes4"
                },
                {
                    "indexed": false,
                    "internalType": "uint256",
                    "name": "timestamp",
                    "type": "uint256"
                }
            ],
            "name": "TimelockedGovernanceCallExecuted",
            "type": "event"
        },
        {
            "inputs": [
                {
                    "internalType": "bytes4",
                    "name": "_selector",
                    "type": "bytes4"
                }
            ],
            "name": "cancelGovernanceCall",
            "outputs": [],
            "stateMutability": "nonpayable",
            "type": "function"
        },
        {
            "inputs": [
                {
                    "internalType": "bytes4",
                    "name": "_selector",
                    "type": "bytes4"
                }
            ],
            "name": "executeGovernanceCall",
            "outputs": [],
            "stateMutability": "nonpayable",
            "type": "function"
        },
        {
            "inputs": [],
            "name": "getAddressUpdater",
            "outputs": [
                {
                    "internalType": "address",
                    "name": "_addressUpdater",
                    "type": "address"
                }
            ],
            "stateMutability": "view",
            "type": "function"
        },
        {
            "inputs": [],
            "name": "getSharingPercentages",
            "outputs": [
                {
                    "components": [
                        {
                            "internalType": "contract IIInflationReceiver",
                            "name": "inflationReceiver",
                            "type": "address"
                        },
                        {
                            "internalType": "uint256",
                            "name": "percentBips",
                            "type": "uint256"
                        }
                    ],
                    "internalType": "struct SharingPercentage[]",
                    "name": "_sharingPercentages",
                    "type": "tuple[]"
                }
            ],
            "stateMutability": "view",
            "type": "function"
        },
        {
            "inputs": [],
            "name": "getTimeSlotPercentageBips",
            "outputs": [
                {
                    "internalType": "uint256",
                    "name": "",
                    "type": "uint256"
                }
            ],
            "stateMutability": "nonpayable",
            "type": "function"
        },
        {
            "inputs": [],
            "name": "governance",
            "outputs": [
                {
                    "internalType": "address",
                    "name": "",
                    "type": "address"
                }
            ],
            "stateMutability": "view",
            "type": "function"
        },
        {
            "inputs": [],
            "name": "governanceSettings",
            "outputs": [
                {
                    "internalType": "contract IGovernanceSettings",
                    "name": "",
                    "type": "address"
                }
            ],
            "stateMutability": "view",
            "type": "function"
        },
        {
            "inputs": [],
            "name": "inflation",
            "outputs": [
                {
                    "internalType": "contract Inflation",
                    "name": "",
                    "type": "address"
                }
            ],
            "stateMutability": "view",
            "type": "function"
        },
        {
            "inputs": [
                {
                    "internalType": "uint256",
                    "name": "",
                    "type": "uint256"
                }
            ],
            "name": "inflationReceivers",
            "outputs": [
                {
                    "internalType": "contract IIInflationReceiver",
                    "name": "receiverContract",
                    "type": "address"
                },
                {
                    "internalType": "uint32",
                    "name": "percentageBips",
                    "type": "uint32"
                }
            ],
            "stateMutability": "view",
            "type": "function"
        },
        {
            "inputs": [
                {
                    "internalType": "address",
                    "name": "_initialGovernance",
                    "type": "address"
                }
            ],
            "name": "initialise",
            "outputs": [],
            "stateMutability": "nonpayable",
            "type": "function"
        },
        {
            "inputs": [],
            "name": "lastTimeSlotInflationPercentageBips",
            "outputs": [
                {
                    "internalType": "uint256",
                    "name": "",
                    "type": "uint256"
                }
            ],
            "stateMutability": "view",
            "type": "function"
        },
        {
            "inputs": [],
            "name": "productionMode",
            "outputs": [
                {
                    "internalType": "bool",
                    "name": "",
                    "type": "bool"
                }
            ],
            "stateMutability": "view",
            "type": "function"
        },
        {
            "inputs": [
                {
                    "internalType": "contract IIInflationReceiver[]",
                    "name": "_inflationReceivers",
                    "type": "address[]"
                },
                {
                    "internalType": "uint256[]",
                    "name": "_percentagePerReceiverBips",
                    "type": "uint256[]"
                }
            ],
            "name": "setSharingPercentages",
            "outputs": [],
            "stateMutability": "nonpayable",
            "type": "function"
        },
        {
            "inputs": [
                {
                    "internalType": "uint256[]",
                    "name": "_timeSlotInflationScheduleBips",
                    "type": "uint256[]"
                }
            ],
            "name": "setTimeSlotInflation",
            "outputs": [],
            "stateMutability": "nonpayable",
            "type": "function"
        },
        {
            "inputs": [],
            "name": "switchToProductionMode",
            "outputs": [],
            "stateMutability": "nonpayable",
            "type": "function"
        },
        {
            "inputs": [
                {
                    "internalType": "uint256",
                    "name": "",
                    "type": "uint256"
                }
            ],
            "name": "timeSlotInflationPercentagesBips",
            "outputs": [
                {
                    "internalType": "uint256",
                    "name": "",
                    "type": "uint256"
                }
            ],
            "stateMutability": "view",
            "type": "function"
        },
        {
            "inputs": [
                {
                    "internalType": "bytes4",
                    "name": "",
                    "type": "bytes4"
                }
            ],
            "name": "timelockedCalls",
            "outputs": [
                {
                    "internalType": "uint256",
                    "name": "allowedAfterTimestamp",
                    "type": "uint256"
                },
                {
                    "internalType": "bytes",
                    "name": "encodedCall",
                    "type": "bytes"
                }
            ],
            "stateMutability": "view",
            "type": "function"
        },
        {
            "inputs": [
                {
                    "internalType": "bytes32[]",
                    "name": "_contractNameHashes",
                    "type": "bytes32[]"
                },
                {
                    "internalType": "address[]",
                    "name": "_contractAddresses",
                    "type": "address[]"
                }
            ],
            "name": "updateContractAddresses",
            "outputs": [],
            "stateMutability": "nonpayable",
            "type": "function"
        }
    ],
    "bytecode": "0x60806040523480156200001157600080fd5b50604051620024b9380380620024b983398101604081905262000034916200037a565b8183806001600160a01b038116156200005257620000528162000129565b506001600160a01b038116620000a2576040805162461bcd60e51b815260206004820152601060248201526f5f676f7665726e616e6365207a65726f60801b604482015290519081900360640190fd5b50620000ae81620001ec565b506000815111604051806060016040528060228152602001620024766022913990620000f85760405162461bcd60e51b8152600401620000ef919062000457565b60405180910390fd5b50806000815181106200010757fe5b6020908102919091010151600455620001208162000210565b505050620004ad565b600054600160a01b900460ff161562000189576040805162461bcd60e51b815260206004820152601460248201527f696e697469616c6973656420213d2066616c7365000000000000000000000000604482015290519081900360640190fd5b60008054600160a01b60ff60a01b19909116176001600160a01b0319166001600160a01b03831690811790915560408051918252517f9789733827840833afc031fb2ef9ab6894271f77bad2085687cf4ae5c7bee4db916020908290030190a150565b7f714f205b2abd25bef1d06a1af944e38c113fe6160375c4e1d6d5cf28848e771955565b60198151111560405180604001604052806008815260200167746f6f206d616e7960c01b81525090620002585760405162461bcd60e51b8152600401620000ef919062000457565b50805160045460005b828110156200035757818482815181106200027857fe5b602002602001015111158015620002a3575060008482815181106200029957fe5b6020026020010151115b8015620002c95750600a61271004848281518110620002be57fe5b602002602001015111155b604051806060016040528060218152602001620024986021913990620003045760405162461bcd60e51b8152600401620000ef919062000457565b508381815181106200031257fe5b6020026020010151915060058482815181106200032b57fe5b602090810291909101810151825460018181018555600094855292909320909201919091550162000261565b50505050565b80516001600160a01b03811681146200037557600080fd5b919050565b6000806000606084860312156200038f578283fd5b6200039a846200035d565b92506020620003ab8186016200035d565b60408601519093506001600160401b0380821115620003c8578384fd5b818701915087601f830112620003dc578384fd5b815181811115620003e957fe5b838102604051858282010181811085821117156200040357fe5b604052828152858101935084860182860187018c101562000422578788fd5b8795505b838610156200044657805185526001959095019493860193860162000426565b508096505050505050509250925092565b6000602080835283518082850152825b81811015620004855785810183015185820160400152820162000467565b81811115620004975783604083870101525b50601f01601f1916929092016040019392505050565b611fb980620004bd6000396000f3fe608060405234801561001057600080fd5b50600436106101165760003560e01c80638f0612b3116100a2578063b2d9e80611610071578063b2d9e8061461021c578063be0522e01461022f578063c853b8d414610237578063e17f212e1461024c578063f5a983831461026157610116565b80638f0612b3146101db5780639d6a890f146101e35780639e5fd49d146101f6578063b00c0b761461020957610116565b80635aa6e675116100e95780635aa6e675146101825780635ff270791461018a57806362354e031461019f57806367fc4029146101a757806374e6310e146101ba57610116565b8063172839d21461011b5780631d019e341461014457806330fe6482146101655780635267a15d1461016d575b600080fd5b61012e610129366004611d09565b610269565b60405161013b9190611ebd565b60405180910390f35b610157610152366004611d09565b61028a565b60405161013b929190611e8b565b61012e6102c2565b6101756102c8565b60405161013b9190611d87565b6101756102ed565b61019d610198366004611c57565b61038f565b005b6101756106f1565b61019d6101b5366004611c57565b610709565b6101cd6101c8366004611c57565b6107f1565b60405161013b929190611ec6565b61012e610897565b61019d6101f1366004611a8c565b610a27565b61019d610204366004611c1c565b610ae0565b61019d610217366004611aaf565b610b9d565b61019d61022a366004611b66565b610c48565b610175610c91565b61023f610ca0565b60405161013b9190611e15565b610254610daa565b60405161013b9190611e80565b61019d610dba565b6005818154811061027957600080fd5b600091825260209091200154905081565b6002818154811061029a57600080fd5b6000918252602090912001546001600160a01b0381169150600160a01b900463ffffffff1682565b60045481565b7f714f205b2abd25bef1d06a1af944e38c113fe6160375c4e1d6d5cf28848e77195490565b60008054600160a81b900460ff16610310576000546001600160a01b031661038a565b73183faff6997c98a812a3b98748fc80241d08f3126001600160a01b031663732524946040518163ffffffff1660e01b815260040160206040518083038186803b15801561035d57600080fd5b505afa158015610371573d6000803e3d6000fd5b505050506040513d602081101561038757600080fd5b50515b905090565b60408051630debfda360e41b8152336004820152905173183faff6997c98a812a3b98748fc80241d08f3129163debfda30916024808301926020929190829003018186803b1580156103e057600080fd5b505afa1580156103f4573d6000803e3d6000fd5b505050506040513d602081101561040a57600080fd5b505161044d576040805162461bcd60e51b815260206004820152600d60248201526c37b7363c9032bc32b1baba37b960991b604482015290519081900360640190fd5b6001600160e01b03198116600090815260016020526040902080546104b9576040805162461bcd60e51b815260206004820152601a60248201527f74696d656c6f636b3a20696e76616c69642073656c6563746f72000000000000604482015290519081900360640190fd5b805442101561050f576040805162461bcd60e51b815260206004820152601960248201527f74696d656c6f636b3a206e6f7420616c6c6f7765642079657400000000000000604482015290519081900360640190fd5b6000816001018054600181600116156101000203166002900480601f0160208091040260200160405190810160405280929190818152602001828054600181600116156101000203166002900480156105a95780601f1061057e576101008083540402835291602001916105a9565b820191906000526020600020905b81548152906001019060200180831161058c57829003601f168201915b5050506001600160e01b03198616600090815260016020819052604082208281559495509092506105dd91508301826118c9565b50506000805460ff60b01b1916600160b01b178155604051825130918491819060208401908083835b602083106106255780518252601f199092019160209182019101610606565b6001836020036101000a0380198251168184511680821785525050505050509050019150506000604051808303816000865af19150503d8060008114610687576040519150601f19603f3d011682016040523d82523d6000602084013e61068c565b606091505b50506000805460ff60b01b19169055604080516001600160e01b03198716815242602082015281519293507fa7326b57fc9cfe267aaea5e7f0b01757154d265620a0585819416ee9ddd2c438929081900390910190a16106eb81610e81565b50505050565b73183faff6997c98a812a3b98748fc80241d08f31281565b610711610e9e565b6001600160e01b0319811660009081526001602052604090205461077c576040805162461bcd60e51b815260206004820152601a60248201527f74696d656c6f636b3a20696e76616c69642073656c6563746f72000000000000604482015290519081900360640190fd5b604080516001600160e01b03198316815242602082015281517f7735b2391c38a81419c513e30ca578db7158eadd7101511b23e221c654d19cf8929181900390910190a16001600160e01b031981166000908152600160208190526040822082815591906107ec908301826118c9565b505050565b600160208181526000928352604092839020805481840180548651600296821615610100026000190190911695909504601f8101859004850286018501909652858552909491939290919083018282801561088d5780601f106108625761010080835404028352916020019161088d565b820191906000526020600020905b81548152906001019060200180831161087057829003601f168201915b5050505050905082565b60035460408051808201909152600c81526b06164647265737320697320360a41b60208201526000916001600160a01b031690816108f15760405162461bcd60e51b81526004016108e89190611eaa565b60405180910390fd5b5060035460408051808201909152600e81526d37b7363c9034b7333630ba34b7b760911b6020820152906001600160a01b031633146109435760405162461bcd60e51b81526004016108e89190611eaa565b50600554156109e457600560008154811061095a57fe5b60009182526020909120015460045560055460018111156109c15760005b600182038110156109bf576005816001018154811061099357fe5b9060005260206000200154600582815481106109ab57fe5b600091825260209091200155600101610978565b505b60058054806109cc57fe5b60019003818190600052602060002001600090559055505b7ff688fbdea401aa4d41a2161615510c602c5d55a3b978ffa41ba94beaefc11d37600454604051610a159190611ebd565b60405180910390a160045491505b5090565b600054600160a01b900460ff1615610a7d576040805162461bcd60e51b8152602060048201526014602482015273696e697469616c6973656420213d2066616c736560601b604482015290519081900360640190fd5b60008054600160a01b60ff60a01b19909116176001600160a01b0319166001600160a01b03831690811790915560408051918252517f9789733827840833afc031fb2ef9ab6894271f77bad2085687cf4ae5c7bee4db916020908290030190a150565b600054600160b01b900460ff1680610b025750600054600160a81b900460ff16155b15610b8f57610b0f610eff565b60055460005b81811015610b48576005805480610b2857fe5b600082815260208120820160001990810191909155019055600101610b15565b50610b5282610f34565b7f4310f1b74596fc6d897e6f90befbafefcda4b06bffb7f47b6ddd8110188e52d682604051610b819190611e6d565b60405180910390a150610b9a565b610b9a60003661106b565b50565b610ba56102c8565b6001600160a01b0316336001600160a01b031614610c01576040805162461bcd60e51b815260206004820152601460248201527337b7363c9030b2323932b9b9903ab83230ba32b960611b604482015290519081900360640190fd5b610c3a610c3583836040518060400160405280600e81526020016d20b2323932b9b9aab83230ba32b960911b8152506111fb565b611328565b610c44828261134c565b5050565b600054600160b01b900460ff1680610c6a5750600054600160a81b900460ff16155b15610c8657610c77610eff565b610c8182826115b3565b610c44565b610c4460003661106b565b6003546001600160a01b031681565b6002546060908067ffffffffffffffff81118015610cbd57600080fd5b50604051908082528060200260200182016040528015610cf757816020015b610ce461190d565b815260200190600190039081610cdc5790505b50915060005b81811015610da55760028181548110610d1257fe5b9060005260206000200160000160149054906101000a900463ffffffff1663ffffffff16838281518110610d4257fe5b6020026020010151602001818152505060028181548110610d5f57fe5b60009182526020909120015483516001600160a01b0390911690849083908110610d8557fe5b60209081029190910101516001600160a01b039091169052600101610cfd565b505090565b600054600160a81b900460ff1681565b610dc2610e9e565b600054600160a81b900460ff1615610e21576040805162461bcd60e51b815260206004820152601a60248201527f616c726561647920696e2070726f64756374696f6e206d6f6465000000000000604482015290519081900360640190fd5b60008054600161ff0160a01b031916600160a81b1790556040805173183faff6997c98a812a3b98748fc80241d08f312815290517f83af113638b5422f9e977cebc0aaf0eaf2188eb9a8baae7f9d46c42b33a1560c9181900360200190a1565b3d604051818101604052816000823e8215610e9a578181f35b8181fd5b610ea66102ed565b6001600160a01b0316336001600160a01b031614610efd576040805162461bcd60e51b815260206004820152600f60248201526e6f6e6c7920676f7665726e616e636560881b604482015290519081900360640190fd5b565b600054600160b01b900460ff1615610f2c57333014610f1a57fe5b6000805460ff60b01b19169055610efd565b610efd610e9e565b60198151111560405180604001604052806008815260200167746f6f206d616e7960c01b81525090610f795760405162461bcd60e51b81526004016108e89190611eaa565b50805160045460005b828110156106eb5781848281518110610f9757fe5b602002602001015111158015610fc057506000848281518110610fb657fe5b6020026020010151115b8015610fe45750600a61271004848281518110610fd957fe5b602002602001015111155b604051806060016040528060218152602001611f63602191399061101b5760405162461bcd60e51b81526004016108e89190611eaa565b5083818151811061102857fe5b60200260200101519150600584828151811061104057fe5b6020908102919091018101518254600181810185556000948552929093209092019190915501610f82565b611073610e9e565b600082359050600073183faff6997c98a812a3b98748fc80241d08f3126001600160a01b0316636221a54b6040518163ffffffff1660e01b815260040160206040518083038186803b1580156110c857600080fd5b505afa1580156110dc573d6000803e3d6000fd5b505050506040513d60208110156110f257600080fd5b505160408051808201825242830180825282516020601f89018190048102820181019094528781529394509290918281019190889088908190840183828082843760009201829052509390945250506001600160e01b0319861681526001602081815260409092208451815584830151805191945061117693928501920190611924565b509050507fed948300a3694aa01d4a6b258bfd664350193d770c0b51f8387277f6d83ea3b68382878760405180856001600160e01b0319168152602001848152602001806020018281038252848482818152602001925080828437600083820152604051601f909101601f191690920182900397509095505050505050a15050505050565b600080826040516020018080602001828103825283818151815260200191508051906020019080838360005b8381101561123f578181015183820152602001611227565b50505050905090810190601f16801561126c5780820380516001836020036101000a031916815260200191505b50925050506040516020818303038152906040528051906020012090506000805b86518110156112d4578681815181106112a257fe5b60200260200101518314156112cc578581815181106112bd57fe5b602002602001015191506112d4565b60010161128d565b506001600160a01b03811661131f576040805162461bcd60e51b815260206004820152600c60248201526b61646472657373207a65726f60a01b604482015290519081900360640190fd5b95945050505050565b7f714f205b2abd25bef1d06a1af944e38c113fe6160375c4e1d6d5cf28848e771955565b600061137a83836040518060400160405280600981526020016824b7333630ba34b7b760b91b8152506111fb565b6003546040519192507f4bdd1012a7d55ed9afad8675a125e1b68c7c15f712c0f3d5cddac69c3b979805916113ba916001600160a01b0316908490611d9b565b60405180910390a1600380546001600160a01b0319166001600160a01b038316179055600254806113ec575050610c44565b60008167ffffffffffffffff8111801561140557600080fd5b5060405190808252806020026020018201604052801561142f578160200160208202803683370190505b50905060008267ffffffffffffffff8111801561144b57600080fd5b50604051908082528060200260200182016040528015611475578160200160208202803683370190505b50905060005b838110156115a05760006002828154811061149257fe5b6000918252602080832060408051808201825293909101546001600160a01b038116808552600160a01b90910463ffffffff16928401929092528051637afadd3960e11b81529051929450611549938c938c939263f5f5ba72926004808301939192829003018186803b15801561150857600080fd5b505afa15801561151c573d6000803e3d6000fd5b505050506040513d6000823e601f3d908101601f191682016040526115449190810190611c7f565b6111fb565b84838151811061155557fe5b60200260200101906001600160a01b031690816001600160a01b031681525050806020015163ffffffff1683838151811061158c57fe5b60209081029190910101525060010161147b565b506115ab82826115b3565b505050505050565b80518251146040518060400160405280600f81526020016e0d8cadccee8d040dad2e6dac2e8c6d608b1b815250906115fe5760405162461bcd60e51b81526004016108e89190611eaa565b50600a8251111560405180604001604052806008815260200167746f6f206d616e7960c01b815250906116445760405162461bcd60e51b81526004016108e89190611eaa565b50600254600090815b8181101561168a57600280548061166057fe5b600082815260209020810160001990810180546001600160c01b031916905501905560010161164d565b5060005b8451811015611832576127108482815181106116a657fe5b602002602001015111156040518060400160405280601781526020017f686967682073686172696e672070657263656e74616765000000000000000000815250906117045760405162461bcd60e51b81526004016108e89190611eaa565b5060006001600160a01b031685828151811061171c57fe5b60200260200101516001600160a01b031614156040518060400160405280600c81526020016b06164647265737320697320360a41b815250906117725760405162461bcd60e51b81526004016108e89190611eaa565b5083818151811061177f57fe5b602002602001015183019250600260405180604001604052808784815181106117a457fe5b60200260200101516001600160a01b031681526020018684815181106117c657fe5b60209081029190910181015163ffffffff90811690925283546001808201865560009586529482902084519101805494909201516001600160a01b03199094166001600160a01b039091161763ffffffff60a01b1916600160a01b93909216929092021790550161168e565b5060408051808201909152601f81527f73756d2073686172696e672070657263656e74616765206e6f74203130302500602082015261271083146118895760405162461bcd60e51b81526004016108e89190611eaa565b507f5851f041454bd72003e19484c59ec9c1bd9c6f8df07679fd1e94412fb5880b4484846040516118bb929190611db5565b60405180910390a150505050565b50805460018160011615610100020316600290046000825580601f106118ef5750610b9a565b601f016020900490600052602060002090810190610b9a91906119a8565b604080518082019091526000808252602082015290565b828054600181600116156101000203166002900490600052602060002090601f01602090048101928261195a57600085556119a0565b82601f1061197357805160ff19168380011785556119a0565b828001600101855582156119a0579182015b828111156119a0578251825591602001919060010190611985565b50610a239291505b5b80821115610a2357600081556001016119a9565b600082601f8301126119cd578081fd5b813560206119e26119dd83611f03565b611edf565b82815281810190858301838502870184018810156119fe578586fd5b855b85811015611a25578135611a1381611f4d565b84529284019290840190600101611a00565b5090979650505050505050565b600082601f830112611a42578081fd5b81356020611a526119dd83611f03565b8281528181019085830183850287018401881015611a6e578586fd5b855b85811015611a2557813584529284019290840190600101611a70565b600060208284031215611a9d578081fd5b8135611aa881611f4d565b9392505050565b60008060408385031215611ac1578081fd5b823567ffffffffffffffff80821115611ad8578283fd5b818501915085601f830112611aeb578283fd5b81356020611afb6119dd83611f03565b82815281810190858301838502870184018b1015611b17578788fd5b8796505b84871015611b39578035835260019690960195918301918301611b1b565b5096505086013592505080821115611b4f578283fd5b50611b5c858286016119bd565b9150509250929050565b60008060408385031215611b78578182fd5b823567ffffffffffffffff80821115611b8f578384fd5b818501915085601f830112611ba2578384fd5b81356020611bb26119dd83611f03565b82815281810190858301838502870184018b1015611bce578889fd5b8896505b84871015611bf9578035611be581611f4d565b835260019690960195918301918301611bd2565b5096505086013592505080821115611c0f578283fd5b50611b5c85828601611a32565b600060208284031215611c2d578081fd5b813567ffffffffffffffff811115611c43578182fd5b611c4f84828501611a32565b949350505050565b600060208284031215611c68578081fd5b81356001600160e01b031981168114611aa8578182fd5b600060208284031215611c90578081fd5b815167ffffffffffffffff80821115611ca7578283fd5b818401915084601f830112611cba578283fd5b815181811115611cc657fe5b611cd9601f8201601f1916602001611edf565b9150808252856020828501011115611cef578384fd5b611d00816020840160208601611f21565b50949350505050565b600060208284031215611d1a578081fd5b5035919050565b6000815180845260208085019450808401835b83811015611d5057815187529582019590820190600101611d34565b509495945050505050565b60008151808452611d73816020860160208601611f21565b601f01601f19169290920160200192915050565b6001600160a01b0391909116815260200190565b6001600160a01b0392831681529116602082015260400190565b604080825283519082018190526000906020906060840190828701845b82811015611df75781516001600160a01b031684529284019290840190600101611dd2565b50505083810382850152611e0b8186611d21565b9695505050505050565b602080825282518282018190526000919060409081850190868401855b82811015611e6057815180516001600160a01b03168552860151868501529284019290850190600101611e32565b5091979650505050505050565b600060208252611aa86020830184611d21565b901515815260200190565b6001600160a01b0392909216825263ffffffff16602082015260400190565b600060208252611aa86020830184611d5b565b90815260200190565b600083825260406020830152611c4f6040830184611d5b565b60405181810167ffffffffffffffff81118282101715611efb57fe5b604052919050565b600067ffffffffffffffff821115611f1757fe5b5060209081020190565b60005b83811015611f3c578181015183820152602001611f24565b838111156106eb5750506000910152565b6001600160a01b0381168114610b9a57600080fdfe74696d6520736c6f7420696e666c6174696f6e206f7574206f6620626f756e6473a2646970667358221220d80eed8f083c39844f5379d8d19bb339d9a1192e238301bdec4d44c073d94fee64736f6c6343000706003374696d6520736c6f7420696e666c6174696f6e207363686564756c6520656d70747974696d6520736c6f7420696e666c6174696f6e206f7574206f6620626f756e6473",
    "linkReferences": {},
    "deployedLinkReferences": {}
}