{
    "_format": "hh-sol-artifact-1",
    "contractName": "VoterWhitelister",
    "sourceName": "contracts/utils/implementation/VoterWhitelister.sol",
    "abi": [
        {
            "inputs": [
                {
                    "internalType": "address",
                    "name": "_governance",
                    "type": "address"
                },
                {
                    "internalType": "address",
                    "name": "_addressUpdater",
                    "type": "address"
                },
                {
                    "internalType": "contract IIPriceSubmitter",
                    "name": "_priceSubmitter",
                    "type": "address"
                },
                {
                    "internalType": "uint256",
                    "name": "_defaultMaxVotersForFtso",
                    "type": "uint256"
                },
                {
                    "internalType": "contract IVoterWhitelister",
                    "name": "_oldVoterWhitelister",
                    "type": "address"
                }
            ],
            "stateMutability": "nonpayable",
            "type": "constructor"
        },
        {
            "anonymous": false,
            "inputs": [
                {
                    "indexed": false,
                    "internalType": "bytes4",
                    "name": "selector",
                    "type": "bytes4"
                },
                {
                    "indexed": false,
                    "internalType": "uint256",
                    "name": "allowedAfterTimestamp",
                    "type": "uint256"
                },
                {
                    "indexed": false,
                    "internalType": "bytes",
                    "name": "encodedCall",
                    "type": "bytes"
                }
            ],
            "name": "GovernanceCallTimelocked",
            "type": "event"
        },
        {
            "anonymous": false,
            "inputs": [
                {
                    "indexed": false,
                    "internalType": "address",
                    "name": "initialGovernance",
                    "type": "address"
                }
            ],
            "name": "GovernanceInitialised",
            "type": "event"
        },
        {
            "anonymous": false,
            "inputs": [
                {
                    "indexed": false,
                    "internalType": "address",
                    "name": "governanceSettings",
                    "type": "address"
                }
            ],
            "name": "GovernedProductionModeEntered",
            "type": "event"
        },
        {
            "anonymous": false,
            "inputs": [
                {
                    "indexed": false,
                    "internalType": "bytes4",
                    "name": "selector",
                    "type": "bytes4"
                },
                {
                    "indexed": false,
                    "internalType": "uint256",
                    "name": "timestamp",
                    "type": "uint256"
                }
            ],
            "name": "TimelockedGovernanceCallCanceled",
            "type": "event"
        },
        {
            "anonymous": false,
            "inputs": [
                {
                    "indexed": false,
                    "internalType": "bytes4",
                    "name": "selector",
                    "type": "bytes4"
                },
                {
                    "indexed": false,
                    "internalType": "uint256",
                    "name": "timestamp",
                    "type": "uint256"
                }
            ],
            "name": "TimelockedGovernanceCallExecuted",
            "type": "event"
        },
        {
            "anonymous": false,
            "inputs": [
                {
                    "indexed": false,
                    "internalType": "address",
                    "name": "voter",
                    "type": "address"
                },
                {
                    "indexed": false,
                    "internalType": "uint256",
                    "name": "untilRewardEpoch",
                    "type": "uint256"
                }
            ],
            "name": "VoterChilled",
            "type": "event"
        },
        {
            "anonymous": false,
            "inputs": [
                {
                    "indexed": false,
                    "internalType": "address",
                    "name": "voter",
                    "type": "address"
                },
                {
                    "indexed": false,
                    "internalType": "uint256",
                    "name": "ftsoIndex",
                    "type": "uint256"
                }
            ],
            "name": "VoterRemovedFromWhitelist",
            "type": "event"
        },
        {
            "anonymous": false,
            "inputs": [
                {
                    "indexed": false,
                    "internalType": "address",
                    "name": "voter",
                    "type": "address"
                },
                {
                    "indexed": false,
                    "internalType": "uint256",
                    "name": "ftsoIndex",
                    "type": "uint256"
                }
            ],
            "name": "VoterWhitelisted",
            "type": "event"
        },
        {
            "inputs": [
                {
                    "internalType": "uint256",
                    "name": "_ftsoIndex",
                    "type": "uint256"
                }
            ],
            "name": "addFtso",
            "outputs": [],
            "stateMutability": "nonpayable",
            "type": "function"
        },
        {
            "inputs": [
                {
                    "internalType": "bytes4",
                    "name": "_selector",
                    "type": "bytes4"
                }
            ],
            "name": "cancelGovernanceCall",
            "outputs": [],
            "stateMutability": "nonpayable",
            "type": "function"
        },
        {
            "inputs": [
                {
                    "internalType": "address",
                    "name": "_voter",
                    "type": "address"
                },
                {
                    "internalType": "uint256",
                    "name": "_noOfRewardEpochs",
                    "type": "uint256"
                },
                {
                    "internalType": "uint256[]",
                    "name": "_ftsoIndices",
                    "type": "uint256[]"
                }
            ],
            "name": "chillVoter",
            "outputs": [
                {
                    "internalType": "bool[]",
                    "name": "_removed",
                    "type": "bool[]"
                },
                {
                    "internalType": "uint256",
                    "name": "_untilRewardEpoch",
                    "type": "uint256"
                }
            ],
            "stateMutability": "nonpayable",
            "type": "function"
        },
        {
            "inputs": [
                {
                    "internalType": "address",
                    "name": "",
                    "type": "address"
                }
            ],
            "name": "chilledUntilRewardEpoch",
            "outputs": [
                {
                    "internalType": "uint256",
                    "name": "",
                    "type": "uint256"
                }
            ],
            "stateMutability": "view",
            "type": "function"
        },
        {
            "inputs": [],
            "name": "copyMode",
            "outputs": [
                {
                    "internalType": "bool",
                    "name": "",
                    "type": "bool"
                }
            ],
            "stateMutability": "view",
            "type": "function"
        },
        {
            "inputs": [
                {
                    "internalType": "uint256",
                    "name": "_ftsoIndex",
                    "type": "uint256"
                }
            ],
            "name": "copyWhitelist",
            "outputs": [],
            "stateMutability": "nonpayable",
            "type": "function"
        },
        {
            "inputs": [],
            "name": "defaultMaxVotersForFtso",
            "outputs": [
                {
                    "internalType": "uint256",
                    "name": "",
                    "type": "uint256"
                }
            ],
            "stateMutability": "view",
            "type": "function"
        },
        {
            "inputs": [
                {
                    "internalType": "bytes4",
                    "name": "_selector",
                    "type": "bytes4"
                }
            ],
            "name": "executeGovernanceCall",
            "outputs": [],
            "stateMutability": "nonpayable",
            "type": "function"
        },
        {
            "inputs": [],
            "name": "ftsoManager",
            "outputs": [
                {
                    "internalType": "contract IFtsoManager",
                    "name": "",
                    "type": "address"
                }
            ],
            "stateMutability": "view",
            "type": "function"
        },
        {
            "inputs": [],
            "name": "ftsoRegistry",
            "outputs": [
                {
                    "internalType": "contract IFtsoRegistry",
                    "name": "",
                    "type": "address"
                }
            ],
            "stateMutability": "view",
            "type": "function"
        },
        {
            "inputs": [],
            "name": "getAddressUpdater",
            "outputs": [
                {
                    "internalType": "address",
                    "name": "_addressUpdater",
                    "type": "address"
                }
            ],
            "stateMutability": "view",
            "type": "function"
        },
        {
            "inputs": [
                {
                    "internalType": "uint256",
                    "name": "_ftsoIndex",
                    "type": "uint256"
                }
            ],
            "name": "getFtsoWhitelistedPriceProviders",
            "outputs": [
                {
                    "internalType": "address[]",
                    "name": "",
                    "type": "address[]"
                }
            ],
            "stateMutability": "view",
            "type": "function"
        },
        {
            "inputs": [
                {
                    "internalType": "string",
                    "name": "_symbol",
                    "type": "string"
                }
            ],
            "name": "getFtsoWhitelistedPriceProvidersBySymbol",
            "outputs": [
                {
                    "internalType": "address[]",
                    "name": "",
                    "type": "address[]"
                }
            ],
            "stateMutability": "view",
            "type": "function"
        },
        {
            "inputs": [],
            "name": "governance",
            "outputs": [
                {
                    "internalType": "address",
                    "name": "",
                    "type": "address"
                }
            ],
            "stateMutability": "view",
            "type": "function"
        },
        {
            "inputs": [],
            "name": "governanceSettings",
            "outputs": [
                {
                    "internalType": "contract IGovernanceSettings",
                    "name": "",
                    "type": "address"
                }
            ],
            "stateMutability": "view",
            "type": "function"
        },
        {
            "inputs": [
                {
                    "internalType": "address",
                    "name": "_initialGovernance",
                    "type": "address"
                }
            ],
            "name": "initialise",
            "outputs": [],
            "stateMutability": "nonpayable",
            "type": "function"
        },
        {
            "inputs": [
                {
                    "internalType": "uint256",
                    "name": "",
                    "type": "uint256"
                }
            ],
            "name": "maxVotersForFtso",
            "outputs": [
                {
                    "internalType": "uint256",
                    "name": "",
                    "type": "uint256"
                }
            ],
            "stateMutability": "view",
            "type": "function"
        },
        {
            "inputs": [],
            "name": "oldVoterWhitelister",
            "outputs": [
                {
                    "internalType": "contract IVoterWhitelister",
                    "name": "",
                    "type": "address"
                }
            ],
            "stateMutability": "view",
            "type": "function"
        },
        {
            "inputs": [],
            "name": "priceSubmitter",
            "outputs": [
                {
                    "internalType": "contract IIPriceSubmitter",
                    "name": "",
                    "type": "address"
                }
            ],
            "stateMutability": "view",
            "type": "function"
        },
        {
            "inputs": [],
            "name": "productionMode",
            "outputs": [
                {
                    "internalType": "bool",
                    "name": "",
                    "type": "bool"
                }
            ],
            "stateMutability": "view",
            "type": "function"
        },
        {
            "inputs": [
                {
                    "internalType": "uint256",
                    "name": "_ftsoIndex",
                    "type": "uint256"
                }
            ],
            "name": "removeFtso",
            "outputs": [],
            "stateMutability": "nonpayable",
            "type": "function"
        },
        {
            "inputs": [
                {
                    "internalType": "address",
                    "name": "_trustedAddress",
                    "type": "address"
                },
                {
                    "internalType": "uint256",
                    "name": "_ftsoIndex",
                    "type": "uint256"
                }
            ],
            "name": "removeTrustedAddressFromWhitelist",
            "outputs": [],
            "stateMutability": "nonpayable",
            "type": "function"
        },
        {
            "inputs": [
                {
                    "internalType": "address",
                    "name": "_voter",
                    "type": "address"
                }
            ],
            "name": "requestFullVoterWhitelisting",
            "outputs": [
                {
                    "internalType": "uint256[]",
                    "name": "_supportedIndices",
                    "type": "uint256[]"
                },
                {
                    "internalType": "bool[]",
                    "name": "_success",
                    "type": "bool[]"
                }
            ],
            "stateMutability": "nonpayable",
            "type": "function"
        },
        {
            "inputs": [
                {
                    "internalType": "address",
                    "name": "_voter",
                    "type": "address"
                },
                {
                    "internalType": "uint256",
                    "name": "_ftsoIndex",
                    "type": "uint256"
                }
            ],
            "name": "requestWhitelistingVoter",
            "outputs": [],
            "stateMutability": "nonpayable",
            "type": "function"
        },
        {
            "inputs": [
                {
                    "internalType": "uint256",
                    "name": "_defaultMaxVotersForFtso",
                    "type": "uint256"
                }
            ],
            "name": "setDefaultMaxVotersForFtso",
            "outputs": [],
            "stateMutability": "nonpayable",
            "type": "function"
        },
        {
            "inputs": [
                {
                    "internalType": "uint256",
                    "name": "_ftsoIndex",
                    "type": "uint256"
                },
                {
                    "internalType": "uint256",
                    "name": "_newMaxVoters",
                    "type": "uint256"
                }
            ],
            "name": "setMaxVotersForFtso",
            "outputs": [],
            "stateMutability": "nonpayable",
            "type": "function"
        },
        {
            "inputs": [],
            "name": "switchToProductionMode",
            "outputs": [],
            "stateMutability": "nonpayable",
            "type": "function"
        },
        {
            "inputs": [
                {
                    "internalType": "bytes4",
                    "name": "",
                    "type": "bytes4"
                }
            ],
            "name": "timelockedCalls",
            "outputs": [
                {
                    "internalType": "uint256",
                    "name": "allowedAfterTimestamp",
                    "type": "uint256"
                },
                {
                    "internalType": "bytes",
                    "name": "encodedCall",
                    "type": "bytes"
                }
            ],
            "stateMutability": "view",
            "type": "function"
        },
        {
            "inputs": [],
            "name": "turnOffCopyMode",
            "outputs": [],
            "stateMutability": "nonpayable",
            "type": "function"
        },
        {
            "inputs": [
                {
                    "internalType": "bytes32[]",
                    "name": "_contractNameHashes",
                    "type": "bytes32[]"
                },
                {
                    "internalType": "address[]",
                    "name": "_contractAddresses",
                    "type": "address[]"
                }
            ],
            "name": "updateContractAddresses",
            "outputs": [],
            "stateMutability": "nonpayable",
            "type": "function"
        }
    ],
    "bytecode": "0x60c06040523480156200001157600080fd5b506040516200402b3803806200402b833981810160405260a08110156200003757600080fd5b508051602082015160408301516060840151608090940151929391929091908385806001600160a01b038116156200007457620000748162000120565b506001600160a01b038116620000c4576040805162461bcd60e51b815260206004820152601060248201526f5f676f7665726e616e6365207a65726f60801b604482015290519081900360640190fd5b50620000d081620001e3565b50606092831b6001600160601b03199081166080526002929092559182901b1660a0526007805460ff60a01b19166001600160a01b039092161515600160a01b0291909117905550620002079050565b600054600160a01b900460ff161562000180576040805162461bcd60e51b815260206004820152601460248201527f696e697469616c6973656420213d2066616c7365000000000000000000000000604482015290519081900360640190fd5b60008054600160a01b60ff60a01b19909116176001600160a01b0319166001600160a01b03831690811790915560408051918252517f9789733827840833afc031fb2ef9ab6894271f77bad2085687cf4ae5c7bee4db916020908290030190a150565b7f714f205b2abd25bef1d06a1af944e38c113fe6160375c4e1d6d5cf28848e771955565b60805160601c60a05160601c613ddc6200024f600039806108ea5280611aa55280611b645280611f5652508061255252806125b052806130e052806133e45250613ddc6000f3fe608060405234801561001057600080fd5b50600436106101da5760003560e01c806374e6310e11610104578063aa89dfd4116100a2578063d873617111610071578063d87361711461089e578063e17f212e146108bb578063f5a98383146108c3578063f937d6ad146108cb576101da565b8063aa89dfd414610610578063ab674b22146106b4578063b00c0b76146106bc578063b06cbaf7146107df576101da565b806398dccfc2116100de57806398dccfc2146105855780639d6a890f146105a25780639dc950ab146105c8578063a5eb9c60146105f4576101da565b806374e6310e1461049f5780637ecfcfa3146105455780638e15c88314610568576101da565b80633de2cb1c1161017c5780635aa6e6751161014b5780635aa6e675146104415780635ff270791461044957806362354e031461047057806367fc402914610478576101da565b80633de2cb1c146103cd57806346538074146103f957806347ed51b1146104315780635267a15d14610439576101da565b80632ee96140116101b85780632ee9614014610381578063345705a4146103a057806338b5f869146103bd5780633a65d7b6146103c5576101da565b806309fcb400146101df57806311a7aaaa1461024c5780632b4faebb14610270575b600080fd5b6101fc600480360360208110156101f557600080fd5b50356108d3565b60408051602080825283518183015283519192839290830191858101910280838360005b83811015610238578181015183820152602001610220565b505050509050019250505060405180910390f35b610254610ae2565b604080516001600160a01b039092168252519081900360200190f35b6103266004803603606081101561028657600080fd5b6001600160a01b0382351691602081013591810190606081016040820135600160201b8111156102b557600080fd5b8201836020820111156102c757600080fd5b803590602001918460208302840111600160201b831117156102e857600080fd5b919080806020026020016040519081016040528093929190818152602001838360200280828437600092019190915250929550610af1945050505050565b6040518080602001838152602001828103825284818151815260200191508051906020019060200280838360005b8381101561036c578181015183820152602001610354565b50505050905001935050505060405180910390f35b61039e6004803603602081101561039757600080fd5b5035610d4c565b005b61039e600480360360208110156103b657600080fd5b5035610d93565b610254610ea7565b61039e610eb6565b61039e600480360360408110156103e357600080fd5b506001600160a01b038135169060200135610f1e565b61041f6004803603602081101561040f57600080fd5b50356001600160a01b03166110f4565b60408051918252519081900360200190f35b61041f611106565b61025461110c565b610254611131565b61039e6004803603602081101561045f57600080fd5b50356001600160e01b0319166111c6565b61025461151b565b61039e6004803603602081101561048e57600080fd5b50356001600160e01b031916611526565b6104c6600480360360208110156104b557600080fd5b50356001600160e01b03191661160e565b6040518083815260200180602001828103825283818151815260200191508051906020019080838360005b838110156105095781810151838201526020016104f1565b50505050905090810190601f1680156105365780820380516001836020036101000a031916815260200191505b50935050505060405180910390f35b61039e6004803603604081101561055b57600080fd5b50803590602001356116b4565b61039e6004803603602081101561057e57600080fd5b50356119f8565b61041f6004803603602081101561059b57600080fd5b5035611c94565b61039e600480360360208110156105b857600080fd5b50356001600160a01b0316611ca6565b61039e600480360360408110156105de57600080fd5b506001600160a01b038135169060200135611d5f565b6105fc611e55565b604080519115158252519081900360200190f35b6101fc6004803603602081101561062657600080fd5b810190602081018135600160201b81111561064057600080fd5b82018360208201111561065257600080fd5b803590602001918460018302840111600160201b8311171561067357600080fd5b91908080601f016020809104026020016040519081016040528093929190818152602001838380828437600092019190915250929550611e65945050505050565b610254611f54565b61039e600480360360408110156106d257600080fd5b810190602081018135600160201b8111156106ec57600080fd5b8201836020820111156106fe57600080fd5b803590602001918460208302840111600160201b8311171561071f57600080fd5b9190808060200260200160405190810160405280939291908181526020018383602002808284376000920191909152509295949360208101935035915050600160201b81111561076e57600080fd5b82018360208201111561078057600080fd5b803590602001918460208302840111600160201b831117156107a157600080fd5b919080806020026020016040519081016040528093929190818152602001838360200280828437600092019190915250929550611f78945050505050565b610805600480360360208110156107f557600080fd5b50356001600160a01b031661201f565b604051808060200180602001838103835285818151815260200191508051906020019060200280838360005b83811015610849578181015183820152602001610831565b50505050905001838103825284818151815260200191508051906020019060200280838360005b83811015610888578181015183820152602001610870565b5050505090500194505050505060405180910390f35b61039e600480360360208110156108b457600080fd5b5035612354565b6105fc612486565b61039e612496565b610254612550565b600754606090600160a01b900460ff1615610a1a577f00000000000000000000000000000000000000000000000000000000000000006001600160a01b03166309fcb400836040518263ffffffff1660e01b81526004018082815260200191505060006040518083038186803b15801561094c57600080fd5b505afa158015610960573d6000803e3d6000fd5b505050506040513d6000823e601f3d908101601f19168201604052602081101561098957600080fd5b8101908080516040519392919084600160201b8211156109a857600080fd5b9083019060208201858111156109bd57600080fd5b82518660208202830111600160201b821117156109d957600080fd5b82525081516020918201928201910280838360005b83811015610a065781810151838201526020016109ee565b505050509050016040525050509050610add565b60008281526003602052604090205480610a76576040805162461bcd60e51b8152602060048201526018602482015277119514d3c81a5b99195e081b9bdd081cdd5c1c1bdc9d195960421b604482015290519081900360640190fd5b60008381526005602090815260409182902080548351818402810184019094528084529091830182828015610ad457602002820191906000526020600020905b81546001600160a01b03168152600190910190602001808311610ab6575b50505050509150505b919050565b6007546001600160a01b031681565b600754606090600090600160a01b900460ff1615610b42576040805162461bcd60e51b8152602060048201526009602482015268636f7079206d6f646560b81b604482015290519081900360640190fd5b600054600160b01b900460ff1680610b645750600054600160a81b900460ff16155b15610d3957610b71612574565b610b7a856125ab565b15610bbe576040805162461bcd60e51b815260206004820152600f60248201526e74727573746564206164647265737360881b604482015290519081900360640190fd5b610c4284600760009054906101000a90046001600160a01b03166001600160a01b031663e7c830d46040518163ffffffff1660e01b815260040160206040518083038186803b158015610c1057600080fd5b505afa158015610c24573d6000803e3d6000fd5b505050506040513d6020811015610c3a57600080fd5b505190612726565b6001600160a01b0386166000818152600460209081526040918290208490558151928352820183905280519293507f0c2fcef22ab22997ed46cd27f7f0aa308600145401a7a141065d61c5d87341d292918290030190a182518067ffffffffffffffff81118015610cb257600080fd5b50604051908082528060200260200182016040528015610cdc578160200160208202803683370190505b5092508415610d335760005b81811015610d3157610d0d87868381518110610d0057fe5b6020026020010151612789565b848281518110610d1957fe5b91151560209283029190910190910152600101610ce8565b505b50610d44565b610d4460003661290e565b935093915050565b600054600160b01b900460ff1680610d6e5750600054600160a81b900460ff16155b15610d8557610d7b612574565b6002819055610d90565b610d9060003661290e565b50565b600754600160a01b900460ff1615610dde576040805162461bcd60e51b8152602060048201526009602482015268636f7079206d6f646560b81b604482015290519081900360640190fd5b6007546001600160a01b03163314610e31576040805162461bcd60e51b815260206004820152601160248201527037b7363c90333a39b79036b0b730b3b2b960791b604482015290519081900360640190fd5b60008181526003602052604090205415610e92576040805162461bcd60e51b815260206004820152601760248201527f77686974656c69737420616c7265616479206578697374000000000000000000604482015290519081900360640190fd5b60025460009182526003602052604090912055565b6006546001600160a01b031681565b610ebe612a91565b600754600160a01b900460ff16610f0f576040805162461bcd60e51b815260206004820152601060248201526f6e6f7420696e20636f7079206d6f646560801b604482015290519081900360640190fd5b6007805460ff60a01b19169055565b600754600160a01b900460ff1615610f69576040805162461bcd60e51b8152602060048201526009602482015268636f7079206d6f646560b81b604482015290519081900360640190fd5b6001600160a01b038216600090815260046020526040902054829080158061100a5750600760009054906101000a90046001600160a01b03166001600160a01b031663e7c830d46040518163ffffffff1660e01b815260040160206040518083038186803b158015610fda57600080fd5b505afa158015610fee573d6000803e3d6000fd5b505050506040513d602081101561100457600080fd5b50518111155b61104b576040805162461bcd60e51b815260206004820152600d60248201526c1d9bdd195c8818da1a5b1b1959609a1b604482015290519081900360640190fd5b611054846125ab565b15611098576040805162461bcd60e51b815260206004820152600f60248201526e74727573746564206164647265737360881b604482015290519081900360640190fd5b60006110a48585612af0565b9050806110ed576040805162461bcd60e51b8152602060048201526012602482015271766f746520706f77657220746f6f206c6f7760701b604482015290519081900360640190fd5b5050505050565b60046020526000908152604090205481565b60025481565b7f714f205b2abd25bef1d06a1af944e38c113fe6160375c4e1d6d5cf28848e77195490565b60008054600160a81b900460ff16611154576000546001600160a01b03166111c1565b60076001609c1b016001600160a01b031663732524946040518163ffffffff1660e01b815260040160206040518083038186803b15801561119457600080fd5b505afa1580156111a8573d6000803e3d6000fd5b505050506040513d60208110156111be57600080fd5b50515b905090565b60408051630debfda360e41b8152336004820152905160076001609c1b019163debfda30916024808301926020929190829003018186803b15801561120a57600080fd5b505afa15801561121e573d6000803e3d6000fd5b505050506040513d602081101561123457600080fd5b5051611277576040805162461bcd60e51b815260206004820152600d60248201526c37b7363c9032bc32b1baba37b960991b604482015290519081900360640190fd5b6001600160e01b03198116600090815260016020526040902080546112e3576040805162461bcd60e51b815260206004820152601a60248201527f74696d656c6f636b3a20696e76616c69642073656c6563746f72000000000000604482015290519081900360640190fd5b8054421015611339576040805162461bcd60e51b815260206004820152601960248201527f74696d656c6f636b3a206e6f7420616c6c6f7765642079657400000000000000604482015290519081900360640190fd5b6000816001018054600181600116156101000203166002900480601f0160208091040260200160405190810160405280929190818152602001828054600181600116156101000203166002900480156113d35780601f106113a8576101008083540402835291602001916113d3565b820191906000526020600020905b8154815290600101906020018083116113b657829003601f168201915b5050506001600160e01b03198616600090815260016020819052604082208281559495509092506114079150830182613c2d565b50506000805460ff60b01b1916600160b01b178155604051825130918491819060208401908083835b6020831061144f5780518252601f199092019160209182019101611430565b6001836020036101000a0380198251168184511680821785525050505050509050019150506000604051808303816000865af19150503d80600081146114b1576040519150601f19603f3d011682016040523d82523d6000602084013e6114b6565b606091505b50506000805460ff60b01b19169055604080516001600160e01b03198716815242602082015281519293507fa7326b57fc9cfe267aaea5e7f0b01757154d265620a0585819416ee9ddd2c438929081900390910190a161151581612d7a565b50505050565b60076001609c1b0181565b61152e612a91565b6001600160e01b03198116600090815260016020526040902054611599576040805162461bcd60e51b815260206004820152601a60248201527f74696d656c6f636b3a20696e76616c69642073656c6563746f72000000000000604482015290519081900360640190fd5b604080516001600160e01b03198316815242602082015281517f7735b2391c38a81419c513e30ca578db7158eadd7101511b23e221c654d19cf8929181900390910190a16001600160e01b0319811660009081526001602081905260408220828155919061160990830182613c2d565b505050565b600160208181526000928352604092839020805481840180548651600296821615610100026000190190911695909504601f810185900485028601850190965285855290949193929091908301828280156116aa5780601f1061167f576101008083540402835291602001916116aa565b820191906000526020600020905b81548152906001019060200180831161168d57829003601f168201915b5050505050905082565b600754600160a01b900460ff16156116ff576040805162461bcd60e51b8152602060048201526009602482015268636f7079206d6f646560b81b604482015290519081900360640190fd5b600054600160b01b900460ff16806117215750600054600160a81b900460ff16155b156119e95761172e612574565b6000828152600360209081526040808320849055600590915290208054821061175757506119e4565b6006546040805163d75f6d8160e01b81526004810186905290516000926001600160a01b03169163d75f6d81916024808301926020929190829003018186803b1580156117a357600080fd5b505afa1580156117b7573d6000803e3d6000fd5b505050506040513d60208110156117cd57600080fd5b505182546040805160208381028201810190925282815292935060009261183692859287919083018282801561182c57602002820191906000526020600020905b81546001600160a01b0316815260019091019060200180831161180e575b5050505050612d97565b805190915084810360008167ffffffffffffffff8111801561185757600080fd5b50604051908082528060200260200182016040528015611881578160200160208202803683370190505b50905060005b828110156119d257600061189b868661300a565b90508781815481106118a957fe5b9060005260206000200160009054906101000a90046001600160a01b03168383815181106118d357fe5b60200260200101906001600160a01b031690816001600160a01b031681525050600185038110156119955787600186038154811061190d57fe5b9060005260206000200160009054906101000a90046001600160a01b031688828154811061193757fe5b9060005260206000200160006101000a8154816001600160a01b0302191690836001600160a01b0316021790555085600186038151811061197457fe5b602002602001015186828151811061198857fe5b6020026020010181815250505b8780548061199f57fe5b600082815260209020810160001990810180546001600160a01b0319169055908101909155949094019350600101611887565b506119dd818961306e565b5050505050505b6119f4565b6119f460003661290e565b5050565b611a00612a91565b600754600160a01b900460ff16611a51576040805162461bcd60e51b815260206004820152601060248201526f6e6f7420696e20636f7079206d6f646560801b604482015290519081900360640190fd5b60008181526003602052604090205415611aa3576040805162461bcd60e51b815260206004820152600e60248201526d185b1c9958591e4818dbdc1a595960921b604482015290519081900360640190fd5b7f00000000000000000000000000000000000000000000000000000000000000006001600160a01b03166398dccfc2826040518263ffffffff1660e01b81526004018082815260200191505060206040518083038186803b158015611b0757600080fd5b505afa158015611b1b573d6000803e3d6000fd5b505050506040513d6020811015611b3157600080fd5b505160008281526003602052604080822092909255815162027f2d60ea1b81526004810184905291516001600160a01b037f000000000000000000000000000000000000000000000000000000000000000016926309fcb400926024808301939192829003018186803b158015611ba757600080fd5b505afa158015611bbb573d6000803e3d6000fd5b505050506040513d6000823e601f3d908101601f191682016040526020811015611be457600080fd5b8101908080516040519392919084600160201b821115611c0357600080fd5b908301906020820185811115611c1857600080fd5b82518660208202830111600160201b82111715611c3457600080fd5b82525081516020918201928201910280838360005b83811015611c61578181015183820152602001611c49565b505050509050016040525050506005600083815260200190815260200160002090805190602001906119f4929190613c71565b60036020526000908152604090205481565b600054600160a01b900460ff1615611cfc576040805162461bcd60e51b8152602060048201526014602482015273696e697469616c6973656420213d2066616c736560601b604482015290519081900360640190fd5b60008054600160a01b60ff60a01b19909116176001600160a01b0319166001600160a01b03831690811790915560408051918252517f9789733827840833afc031fb2ef9ab6894271f77bad2085687cf4ae5c7bee4db916020908290030190a150565b600754600160a01b900460ff1615611daa576040805162461bcd60e51b8152602060048201526009602482015268636f7079206d6f646560b81b604482015290519081900360640190fd5b611db3826125ab565b611dfa576040805162461bcd60e51b81526020600482015260136024820152726e6f742074727573746564206164647265737360681b604482015290519081900360640190fd5b611e048282612789565b6119f4576040805162461bcd60e51b815260206004820152601f60248201527f747275737465642061646472657373206e6f742077686974656c697374656400604482015290519081900360640190fd5b600754600160a01b900460ff1681565b600654604051630e848da360e41b81526020600482018181528451602484015284516060946000946001600160a01b039091169363e848da3093889390928392604490910191908501908083838b5b83811015611ecc578181015183820152602001611eb4565b50505050905090810190601f168015611ef95780820380516001836020036101000a031916815260200191505b509250505060206040518083038186803b158015611f1657600080fd5b505afa158015611f2a573d6000803e3d6000fd5b505050506040513d6020811015611f4057600080fd5b50519050611f4d816108d3565b9392505050565b7f000000000000000000000000000000000000000000000000000000000000000081565b611f8061110c565b6001600160a01b0316336001600160a01b031614611fdc576040805162461bcd60e51b815260206004820152601460248201527337b7363c9030b2323932b9b9903ab83230ba32b960611b604482015290519081900360640190fd5b61201561201083836040518060400160405280600e81526020016d20b2323932b9b9aab83230ba32b960911b8152506131a6565b6132d3565b6119f482826132f7565b6007546060908190600160a01b900460ff161561206f576040805162461bcd60e51b8152602060048201526009602482015268636f7079206d6f646560b81b604482015290519081900360640190fd5b6001600160a01b03831660009081526004602052604090205483908015806121105750600760009054906101000a90046001600160a01b03166001600160a01b031663e7c830d46040518163ffffffff1660e01b815260040160206040518083038186803b1580156120e057600080fd5b505afa1580156120f4573d6000803e3d6000fd5b505050506040513d602081101561210a57600080fd5b50518111155b612151576040805162461bcd60e51b815260206004820152600d60248201526c1d9bdd195c8818da1a5b1b1959609a1b604482015290519081900360640190fd5b61215a856125ab565b1561219e576040805162461bcd60e51b815260206004820152600f60248201526e74727573746564206164647265737360881b604482015290519081900360640190fd5b600660009054906101000a90046001600160a01b03166001600160a01b031663798aac5b6040518163ffffffff1660e01b815260040160006040518083038186803b1580156121ec57600080fd5b505afa158015612200573d6000803e3d6000fd5b505050506040513d6000823e601f3d908101601f19168201604052602081101561222957600080fd5b8101908080516040519392919084600160201b82111561224857600080fd5b90830190602082018581111561225d57600080fd5b82518660208202830111600160201b8211171561227957600080fd5b82525081516020918201928201910280838360005b838110156122a657818101518382015260200161228e565b5050505090500160405250505093506000845190508067ffffffffffffffff811180156122d257600080fd5b506040519080825280602002602001820160405280156122fc578160200160208202803683370190505b50935060005b8181101561234b576123278787838151811061231a57fe5b6020026020010151612af0565b85828151811061233357fe5b91151560209283029190910190910152600101612302565b50505050915091565b600754600160a01b900460ff161561239f576040805162461bcd60e51b8152602060048201526009602482015268636f7079206d6f646560b81b604482015290519081900360640190fd5b6007546001600160a01b031633146123f2576040805162461bcd60e51b815260206004820152601160248201527037b7363c90333a39b79036b0b730b3b2b960791b604482015290519081900360640190fd5b600081815260056020908152604091829020805483518184028101840190945280845261245e939283018282801561245357602002820191906000526020600020905b81546001600160a01b03168152600190910190602001808311612435575b50505050508261306e565b600081815260056020526040812061247591613cd6565b600090815260036020526040812055565b600054600160a81b900460ff1681565b61249e612a91565b600054600160a81b900460ff16156124fd576040805162461bcd60e51b815260206004820152601a60248201527f616c726561647920696e2070726f64756374696f6e206d6f6465000000000000604482015290519081900360640190fd5b60008054600161ff0160a01b031916600160a81b1790556040805160076001609c1b01815290517f83af113638b5422f9e977cebc0aaf0eaf2188eb9a8baae7f9d46c42b33a1560c9181900360200190a1565b7f000000000000000000000000000000000000000000000000000000000000000081565b600054600160b01b900460ff16156125a15733301461258f57fe5b6000805460ff60b01b191690556125a9565b6125a9612a91565b565b6000807f00000000000000000000000000000000000000000000000000000000000000006001600160a01b031663ffacb84e6040518163ffffffff1660e01b815260040160006040518083038186803b15801561260757600080fd5b505afa15801561261b573d6000803e3d6000fd5b505050506040513d6000823e601f3d908101601f19168201604052602081101561264457600080fd5b8101908080516040519392919084600160201b82111561266357600080fd5b90830190602082018581111561267857600080fd5b82518660208202830111600160201b8211171561269457600080fd5b82525081516020918201928201910280838360005b838110156126c15781810151838201526020016126a9565b50505050905001604052505050905060005b815181101561271c57836001600160a01b03168282815181106126f257fe5b60200260200101516001600160a01b0316141561271457600192505050610add565b6001016126d3565b5060009392505050565b600082820183811015612780576040805162461bcd60e51b815260206004820152601b60248201527f536166654d6174683a206164646974696f6e206f766572666c6f770000000000604482015290519081900360640190fd5b90505b92915050565b60008181526005602052604081208054825b818110156127e157856001600160a01b03168382815481106127b957fe5b6000918252602090912001546001600160a01b031614156127d9576127e1565b60010161279b565b818114156127f55760009350505050612783565b6040805160018082528183019092526000916020808301908036833701905050905083828154811061282357fe5b600091825260208220015482516001600160a01b0390911691839161284457fe5b60200260200101906001600160a01b031690816001600160a01b03168152505083600184038154811061287357fe5b9060005260206000200160009054906101000a90046001600160a01b031684838154811061289d57fe5b9060005260206000200160006101000a8154816001600160a01b0302191690836001600160a01b03160217905550838054806128d557fe5b600082815260209020810160001990810180546001600160a01b0319169055019055612901818761306e565b5060019695505050505050565b612916612a91565b600082359050600060076001609c1b016001600160a01b0316636221a54b6040518163ffffffff1660e01b815260040160206040518083038186803b15801561295e57600080fd5b505afa158015612972573d6000803e3d6000fd5b505050506040513d602081101561298857600080fd5b505160408051808201825242830180825282516020601f89018190048102820181019094528781529394509290918281019190889088908190840183828082843760009201829052509390945250506001600160e01b03198616815260016020818152604090922084518155848301518051919450612a0c93928501920190613cf4565b509050507fed948300a3694aa01d4a6b258bfd664350193d770c0b51f8387277f6d83ea3b68382878760405180856001600160e01b0319168152602001848152602001806020018281038252848482818152602001925080828437600083820152604051601f909101601f191690920182900397509095505050505050a15050505050565b612a99611131565b6001600160a01b0316336001600160a01b0316146125a9576040805162461bcd60e51b815260206004820152600f60248201526e6f6e6c7920676f7665726e616e636560881b604482015290519081900360640190fd5b60008181526003602052604081205480612b4c576040805162461bcd60e51b8152602060048201526018602482015277119514d3c81a5b99195e081b9bdd081cdd5c1c1bdc9d195960421b604482015290519081900360640190fd5b6000838152600560205260408120805490916001820167ffffffffffffffff81118015612b7857600080fd5b50604051908082528060200260200182016040528015612ba2578160200160208202803683370190505b50905060005b82811015612c1d576000848281548110612bbe57fe5b6000918252602090912001546001600160a01b0390811691508916811415612bef5760019650505050505050612783565b80838381518110612bfc57fe5b6001600160a01b039092166020928302919091019091015250600101612ba8565b5086818381518110612c2b57fe5b60200260200101906001600160a01b031690816001600160a01b03168152505083821015612c955782546001810184556000848152602090200180546001600160a01b0319166001600160a01b038916179055612c88878761339e565b6001945050505050612783565b6000612ca18288613459565b905082811415612cb957600095505050505050612783565b60408051600180825281830190925260009160208083019080368337019050509050828281518110612ce757fe5b602002602001015181600081518110612cfc57fe5b60200260200101906001600160a01b031690816001600160a01b03168152505088858381548110612d2957fe5b9060005260206000200160006101000a8154816001600160a01b0302191690836001600160a01b03160217905550612d61818961306e565b612d6b898961339e565b50600198975050505050505050565b3d604051818101604052816000823e8215612d93578181f35b8181fd5b6060806060600080600080886001600160a01b0316638357d08c6040518163ffffffff1660e01b815260040160006040518083038186803b158015612ddb57600080fd5b505afa158015612def573d6000803e3d6000fd5b505050506040513d6000823e601f3d908101601f1916820160405260c0811015612e1857600080fd5b8101908080516040519392919084600160201b821115612e3757600080fd5b908301906020820185811115612e4c57600080fd5b82518660208202830111600160201b82111715612e6857600080fd5b82525081516020918201928201910280838360005b83811015612e95578181015183820152602001612e7d565b5050505090500160405260200180516040519392919084600160201b821115612ebd57600080fd5b908301906020820185811115612ed257600080fd5b82518660208202830111600160201b82111715612eee57600080fd5b82525081516020918201928201910280838360005b83811015612f1b578181015183820152602001612f03565b5050505090500160405260200180519060200190929190805190602001909291908051906020019092919080519060200190929190505050809650819750829850839950849a50859b505050505050506000612fdd8a6001600160a01b0316639edbf0076040518163ffffffff1660e01b815260040160206040518083038186803b158015612fa957600080fd5b505afa158015612fbd573d6000803e3d6000fd5b505050506040513d6020811015612fd357600080fd5b5051868b856134f1565b90506000612fee8888878d8761356c565b9050612ffb8282866136df565b9b9a5050505050505050505050565b6000806000905060008460008151811061302057fe5b6020026020010151905060005b8481101561306457600086828151811061304357fe5b6020026020010151905082811161305b578193508092505b5060010161302d565b5090949350505050565b60005b82518110156130dd577f33359f2769756ca8d0da4683f25ee440744d6f18bfb166dbfb59315a8c62b0168382815181106130a757fe5b60200260200101518360405180836001600160a01b031681526020018281526020019250505060405180910390a1600101613071565b507f00000000000000000000000000000000000000000000000000000000000000006001600160a01b03166376794efb83836040518363ffffffff1660e01b81526004018080602001838152602001828103825284818151815260200191508051906020019060200280838360005b8381101561316457818101518382015260200161314c565b505050509050019350505050600060405180830381600087803b15801561318a57600080fd5b505af115801561319e573d6000803e3d6000fd5b505050505050565b600080826040516020018080602001828103825283818151815260200191508051906020019080838360005b838110156131ea5781810151838201526020016131d2565b50505050905090810190601f1680156132175780820380516001836020036101000a031916815260200191505b50925050506040516020818303038152906040528051906020012090506000805b865181101561327f5786818151811061324d57fe5b60200260200101518314156132775785818151811061326857fe5b6020026020010151915061327f565b600101613238565b506001600160a01b0381166132ca576040805162461bcd60e51b815260206004820152600c60248201526b61646472657373207a65726f60a01b604482015290519081900360640190fd5b95945050505050565b7f714f205b2abd25bef1d06a1af944e38c113fe6160375c4e1d6d5cf28848e771955565b61332682826040518060400160405280600c81526020016b4674736f526567697374727960a01b8152506131a6565b600660006101000a8154816001600160a01b0302191690836001600160a01b0316021790555061337a82826040518060400160405280600b81526020016a233a39b7a6b0b730b3b2b960a91b8152506131a6565b600780546001600160a01b0319166001600160a01b03929092169190911790555050565b604080516001600160a01b03841681526020810183905281517f66a8b13abe95391d1851f5bc319f3dde54ce8f2f40a5fe226aa3251d805832e3929181900390910190a17f00000000000000000000000000000000000000000000000000000000000000006001600160a01b0316639d986f9183836040518363ffffffff1660e01b815260040180836001600160a01b0316815260200182815260200192505050600060405180830381600087803b15801561318a57600080fd5b6006546040805163d75f6d8160e01b815260048101849052905160009283926001600160a01b039091169163d75f6d8191602480820192602092909190829003018186803b1580156134aa57600080fd5b505afa1580156134be573d6000803e3d6000fd5b505050506040513d60208110156134d457600080fd5b5051905060006134e48286612d97565b90506132ca81825161300a565b60606134fe858484613824565b90508361350a57613564565b60005b83518110156135625761354364e8d4a510008684848151811061352c57fe5b6020026020010151613a1c9092919063ffffffff16565b82828151811061354f57fe5b602090810291909101015260010161350d565b505b949350505050565b6060825167ffffffffffffffff8111801561358657600080fd5b506040519080825280602002602001820160405280156135b0578160200160208202803683370190505b50905060005b83518110156135e05760008282815181106135cd57fe5b60209081029190910101526001016135b6565b50836135eb576132ca565b60006135ff85670de0b6b3a7640000613b28565b905060005b87518110156136d457600088828151811061361b57fe5b6020026020010151905060006001600160a01b0316816001600160a01b0316146136cb57600061364c828888613824565b905060005b87518110156136c85760006136808b868151811061366b57fe5b60200260200101518785858151811061352c57fe5b90506136a88188848151811061369257fe5b602002602001015161272690919063ffffffff16565b8783815181106136b457fe5b602090810291909101015250600101613651565b50505b50600101613604565b505095945050505050565b606060006136ec84613b81565b905060006136f986613b81565b9050600080831161370b57600061370d565b845b9050600080831161371f576000613725565b81612710035b9050875167ffffffffffffffff8111801561373f57600080fd5b50604051908082528060200260200182016040528015613769578160200160208202803683370190505b50945060005b885181101561381857600082156137b6576137b38a838151811061378f57fe5b602002602001015164e8d4a5100002612710870285613a1c9092919063ffffffff16565b90505b600084156137f4576137f18a84815181106137cd57fe5b602002602001015164e8d4a5100002612710890287613a1c9092919063ffffffff16565b90505b80820188848151811061380357fe5b6020908102919091010152505060010161376f565b50505050509392505050565b6060836001600160a01b031663e587497e8460018651038151811061384557fe5b6020026020010151846040518363ffffffff1660e01b815260040180836001600160a01b0316815260200182815260200192505050602060405180830381600087803b15801561389457600080fd5b505af11580156138a8573d6000803e3d6000fd5b505050506040513d60208110156138be57600080fd5b5050604080516349e3c7e560e01b815260248101849052600481019182528451604482015284516001600160a01b038716926349e3c7e592879287929182916064909101906020868101910280838360005b83811015613928578181015183820152602001613910565b50505050905001935050505060006040518083038186803b15801561394c57600080fd5b505afa158015613960573d6000803e3d6000fd5b505050506040513d6000823e601f3d908101601f19168201604052602081101561398957600080fd5b8101908080516040519392919084600160201b8211156139a857600080fd5b9083019060208201858111156139bd57600080fd5b82518660208202830111600160201b821117156139d957600080fd5b82525081516020918201928201910280838360005b83811015613a065781810151838201526020016139ee565b5050505090500160405250505090509392505050565b6000808211613a65576040805162461bcd60e51b815260206004820152601060248201526f4469766973696f6e206279207a65726f60801b604482015290519081900360640190fd5b83613a7257506000611f4d565b83830283858281613a7f57fe5b041415613a9857828181613a8f57fe5b04915050611f4d565b6000838681613aa357fe5b0490506000848781613ab157fe5b0690506000858781613abf57fe5b0490506000868881613acd57fe5b069050613b1b613ae788613ae18685613b28565b90613bc6565b613b15613af48686613b28565b613b15613b018987613b28565b613b158d613b0f8c8b613b28565b90613b28565b90612726565b9998505050505050505050565b600082613b3757506000612783565b82820282848281613b4457fe5b04146127805760405162461bcd60e51b8152600401808060200182810382526021815260200180613d866021913960400191505060405180910390fd5b600080805b8351811015613bbf57613bb5848281518110613b9e57fe5b60200260200101518361272690919063ffffffff16565b9150600101613b86565b5092915050565b6000808211613c1c576040805162461bcd60e51b815260206004820152601a60248201527f536166654d6174683a206469766973696f6e206279207a65726f000000000000604482015290519081900360640190fd5b818381613c2557fe5b049392505050565b50805460018160011615610100020316600290046000825580601f10613c535750610d90565b601f016020900490600052602060002090810190610d909190613d70565b828054828255906000526020600020908101928215613cc6579160200282015b82811115613cc657825182546001600160a01b0319166001600160a01b03909116178255602090920191600190910190613c91565b50613cd2929150613d70565b5090565b5080546000825590600052602060002090810190610d909190613d70565b828054600181600116156101000203166002900490600052602060002090601f016020900481019282613d2a5760008555613cc6565b82601f10613d4357805160ff1916838001178555613cc6565b82800160010185558215613cc6579182015b82811115613cc6578251825591602001919060010190613d55565b5b80821115613cd25760008155600101613d7156fe536166654d6174683a206d756c7469706c69636174696f6e206f766572666c6f77a264697066735822122053051a93cced90894df5b5f28cbc29f988257728ff86ea14bb01f388e53648f664736f6c63430007060033",
    "linkReferences": {},
    "deployedLinkReferences": {}
}