{
    "_format": "hh-sol-artifact-1",
    "contractName": "WNatRegistryProvider",
    "sourceName": "contracts/assetRegistry/implementation/WNatRegistryProvider.sol",
    "abi": [
        {
            "inputs": [
                {
                    "internalType": "address",
                    "name": "_addressUpdater",
                    "type": "address"
                },
                {
                    "internalType": "contract IIFlareAssetRegistry",
                    "name": "_registry",
                    "type": "address"
                }
            ],
            "stateMutability": "nonpayable",
            "type": "constructor"
        },
        {
            "inputs": [],
            "name": "allAssets",
            "outputs": [
                {
                    "internalType": "address[]",
                    "name": "",
                    "type": "address[]"
                }
            ],
            "stateMutability": "view",
            "type": "function"
        },
        {
            "inputs": [],
            "name": "assetType",
            "outputs": [
                {
                    "internalType": "bytes32",
                    "name": "",
                    "type": "bytes32"
                }
            ],
            "stateMutability": "pure",
            "type": "function"
        },
        {
            "inputs": [],
            "name": "getAddressUpdater",
            "outputs": [
                {
                    "internalType": "address",
                    "name": "_addressUpdater",
                    "type": "address"
                }
            ],
            "stateMutability": "view",
            "type": "function"
        },
        {
            "inputs": [
                {
                    "internalType": "address",
                    "name": "_token",
                    "type": "address"
                },
                {
                    "internalType": "bytes32",
                    "name": "_nameHash",
                    "type": "bytes32"
                }
            ],
            "name": "getAttribute",
            "outputs": [
                {
                    "internalType": "bool",
                    "name": "_defined",
                    "type": "bool"
                },
                {
                    "internalType": "bytes32",
                    "name": "_value",
                    "type": "bytes32"
                }
            ],
            "stateMutability": "view",
            "type": "function"
        },
        {
            "inputs": [
                {
                    "internalType": "bytes32[]",
                    "name": "_contractNameHashes",
                    "type": "bytes32[]"
                },
                {
                    "internalType": "address[]",
                    "name": "_contractAddresses",
                    "type": "address[]"
                }
            ],
            "name": "updateContractAddresses",
            "outputs": [],
            "stateMutability": "nonpayable",
            "type": "function"
        }
    ],
    "bytecode": "0x608060405234801561001057600080fd5b5060405161099938038061099983398101604081905261002f9161013c565b81610039816100f5565b50600080546001600160a01b0319166001600160a01b0383811691909117909155604051630110ceef60e21b8152908316906304433bbc9061007d90600401610175565b60206040518083038186803b15801561009557600080fd5b505afa1580156100a9573d6000803e3d6000fd5b505050506040513d601f19601f820116820180604052508101906100cd9190610119565b600180546001600160a01b0319166001600160a01b0392909216919091179055506101ab9050565b7f714f205b2abd25bef1d06a1af944e38c113fe6160375c4e1d6d5cf28848e771955565b60006020828403121561012a578081fd5b815161013581610193565b9392505050565b6000806040838503121561014e578081fd5b825161015981610193565b602084015190925061016a81610193565b809150509250929050565b60208082526004908201526315d3985d60e21b604082015260600190565b6001600160a01b03811681146101a857600080fd5b50565b6107df806101ba6000396000f3fe608060405234801561001057600080fd5b50600436106100575760003560e01c8063163f66911461005c5780633fe3347a146100865780635267a15d1461009b57806376d708d7146100b0578063b00c0b76146100c5575b600080fd5b61006f61006a3660046105e6565b6100da565b60405161007d929190610727565b60405180910390f35b61008e61018b565b60405161007d9190610737565b6100a36101af565b60405161007d91906106c6565b6100b86101d4565b60405161007d91906106da565b6100d86100d336600461060f565b610231565b005b60015460009081906001600160a01b038581169116146101155760405162461bcd60e51b815260040161010c90610740565b60405180910390fd5b7fd6f6d4fc8b7263c065f116d4b064a7f172e566382921561dc0f5ba862046d4cc8314156101495750600190506002610184565b7f935bf1a0c40d6e14ab58d0de214f9d9cf405434941167e988ffe97c0f8dac4f283141561017d5750600190506000610184565b5060009050805b9250929050565b7fdcd5f7552dc50cc1a91f3e8f90729bbb906fb53edaa49b2772dd554a22c1627190565b7f714f205b2abd25bef1d06a1af944e38c113fe6160375c4e1d6d5cf28848e77195490565b6040805160018082528183019092526060916000919060208083019080368337505060015482519293506001600160a01b03169183915060009061021457fe5b6001600160a01b0390921660209283029190910190910152905090565b6102396101af565b6001600160a01b0316336001600160a01b031614610295576040805162461bcd60e51b815260206004820152601460248201527337b7363c9030b2323932b9b9903ab83230ba32b960611b604482015290519081900360640190fd5b6102ce6102c983836040518060400160405280600e81526020016d20b2323932b9b9aab83230ba32b960911b8152506102dc565b610409565b6102d8828261042d565b5050565b600080826040516020018080602001828103825283818151815260200191508051906020019080838360005b83811015610320578181015183820152602001610308565b50505050905090810190601f16801561034d5780820380516001836020036101000a031916815260200191505b50925050506040516020818303038152906040528051906020012090506000805b86518110156103b55786818151811061038357fe5b60200260200101518314156103ad5785818151811061039e57fe5b602002602001015191506103b5565b60010161036e565b506001600160a01b038116610400576040805162461bcd60e51b815260206004820152600c60248201526b61646472657373207a65726f60a01b604482015290519081900360640190fd5b95945050505050565b7f714f205b2abd25bef1d06a1af944e38c113fe6160375c4e1d6d5cf28848e771955565b600061045683836040518060400160405280600481526020016315d3985d60e21b8152506102dc565b6001549091506001600160a01b038083169116146105525760005460015460405163c906d2cf60e01b81526001600160a01b039283169263c906d2cf926104a2929116906004016106c6565b600060405180830381600087803b1580156104bc57600080fd5b505af11580156104d0573d6000803e3d6000fd5b505060005460405163d312998f60e01b81526001600160a01b03909116925063d312998f91506105049084906004016106c6565b600060405180830381600087803b15801561051e57600080fd5b505af1158015610532573d6000803e3d6000fd5b5050600180546001600160a01b0319166001600160a01b03851617905550505b505050565b80356001600160a01b038116811461056e57600080fd5b919050565b600082601f830112610583578081fd5b813560206105986105938361078b565b610767565b82815281810190858301838502870184018810156105b4578586fd5b855b858110156105d9576105c782610557565b845292840192908401906001016105b6565b5090979650505050505050565b600080604083850312156105f8578182fd5b61060183610557565b946020939093013593505050565b60008060408385031215610621578182fd5b823567ffffffffffffffff80821115610638578384fd5b818501915085601f83011261064b578384fd5b8135602061065b6105938361078b565b82815281810190858301838502870184018b1015610677578889fd5b8896505b8487101561069957803583526001969096019591830191830161067b565b50965050860135925050808211156106af578283fd5b506106bc85828601610573565b9150509250929050565b6001600160a01b0391909116815260200190565b6020808252825182820181905260009190848201906040850190845b8181101561071b5783516001600160a01b0316835292840192918401916001016106f6565b50909695505050505050565b9115158252602082015260400190565b90815260200190565b6020808252600d908201526c34b73b30b634b2103a37b5b2b760991b604082015260600190565b60405181810167ffffffffffffffff8111828210171561078357fe5b604052919050565b600067ffffffffffffffff82111561079f57fe5b506020908102019056fea26469706673582212207e76bc37415f308bfc74abe171090abf9b6685f57464e81ca7167436105a10d764736f6c63430007060033",
    "linkReferences": {},
    "deployedLinkReferences": {}
}