{
    "_format": "hh-sol-artifact-1",
    "contractName": "GovernanceSettings",
    "sourceName": "contracts/genesis/implementation/GovernanceSettings.sol",
    "abi": [
        {
            "inputs": [],
            "stateMutability": "nonpayable",
            "type": "constructor"
        },
        {
            "anonymous": false,
            "inputs": [
                {
                    "indexed": false,
                    "internalType": "uint256",
                    "name": "timestamp",
                    "type": "uint256"
                },
                {
                    "indexed": false,
                    "internalType": "address",
                    "name": "oldGovernanceAddress",
                    "type": "address"
                },
                {
                    "indexed": false,
                    "internalType": "address",
                    "name": "newGovernanceAddress",
                    "type": "address"
                }
            ],
            "name": "GovernanceAddressUpdated",
            "type": "event"
        },
        {
            "anonymous": false,
            "inputs": [
                {
                    "indexed": false,
                    "internalType": "uint256",
                    "name": "timestamp",
                    "type": "uint256"
                },
                {
                    "indexed": false,
                    "internalType": "address[]",
                    "name": "oldExecutors",
                    "type": "address[]"
                },
                {
                    "indexed": false,
                    "internalType": "address[]",
                    "name": "newExecutors",
                    "type": "address[]"
                }
            ],
            "name": "GovernanceExecutorsUpdated",
            "type": "event"
        },
        {
            "anonymous": false,
            "inputs": [
                {
                    "indexed": false,
                    "internalType": "uint256",
                    "name": "timestamp",
                    "type": "uint256"
                },
                {
                    "indexed": false,
                    "internalType": "uint256",
                    "name": "oldTimelock",
                    "type": "uint256"
                },
                {
                    "indexed": false,
                    "internalType": "uint256",
                    "name": "newTimelock",
                    "type": "uint256"
                }
            ],
            "name": "GovernanceTimelockUpdated",
            "type": "event"
        },
        {
            "inputs": [],
            "name": "SIGNAL_COINBASE",
            "outputs": [
                {
                    "internalType": "address",
                    "name": "",
                    "type": "address"
                }
            ],
            "stateMutability": "view",
            "type": "function"
        },
        {
            "inputs": [],
            "name": "getExecutors",
            "outputs": [
                {
                    "internalType": "address[]",
                    "name": "",
                    "type": "address[]"
                }
            ],
            "stateMutability": "view",
            "type": "function"
        },
        {
            "inputs": [],
            "name": "getGovernanceAddress",
            "outputs": [
                {
                    "internalType": "address",
                    "name": "",
                    "type": "address"
                }
            ],
            "stateMutability": "view",
            "type": "function"
        },
        {
            "inputs": [],
            "name": "getTimelock",
            "outputs": [
                {
                    "internalType": "uint256",
                    "name": "",
                    "type": "uint256"
                }
            ],
            "stateMutability": "view",
            "type": "function"
        },
        {
            "inputs": [
                {
                    "internalType": "address",
                    "name": "_governanceAddress",
                    "type": "address"
                },
                {
                    "internalType": "uint256",
                    "name": "_timelock",
                    "type": "uint256"
                },
                {
                    "internalType": "address[]",
                    "name": "_executors",
                    "type": "address[]"
                }
            ],
            "name": "initialise",
            "outputs": [],
            "stateMutability": "nonpayable",
            "type": "function"
        },
        {
            "inputs": [
                {
                    "internalType": "address",
                    "name": "_address",
                    "type": "address"
                }
            ],
            "name": "isExecutor",
            "outputs": [
                {
                    "internalType": "bool",
                    "name": "",
                    "type": "bool"
                }
            ],
            "stateMutability": "view",
            "type": "function"
        },
        {
            "inputs": [
                {
                    "internalType": "address[]",
                    "name": "_newExecutors",
                    "type": "address[]"
                }
            ],
            "name": "setExecutors",
            "outputs": [],
            "stateMutability": "nonpayable",
            "type": "function"
        },
        {
            "inputs": [
                {
                    "internalType": "address",
                    "name": "_newGovernance",
                    "type": "address"
                }
            ],
            "name": "setGovernanceAddress",
            "outputs": [],
            "stateMutability": "nonpayable",
            "type": "function"
        },
        {
            "inputs": [
                {
                    "internalType": "uint256",
                    "name": "_newTimelock",
                    "type": "uint256"
                }
            ],
            "name": "setTimelock",
            "outputs": [],
            "stateMutability": "nonpayable",
            "type": "function"
        }
    ],
    "bytecode": "0x60a060405234801561001057600080fd5b5033606081901b6080526109ea610031600039806104ee52506109ea6000f3fe608060405234801561001057600080fd5b50600436106100935760003560e01c80637ff6faa6116100665780637ff6faa614610198578063cf0ea268146101a0578063cfc1625414610258578063debfda301461027e578063ef09e78f146102b857610093565b80631d452e46146100985780631e891c0a1461013d5780636221a54b1461015a5780637325249414610174575b600080fd5b61013b600480360360208110156100ae57600080fd5b8101906020810181356401000000008111156100c957600080fd5b8201836020820111156100db57600080fd5b803590602001918460208302840111640100000000831117156100fd57600080fd5b919080806020026020016040519081016040528093929190818152602001838360200280828437600092019190915250929550610310945050505050565b005b61013b6004803603602081101561015357600080fd5b503561036d565b6101626104b6565b60408051918252519081900360200190f35b61017c6104cd565b604080516001600160a01b039092168252519081900360200190f35b61017c6104dc565b61013b600480360360608110156101b657600080fd5b6001600160a01b03823516916020810135918101906060810160408201356401000000008111156101e657600080fd5b8201836020820111156101f857600080fd5b8035906020019184602083028401116401000000008311171561021a57600080fd5b9190808060200260200160405190810160405280939291908181526020018383602002808284376000920191909152509295506104e3945050505050565b61013b6004803603602081101561026e57600080fd5b50356001600160a01b031661064a565b6102a46004803603602081101561029457600080fd5b50356001600160a01b0316610719565b604080519115158252519081900360200190f35b6102c0610737565b60408051602080825283518183015283519192839290830191858101910280838360005b838110156102fc5781810151838201526020016102e4565b505050509050019250505060405180910390f35b6000546001600160a01b03163314610361576040805162461bcd60e51b815260206004820152600f60248201526e6f6e6c7920676f7665726e616e636560881b604482015290519081900360640190fd5b61036a81610799565b50565b600054600160a01b900467ffffffffffffffff168114156103d5576040805162461bcd60e51b815260206004820152601860248201527f74696d656c6f636b203d3d205f6e657754696d656c6f636b0000000000000000604482015290519081900360640190fd5b6301e133808110610422576040805162461bcd60e51b815260206004820152601260248201527174696d656c6f636b20746f6f206c6172676560701b604482015290519081900360640190fd5b3341148015610433575041620dead0145b1561036a5760005460408051428152600160a01b90920467ffffffffffffffff166020830152818101839052517feb86fa0729fdcf66bda3d834e93bf513d3740be7f7a4a6cab0dd318f1df8514f916060908290030190a16000805467ffffffffffffffff8316600160a01b0267ffffffffffffffff60a01b1990911617905550565b600054600160a01b900467ffffffffffffffff1690565b6000546001600160a01b031690565b620dead081565b336001600160a01b037f00000000000000000000000000000000000000000000000000000000000000001614610550576040805162461bcd60e51b815260206004820152600d60248201526c37b7363c903232b83637bcb2b960991b604482015290519081900360640190fd5b600054600160e01b900460ff16156105a5576040805162461bcd60e51b8152602060048201526013602482015272185b1c9958591e481a5b9a5d1a585b1a5cd959606a1b604482015290519081900360640190fd5b6301e1338082106105f2576040805162461bcd60e51b815260206004820152601260248201527174696d656c6f636b20746f6f206c6172676560701b604482015290519081900360640190fd5b60008054600160e01b60ff60e01b19909116176001600160a01b0319166001600160a01b0385161767ffffffffffffffff60a01b1916600160a01b67ffffffffffffffff85160217905561064581610799565b505050565b6000546001600160a01b03828116911614156106975760405162461bcd60e51b81526004018080602001828103825260238152602001806109926023913960400191505060405180910390fd5b33411480156106a8575041620dead0145b1561036a57600054604080514281526001600160a01b03928316602082015291831682820152517f7e1a30031de5a45b59b70d6a9f61956645cf3cf9468588f31f4217f7c770d7cc9181900360600190a1600080546001600160a01b0383166001600160a01b031990911617905550565b6001600160a01b031660009081526002602052604090205460ff1690565b6060600180548060200260200160405190810160405280929190818152602001828054801561078f57602002820191906000526020600020905b81546001600160a01b03168152600190910190602001808311610771575b5050505050905090565b7fa2c44af5dca41c60e42e3fc93e9fc4dd6e5d2c14ededf08259d3372874ac085442600183604051808481526020018060200180602001838103835285818154815260200191508054801561081757602002820191906000526020600020905b81546001600160a01b031681526001909101906020018083116107f9575b50508381038252845181528451602091820191808701910280838360005b8381101561084d578181015183820152602001610835565b505050509050019550505050505060405180910390a15b600154156108eb576000600260006001808080549050038154811061088557fe5b6000918252602080832091909101546001600160a01b031683528201929092526040019020805460ff191691151591909117905560018054806108c457fe5b600082815260209020810160001990810180546001600160a01b0319169055019055610864565b60005b815181101561098d57600182828151811061090557fe5b60209081029190910181015182546001808201855560009485529284200180546001600160a01b0319166001600160a01b039092169190911790558351909160029185908590811061095357fe5b6020908102919091018101516001600160a01b03168252810191909152604001600020805460ff19169115159190911790556001016108ee565b505056fe676f7665726e616e636541646472657373203d3d205f6e6577476f7665726e616e6365a26469706673582212201f1599819f64613c9a79da4e3b436cef4102d4195abb699a289fc0e797f3730064736f6c63430007060033",
    "linkReferences": {},
    "deployedLinkReferences": {}
}