{
  "_format": "hh-sol-artifact-1",
  "contractName": "FlareAssetRegistry",
  "sourceName": "contracts/assetRegistry/implementation/FlareAssetRegistry.sol",
  "abi": [
    {
      "inputs": [
        {
          "internalType": "address",
          "name": "_governance",
          "type": "address"
        }
      ],
      "stateMutability": "nonpayable",
      "type": "constructor"
    },
    {
      "anonymous": false,
      "inputs": [
        {
          "indexed": false,
          "internalType": "bytes4",
          "name": "selector",
          "type": "bytes4"
        },
        {
          "indexed": false,
          "internalType": "uint256",
          "name": "allowedAfterTimestamp",
          "type": "uint256"
        },
        {
          "indexed": false,
          "internalType": "bytes",
          "name": "encodedCall",
          "type": "bytes"
        }
      ],
      "name": "GovernanceCallTimelocked",
      "type": "event"
    },
    {
      "anonymous": false,
      "inputs": [
        {
          "indexed": false,
          "internalType": "address",
          "name": "initialGovernance",
          "type": "address"
        }
      ],
      "name": "GovernanceInitialised",
      "type": "event"
    },
    {
      "anonymous": false,
      "inputs": [
        {
          "indexed": false,
          "internalType": "address",
          "name": "governanceSettings",
          "type": "address"
        }
      ],
      "name": "GovernedProductionModeEntered",
      "type": "event"
    },
    {
      "anonymous": false,
      "inputs": [
        {
          "indexed": false,
          "internalType": "bytes4",
          "name": "selector",
          "type": "bytes4"
        },
        {
          "indexed": false,
          "internalType": "uint256",
          "name": "timestamp",
          "type": "uint256"
        }
      ],
      "name": "TimelockedGovernanceCallCanceled",
      "type": "event"
    },
    {
      "anonymous": false,
      "inputs": [
        {
          "indexed": false,
          "internalType": "bytes4",
          "name": "selector",
          "type": "bytes4"
        },
        {
          "indexed": false,
          "internalType": "uint256",
          "name": "timestamp",
          "type": "uint256"
        }
      ],
      "name": "TimelockedGovernanceCallExecuted",
      "type": "event"
    },
    {
      "inputs": [],
      "name": "allAssetTypes",
      "outputs": [
        {
          "internalType": "bytes32[]",
          "name": "",
          "type": "bytes32[]"
        }
      ],
      "stateMutability": "view",
      "type": "function"
    },
    {
      "inputs": [],
      "name": "allAssets",
      "outputs": [
        {
          "internalType": "address[]",
          "name": "",
          "type": "address[]"
        }
      ],
      "stateMutability": "view",
      "type": "function"
    },
    {
      "inputs": [
        {
          "internalType": "bytes32",
          "name": "_assetType",
          "type": "bytes32"
        }
      ],
      "name": "allAssetsOfType",
      "outputs": [
        {
          "internalType": "address[]",
          "name": "",
          "type": "address[]"
        }
      ],
      "stateMutability": "view",
      "type": "function"
    },
    {
      "inputs": [
        {
          "internalType": "bytes32",
          "name": "_assetType",
          "type": "bytes32"
        }
      ],
      "name": "allAssetsOfTypeWithSymbols",
      "outputs": [
        {
          "internalType": "address[]",
          "name": "",
          "type": "address[]"
        },
        {
          "internalType": "string[]",
          "name": "",
          "type": "string[]"
        }
      ],
      "stateMutability": "view",
      "type": "function"
    },
    {
      "inputs": [],
      "name": "allAssetsWithSymbols",
      "outputs": [
        {
          "internalType": "address[]",
          "name": "",
          "type": "address[]"
        },
        {
          "internalType": "string[]",
          "name": "",
          "type": "string[]"
        }
      ],
      "stateMutability": "view",
      "type": "function"
    },
    {
      "inputs": [
        {
          "internalType": "string",
          "name": "_symbol",
          "type": "string"
        }
      ],
      "name": "assetBySymbol",
      "outputs": [
        {
          "internalType": "address",
          "name": "",
          "type": "address"
        }
      ],
      "stateMutability": "view",
      "type": "function"
    },
    {
      "inputs": [
        {
          "internalType": "address",
          "name": "_token",
          "type": "address"
        }
      ],
      "name": "assetType",
      "outputs": [
        {
          "internalType": "bytes32",
          "name": "",
          "type": "bytes32"
        }
      ],
      "stateMutability": "view",
      "type": "function"
    },
    {
      "inputs": [
        {
          "internalType": "bytes4",
          "name": "_selector",
          "type": "bytes4"
        }
      ],
      "name": "cancelGovernanceCall",
      "outputs": [],
      "stateMutability": "nonpayable",
      "type": "function"
    },
    {
      "inputs": [
        {
          "internalType": "bytes4",
          "name": "_selector",
          "type": "bytes4"
        }
      ],
      "name": "executeGovernanceCall",
      "outputs": [],
      "stateMutability": "nonpayable",
      "type": "function"
    },
    {
      "inputs": [
        {
          "internalType": "address",
          "name": "_token",
          "type": "address"
        },
        {
          "internalType": "bytes32",
          "name": "_nameHash",
          "type": "bytes32"
        }
      ],
      "name": "getAttribute",
      "outputs": [
        {
          "internalType": "bool",
          "name": "_defined",
          "type": "bool"
        },
        {
          "internalType": "bytes32",
          "name": "_value",
          "type": "bytes32"
        }
      ],
      "stateMutability": "view",
      "type": "function"
    },
    {
      "inputs": [],
      "name": "governance",
      "outputs": [
        {
          "internalType": "address",
          "name": "",
          "type": "address"
        }
      ],
      "stateMutability": "view",
      "type": "function"
    },
    {
      "inputs": [],
      "name": "governanceSettings",
      "outputs": [
        {
          "internalType": "contract IGovernanceSettings",
          "name": "",
          "type": "address"
        }
      ],
      "stateMutability": "view",
      "type": "function"
    },
    {
      "inputs": [
        {
          "internalType": "address",
          "name": "_token",
          "type": "address"
        }
      ],
      "name": "incentivePoolFor",
      "outputs": [
        {
          "internalType": "address",
          "name": "",
          "type": "address"
        }
      ],
      "stateMutability": "view",
      "type": "function"
    },
    {
      "inputs": [
        {
          "internalType": "address",
          "name": "_initialGovernance",
          "type": "address"
        }
      ],
      "name": "initialise",
      "outputs": [],
      "stateMutability": "nonpayable",
      "type": "function"
    },
    {
      "inputs": [
        {
          "internalType": "address",
          "name": "_token",
          "type": "address"
        }
      ],
      "name": "isFlareAsset",
      "outputs": [
        {
          "internalType": "bool",
          "name": "",
          "type": "bool"
        }
      ],
      "stateMutability": "view",
      "type": "function"
    },
    {
      "inputs": [
        {
          "internalType": "address",
          "name": "_token",
          "type": "address"
        }
      ],
      "name": "maxDelegatesByPercent",
      "outputs": [
        {
          "internalType": "uint256",
          "name": "",
          "type": "uint256"
        }
      ],
      "stateMutability": "view",
      "type": "function"
    },
    {
      "inputs": [],
      "name": "productionMode",
      "outputs": [
        {
          "internalType": "bool",
          "name": "",
          "type": "bool"
        }
      ],
      "stateMutability": "view",
      "type": "function"
    },
    {
      "inputs": [
        {
          "internalType": "address",
          "name": "_provider",
          "type": "address"
        }
      ],
      "name": "refreshProviderAssets",
      "outputs": [],
      "stateMutability": "nonpayable",
      "type": "function"
    },
    {
      "inputs": [
        {
          "internalType": "address",
          "name": "_token",
          "type": "address"
        }
      ],
      "name": "registerAsset",
      "outputs": [],
      "stateMutability": "nonpayable",
      "type": "function"
    },
    {
      "inputs": [
        {
          "internalType": "address",
          "name": "_provider",
          "type": "address"
        },
        {
          "internalType": "bool",
          "name": "_registerAssets",
          "type": "bool"
        }
      ],
      "name": "registerProvider",
      "outputs": [],
      "stateMutability": "nonpayable",
      "type": "function"
    },
    {
      "inputs": [
        {
          "internalType": "address",
          "name": "_token",
          "type": "address"
        }
      ],
      "name": "supportsFtsoDelegation",
      "outputs": [
        {
          "internalType": "bool",
          "name": "",
          "type": "bool"
        }
      ],
      "stateMutability": "view",
      "type": "function"
    },
    {
      "inputs": [],
      "name": "switchToProductionMode",
      "outputs": [],
      "stateMutability": "nonpayable",
      "type": "function"
    },
    {
      "inputs": [
        {
          "internalType": "bytes4",
          "name": "",
          "type": "bytes4"
        }
      ],
      "name": "timelockedCalls",
      "outputs": [
        {
          "internalType": "uint256",
          "name": "allowedAfterTimestamp",
          "type": "uint256"
        },
        {
          "internalType": "bytes",
          "name": "encodedCall",
          "type": "bytes"
        }
      ],
      "stateMutability": "view",
      "type": "function"
    },
    {
      "inputs": [
        {
          "internalType": "address",
          "name": "_token",
          "type": "address"
        }
      ],
      "name": "unregisterAsset",
      "outputs": [],
      "stateMutability": "nonpayable",
      "type": "function"
    },
    {
      "inputs": [
        {
          "internalType": "address",
          "name": "_provider",
          "type": "address"
        },
        {
          "internalType": "bool",
          "name": "_unregisterAssets",
          "type": "bool"
        }
      ],
      "name": "unregisterProvider",
      "outputs": [],
      "stateMutability": "nonpayable",
      "type": "function"
    }
  ],
  "bytecode": "0x60806040523480156200001157600080fd5b50604051620026203803806200262083398101604081905262000034916200016c565b80806001600160a01b0381161562000051576200005181620000a9565b506001600160a01b038116620000a1576040805162461bcd60e51b815260206004820152601060248201526f5f676f7665726e616e6365207a65726f60801b604482015290519081900360640190fd5b50506200019c565b600054600160a01b900460ff161562000109576040805162461bcd60e51b815260206004820152601460248201527f696e697469616c6973656420213d2066616c7365000000000000000000000000604482015290519081900360640190fd5b60008054600160a01b60ff60a01b19909116176001600160a01b0319166001600160a01b03831690811790915560408051918252517f9789733827840833afc031fb2ef9ab6894271f77bad2085687cf4ae5c7bee4db916020908290030190a150565b6000602082840312156200017e578081fd5b81516001600160a01b038116811462000195578182fd5b9392505050565b61247480620001ac6000396000f3fe608060405234801561001057600080fd5b50600436106101735760003560e01c8063ab98d21a116100de578063d42b9b7111610097578063e40ad8ca11610071578063e40ad8ca1461033b578063eea94d361461034e578063f5a9838314610361578063f69ea6d81461036957610173565b8063d42b9b711461030d578063dc0e18ff14610320578063e17f212e1461033357610173565b8063ab98d21a1461028c578063baed92b21461029f578063c906d2cf146102bf578063cad33b31146102d2578063ce7bc3e1146102e5578063d312998f146102fa57610173565b806367fc40291161013057806367fc40291461020a57806374e6310e1461021d57806376d708d71461023e5780637d4afb65146102535780639d6a890f14610266578063a05ede981461027957610173565b806311da3f6814610178578063163f6691146101a15780634aef2ad4146101c25780635aa6e675146101d85780635ff27079146101ed57806362354e0314610202575b600080fd5b61018b610186366004611de1565b61037c565b6040516101989190612218565b60405180910390f35b6101b46101af366004611e35565b61039f565b604051610198929190612223565b6101ca61046d565b604051610198929190612164565b6101e06104df565b6040516101989190612124565b6102006101fb366004611f6a565b610581565b005b6101e06108e3565b610200610218366004611f6a565b6108fb565b61023061022b366004611f6a565b6109e3565b6040516101989291906123b2565b610246610a89565b6040516101989190612151565b6101e0610261366004611f92565b610aee565b610200610274366004611de1565b610b23565b610200610287366004611dfd565b610bdc565b6101e061029a366004611de1565b610cd7565b6102b26102ad366004611de1565b610d20565b6040516101989190612233565b6102006102cd366004611de1565b610d4f565b6102466102e0366004611f3a565b610db9565b6102ed610dca565b60405161019891906121d4565b610200610308366004611de1565b610e21565b61020061031b366004611dfd565b610e61565b61018b61032e366004611de1565b610f37565b61018b610f6c565b6102b2610349366004611de1565b610f7c565b61020061035c366004611de1565b611020565b61020061109f565b6101ca610377366004611f3a565b611166565b6001600160a01b038181166000908152600660205260409020541615155b919050565b6001600160a01b038083166000908152600660205260408120549091829116806103e45760405162461bcd60e51b81526004016103db9061223c565b60405180910390fd5b60405163163f669160e01b81526001600160a01b0382169063163f6691906104129088908890600401612138565b604080518083038186803b15801561042957600080fd5b505afa15801561043d573d6000803e3d6000fd5b505050506040513d601f19601f820116820180604052508101906104619190611f0d565b92509250509250929050565b600280546040805160208084028201810190925282815260609384936000938301828280156104c557602002820191906000526020600020905b81546001600160a01b031681526001909101906020018083116104a7575b50505050509050806104d68261118a565b92509250509091565b60008054600160a81b900460ff16610502576000546001600160a01b031661057c565b73183faff6997c98a812a3b98748fc80241d08f3126001600160a01b031663732524946040518163ffffffff1660e01b815260040160206040518083038186803b15801561054f57600080fd5b505afa158015610563573d6000803e3d6000fd5b505050506040513d602081101561057957600080fd5b50515b905090565b60408051630debfda360e41b8152336004820152905173183faff6997c98a812a3b98748fc80241d08f3129163debfda30916024808301926020929190829003018186803b1580156105d257600080fd5b505afa1580156105e6573d6000803e3d6000fd5b505050506040513d60208110156105fc57600080fd5b505161063f576040805162461bcd60e51b815260206004820152600d60248201526c37b7363c9032bc32b1baba37b960991b604482015290519081900360640190fd5b6001600160e01b03198116600090815260016020526040902080546106ab576040805162461bcd60e51b815260206004820152601a60248201527f74696d656c6f636b3a20696e76616c69642073656c6563746f72000000000000604482015290519081900360640190fd5b8054421015610701576040805162461bcd60e51b815260206004820152601960248201527f74696d656c6f636b3a206e6f7420616c6c6f7765642079657400000000000000604482015290519081900360640190fd5b6000816001018054600181600116156101000203166002900480601f01602080910402602001604051908101604052809291908181526020018280546001816001161561010002031660029004801561079b5780601f106107705761010080835404028352916020019161079b565b820191906000526020600020905b81548152906001019060200180831161077e57829003601f168201915b5050506001600160e01b03198616600090815260016020819052604082208281559495509092506107cf9150830182611cfc565b50506000805460ff60b01b1916600160b01b178155604051825130918491819060208401908083835b602083106108175780518252601f1990920191602091820191016107f8565b6001836020036101000a0380198251168184511680821785525050505050509050019150506000604051808303816000865af19150503d8060008114610879576040519150601f19603f3d011682016040523d82523d6000602084013e61087e565b606091505b50506000805460ff60b01b19169055604080516001600160e01b03198716815242602082015281519293507fa7326b57fc9cfe267aaea5e7f0b01757154d265620a0585819416ee9ddd2c438929081900390910190a16108dd81611297565b50505050565b73183faff6997c98a812a3b98748fc80241d08f31281565b6109036112b4565b6001600160e01b0319811660009081526001602052604090205461096e576040805162461bcd60e51b815260206004820152601a60248201527f74696d656c6f636b3a20696e76616c69642073656c6563746f72000000000000604482015290519081900360640190fd5b604080516001600160e01b03198316815242602082015281517f7735b2391c38a81419c513e30ca578db7158eadd7101511b23e221c654d19cf8929181900390910190a16001600160e01b031981166000908152600160208190526040822082815591906109de90830182611cfc565b505050565b600160208181526000928352604092839020805481840180548651600296821615610100026000190190911695909504601f81018590048502860185019096528585529094919392909190830182828015610a7f5780601f10610a5457610100808354040283529160200191610a7f565b820191906000526020600020905b815481529060010190602001808311610a6257829003601f168201915b5050505050905082565b60606002600001805480602002602001604051908101604052809291908181526020018280548015610ae457602002820191906000526020600020905b81546001600160a01b03168152600190910190602001808311610ac6575b5050505050905090565b600060058383604051610b029291906120f8565b908152604051908190036020019020546001600160a01b0316905092915050565b600054600160a01b900460ff1615610b79576040805162461bcd60e51b8152602060048201526014602482015273696e697469616c6973656420213d2066616c736560601b604482015290519081900360640190fd5b60008054600160a01b60ff60a01b19909116176001600160a01b0319166001600160a01b03831690811790915560408051918252517f9789733827840833afc031fb2ef9ab6894271f77bad2085687cf4ae5c7bee4db916020908290030190a150565b600054600160b01b900460ff1680610bfe5750600054600160a81b900460ff16155b15610cc857610c0b611315565b6001600160a01b038216600090815260046020526040902054600160801b900460ff16610c3757610cc3565b8015610c4b57610c468261134a565b610c8a565b6001600160a01b0382166000908152600460205260409020546001600160801b031615610c8a5760405162461bcd60e51b81526004016103db90612298565b6001600160a01b0382166000908152600460205260409020805470ffffffffffffffffffffffffffffffffff19169055610cc3826113b3565b610cd3565b610cd36000366114de565b5050565b6000806000610d06847f935bf1a0c40d6e14ab58d0de214f9d9cf405434941167e988ffe97c0f8dac4f261039f565b9150915081610d16576000610d18565b805b949350505050565b6000806000610d06847fd6f6d4fc8b7263c065f116d4b064a7f172e566382921561dc0f5ba862046d4cc61039f565b6001600160a01b0381811660009081526006602052604090205416610d7357610db6565b6001600160a01b03818116600090815260066020526040902054163314610dac5760405162461bcd60e51b81526004016103db9061237b565b610db6338261166e565b50565b6060610dc482611774565b92915050565b60606007805480602002602001604051908101604052809291908181526020018280548015610ae457602002820191906000526020600020905b815481526020019060010190808311610e04575050505050905090565b33600090815260046020526040902054600160801b900460ff16610e575760405162461bcd60e51b81526004016103db90612354565b610db63382611821565b600054600160b01b900460ff1680610e835750600054600160a81b900460ff16155b15610cc857610e90611315565b6001600160a01b038216600090815260046020526040902054600160801b900460ff1615610ebd57610cc3565b6040805180820182526000808252600160208084019182526001600160a01b0387168352600490529290209051815492511515600160801b0260ff60801b196001600160801b03929092166001600160801b03199094169390931716919091179055610f28826119e3565b8015610cc357610cc382611aee565b600080610f64837fd6f6d4fc8b7263c065f116d4b064a7f172e566382921561dc0f5ba862046d4cc61039f565b509392505050565b600054600160a81b900460ff1681565b6001600160a01b0380821660009081526006602052604081205490911680610fa857506000905061039a565b806001600160a01b0316633fe3347a6040518163ffffffff1660e01b815260040160206040518083038186803b158015610fe157600080fd5b505afa158015610ff5573d6000803e3d6000fd5b505050506040513d601f19601f820116820180604052508101906110199190611f52565b9392505050565b6110286112b4565b6001600160a01b038116600090815260046020526040902054600160801b900460ff166110675760405162461bcd60e51b81526004016103db906122fe565b6110708161134a565b6001600160a01b038116600090815260046020526040902080546001600160801b0319169055610db681611aee565b6110a76112b4565b600054600160a81b900460ff1615611106576040805162461bcd60e51b815260206004820152601a60248201527f616c726561647920696e2070726f64756374696f6e206d6f6465000000000000604482015290519081900360640190fd5b60008054600161ff0160a01b031916600160a81b1790556040805173183faff6997c98a812a3b98748fc80241d08f312815290517f83af113638b5422f9e977cebc0aaf0eaf2188eb9a8baae7f9d46c42b33a1560c9181900360200190a1565b606080600061117484611774565b9050806111808261118a565b9250925050915091565b60606000825167ffffffffffffffff811180156111a657600080fd5b506040519080825280602002602001820160405280156111da57816020015b60608152602001906001900390816111c55790505b50905060005b8351811015611290578381815181106111f557fe5b60200260200101516001600160a01b03166395d89b416040518163ffffffff1660e01b815260040160006040518083038186803b15801561123557600080fd5b505afa158015611249573d6000803e3d6000fd5b505050506040513d6000823e601f3d908101601f191682016040526112719190810190611fff565b82828151811061127d57fe5b60209081029190910101526001016111e0565b5092915050565b3d604051818101604052816000823e82156112b0578181f35b8181fd5b6112bc6104df565b6001600160a01b0316336001600160a01b031614611313576040805162461bcd60e51b815260206004820152600f60248201526e6f6e6c7920676f7665726e616e636560881b604482015290519081900360640190fd5b565b600054600160b01b900460ff16156113425733301461133057fe5b6000805460ff60b01b19169055611313565b6113136112b4565b600254805b80156109de5760006002600001600183038154811061136a57fe5b60009182526020808320909101546001600160a01b039081168084526006909252604090922054909250811690851614156113a9576113a9848261166e565b506000190161134f565b6000816001600160a01b0316633fe3347a6040518163ffffffff1660e01b815260040160206040518083038186803b1580156113ee57600080fd5b505afa158015611402573d6000803e3d6000fd5b505050506040513d601f19601f820116820180604052508101906114269190611f52565b600081815260086020526040812080546001600160a01b03191690556007549192505b818110156108dd57826007828154811061145f57fe5b906000526020600020015414156114d657600182038110156114b0576007600183038154811061148b57fe5b9060005260206000200154600782815481106114a357fe5b6000918252602090912001555b60078054806114bb57fe5b600190038181906000526020600020016000905590556108dd565b600101611449565b6114e66112b4565b600082359050600073183faff6997c98a812a3b98748fc80241d08f3126001600160a01b0316636221a54b6040518163ffffffff1660e01b815260040160206040518083038186803b15801561153b57600080fd5b505afa15801561154f573d6000803e3d6000fd5b505050506040513d602081101561156557600080fd5b505160408051808201825242830180825282516020601f89018190048102820181019094528781529394509290918281019190889088908190840183828082843760009201829052509390945250506001600160e01b031986168152600160208181526040909220845181558483015180519194506115e993928501920190611d40565b509050507fed948300a3694aa01d4a6b258bfd664350193d770c0b51f8387277f6d83ea3b68382878760405180856001600160e01b0319168152602001848152602001806020018281038252848482818152602001925080828437600083820152604051601f909101601f191690920182900397509095505050505050a15050505050565b6000816001600160a01b03166395d89b416040518163ffffffff1660e01b815260040160006040518083038186803b1580156116a957600080fd5b505afa1580156116bd573d6000803e3d6000fd5b505050506040513d6000823e601f3d908101601f191682016040526116e59190810190611fff565b90506116f2600283611b98565b6005816040516117029190612108565b908152604080516020928190038301902080546001600160a01b03199081169091556001600160a01b0394851660009081526006845282812080549092169091559490931684526004905250902080546001600160801b031981166001600160801b0391821660001901909116179055565b6000818152600860205260409020546060906001600160a01b0316806117ac5760405162461bcd60e51b81526004016103db90612328565b806001600160a01b03166376d708d76040518163ffffffff1660e01b815260040160006040518083038186803b1580156117e557600080fd5b505afa1580156117f9573d6000803e3d6000fd5b505050506040513d6000823e601f3d908101601f191682016040526110199190810190611e60565b6001600160a01b038181166000908152600660205260409020548116908316141561184b57610cd3565b6001600160a01b0381811660009081526006602052604090205416156118835760405162461bcd60e51b81526004016103db9061237b565b6000816001600160a01b03166395d89b416040518163ffffffff1660e01b815260040160006040518083038186803b1580156118be57600080fd5b505afa1580156118d2573d6000803e3d6000fd5b505050506040513d6000823e601f3d908101601f191682016040526118fa9190810190611fff565b905060006001600160a01b03166005826040516119179190612108565b908152604051908190036020019020546001600160a01b03161461194d5760405162461bcd60e51b81526004016103db9061226b565b611958600283611c93565b816005826040516119699190612108565b908152604080516020928190038301902080546001600160a01b03199081166001600160a01b0395861617909155948316600090815260068352818120805490961696909316958617909455938152600490935250902080546001600160801b031981166001600160801b03918216600101909116179055565b6000816001600160a01b0316633fe3347a6040518163ffffffff1660e01b815260040160206040518083038186803b158015611a1e57600080fd5b505afa158015611a32573d6000803e3d6000fd5b505050506040513d601f19601f82011682018060405250810190611a569190611f52565b6000818152600860205260409020549091506001600160a01b031615611a8e5760405162461bcd60e51b81526004016103db906122c7565b600081815260086020526040812080546001600160a01b0319166001600160a01b0394909416939093179092556007805460018101825592527fa66cc928b5edb82af9bd49922954155ab7b0942694bea4ce44661d9a8736c68890910155565b6000816001600160a01b03166376d708d76040518163ffffffff1660e01b815260040160006040518083038186803b158015611b2957600080fd5b505afa158015611b3d573d6000803e3d6000fd5b505050506040513d6000823e601f3d908101601f19168201604052611b659190810190611e60565b905060005b81518110156109de57611b9083838381518110611b8357fe5b6020026020010151611821565b600101611b6a565b6001600160a01b038116600090815260018301602052604090205480611bbe5750610cd3565b8254811015611c4657825460009084906000198101908110611bdc57fe5b60009182526020909120015484546001600160a01b039091169150819085906000198501908110611c0957fe5b600091825260208083209190910180546001600160a01b0319166001600160a01b0394851617905592909116815260018501909152604090208190555b8254839080611c5157fe5b60008281526020808220830160001990810180546001600160a01b03191690559092019092556001600160a01b03841682526001850190526040812055505050565b6001600160a01b038116600090815260018301602052604090205415611cb857610cd3565b8154600180820184556000848152602080822090930180546001600160a01b0319166001600160a01b03959095169485179055845493815293019052604090912055565b50805460018160011615610100020316600290046000825580601f10611d225750610db6565b601f016020900490600052602060002090810190610db69190611dcc565b828054600181600116156101000203166002900490600052602060002090601f016020900481019282611d765760008555611dbc565b82601f10611d8f57805160ff1916838001178555611dbc565b82800160010185558215611dbc579182015b82811115611dbc578251825591602001919060010190611da1565b50611dc8929150611dcc565b5090565b5b80821115611dc85760008155600101611dcd565b600060208284031215611df2578081fd5b81356110198161241b565b60008060408385031215611e0f578081fd5b8235611e1a8161241b565b91506020830135611e2a81612430565b809150509250929050565b60008060408385031215611e47578182fd5b8235611e528161241b565b946020939093013593505050565b60006020808385031215611e72578182fd5b825167ffffffffffffffff80821115611e89578384fd5b818501915085601f830112611e9c578384fd5b815181811115611ea857fe5b8381029150611eb88483016123cb565b8181528481019084860184860187018a1015611ed2578788fd5b8795505b83861015611f005780519450611eeb8561241b565b84835260019590950194918601918601611ed6565b5098975050505050505050565b60008060408385031215611f1f578182fd5b8251611f2a81612430565b6020939093015192949293505050565b600060208284031215611f4b578081fd5b5035919050565b600060208284031215611f63578081fd5b5051919050565b600060208284031215611f7b578081fd5b81356001600160e01b031981168114611019578182fd5b60008060208385031215611fa4578182fd5b823567ffffffffffffffff80821115611fbb578384fd5b818501915085601f830112611fce578384fd5b813581811115611fdc578485fd5b866020828501011115611fed578485fd5b60209290920196919550909350505050565b600060208284031215612010578081fd5b815167ffffffffffffffff80821115612027578283fd5b818401915084601f83011261203a578283fd5b81518181111561204657fe5b612059601f8201601f19166020016123cb565b915080825285602082850101111561206f578384fd5b6120808160208401602086016123ef565b50949350505050565b6000815180845260208085019450808401835b838110156120c15781516001600160a01b03168752958201959082019060010161209c565b509495945050505050565b600081518084526120e48160208601602086016123ef565b601f01601f19169290920160200192915050565b6000828483379101908152919050565b6000825161211a8184602087016123ef565b9190910192915050565b6001600160a01b0391909116815260200190565b6001600160a01b03929092168252602082015260400190565b6000602082526110196020830184612089565b6000604082526121776040830185612089565b602083820381850152818551808452828401915082838202850101838801865b838110156121c557601f198784030185526121b38383516120cc565b94860194925090850190600101612197565b50909998505050505050505050565b6020808252825182820181905260009190848201906040850190845b8181101561220c578351835292840192918401916001016121f0565b50909695505050505050565b901515815260200190565b9115158252602082015260400190565b90815260200190565b602080825260159082015274696e76616c696420746f6b656e206164647265737360581b604082015260600190565b6020808252601390820152721cde5b589bdb08185b1c9958591e481d5cd959606a1b604082015260600190565b60208082526015908201527468617320726567697374657265642061737365747360581b604082015260600190565b6020808252601d908201527f6173736574207479706520616c72656164792072656769737465726564000000604082015260600190565b60208082526010908201526f3ab735b737bbb710383937bb34b232b960811b604082015260600190565b602080825260129082015271696e76616c6964206173736574207479706560701b604082015260600190565b6020808252600d908201526c37b7363c90383937bb34b232b960991b604082015260600190565b6020808252601c908201527f72656769737465726564206279206f746865722070726f766964657200000000604082015260600190565b600083825260406020830152610d1860408301846120cc565b60405181810167ffffffffffffffff811182821017156123e757fe5b604052919050565b60005b8381101561240a5781810151838201526020016123f2565b838111156108dd5750506000910152565b6001600160a01b0381168114610db657600080fd5b8015158114610db657600080fdfea264697066735822122099f13a4ca0396c0adba613fcc7ace49121399cb1ef0a91ed3af4c8e21152367c64736f6c63430007060033",
  "linkReferences": {},
  "deployedLinkReferences": {}
}