{
    "_format": "hh-sol-artifact-1",
    "contractName": "FtsoRegistry",
    "sourceName": "contracts/utils/implementation/FtsoRegistry.sol",
    "abi": [
        {
            "inputs": [],
            "stateMutability": "nonpayable",
            "type": "constructor"
        },
        {
            "anonymous": false,
            "inputs": [
                {
                    "indexed": false,
                    "internalType": "bytes4",
                    "name": "selector",
                    "type": "bytes4"
                },
                {
                    "indexed": false,
                    "internalType": "uint256",
                    "name": "allowedAfterTimestamp",
                    "type": "uint256"
                },
                {
                    "indexed": false,
                    "internalType": "bytes",
                    "name": "encodedCall",
                    "type": "bytes"
                }
            ],
            "name": "GovernanceCallTimelocked",
            "type": "event"
        },
        {
            "anonymous": false,
            "inputs": [
                {
                    "indexed": false,
                    "internalType": "address",
                    "name": "initialGovernance",
                    "type": "address"
                }
            ],
            "name": "GovernanceInitialised",
            "type": "event"
        },
        {
            "anonymous": false,
            "inputs": [
                {
                    "indexed": false,
                    "internalType": "address",
                    "name": "governanceSettings",
                    "type": "address"
                }
            ],
            "name": "GovernedProductionModeEntered",
            "type": "event"
        },
        {
            "anonymous": false,
            "inputs": [
                {
                    "indexed": false,
                    "internalType": "bytes4",
                    "name": "selector",
                    "type": "bytes4"
                },
                {
                    "indexed": false,
                    "internalType": "uint256",
                    "name": "timestamp",
                    "type": "uint256"
                }
            ],
            "name": "TimelockedGovernanceCallCanceled",
            "type": "event"
        },
        {
            "anonymous": false,
            "inputs": [
                {
                    "indexed": false,
                    "internalType": "bytes4",
                    "name": "selector",
                    "type": "bytes4"
                },
                {
                    "indexed": false,
                    "internalType": "uint256",
                    "name": "timestamp",
                    "type": "uint256"
                }
            ],
            "name": "TimelockedGovernanceCallExecuted",
            "type": "event"
        },
        {
            "inputs": [
                {
                    "internalType": "contract IIFtso",
                    "name": "_ftsoContract",
                    "type": "address"
                }
            ],
            "name": "addFtso",
            "outputs": [
                {
                    "internalType": "uint256",
                    "name": "_assetIndex",
                    "type": "uint256"
                }
            ],
            "stateMutability": "nonpayable",
            "type": "function"
        },
        {
            "inputs": [
                {
                    "internalType": "bytes4",
                    "name": "_selector",
                    "type": "bytes4"
                }
            ],
            "name": "cancelGovernanceCall",
            "outputs": [],
            "stateMutability": "nonpayable",
            "type": "function"
        },
        {
            "inputs": [
                {
                    "internalType": "bytes4",
                    "name": "_selector",
                    "type": "bytes4"
                }
            ],
            "name": "executeGovernanceCall",
            "outputs": [],
            "stateMutability": "nonpayable",
            "type": "function"
        },
        {
            "inputs": [],
            "name": "ftsoManager",
            "outputs": [
                {
                    "internalType": "contract IIFtsoManager",
                    "name": "",
                    "type": "address"
                }
            ],
            "stateMutability": "view",
            "type": "function"
        },
        {
            "inputs": [],
            "name": "getAddressUpdater",
            "outputs": [
                {
                    "internalType": "address",
                    "name": "_addressUpdater",
                    "type": "address"
                }
            ],
            "stateMutability": "view",
            "type": "function"
        },
        {
            "inputs": [],
            "name": "getAllCurrentPrices",
            "outputs": [
                {
                    "components": [
                        {
                            "internalType": "uint256",
                            "name": "ftsoIndex",
                            "type": "uint256"
                        },
                        {
                            "internalType": "uint256",
                            "name": "price",
                            "type": "uint256"
                        },
                        {
                            "internalType": "uint256",
                            "name": "decimals",
                            "type": "uint256"
                        },
                        {
                            "internalType": "uint256",
                            "name": "timestamp",
                            "type": "uint256"
                        }
                    ],
                    "internalType": "struct IFtsoRegistry.PriceInfo[]",
                    "name": "",
                    "type": "tuple[]"
                }
            ],
            "stateMutability": "view",
            "type": "function"
        },
        {
            "inputs": [],
            "name": "getAllFtsos",
            "outputs": [
                {
                    "internalType": "contract IIFtso[]",
                    "name": "_ftsos",
                    "type": "address[]"
                }
            ],
            "stateMutability": "view",
            "type": "function"
        },
        {
            "inputs": [
                {
                    "internalType": "string",
                    "name": "_symbol",
                    "type": "string"
                }
            ],
            "name": "getCurrentPrice",
            "outputs": [
                {
                    "internalType": "uint256",
                    "name": "_price",
                    "type": "uint256"
                },
                {
                    "internalType": "uint256",
                    "name": "_timestamp",
                    "type": "uint256"
                }
            ],
            "stateMutability": "view",
            "type": "function"
        },
        {
            "inputs": [
                {
                    "internalType": "uint256",
                    "name": "_assetIndex",
                    "type": "uint256"
                }
            ],
            "name": "getCurrentPrice",
            "outputs": [
                {
                    "internalType": "uint256",
                    "name": "_price",
                    "type": "uint256"
                },
                {
                    "internalType": "uint256",
                    "name": "_timestamp",
                    "type": "uint256"
                }
            ],
            "stateMutability": "view",
            "type": "function"
        },
        {
            "inputs": [
                {
                    "internalType": "uint256",
                    "name": "_assetIndex",
                    "type": "uint256"
                }
            ],
            "name": "getCurrentPriceWithDecimals",
            "outputs": [
                {
                    "internalType": "uint256",
                    "name": "_price",
                    "type": "uint256"
                },
                {
                    "internalType": "uint256",
                    "name": "_timestamp",
                    "type": "uint256"
                },
                {
                    "internalType": "uint256",
                    "name": "_assetPriceUsdDecimals",
                    "type": "uint256"
                }
            ],
            "stateMutability": "view",
            "type": "function"
        },
        {
            "inputs": [
                {
                    "internalType": "string",
                    "name": "_symbol",
                    "type": "string"
                }
            ],
            "name": "getCurrentPriceWithDecimals",
            "outputs": [
                {
                    "internalType": "uint256",
                    "name": "_price",
                    "type": "uint256"
                },
                {
                    "internalType": "uint256",
                    "name": "_timestamp",
                    "type": "uint256"
                },
                {
                    "internalType": "uint256",
                    "name": "_assetPriceUsdDecimals",
                    "type": "uint256"
                }
            ],
            "stateMutability": "view",
            "type": "function"
        },
        {
            "inputs": [
                {
                    "internalType": "uint256[]",
                    "name": "_indices",
                    "type": "uint256[]"
                }
            ],
            "name": "getCurrentPricesByIndices",
            "outputs": [
                {
                    "components": [
                        {
                            "internalType": "uint256",
                            "name": "ftsoIndex",
                            "type": "uint256"
                        },
                        {
                            "internalType": "uint256",
                            "name": "price",
                            "type": "uint256"
                        },
                        {
                            "internalType": "uint256",
                            "name": "decimals",
                            "type": "uint256"
                        },
                        {
                            "internalType": "uint256",
                            "name": "timestamp",
                            "type": "uint256"
                        }
                    ],
                    "internalType": "struct IFtsoRegistry.PriceInfo[]",
                    "name": "",
                    "type": "tuple[]"
                }
            ],
            "stateMutability": "view",
            "type": "function"
        },
        {
            "inputs": [
                {
                    "internalType": "string[]",
                    "name": "_symbols",
                    "type": "string[]"
                }
            ],
            "name": "getCurrentPricesBySymbols",
            "outputs": [
                {
                    "components": [
                        {
                            "internalType": "uint256",
                            "name": "ftsoIndex",
                            "type": "uint256"
                        },
                        {
                            "internalType": "uint256",
                            "name": "price",
                            "type": "uint256"
                        },
                        {
                            "internalType": "uint256",
                            "name": "decimals",
                            "type": "uint256"
                        },
                        {
                            "internalType": "uint256",
                            "name": "timestamp",
                            "type": "uint256"
                        }
                    ],
                    "internalType": "struct IFtsoRegistry.PriceInfo[]",
                    "name": "",
                    "type": "tuple[]"
                }
            ],
            "stateMutability": "view",
            "type": "function"
        },
        {
            "inputs": [
                {
                    "internalType": "uint256",
                    "name": "_assetIndex",
                    "type": "uint256"
                }
            ],
            "name": "getFtso",
            "outputs": [
                {
                    "internalType": "contract IIFtso",
                    "name": "_activeFtso",
                    "type": "address"
                }
            ],
            "stateMutability": "view",
            "type": "function"
        },
        {
            "inputs": [
                {
                    "internalType": "string",
                    "name": "_symbol",
                    "type": "string"
                }
            ],
            "name": "getFtsoBySymbol",
            "outputs": [
                {
                    "internalType": "contract IIFtso",
                    "name": "_activeFtso",
                    "type": "address"
                }
            ],
            "stateMutability": "view",
            "type": "function"
        },
        {
            "inputs": [
                {
                    "internalType": "uint256",
                    "name": "_assetIndex",
                    "type": "uint256"
                }
            ],
            "name": "getFtsoHistory",
            "outputs": [
                {
                    "internalType": "contract IIFtso[5]",
                    "name": "_ftsoAddressHistory",
                    "type": "address[5]"
                }
            ],
            "stateMutability": "view",
            "type": "function"
        },
        {
            "inputs": [
                {
                    "internalType": "string",
                    "name": "_symbol",
                    "type": "string"
                }
            ],
            "name": "getFtsoIndex",
            "outputs": [
                {
                    "internalType": "uint256",
                    "name": "_assetIndex",
                    "type": "uint256"
                }
            ],
            "stateMutability": "view",
            "type": "function"
        },
        {
            "inputs": [
                {
                    "internalType": "uint256",
                    "name": "_assetIndex",
                    "type": "uint256"
                }
            ],
            "name": "getFtsoSymbol",
            "outputs": [
                {
                    "internalType": "string",
                    "name": "_symbol",
                    "type": "string"
                }
            ],
            "stateMutability": "view",
            "type": "function"
        },
        {
            "inputs": [
                {
                    "internalType": "uint256[]",
                    "name": "_assetIndices",
                    "type": "uint256[]"
                }
            ],
            "name": "getFtsos",
            "outputs": [
                {
                    "internalType": "contract IFtsoGenesis[]",
                    "name": "_ftsos",
                    "type": "address[]"
                }
            ],
            "stateMutability": "view",
            "type": "function"
        },
        {
            "inputs": [],
            "name": "getSupportedFtsos",
            "outputs": [
                {
                    "internalType": "contract IIFtso[]",
                    "name": "_ftsos",
                    "type": "address[]"
                }
            ],
            "stateMutability": "view",
            "type": "function"
        },
        {
            "inputs": [],
            "name": "getSupportedIndices",
            "outputs": [
                {
                    "internalType": "uint256[]",
                    "name": "_supportedIndices",
                    "type": "uint256[]"
                }
            ],
            "stateMutability": "view",
            "type": "function"
        },
        {
            "inputs": [],
            "name": "getSupportedIndicesAndFtsos",
            "outputs": [
                {
                    "internalType": "uint256[]",
                    "name": "_supportedIndices",
                    "type": "uint256[]"
                },
                {
                    "internalType": "contract IIFtso[]",
                    "name": "_ftsos",
                    "type": "address[]"
                }
            ],
            "stateMutability": "view",
            "type": "function"
        },
        {
            "inputs": [],
            "name": "getSupportedIndicesAndSymbols",
            "outputs": [
                {
                    "internalType": "uint256[]",
                    "name": "_supportedIndices",
                    "type": "uint256[]"
                },
                {
                    "internalType": "string[]",
                    "name": "_supportedSymbols",
                    "type": "string[]"
                }
            ],
            "stateMutability": "view",
            "type": "function"
        },
        {
            "inputs": [],
            "name": "getSupportedIndicesSymbolsAndFtsos",
            "outputs": [
                {
                    "internalType": "uint256[]",
                    "name": "_supportedIndices",
                    "type": "uint256[]"
                },
                {
                    "internalType": "string[]",
                    "name": "_supportedSymbols",
                    "type": "string[]"
                },
                {
                    "internalType": "contract IIFtso[]",
                    "name": "_ftsos",
                    "type": "address[]"
                }
            ],
            "stateMutability": "view",
            "type": "function"
        },
        {
            "inputs": [],
            "name": "getSupportedSymbols",
            "outputs": [
                {
                    "internalType": "string[]",
                    "name": "_supportedSymbols",
                    "type": "string[]"
                }
            ],
            "stateMutability": "view",
            "type": "function"
        },
        {
            "inputs": [],
            "name": "getSupportedSymbolsAndFtsos",
            "outputs": [
                {
                    "internalType": "string[]",
                    "name": "_supportedSymbols",
                    "type": "string[]"
                },
                {
                    "internalType": "contract IIFtso[]",
                    "name": "_ftsos",
                    "type": "address[]"
                }
            ],
            "stateMutability": "view",
            "type": "function"
        },
        {
            "inputs": [],
            "name": "governance",
            "outputs": [
                {
                    "internalType": "address",
                    "name": "",
                    "type": "address"
                }
            ],
            "stateMutability": "view",
            "type": "function"
        },
        {
            "inputs": [],
            "name": "governanceSettings",
            "outputs": [
                {
                    "internalType": "contract IGovernanceSettings",
                    "name": "",
                    "type": "address"
                }
            ],
            "stateMutability": "view",
            "type": "function"
        },
        {
            "inputs": [
                {
                    "internalType": "address",
                    "name": "_initialGovernance",
                    "type": "address"
                }
            ],
            "name": "initialise",
            "outputs": [],
            "stateMutability": "nonpayable",
            "type": "function"
        },
        {
            "inputs": [
                {
                    "internalType": "address",
                    "name": "_addressUpdater",
                    "type": "address"
                }
            ],
            "name": "initialiseRegistry",
            "outputs": [],
            "stateMutability": "nonpayable",
            "type": "function"
        },
        {
            "inputs": [],
            "name": "productionMode",
            "outputs": [
                {
                    "internalType": "bool",
                    "name": "",
                    "type": "bool"
                }
            ],
            "stateMutability": "view",
            "type": "function"
        },
        {
            "inputs": [
                {
                    "internalType": "contract IIFtso",
                    "name": "_ftso",
                    "type": "address"
                }
            ],
            "name": "removeFtso",
            "outputs": [],
            "stateMutability": "nonpayable",
            "type": "function"
        },
        {
            "inputs": [],
            "name": "switchToProductionMode",
            "outputs": [],
            "stateMutability": "nonpayable",
            "type": "function"
        },
        {
            "inputs": [
                {
                    "internalType": "bytes4",
                    "name": "",
                    "type": "bytes4"
                }
            ],
            "name": "timelockedCalls",
            "outputs": [
                {
                    "internalType": "uint256",
                    "name": "allowedAfterTimestamp",
                    "type": "uint256"
                },
                {
                    "internalType": "bytes",
                    "name": "encodedCall",
                    "type": "bytes"
                }
            ],
            "stateMutability": "view",
            "type": "function"
        },
        {
            "inputs": [
                {
                    "internalType": "bytes32[]",
                    "name": "_contractNameHashes",
                    "type": "bytes32[]"
                },
                {
                    "internalType": "address[]",
                    "name": "_contractAddresses",
                    "type": "address[]"
                }
            ],
            "name": "updateContractAddresses",
            "outputs": [],
            "stateMutability": "nonpayable",
            "type": "function"
        }
    ],
    "bytecode": "0x60806040523480156200001157600080fd5b5061dead6000620000228162000045565b506001600160a01b038116156200003e576200003e8162000069565b506200012c565b7f714f205b2abd25bef1d06a1af944e38c113fe6160375c4e1d6d5cf28848e771955565b600054600160a01b900460ff1615620000c9576040805162461bcd60e51b815260206004820152601460248201527f696e697469616c6973656420213d2066616c7365000000000000000000000000604482015290519081900360640190fd5b60008054600160a01b60ff60a01b19909116176001600160a01b0319166001600160a01b03831690811790915560408051918252517f9789733827840833afc031fb2ef9ab6894271f77bad2085687cf4ae5c7bee4db916020908290030190a150565b612f5f806200013c6000396000f3fe608060405234801561001057600080fd5b50600436106102115760003560e01c8063798aac5b11610125578063c55d0f56116100ad578063e17f212e1161007c578063e17f212e146104a2578063e68f283b146104b7578063e848da30146104cd578063f5a98383146104e0578063ffc880fd146104e857610211565b8063c55d0f5614610447578063c71a1b201461045a578063ce1c0e4d1461047a578063d75f6d811461048f57610211565b80639d6a890f116100f45780639d6a890f146103f3578063a40060ba14610406578063a670ff871461040e578063a69afdc614610421578063b00c0b761461043457610211565b8063798aac5b1461039857806379d5ea4b146103ad57806397da6af4146103c05780639cb47538146103d357610211565b80635267a15d116101a857806362354e031161017757806362354e031461033257806367fc40291461033a5780636ba31fa11461034d57806374e6310e146103605780637687542c1461038157610211565b80635267a15d146102f857806358f9296f146103005780635aa6e675146103155780635ff270791461031d57610211565b8063257cbd3a116101e4578063257cbd3a146102805780632663f1b4146102a25780632bcdd6ab146102c257806342a0f243146102d757610211565b806306a2ba29146102165780630cf484971461023557806311a7aaaa1461024b578063136d3f6414610260575b600080fd5b61021e6104fb565b60405161022c929190612d2d565b60405180910390f35b61023d61050f565b60405161022c929190612c9e565b610253610625565b60405161022c9190612bdd565b61027361026e366004612a68565b610634565b60405161022c9190612db3565b61029361028e366004612a68565b6106b9565b60405161022c93929190612e51565b6102b56102b03660046127bc565b610744565b60405161022c9190612e21565b6102ca6108d5565b60405161022c9190612c78565b6102ea6102e53660046129cd565b610991565b60405161022c929190612e43565b610253610a15565b610308610a3a565b60405161022c9190612cc3565b610253610a5c565b61033061032b3660046129a5565b610af1565b005b610253610e46565b6103306103483660046129a5565b610e51565b61030861035b366004612916565b610f39565b61037361036e3660046129a5565b610fe7565b60405161022c929190612e2a565b61038961108d565b60405161022c93929190612d65565b6103a06111a6565b60405161022c9190612d1a565b6103086103bb36600461288e565b6111b6565b6102536103ce3660046129cd565b611302565b6103e66103e1366004612916565b61130d565b60405161022c9190612bf1565b6103306104013660046127bc565b611491565b6102ca61154a565b61033061041c3660046127bc565b611554565b61029361042f3660046129cd565b6116fc565b6103306104423660046127d8565b61170a565b6102ea610455366004612a68565b6117b5565b61046d610468366004612a68565b6117c1565b60405161022c9190612c3e565b6104826118a7565b60405161022c9190612c8b565b61025361049d366004612a68565b6119be565b6104aa6119c9565b60405161022c9190612da8565b6104bf6119d9565b60405161022c929190612d40565b6102b56104db3660046129cd565b611af2565b610330611afd565b6103306104f63660046127bc565b611bb7565b606080610506611c55565b90939092509050565b60608061051a611c55565b80519092509050806001600160401b038111801561053757600080fd5b5060405190808252806020026020018201604052801561056b57816020015b60608152602001906001900390816105565790505b5092505b8015610620578060019003905081818151811061058857fe5b60200260200101516001600160a01b03166395d89b416040518163ffffffff1660e01b815260040160006040518083038186803b1580156105c857600080fd5b505afa1580156105dc573d6000803e3d6000fd5b505050506040513d6000823e601f3d908101601f1916820160405261060491908101906129ff565b83828151811061061057fe5b602002602001018190525061056f565b509091565b6004546001600160a01b031681565b606061063f82611e8f565b6001600160a01b03166395d89b416040518163ffffffff1660e01b815260040160006040518083038186803b15801561067757600080fd5b505afa15801561068b573d6000803e3d6000fd5b505050506040513d6000823e601f3d908101601f191682016040526106b391908101906129ff565b92915050565b60008060006106c784611e8f565b6001600160a01b03166365f5cd866040518163ffffffff1660e01b815260040160606040518083038186803b1580156106ff57600080fd5b505afa158015610713573d6000803e3d6000fd5b505050506040513d601f19601f820116820180604052508101906107379190612aa3565b9250925092509193909250565b6004546040805180820190915260118152704654534f206d616e61676572206f6e6c7960781b60208201526000916001600160a01b031633146107a35760405162461bcd60e51b815260040161079a9190612db3565b60405180910390fd5b506000826001600160a01b03166395d89b416040518163ffffffff1660e01b815260040160006040518083038186803b1580156107df57600080fd5b505afa1580156107f3573d6000803e3d6000fd5b505050506040513d6000823e601f3d908101601f1916820160405261081b91908101906129ff565b905060038160405161082d9190612bc1565b90815260200160405180910390205491508160001415610884576002805490509150816001016003826040516108639190612bc1565b90815260405190819003602001902055600280546001018155600052610893565b60018203915061089382611f40565b82600283815481106108a157fe5b6000918252602082206005909102010180546001600160a01b0319166001600160a01b039290921691909117905550919050565b6002546060906000816001600160401b03811180156108f357600080fd5b5060405190808252806020026020018201604052801561091d578160200160208202803683370190505b5090505b811561098b57816001900391506002828154811061093b57fe5b600091825260208220600590910201015481516001600160a01b039091169082908490811061096657fe5b60200260200101906001600160a01b031690816001600160a01b031681525050610921565b91505090565b60008061099d83611fcf565b6001600160a01b031663eb91d37e6040518163ffffffff1660e01b8152600401604080518083038186803b1580156109d457600080fd5b505afa1580156109e8573d6000803e3d6000fd5b505050506040513d601f19601f82011682018060405250810190610a0c9190612a80565b91509150915091565b7f714f205b2abd25bef1d06a1af944e38c113fe6160375c4e1d6d5cf28848e77195490565b6060600080610a47611c55565b91509150610a55828261200b565b9250505090565b60008054600160a81b900460ff16610a7f576000546001600160a01b0316610aec565b60076001609c1b016001600160a01b031663732524946040518163ffffffff1660e01b815260040160206040518083038186803b158015610abf57600080fd5b505afa158015610ad3573d6000803e3d6000fd5b505050506040513d6020811015610ae957600080fd5b50515b905090565b60408051630debfda360e41b8152336004820152905160076001609c1b019163debfda30916024808301926020929190829003018186803b158015610b3557600080fd5b505afa158015610b49573d6000803e3d6000fd5b505050506040513d6020811015610b5f57600080fd5b5051610ba2576040805162461bcd60e51b815260206004820152600d60248201526c37b7363c9032bc32b1baba37b960991b604482015290519081900360640190fd5b6001600160e01b0319811660009081526001602052604090208054610c0e576040805162461bcd60e51b815260206004820152601a60248201527f74696d656c6f636b3a20696e76616c69642073656c6563746f72000000000000604482015290519081900360640190fd5b8054421015610c64576040805162461bcd60e51b815260206004820152601960248201527f74696d656c6f636b3a206e6f7420616c6c6f7765642079657400000000000000604482015290519081900360640190fd5b6000816001018054600181600116156101000203166002900480601f016020809104026020016040519081016040528092919081815260200182805460018160011615610100020316600290048015610cfe5780601f10610cd357610100808354040283529160200191610cfe565b820191906000526020600020905b815481529060010190602001808311610ce157829003601f168201915b5050506001600160e01b0319861660009081526001602081905260408220828155949550909250610d3291508301826125d0565b50506000805460ff60b01b1916600160b01b178155604051825130918491819060208401908083835b60208310610d7a5780518252601f199092019160209182019101610d5b565b6001836020036101000a0380198251168184511680821785525050505050509050019150506000604051808303816000865af19150503d8060008114610ddc576040519150601f19603f3d011682016040523d82523d6000602084013e610de1565b606091505b50506000805460ff60b01b19169055604080516001600160e01b03198716815242602082015281519293507fa7326b57fc9cfe267aaea5e7f0b01757154d265620a0585819416ee9ddd2c438929081900390910190a1610e4081612182565b50505050565b60076001609c1b0181565b610e5961219f565b6001600160e01b03198116600090815260016020526040902054610ec4576040805162461bcd60e51b815260206004820152601a60248201527f74696d656c6f636b3a20696e76616c69642073656c6563746f72000000000000604482015290519081900360640190fd5b604080516001600160e01b03198316815242602082015281517f7735b2391c38a81419c513e30ca578db7158eadd7101511b23e221c654d19cf8929181900390910190a16001600160e01b03198116600090815260016020819052604082208281559190610f34908301826125d0565b505050565b6060600082516001600160401b0381118015610f5457600080fd5b50604051908082528060200260200182016040528015610f7e578160200160208202803683370190505b50905060005b8351811015610fd557610fa9848281518110610f9c57fe5b6020026020010151611e8f565b828281518110610fb557fe5b6001600160a01b0390921660209283029190910190910152600101610f84565b50610fe0838261200b565b9392505050565b600160208181526000928352604092839020805481840180548651600296821615610100026000190190911695909504601f810185900485028601850190965285855290949193929091908301828280156110835780601f1061105857610100808354040283529160200191611083565b820191906000526020600020905b81548152906001019060200180831161106657829003601f168201915b5050505050905082565b606080606061109a611c55565b81519194509150806001600160401b03811180156110b757600080fd5b506040519080825280602002602001820160405280156110eb57816020015b60608152602001906001900390816110d65790505b5092505b80156111a0578060019003905081818151811061110857fe5b60200260200101516001600160a01b03166395d89b416040518163ffffffff1660e01b815260040160006040518083038186803b15801561114857600080fd5b505afa15801561115c573d6000803e3d6000fd5b505050506040513d6000823e601f3d908101601f1916820160405261118491908101906129ff565b83828151811061119057fe5b60200260200101819052506110ef565b50909192565b60606111b0611c55565b50919050565b6060600082516001600160401b03811180156111d157600080fd5b506040519080825280602002602001820160405280156111fb578160200160208202803683370190505b509050600083516001600160401b038111801561121757600080fd5b50604051908082528060200260200182016040528015611241578160200160208202803683370190505b50905060005b84518110156112ef5761126c85828151811061125f57fe5b6020026020010151612200565b83828151811061127857fe5b602002602001018181525050600283828151811061129257fe5b6020026020010151815481106112a457fe5b600091825260208220600590910201015482516001600160a01b03909116908390839081106112cf57fe5b6001600160a01b0390921660209283029190910190910152600101611247565b506112fa828261200b565b949350505050565b60006106b382611fcf565b600254815160609190806001600160401b038111801561132c57600080fd5b50604051908082528060200260200182016040528015611356578160200160208202803683370190505b5092505b801561148a5780600190039050600084828151811061137557fe5b60200260200101519050828110604051806040016040528060188152602001600080516020612f0a833981519152815250906113c45760405162461bcd60e51b815260040161079a9190612db3565b50600281815481106113d257fe5b600091825260208220600590910201015484516001600160a01b03909116908590849081106113fd57fe5b60200260200101906001600160a01b031690816001600160a01b03168152505060006001600160a01b031684838151811061143457fe5b60200260200101516001600160a01b031614156114845760408051808201825260188152600080516020612f0a8339815191526020820152905162461bcd60e51b815261079a9190600401612db3565b5061135a565b5050919050565b600054600160a01b900460ff16156114e7576040805162461bcd60e51b8152602060048201526014602482015273696e697469616c6973656420213d2066616c736560601b604482015290519081900360640190fd5b60008054600160a01b60ff60a01b19909116176001600160a01b0319166001600160a01b03831690811790915560408051918252517f9789733827840833afc031fb2ef9ab6894271f77bad2085687cf4ae5c7bee4db916020908290030190a150565b60606106b3611c55565b6004546040805180820190915260118152704654534f206d616e61676572206f6e6c7960781b6020820152906001600160a01b031633146115a85760405162461bcd60e51b815260040161079a9190612db3565b506000816001600160a01b03166395d89b416040518163ffffffff1660e01b815260040160006040518083038186803b1580156115e457600080fd5b505afa1580156115f8573d6000803e3d6000fd5b505050506040513d6000823e601f3d908101601f1916820160405261162091908101906129ff565b905060006003826040516116349190612bc1565b90815260405190819003602001902054905080156116c0576000190161165981611f40565b60006002828154811061166857fe5b6000918252602082206005909102010180546001600160a01b0319166001600160a01b03929092169190911790556040516003906116a7908490612bc1565b90815260200160405180910390206000905550506116f9565b60408051808201825260188152600080516020612f0a8339815191526020820152905162461bcd60e51b815261079a9190600401612db3565b50565b60008060006106c784611fcf565b611712610a15565b6001600160a01b0316336001600160a01b03161461176e576040805162461bcd60e51b815260206004820152601460248201527337b7363c9030b2323932b9b9903ab83230ba32b960611b604482015290519081900360640190fd5b6117a76117a283836040518060400160405280600e81526020016d20b2323932b9b9aab83230ba32b960911b815250612275565b6123a2565b6117b182826123c6565b5050565b60008061099d83611e8f565b6117c9612614565b6002548210801561180a575060006001600160a01b0316600283815481106117ed57fe5b60009182526020822060059091020101546001600160a01b031614155b604051806040016040528060188152602001600080516020612f0a8339815191528152509061184c5760405162461bcd60e51b815260040161079a9190612db3565b506002828154811061185a57fe5b600091825260209091206040805160a0810191829052926005908102909201919082845b81546001600160a01b0316815260019091019060200180831161187e5750505050509050919050565b606060006118b3611c55565b80519092509050806001600160401b03811180156118d057600080fd5b5060405190808252806020026020018201604052801561190457816020015b60608152602001906001900390816118ef5790505b5092505b80156119b9578060019003905081818151811061192157fe5b60200260200101516001600160a01b03166395d89b416040518163ffffffff1660e01b815260040160006040518083038186803b15801561196157600080fd5b505afa158015611975573d6000803e3d6000fd5b505050506040513d6000823e601f3d908101601f1916820160405261199d91908101906129ff565b8382815181106119a957fe5b6020026020010181905250611908565b505090565b60006106b382611e8f565b600054600160a81b900460ff1681565b60608060606119e6611c55565b81519194509150806001600160401b0381118015611a0357600080fd5b50604051908082528060200260200182016040528015611a3757816020015b6060815260200190600190039081611a225790505b5092505b8015611aec5780600190039050818181518110611a5457fe5b60200260200101516001600160a01b03166395d89b416040518163ffffffff1660e01b815260040160006040518083038186803b158015611a9457600080fd5b505afa158015611aa8573d6000803e3d6000fd5b505050506040513d6000823e601f3d908101601f19168201604052611ad091908101906129ff565b838281518110611adc57fe5b6020026020010181905250611a3b565b50509091565b60006106b382612200565b611b0561219f565b600054600160a81b900460ff1615611b64576040805162461bcd60e51b815260206004820152601a60248201527f616c726561647920696e2070726f64756374696f6e206d6f6465000000000000604482015290519081900360640190fd5b60008054600161ff0160a01b031916600160a81b1790556040805160076001609c1b01815290517f83af113638b5422f9e977cebc0aaf0eaf2188eb9a8baae7f9d46c42b33a1560c9181900360200190a1565b600054600160b01b900460ff1680611bd95750600054600160a81b900460ff16155b15611c4a57611be6612418565b6000611bf0610a15565b6001600160a01b031614611c165760405162461bcd60e51b815260040161079a90612dc6565b6001600160a01b038116611c3c5760405162461bcd60e51b815260040161079a90612df3565b611c45816123a2565b6116f9565b6116f960003661244d565b60025460609081906000816001600160401b0381118015611c7557600080fd5b50604051908082528060200260200182016040528015611c9f578160200160208202803683370190505b5090506000826001600160401b0381118015611cba57600080fd5b50604051908082528060200260200182016040528015611ce4578160200160208202803683370190505b50905060008060005b85811015611d8057600060028281548110611d0457fe5b60009182526020822060059091020101546001600160a01b03908116915084168114611d775781868481518110611d3757fe5b60200260200101818152505080858481518110611d5057fe5b60200260200101906001600160a01b031690816001600160a01b0316815250508260010192505b50600101611ced565b50806001600160401b0381118015611d9757600080fd5b50604051908082528060200260200182016040528015611dc1578160200160208202803683370190505b509650806001600160401b0381118015611dda57600080fd5b50604051908082528060200260200182016040528015611e04578160200160208202803683370190505b5095505b8015611e865780600190039050838181518110611e2157fe5b6020026020010151878281518110611e3557fe5b602002602001018181525050828181518110611e4d57fe5b6020026020010151868281518110611e6157fe5b60200260200101906001600160a01b031690816001600160a01b031681525050611e08565b50505050509091565b6002546040805180820190915260188152600080516020612f0a83398151915260208201526000918310611ed65760405162461bcd60e51b815260040161079a9190612db3565b50600060028381548110611ee657fe5b60009182526020822060059091020101546001600160a01b03169050806106b35760408051808201825260188152600080516020612f0a8339815191526020820152905162461bcd60e51b815261079a9190600401612db3565b60045b80156117b15760028281548110611f5657fe5b90600052602060002090600502016001820360058110611f7257fe5b0154600280546001600160a01b039092169184908110611f8e57fe5b90600052602060002090600502018260058110611fa757fe5b0180546001600160a01b0319166001600160a01b039290921691909117905560001901611f43565b600080611fdb83612200565b905060028181548110611fea57fe5b60009182526020822060059091020101546001600160a01b03169392505050565b8051606090806001600160401b038111801561202657600080fd5b5060405190808252806020026020018201604052801561206057816020015b61204d612632565b8152602001906001900390816120455790505b50915060005b8181101561217a5784818151811061207a57fe5b602002602001015183828151811061208e57fe5b602002602001015160000181815250508381815181106120aa57fe5b60200260200101516001600160a01b03166365f5cd866040518163ffffffff1660e01b815260040160606040518083038186803b1580156120ea57600080fd5b505afa1580156120fe573d6000803e3d6000fd5b505050506040513d601f19601f820116820180604052508101906121229190612aa3565b85848151811061212e57fe5b602002602001015160200186858151811061214557fe5b602002602001015160600187868151811061215c57fe5b60209081029190910101516040019290925291905252600101612066565b505092915050565b3d604051818101604052816000823e821561219b578181f35b8181fd5b6121a7610a5c565b6001600160a01b0316336001600160a01b0316146121fe576040805162461bcd60e51b815260206004820152600f60248201526e6f6e6c7920676f7665726e616e636560881b604482015290519081900360640190fd5b565b6000806003836040516122139190612bc1565b908152602001604051809103902054905060008111604051806040016040528060188152602001600080516020612f0a8339815191528152509061226a5760405162461bcd60e51b815260040161079a9190612db3565b506000190192915050565b600080826040516020018080602001828103825283818151815260200191508051906020019080838360005b838110156122b95781810151838201526020016122a1565b50505050905090810190601f1680156122e65780820380516001836020036101000a031916815260200191505b50925050506040516020818303038152906040528051906020012090506000805b865181101561234e5786818151811061231c57fe5b60200260200101518314156123465785818151811061233757fe5b6020026020010151915061234e565b600101612307565b506001600160a01b038116612399576040805162461bcd60e51b815260206004820152600c60248201526b61646472657373207a65726f60a01b604482015290519081900360640190fd5b95945050505050565b7f714f205b2abd25bef1d06a1af944e38c113fe6160375c4e1d6d5cf28848e771955565b6123f482826040518060400160405280600b81526020016a233a39b7a6b0b730b3b2b960a91b815250612275565b600480546001600160a01b0319166001600160a01b03929092169190911790555050565b600054600160b01b900460ff16156124455733301461243357fe5b6000805460ff60b01b191690556121fe565b6121fe61219f565b61245561219f565b600082359050600060076001609c1b016001600160a01b0316636221a54b6040518163ffffffff1660e01b815260040160206040518083038186803b15801561249d57600080fd5b505afa1580156124b1573d6000803e3d6000fd5b505050506040513d60208110156124c757600080fd5b505160408051808201825242830180825282516020601f89018190048102820181019094528781529394509290918281019190889088908190840183828082843760009201829052509390945250506001600160e01b0319861681526001602081815260409092208451815584830151805191945061254b9392850192019061265a565b509050507fed948300a3694aa01d4a6b258bfd664350193d770c0b51f8387277f6d83ea3b68382878760405180856001600160e01b0319168152602001848152602001806020018281038252848482818152602001925080828437600083820152604051601f909101601f191690920182900397509095505050505050a15050505050565b50805460018160011615610100020316600290046000825580601f106125f657506116f9565b601f0160209004906000526020600020908101906116f991906126e6565b6040518060a001604052806005906020820280368337509192915050565b6040518060800160405280600081526020016000815260200160008152602001600081525090565b828054600181600116156101000203166002900490600052602060002090601f01602090048101928261269057600085556126d6565b82601f106126a957805160ff19168380011785556126d6565b828001600101855582156126d6579182015b828111156126d65782518255916020019190600101906126bb565b506126e29291506126e6565b5090565b5b808211156126e257600081556001016126e7565b600082601f83011261270b578081fd5b8135602061272061271b83612e8a565b612e67565b828152818101908583018385028701840188101561273c578586fd5b855b8581101561276357813561275181612ef4565b8452928401929084019060010161273e565b5090979650505050505050565b600082601f830112612780578081fd5b813561278e61271b82612ea7565b8181528460208386010111156127a2578283fd5b816020850160208301379081016020019190915292915050565b6000602082840312156127cd578081fd5b8135610fe081612ef4565b600080604083850312156127ea578081fd5b82356001600160401b0380821115612800578283fd5b818501915085601f830112612813578283fd5b8135602061282361271b83612e8a565b82815281810190858301838502870184018b101561283f578788fd5b8796505b84871015612861578035835260019690960195918301918301612843565b5096505086013592505080821115612877578283fd5b50612884858286016126fb565b9150509250929050565b600060208083850312156128a0578182fd5b82356001600160401b038111156128b5578283fd5b8301601f810185136128c5578283fd5b80356128d361271b82612e8a565b81815283810190838501865b84811015612908576128f68a888435890101612770565b845292860192908601906001016128df565b509098975050505050505050565b60006020808385031215612928578182fd5b82356001600160401b0381111561293d578283fd5b8301601f8101851361294d578283fd5b803561295b61271b82612e8a565b8181528381019083850185840285018601891015612977578687fd5b8694505b8385101561299957803583526001949094019391850191850161297b565b50979650505050505050565b6000602082840312156129b6578081fd5b81356001600160e01b031981168114610fe0578182fd5b6000602082840312156129de578081fd5b81356001600160401b038111156129f3578182fd5b6112fa84828501612770565b600060208284031215612a10578081fd5b81516001600160401b03811115612a25578182fd5b8201601f81018413612a35578182fd5b8051612a4361271b82612ea7565b818152856020838501011115612a57578384fd5b612399826020830160208601612ec8565b600060208284031215612a79578081fd5b5035919050565b60008060408385031215612a92578182fd5b505080516020909101519092909150565b600080600060608486031215612ab7578081fd5b8351925060208401519150604084015190509250925092565b6000815180845260208085019450808401835b83811015612b085781516001600160a01b031687529582019590820190600101612ae3565b509495945050505050565b6000815180845260208085018081965082840281019150828601855b85811015612b59578284038952612b47848351612b95565b98850198935090840190600101612b2f565b5091979650505050505050565b6000815180845260208085019450808401835b83811015612b0857815187529582019590820190600101612b79565b60008151808452612bad816020860160208601612ec8565b601f01601f19169290920160200192915050565b60008251612bd3818460208701612ec8565b9190910192915050565b6001600160a01b0391909116815260200190565b6020808252825182820181905260009190848201906040850190845b81811015612c325783516001600160a01b031683529284019291840191600101612c0d565b50909695505050505050565b60a08101818360005b6005811015612c6f5781516001600160a01b0316835260209283019290910190600101612c47565b50505092915050565b600060208252610fe06020830184612ad0565b600060208252610fe06020830184612b13565b600060408252612cb16040830185612b13565b82810360208401526123998185612ad0565b602080825282518282018190526000919060409081850190868401855b82811015612b5957815180518552868101518786015285810151868601526060908101519085015260809093019290850190600101612ce0565b600060208252610fe06020830184612b66565b600060408252612cb16040830185612b66565b600060408252612d536040830185612b66565b82810360208401526123998185612b13565b600060608252612d786060830186612b66565b8281036020840152612d8a8186612b13565b90508281036040840152612d9e8185612ad0565b9695505050505050565b901515815260200190565b600060208252610fe06020830184612b95565b602080825260139082015272185b1c9958591e481a5b9a5d1a585b1a5e9959606a1b604082015260600190565b6020808252601490820152735f6164647265737355706461746572207a65726f60601b604082015260600190565b90815260200190565b6000838252604060208301526112fa6040830184612b95565b918252602082015260400190565b9283526020830191909152604082015260600190565b6040518181016001600160401b0381118282101715612e8257fe5b604052919050565b60006001600160401b03821115612e9d57fe5b5060209081020190565b60006001600160401b03821115612eba57fe5b50601f01601f191660200190565b60005b83811015612ee3578181015183820152602001612ecb565b83811115610e405750506000910152565b6001600160a01b03811681146116f957600080fdfe4654534f20696e646578206e6f7420737570706f727465640000000000000000a26469706673582212203ea575e3b4255b80fce2df02fff5c32bf6a1c6f424594cec2cbb724d83ad40cd64736f6c63430007060033",
    "linkReferences": {},
    "deployedLinkReferences": {}
}