{
  "_format": "hh-sol-artifact-1",
  "contractName": "MockFtsoRegistry",
  "sourceName": "contracts/ftso/priceProviderMockContracts/PriceProviderMockContracts.sol",
  "abi": [
    {
      "inputs": [
        {
          "internalType": "address",
          "name": "_governance",
          "type": "address"
        }
      ],
      "stateMutability": "nonpayable",
      "type": "constructor"
    },
    {
      "anonymous": false,
      "inputs": [
        {
          "indexed": false,
          "internalType": "address",
          "name": "proposedGovernance",
          "type": "address"
        }
      ],
      "name": "GovernanceProposed",
      "type": "event"
    },
    {
      "anonymous": false,
      "inputs": [
        {
          "indexed": false,
          "internalType": "address",
          "name": "oldGovernance",
          "type": "address"
        },
        {
          "indexed": false,
          "internalType": "address",
          "name": "newGoveranance",
          "type": "address"
        }
      ],
      "name": "GovernanceUpdated",
      "type": "event"
    },
    {
      "inputs": [
        {
          "internalType": "contract IIFtso",
          "name": "_ftsoContract",
          "type": "address"
        }
      ],
      "name": "addFtso",
      "outputs": [
        {
          "internalType": "uint256",
          "name": "_assetIndex",
          "type": "uint256"
        }
      ],
      "stateMutability": "nonpayable",
      "type": "function"
    },
    {
      "inputs": [],
      "name": "claimGovernance",
      "outputs": [],
      "stateMutability": "nonpayable",
      "type": "function"
    },
    {
      "inputs": [],
      "name": "getAllCurrentPrices",
      "outputs": [
        {
          "components": [
            {
              "internalType": "uint256",
              "name": "ftsoIndex",
              "type": "uint256"
            },
            {
              "internalType": "uint256",
              "name": "price",
              "type": "uint256"
            },
            {
              "internalType": "uint256",
              "name": "decimals",
              "type": "uint256"
            },
            {
              "internalType": "uint256",
              "name": "timestamp",
              "type": "uint256"
            }
          ],
          "internalType": "struct IFtsoRegistry.PriceInfo[]",
          "name": "",
          "type": "tuple[]"
        }
      ],
      "stateMutability": "view",
      "type": "function"
    },
    {
      "inputs": [],
      "name": "getAllFtsos",
      "outputs": [
        {
          "internalType": "contract IIFtso[]",
          "name": "_ftsos",
          "type": "address[]"
        }
      ],
      "stateMutability": "view",
      "type": "function"
    },
    {
      "inputs": [
        {
          "internalType": "string",
          "name": "_symbol",
          "type": "string"
        }
      ],
      "name": "getCurrentPrice",
      "outputs": [
        {
          "internalType": "uint256",
          "name": "_price",
          "type": "uint256"
        },
        {
          "internalType": "uint256",
          "name": "_timestamp",
          "type": "uint256"
        }
      ],
      "stateMutability": "view",
      "type": "function"
    },
    {
      "inputs": [
        {
          "internalType": "uint256",
          "name": "_assetIndex",
          "type": "uint256"
        }
      ],
      "name": "getCurrentPrice",
      "outputs": [
        {
          "internalType": "uint256",
          "name": "_price",
          "type": "uint256"
        },
        {
          "internalType": "uint256",
          "name": "_timestamp",
          "type": "uint256"
        }
      ],
      "stateMutability": "view",
      "type": "function"
    },
    {
      "inputs": [
        {
          "internalType": "uint256",
          "name": "_assetIndex",
          "type": "uint256"
        }
      ],
      "name": "getCurrentPriceWithDecimals",
      "outputs": [
        {
          "internalType": "uint256",
          "name": "_price",
          "type": "uint256"
        },
        {
          "internalType": "uint256",
          "name": "_timestamp",
          "type": "uint256"
        },
        {
          "internalType": "uint256",
          "name": "_assetPriceUsdDecimals",
          "type": "uint256"
        }
      ],
      "stateMutability": "view",
      "type": "function"
    },
    {
      "inputs": [
        {
          "internalType": "string",
          "name": "_symbol",
          "type": "string"
        }
      ],
      "name": "getCurrentPriceWithDecimals",
      "outputs": [
        {
          "internalType": "uint256",
          "name": "_price",
          "type": "uint256"
        },
        {
          "internalType": "uint256",
          "name": "_timestamp",
          "type": "uint256"
        },
        {
          "internalType": "uint256",
          "name": "_assetPriceUsdDecimals",
          "type": "uint256"
        }
      ],
      "stateMutability": "view",
      "type": "function"
    },
    {
      "inputs": [
        {
          "internalType": "uint256[]",
          "name": "_indices",
          "type": "uint256[]"
        }
      ],
      "name": "getCurrentPricesByIndices",
      "outputs": [
        {
          "components": [
            {
              "internalType": "uint256",
              "name": "ftsoIndex",
              "type": "uint256"
            },
            {
              "internalType": "uint256",
              "name": "price",
              "type": "uint256"
            },
            {
              "internalType": "uint256",
              "name": "decimals",
              "type": "uint256"
            },
            {
              "internalType": "uint256",
              "name": "timestamp",
              "type": "uint256"
            }
          ],
          "internalType": "struct IFtsoRegistry.PriceInfo[]",
          "name": "",
          "type": "tuple[]"
        }
      ],
      "stateMutability": "view",
      "type": "function"
    },
    {
      "inputs": [
        {
          "internalType": "string[]",
          "name": "_symbols",
          "type": "string[]"
        }
      ],
      "name": "getCurrentPricesBySymbols",
      "outputs": [
        {
          "components": [
            {
              "internalType": "uint256",
              "name": "ftsoIndex",
              "type": "uint256"
            },
            {
              "internalType": "uint256",
              "name": "price",
              "type": "uint256"
            },
            {
              "internalType": "uint256",
              "name": "decimals",
              "type": "uint256"
            },
            {
              "internalType": "uint256",
              "name": "timestamp",
              "type": "uint256"
            }
          ],
          "internalType": "struct IFtsoRegistry.PriceInfo[]",
          "name": "",
          "type": "tuple[]"
        }
      ],
      "stateMutability": "view",
      "type": "function"
    },
    {
      "inputs": [
        {
          "internalType": "uint256",
          "name": "_assetIndex",
          "type": "uint256"
        }
      ],
      "name": "getFtso",
      "outputs": [
        {
          "internalType": "contract IIFtso",
          "name": "_activeFtso",
          "type": "address"
        }
      ],
      "stateMutability": "view",
      "type": "function"
    },
    {
      "inputs": [
        {
          "internalType": "string",
          "name": "_symbol",
          "type": "string"
        }
      ],
      "name": "getFtsoBySymbol",
      "outputs": [
        {
          "internalType": "contract IIFtso",
          "name": "_activeFtso",
          "type": "address"
        }
      ],
      "stateMutability": "view",
      "type": "function"
    },
    {
      "inputs": [
        {
          "internalType": "uint256",
          "name": "_assetIndex",
          "type": "uint256"
        }
      ],
      "name": "getFtsoHistory",
      "outputs": [
        {
          "internalType": "contract IIFtso[5]",
          "name": "_ftsoAddressHistory",
          "type": "address[5]"
        }
      ],
      "stateMutability": "view",
      "type": "function"
    },
    {
      "inputs": [
        {
          "internalType": "string",
          "name": "_symbol",
          "type": "string"
        }
      ],
      "name": "getFtsoIndex",
      "outputs": [
        {
          "internalType": "uint256",
          "name": "_assetIndex",
          "type": "uint256"
        }
      ],
      "stateMutability": "view",
      "type": "function"
    },
    {
      "inputs": [
        {
          "internalType": "uint256",
          "name": "_assetIndex",
          "type": "uint256"
        }
      ],
      "name": "getFtsoSymbol",
      "outputs": [
        {
          "internalType": "string",
          "name": "_symbol",
          "type": "string"
        }
      ],
      "stateMutability": "view",
      "type": "function"
    },
    {
      "inputs": [
        {
          "internalType": "uint256[]",
          "name": "_assetIndices",
          "type": "uint256[]"
        }
      ],
      "name": "getFtsos",
      "outputs": [
        {
          "internalType": "contract IFtsoGenesis[]",
          "name": "_ftsos",
          "type": "address[]"
        }
      ],
      "stateMutability": "view",
      "type": "function"
    },
    {
      "inputs": [],
      "name": "getSupportedFtsos",
      "outputs": [
        {
          "internalType": "contract IIFtso[]",
          "name": "_ftsos",
          "type": "address[]"
        }
      ],
      "stateMutability": "view",
      "type": "function"
    },
    {
      "inputs": [],
      "name": "getSupportedIndices",
      "outputs": [
        {
          "internalType": "uint256[]",
          "name": "_supportedIndices",
          "type": "uint256[]"
        }
      ],
      "stateMutability": "view",
      "type": "function"
    },
    {
      "inputs": [],
      "name": "getSupportedIndicesAndFtsos",
      "outputs": [
        {
          "internalType": "uint256[]",
          "name": "_supportedIndices",
          "type": "uint256[]"
        },
        {
          "internalType": "contract IIFtso[]",
          "name": "_ftsos",
          "type": "address[]"
        }
      ],
      "stateMutability": "view",
      "type": "function"
    },
    {
      "inputs": [],
      "name": "getSupportedIndicesAndSymbols",
      "outputs": [
        {
          "internalType": "uint256[]",
          "name": "_supportedIndices",
          "type": "uint256[]"
        },
        {
          "internalType": "string[]",
          "name": "_supportedSymbols",
          "type": "string[]"
        }
      ],
      "stateMutability": "view",
      "type": "function"
    },
    {
      "inputs": [],
      "name": "getSupportedIndicesSymbolsAndFtsos",
      "outputs": [
        {
          "internalType": "uint256[]",
          "name": "_supportedIndices",
          "type": "uint256[]"
        },
        {
          "internalType": "string[]",
          "name": "_supportedSymbols",
          "type": "string[]"
        },
        {
          "internalType": "contract IIFtso[]",
          "name": "_ftsos",
          "type": "address[]"
        }
      ],
      "stateMutability": "view",
      "type": "function"
    },
    {
      "inputs": [],
      "name": "getSupportedSymbols",
      "outputs": [
        {
          "internalType": "string[]",
          "name": "_supportedSymbols",
          "type": "string[]"
        }
      ],
      "stateMutability": "view",
      "type": "function"
    },
    {
      "inputs": [],
      "name": "getSupportedSymbolsAndFtsos",
      "outputs": [
        {
          "internalType": "string[]",
          "name": "_supportedSymbols",
          "type": "string[]"
        },
        {
          "internalType": "contract IIFtso[]",
          "name": "_ftsos",
          "type": "address[]"
        }
      ],
      "stateMutability": "view",
      "type": "function"
    },
    {
      "inputs": [],
      "name": "governance",
      "outputs": [
        {
          "internalType": "address",
          "name": "",
          "type": "address"
        }
      ],
      "stateMutability": "view",
      "type": "function"
    },
    {
      "inputs": [
        {
          "internalType": "address",
          "name": "_governance",
          "type": "address"
        }
      ],
      "name": "initialise",
      "outputs": [],
      "stateMutability": "nonpayable",
      "type": "function"
    },
    {
      "inputs": [
        {
          "internalType": "address",
          "name": "_governance",
          "type": "address"
        }
      ],
      "name": "proposeGovernance",
      "outputs": [],
      "stateMutability": "nonpayable",
      "type": "function"
    },
    {
      "inputs": [],
      "name": "proposedGovernance",
      "outputs": [
        {
          "internalType": "address",
          "name": "",
          "type": "address"
        }
      ],
      "stateMutability": "view",
      "type": "function"
    },
    {
      "inputs": [
        {
          "internalType": "contract IIFtso",
          "name": "_ftso",
          "type": "address"
        }
      ],
      "name": "removeFtso",
      "outputs": [],
      "stateMutability": "nonpayable",
      "type": "function"
    },
    {
      "inputs": [
        {
          "internalType": "address",
          "name": "_governance",
          "type": "address"
        }
      ],
      "name": "transferGovernance",
      "outputs": [],
      "stateMutability": "nonpayable",
      "type": "function"
    }
  ],
  "bytecode": "0x60806040523480156200001157600080fd5b50604051620024993803806200249983398101604081905262000034916200018d565b80806001600160a01b0381161562000051576200005181620000a9565b506001600160a01b038116620000a1576040805162461bcd60e51b815260206004820152601060248201526f5f676f7665726e616e6365207a65726f60801b604482015290519081900360640190fd5b5050620001bd565b600154600160a01b900460ff161562000109576040805162461bcd60e51b815260206004820152601460248201527f696e697469616c6973656420213d2066616c7365000000000000000000000000604482015290519081900360640190fd5b6001805460ff60a01b1916600160a01b179055600054604080516001600160a01b039283168152918316602083015280517f434a2db650703b36c824e745330d6397cdaa9ee2cc891a4938ae853e1c50b68d9281900390910190a1600080546001600160a01b039092166001600160a01b0319928316179055600180549091169055565b6000602082840312156200019f578081fd5b81516001600160a01b0381168114620001b6578182fd5b9392505050565b6122cc80620001cd6000396000f3fe608060405234801561001057600080fd5b50600436106101cf5760003560e01c806379d5ea4b11610104578063c373a08e116100a2578063d38bfff411610071578063d38bfff4146103fe578063d75f6d8114610411578063e68f283b14610424578063e848da301461043a576101cf565b8063c373a08e146103a3578063c55d0f56146103b6578063c71a1b20146103c9578063ce1c0e4d146103e9576101cf565b80639d6a890f116100de5780639d6a890f14610362578063a40060ba14610375578063a670ff871461037d578063a69afdc614610390576101cf565b806379d5ea4b1461031c57806397da6af41461032f5780639cb4753814610342576101cf565b806358f9296f1161017157806360f7ac971161014b57806360f7ac97146102d55780636ba31fa1146102dd5780637687542c146102f0578063798aac5b14610307576101cf565b806358f9296f146102a15780635aa6e675146102b65780635d36b190146102cb576101cf565b8063257cbd3a116101ad578063257cbd3a146102295780632663f1b41461024b5780632bcdd6ab1461026b57806342a0f24314610280576101cf565b806306a2ba29146101d45780630cf48497146101f3578063136d3f6414610209575b600080fd5b6101dc61044d565b6040516101ea929190612115565b60405180910390f35b6101fb610461565b6040516101ea929190612086565b61021c610217366004611e50565b610577565b6040516101ea9190612190565b61023c610237366004611e50565b6105fc565b6040516101ea939291906121ba565b61025e610259366004611c79565b610687565b6040516101ea91906121a3565b61027361080a565b6040516101ea9190612060565b61029361028e366004611dac565b6108c6565b6040516101ea9291906121ac565b6102a961094a565b6040516101ea91906120ab565b6102be61096c565b6040516101ea9190611fc5565b6102d361097b565b005b6102be610a3d565b6102a96102eb366004611d1d565b610a4c565b6102f8610afa565b6040516101ea9392919061214d565b61030f610c13565b6040516101ea9190612102565b6102a961032a366004611c95565b610c23565b6102be61033d366004611dac565b610d6f565b610355610350366004611d1d565b610d7a565b6040516101ea9190611fd9565b6102d3610370366004611c79565b610f07565b610273610fe1565b6102d361038b366004611c79565b610feb565b61023c61039e366004611dac565b61118f565b6102d36103b1366004611c79565b61119d565b6102936103c4366004611e50565b611242565b6103dc6103d7366004611e50565b61124e565b6040516101ea9190612026565b6103f1611334565b6040516101ea9190612073565b6102d361040c366004611c79565b61144b565b6102be61041f366004611e50565b61150d565b61042c611518565b6040516101ea929190612128565b61025e610448366004611dac565b611631565b60608061045861163c565b90939092509050565b60608061046c61163c565b80519092509050806001600160401b038111801561048957600080fd5b506040519080825280602002602001820160405280156104bd57816020015b60608152602001906001900390816104a85790505b5092505b801561057257806001900390508181815181106104da57fe5b60200260200101516001600160a01b03166395d89b416040518163ffffffff1660e01b815260040160006040518083038186803b15801561051a57600080fd5b505afa15801561052e573d6000803e3d6000fd5b505050506040513d6000823e601f3d908101601f191682016040526105569190810190611dde565b83828151811061056257fe5b60200260200101819052506104c1565b509091565b606061058282611876565b6001600160a01b03166395d89b416040518163ffffffff1660e01b815260040160006040518083038186803b1580156105ba57600080fd5b505afa1580156105ce573d6000803e3d6000fd5b505050506040513d6000823e601f3d908101601f191682016040526105f69190810190611dde565b92915050565b600080600061060a84611876565b6001600160a01b03166365f5cd866040518163ffffffff1660e01b815260040160606040518083038186803b15801561064257600080fd5b505afa158015610656573d6000803e3d6000fd5b505050506040513d601f19601f8201168201806040525081019061067a9190611e8b565b9250925092509193909250565b600080546001600160a01b031633146106d9576040805162461bcd60e51b815260206004820152600f60248201526e6f6e6c7920676f7665726e616e636560881b604482015290519081900360640190fd5b6000826001600160a01b03166395d89b416040518163ffffffff1660e01b815260040160006040518083038186803b15801561071457600080fd5b505afa158015610728573d6000803e3d6000fd5b505050506040513d6000823e601f3d908101601f191682016040526107509190810190611dde565b90506003816040516107629190611fa9565b908152602001604051809103902054915081600014156107b9576002805490509150816001016003826040516107989190611fa9565b908152604051908190036020019020556002805460010181556000526107c8565b6001820391506107c882611927565b82600283815481106107d657fe5b6000918252602082206005909102010180546001600160a01b0319166001600160a01b039290921691909117905550919050565b6002546060906000816001600160401b038111801561082857600080fd5b50604051908082528060200260200182016040528015610852578160200160208202803683370190505b5090505b81156108c057816001900391506002828154811061087057fe5b600091825260208220600590910201015481516001600160a01b039091169082908490811061089b57fe5b60200260200101906001600160a01b031690816001600160a01b031681525050610856565b91505090565b6000806108d2836119ba565b6001600160a01b031663eb91d37e6040518163ffffffff1660e01b8152600401604080518083038186803b15801561090957600080fd5b505afa15801561091d573d6000803e3d6000fd5b505050506040513d601f19601f820116820180604052508101906109419190611e68565b91509150915091565b606060008061095761163c565b9150915061096582826119f6565b9250505090565b6000546001600160a01b031681565b6001546001600160a01b031633146109ca576040805162461bcd60e51b815260206004820152600d60248201526c1b9bdd0818db185a5b585a5b9d609a1b604482015290519081900360640190fd5b600054600154604080516001600160a01b03938416815292909116602083015280517f434a2db650703b36c824e745330d6397cdaa9ee2cc891a4938ae853e1c50b68d9281900390910190a160018054600080546001600160a01b03199081166001600160a01b03841617909155169055565b6001546001600160a01b031681565b6060600082516001600160401b0381118015610a6757600080fd5b50604051908082528060200260200182016040528015610a91578160200160208202803683370190505b50905060005b8351811015610ae857610abc848281518110610aaf57fe5b6020026020010151611876565b828281518110610ac857fe5b6001600160a01b0390921660209283029190910190910152600101610a97565b50610af383826119f6565b9392505050565b6060806060610b0761163c565b81519194509150806001600160401b0381118015610b2457600080fd5b50604051908082528060200260200182016040528015610b5857816020015b6060815260200190600190039081610b435790505b5092505b8015610c0d5780600190039050818181518110610b7557fe5b60200260200101516001600160a01b03166395d89b416040518163ffffffff1660e01b815260040160006040518083038186803b158015610bb557600080fd5b505afa158015610bc9573d6000803e3d6000fd5b505050506040513d6000823e601f3d908101601f19168201604052610bf19190810190611dde565b838281518110610bfd57fe5b6020026020010181905250610b5c565b50909192565b6060610c1d61163c565b50919050565b6060600082516001600160401b0381118015610c3e57600080fd5b50604051908082528060200260200182016040528015610c68578160200160208202803683370190505b509050600083516001600160401b0381118015610c8457600080fd5b50604051908082528060200260200182016040528015610cae578160200160208202803683370190505b50905060005b8451811015610d5c57610cd9858281518110610ccc57fe5b6020026020010151611b6d565b838281518110610ce557fe5b6020026020010181815250506002838281518110610cff57fe5b602002602001015181548110610d1157fe5b600091825260208220600590910201015482516001600160a01b0390911690839083908110610d3c57fe5b6001600160a01b0390921660209283029190910190910152600101610cb4565b50610d6782826119f6565b949350505050565b60006105f6826119ba565b600254815160609190806001600160401b0381118015610d9957600080fd5b50604051908082528060200260200182016040528015610dc3578160200160208202803683370190505b5092505b8015610f0057806001900390506000848281518110610de257fe5b6020026020010151905082811060405180604001604052806018815260200160008051602061227783398151915281525090610e3a5760405162461bcd60e51b8152600401610e319190612190565b60405180910390fd5b5060028181548110610e4857fe5b600091825260208220600590910201015484516001600160a01b0390911690859084908110610e7357fe5b60200260200101906001600160a01b031690816001600160a01b03168152505060006001600160a01b0316848381518110610eaa57fe5b60200260200101516001600160a01b03161415610efa57604080518082018252601881526000805160206122778339815191526020820152905162461bcd60e51b8152610e319190600401612190565b50610dc7565b5050919050565b600154600160a01b900460ff1615610f5d576040805162461bcd60e51b8152602060048201526014602482015273696e697469616c6973656420213d2066616c736560601b604482015290519081900360640190fd5b6001805460ff60a01b1916600160a01b179055600054604080516001600160a01b039283168152918316602083015280517f434a2db650703b36c824e745330d6397cdaa9ee2cc891a4938ae853e1c50b68d9281900390910190a1600080546001600160a01b039092166001600160a01b0319928316179055600180549091169055565b60606105f661163c565b6000546001600160a01b0316331461103c576040805162461bcd60e51b815260206004820152600f60248201526e6f6e6c7920676f7665726e616e636560881b604482015290519081900360640190fd5b6000816001600160a01b03166395d89b416040518163ffffffff1660e01b815260040160006040518083038186803b15801561107757600080fd5b505afa15801561108b573d6000803e3d6000fd5b505050506040513d6000823e601f3d908101601f191682016040526110b39190810190611dde565b905060006003826040516110c79190611fa9565b908152604051908190036020019020549050801561115357600019016110ec81611927565b6000600282815481106110fb57fe5b6000918252602082206005909102010180546001600160a01b0319166001600160a01b039290921691909117905560405160039061113a908490611fa9565b908152602001604051809103902060009055505061118c565b604080518082018252601881526000805160206122778339815191526020820152905162461bcd60e51b8152610e319190600401612190565b50565b600080600061060a846119ba565b6000546001600160a01b031633146111ee576040805162461bcd60e51b815260206004820152600f60248201526e6f6e6c7920676f7665726e616e636560881b604482015290519081900360640190fd5b600180546001600160a01b0383166001600160a01b0319909116811790915560408051918252517f1f95fb40be3a947982072902a887b521248d1d8931a39eb38f84f4d6fd758b699181900360200190a150565b6000806108d283611876565b611256611be2565b60025482108015611297575060006001600160a01b03166002838154811061127a57fe5b60009182526020822060059091020101546001600160a01b031614155b604051806040016040528060188152602001600080516020612277833981519152815250906112d95760405162461bcd60e51b8152600401610e319190612190565b50600282815481106112e757fe5b600091825260209091206040805160a0810191829052926005908102909201919082845b81546001600160a01b0316815260019091019060200180831161130b5750505050509050919050565b6060600061134061163c565b80519092509050806001600160401b038111801561135d57600080fd5b5060405190808252806020026020018201604052801561139157816020015b606081526020019060019003908161137c5790505b5092505b801561144657806001900390508181815181106113ae57fe5b60200260200101516001600160a01b03166395d89b416040518163ffffffff1660e01b815260040160006040518083038186803b1580156113ee57600080fd5b505afa158015611402573d6000803e3d6000fd5b505050506040513d6000823e601f3d908101601f1916820160405261142a9190810190611dde565b83828151811061143657fe5b6020026020010181905250611395565b505090565b6000546001600160a01b0316331461149c576040805162461bcd60e51b815260206004820152600f60248201526e6f6e6c7920676f7665726e616e636560881b604482015290519081900360640190fd5b600054604080516001600160a01b039283168152918316602083015280517f434a2db650703b36c824e745330d6397cdaa9ee2cc891a4938ae853e1c50b68d9281900390910190a1600080546001600160a01b039092166001600160a01b0319928316179055600180549091169055565b60006105f682611876565b606080606061152561163c565b81519194509150806001600160401b038111801561154257600080fd5b5060405190808252806020026020018201604052801561157657816020015b60608152602001906001900390816115615790505b5092505b801561162b578060019003905081818151811061159357fe5b60200260200101516001600160a01b03166395d89b416040518163ffffffff1660e01b815260040160006040518083038186803b1580156115d357600080fd5b505afa1580156115e7573d6000803e3d6000fd5b505050506040513d6000823e601f3d908101601f1916820160405261160f9190810190611dde565b83828151811061161b57fe5b602002602001018190525061157a565b50509091565b60006105f682611b6d565b60025460609081906000816001600160401b038111801561165c57600080fd5b50604051908082528060200260200182016040528015611686578160200160208202803683370190505b5090506000826001600160401b03811180156116a157600080fd5b506040519080825280602002602001820160405280156116cb578160200160208202803683370190505b50905060008060005b85811015611767576000600282815481106116eb57fe5b60009182526020822060059091020101546001600160a01b0390811691508416811461175e578186848151811061171e57fe5b6020026020010181815250508085848151811061173757fe5b60200260200101906001600160a01b031690816001600160a01b0316815250508260010192505b506001016116d4565b50806001600160401b038111801561177e57600080fd5b506040519080825280602002602001820160405280156117a8578160200160208202803683370190505b509650806001600160401b03811180156117c157600080fd5b506040519080825280602002602001820160405280156117eb578160200160208202803683370190505b5095505b801561186d578060019003905083818151811061180857fe5b602002602001015187828151811061181c57fe5b60200260200101818152505082818151811061183457fe5b602002602001015186828151811061184857fe5b60200260200101906001600160a01b031690816001600160a01b0316815250506117ef565b50505050509091565b6002546040805180820190915260188152600080516020612277833981519152602082015260009183106118bd5760405162461bcd60e51b8152600401610e319190612190565b506000600283815481106118cd57fe5b60009182526020822060059091020101546001600160a01b03169050806105f657604080518082018252601881526000805160206122778339815191526020820152905162461bcd60e51b8152610e319190600401612190565b60045b80156119b6576002828154811061193d57fe5b9060005260206000209060050201600182036005811061195957fe5b0154600280546001600160a01b03909216918490811061197557fe5b9060005260206000209060050201826005811061198e57fe5b0180546001600160a01b0319166001600160a01b03929092169190911790556000190161192a565b5050565b6000806119c683611b6d565b9050600281815481106119d557fe5b60009182526020822060059091020101546001600160a01b03169392505050565b8051606090806001600160401b0381118015611a1157600080fd5b50604051908082528060200260200182016040528015611a4b57816020015b611a38611c00565b815260200190600190039081611a305790505b50915060005b81811015611b6557848181518110611a6557fe5b6020026020010151838281518110611a7957fe5b60200260200101516000018181525050838181518110611a9557fe5b60200260200101516001600160a01b03166365f5cd866040518163ffffffff1660e01b815260040160606040518083038186803b158015611ad557600080fd5b505afa158015611ae9573d6000803e3d6000fd5b505050506040513d601f19601f82011682018060405250810190611b0d9190611e8b565b858481518110611b1957fe5b6020026020010151602001868581518110611b3057fe5b6020026020010151606001878681518110611b4757fe5b60209081029190910101516040019290925291905252600101611a51565b505092915050565b600080600383604051611b809190611fa9565b90815260200160405180910390205490506000811160405180604001604052806018815260200160008051602061227783398151915281525090611bd75760405162461bcd60e51b8152600401610e319190612190565b506000190192915050565b6040518060a001604052806005906020820280368337509192915050565b6040518060800160405280600081526020016000815260200160008152602001600081525090565b600082601f830112611c38578081fd5b8135611c4b611c4682612210565b6121d0565b818152846020838601011115611c5f578283fd5b816020850160208301379081016020019190915292915050565b600060208284031215611c8a578081fd5b8135610af381612261565b60006020808385031215611ca7578182fd5b82356001600160401b03811115611cbc578283fd5b8301601f81018513611ccc578283fd5b8035611cda611c46826121f3565b81815283810190838501865b84811015611d0f57611cfd8a888435890101611c28565b84529286019290860190600101611ce6565b509098975050505050505050565b60006020808385031215611d2f578182fd5b82356001600160401b03811115611d44578283fd5b8301601f81018513611d54578283fd5b8035611d62611c46826121f3565b8181528381019083850185840285018601891015611d7e578687fd5b8694505b83851015611da0578035835260019490940193918501918501611d82565b50979650505050505050565b600060208284031215611dbd578081fd5b81356001600160401b03811115611dd2578182fd5b610d6784828501611c28565b600060208284031215611def578081fd5b81516001600160401b03811115611e04578182fd5b8201601f81018413611e14578182fd5b8051611e22611c4682612210565b818152856020838501011115611e36578384fd5b611e47826020830160208601612231565b95945050505050565b600060208284031215611e61578081fd5b5035919050565b60008060408385031215611e7a578081fd5b505080516020909101519092909150565b600080600060608486031215611e9f578081fd5b8351925060208401519150604084015190509250925092565b6000815180845260208085019450808401835b83811015611ef05781516001600160a01b031687529582019590820190600101611ecb565b509495945050505050565b6000815180845260208085018081965082840281019150828601855b85811015611f41578284038952611f2f848351611f7d565b98850198935090840190600101611f17565b5091979650505050505050565b6000815180845260208085019450808401835b83811015611ef057815187529582019590820190600101611f61565b60008151808452611f95816020860160208601612231565b601f01601f19169290920160200192915050565b60008251611fbb818460208701612231565b9190910192915050565b6001600160a01b0391909116815260200190565b6020808252825182820181905260009190848201906040850190845b8181101561201a5783516001600160a01b031683529284019291840191600101611ff5565b50909695505050505050565b60a08101818360005b60058110156120575781516001600160a01b031683526020928301929091019060010161202f565b50505092915050565b600060208252610af36020830184611eb8565b600060208252610af36020830184611efb565b6000604082526120996040830185611efb565b8281036020840152611e478185611eb8565b602080825282518282018190526000919060409081850190868401855b82811015611f41578151805185528681015187860152858101518686015260609081015190850152608090930192908501906001016120c8565b600060208252610af36020830184611f4e565b6000604082526120996040830185611f4e565b60006040825261213b6040830185611f4e565b8281036020840152611e478185611efb565b6000606082526121606060830186611f4e565b82810360208401526121728186611efb565b905082810360408401526121868185611eb8565b9695505050505050565b600060208252610af36020830184611f7d565b90815260200190565b918252602082015260400190565b9283526020830191909152604082015260600190565b6040518181016001600160401b03811182821017156121eb57fe5b604052919050565b60006001600160401b0382111561220657fe5b5060209081020190565b60006001600160401b0382111561222357fe5b50601f01601f191660200190565b60005b8381101561224c578181015183820152602001612234565b8381111561225b576000848401525b50505050565b6001600160a01b038116811461118c57600080fdfe4654534f20696e646578206e6f7420737570706f727465640000000000000000a264697066735822122098822979c1567e3f5937ddf88bfaad2ab053d7ef515ec1d1a49e69b73ca25fa964736f6c63430007060033",
  "linkReferences": {},
  "deployedLinkReferences": {}
}