{
    "_format": "hh-sol-artifact-1",
    "contractName": "MockNpmFtso",
    "sourceName": "contracts/ftso/priceProviderMockContracts/priceProviderMockFtso.sol",
    "abi": [
        {
            "inputs": [
                {
                    "internalType": "string",
                    "name": "_symbol",
                    "type": "string"
                },
                {
                    "internalType": "contract IPriceSubmitter",
                    "name": "_priceSubmitter",
                    "type": "address"
                },
                {
                    "internalType": "uint256",
                    "name": "_firstEpochStartTs",
                    "type": "uint256"
                },
                {
                    "internalType": "uint256",
                    "name": "_submitPeriodSeconds",
                    "type": "uint256"
                },
                {
                    "internalType": "uint256",
                    "name": "_revealPeriodSeconds",
                    "type": "uint256"
                }
            ],
            "stateMutability": "nonpayable",
            "type": "constructor"
        },
        {
            "anonymous": false,
            "inputs": [
                {
                    "indexed": true,
                    "internalType": "uint256",
                    "name": "epochId",
                    "type": "uint256"
                },
                {
                    "indexed": false,
                    "internalType": "uint256",
                    "name": "natTurnout",
                    "type": "uint256"
                },
                {
                    "indexed": false,
                    "internalType": "uint256",
                    "name": "lowNatTurnoutThresholdBIPS",
                    "type": "uint256"
                },
                {
                    "indexed": false,
                    "internalType": "uint256",
                    "name": "timestamp",
                    "type": "uint256"
                }
            ],
            "name": "LowTurnout",
            "type": "event"
        },
        {
            "anonymous": false,
            "inputs": [
                {
                    "indexed": true,
                    "internalType": "uint256",
                    "name": "epochId",
                    "type": "uint256"
                },
                {
                    "indexed": false,
                    "internalType": "uint256",
                    "name": "endTime",
                    "type": "uint256"
                },
                {
                    "indexed": false,
                    "internalType": "uint256",
                    "name": "timestamp",
                    "type": "uint256"
                }
            ],
            "name": "PriceEpochInitializedOnFtso",
            "type": "event"
        },
        {
            "anonymous": false,
            "inputs": [
                {
                    "indexed": true,
                    "internalType": "uint256",
                    "name": "epochId",
                    "type": "uint256"
                },
                {
                    "indexed": false,
                    "internalType": "uint256",
                    "name": "price",
                    "type": "uint256"
                },
                {
                    "indexed": false,
                    "internalType": "bool",
                    "name": "rewardedFtso",
                    "type": "bool"
                },
                {
                    "indexed": false,
                    "internalType": "uint256",
                    "name": "lowIQRRewardPrice",
                    "type": "uint256"
                },
                {
                    "indexed": false,
                    "internalType": "uint256",
                    "name": "highIQRRewardPrice",
                    "type": "uint256"
                },
                {
                    "indexed": false,
                    "internalType": "uint256",
                    "name": "lowElasticBandRewardPrice",
                    "type": "uint256"
                },
                {
                    "indexed": false,
                    "internalType": "uint256",
                    "name": "highElasticBandRewardPrice",
                    "type": "uint256"
                },
                {
                    "indexed": false,
                    "internalType": "enum IFtso.PriceFinalizationType",
                    "name": "finalizationType",
                    "type": "uint8"
                },
                {
                    "indexed": false,
                    "internalType": "uint256",
                    "name": "timestamp",
                    "type": "uint256"
                }
            ],
            "name": "PriceFinalized",
            "type": "event"
        },
        {
            "anonymous": false,
            "inputs": [
                {
                    "indexed": true,
                    "internalType": "address",
                    "name": "submitter",
                    "type": "address"
                },
                {
                    "indexed": true,
                    "internalType": "uint256",
                    "name": "epochId",
                    "type": "uint256"
                },
                {
                    "indexed": false,
                    "internalType": "bytes32",
                    "name": "hash",
                    "type": "bytes32"
                },
                {
                    "indexed": false,
                    "internalType": "uint256",
                    "name": "timestamp",
                    "type": "uint256"
                }
            ],
            "name": "PriceHashSubmitted",
            "type": "event"
        },
        {
            "anonymous": false,
            "inputs": [
                {
                    "indexed": true,
                    "internalType": "address",
                    "name": "voter",
                    "type": "address"
                },
                {
                    "indexed": true,
                    "internalType": "uint256",
                    "name": "epochId",
                    "type": "uint256"
                },
                {
                    "indexed": false,
                    "internalType": "uint256",
                    "name": "price",
                    "type": "uint256"
                },
                {
                    "indexed": false,
                    "internalType": "uint256",
                    "name": "random",
                    "type": "uint256"
                },
                {
                    "indexed": false,
                    "internalType": "uint256",
                    "name": "timestamp",
                    "type": "uint256"
                },
                {
                    "indexed": false,
                    "internalType": "uint256",
                    "name": "votePowerNat",
                    "type": "uint256"
                },
                {
                    "indexed": false,
                    "internalType": "uint256",
                    "name": "votePowerAsset",
                    "type": "uint256"
                }
            ],
            "name": "PriceRevealed",
            "type": "event"
        },
        {
            "inputs": [],
            "name": "ASSET_PRICE_USD_DECIMALS",
            "outputs": [
                {
                    "internalType": "uint256",
                    "name": "",
                    "type": "uint256"
                }
            ],
            "stateMutability": "view",
            "type": "function"
        },
        {
            "inputs": [
                {
                    "internalType": "uint256",
                    "name": "",
                    "type": "uint256"
                },
                {
                    "internalType": "uint256",
                    "name": "",
                    "type": "uint256"
                },
                {
                    "internalType": "uint256",
                    "name": "",
                    "type": "uint256"
                }
            ],
            "name": "activateFtso",
            "outputs": [],
            "stateMutability": "pure",
            "type": "function"
        },
        {
            "inputs": [],
            "name": "active",
            "outputs": [
                {
                    "internalType": "bool",
                    "name": "",
                    "type": "bool"
                }
            ],
            "stateMutability": "view",
            "type": "function"
        },
        {
            "inputs": [
                {
                    "internalType": "uint256",
                    "name": "",
                    "type": "uint256"
                }
            ],
            "name": "assetFtsos",
            "outputs": [
                {
                    "internalType": "contract IIFtso",
                    "name": "",
                    "type": "address"
                }
            ],
            "stateMutability": "view",
            "type": "function"
        },
        {
            "inputs": [
                {
                    "internalType": "uint256",
                    "name": "",
                    "type": "uint256"
                }
            ],
            "name": "assets",
            "outputs": [
                {
                    "internalType": "contract IIVPToken",
                    "name": "",
                    "type": "address"
                }
            ],
            "stateMutability": "view",
            "type": "function"
        },
        {
            "inputs": [
                {
                    "internalType": "uint256",
                    "name": "",
                    "type": "uint256"
                },
                {
                    "internalType": "uint256",
                    "name": "",
                    "type": "uint256"
                },
                {
                    "internalType": "uint256",
                    "name": "",
                    "type": "uint256"
                },
                {
                    "internalType": "uint256",
                    "name": "",
                    "type": "uint256"
                },
                {
                    "internalType": "uint256",
                    "name": "",
                    "type": "uint256"
                },
                {
                    "internalType": "uint256",
                    "name": "",
                    "type": "uint256"
                },
                {
                    "internalType": "uint256",
                    "name": "",
                    "type": "uint256"
                },
                {
                    "internalType": "uint256",
                    "name": "",
                    "type": "uint256"
                },
                {
                    "internalType": "address[]",
                    "name": "",
                    "type": "address[]"
                }
            ],
            "name": "configureEpochs",
            "outputs": [],
            "stateMutability": "pure",
            "type": "function"
        },
        {
            "inputs": [],
            "name": "deactivateFtso",
            "outputs": [],
            "stateMutability": "pure",
            "type": "function"
        },
        {
            "inputs": [],
            "name": "epochsConfiguration",
            "outputs": [
                {
                    "internalType": "uint256",
                    "name": "",
                    "type": "uint256"
                },
                {
                    "internalType": "uint256",
                    "name": "",
                    "type": "uint256"
                },
                {
                    "internalType": "uint256",
                    "name": "",
                    "type": "uint256"
                },
                {
                    "internalType": "uint256",
                    "name": "",
                    "type": "uint256"
                },
                {
                    "internalType": "uint256",
                    "name": "",
                    "type": "uint256"
                },
                {
                    "internalType": "uint256",
                    "name": "",
                    "type": "uint256"
                },
                {
                    "internalType": "uint256",
                    "name": "",
                    "type": "uint256"
                },
                {
                    "internalType": "uint256",
                    "name": "",
                    "type": "uint256"
                },
                {
                    "internalType": "address[]",
                    "name": "",
                    "type": "address[]"
                }
            ],
            "stateMutability": "pure",
            "type": "function"
        },
        {
            "inputs": [
                {
                    "internalType": "uint256",
                    "name": "",
                    "type": "uint256"
                }
            ],
            "name": "fallbackFinalizePriceEpoch",
            "outputs": [],
            "stateMutability": "pure",
            "type": "function"
        },
        {
            "inputs": [
                {
                    "internalType": "uint256",
                    "name": "",
                    "type": "uint256"
                },
                {
                    "internalType": "bool",
                    "name": "",
                    "type": "bool"
                }
            ],
            "name": "finalizePriceEpoch",
            "outputs": [
                {
                    "internalType": "address[]",
                    "name": "",
                    "type": "address[]"
                },
                {
                    "internalType": "uint256[]",
                    "name": "",
                    "type": "uint256[]"
                },
                {
                    "internalType": "uint256",
                    "name": "",
                    "type": "uint256"
                }
            ],
            "stateMutability": "pure",
            "type": "function"
        },
        {
            "inputs": [
                {
                    "internalType": "uint256",
                    "name": "",
                    "type": "uint256"
                }
            ],
            "name": "forceFinalizePriceEpoch",
            "outputs": [],
            "stateMutability": "pure",
            "type": "function"
        },
        {
            "inputs": [],
            "name": "ftsoManager",
            "outputs": [
                {
                    "internalType": "address",
                    "name": "",
                    "type": "address"
                }
            ],
            "stateMutability": "pure",
            "type": "function"
        },
        {
            "inputs": [],
            "name": "getAsset",
            "outputs": [
                {
                    "internalType": "contract IIVPToken",
                    "name": "",
                    "type": "address"
                }
            ],
            "stateMutability": "pure",
            "type": "function"
        },
        {
            "inputs": [],
            "name": "getAssetFtsos",
            "outputs": [
                {
                    "internalType": "contract IIFtso[]",
                    "name": "",
                    "type": "address[]"
                }
            ],
            "stateMutability": "pure",
            "type": "function"
        },
        {
            "inputs": [],
            "name": "getCurrentEpochId",
            "outputs": [
                {
                    "internalType": "uint256",
                    "name": "",
                    "type": "uint256"
                }
            ],
            "stateMutability": "view",
            "type": "function"
        },
        {
            "inputs": [],
            "name": "getCurrentPrice",
            "outputs": [
                {
                    "internalType": "uint256",
                    "name": "_price",
                    "type": "uint256"
                },
                {
                    "internalType": "uint256",
                    "name": "_timestamp",
                    "type": "uint256"
                }
            ],
            "stateMutability": "view",
            "type": "function"
        },
        {
            "inputs": [],
            "name": "getCurrentPriceDetails",
            "outputs": [
                {
                    "internalType": "uint256",
                    "name": "_price",
                    "type": "uint256"
                },
                {
                    "internalType": "uint256",
                    "name": "_priceTimestamp",
                    "type": "uint256"
                },
                {
                    "internalType": "enum IFtso.PriceFinalizationType",
                    "name": "_priceFinalizationType",
                    "type": "uint8"
                },
                {
                    "internalType": "uint256",
                    "name": "_lastPriceEpochFinalizationTimestamp",
                    "type": "uint256"
                },
                {
                    "internalType": "enum IFtso.PriceFinalizationType",
                    "name": "_lastPriceEpochFinalizationType",
                    "type": "uint8"
                }
            ],
            "stateMutability": "view",
            "type": "function"
        },
        {
            "inputs": [],
            "name": "getCurrentPriceFromTrustedProviders",
            "outputs": [
                {
                    "internalType": "uint256",
                    "name": "_price",
                    "type": "uint256"
                },
                {
                    "internalType": "uint256",
                    "name": "_timestamp",
                    "type": "uint256"
                }
            ],
            "stateMutability": "view",
            "type": "function"
        },
        {
            "inputs": [],
            "name": "getCurrentPriceWithDecimals",
            "outputs": [
                {
                    "internalType": "uint256",
                    "name": "_price",
                    "type": "uint256"
                },
                {
                    "internalType": "uint256",
                    "name": "_timestamp",
                    "type": "uint256"
                },
                {
                    "internalType": "uint256",
                    "name": "_assetPriceUsdDecimals",
                    "type": "uint256"
                }
            ],
            "stateMutability": "view",
            "type": "function"
        },
        {
            "inputs": [],
            "name": "getCurrentPriceWithDecimalsFromTrustedProviders",
            "outputs": [
                {
                    "internalType": "uint256",
                    "name": "_price",
                    "type": "uint256"
                },
                {
                    "internalType": "uint256",
                    "name": "_timestamp",
                    "type": "uint256"
                },
                {
                    "internalType": "uint256",
                    "name": "_assetPriceUsdDecimals",
                    "type": "uint256"
                }
            ],
            "stateMutability": "view",
            "type": "function"
        },
        {
            "inputs": [],
            "name": "getCurrentRandom",
            "outputs": [
                {
                    "internalType": "uint256",
                    "name": "",
                    "type": "uint256"
                }
            ],
            "stateMutability": "pure",
            "type": "function"
        },
        {
            "inputs": [
                {
                    "internalType": "uint256",
                    "name": "_timestamp",
                    "type": "uint256"
                }
            ],
            "name": "getEpochId",
            "outputs": [
                {
                    "internalType": "uint256",
                    "name": "",
                    "type": "uint256"
                }
            ],
            "stateMutability": "view",
            "type": "function"
        },
        {
            "inputs": [
                {
                    "internalType": "uint256",
                    "name": "",
                    "type": "uint256"
                }
            ],
            "name": "getEpochPrice",
            "outputs": [
                {
                    "internalType": "uint256",
                    "name": "",
                    "type": "uint256"
                }
            ],
            "stateMutability": "pure",
            "type": "function"
        },
        {
            "inputs": [
                {
                    "internalType": "uint256",
                    "name": "_epochId",
                    "type": "uint256"
                },
                {
                    "internalType": "address",
                    "name": "_voter",
                    "type": "address"
                }
            ],
            "name": "getEpochPriceForVoter",
            "outputs": [
                {
                    "internalType": "uint256",
                    "name": "",
                    "type": "uint256"
                }
            ],
            "stateMutability": "view",
            "type": "function"
        },
        {
            "inputs": [],
            "name": "getPriceEpochConfiguration",
            "outputs": [
                {
                    "internalType": "uint256",
                    "name": "_firstEpochStartTs",
                    "type": "uint256"
                },
                {
                    "internalType": "uint256",
                    "name": "_submitPeriodSeconds",
                    "type": "uint256"
                },
                {
                    "internalType": "uint256",
                    "name": "_revealPeriodSeconds",
                    "type": "uint256"
                }
            ],
            "stateMutability": "view",
            "type": "function"
        },
        {
            "inputs": [],
            "name": "getPriceEpochData",
            "outputs": [
                {
                    "internalType": "uint256",
                    "name": "_epochId",
                    "type": "uint256"
                },
                {
                    "internalType": "uint256",
                    "name": "_epochSubmitEndTime",
                    "type": "uint256"
                },
                {
                    "internalType": "uint256",
                    "name": "_epochRevealEndTime",
                    "type": "uint256"
                },
                {
                    "internalType": "uint256",
                    "name": "_votePowerBlock",
                    "type": "uint256"
                },
                {
                    "internalType": "bool",
                    "name": "_fallbackMode",
                    "type": "bool"
                }
            ],
            "stateMutability": "view",
            "type": "function"
        },
        {
            "inputs": [
                {
                    "internalType": "uint256",
                    "name": "",
                    "type": "uint256"
                }
            ],
            "name": "getRandom",
            "outputs": [
                {
                    "internalType": "uint256",
                    "name": "",
                    "type": "uint256"
                }
            ],
            "stateMutability": "pure",
            "type": "function"
        },
        {
            "inputs": [],
            "name": "getVoteWeightingParameters",
            "outputs": [
                {
                    "internalType": "contract IIVPToken[]",
                    "name": "",
                    "type": "address[]"
                },
                {
                    "internalType": "uint256[]",
                    "name": "",
                    "type": "uint256[]"
                },
                {
                    "internalType": "uint256",
                    "name": "",
                    "type": "uint256"
                },
                {
                    "internalType": "uint256",
                    "name": "",
                    "type": "uint256"
                },
                {
                    "internalType": "uint256",
                    "name": "",
                    "type": "uint256"
                },
                {
                    "internalType": "uint256",
                    "name": "",
                    "type": "uint256"
                }
            ],
            "stateMutability": "pure",
            "type": "function"
        },
        {
            "inputs": [
                {
                    "internalType": "uint256",
                    "name": "",
                    "type": "uint256"
                },
                {
                    "internalType": "bool",
                    "name": "",
                    "type": "bool"
                }
            ],
            "name": "initializeCurrentEpochStateForReveal",
            "outputs": [],
            "stateMutability": "pure",
            "type": "function"
        },
        {
            "inputs": [],
            "name": "priceSubmitter",
            "outputs": [
                {
                    "internalType": "contract IPriceSubmitter",
                    "name": "",
                    "type": "address"
                }
            ],
            "stateMutability": "view",
            "type": "function"
        },
        {
            "inputs": [
                {
                    "internalType": "address",
                    "name": "_voter",
                    "type": "address"
                },
                {
                    "internalType": "uint256",
                    "name": "_epochId",
                    "type": "uint256"
                },
                {
                    "internalType": "uint256",
                    "name": "_price",
                    "type": "uint256"
                },
                {
                    "internalType": "uint256",
                    "name": "_random",
                    "type": "uint256"
                },
                {
                    "internalType": "uint256",
                    "name": "",
                    "type": "uint256"
                }
            ],
            "name": "revealPriceSubmitter",
            "outputs": [],
            "stateMutability": "nonpayable",
            "type": "function"
        },
        {
            "inputs": [
                {
                    "internalType": "contract IIVPToken",
                    "name": "",
                    "type": "address"
                }
            ],
            "name": "setAsset",
            "outputs": [],
            "stateMutability": "pure",
            "type": "function"
        },
        {
            "inputs": [
                {
                    "internalType": "contract IIFtso[]",
                    "name": "",
                    "type": "address[]"
                }
            ],
            "name": "setAssetFtsos",
            "outputs": [],
            "stateMutability": "pure",
            "type": "function"
        },
        {
            "inputs": [
                {
                    "internalType": "uint256",
                    "name": "",
                    "type": "uint256"
                }
            ],
            "name": "setVotePowerBlock",
            "outputs": [],
            "stateMutability": "pure",
            "type": "function"
        },
        {
            "inputs": [
                {
                    "internalType": "address",
                    "name": "_sender",
                    "type": "address"
                },
                {
                    "internalType": "uint256",
                    "name": "_epochId",
                    "type": "uint256"
                },
                {
                    "internalType": "bytes32",
                    "name": "_hash",
                    "type": "bytes32"
                }
            ],
            "name": "submitPriceHashSubmitter",
            "outputs": [],
            "stateMutability": "nonpayable",
            "type": "function"
        },
        {
            "inputs": [],
            "name": "symbol",
            "outputs": [
                {
                    "internalType": "string",
                    "name": "",
                    "type": "string"
                }
            ],
            "stateMutability": "view",
            "type": "function"
        },
        {
            "inputs": [
                {
                    "internalType": "uint256",
                    "name": "",
                    "type": "uint256"
                },
                {
                    "internalType": "uint256",
                    "name": "",
                    "type": "uint256"
                }
            ],
            "name": "updateInitialPrice",
            "outputs": [],
            "stateMutability": "pure",
            "type": "function"
        },
        {
            "inputs": [],
            "name": "wNat",
            "outputs": [
                {
                    "internalType": "contract IIVPToken",
                    "name": "",
                    "type": "address"
                }
            ],
            "stateMutability": "pure",
            "type": "function"
        },
        {
            "inputs": [
                {
                    "internalType": "address",
                    "name": "_owner",
                    "type": "address"
                },
                {
                    "internalType": "uint256",
                    "name": "_epochId",
                    "type": "uint256"
                }
            ],
            "name": "wNatVotePowerCached",
            "outputs": [
                {
                    "internalType": "uint256",
                    "name": "_wNatVP",
                    "type": "uint256"
                }
            ],
            "stateMutability": "nonpayable",
            "type": "function"
        }
    ],
    "bytecode": "0x60806040523480156200001157600080fd5b50604051620015c7380380620015c7833981810160405260a08110156200003757600080fd5b81019080805160405193929190846401000000008211156200005857600080fd5b9083019060208201858111156200006e57600080fd5b82516401000000008111828201881017156200008957600080fd5b82525081516020918201929091019080838360005b83811015620000b85781810151838201526020016200009e565b50505050905090810190601f168015620000e65780820380516001836020036101000a031916815260200191505b5060409081526020828101519183015160608401516080909401518751939650909450916200011c916001919088019062000163565b50426003556000805460ff19166001179055600680546001600160a01b039095166001600160a01b031990951694909417909355600991909155600a55600b55506200020f565b828054600181600116156101000203166002900490600052602060002090601f0160209004810192826200019b5760008555620001e6565b82601f10620001b657805160ff1916838001178555620001e6565b82800160010185558215620001e6579182015b82811115620001e6578251825591602001919060010190620001c9565b50620001f4929150620001f8565b5090565b5b80821115620001f45760008155600101620001f9565b6113a8806200021f6000396000f3fe608060405234801561001057600080fd5b506004361061023d5760003560e01c80637d1d6f121161013b578063cf35bdd0116100b8578063e536f3961161007c578063e536f39614610540578063eb91d37e146107c2578063f670ebe314610923578063f72cab2814610948578063f937d6ad146109745761023d565b8063cf35bdd01461080f578063d0d552dd1461082c578063d89601fd14610852578063e3749e0c1461085a578063e3b3a3b3146108ee5761023d565b80639edbf007116100ff5780639edbf00714610636578063a29a839f146107ba578063af52df08146107c2578063c5d8b9e7146107e3578063cd4b6914146106465761023d565b80637d1d6f1214610646578063826cc76b146106635780638357d08c1461068057806395d89b411461073d578063974d7a6b146105405761023d565b80633cacb3ae116101c957806355f7b69b1161018d57806355f7b69b146105945780635a3c9d8e146105d25780635c222bad1461063657806365f5cd86146104735780636b52b2421461063e5761023d565b80633cacb3ae1461047357806340462a2d1461047b5780634afd5102146105405780635303548b1461055d578063555989da1461058c5761023d565b8063144e159111610210578063144e15911461037757806318931c351461039d57806327bd2ad5146103f55780632f0a6f3c14610427578063306ba253146104505761023d565b806302fb0c5e14610242578063040d73b81461025e57806311a7aaaa146102ae578063131fdee2146102d2575b600080fd5b61024a61097c565b604080519115158252519081900360200190f35b610266610985565b6040518086815260200185815260200184600581111561028257fe5b815260200183815260200182600581111561029957fe5b81526020019550505050505060405180910390f35b6102b6610994565b604080516001600160a01b039092168252519081900360200190f35b610375600480360360208110156102e857600080fd5b81019060208101813564010000000081111561030357600080fd5b82018360208201111561031557600080fd5b8035906020019184602083028401116401000000008311171561033757600080fd5b919080806020026020016040519081016040528093929190818152602001838360200280828437600092019190915250929550610999945050505050565b005b61037f610a3f565b60408051938452602084019290925282820152519081900360600190f35b6103a5610a4d565b60408051602080825283518183015283519192839290830191858101910280838360005b838110156103e15781810151838201526020016103c9565b505050509050019250505060405180910390f35b6103756004803603606081101561040b57600080fd5b506001600160a01b038135169060208101359060400135610ab1565b6103756004803603606081101561043d57600080fd5b5080359060208101359060400135610999565b6103756004803603604081101561046657600080fd5b5080359060200135610999565b61037f610c56565b6104a06004803603604081101561049157600080fd5b50803590602001351515610c60565b604051808060200180602001848152602001838103835286818151815260200191508051906020019060200280838360005b838110156104ea5781810151838201526020016104d2565b50505050905001838103825285818151815260200191508051906020019060200280838360005b83811015610529578181015183820152602001610511565b505050509050019550505050505060405180910390f35b6103756004803603602081101561055657600080fd5b5035610999565b61057a6004803603602081101561057357600080fd5b5035610ccc565b60408051918252519081900360200190f35b610375610999565b610375600480360360a08110156105aa57600080fd5b506001600160a01b038135169060208101359060408101359060608101359060800135610cdf565b61037560048036036101208110156105e957600080fd5b81359160208101359160408201359160608101359160808201359160a08101359160c08201359160e081013591810190610120810161010082013564010000000081111561030357600080fd5b6102b6610f65565b61057a610fc8565b61057a6004803603602081101561065c57600080fd5b5035610f65565b6102b66004803603602081101561067957600080fd5b5035610fcd565b610688610ff7565b604051808060200180602001878152602001868152602001858152602001848152602001838103835289818151815260200191508051906020019060200280838360005b838110156106e45781810151838201526020016106cc565b50505050905001838103825288818151815260200191508051906020019060200280838360005b8381101561072357818101518382015260200161070b565b505050509050019850505050505050505060405180910390f35b61074561109c565b6040805160208082528351818301528351919283929083019185019080838360005b8381101561077f578181015183820152602001610767565b50505050905090810190601f1680156107ac5780820380516001836020036101000a031916815260200191505b509250505060405180910390f35b61057a611129565b6107ca611138565b6040805192835260208301919091528051918290030190f35b61057a600480360360408110156107f957600080fd5b50803590602001356001600160a01b031661113e565b6102b66004803603602081101561082557600080fd5b5035611166565b6103756004803603602081101561084257600080fd5b50356001600160a01b0316610999565b61057a610994565b610862611176565b604051808a815260200189815260200188815260200187815260200186815260200185815260200184815260200183815260200180602001828103825283818151815260200191508051906020019060200280838360005b838110156108d25781810151838201526020016108ba565b505050509050019a505050505050505050505060405180910390f35b6108f6611248565b60408051958652602086019490945284840192909252606084015215156080830152519081900360a00190f35b6103756004803603604081101561093957600080fd5b50803590602001351515610999565b61057a6004803603604081101561095e57600080fd5b506001600160a01b03813516906020013561127e565b6102b6611286565b60005460ff1681565b60008060008060009091929394565b600090565b6040805180820190915260178152600080516020611330833981519152602082015260405162461bcd60e51b81526004018080602001828103825283818151815260200191508051906020019080838360005b83811015610a045781810151838201526020016109ec565b50505050905090810190601f168015610a315780820380516001836020036101000a031916815260200191505b509250505060405180910390fd5b600954600a54600b54909192565b604080518082018252601781526000805160206113308339815191526020808301918252925162461bcd60e51b8152600481019384528251602482015282516060949283926044019180838360008315610a045781810151838201526020016109ec565b6006546001600160a01b03163314610acb57610acb611295565b610ad36112fd565b82146040518060400160405280600e81526020016d15dc9bdb99c8195c1bd8da081a5960921b81525090610b485760405162461bcd60e51b8152602060048201818152835160248401528351909283926044909101919085019080838360008315610a045781810151838201526020016109ec565b5060008281526004602090815260408083206001600160a01b0387168452825291829020548251808401909352601983527f4475706c6963617465207375626d697420696e2065706f6368000000000000009183019190915215610bed5760405162461bcd60e51b8152602060048201818152835160248401528351909283926044909101919085019080838360008315610a045781810151838201526020016109ec565b5060008281526004602090815260408083206001600160a01b038716808552908352928190208490558051848152429281019290925280518593927f615c0184a2b16dbbcd09eae0bf239e28977aa4e6ff2204eda59c14016310bb6692908290030190a3505050565b6000806000909192565b604080518082018252601781526000805160206113308339815191526020808301918252925162461bcd60e51b81526004810193845282516024820152825160609485946000949093919283926044019190808383898315610a045781810151838201526020016109ec565b6000610cd782611304565b90505b919050565b6006546001600160a01b03163314610cf957610cf9611295565b60408051808201909152600e81526d0a0e4d2c6ca40e8dede40d0d2ced60931b6020820152600160801b8410610d705760405162461bcd60e51b8152602060048201818152835160248401528351909283926044909101919085019080838360008315610a045781810151838201526020016109ec565b50600a546009546001860190910201428111801590610d925750600b54810142105b6040518060400160405280601881526020017f52657665616c20706572696f64206e6f7420616374697665000000000000000081525090610e145760405162461bcd60e51b8152602060048201818152835160248401528351909283926044909101919085019080838360008315610a045781810151838201526020016109ec565b506040805160208082018790528183018690526001600160a01b0389166060808401829052845180850390910181526080840180865281519184019190912060008b81526004855286812093815292909352908490205460e084019094526023808252939091149290916113509060a0013990610ed25760405162461bcd60e51b8152602060048201818152835160248401528351909283926044909101919085019080838360008315610a045781810151838201526020016109ec565b5060008581526004602090815260408083206001600160a01b038a16808552908352818420849055888452600d8352818420818552835281842088905581518881529283018790524283830152606083018490526080830193909352518792917f408bc8c9d02102257c33373c2df5771b03067bd8ea7ec60c35f314ec4ee99d05919081900360a00190a3505050505050565b604080518082018252601781526000805160206113308339815191526020808301918252925162461bcd60e51b81526004810193845282516024820152825160009492839260440191808383898315610a045781810151838201526020016109ec565b600581565b60088181548110610fdd57600080fd5b6000918252602090912001546001600160a01b0316905081565b6060806000806000806000604051806040016040528060178152602001600080516020611330833981519152815250906110725760405162461bcd60e51b8152602060048201818152835160248401528351909283926044909101919085019080838360008315610a045781810151838201526020016109ec565b50506040805160008082526020820181815282840190935290979196509450849350839250829150565b60018054604080516020600284861615610100026000190190941693909304601f810184900484028201840190925281815292918301828280156111215780601f106110f657610100808354040283529160200191611121565b820191906000526020600020905b81548152906001019060200180831161110457829003601f168201915b505050505081565b60006111336112fd565b905090565b60008091565b6000918252600d602090815260408084206001600160a01b0393909316845291905290205490565b60078181548110610fdd57600080fd5b60008060008060008060008060606000604051806040016040528060178152602001600080516020611330833981519152815250906111f65760405162461bcd60e51b8152602060048201818152835160248401528351909283926044909101919085019080838360008315610a045781810151838201526020016109ec565b506000808080808080808060405190808252806020026020018201604052801561122a578160200160208202803683370190505b50985098509850985098509850985098509850909192939495969798565b60008060008060006112586112fd565b9450600a548560010102600954019350600b548401925060009150600090509091929394565b600092915050565b6006546001600160a01b031681565b604080518082018252600d81526c1058d8d95cdcc819195b9a5959609a1b6020808301918252925162461bcd60e51b81526004810193845282516024820152825192939283926044909201919080838360008315610a045781810151838201526020016109ec565b6000611133425b600060095482101561131857506000610cda565b600a5460095483038161132757fe5b049050610cda56fe556e617661696c61626c6520666f722074657374696e67000000000000000000507269636520616c72656164792072657665616c6564206f72206e6f742076616c6964a26469706673582212208e01d48ce074613ec8fa0526a302163aa28bf8e376cbce09d576baa7d7f7a50464736f6c63430007060033",
    "linkReferences": {},
    "deployedLinkReferences": {}
}