{
    "_format": "hh-sol-artifact-1",
    "contractName": "MockNpmFtso",
    "sourceName": "contracts/ftso/priceProviderMockContracts/priceProviderMockFtso.sol",
    "abi": [
        {
            "inputs": [
                {
                    "internalType": "string",
                    "name": "_symbol",
                    "type": "string"
                },
                {
                    "internalType": "contract IPriceSubmitter",
                    "name": "_priceSubmitter",
                    "type": "address"
                },
                {
                    "internalType": "uint256",
                    "name": "_firstEpochStartTs",
                    "type": "uint256"
                },
                {
                    "internalType": "uint256",
                    "name": "_submitPeriodSeconds",
                    "type": "uint256"
                },
                {
                    "internalType": "uint256",
                    "name": "_revealPeriodSeconds",
                    "type": "uint256"
                }
            ],
            "stateMutability": "nonpayable",
            "type": "constructor"
        },
        {
            "anonymous": false,
            "inputs": [
                {
                    "indexed": true,
                    "internalType": "uint256",
                    "name": "epochId",
                    "type": "uint256"
                },
                {
                    "indexed": false,
                    "internalType": "uint256",
                    "name": "natTurnout",
                    "type": "uint256"
                },
                {
                    "indexed": false,
                    "internalType": "uint256",
                    "name": "lowNatTurnoutThresholdBIPS",
                    "type": "uint256"
                },
                {
                    "indexed": false,
                    "internalType": "uint256",
                    "name": "timestamp",
                    "type": "uint256"
                }
            ],
            "name": "LowTurnout",
            "type": "event"
        },
        {
            "anonymous": false,
            "inputs": [
                {
                    "indexed": true,
                    "internalType": "uint256",
                    "name": "epochId",
                    "type": "uint256"
                },
                {
                    "indexed": false,
                    "internalType": "uint256",
                    "name": "endTime",
                    "type": "uint256"
                },
                {
                    "indexed": false,
                    "internalType": "uint256",
                    "name": "timestamp",
                    "type": "uint256"
                }
            ],
            "name": "PriceEpochInitializedOnFtso",
            "type": "event"
        },
        {
            "anonymous": false,
            "inputs": [
                {
                    "indexed": true,
                    "internalType": "uint256",
                    "name": "epochId",
                    "type": "uint256"
                },
                {
                    "indexed": false,
                    "internalType": "uint256",
                    "name": "price",
                    "type": "uint256"
                },
                {
                    "indexed": false,
                    "internalType": "bool",
                    "name": "rewardedFtso",
                    "type": "bool"
                },
                {
                    "indexed": false,
                    "internalType": "uint256",
                    "name": "lowIQRRewardPrice",
                    "type": "uint256"
                },
                {
                    "indexed": false,
                    "internalType": "uint256",
                    "name": "highIQRRewardPrice",
                    "type": "uint256"
                },
                {
                    "indexed": false,
                    "internalType": "uint256",
                    "name": "lowElasticBandRewardPrice",
                    "type": "uint256"
                },
                {
                    "indexed": false,
                    "internalType": "uint256",
                    "name": "highElasticBandRewardPrice",
                    "type": "uint256"
                },
                {
                    "indexed": false,
                    "internalType": "enum IFtso.PriceFinalizationType",
                    "name": "finalizationType",
                    "type": "uint8"
                },
                {
                    "indexed": false,
                    "internalType": "uint256",
                    "name": "timestamp",
                    "type": "uint256"
                }
            ],
            "name": "PriceFinalized",
            "type": "event"
        },
        {
            "anonymous": false,
            "inputs": [
                {
                    "indexed": true,
                    "internalType": "address",
                    "name": "voter",
                    "type": "address"
                },
                {
                    "indexed": true,
                    "internalType": "uint256",
                    "name": "epochId",
                    "type": "uint256"
                },
                {
                    "indexed": false,
                    "internalType": "uint256",
                    "name": "price",
                    "type": "uint256"
                },
                {
                    "indexed": false,
                    "internalType": "uint256",
                    "name": "timestamp",
                    "type": "uint256"
                },
                {
                    "indexed": false,
                    "internalType": "uint256",
                    "name": "votePowerNat",
                    "type": "uint256"
                },
                {
                    "indexed": false,
                    "internalType": "uint256",
                    "name": "votePowerAsset",
                    "type": "uint256"
                }
            ],
            "name": "PriceRevealed",
            "type": "event"
        },
        {
            "inputs": [],
            "name": "ASSET_PRICE_USD_DECIMALS",
            "outputs": [
                {
                    "internalType": "uint256",
                    "name": "",
                    "type": "uint256"
                }
            ],
            "stateMutability": "view",
            "type": "function"
        },
        {
            "inputs": [
                {
                    "internalType": "uint256",
                    "name": "",
                    "type": "uint256"
                },
                {
                    "internalType": "uint256",
                    "name": "",
                    "type": "uint256"
                },
                {
                    "internalType": "uint256",
                    "name": "",
                    "type": "uint256"
                }
            ],
            "name": "activateFtso",
            "outputs": [],
            "stateMutability": "pure",
            "type": "function"
        },
        {
            "inputs": [],
            "name": "active",
            "outputs": [
                {
                    "internalType": "bool",
                    "name": "",
                    "type": "bool"
                }
            ],
            "stateMutability": "view",
            "type": "function"
        },
        {
            "inputs": [
                {
                    "internalType": "uint256",
                    "name": "",
                    "type": "uint256"
                }
            ],
            "name": "assetFtsos",
            "outputs": [
                {
                    "internalType": "contract IIFtso",
                    "name": "",
                    "type": "address"
                }
            ],
            "stateMutability": "view",
            "type": "function"
        },
        {
            "inputs": [
                {
                    "internalType": "uint256",
                    "name": "",
                    "type": "uint256"
                }
            ],
            "name": "assets",
            "outputs": [
                {
                    "internalType": "contract IIVPToken",
                    "name": "",
                    "type": "address"
                }
            ],
            "stateMutability": "view",
            "type": "function"
        },
        {
            "inputs": [
                {
                    "internalType": "uint256",
                    "name": "",
                    "type": "uint256"
                },
                {
                    "internalType": "uint256",
                    "name": "",
                    "type": "uint256"
                },
                {
                    "internalType": "uint256",
                    "name": "",
                    "type": "uint256"
                },
                {
                    "internalType": "uint256",
                    "name": "",
                    "type": "uint256"
                },
                {
                    "internalType": "uint256",
                    "name": "",
                    "type": "uint256"
                },
                {
                    "internalType": "uint256",
                    "name": "",
                    "type": "uint256"
                },
                {
                    "internalType": "uint256",
                    "name": "",
                    "type": "uint256"
                },
                {
                    "internalType": "uint256",
                    "name": "",
                    "type": "uint256"
                },
                {
                    "internalType": "address[]",
                    "name": "",
                    "type": "address[]"
                }
            ],
            "name": "configureEpochs",
            "outputs": [],
            "stateMutability": "pure",
            "type": "function"
        },
        {
            "inputs": [],
            "name": "deactivateFtso",
            "outputs": [],
            "stateMutability": "pure",
            "type": "function"
        },
        {
            "inputs": [],
            "name": "epochsConfiguration",
            "outputs": [
                {
                    "internalType": "uint256",
                    "name": "",
                    "type": "uint256"
                },
                {
                    "internalType": "uint256",
                    "name": "",
                    "type": "uint256"
                },
                {
                    "internalType": "uint256",
                    "name": "",
                    "type": "uint256"
                },
                {
                    "internalType": "uint256",
                    "name": "",
                    "type": "uint256"
                },
                {
                    "internalType": "uint256",
                    "name": "",
                    "type": "uint256"
                },
                {
                    "internalType": "uint256",
                    "name": "",
                    "type": "uint256"
                },
                {
                    "internalType": "uint256",
                    "name": "",
                    "type": "uint256"
                },
                {
                    "internalType": "uint256",
                    "name": "",
                    "type": "uint256"
                },
                {
                    "internalType": "address[]",
                    "name": "",
                    "type": "address[]"
                }
            ],
            "stateMutability": "pure",
            "type": "function"
        },
        {
            "inputs": [
                {
                    "internalType": "uint256",
                    "name": "",
                    "type": "uint256"
                }
            ],
            "name": "fallbackFinalizePriceEpoch",
            "outputs": [],
            "stateMutability": "pure",
            "type": "function"
        },
        {
            "inputs": [
                {
                    "internalType": "uint256",
                    "name": "",
                    "type": "uint256"
                },
                {
                    "internalType": "bool",
                    "name": "",
                    "type": "bool"
                }
            ],
            "name": "finalizePriceEpoch",
            "outputs": [
                {
                    "internalType": "address[]",
                    "name": "",
                    "type": "address[]"
                },
                {
                    "internalType": "uint256[]",
                    "name": "",
                    "type": "uint256[]"
                },
                {
                    "internalType": "uint256",
                    "name": "",
                    "type": "uint256"
                }
            ],
            "stateMutability": "pure",
            "type": "function"
        },
        {
            "inputs": [
                {
                    "internalType": "uint256",
                    "name": "",
                    "type": "uint256"
                }
            ],
            "name": "forceFinalizePriceEpoch",
            "outputs": [],
            "stateMutability": "pure",
            "type": "function"
        },
        {
            "inputs": [],
            "name": "ftsoManager",
            "outputs": [
                {
                    "internalType": "address",
                    "name": "",
                    "type": "address"
                }
            ],
            "stateMutability": "pure",
            "type": "function"
        },
        {
            "inputs": [],
            "name": "getAsset",
            "outputs": [
                {
                    "internalType": "contract IIVPToken",
                    "name": "",
                    "type": "address"
                }
            ],
            "stateMutability": "pure",
            "type": "function"
        },
        {
            "inputs": [],
            "name": "getAssetFtsos",
            "outputs": [
                {
                    "internalType": "contract IIFtso[]",
                    "name": "",
                    "type": "address[]"
                }
            ],
            "stateMutability": "pure",
            "type": "function"
        },
        {
            "inputs": [],
            "name": "getCurrentEpochId",
            "outputs": [
                {
                    "internalType": "uint256",
                    "name": "",
                    "type": "uint256"
                }
            ],
            "stateMutability": "view",
            "type": "function"
        },
        {
            "inputs": [],
            "name": "getCurrentPrice",
            "outputs": [
                {
                    "internalType": "uint256",
                    "name": "_price",
                    "type": "uint256"
                },
                {
                    "internalType": "uint256",
                    "name": "_timestamp",
                    "type": "uint256"
                }
            ],
            "stateMutability": "view",
            "type": "function"
        },
        {
            "inputs": [],
            "name": "getCurrentPriceDetails",
            "outputs": [
                {
                    "internalType": "uint256",
                    "name": "_price",
                    "type": "uint256"
                },
                {
                    "internalType": "uint256",
                    "name": "_priceTimestamp",
                    "type": "uint256"
                },
                {
                    "internalType": "enum IFtso.PriceFinalizationType",
                    "name": "_priceFinalizationType",
                    "type": "uint8"
                },
                {
                    "internalType": "uint256",
                    "name": "_lastPriceEpochFinalizationTimestamp",
                    "type": "uint256"
                },
                {
                    "internalType": "enum IFtso.PriceFinalizationType",
                    "name": "_lastPriceEpochFinalizationType",
                    "type": "uint8"
                }
            ],
            "stateMutability": "view",
            "type": "function"
        },
        {
            "inputs": [],
            "name": "getCurrentPriceFromTrustedProviders",
            "outputs": [
                {
                    "internalType": "uint256",
                    "name": "_price",
                    "type": "uint256"
                },
                {
                    "internalType": "uint256",
                    "name": "_timestamp",
                    "type": "uint256"
                }
            ],
            "stateMutability": "view",
            "type": "function"
        },
        {
            "inputs": [],
            "name": "getCurrentPriceWithDecimals",
            "outputs": [
                {
                    "internalType": "uint256",
                    "name": "_price",
                    "type": "uint256"
                },
                {
                    "internalType": "uint256",
                    "name": "_timestamp",
                    "type": "uint256"
                },
                {
                    "internalType": "uint256",
                    "name": "_assetPriceUsdDecimals",
                    "type": "uint256"
                }
            ],
            "stateMutability": "view",
            "type": "function"
        },
        {
            "inputs": [],
            "name": "getCurrentPriceWithDecimalsFromTrustedProviders",
            "outputs": [
                {
                    "internalType": "uint256",
                    "name": "_price",
                    "type": "uint256"
                },
                {
                    "internalType": "uint256",
                    "name": "_timestamp",
                    "type": "uint256"
                },
                {
                    "internalType": "uint256",
                    "name": "_assetPriceUsdDecimals",
                    "type": "uint256"
                }
            ],
            "stateMutability": "view",
            "type": "function"
        },
        {
            "inputs": [],
            "name": "getCurrentRandom",
            "outputs": [
                {
                    "internalType": "uint256",
                    "name": "",
                    "type": "uint256"
                }
            ],
            "stateMutability": "view",
            "type": "function"
        },
        {
            "inputs": [
                {
                    "internalType": "uint256",
                    "name": "_timestamp",
                    "type": "uint256"
                }
            ],
            "name": "getEpochId",
            "outputs": [
                {
                    "internalType": "uint256",
                    "name": "",
                    "type": "uint256"
                }
            ],
            "stateMutability": "view",
            "type": "function"
        },
        {
            "inputs": [
                {
                    "internalType": "uint256",
                    "name": "",
                    "type": "uint256"
                }
            ],
            "name": "getEpochPrice",
            "outputs": [
                {
                    "internalType": "uint256",
                    "name": "",
                    "type": "uint256"
                }
            ],
            "stateMutability": "pure",
            "type": "function"
        },
        {
            "inputs": [
                {
                    "internalType": "uint256",
                    "name": "_epochId",
                    "type": "uint256"
                },
                {
                    "internalType": "address",
                    "name": "_voter",
                    "type": "address"
                }
            ],
            "name": "getEpochPriceForVoter",
            "outputs": [
                {
                    "internalType": "uint256",
                    "name": "",
                    "type": "uint256"
                }
            ],
            "stateMutability": "view",
            "type": "function"
        },
        {
            "inputs": [],
            "name": "getPriceEpochConfiguration",
            "outputs": [
                {
                    "internalType": "uint256",
                    "name": "_firstEpochStartTs",
                    "type": "uint256"
                },
                {
                    "internalType": "uint256",
                    "name": "_submitPeriodSeconds",
                    "type": "uint256"
                },
                {
                    "internalType": "uint256",
                    "name": "_revealPeriodSeconds",
                    "type": "uint256"
                }
            ],
            "stateMutability": "view",
            "type": "function"
        },
        {
            "inputs": [],
            "name": "getPriceEpochData",
            "outputs": [
                {
                    "internalType": "uint256",
                    "name": "_epochId",
                    "type": "uint256"
                },
                {
                    "internalType": "uint256",
                    "name": "_epochSubmitEndTime",
                    "type": "uint256"
                },
                {
                    "internalType": "uint256",
                    "name": "_epochRevealEndTime",
                    "type": "uint256"
                },
                {
                    "internalType": "uint256",
                    "name": "_votePowerBlock",
                    "type": "uint256"
                },
                {
                    "internalType": "bool",
                    "name": "_fallbackMode",
                    "type": "bool"
                }
            ],
            "stateMutability": "view",
            "type": "function"
        },
        {
            "inputs": [
                {
                    "internalType": "uint256",
                    "name": "_epochId",
                    "type": "uint256"
                }
            ],
            "name": "getRandom",
            "outputs": [
                {
                    "internalType": "uint256",
                    "name": "",
                    "type": "uint256"
                }
            ],
            "stateMutability": "view",
            "type": "function"
        },
        {
            "inputs": [],
            "name": "getVoteWeightingParameters",
            "outputs": [
                {
                    "internalType": "contract IIVPToken[]",
                    "name": "",
                    "type": "address[]"
                },
                {
                    "internalType": "uint256[]",
                    "name": "",
                    "type": "uint256[]"
                },
                {
                    "internalType": "uint256",
                    "name": "",
                    "type": "uint256"
                },
                {
                    "internalType": "uint256",
                    "name": "",
                    "type": "uint256"
                },
                {
                    "internalType": "uint256",
                    "name": "",
                    "type": "uint256"
                },
                {
                    "internalType": "uint256",
                    "name": "",
                    "type": "uint256"
                }
            ],
            "stateMutability": "pure",
            "type": "function"
        },
        {
            "inputs": [
                {
                    "internalType": "uint256",
                    "name": "",
                    "type": "uint256"
                },
                {
                    "internalType": "bool",
                    "name": "",
                    "type": "bool"
                }
            ],
            "name": "initializeCurrentEpochStateForReveal",
            "outputs": [],
            "stateMutability": "pure",
            "type": "function"
        },
        {
            "inputs": [],
            "name": "priceSubmitter",
            "outputs": [
                {
                    "internalType": "contract IPriceSubmitter",
                    "name": "",
                    "type": "address"
                }
            ],
            "stateMutability": "view",
            "type": "function"
        },
        {
            "inputs": [
                {
                    "internalType": "address",
                    "name": "_voter",
                    "type": "address"
                },
                {
                    "internalType": "uint256",
                    "name": "_epochId",
                    "type": "uint256"
                },
                {
                    "internalType": "uint256",
                    "name": "_price",
                    "type": "uint256"
                },
                {
                    "internalType": "uint256",
                    "name": "",
                    "type": "uint256"
                }
            ],
            "name": "revealPriceSubmitter",
            "outputs": [],
            "stateMutability": "nonpayable",
            "type": "function"
        },
        {
            "inputs": [
                {
                    "internalType": "contract IIVPToken",
                    "name": "",
                    "type": "address"
                }
            ],
            "name": "setAsset",
            "outputs": [],
            "stateMutability": "pure",
            "type": "function"
        },
        {
            "inputs": [
                {
                    "internalType": "contract IIFtso[]",
                    "name": "",
                    "type": "address[]"
                }
            ],
            "name": "setAssetFtsos",
            "outputs": [],
            "stateMutability": "pure",
            "type": "function"
        },
        {
            "inputs": [
                {
                    "internalType": "uint256",
                    "name": "",
                    "type": "uint256"
                }
            ],
            "name": "setVotePowerBlock",
            "outputs": [],
            "stateMutability": "pure",
            "type": "function"
        },
        {
            "inputs": [],
            "name": "symbol",
            "outputs": [
                {
                    "internalType": "string",
                    "name": "",
                    "type": "string"
                }
            ],
            "stateMutability": "view",
            "type": "function"
        },
        {
            "inputs": [
                {
                    "internalType": "uint256",
                    "name": "",
                    "type": "uint256"
                },
                {
                    "internalType": "uint256",
                    "name": "",
                    "type": "uint256"
                }
            ],
            "name": "updateInitialPrice",
            "outputs": [],
            "stateMutability": "pure",
            "type": "function"
        },
        {
            "inputs": [],
            "name": "wNat",
            "outputs": [
                {
                    "internalType": "contract IIVPToken",
                    "name": "",
                    "type": "address"
                }
            ],
            "stateMutability": "pure",
            "type": "function"
        },
        {
            "inputs": [
                {
                    "internalType": "address",
                    "name": "_owner",
                    "type": "address"
                },
                {
                    "internalType": "uint256",
                    "name": "_epochId",
                    "type": "uint256"
                }
            ],
            "name": "wNatVotePowerCached",
            "outputs": [
                {
                    "internalType": "uint256",
                    "name": "_wNatVP",
                    "type": "uint256"
                }
            ],
            "stateMutability": "nonpayable",
            "type": "function"
        }
    ],
    "bytecode": "0x60806040523480156200001157600080fd5b50604051620013e8380380620013e8833981810160405260a08110156200003757600080fd5b81019080805160405193929190846401000000008211156200005857600080fd5b9083019060208201858111156200006e57600080fd5b82516401000000008111828201881017156200008957600080fd5b82525081516020918201929091019080838360005b83811015620000b85781810151838201526020016200009e565b50505050905090810190601f168015620000e65780820380516001836020036101000a031916815260200191505b5060409081526020828101519183015160608401516080909401518751939650909450916200011c916001919088019062000163565b50426003556000805460ff19166001179055600480546001600160a01b039095166001600160a01b031990951694909417909355600791909155600855600955506200020f565b828054600181600116156101000203166002900490600052602060002090601f0160209004810192826200019b5760008555620001e6565b82601f10620001b657805160ff1916838001178555620001e6565b82800160010185558215620001e6579182015b82811115620001e6578251825591602001919060010190620001c9565b50620001f4929150620001f8565b5090565b5b80821115620001f45760008155600101620001f9565b6111c9806200021f6000396000f3fe608060405234801561001057600080fd5b50600436106102325760003560e01c80638357d08c11610130578063cf35bdd0116100b8578063e536f3961161007c578063e536f39614610503578063eb91d37e14610747578063f670ebe3146108fd578063f72cab2814610922578063f937d6ad1461094e57610232565b8063cf35bdd0146107e9578063d0d552dd14610806578063d89601fd1461082c578063e3749e0c14610834578063e3b3a3b3146108c857610232565b8063a29a839f116100ff578063a29a839f1461073f578063af52df0814610747578063c1f6c36e14610768578063c5d8b9e7146107a0578063cd4b6914146107cc57610232565b80638357d08c1461060557806395d89b41146106c2578063974d7a6b146105035780639edbf007146105bb57610232565b806340462a2d116101be5780635c222bad116101825780635c222bad146105bb57806365f5cd86146104365780636b52b242146105c35780637d1d6f12146105cb578063826cc76b146105e857610232565b806340462a2d1461043e5780634afd5102146105035780635303548b14610520578063555989da1461054f5780635a3c9d8e1461055757610232565b8063144e159111610205578063144e15911461036c57806318931c35146103925780632f0a6f3c146103ea578063306ba253146104135780633cacb3ae1461043657610232565b806302fb0c5e14610237578063040d73b81461025357806311a7aaaa146102a3578063131fdee2146102c7575b600080fd5b61023f610956565b604080519115158252519081900360200190f35b61025b61095f565b6040518086815260200185815260200184600581111561027757fe5b815260200183815260200182600581111561028e57fe5b81526020019550505050505060405180910390f35b6102ab61096e565b604080516001600160a01b039092168252519081900360200190f35b61036a600480360360208110156102dd57600080fd5b8101906020810181356401000000008111156102f857600080fd5b82018360208201111561030a57600080fd5b8035906020019184602083028401116401000000008311171561032c57600080fd5b919080806020026020016040519081016040528093929190818152602001838360200280828437600092019190915250929550610973945050505050565b005b610374610a19565b60408051938452602084019290925282820152519081900360600190f35b61039a610a27565b60408051602080825283518183015283519192839290830191858101910280838360005b838110156103d65781810151838201526020016103be565b505050509050019250505060405180910390f35b61036a6004803603606081101561040057600080fd5b5080359060208101359060400135610973565b61036a6004803603604081101561042957600080fd5b5080359060200135610973565b610374610a8e565b6104636004803603604081101561045457600080fd5b50803590602001351515610a98565b604051808060200180602001848152602001838103835286818151815260200191508051906020019060200280838360005b838110156104ad578181015183820152602001610495565b50505050905001838103825285818151815260200191508051906020019060200280838360005b838110156104ec5781810151838201526020016104d4565b505050509050019550505050505060405180910390f35b61036a6004803603602081101561051957600080fd5b5035610973565b61053d6004803603602081101561053657600080fd5b5035610b04565b60408051918252519081900360200190f35b61036a610973565b61036a600480360361012081101561056e57600080fd5b81359160208101359160408201359160608101359160808201359160a08101359160c08201359160e08101359181019061012081016101008201356401000000008111156102f857600080fd5b6102ab610b17565b61053d610b7a565b61053d600480360360208110156105e157600080fd5b5035610b17565b6102ab600480360360208110156105fe57600080fd5b5035610b7f565b61060d610ba9565b604051808060200180602001878152602001868152602001858152602001848152602001838103835289818151815260200191508051906020019060200280838360005b83811015610669578181015183820152602001610651565b50505050905001838103825288818151815260200191508051906020019060200280838360005b838110156106a8578181015183820152602001610690565b505050509050019850505050505050505060405180910390f35b6106ca610c4e565b6040805160208082528351818301528351919283929083019185019080838360005b838110156107045781810151838201526020016106ec565b50505050905090810190601f1680156107315780820380516001836020036101000a031916815260200191505b509250505060405180910390f35b61053d610cdb565b61074f610cea565b6040805192835260208301919091528051918290030190f35b61036a6004803603608081101561077e57600080fd5b506001600160a01b038135169060208101359060408101359060600135610cf0565b61053d600480360360408110156107b657600080fd5b50803590602001356001600160a01b0316610e9e565b61053d600480360360208110156107e257600080fd5b5035610ec6565b6102ab600480360360208110156107ff57600080fd5b5035610ed1565b61036a6004803603602081101561081c57600080fd5b50356001600160a01b0316610973565b61053d610ee1565b61083c610f0f565b604051808a815260200189815260200188815260200187815260200186815260200185815260200184815260200183815260200180602001828103825283818151815260200191508051906020019060200280838360005b838110156108ac578181015183820152602001610894565b505050509050019a505050505050505050505060405180910390f35b6108d0610fe1565b60408051958652602086019490945284840192909252606084015215156080830152519081900360a00190f35b61036a6004803603604081101561091357600080fd5b50803590602001351515610973565b61053d6004803603604081101561093857600080fd5b506001600160a01b038135169060200135611017565b6102ab61101f565b60005460ff1681565b60008060008060009091929394565b600090565b6040805180820190915260178152600080516020611174833981519152602082015260405162461bcd60e51b81526004018080602001828103825283818151815260200191508051906020019080838360005b838110156109de5781810151838201526020016109c6565b50505050905090810190601f168015610a0b5780820380516001836020036101000a031916815260200191505b509250505060405180910390fd5b600754600854600954909192565b604080518082018252601781526000805160206111748339815191526020808301918252925162461bcd60e51b81526004810193845282516024820152825160609492839260440191808383600083156109de5781810151838201526020016109c6565b90565b6000806000909192565b604080518082018252601781526000805160206111748339815191526020808301918252925162461bcd60e51b815260048101938452825160248201528251606094859460009490939192839260440191908083838983156109de5781810151838201526020016109c6565b6000610b0f8261102e565b90505b919050565b604080518082018252601781526000805160206111748339815191526020808301918252925162461bcd60e51b815260048101938452825160248201528251600094928392604401918083838983156109de5781810151838201526020016109c6565b600581565b60068181548110610b8f57600080fd5b6000918252602090912001546001600160a01b0316905081565b606080600080600080600060405180604001604052806017815260200160008051602061117483398151915281525090610c245760405162461bcd60e51b81526020600482018181528351602484015283519092839260449091019190850190808383600083156109de5781810151838201526020016109c6565b50506040805160008082526020820181815282840190935290979196509450849350839250829150565b60018054604080516020600284861615610100026000190190941693909304601f81018490048402820184019092528181529291830182828015610cd35780601f10610ca857610100808354040283529160200191610cd3565b820191906000526020600020905b815481529060010190602001808311610cb657829003601f168201915b505050505081565b6000610ce5611059565b905090565b60008091565b6004546001600160a01b03163314610d0a57610d0a611064565b60408051808201909152600e81526d0a0e4d2c6ca40e8dede40d0d2ced60931b6020820152600160801b8310610d815760405162461bcd60e51b81526020600482018181528351602484015283519092839260449091019190850190808383600083156109de5781810151838201526020016109c6565b506008546007546001850190910201428111801590610da35750600954810142105b6040518060400160405280601881526020017f52657665616c20706572696f64206e6f7420616374697665000000000000000081525090610e255760405162461bcd60e51b81526020600482018181528351602484015283519092839260449091019190850190808383600083156109de5781810151838201526020016109c6565b506000848152600a602090815260408083206001600160a01b038916808552908352818420879055815187815242938101939093528282018490526060830193909352518692917fc1b1d37612887c207efe8cb44f4069b7f10c45edaf6e8405648a94e02b6e9ec7919081900360800190a35050505050565b6000918252600a602090815260408084206001600160a01b0393909316845291905290205490565b6000610b0f826110cc565b60058181548110610b8f57600080fd5b600080610eec611059565b905080610efd576000915050610a8b565b610f09600182036110cc565b91505090565b6000806000806000806000806060600060405180604001604052806017815260200160008051602061117483398151915281525090610f8f5760405162461bcd60e51b81526020600482018181528351602484015283519092839260449091019190850190808383600083156109de5781810151838201526020016109c6565b5060008080808080808080604051908082528060200260200182016040528015610fc3578160200160208202803683370190505b50985098509850985098509850985098509850909192939495969798565b6000806000806000610ff1611059565b945060085485600101026007540193506009548401925060009150600090509091929394565b600092915050565b6004546001600160a01b031681565b600060075482101561104257506000610b12565b60085460075483038161105157fe5b049050610b12565b6000610ce54261102e565b604080518082018252600d81526c1058d8d95cdcc819195b9a5959609a1b6020808301918252925162461bcd60e51b815260048101938452825160248201528251929392839260449092019190808383600083156109de5781810151838201526020016109c6565b6004805460408051633352da4560e21b8152928301849052516000926001600160a01b039092169163cd4b6914916024808301926020929190829003018186803b15801561111957600080fd5b505afa15801561112d573d6000803e3d6000fd5b505050506040513d602081101561114357600080fd5b5051604080516020808201939093523081830152815180820383018152606090910190915280519101209291505056fe556e617661696c61626c6520666f722074657374696e67000000000000000000a2646970667358221220d46ee4d8e70d1fb09f70aee871b55f50e2bf8db43014b8bbb5407aa43021dce664736f6c63430007060033",
    "linkReferences": {},
    "deployedLinkReferences": {}
}