{
  "_format": "hh-sol-artifact-1",
  "contractName": "Supply",
  "sourceName": "contracts/inflation/implementation/Supply.sol",
  "abi": [
    {
      "inputs": [
        {
          "internalType": "address",
          "name": "_governance",
          "type": "address"
        },
        {
          "internalType": "address",
          "name": "_addressUpdater",
          "type": "address"
        },
        {
          "internalType": "uint256",
          "name": "_initialGenesisAmountWei",
          "type": "uint256"
        },
        {
          "internalType": "uint256",
          "name": "_totalExcludedSupplyWei",
          "type": "uint256"
        },
        {
          "internalType": "contract IITokenPool[]",
          "name": "_tokenPools",
          "type": "address[]"
        },
        {
          "internalType": "address[]",
          "name": "_foundationAddresses",
          "type": "address[]"
        },
        {
          "internalType": "contract IISupply",
          "name": "_oldSupply",
          "type": "address"
        }
      ],
      "stateMutability": "nonpayable",
      "type": "constructor"
    },
    {
      "anonymous": false,
      "inputs": [
        {
          "indexed": false,
          "internalType": "uint256",
          "name": "actual",
          "type": "uint256"
        },
        {
          "indexed": false,
          "internalType": "uint256",
          "name": "expected",
          "type": "uint256"
        }
      ],
      "name": "AuthorizedInflationUpdateError",
      "type": "event"
    },
    {
      "anonymous": false,
      "inputs": [
        {
          "indexed": false,
          "internalType": "address[]",
          "name": "addedFoundationAddresses",
          "type": "address[]"
        },
        {
          "indexed": false,
          "internalType": "address[]",
          "name": "removedFoundationAddresses",
          "type": "address[]"
        }
      ],
      "name": "FoundationAddressesChanged",
      "type": "event"
    },
    {
      "anonymous": false,
      "inputs": [
        {
          "indexed": false,
          "internalType": "bytes4",
          "name": "selector",
          "type": "bytes4"
        },
        {
          "indexed": false,
          "internalType": "uint256",
          "name": "allowedAfterTimestamp",
          "type": "uint256"
        },
        {
          "indexed": false,
          "internalType": "bytes",
          "name": "encodedCall",
          "type": "bytes"
        }
      ],
      "name": "GovernanceCallTimelocked",
      "type": "event"
    },
    {
      "anonymous": false,
      "inputs": [
        {
          "indexed": false,
          "internalType": "address",
          "name": "initialGovernance",
          "type": "address"
        }
      ],
      "name": "GovernanceInitialised",
      "type": "event"
    },
    {
      "anonymous": false,
      "inputs": [
        {
          "indexed": false,
          "internalType": "address",
          "name": "governanceSettings",
          "type": "address"
        }
      ],
      "name": "GovernedProductionModeEntered",
      "type": "event"
    },
    {
      "anonymous": false,
      "inputs": [
        {
          "indexed": false,
          "internalType": "bytes4",
          "name": "selector",
          "type": "bytes4"
        },
        {
          "indexed": false,
          "internalType": "uint256",
          "name": "timestamp",
          "type": "uint256"
        }
      ],
      "name": "TimelockedGovernanceCallCanceled",
      "type": "event"
    },
    {
      "anonymous": false,
      "inputs": [
        {
          "indexed": false,
          "internalType": "bytes4",
          "name": "selector",
          "type": "bytes4"
        },
        {
          "indexed": false,
          "internalType": "uint256",
          "name": "timestamp",
          "type": "uint256"
        }
      ],
      "name": "TimelockedGovernanceCallExecuted",
      "type": "event"
    },
    {
      "inputs": [
        {
          "internalType": "contract IITokenPool",
          "name": "_tokenPool",
          "type": "address"
        },
        {
          "internalType": "uint256",
          "name": "_increaseDistributedSupplyByAmountWei",
          "type": "uint256"
        }
      ],
      "name": "addTokenPool",
      "outputs": [],
      "stateMutability": "nonpayable",
      "type": "function"
    },
    {
      "inputs": [],
      "name": "burnAddress",
      "outputs": [
        {
          "internalType": "address payable",
          "name": "",
          "type": "address"
        }
      ],
      "stateMutability": "pure",
      "type": "function"
    },
    {
      "inputs": [],
      "name": "burnAddressSongbirdTxFee",
      "outputs": [
        {
          "internalType": "address payable",
          "name": "",
          "type": "address"
        }
      ],
      "stateMutability": "pure",
      "type": "function"
    },
    {
      "inputs": [
        {
          "internalType": "bytes4",
          "name": "_selector",
          "type": "bytes4"
        }
      ],
      "name": "cancelGovernanceCall",
      "outputs": [],
      "stateMutability": "nonpayable",
      "type": "function"
    },
    {
      "inputs": [
        {
          "internalType": "address[]",
          "name": "_foundationAddressesToAdd",
          "type": "address[]"
        },
        {
          "internalType": "address[]",
          "name": "_foundationAddressesToRemove",
          "type": "address[]"
        }
      ],
      "name": "changeFoundationAddresses",
      "outputs": [],
      "stateMutability": "nonpayable",
      "type": "function"
    },
    {
      "inputs": [
        {
          "internalType": "uint256",
          "name": "_amountWei",
          "type": "uint256"
        }
      ],
      "name": "decreaseDistributedSupply",
      "outputs": [],
      "stateMutability": "nonpayable",
      "type": "function"
    },
    {
      "inputs": [],
      "name": "distributedExcludedSupplyWei",
      "outputs": [
        {
          "internalType": "uint256",
          "name": "",
          "type": "uint256"
        }
      ],
      "stateMutability": "view",
      "type": "function"
    },
    {
      "inputs": [
        {
          "internalType": "bytes4",
          "name": "_selector",
          "type": "bytes4"
        }
      ],
      "name": "executeGovernanceCall",
      "outputs": [],
      "stateMutability": "nonpayable",
      "type": "function"
    },
    {
      "inputs": [],
      "name": "getAddressUpdater",
      "outputs": [
        {
          "internalType": "address",
          "name": "_addressUpdater",
          "type": "address"
        }
      ],
      "stateMutability": "view",
      "type": "function"
    },
    {
      "inputs": [
        {
          "internalType": "uint256",
          "name": "_blockNumber",
          "type": "uint256"
        }
      ],
      "name": "getCirculatingSupplyAt",
      "outputs": [
        {
          "internalType": "uint256",
          "name": "_circulatingSupplyWei",
          "type": "uint256"
        }
      ],
      "stateMutability": "view",
      "type": "function"
    },
    {
      "inputs": [
        {
          "internalType": "uint256",
          "name": "_blockNumber",
          "type": "uint256"
        }
      ],
      "name": "getCirculatingSupplyAtCached",
      "outputs": [
        {
          "internalType": "uint256",
          "name": "_circulatingSupplyWei",
          "type": "uint256"
        }
      ],
      "stateMutability": "nonpayable",
      "type": "function"
    },
    {
      "inputs": [],
      "name": "getFoundationAddresses",
      "outputs": [
        {
          "internalType": "address[]",
          "name": "",
          "type": "address[]"
        }
      ],
      "stateMutability": "view",
      "type": "function"
    },
    {
      "inputs": [],
      "name": "getInflatableBalance",
      "outputs": [
        {
          "internalType": "uint256",
          "name": "_inflatableBalanceWei",
          "type": "uint256"
        }
      ],
      "stateMutability": "view",
      "type": "function"
    },
    {
      "inputs": [],
      "name": "governance",
      "outputs": [
        {
          "internalType": "address",
          "name": "",
          "type": "address"
        }
      ],
      "stateMutability": "view",
      "type": "function"
    },
    {
      "inputs": [],
      "name": "governanceSettings",
      "outputs": [
        {
          "internalType": "contract IGovernanceSettings",
          "name": "",
          "type": "address"
        }
      ],
      "stateMutability": "view",
      "type": "function"
    },
    {
      "inputs": [
        {
          "internalType": "uint256",
          "name": "_amountWei",
          "type": "uint256"
        }
      ],
      "name": "increaseDistributedSupply",
      "outputs": [],
      "stateMutability": "nonpayable",
      "type": "function"
    },
    {
      "inputs": [],
      "name": "inflation",
      "outputs": [
        {
          "internalType": "address",
          "name": "",
          "type": "address"
        }
      ],
      "stateMutability": "view",
      "type": "function"
    },
    {
      "inputs": [],
      "name": "initialGenesisAmountWei",
      "outputs": [
        {
          "internalType": "uint256",
          "name": "",
          "type": "uint256"
        }
      ],
      "stateMutability": "view",
      "type": "function"
    },
    {
      "inputs": [
        {
          "internalType": "address",
          "name": "_initialGovernance",
          "type": "address"
        }
      ],
      "name": "initialise",
      "outputs": [],
      "stateMutability": "nonpayable",
      "type": "function"
    },
    {
      "inputs": [],
      "name": "oldSupply",
      "outputs": [
        {
          "internalType": "contract IISupply",
          "name": "",
          "type": "address"
        }
      ],
      "stateMutability": "view",
      "type": "function"
    },
    {
      "inputs": [],
      "name": "productionMode",
      "outputs": [
        {
          "internalType": "bool",
          "name": "",
          "type": "bool"
        }
      ],
      "stateMutability": "view",
      "type": "function"
    },
    {
      "inputs": [],
      "name": "switchOverBlock",
      "outputs": [
        {
          "internalType": "uint256",
          "name": "",
          "type": "uint256"
        }
      ],
      "stateMutability": "view",
      "type": "function"
    },
    {
      "inputs": [],
      "name": "switchToProductionMode",
      "outputs": [],
      "stateMutability": "nonpayable",
      "type": "function"
    },
    {
      "inputs": [
        {
          "internalType": "bytes4",
          "name": "",
          "type": "bytes4"
        }
      ],
      "name": "timelockedCalls",
      "outputs": [
        {
          "internalType": "uint256",
          "name": "allowedAfterTimestamp",
          "type": "uint256"
        },
        {
          "internalType": "bytes",
          "name": "encodedCall",
          "type": "bytes"
        }
      ],
      "stateMutability": "view",
      "type": "function"
    },
    {
      "inputs": [
        {
          "internalType": "uint256",
          "name": "",
          "type": "uint256"
        }
      ],
      "name": "tokenPools",
      "outputs": [
        {
          "internalType": "contract IITokenPool",
          "name": "tokenPool",
          "type": "address"
        },
        {
          "internalType": "uint256",
          "name": "totalLockedWei",
          "type": "uint256"
        },
        {
          "internalType": "uint256",
          "name": "totalInflationAuthorizedWei",
          "type": "uint256"
        },
        {
          "internalType": "uint256",
          "name": "totalClaimedWei",
          "type": "uint256"
        }
      ],
      "stateMutability": "view",
      "type": "function"
    },
    {
      "inputs": [],
      "name": "totalClaimedWei",
      "outputs": [
        {
          "internalType": "uint256",
          "name": "",
          "type": "uint256"
        }
      ],
      "stateMutability": "view",
      "type": "function"
    },
    {
      "inputs": [],
      "name": "totalExcludedSupplyWei",
      "outputs": [
        {
          "internalType": "uint256",
          "name": "",
          "type": "uint256"
        }
      ],
      "stateMutability": "view",
      "type": "function"
    },
    {
      "inputs": [],
      "name": "totalInflationAuthorizedWei",
      "outputs": [
        {
          "internalType": "uint256",
          "name": "",
          "type": "uint256"
        }
      ],
      "stateMutability": "view",
      "type": "function"
    },
    {
      "inputs": [],
      "name": "totalLockedWei",
      "outputs": [
        {
          "internalType": "uint256",
          "name": "",
          "type": "uint256"
        }
      ],
      "stateMutability": "view",
      "type": "function"
    },
    {
      "inputs": [
        {
          "internalType": "uint256",
          "name": "_inflationAuthorizedWei",
          "type": "uint256"
        }
      ],
      "name": "updateAuthorizedInflationAndCirculatingSupply",
      "outputs": [],
      "stateMutability": "nonpayable",
      "type": "function"
    },
    {
      "inputs": [],
      "name": "updateCirculatingSupply",
      "outputs": [],
      "stateMutability": "nonpayable",
      "type": "function"
    },
    {
      "inputs": [
        {
          "internalType": "bytes32[]",
          "name": "_contractNameHashes",
          "type": "bytes32[]"
        },
        {
          "internalType": "address[]",
          "name": "_contractAddresses",
          "type": "address[]"
        }
      ],
      "name": "updateContractAddresses",
      "outputs": [],
      "stateMutability": "nonpayable",
      "type": "function"
    }
  ],
  "bytecode": "0x60c06040523480156200001157600080fd5b50604051620035ce380380620035ce833981810160405260e08110156200003757600080fd5b81516020830151604080850151606086015160808701805193519597949692959194919392820192846401000000008211156200007357600080fd5b9083019060208201858111156200008957600080fd5b8251866020820283011164010000000082111715620000a757600080fd5b82525081516020918201928201910280838360005b83811015620000d6578181015183820152602001620000bc565b50505050905001604052602001805160405193929190846401000000008211156200010057600080fd5b9083019060208201858111156200011657600080fd5b82518660208202830111640100000000821117156200013457600080fd5b82525081516020918201928201910280838360005b838110156200016357818101518382015260200162000149565b50505050919091016040525060200151915086905087806001600160a01b038116156200019557620001958162000452565b506001600160a01b038116620001e5576040805162461bcd60e51b815260206004820152601060248201526f5f676f7665726e616e6365207a65726f60801b604482015290519081900360640190fd5b50620001f18162000515565b5060408051808201909152601b81527f696e697469616c2067656e6573697320616d6f756e74207a65726f0000000000602082015285620002b35760405162461bcd60e51b81526004018080602001828103825283818151815260200191508051906020019080838360005b83811015620002775781810151838201526020016200025d565b50505050905090810190601f168015620002a55780820380516001836020036101000a031916815260200191505b509250505060405180910390fd5b50608085905260a0849052620002e0620002da868662000539602090811b6200172117901c565b6200059c565b60005b83518110156200031b5762000312848281518110620002fe57fe5b6020026020010151620005e960201b60201c565b600101620002e3565b506200033782600e620006fe60201b6200177e1790919060201c565b604080516000808252602082019092527f5c3fa658268afebe402cb474fc8481cb13cb4f9230b78161b64024af71ed94989184919050604051808060200180602001838103835285818151815260200191508051906020019060200280838360005b83811015620003b357818101518382015260200162000399565b50505050905001838103825284818151815260200191508051906020019060200280838360005b83811015620003f4578181015183820152602001620003da565b5050505090500194505050505060405180910390a16001600160a01b038116156200043b57600b80546001600160a01b0319166001600160a01b038316179055600019600c555b620004456200073f565b5050505050505062000f19565b600054600160a01b900460ff1615620004b2576040805162461bcd60e51b815260206004820152601460248201527f696e697469616c6973656420213d2066616c7365000000000000000000000000604482015290519081900360640190fd5b60008054600160a01b60ff60a01b19909116176001600160a01b0319166001600160a01b03831690811790915560408051918252517f9789733827840833afc031fb2ef9ab6894271f77bad2085687cf4ae5c7bee4db916020908290030190a150565b7f714f205b2abd25bef1d06a1af944e38c113fe6160375c4e1d6d5cf28848e771955565b60008282111562000591576040805162461bcd60e51b815260206004820152601e60248201527f536166654d6174683a207375627472616374696f6e206f766572666c6f770000604482015290519081900360640190fd5b508082035b92915050565b620005e6620005d082620005bc60026200097560201b620017af1760201c565b6200098360201b620017bb1790919060201c565b6002620009e560201b6200181c1790919060201c565b50565b60095460005b81811015620006ae57600981815481106200060657fe5b60009182526020909120600490910201546001600160a01b0384811691161415620006a557604080518082018252601881527f746f6b656e20706f6f6c20616c726561647920616464656400000000000000006020808301918252925162461bcd60e51b81526004810193845282516024820152825192939283926044909201919080838360008315620002775781810151838201526020016200025d565b600101620005ef565b5060098054600101808255600082905283919083908110620006cc57fe5b6000918252602090912060049091020180546001600160a01b0319166001600160a01b03929092169190911790555050565b60005b81518110156200073a5762000731838383815181106200071d57fe5b602002602001015162000ab560201b60201c565b60010162000701565b505050565b60095460005b8181101562000960576000600982815481106200075e57fe5b600091825260208220600491820201805460408051632dafdbbf60e01b81529051929550849384936001600160a01b0390931692632dafdbbf928083019260609291829003018186803b158015620007b557600080fd5b505afa158015620007ca573d6000803e3d6000fd5b505050506040513d6060811015620007e157600080fd5b50805160208083015160409093015191955091935091508190620008129085908590620017bb62000983821b17901c565b10156200081b57fe5b60006200083b8560020154846200053960201b620017211790919060201c565b905062000859816007546200098360201b620017bb1790919060201c565b60078190555060006200087f8660030154846200053960201b620017211790919060201c565b90506200088c816200059c565b620008a8816008546200098360201b620017bb1790919060201c565b60085560018601548510620008ef5760018601548503620008c98162000b24565b620008e5816006546200098360201b620017bb1790919060201c565b600655506200093d565b600085876001015403905062000916816005546200053960201b620017211790919060201c565b60058190555062000938816006546200053960201b620017211790919060201c565b600655505b505060018085019390935560028401919091556003909201919091550162000745565b506200096b62000b58565b620005e662000ba7565b600062000596824362000cad565b600082820183811015620009de576040805162461bcd60e51b815260206004820152601b60248201527f536166654d6174683a206164646974696f6e206f766572666c6f770000000000604482015290519081900360640190fd5b9392505050565b81548062000a2b5760408051808201909152438152602080820184815285546001818101885560008881529390932093516002909102909301928355519101556200073a565b600083600001600183038154811062000a4057fe5b6000918252602090912060029091020180549091504381141562000a6b576001820184905562000aae565b80431162000a7557fe5b604080518082019091524381526020808201868152875460018181018a5560008a81529390932093516002909102909301928355519101555b5050505050565b6001600160a01b03811660009081526001830160205260409020541562000adc5762000b20565b8154600180820184556000848152602080822090930180546001600160a01b0319166001600160a01b03861690811790915585549082529185019092526040909120555b5050565b620005e6620005d08262000b4460026200097560201b620017af1760201c565b6200053960201b620017211790919060201c565b600062000b7a61dead31600160981b3162000983602090811b620017bb17901c565b905062000ba262000b9c600d54836200053960201b620017211790919060201c565b62000b24565b600d55565b600080600e60000180548060200260200160405190810160405280929190818152602001828054801562000c0557602002820191906000526020600020905b81546001600160a01b0316815260019091019060200180831162000be6575b5050505050905060005b815181101562000c5c5762000c5182828151811062000c2a57fe5b60200260200101516001600160a01b031631846200098360201b620017bb1790919060201c565b925060010162000c0f565b5081601054141562000c7057505062000cab565b81601054111562000c965762000c9082601054036200059c60201b60201c565b62000ca6565b60105462000ca690830362000b24565b506010555b565b81546000908062000cc357600091505062000596565b438310158062000cf7575083600001600182038154811062000ce157fe5b9060005260206000209060020201600001548310155b1562000d2b5783600001600182038154811062000d1057fe5b90600052602060002090600202016001015491505062000596565b6001840154845485908290811062000d3f57fe5b90600052602060002090600202016000015484101562000da457801562000d985760405162461bcd60e51b81526004018080602001828103825260308152602001806200359e6030913960400191505060405180910390fd5b60009250505062000596565b600062000db386838762000de2565b905085600001818154811062000dc557fe5b906000526020600020906002020160010154935050505092915050565b600080839050600062000e09600187805490506200053960201b620017211790919060201c565b90505b8181111562000ea757600062000e51600262000e3d6001620005bc87876200098360201b620017bb1790919060201c565b62000eb060201b620018e61790919060201c565b90508487828154811062000e6157fe5b9060005260206000209060020201600001541162000e825780925062000ea0565b62000e9d6001826200053960201b620017211790919060201c565b91505b5062000e0c565b50949350505050565b600080821162000f07576040805162461bcd60e51b815260206004820152601a60248201527f536166654d6174683a206469766973696f6e206279207a65726f000000000000604482015290519081900360640190fd5b81838162000f1157fe5b049392505050565b60805160a05161265262000f4c60003980610977528061159252806121805250806109ad528061149552506126526000f3fe608060405234801561001057600080fd5b50600436106101ef5760003560e01c80639f71043e1161010f578063d9330e63116100a2578063e433f81811610071578063e433f818146106f6578063efac34cc146106fe578063efcf7eb214610756578063f5a9838314610782576101ef565b8063d9330e6314610698578063dc2603bb146106b5578063df3d9b73146106bd578063e17f212e146106da576101ef565b8063be0522e0116100de578063be0522e014610678578063bfebbd2614610680578063c6faaafa14610688578063d0c1c39314610690576101ef565b80639f71043e1461040d578063a2420e2014610415578063b00c0b7614610432578063b646900414610555576101ef565b80635aa6e6751161018757806367fc40291161015657806367fc40291461031257806370d5ae051461033957806374e6310e146103415780639d6a890f146103e7576101ef565b80635aa6e675146102be5780635ff27079146102c65780636159b0a3146102ed57806362354e031461030a576101ef565b80631b73b4cb116101c35780631b73b4cb1461029c57806332ae2927146102a45780633c8c461c146102ac5780635267a15d146102b6576101ef565b8062c0f916146101f4578063037b0890146102415780630585084414610270578063099eea6214610294575b600080fd5b6102116004803603602081101561020a57600080fd5b503561078a565b604080516001600160a01b0390951685526020850193909352838301919091526060830152519081900360800190f35b61025e6004803603602081101561025757600080fd5b50356107ce565b60408051918252519081900360200190f35b6102786108c4565b604080516001600160a01b039092168252519081900360200190f35b61025e6108d3565b61025e6108d9565b61025e6109de565b6102b46109e4565b005b610278610abc565b610278610ae1565b6102b4600480360360208110156102dc57600080fd5b50356001600160e01b031916610b82565b6102b46004803603602081101561030357600080fd5b5035610ee4565b610278610f47565b6102b46004803603602081101561032857600080fd5b50356001600160e01b031916610f5f565b610278611047565b6103686004803603602081101561035757600080fd5b50356001600160e01b03191661104d565b6040518083815260200180602001828103825283818151815260200191508051906020019080838360005b838110156103ab578181015183820152602001610393565b50505050905090810190601f1680156103d85780820380516001836020036101000a031916815260200191505b50935050505060405180910390f35b6102b4600480360360208110156103fd57600080fd5b50356001600160a01b03166110f3565b61025e6111ac565b6102b46004803603602081101561042b57600080fd5b50356111b2565b6102b46004803603604081101561044857600080fd5b810190602081018135600160201b81111561046257600080fd5b82018360208201111561047457600080fd5b803590602001918460208302840111600160201b8311171561049557600080fd5b9190808060200260200160405190810160405280939291908181526020018383602002808284376000920191909152509295949360208101935035915050600160201b8111156104e457600080fd5b8201836020820111156104f657600080fd5b803590602001918460208302840111600160201b8311171561051757600080fd5b919080806020026020016040519081016040528093929190818152602001838360200280828437600092019190915250929550611294945050505050565b6102b46004803603604081101561056b57600080fd5b810190602081018135600160201b81111561058557600080fd5b82018360208201111561059757600080fd5b803590602001918460208302840111600160201b831117156105b857600080fd5b9190808060200260200160405190810160405280939291908181526020018383602002808284376000920191909152509295949360208101935035915050600160201b81111561060757600080fd5b82018360208201111561061957600080fd5b803590602001918460208302840111600160201b8311171561063a57600080fd5b91908080602002602001604051908101604052809392919081815260200183836020028082843760009201919091525092955061133b945050505050565b610278611484565b61025e611493565b6102786114b7565b61025e6114bf565b61025e600480360360208110156106ae57600080fd5b50356114c5565b61025e611542565b6102b4600480360360208110156106d357600080fd5b5035611548565b6106e2611580565b604080519115158252519081900360200190f35b61025e611590565b6107066115b4565b60408051602080825283518183015283519192839290830191858101910280838360005b8381101561074257818101518382015260200161072a565b505050509050019250505060405180910390f35b6102b46004803603604081101561076c57600080fd5b506001600160a01b038135169060200135611619565b6102b461165a565b6009818154811061079a57600080fd5b600091825260209091206004909102018054600182015460028301546003909301546001600160a01b039092169350919084565b6000438210610824576040805162461bcd60e51b815260206004820181905260248201527f43616e206f6e6c79206265207573656420666f72207061737420626c6f636b73604482015290519081900360640190fd5b600c548210156108ae57600b54604080516237b08960e41b81526004810185905290516001600160a01b039092169163037b0890916024808201926020929091908290030181600087803b15801561087b57600080fd5b505af115801561088f573d6000803e3d6000fd5b505050506040513d60208110156108a557600080fd5b505190506108bf565b6108bb600460028461194d565b5090505b919050565b600b546001600160a01b031681565b60055481565b6000600c5443101561096657600b60009054906101000a90046001600160a01b03166001600160a01b0316631b73b4cb6040518163ffffffff1660e01b815260040160206040518083038186803b15801561093357600080fd5b505afa158015610947573d6000803e3d6000fd5b505050506040513d602081101561095d57600080fd5b505190506109db565b6109d86006546109d26109a46005547f000000000000000000000000000000000000000000000000000000000000000061172190919063ffffffff16565b6008546109d2907f0000000000000000000000000000000000000000000000000000000000000000906117bb565b90611721565b90505b90565b60065481565b600a5460408051808201909152600e81526d696e666c6174696f6e206f6e6c7960901b6020820152906001600160a01b03163314610aa05760405162461bcd60e51b81526004018080602001828103825283818151815260200191508051906020019080838360005b83811015610a65578181015183820152602001610a4d565b50505050905090810190601f168015610a925780820380516001836020036101000a031916815260200191505b509250505060405180910390fd5b50600019600c541415610ab25743600c555b610aba6119ab565b565b7f714f205b2abd25bef1d06a1af944e38c113fe6160375c4e1d6d5cf28848e77195490565b60008054600160a81b900460ff16610b04576000546001600160a01b03166109d8565b73183faff6997c98a812a3b98748fc80241d08f3126001600160a01b031663732524946040518163ffffffff1660e01b815260040160206040518083038186803b158015610b5157600080fd5b505afa158015610b65573d6000803e3d6000fd5b505050506040513d6020811015610b7b57600080fd5b5051905090565b60408051630debfda360e41b8152336004820152905173183faff6997c98a812a3b98748fc80241d08f3129163debfda30916024808301926020929190829003018186803b158015610bd357600080fd5b505afa158015610be7573d6000803e3d6000fd5b505050506040513d6020811015610bfd57600080fd5b5051610c40576040805162461bcd60e51b815260206004820152600d60248201526c37b7363c9032bc32b1baba37b960991b604482015290519081900360640190fd5b6001600160e01b0319811660009081526001602052604090208054610cac576040805162461bcd60e51b815260206004820152601a60248201527f74696d656c6f636b3a20696e76616c69642073656c6563746f72000000000000604482015290519081900360640190fd5b8054421015610d02576040805162461bcd60e51b815260206004820152601960248201527f74696d656c6f636b3a206e6f7420616c6c6f7765642079657400000000000000604482015290519081900360640190fd5b6000816001018054600181600116156101000203166002900480601f016020809104026020016040519081016040528092919081815260200182805460018160011615610100020316600290048015610d9c5780601f10610d7157610100808354040283529160200191610d9c565b820191906000526020600020905b815481529060010190602001808311610d7f57829003601f168201915b5050506001600160e01b0319861660009081526001602081905260408220828155949550909250610dd09150830182612507565b50506000805460ff60b01b1916600160b01b178155604051825130918491819060208401908083835b60208310610e185780518252601f199092019160209182019101610df9565b6001836020036101000a0380198251168184511680821785525050505050509050019150506000604051808303816000865af19150503d8060008114610e7a576040519150601f19603f3d011682016040523d82523d6000602084013e610e7f565b606091505b50506000805460ff60b01b19169055604080516001600160e01b03198716815242602082015281519293507fa7326b57fc9cfe267aaea5e7f0b01757154d265620a0585819416ee9ddd2c438929081900390910190a1610ede81611b5b565b50505050565b600054600160b01b900460ff1680610f065750600054600160a81b900460ff16155b15610f3957610f13611b78565b600554610f209082611721565b600555610f2c81611bad565b610f346119ab565b610f44565b610f44600036611bc6565b50565b73183faff6997c98a812a3b98748fc80241d08f31281565b610f67611d56565b6001600160e01b03198116600090815260016020526040902054610fd2576040805162461bcd60e51b815260206004820152601a60248201527f74696d656c6f636b3a20696e76616c69642073656c6563746f72000000000000604482015290519081900360640190fd5b604080516001600160e01b03198316815242602082015281517f7735b2391c38a81419c513e30ca578db7158eadd7101511b23e221c654d19cf8929181900390910190a16001600160e01b0319811660009081526001602081905260408220828155919061104290830182612507565b505050565b61dead90565b600160208181526000928352604092839020805481840180548651600296821615610100026000190190911695909504601f810185900485028601850190965285855290949193929091908301828280156110e95780601f106110be576101008083540402835291602001916110e9565b820191906000526020600020905b8154815290600101906020018083116110cc57829003601f168201915b5050505050905082565b600054600160a01b900460ff1615611149576040805162461bcd60e51b8152602060048201526014602482015273696e697469616c6973656420213d2066616c736560601b604482015290519081900360640190fd5b60008054600160a01b60ff60a01b19909116176001600160a01b0319166001600160a01b03831690811790915560408051918252517f9789733827840833afc031fb2ef9ab6894271f77bad2085687cf4ae5c7bee4db916020908290030190a150565b60085481565b600a5460408051808201909152600e81526d696e666c6174696f6e206f6e6c7960901b6020820152906001600160a01b031633146112315760405162461bcd60e51b8152602060048201818152835160248401528351909283926044909101919085019080838360008315610a65578181015183820152602001610a4d565b5060075461123d6119ab565b61124781836117bb565b6007541461129057600754604080519183900382526020820184905280517feeb8970a03ae6e5930263b6b2553da66b8e20080d79a3f33c139e5855574eb739281900390910190a15b5050565b61129c610abc565b6001600160a01b0316336001600160a01b0316146112f8576040805162461bcd60e51b815260206004820152601460248201527337b7363c9030b2323932b9b9903ab83230ba32b960611b604482015290519081900360640190fd5b61133161132c83836040518060400160405280600e81526020016d20b2323932b9b9aab83230ba32b960911b815250611db5565b611ee2565b6112908282611f06565b600054600160b01b900460ff168061135d5750600054600160a81b900460ff16155b156114795761136a611b78565b7f5c3fa658268afebe402cb474fc8481cb13cb4f9230b78161b64024af71ed94988282604051808060200180602001838103835285818151815260200191508051906020019060200280838360005b838110156113d15781810151838201526020016113b9565b50505050905001838103825284818151815260200191508051906020019060200280838360005b838110156114105781810151838201526020016113f8565b5050505090500194505050505060405180910390a160005b81518110156114605761145882828151811061144057fe5b6020026020010151600e611f5690919063ffffffff16565b600101611428565b5061146c600e8361177e565b6114746119ab565b611290565b611290600036611bc6565b600a546001600160a01b031681565b7f000000000000000000000000000000000000000000000000000000000000000081565b600160981b90565b60075481565b6000600c5482101561153157600b546040805163d9330e6360e01b81526004810185905290516001600160a01b039092169163d9330e6391602480820192602092909190829003018186803b15801561151d57600080fd5b505afa15801561088f573d6000803e3d6000fd5b61153c600283612051565b92915050565b600c5481565b600054600160b01b900460ff168061156a5750600054600160a81b900460ff16155b15610f3957611577611b78565b610f2c81612177565b600054600160a81b900460ff1681565b7f000000000000000000000000000000000000000000000000000000000000000081565b6060600e60000180548060200260200160405190810160405280929190818152602001828054801561160f57602002820191906000526020600020905b81546001600160a01b031681526001909101906020018083116115f1575b5050505050905090565b600054600160b01b900460ff168061163b5750600054600160a81b900460ff16155b1561147957611648611b78565b61165181612177565b61146c826121d1565b611662611d56565b600054600160a81b900460ff16156116c1576040805162461bcd60e51b815260206004820152601a60248201527f616c726561647920696e2070726f64756374696f6e206d6f6465000000000000604482015290519081900360640190fd5b60008054600161ff0160a01b031916600160a81b1790556040805173183faff6997c98a812a3b98748fc80241d08f312815290517f83af113638b5422f9e977cebc0aaf0eaf2188eb9a8baae7f9d46c42b33a1560c9181900360200190a1565b600082821115611778576040805162461bcd60e51b815260206004820152601e60248201527f536166654d6174683a207375627472616374696f6e206f766572666c6f770000604482015290519081900360640190fd5b50900390565b60005b8151811015611042576117a78383838151811061179a57fe5b60200260200101516122df565b600101611781565b600061153c8243612051565b600082820183811015611815576040805162461bcd60e51b815260206004820152601b60248201527f536166654d6174683a206164646974696f6e206f766572666c6f770000000000604482015290519081900360640190fd5b9392505050565b815480611860576040805180820190915243815260208082018481528554600181810188556000888152939093209351600290910290930192835551910155611042565b600083600001600183038154811061187457fe5b6000918252602090912060029091020180549091504381141561189d57600182018490556118df565b8043116118a657fe5b604080518082019091524381526020808201868152875460018181018a5560008a81529390932093516002909102909301928355519101555b5050505050565b600080821161193c576040805162461bcd60e51b815260206004820152601a60248201527f536166654d6174683a206469766973696f6e206279207a65726f000000000000604482015290519081900360640190fd5b81838161194557fe5b049392505050565b6000818152602084905260408120548190801561197357600019019150600090506119a3565b600061197f8686612051565b905061198c8160016117bb565b600086815260208990526040902055925060019150505b935093915050565b60095460005b81811015611b4a576000600982815481106119c857fe5b600091825260208220600491820201805460408051632dafdbbf60e01b81529051929550849384936001600160a01b0390931692632dafdbbf928083019260609291829003018186803b158015611a1e57600080fd5b505afa158015611a32573d6000803e3d6000fd5b505050506040513d6060811015611a4857600080fd5b5080516020820151604090920151909450909250905080611a6984846117bb565b1015611a7157fe5b6000611a8a85600201548461172190919063ffffffff16565b600754909150611a9a90826117bb565b6007556003850154600090611ab0908490611721565b9050611abb81612348565b600854611ac890826117bb565b60085560018601548510611afc5760018601548503611ae681611bad565b600654611af390826117bb565b60065550611b28565b60018601546005549086900390611b139082611721565b600555600654611b239082611721565b600655505b50506001808501939093556002840191909155600390920191909155016119b1565b50611b5361235f565b610f44612397565b3d604051818101604052816000823e8215611b74578181f35b8181fd5b600054600160b01b900460ff1615611ba557333014611b9357fe5b6000805460ff60b01b19169055610aba565b610aba611d56565b610f44611bbe826109d260026117af565b60029061181c565b611bce611d56565b600082359050600073183faff6997c98a812a3b98748fc80241d08f3126001600160a01b0316636221a54b6040518163ffffffff1660e01b815260040160206040518083038186803b158015611c2357600080fd5b505afa158015611c37573d6000803e3d6000fd5b505050506040513d6020811015611c4d57600080fd5b505160408051808201825242830180825282516020601f89018190048102820181019094528781529394509290918281019190889088908190840183828082843760009201829052509390945250506001600160e01b03198616815260016020818152604090922084518155848301518051919450611cd19392850192019061254b565b509050507fed948300a3694aa01d4a6b258bfd664350193d770c0b51f8387277f6d83ea3b68382878760405180856001600160e01b0319168152602001848152602001806020018281038252848482818152602001925080828437600083820152604051601f909101601f191690920182900397509095505050505050a15050505050565b611d5e610ae1565b6001600160a01b0316336001600160a01b031614610aba576040805162461bcd60e51b815260206004820152600f60248201526e6f6e6c7920676f7665726e616e636560881b604482015290519081900360640190fd5b600080826040516020018080602001828103825283818151815260200191508051906020019080838360005b83811015611df9578181015183820152602001611de1565b50505050905090810190601f168015611e265780820380516001836020036101000a031916815260200191505b50925050506040516020818303038152906040528051906020012090506000805b8651811015611e8e57868181518110611e5c57fe5b6020026020010151831415611e8657858181518110611e7757fe5b60200260200101519150611e8e565b600101611e47565b506001600160a01b038116611ed9576040805162461bcd60e51b815260206004820152600c60248201526b61646472657373207a65726f60a01b604482015290519081900360640190fd5b95945050505050565b7f714f205b2abd25bef1d06a1af944e38c113fe6160375c4e1d6d5cf28848e771955565b611f3282826040518060400160405280600981526020016824b7333630ba34b7b760b91b815250611db5565b600a80546001600160a01b0319166001600160a01b03929092169190911790555050565b6001600160a01b038116600090815260018301602052604090205480611f7c5750611290565b825481101561200457825460009084906000198101908110611f9a57fe5b60009182526020909120015484546001600160a01b039091169150819085906000198501908110611fc757fe5b600091825260208083209190910180546001600160a01b0319166001600160a01b0394851617905592909116815260018501909152604090208190555b825483908061200f57fe5b60008281526020808220830160001990810180546001600160a01b03191690559092019092556001600160a01b03841682526001850190526040812055505050565b81546000908061206557600091505061153c565b4383101580612097575083600001600182038154811061208157fe5b9060005260206000209060020201600001548310155b156120c8578360000160018203815481106120ae57fe5b90600052602060002090600202016001015491505061153c565b600184015484548590829081106120db57fe5b90600052602060002090600202016000015484101561213c5780156121315760405162461bcd60e51b81526004018080602001828103825260308152602001806125ed6030913960400191505060405180910390fd5b60009250505061153c565b6000612149868387612481565b905085600001818154811061215a57fe5b906000526020600020906002020160010154935050505092915050565b806121ad6005547f000000000000000000000000000000000000000000000000000000000000000061172190919063ffffffff16565b10156121b557fe5b6121be81612348565b6005546121cb90826117bb565b60055550565b60095460005b8181101561229057600981815481106121ec57fe5b60009182526020909120600490910201546001600160a01b038481169116141561228857604080518082018252601881527f746f6b656e20706f6f6c20616c726561647920616464656400000000000000006020808301918252925162461bcd60e51b81526004810193845282516024820152825192939283926044909201919080838360008315610a65578181015183820152602001610a4d565b6001016121d7565b50600980546001018082556000829052839190839081106122ad57fe5b6000918252602090912060049091020180546001600160a01b0319166001600160a01b03929092169190911790555050565b6001600160a01b03811660009081526001830160205260409020541561230457611290565b8154600180820184556000848152602080822090930180546001600160a01b0319166001600160a01b03959095169485179055845493815293019052604090912055565b610f44611bbe8261235960026117af565b906117bb565b600061237361dead31600160981b316117bb565b905061239261238d600d548361172190919063ffffffff16565b611bad565b600d55565b600080600e6000018054806020026020016040519081016040528092919081815260200182805480156123f357602002820191906000526020600020905b81546001600160a01b031681526001909101906020018083116123d5575b5050505050905060005b81518110156124405761243682828151811061241557fe5b60200260200101516001600160a01b031631846117bb90919063ffffffff16565b92506001016123fd565b50816010541415612452575050610aba565b81601054111561246e576124698260105403612348565b61247b565b61247b6010548303611bad565b50601055565b825460009083908290612495906001611721565b90505b818111156124fe5760006124bc60026124b6600161235986886117bb565b906118e6565b9050848782815481106124cb57fe5b906000526020600020906002020160000154116124ea578092506124f8565b6124f5816001611721565b91505b50612498565b50949350505050565b50805460018160011615610100020316600290046000825580601f1061252d5750610f44565b601f016020900490600052602060002090810190610f4491906125d7565b828054600181600116156101000203166002900490600052602060002090601f01602090048101928261258157600085556125c7565b82601f1061259a57805160ff19168380011785556125c7565b828001600101855582156125c7579182015b828111156125c75782518255916020019190600101906125ac565b506125d39291506125d7565b5090565b5b808211156125d357600081556001016125d856fe436865636b506f696e74486973746f72793a2072656164696e672066726f6d20636c65616e65642d757020626c6f636ba2646970667358221220bc0ec610623cfbf56a306707e0da8b2ab2a585e67545ee4302d5a306ed7967a464736f6c63430007060033436865636b506f696e74486973746f72793a2072656164696e672066726f6d20636c65616e65642d757020626c6f636b",
  "linkReferences": {},
  "deployedLinkReferences": {}
}