{
    "_format": "hh-sol-artifact-1",
    "contractName": "Inflation",
    "sourceName": "contracts/inflation/implementation/Inflation.sol",
    "abi": [
        {
            "inputs": [
                {
                    "internalType": "address",
                    "name": "_governance",
                    "type": "address"
                },
                {
                    "internalType": "contract FlareDaemon",
                    "name": "_flareDaemon",
                    "type": "address"
                },
                {
                    "internalType": "address",
                    "name": "_addressUpdater",
                    "type": "address"
                },
                {
                    "internalType": "uint256",
                    "name": "_rewardEpochStartTs",
                    "type": "uint256"
                }
            ],
            "stateMutability": "nonpayable",
            "type": "constructor"
        },
        {
            "anonymous": false,
            "inputs": [
                {
                    "indexed": false,
                    "internalType": "bytes4",
                    "name": "selector",
                    "type": "bytes4"
                },
                {
                    "indexed": false,
                    "internalType": "uint256",
                    "name": "allowedAfterTimestamp",
                    "type": "uint256"
                },
                {
                    "indexed": false,
                    "internalType": "bytes",
                    "name": "encodedCall",
                    "type": "bytes"
                }
            ],
            "name": "GovernanceCallTimelocked",
            "type": "event"
        },
        {
            "anonymous": false,
            "inputs": [
                {
                    "indexed": false,
                    "internalType": "address",
                    "name": "initialGovernance",
                    "type": "address"
                }
            ],
            "name": "GovernanceInitialised",
            "type": "event"
        },
        {
            "anonymous": false,
            "inputs": [
                {
                    "indexed": false,
                    "internalType": "address",
                    "name": "governanceSettings",
                    "type": "address"
                }
            ],
            "name": "GovernedProductionModeEntered",
            "type": "event"
        },
        {
            "anonymous": false,
            "inputs": [
                {
                    "indexed": false,
                    "internalType": "contract IIInflationAllocation",
                    "name": "inflationAllocation",
                    "type": "address"
                }
            ],
            "name": "InflationAllocationSet",
            "type": "event"
        },
        {
            "anonymous": false,
            "inputs": [
                {
                    "indexed": false,
                    "internalType": "uint256",
                    "name": "amountWei",
                    "type": "uint256"
                }
            ],
            "name": "InflationAuthorized",
            "type": "event"
        },
        {
            "anonymous": false,
            "inputs": [
                {
                    "indexed": false,
                    "internalType": "uint256",
                    "name": "amountWei",
                    "type": "uint256"
                },
                {
                    "indexed": false,
                    "internalType": "uint256",
                    "name": "selfDestructAmountWei",
                    "type": "uint256"
                }
            ],
            "name": "MintingReceived",
            "type": "event"
        },
        {
            "anonymous": false,
            "inputs": [
                {
                    "indexed": false,
                    "internalType": "uint256",
                    "name": "startTimeStamp",
                    "type": "uint256"
                },
                {
                    "indexed": false,
                    "internalType": "uint256",
                    "name": "endTimeStamp",
                    "type": "uint256"
                },
                {
                    "indexed": false,
                    "internalType": "uint256",
                    "name": "inflatableSupplyWei",
                    "type": "uint256"
                },
                {
                    "indexed": false,
                    "internalType": "uint256",
                    "name": "recognizedInflationWei",
                    "type": "uint256"
                },
                {
                    "indexed": false,
                    "internalType": "uint256",
                    "name": "totalAuthorizedInflationWei",
                    "type": "uint256"
                },
                {
                    "indexed": false,
                    "internalType": "uint256",
                    "name": "totalInflationTopupRequestedWei",
                    "type": "uint256"
                },
                {
                    "indexed": false,
                    "internalType": "uint256",
                    "name": "totalInflationTopupReceivedWei",
                    "type": "uint256"
                },
                {
                    "indexed": false,
                    "internalType": "uint256",
                    "name": "totalInflationTopupWithdrawnWei",
                    "type": "uint256"
                }
            ],
            "name": "NewAnnumInitialized",
            "type": "event"
        },
        {
            "anonymous": false,
            "inputs": [
                {
                    "indexed": false,
                    "internalType": "contract IIInflationReceiver",
                    "name": "inflationReceiver",
                    "type": "address"
                },
                {
                    "indexed": false,
                    "internalType": "uint256",
                    "name": "amountWei",
                    "type": "uint256"
                }
            ],
            "name": "RewardServiceDailyAuthorizedInflationComputed",
            "type": "event"
        },
        {
            "anonymous": false,
            "inputs": [
                {
                    "indexed": false,
                    "internalType": "contract IIInflationReceiver",
                    "name": "inflationReceiver",
                    "type": "address"
                },
                {
                    "indexed": false,
                    "internalType": "uint256",
                    "name": "amountWei",
                    "type": "uint256"
                }
            ],
            "name": "RewardServiceTopupComputed",
            "type": "event"
        },
        {
            "anonymous": false,
            "inputs": [
                {
                    "indexed": false,
                    "internalType": "contract IIInflationReceiver",
                    "name": "inflationReceiver",
                    "type": "address"
                },
                {
                    "indexed": false,
                    "internalType": "uint256",
                    "name": "amountWei",
                    "type": "uint256"
                }
            ],
            "name": "RewardServiceTopupRequestReceived",
            "type": "event"
        },
        {
            "anonymous": false,
            "inputs": [
                {
                    "indexed": false,
                    "internalType": "contract IISupply",
                    "name": "oldSupply",
                    "type": "address"
                },
                {
                    "indexed": false,
                    "internalType": "contract IISupply",
                    "name": "newSupply",
                    "type": "address"
                }
            ],
            "name": "SupplySet",
            "type": "event"
        },
        {
            "anonymous": false,
            "inputs": [
                {
                    "indexed": false,
                    "internalType": "bytes4",
                    "name": "selector",
                    "type": "bytes4"
                },
                {
                    "indexed": false,
                    "internalType": "uint256",
                    "name": "timestamp",
                    "type": "uint256"
                }
            ],
            "name": "TimelockedGovernanceCallCanceled",
            "type": "event"
        },
        {
            "anonymous": false,
            "inputs": [
                {
                    "indexed": false,
                    "internalType": "bytes4",
                    "name": "selector",
                    "type": "bytes4"
                },
                {
                    "indexed": false,
                    "internalType": "uint256",
                    "name": "timestamp",
                    "type": "uint256"
                }
            ],
            "name": "TimelockedGovernanceCallExecuted",
            "type": "event"
        },
        {
            "anonymous": false,
            "inputs": [
                {
                    "components": [
                        {
                            "internalType": "enum TopupType",
                            "name": "topupType",
                            "type": "uint8"
                        },
                        {
                            "internalType": "uint256",
                            "name": "topupFactorX100",
                            "type": "uint256"
                        },
                        {
                            "internalType": "bool",
                            "name": "configured",
                            "type": "bool"
                        }
                    ],
                    "indexed": false,
                    "internalType": "struct TopupConfiguration",
                    "name": "topupConfiguration",
                    "type": "tuple"
                }
            ],
            "name": "TopupConfigurationSet",
            "type": "event"
        },
        {
            "anonymous": false,
            "inputs": [
                {
                    "indexed": false,
                    "internalType": "uint256",
                    "name": "amountWei",
                    "type": "uint256"
                }
            ],
            "name": "TopupRequested",
            "type": "event"
        },
        {
            "inputs": [
                {
                    "internalType": "bytes4",
                    "name": "_selector",
                    "type": "bytes4"
                }
            ],
            "name": "cancelGovernanceCall",
            "outputs": [],
            "stateMutability": "nonpayable",
            "type": "function"
        },
        {
            "inputs": [],
            "name": "daemonize",
            "outputs": [
                {
                    "internalType": "bool",
                    "name": "",
                    "type": "bool"
                }
            ],
            "stateMutability": "nonpayable",
            "type": "function"
        },
        {
            "inputs": [
                {
                    "internalType": "bytes4",
                    "name": "_selector",
                    "type": "bytes4"
                }
            ],
            "name": "executeGovernanceCall",
            "outputs": [],
            "stateMutability": "nonpayable",
            "type": "function"
        },
        {
            "inputs": [],
            "name": "flareDaemon",
            "outputs": [
                {
                    "internalType": "contract FlareDaemon",
                    "name": "",
                    "type": "address"
                }
            ],
            "stateMutability": "view",
            "type": "function"
        },
        {
            "inputs": [],
            "name": "getAddressUpdater",
            "outputs": [
                {
                    "internalType": "address",
                    "name": "_addressUpdater",
                    "type": "address"
                }
            ],
            "stateMutability": "view",
            "type": "function"
        },
        {
            "inputs": [
                {
                    "internalType": "uint256",
                    "name": "_index",
                    "type": "uint256"
                }
            ],
            "name": "getAnnum",
            "outputs": [
                {
                    "components": [
                        {
                            "internalType": "uint256",
                            "name": "recognizedInflationWei",
                            "type": "uint256"
                        },
                        {
                            "internalType": "uint256",
                            "name": "startTimeStamp",
                            "type": "uint256"
                        },
                        {
                            "internalType": "uint256",
                            "name": "endTimeStamp",
                            "type": "uint256"
                        },
                        {
                            "components": [
                                {
                                    "components": [
                                        {
                                            "internalType": "contract IIInflationReceiver",
                                            "name": "inflationReceiver",
                                            "type": "address"
                                        },
                                        {
                                            "internalType": "uint256",
                                            "name": "authorizedInflationWei",
                                            "type": "uint256"
                                        },
                                        {
                                            "internalType": "uint256",
                                            "name": "lastDailyAuthorizedInflationWei",
                                            "type": "uint256"
                                        },
                                        {
                                            "internalType": "uint256",
                                            "name": "inflationTopupRequestedWei",
                                            "type": "uint256"
                                        },
                                        {
                                            "internalType": "uint256",
                                            "name": "inflationTopupReceivedWei",
                                            "type": "uint256"
                                        },
                                        {
                                            "internalType": "uint256",
                                            "name": "inflationTopupWithdrawnWei",
                                            "type": "uint256"
                                        }
                                    ],
                                    "internalType": "struct RewardService.RewardServiceState[]",
                                    "name": "rewardServices",
                                    "type": "tuple[]"
                                },
                                {
                                    "internalType": "uint256",
                                    "name": "totalAuthorizedInflationWei",
                                    "type": "uint256"
                                },
                                {
                                    "internalType": "uint256",
                                    "name": "totalInflationTopupRequestedWei",
                                    "type": "uint256"
                                },
                                {
                                    "internalType": "uint256",
                                    "name": "totalInflationTopupReceivedWei",
                                    "type": "uint256"
                                },
                                {
                                    "internalType": "uint256",
                                    "name": "totalInflationTopupWithdrawnWei",
                                    "type": "uint256"
                                }
                            ],
                            "internalType": "struct RewardServices.RewardServicesState",
                            "name": "rewardServices",
                            "type": "tuple"
                        }
                    ],
                    "internalType": "struct InflationAnnum.InflationAnnumState",
                    "name": "",
                    "type": "tuple"
                }
            ],
            "stateMutability": "view",
            "type": "function"
        },
        {
            "inputs": [],
            "name": "getContractName",
            "outputs": [
                {
                    "internalType": "string",
                    "name": "",
                    "type": "string"
                }
            ],
            "stateMutability": "pure",
            "type": "function"
        },
        {
            "inputs": [],
            "name": "getCurrentAnnum",
            "outputs": [
                {
                    "components": [
                        {
                            "internalType": "uint256",
                            "name": "recognizedInflationWei",
                            "type": "uint256"
                        },
                        {
                            "internalType": "uint256",
                            "name": "startTimeStamp",
                            "type": "uint256"
                        },
                        {
                            "internalType": "uint256",
                            "name": "endTimeStamp",
                            "type": "uint256"
                        },
                        {
                            "components": [
                                {
                                    "components": [
                                        {
                                            "internalType": "contract IIInflationReceiver",
                                            "name": "inflationReceiver",
                                            "type": "address"
                                        },
                                        {
                                            "internalType": "uint256",
                                            "name": "authorizedInflationWei",
                                            "type": "uint256"
                                        },
                                        {
                                            "internalType": "uint256",
                                            "name": "lastDailyAuthorizedInflationWei",
                                            "type": "uint256"
                                        },
                                        {
                                            "internalType": "uint256",
                                            "name": "inflationTopupRequestedWei",
                                            "type": "uint256"
                                        },
                                        {
                                            "internalType": "uint256",
                                            "name": "inflationTopupReceivedWei",
                                            "type": "uint256"
                                        },
                                        {
                                            "internalType": "uint256",
                                            "name": "inflationTopupWithdrawnWei",
                                            "type": "uint256"
                                        }
                                    ],
                                    "internalType": "struct RewardService.RewardServiceState[]",
                                    "name": "rewardServices",
                                    "type": "tuple[]"
                                },
                                {
                                    "internalType": "uint256",
                                    "name": "totalAuthorizedInflationWei",
                                    "type": "uint256"
                                },
                                {
                                    "internalType": "uint256",
                                    "name": "totalInflationTopupRequestedWei",
                                    "type": "uint256"
                                },
                                {
                                    "internalType": "uint256",
                                    "name": "totalInflationTopupReceivedWei",
                                    "type": "uint256"
                                },
                                {
                                    "internalType": "uint256",
                                    "name": "totalInflationTopupWithdrawnWei",
                                    "type": "uint256"
                                }
                            ],
                            "internalType": "struct RewardServices.RewardServicesState",
                            "name": "rewardServices",
                            "type": "tuple"
                        }
                    ],
                    "internalType": "struct InflationAnnum.InflationAnnumState",
                    "name": "",
                    "type": "tuple"
                }
            ],
            "stateMutability": "view",
            "type": "function"
        },
        {
            "inputs": [],
            "name": "getNextExpectedTopupTs",
            "outputs": [
                {
                    "internalType": "uint256",
                    "name": "_nextTopupTs",
                    "type": "uint256"
                }
            ],
            "stateMutability": "view",
            "type": "function"
        },
        {
            "inputs": [
                {
                    "internalType": "contract IIInflationReceiver",
                    "name": "_inflationReceiver",
                    "type": "address"
                }
            ],
            "name": "getTopupConfiguration",
            "outputs": [
                {
                    "components": [
                        {
                            "internalType": "enum TopupType",
                            "name": "topupType",
                            "type": "uint8"
                        },
                        {
                            "internalType": "uint256",
                            "name": "topupFactorX100",
                            "type": "uint256"
                        },
                        {
                            "internalType": "bool",
                            "name": "configured",
                            "type": "bool"
                        }
                    ],
                    "internalType": "struct TopupConfiguration",
                    "name": "_topupConfiguration",
                    "type": "tuple"
                }
            ],
            "stateMutability": "nonpayable",
            "type": "function"
        },
        {
            "inputs": [],
            "name": "getTotals",
            "outputs": [
                {
                    "internalType": "uint256",
                    "name": "_totalAuthorizedInflationWei",
                    "type": "uint256"
                },
                {
                    "internalType": "uint256",
                    "name": "_totalInflationTopupRequestedWei",
                    "type": "uint256"
                },
                {
                    "internalType": "uint256",
                    "name": "_totalInflationTopupReceivedWei",
                    "type": "uint256"
                },
                {
                    "internalType": "uint256",
                    "name": "_totalInflationTopupWithdrawnWei",
                    "type": "uint256"
                },
                {
                    "internalType": "uint256",
                    "name": "_totalRecognizedInflationWei",
                    "type": "uint256"
                },
                {
                    "internalType": "uint256",
                    "name": "_totalSelfDestructReceivedWei",
                    "type": "uint256"
                }
            ],
            "stateMutability": "view",
            "type": "function"
        },
        {
            "inputs": [],
            "name": "governance",
            "outputs": [
                {
                    "internalType": "address",
                    "name": "",
                    "type": "address"
                }
            ],
            "stateMutability": "view",
            "type": "function"
        },
        {
            "inputs": [],
            "name": "governanceSettings",
            "outputs": [
                {
                    "internalType": "contract IGovernanceSettings",
                    "name": "",
                    "type": "address"
                }
            ],
            "stateMutability": "view",
            "type": "function"
        },
        {
            "inputs": [],
            "name": "inflationAllocation",
            "outputs": [
                {
                    "internalType": "contract IIInflationAllocation",
                    "name": "",
                    "type": "address"
                }
            ],
            "stateMutability": "view",
            "type": "function"
        },
        {
            "inputs": [
                {
                    "internalType": "address",
                    "name": "_initialGovernance",
                    "type": "address"
                }
            ],
            "name": "initialise",
            "outputs": [],
            "stateMutability": "nonpayable",
            "type": "function"
        },
        {
            "inputs": [],
            "name": "lastAuthorizationTs",
            "outputs": [
                {
                    "internalType": "uint256",
                    "name": "",
                    "type": "uint256"
                }
            ],
            "stateMutability": "view",
            "type": "function"
        },
        {
            "inputs": [],
            "name": "productionMode",
            "outputs": [
                {
                    "internalType": "bool",
                    "name": "",
                    "type": "bool"
                }
            ],
            "stateMutability": "view",
            "type": "function"
        },
        {
            "inputs": [],
            "name": "receiveMinting",
            "outputs": [],
            "stateMutability": "payable",
            "type": "function"
        },
        {
            "inputs": [],
            "name": "rewardEpochStartTs",
            "outputs": [
                {
                    "internalType": "uint256",
                    "name": "",
                    "type": "uint256"
                }
            ],
            "stateMutability": "view",
            "type": "function"
        },
        {
            "inputs": [],
            "name": "rewardEpochStartedTs",
            "outputs": [
                {
                    "internalType": "uint256",
                    "name": "",
                    "type": "uint256"
                }
            ],
            "stateMutability": "view",
            "type": "function"
        },
        {
            "inputs": [
                {
                    "internalType": "contract IIInflationReceiver",
                    "name": "_inflationReceiver",
                    "type": "address"
                },
                {
                    "internalType": "enum TopupType",
                    "name": "_topupType",
                    "type": "uint8"
                },
                {
                    "internalType": "uint256",
                    "name": "_topupFactorX100",
                    "type": "uint256"
                }
            ],
            "name": "setTopupConfiguration",
            "outputs": [],
            "stateMutability": "nonpayable",
            "type": "function"
        },
        {
            "inputs": [],
            "name": "supply",
            "outputs": [
                {
                    "internalType": "contract IISupply",
                    "name": "",
                    "type": "address"
                }
            ],
            "stateMutability": "view",
            "type": "function"
        },
        {
            "inputs": [],
            "name": "switchToFallbackMode",
            "outputs": [
                {
                    "internalType": "bool",
                    "name": "",
                    "type": "bool"
                }
            ],
            "stateMutability": "view",
            "type": "function"
        },
        {
            "inputs": [],
            "name": "switchToProductionMode",
            "outputs": [],
            "stateMutability": "nonpayable",
            "type": "function"
        },
        {
            "inputs": [
                {
                    "internalType": "bytes4",
                    "name": "",
                    "type": "bytes4"
                }
            ],
            "name": "timelockedCalls",
            "outputs": [
                {
                    "internalType": "uint256",
                    "name": "allowedAfterTimestamp",
                    "type": "uint256"
                },
                {
                    "internalType": "bytes",
                    "name": "encodedCall",
                    "type": "bytes"
                }
            ],
            "stateMutability": "view",
            "type": "function"
        },
        {
            "inputs": [],
            "name": "totalSelfDestructReceivedWei",
            "outputs": [
                {
                    "internalType": "uint256",
                    "name": "",
                    "type": "uint256"
                }
            ],
            "stateMutability": "view",
            "type": "function"
        },
        {
            "inputs": [
                {
                    "internalType": "bytes32[]",
                    "name": "_contractNameHashes",
                    "type": "bytes32[]"
                },
                {
                    "internalType": "address[]",
                    "name": "_contractAddresses",
                    "type": "address[]"
                }
            ],
            "name": "updateContractAddresses",
            "outputs": [],
            "stateMutability": "nonpayable",
            "type": "function"
        }
    ],
    "bytecode": "0x60c06040523480156200001157600080fd5b50604051620038fa380380620038fa833981016040819052620000349162000206565b81848481806001600160a01b03811615620000545762000054816200011f565b506001600160a01b038116620000a4576040805162461bcd60e51b815260206004820152601060248201526f5f676f7665726e616e6365207a65726f60801b604482015290519081900360640190fd5b506001600160a01b038116620000f5576040805162461bcd60e51b8152602060048201526011602482015270666c617265206461656d6f6e207a65726f60781b604482015290519081900360640190fd5b60601b6001600160601b031916608052506200011181620001e2565b5060a0525062000278915050565b600054600160a01b900460ff16156200017f576040805162461bcd60e51b815260206004820152601460248201527f696e697469616c6973656420213d2066616c7365000000000000000000000000604482015290519081900360640190fd5b60008054600160a01b60ff60a01b19909116176001600160a01b0319166001600160a01b03831690811790915560408051918252517f9789733827840833afc031fb2ef9ab6894271f77bad2085687cf4ae5c7bee4db916020908290030190a150565b7f714f205b2abd25bef1d06a1af944e38c113fe6160375c4e1d6d5cf28848e771955565b600080600080608085870312156200021c578384fd5b845162000229816200025f565b60208601519094506200023c816200025f565b60408601519093506200024f816200025f565b6060959095015193969295505050565b6001600160a01b03811681146200027557600080fd5b50565b60805160601c60a051613642620002b860003980610b5d5280611274525080610af55280610df052806111a552806113bb528061151152506136426000f3fe60806040526004361061019c5760003560e01c80639d6a890f116100ec578063e17f212e1161008a578063f5a9838311610064578063f5a9838314610430578063f5f5ba7214610445578063f639c12c14610467578063f64cee611461047c5761019c565b8063e17f212e146103f1578063e22fdece14610406578063f3f8dcf91461041b5761019c565b8063b8cca0cf116100c6578063b8cca0cf1461039d578063c39049e4146103b2578063c611c2c5146103d4578063c9d3dc87146103dc5761019c565b80639d6a890f14610348578063a107753214610368578063b00c0b761461037d5761019c565b806362354e03116101595780636e61ab96116101335780636e61ab96146102be57806372993615146102de57806374e6310e146102f357806384e10a90146103215761019c565b806362354e031461026757806367fc40291461027c5780636d0e8c341461029c5761019c565b8063047fc9aa146101a157806333ed77cc146101cc5780634b13e872146101ee5780635267a15d1461021b5780635aa6e675146102305780635ff2707914610245575b600080fd5b3480156101ad57600080fd5b506101b661049c565b6040516101c39190613241565b60405180910390f35b3480156101d857600080fd5b506101e16104ab565b6040516101c391906133e4565b3480156101fa57600080fd5b5061020e610209366004612f46565b6104b1565b6040516101c39190613381565b34801561022757600080fd5b506101b6610595565b34801561023c57600080fd5b506101b66105ba565b34801561025157600080fd5b506102656102603660046130ea565b610650565b005b34801561027357600080fd5b506101b66109a5565b34801561028857600080fd5b506102656102973660046130ea565b6109b0565b3480156102a857600080fd5b506102b1610a98565b6040516101c39190613255565b3480156102ca57600080fd5b506102656102d9366004613112565b610eb9565b3480156102ea57600080fd5b506101e1611020565b3480156102ff57600080fd5b5061031361030e3660046130ea565b611026565b6040516101c39291906133ed565b34801561032d57600080fd5b506103366110cc565b6040516101c39695949392919061341c565b34801561035457600080fd5b50610265610363366004612f46565b6110ea565b34801561037457600080fd5b506101b66111a3565b34801561038957600080fd5b50610265610398366004612f62565b6111c7565b3480156103a957600080fd5b506101e1611272565b3480156103be57600080fd5b506103c7611296565b6040516101c391906132a6565b6102656113b0565b3480156103e857600080fd5b506101e16114ee565b3480156103fd57600080fd5b506102b16114f4565b34801561041257600080fd5b506102b1611504565b34801561042757600080fd5b506101b661157d565b34801561043c57600080fd5b5061026561158c565b34801561045157600080fd5b5061045a611646565b6040516101c39190613293565b34801561047357600080fd5b506101e1611669565b34801561048857600080fd5b506103c76104973660046131b8565b61167c565b6003546001600160a01b031681565b600e5481565b6104b9612d76565b60408051808201909152600c81526b06164647265737320697320360a41b602082015282906001600160a01b03821661050e5760405162461bcd60e51b81526004016105059190613293565b60405180910390fd5b506001600160a01b0383166000908152600c60205260409020600281015460ff1661055557805460ff19908116825560786001808401919091556002830180549092161790555b8054839060ff16600181111561056757fe5b9081600181111561057457fe5b905250600181015460208401526002015460ff161515604083015250919050565b7f714f205b2abd25bef1d06a1af944e38c113fe6160375c4e1d6d5cf28848e77195490565b60008054600160a81b900460ff166105dd576000546001600160a01b031661064a565b60076001609c1b016001600160a01b031663732524946040518163ffffffff1660e01b815260040160206040518083038186803b15801561061d57600080fd5b505afa158015610631573d6000803e3d6000fd5b505050506040513d602081101561064757600080fd5b50515b90505b90565b60408051630debfda360e41b8152336004820152905160076001609c1b019163debfda30916024808301926020929190829003018186803b15801561069457600080fd5b505afa1580156106a8573d6000803e3d6000fd5b505050506040513d60208110156106be57600080fd5b5051610701576040805162461bcd60e51b815260206004820152600d60248201526c37b7363c9032bc32b1baba37b960991b604482015290519081900360640190fd5b6001600160e01b031981166000908152600160205260409020805461076d576040805162461bcd60e51b815260206004820152601a60248201527f74696d656c6f636b3a20696e76616c69642073656c6563746f72000000000000604482015290519081900360640190fd5b80544210156107c3576040805162461bcd60e51b815260206004820152601960248201527f74696d656c6f636b3a206e6f7420616c6c6f7765642079657400000000000000604482015290519081900360640190fd5b6000816001018054600181600116156101000203166002900480601f01602080910402602001604051908101604052809291908181526020018280546001816001161561010002031660029004801561085d5780601f106108325761010080835404028352916020019161085d565b820191906000526020600020905b81548152906001019060200180831161084057829003601f168201915b5050506001600160e01b03198616600090815260016020819052604082208281559495509092506108919150830182612d98565b50506000805460ff60b01b1916600160b01b178155604051825130918491819060208401908083835b602083106108d95780518252601f1990920191602091820191016108ba565b6001836020036101000a0380198251168184511680821785525050505050509050019150506000604051808303816000865af19150503d806000811461093b576040519150601f19603f3d011682016040523d82523d6000602084013e610940565b606091505b50506000805460ff60b01b19169055604080516001600160e01b03198716815242602082015281519293507fa7326b57fc9cfe267aaea5e7f0b01757154d265620a0585819416ee9ddd2c438929081900390910190a161099f81611798565b50505050565b60076001609c1b0181565b6109b86117b5565b6001600160e01b03198116600090815260016020526040902054610a23576040805162461bcd60e51b815260206004820152601a60248201527f74696d656c6f636b3a20696e76616c69642073656c6563746f72000000000000604482015290519081900360640190fd5b604080516001600160e01b03198316815242602082015281517f7735b2391c38a81419c513e30ca578db7158eadd7101511b23e221c654d19cf8929181900390910190a16001600160e01b03198116600090815260016020819052604082208281559190610a9390830182612d98565b505050565b60035460408051808201909152600c81526b06164647265737320697320360a41b60208201526000916001600160a01b03169081610ae95760405162461bcd60e51b81526004016105059190613293565b50336001600160a01b037f00000000000000000000000000000000000000000000000000000000000000001614610b5b576040805162461bcd60e51b815260206004820152601160248201527037b7363c90333630b932903230b2b6b7b760791b604482015290519081900360640190fd5b7f0000000000000000000000000000000000000000000000000000000000000000421015610b8c5760019150610eb5565b600e54610b985742600e555b610ba26004611816565b610bb457610baf4261181a565b610be3565b6000610bc06004611b65565b60020154905080421115610be157610be1610bdc826001611bda565b61181a565b505b600b544290610bf59062015180611bda565b11610eb05742600b819055506000610c9c42600260009054906101000a90046001600160a01b03166001600160a01b031663c853b8d46040518163ffffffff1660e01b8152600401600060405180830381600087803b158015610c5757600080fd5b505af1158015610c6b573d6000803e3d6000fd5b505050506040513d6000823e601f3d908101601f19168201604052610c939190810190613019565b60049190611c3d565b90507fe69ea09c0c2d88b5a023a23e65e8ffeb65667d6b7b4076cbee9ba25f5450235581604051610ccd91906133e4565b60405180910390a1600354604051630512107160e51b81526001600160a01b039091169063a2420e2090610d059084906004016133e4565b600060405180830381600087803b158015610d1f57600080fd5b505af1925050508015610d30575060015b610d9357610d3c6134c2565b80610d475750610d61565b8060405162461bcd60e51b81526004016105059190613293565b6040518060600160405280603c81526020016135d1603c913960405162461bcd60e51b81526004016105059190613293565b6000610da0600430611c9f565b90507f1f0936062e6ce780790714a1ec5787d290675660a8566059ac9d6cfb2a336eec81604051610dd191906133e4565b60405180910390a160405163074ef3eb60e51b81526001600160a01b037f0000000000000000000000000000000000000000000000000000000000000000169063e9de7d6090610e259084906004016133e4565b600060405180830381600087803b158015610e3f57600080fd5b505af1925050508015610e50575060015b610ead57610e5c6134c2565b80610d475750604080518082018252601d81527f756e6b6e6f776e206572726f722e20726571756573744d696e74696e670000006020820152905162461bcd60e51b81526105059190600401613293565b50505b600191505b5090565b60408051808201909152600c81526b06164647265737320697320360a41b602082015283906001600160a01b038216610f055760405162461bcd60e51b81526004016105059190613293565b50600054600160b01b900460ff1680610f285750600054600160a81b900460ff16155b1561101557610f35611ce7565b6000836001811115610f4357fe5b1415610f8c57604080518082019091526009815268746f707570206c6f7760b81b602082015260648311610f8a5760405162461bcd60e51b81526004016105059190613293565b505b6001600160a01b0384166000908152600c6020526040902080548490829060ff191660018381811115610fbb57fe5b0217905550600180820184905560028201805460ff191690911790556040517fcf085312d79a75faa5f1b9f6bec58a64813338f5e5e5759573cab22c6da2d25b906110079083906133b0565b60405180910390a15061099f565b61099f600036611d1c565b600d5481565b600160208181526000928352604092839020805481840180548651600296821615610100026000190190911695909504601f810185900485028601850190965285855290949193929091908301828280156110c25780601f10611097576101008083540402835291602001916110c2565b820191906000526020600020905b8154815290600101906020018083116110a557829003601f168201915b5050505050905082565b600754600854600954600a54600654600d5494959394929391929091565b600054600160a01b900460ff1615611140576040805162461bcd60e51b8152602060048201526014602482015273696e697469616c6973656420213d2066616c736560601b604482015290519081900360640190fd5b60008054600160a01b60ff60a01b19909116176001600160a01b0319166001600160a01b03831690811790915560408051918252517f9789733827840833afc031fb2ef9ab6894271f77bad2085687cf4ae5c7bee4db916020908290030190a150565b7f000000000000000000000000000000000000000000000000000000000000000081565b6111cf610595565b6001600160a01b0316336001600160a01b03161461122b576040805162461bcd60e51b815260206004820152601460248201527337b7363c9030b2323932b9b9903ab83230ba32b960611b604482015290519081900360640190fd5b61126461125f83836040518060400160405280600e81526020016d20b2323932b9b9aab83230ba32b960911b815250611e9f565b611fce565b61126e8282611ff2565b5050565b7f000000000000000000000000000000000000000000000000000000000000000081565b61129e612ddc565b6112a86004611b65565b604051806080016040529081600082015481526020016001820154815260200160028201548152602001600382016040518060a001604052908160008201805480602002602001604051908101604052809291908181526020016000905b828210156113775760008481526020908190206040805160c0810182526006860290920180546001600160a01b031683526001808201548486015260028201549284019290925260038101546060840152600481015460808401526005015460a08301529083529092019101611306565b50505050815260200160018201548152602001600282015481526020016003820154815260200160048201548152505081525050905090565b336001600160a01b037f00000000000000000000000000000000000000000000000000000000000000001614611421576040805162461bcd60e51b815260206004820152601160248201527037b7363c90333630b932903230b2b6b7b760791b604482015290519081900360640190fd5b600061142d6004612105565b9050600061143961216e565b90506000611447478361218f565b9050801561146057600d5461145c9082611bda565b600d555b7f992ba5c7b7d6602101783b4d28d0b93011fb883039e68c729b933bf711678627838260405161149192919061340e565b60405180910390a1505050476114a561216e565b146040518060400160405280600e81526020016d6f7574206f662062616c616e636560901b815250906114eb5760405162461bcd60e51b81526004016105059190613293565b50565b600b5481565b600054600160a81b900460ff1681565b6000336001600160a01b037f00000000000000000000000000000000000000000000000000000000000000001614611577576040805162461bcd60e51b815260206004820152601160248201527037b7363c90333630b932903230b2b6b7b760791b604482015290519081900360640190fd5b50600090565b6002546001600160a01b031681565b6115946117b5565b600054600160a81b900460ff16156115f3576040805162461bcd60e51b815260206004820152601a60248201527f616c726561647920696e2070726f64756374696f6e206d6f6465000000000000604482015290519081900360640190fd5b60008054600161ff0160a01b031916600160a81b1790556040805160076001609c1b01815290517f83af113638b5422f9e977cebc0aaf0eaf2188eb9a8baae7f9d46c42b33a1560c9181900360200190a1565b60408051808201909152600981526824b7333630ba34b7b760b91b602082015290565b600b5460009061064a9062015180611bda565b611684612ddc565b61168f6004836121ec565b604051806080016040529081600082015481526020016001820154815260200160028201548152602001600382016040518060a001604052908160008201805480602002602001604051908101604052809291908181526020016000905b8282101561175e5760008481526020908190206040805160c0810182526006860290920180546001600160a01b031683526001808201548486015260028201549284019290925260038101546060840152600481015460808401526005015460a083015290835290920191016116ed565b5050509082525060018201546020820152600282015460408201526003820154606082015260049091015460809091015290525092915050565b3d604051818101604052816000823e82156117b1578181f35b8181fd5b6117bd6105ba565b6001600160a01b0316336001600160a01b031614611814576040805162461bcd60e51b815260206004820152600f60248201526e6f6e6c7920676f7665726e616e636560881b604482015290519081900360640190fd5b565b5490565b600360009054906101000a90046001600160a01b03166001600160a01b0316633c8c461c6040518163ffffffff1660e01b8152600401600060405180830381600087803b15801561186a57600080fd5b505af115801561187e573d6000803e3d6000fd5b505050506000600360009054906101000a90046001600160a01b03166001600160a01b0316631b73b4cb6040518163ffffffff1660e01b815260040160206040518083038186803b1580156118d257600080fd5b505afa1580156118e6573d6000803e3d6000fd5b505050506040513d601f19601f8201168201806040525081019061190a91906131d0565b9050600260009054906101000a90046001600160a01b03166001600160a01b031663981940296040518163ffffffff1660e01b8152600401602060405180830381600087803b15801561195c57600080fd5b505af192505050801561198c575060408051601f3d908101601f19168201909252611989918101906131d0565b60015b6119d0576119986134c2565b80610d47575060405180606001604052806026815260200161358a6026913960405162461bcd60e51b81526004016105059190613293565b6119dd600484848461225e565b5060006119ea6004611b65565b604051806080016040529081600082015481526020016001820154815260200160028201548152602001600382016040518060a001604052908160008201805480602002602001604051908101604052809291908181526020016000905b82821015611ab95760008481526020908190206040805160c0810182526006860290920180546001600160a01b031683526001808201548486015260028201549284019290925260038101546060840152600481015460808401526005015460a08301529083529092019101611a48565b5050505081526020016001820154815260200160028201548152602001600382015481526020016004820154815250508152505090507f677db469fe5eaf40f0415f5433ebc8ebe9ac089662feca0280495fb4c96da29181602001518260400151848460000151856060015160200151866060015160400151876060015160600151886060015160800151604051611b58989796959493929190613444565b60405180910390a1505050565b600080611b7183611816565b11604051806040016040528060088152602001676e6f20616e6e756d60c01b81525090611bb15760405162461bcd60e51b81526004016105059190613293565b5081600001826001015481548110611bc557fe5b90600052602060002090600802019050919050565b600082820183811015611c34576040805162461bcd60e51b815260206004820152601b60248201527f536166654d6174683a206164646974696f6e206f766572666c6f770000000000604482015290519081900360640190fd5b90505b92915050565b600080611c4985611b65565b60028601546003870154919250611c7191611c64848861231e565b600385019291908761233d565b6003860154909250611c839083611bda565b6003860181905560028601541015611c9757fe5b509392505050565b600080611cab84611b65565b9050611cba600382018461258e565b6004850154909250611ccc9083611bda565b6004850181905560038501541015611ce057fe5b5092915050565b600054600160b01b900460ff1615611d1457333014611d0257fe5b6000805460ff60b01b19169055611814565b6118146117b5565b611d246117b5565b600082359050600060076001609c1b016001600160a01b0316636221a54b6040518163ffffffff1660e01b815260040160206040518083038186803b158015611d6c57600080fd5b505afa158015611d80573d6000803e3d6000fd5b505050506040513d6020811015611d9657600080fd5b505160408051808201825242830180825282516020601f89018190048102820181019094528781529394509290918281019190889088908190840183828082843760009201829052509390945250506001600160e01b03198616815260016020818152604090922084518155848301518051919450611e1a93928501920190612e09565b509050507fed948300a3694aa01d4a6b258bfd664350193d770c0b51f8387277f6d83ea3b68382878760405180856001600160e01b0319168152602001848152602001806020018281038252848482818152602001925080828437600083820152604051601f909101601f191690920182900397509095505050505050a15050505050565b600080826040516020018080602001828103825283818151815260200191508051906020019080838360005b83811015611ee3578181015183820152602001611ecb565b50505050905090810190601f168015611f105780820380516001836020036101000a031916815260200191505b50925050506040516020818303038152906040528051906020012090506000805b8651811015611f7857868181518110611f4657fe5b6020026020010151831415611f7057858181518110611f6157fe5b60200260200101519150611f78565b600101611f31565b506001600160a01b038116611fc3576040805162461bcd60e51b815260206004820152600c60248201526b61646472657373207a65726f60a01b604482015290519081900360640190fd5b9150505b9392505050565b7f714f205b2abd25bef1d06a1af944e38c113fe6160375c4e1d6d5cf28848e771955565b600061201d838360405180604001604052806006815260200165537570706c7960d01b815250611e9f565b6003546040519192507f9a9b245c8db671c90d6db95f7ff0c18c15378a1d55ee4aea21759be8ad27d30e9161205d916001600160a01b0316908490613279565b60405180910390a1600380546001600160a01b0319166001600160a01b03831617905560408051808201909152601381527224b7333630ba34b7b720b63637b1b0ba34b7b760691b60208201526120b79084908490611e9f565b600280546001600160a01b0319166001600160a01b0392831617908190556040517f53cd61e1fdebbc2af2597f77a6a3681c1abbd8771874cc85cf65e035cf85b2af92611b58921690613241565b60008061211183611b65565b905061211f816003016126b2565b60058401549092506121319083611bda565b600584018190556004840154101561214557fe5b60068301546121549083611bda565b600684018190556005840154101561216857fe5b50919050565b600d54600a5460095460009261064a9290916121899161218f565b90611bda565b6000828211156121e6576040805162461bcd60e51b815260206004820152601e60248201527f536166654d6174683a207375627472616374696f6e206f766572666c6f770000604482015290519081900360640190fd5b50900390565b60006121f783611816565b8210604051806040016040528060088152602001676e6f20616e6e756d60c01b815250906122385760405162461bcd60e51b81526004016105059190613293565b5082600001828154811061224857fe5b9060005260206000209060080201905092915050565b600061226985611816565b11156122c05761227884611b65565b60020154831160405180604001604052806009815260200168746f6f206561726c7960b81b815250906122be5760405162461bcd60e51b81526004016105059190613293565b505b83546001810185556000858152602090206008909102016122e38185858561285c565b805460028601546122f391611bda565b60028601558454600110156123175760018581015461231191611bda565b60018601555b5050505050565b6000826002015482111561232e57fe5b611c3460016121898585612886565b600081516000141561235157506000612585565b600061236784612361888861218f565b906128b2565b600188015490925082915061237c9082611bda565b600188015561271060005b84518110156125815760006123be8683815181106123a157fe5b60200260200101516020015184866129199092919063ffffffff16565b90506123ca848261218f565b93506123f68683815181106123db57fe5b6020026020010151602001518461218f90919063ffffffff16565b925060008061241c8c89868151811061240b57fe5b602002602001015160000151612a19565b9150915081156124605760008c600001828154811061243757fe5b9060005260206000209060060201905061245a8482612a7c90919063ffffffff16565b506124b1565b8b54600181018d5560008d8152602090208951600690920201906124a5908a908790811061248a57fe5b60200260200101516000015182612a9890919063ffffffff16565b6124af8185612a7c565b505b8784815181106124bd57fe5b6020026020010151600001516001600160a01b031663e2739563846040518263ffffffff1660e01b81526004016124f491906133e4565b600060405180830381600087803b15801561250e57600080fd5b505af1158015612522573d6000803e3d6000fd5b505050507fea9b87b57d7b678dd3c9da933ff547ad63395e04ee46cd57894c7b53618dc39a88858151811061255357fe5b6020026020010151600001518460405161256e929190613260565b60405180910390a1505050600101612387565b5050505b95945050505050565b6000805b835481101561268e576000836001600160a01b0316634b13e8728660000184815481106125bb57fe5b60009182526020909120600690910201546040516001600160e01b031960e084901b1681526125f6916001600160a01b031690600401613241565b606060405180830381600087803b15801561261057600080fd5b505af1158015612624573d6000803e3d6000fd5b505050506040513d601f19601f820116820180604052508101906126489190613152565b905061268361267c8287600001858154811061266057fe5b9060005260206000209060060201612ad990919063ffffffff16565b8490611bda565b925050600101612592565b50600283015461269e9082611bda565b6002840181905560018401541015611c3757fe5b6000805b82548110156121685760006126e68460000183815481106126d357fe5b9060005260206000209060060201612c2d565b9050612717818560000184815481106126fb57fe5b9060005260206000209060060201612c4a90919063ffffffff16565b60038401546127269082611bda565b6003850155835484908390811061273957fe5b60009182526020822060069091020154604080516306201f1d60e01b815290516001600160a01b03909216926306201f1d928592600480820193929182900301818588803b15801561278a57600080fd5b505af115801561279e573d6000803e3d6000fd5b50505050506127d2818560000184815481106127b657fe5b9060005260206000209060060201612c6590919063ffffffff16565b60048401546127e19082611bda565b60048501556127f08382611bda565b92507f4839bc860ac633cfbce1fe18dc3c135733eca7b2dc8ed40e6e6b713a431bcf4484600001838154811061282257fe5b600091825260209091206006909102015460405161284b916001600160a01b0316908490613260565b60405180910390a1506001016126b6565b6001840183905561286d8282612c80565b845561287883612caf565b846002018190555050505050565b6002820154600090808311156128a0576000915050611c37565b6128aa8382612cc7565b915050611c37565b6000808211612908576040805162461bcd60e51b815260206004820152601a60248201527f536166654d6174683a206469766973696f6e206279207a65726f000000000000604482015290519081900360640190fd5b81838161291157fe5b049392505050565b6000808211612962576040805162461bcd60e51b815260206004820152601060248201526f4469766973696f6e206279207a65726f60801b604482015290519081900360640190fd5b8361296f57506000611fc7565b8383028385828161297c57fe5b0414156129955782818161298c57fe5b04915050611fc7565b60008386816129a057fe5b04905060008487816129ae57fe5b06905060008587816129bc57fe5b04905060008688816129ca57fe5b069050612a0c6129de886123618685612ce2565b6121896129eb8686612ce2565b6121896129f88987612ce2565b6121898d612a068c8b612ce2565b90612ce2565b9998505050505050505050565b600080805b8454811015612a7457836001600160a01b0316856000018281548110612a4057fe5b60009182526020909120600690910201546001600160a01b03161415612a6c5780915060019250612a74565b600101612a1e565b509250929050565b6001820154612a8b9082611bda565b6001830155600290910155565b81546001600160a01b0319166001600160a01b0391909116178155600060018201819055600282018190556003820181905560048201819055600590910155565b81546000906001600160a01b0316318183516001811115612af657fe5b1415612b975760208301516002850154600091612b1591906064612919565b9050600082821115612b2e57612b2b828461218f565b90505b6000612b3987612c2d565b905081811115612b4c5760009450612b59565b612b56828261218f565b94505b6000612b808860040154612b7a848b6001015461218f90919063ffffffff16565b9061218f565b905080861115612b8e578095505b50505050612bcc565b600183516001811115612ba657fe5b1415612bc65760038401546001850154612bbf9161218f565b9150612bcc565b60009150fe5b6003840154612bdb9083611bda565b600385015583546040517f9145b1e2df1630c4e7b11419b36afb9de07a4dc780726dfa970f265b1d627ad791612c1e916001600160a01b03909116908590613260565b60405180910390a15092915050565b6000611c378260040154836003015461218f90919063ffffffff16565b6004820154612c599082611bda565b82600401819055505050565b6005820154612c749082611bda565b82600501819055505050565b6000611c34612c9384846201d4c0612919565b612caa6b033b2e3c9fd0803ce8000000600c6128b2565b612d3b565b6000611c376001612cc184601e612d51565b90612d66565b600081831115612cd657600080fd5b62015180838303612911565b600082612cf157506000611c37565b82820282848281612cfe57fe5b0414611c345760405162461bcd60e51b81526004018080602001828103825260218152602001806135b06021913960400191505060405180910390fd5b6000818310612d4a5781611c34565b5090919050565b620151808102820182811015611c3757600080fd5b80820382811115611c3757600080fd5b6040805160608101909152806000815260006020820181905260409091015290565b50805460018160011615610100020316600290046000825580601f10612dbe57506114eb565b601f0160209004906000526020600020908101906114eb9190612e8d565b6040518060800160405280600081526020016000815260200160008152602001612e04612ea2565b905290565b828054600181600116156101000203166002900490600052602060002090601f016020900481019282612e3f5760008555612e85565b82601f10612e5857805160ff1916838001178555612e85565b82800160010185558215612e85579182015b82811115612e85578251825591602001919060010190612e6a565b50610eb59291505b5b80821115610eb55760008155600101612e8e565b6040518060a0016040528060608152602001600081526020016000815260200160008152602001600081525090565b600082601f830112612ee1578081fd5b81356020612ef6612ef18361349e565b61347a565b8281528181019085830183850287018401881015612f12578586fd5b855b85811015612f39578135612f2781613567565b84529284019290840190600101612f14565b5090979650505050505050565b600060208284031215612f57578081fd5b8135611c3481613567565b60008060408385031215612f74578081fd5b823567ffffffffffffffff80821115612f8b578283fd5b818501915085601f830112612f9e578283fd5b81356020612fae612ef18361349e565b82815281810190858301838502870184018b1015612fca578788fd5b8796505b84871015612fec578035835260019690960195918301918301612fce565b5096505086013592505080821115613002578283fd5b5061300f85828601612ed1565b9150509250929050565b6000602080838503121561302b578182fd5b825167ffffffffffffffff80821115613042578384fd5b818501915085601f830112613055578384fd5b8151613063612ef18261349e565b818152848101908486016040808502870188018b1015613081578889fd5b8896505b848710156130db5780828c03121561309b578889fd5b805181810181811088821117156130ae57fe5b825282516130bb81613567565b815282890151898201528452600196909601959287019290810190613085565b50909998505050505050505050565b6000602082840312156130fb578081fd5b81356001600160e01b031981168114611c34578182fd5b600080600060608486031215613126578081fd5b833561313181613567565b925060208401356131418161357c565b929592945050506040919091013590565b600060608284031215613163578081fd5b6040516060810181811067ffffffffffffffff8211171561318057fe5b604052825161318e8161357c565b815260208381015190820152604083015180151581146131ac578283fd5b60408201529392505050565b6000602082840312156131c9578081fd5b5035919050565b6000602082840312156131e1578081fd5b5051919050565b60008151808452815b8181101561320d576020818501810151868301820152016131f1565b8181111561321e5782602083870101525b50601f01601f19169290920160200192915050565b6002811061323d57fe5b9052565b6001600160a01b0391909116815260200190565b901515815260200190565b6001600160a01b03929092168252602082015260400190565b6001600160a01b0392831681529116602082015260400190565b600060208252611c3460208301846131e8565b6000602080835260a0845182850152818501516040818187015280870151915060608281880152808801519250608080818901526101408801845186878b01528181518084526101608c01915089830193508a92505b8083101561335057835180516001600160a01b031683528a8101518b84015287810151888401528681015187840152858101518684015289015189830152928901926001929092019160c0909101906132fc565b509786015160c08b015250509183015160e08801528201516101008701520151610120909401939093529392505050565b6000606082019050613394828451613233565b6020830151602083015260408301511515604083015292915050565b60006060820190506133c68260ff855416613233565b6001830154602083015260029092015460ff16151560409091015290565b90815260200190565b60008382526040602083015261340660408301846131e8565b949350505050565b918252602082015260400190565b958652602086019490945260408501929092526060840152608083015260a082015260c00190565b978852602088019690965260408701949094526060860192909252608085015260a084015260c083015260e08201526101000190565b60405181810167ffffffffffffffff8111828210171561349657fe5b604052919050565b600067ffffffffffffffff8211156134b257fe5b5060209081020190565b60e01c90565b600060443d10156134d25761064d565b600481823e6308c379a06134e682516134bc565b146134f05761064d565b6040513d600319016004823e80513d67ffffffffffffffff8160248401118184111715613520575050505061064d565b8284019250825191508082111561353a575050505061064d565b503d830160208284010111156135525750505061064d565b601f01601f1916810160200160405291505090565b6001600160a01b03811681146114eb57600080fd5b600281106114eb57600080fdfe756e6b6e6f776e206572726f722e20676574416e6e75616c50657263656e7461676542697073536166654d6174683a206d756c7469706c69636174696f6e206f766572666c6f77756e6b6e6f776e206572726f722e20757064617465417574686f72697a6564496e666c6174696f6e416e6443697263756c6174696e67537570706c79a26469706673582212205a13d78e8a5a0dbd8d921e6fa68a0e633caef87371ed20885f8c1f6d5c22c3cb64736f6c63430007060033",
    "linkReferences": {},
    "deployedLinkReferences": {}
}