{
  "_format": "hh-sol-artifact-1",
  "contractName": "AddressUpdater",
  "sourceName": "contracts/addressUpdater/implementation/AddressUpdater.sol",
  "abi": [
    {
      "inputs": [
        {
          "internalType": "address",
          "name": "_governance",
          "type": "address"
        }
      ],
      "stateMutability": "nonpayable",
      "type": "constructor"
    },
    {
      "anonymous": false,
      "inputs": [
        {
          "indexed": false,
          "internalType": "bytes4",
          "name": "selector",
          "type": "bytes4"
        },
        {
          "indexed": false,
          "internalType": "uint256",
          "name": "allowedAfterTimestamp",
          "type": "uint256"
        },
        {
          "indexed": false,
          "internalType": "bytes",
          "name": "encodedCall",
          "type": "bytes"
        }
      ],
      "name": "GovernanceCallTimelocked",
      "type": "event"
    },
    {
      "anonymous": false,
      "inputs": [
        {
          "indexed": false,
          "internalType": "address",
          "name": "initialGovernance",
          "type": "address"
        }
      ],
      "name": "GovernanceInitialised",
      "type": "event"
    },
    {
      "anonymous": false,
      "inputs": [
        {
          "indexed": false,
          "internalType": "address",
          "name": "governanceSettings",
          "type": "address"
        }
      ],
      "name": "GovernedProductionModeEntered",
      "type": "event"
    },
    {
      "anonymous": false,
      "inputs": [
        {
          "indexed": false,
          "internalType": "bytes4",
          "name": "selector",
          "type": "bytes4"
        },
        {
          "indexed": false,
          "internalType": "uint256",
          "name": "timestamp",
          "type": "uint256"
        }
      ],
      "name": "TimelockedGovernanceCallCanceled",
      "type": "event"
    },
    {
      "anonymous": false,
      "inputs": [
        {
          "indexed": false,
          "internalType": "bytes4",
          "name": "selector",
          "type": "bytes4"
        },
        {
          "indexed": false,
          "internalType": "uint256",
          "name": "timestamp",
          "type": "uint256"
        }
      ],
      "name": "TimelockedGovernanceCallExecuted",
      "type": "event"
    },
    {
      "inputs": [
        {
          "internalType": "string[]",
          "name": "_contractNames",
          "type": "string[]"
        },
        {
          "internalType": "address[]",
          "name": "_contractAddresses",
          "type": "address[]"
        }
      ],
      "name": "addOrUpdateContractNamesAndAddresses",
      "outputs": [],
      "stateMutability": "nonpayable",
      "type": "function"
    },
    {
      "inputs": [
        {
          "internalType": "bytes4",
          "name": "_selector",
          "type": "bytes4"
        }
      ],
      "name": "cancelGovernanceCall",
      "outputs": [],
      "stateMutability": "nonpayable",
      "type": "function"
    },
    {
      "inputs": [
        {
          "internalType": "bytes4",
          "name": "_selector",
          "type": "bytes4"
        }
      ],
      "name": "executeGovernanceCall",
      "outputs": [],
      "stateMutability": "nonpayable",
      "type": "function"
    },
    {
      "inputs": [
        {
          "internalType": "string",
          "name": "_name",
          "type": "string"
        }
      ],
      "name": "getContractAddress",
      "outputs": [
        {
          "internalType": "address",
          "name": "",
          "type": "address"
        }
      ],
      "stateMutability": "view",
      "type": "function"
    },
    {
      "inputs": [
        {
          "internalType": "bytes32",
          "name": "_nameHash",
          "type": "bytes32"
        }
      ],
      "name": "getContractAddressByHash",
      "outputs": [
        {
          "internalType": "address",
          "name": "",
          "type": "address"
        }
      ],
      "stateMutability": "view",
      "type": "function"
    },
    {
      "inputs": [
        {
          "internalType": "string[]",
          "name": "_names",
          "type": "string[]"
        }
      ],
      "name": "getContractAddresses",
      "outputs": [
        {
          "internalType": "address[]",
          "name": "",
          "type": "address[]"
        }
      ],
      "stateMutability": "view",
      "type": "function"
    },
    {
      "inputs": [
        {
          "internalType": "bytes32[]",
          "name": "_nameHashes",
          "type": "bytes32[]"
        }
      ],
      "name": "getContractAddressesByHash",
      "outputs": [
        {
          "internalType": "address[]",
          "name": "",
          "type": "address[]"
        }
      ],
      "stateMutability": "view",
      "type": "function"
    },
    {
      "inputs": [],
      "name": "getContractNamesAndAddresses",
      "outputs": [
        {
          "internalType": "string[]",
          "name": "_contractNames",
          "type": "string[]"
        },
        {
          "internalType": "address[]",
          "name": "_contractAddresses",
          "type": "address[]"
        }
      ],
      "stateMutability": "view",
      "type": "function"
    },
    {
      "inputs": [],
      "name": "governance",
      "outputs": [
        {
          "internalType": "address",
          "name": "",
          "type": "address"
        }
      ],
      "stateMutability": "view",
      "type": "function"
    },
    {
      "inputs": [],
      "name": "governanceSettings",
      "outputs": [
        {
          "internalType": "contract IGovernanceSettings",
          "name": "",
          "type": "address"
        }
      ],
      "stateMutability": "view",
      "type": "function"
    },
    {
      "inputs": [
        {
          "internalType": "address",
          "name": "_initialGovernance",
          "type": "address"
        }
      ],
      "name": "initialise",
      "outputs": [],
      "stateMutability": "nonpayable",
      "type": "function"
    },
    {
      "inputs": [],
      "name": "productionMode",
      "outputs": [
        {
          "internalType": "bool",
          "name": "",
          "type": "bool"
        }
      ],
      "stateMutability": "view",
      "type": "function"
    },
    {
      "inputs": [
        {
          "internalType": "string[]",
          "name": "_contractNames",
          "type": "string[]"
        }
      ],
      "name": "removeContracts",
      "outputs": [],
      "stateMutability": "nonpayable",
      "type": "function"
    },
    {
      "inputs": [],
      "name": "switchToProductionMode",
      "outputs": [],
      "stateMutability": "nonpayable",
      "type": "function"
    },
    {
      "inputs": [
        {
          "internalType": "bytes4",
          "name": "",
          "type": "bytes4"
        }
      ],
      "name": "timelockedCalls",
      "outputs": [
        {
          "internalType": "uint256",
          "name": "allowedAfterTimestamp",
          "type": "uint256"
        },
        {
          "internalType": "bytes",
          "name": "encodedCall",
          "type": "bytes"
        }
      ],
      "stateMutability": "view",
      "type": "function"
    },
    {
      "inputs": [
        {
          "internalType": "string[]",
          "name": "_contractNames",
          "type": "string[]"
        },
        {
          "internalType": "address[]",
          "name": "_contractAddresses",
          "type": "address[]"
        },
        {
          "internalType": "contract IIAddressUpdatable[]",
          "name": "_contractsToUpdate",
          "type": "address[]"
        }
      ],
      "name": "update",
      "outputs": [],
      "stateMutability": "nonpayable",
      "type": "function"
    },
    {
      "inputs": [
        {
          "internalType": "contract IIAddressUpdatable[]",
          "name": "_contractsToUpdate",
          "type": "address[]"
        }
      ],
      "name": "updateContractAddresses",
      "outputs": [],
      "stateMutability": "nonpayable",
      "type": "function"
    }
  ],
  "bytecode": "0x60806040523480156200001157600080fd5b5060405162001ff938038062001ff983398101604081905262000034916200016c565b80806001600160a01b0381161562000051576200005181620000a9565b506001600160a01b038116620000a1576040805162461bcd60e51b815260206004820152601060248201526f5f676f7665726e616e6365207a65726f60801b604482015290519081900360640190fd5b50506200019c565b600054600160a01b900460ff161562000109576040805162461bcd60e51b815260206004820152601460248201527f696e697469616c6973656420213d2066616c7365000000000000000000000000604482015290519081900360640190fd5b60008054600160a01b60ff60a01b19909116176001600160a01b0319166001600160a01b03831690811790915560408051918252517f9789733827840833afc031fb2ef9ab6894271f77bad2085687cf4ae5c7bee4db916020908290030190a150565b6000602082840312156200017e578081fd5b81516001600160a01b038116811462000195578182fd5b9392505050565b611e4d80620001ac6000396000f3fe608060405234801561001057600080fd5b506004361061010b5760003560e01c806367fc4029116100a25780639933dba6116100715780639933dba6146102145780639d6a890f14610227578063e17f212e1461023a578063ee6f63c31461024f578063f5a98383146102625761010b565b806367fc4029146101ba57806370d44f28146101cd57806374e6310e146101e05780638246e467146102015761010b565b80635aa6e675116100de5780635aa6e675146101775780635e11e2d11461017f5780635ff270791461019f57806362354e03146101b25761010b565b806304433bbc14610110578063159354a2146101395780631b0e29601461014c5780632f26c5c314610161575b600080fd5b61012361011e366004611b5b565b61026a565b6040516101309190611c55565b60405180910390f35b610123610147366004611b1b565b6102d0565b61015f61015a3660046119a5565b6102eb565b005b6101696102ff565b604051610130929190611cd3565b6101236104a4565b61019261018d366004611966565b610539565b6040516101309190611c69565b61015f6101ad366004611b33565b6105f8565b61012361094d565b61015f6101c8366004611b33565b610958565b61015f6101db366004611a06565b610a40565b6101f36101ee366004611b33565b610c88565b604051610130929190611d65565b61015f61020f366004611a38565b610d2e565b61015f610222366004611a98565b610d7b565b61015f610235366004611943565b610dcd565b610242610e86565b6040516101309190611d47565b61019261025d3660046119df565b610e96565b61015f610f95565b6000600360006102af85858080601f01602080910402602001604051908101604052809392919081815260200183838082843760009201919091525061104f92505050565b81526020810191909152604001600020546001600160a01b03169392505050565b6000908152600360205260409020546001600160a01b031690565b6102f361107f565b6102fc816110e0565b50565b6060806002805480602002602001604051908101604052809291908181526020016000905b828210156103cf5760008481526020908190208301805460408051601f60026000196101006001871615020190941693909304928301859004850281018501909152818152928301828280156103bb5780601f10610390576101008083540402835291602001916103bb565b820191906000526020600020905b81548152906001019060200180831161039e57829003601f168201915b505050505081526020019060010190610324565b50508251929450829150506001600160401b03811180156103ef57600080fd5b50604051908082528060200260200182016040528015610419578160200160208202803683370190505b5091505b801561049f578080600190039150506003600061044c85848151811061043f57fe5b602002602001015161104f565b815260200190815260200160002060009054906101000a90046001600160a01b031682828151811061047a57fe5b60200260200101906001600160a01b031690816001600160a01b03168152505061041d565b509091565b60008054600160a81b900460ff166104c7576000546001600160a01b0316610534565b60076001609c1b016001600160a01b031663732524946040518163ffffffff1660e01b815260040160206040518083038186803b15801561050757600080fd5b505afa15801561051b573d6000803e3d6000fd5b505050506040513d602081101561053157600080fd5b50515b905090565b60606000826001600160401b038111801561055357600080fd5b5060405190808252806020026020018201604052801561057d578160200160208202803683370190505b50905060005b838110156105f0576003600086868481811061059b57fe5b90506020020135815260200190815260200160002060009054906101000a90046001600160a01b03168282815181106105d057fe5b6001600160a01b0390921660209283029190910190910152600101610583565b509392505050565b60408051630debfda360e41b8152336004820152905160076001609c1b019163debfda30916024808301926020929190829003018186803b15801561063c57600080fd5b505afa158015610650573d6000803e3d6000fd5b505050506040513d602081101561066657600080fd5b50516106a9576040805162461bcd60e51b815260206004820152600d60248201526c37b7363c9032bc32b1baba37b960991b604482015290519081900360640190fd5b6001600160e01b0319811660009081526001602052604090208054610715576040805162461bcd60e51b815260206004820152601a60248201527f74696d656c6f636b3a20696e76616c69642073656c6563746f72000000000000604482015290519081900360640190fd5b805442101561076b576040805162461bcd60e51b815260206004820152601960248201527f74696d656c6f636b3a206e6f7420616c6c6f7765642079657400000000000000604482015290519081900360640190fd5b6000816001018054600181600116156101000203166002900480601f0160208091040260200160405190810160405280929190818152602001828054600181600116156101000203166002900480156108055780601f106107da57610100808354040283529160200191610805565b820191906000526020600020905b8154815290600101906020018083116107e857829003601f168201915b5050506001600160e01b03198616600090815260016020819052604082208281559495509092506108399150830182611607565b50506000805460ff60b01b1916600160b01b178155604051825130918491819060208401908083835b602083106108815780518252601f199092019160209182019101610862565b6001836020036101000a0380198251168184511680821785525050505050509050019150506000604051808303816000865af19150503d80600081146108e3576040519150601f19603f3d011682016040523d82523d6000602084013e6108e8565b606091505b50506000805460ff60b01b19169055604080516001600160e01b03198716815242602082015281519293507fa7326b57fc9cfe267aaea5e7f0b01757154d265620a0585819416ee9ddd2c438929081900390910190a1610947816112a2565b50505050565b60076001609c1b0181565b61096061107f565b6001600160e01b031981166000908152600160205260409020546109cb576040805162461bcd60e51b815260206004820152601a60248201527f74696d656c6f636b3a20696e76616c69642073656c6563746f72000000000000604482015290519081900360640190fd5b604080516001600160e01b03198316815242602082015281517f7735b2391c38a81419c513e30ca578db7158eadd7101511b23e221c654d19cf8929181900390910190a16001600160e01b03198116600090815260016020819052604082208281559190610a3b90830182611607565b505050565b600054600160b01b900460ff1680610a625750600054600160a81b900460ff16155b15610c7d57610a6f6112bf565b60005b8151811015610c77576000828281518110610a8957fe5b602002602001015190506000610a9e8261104f565b600081815260036020908152604091829020548251808401909352600c83526b61646472657373207a65726f60a01b91830191909152919250906001600160a01b0316610b075760405162461bcd60e51b8152600401610afe9190611d52565b60405180910390fd5b50600081815260036020526040902080546001600160a01b03191690556002545b8015610bf057808060019003915050610bdf60028281548110610b4757fe5b600091825260209182902001805460408051601f6002600019610100600187161502019094169390930492830185900485028101850190915281815292830182828015610bd55780601f10610baa57610100808354040283529160200191610bd5565b820191906000526020600020905b815481529060010190602001808311610bb857829003601f168201915b505050505061104f565b821415610beb57610bf0565b610b28565b600280546000198101908110610c0257fe5b9060005260206000200160028281548110610c1957fe5b906000526020600020019080546001816001161561010002031660029004610c4292919061164b565b506002805480610c4e57fe5b600190038181906000526020600020016000610c6a9190611607565b9055505050600101610a72565b506102fc565b6102fc6000366112f4565b600160208181526000928352604092839020805481840180548651600296821615610100026000190190911695909504601f81018590048502860185019096528585529094919392909190830182828015610d245780601f10610cf957610100808354040283529160200191610d24565b820191906000526020600020905b815481529060010190602001808311610d0757829003601f168201915b5050505050905082565b600054600160b01b900460ff1680610d505750600054600160a81b900460ff16155b15610d6c57610d5d6112bf565b610d678282611477565b610d77565b610d776000366112f4565b5050565b600054600160b01b900460ff1680610d9d5750600054600160a81b900460ff16155b15610dc257610daa6112bf565b610db48383611477565b610dbd816110e0565b610a3b565b610a3b6000366112f4565b600054600160a01b900460ff1615610e23576040805162461bcd60e51b8152602060048201526014602482015273696e697469616c6973656420213d2066616c736560601b604482015290519081900360640190fd5b60008054600160a01b60ff60a01b19909116176001600160a01b0319166001600160a01b03831690811790915560408051918252517f9789733827840833afc031fb2ef9ab6894271f77bad2085687cf4ae5c7bee4db916020908290030190a150565b600054600160a81b900460ff1681565b60606000826001600160401b0381118015610eb057600080fd5b50604051908082528060200260200182016040528015610eda578160200160208202803683370190505b50905060005b838110156105f05760036000610f47878785818110610efb57fe5b9050602002810190610f0d9190611d7e565b8080601f01602080910402602001604051908101604052809392919081815260200183838082843760009201919091525061104f92505050565b815260200190815260200160002060009054906101000a90046001600160a01b0316828281518110610f7557fe5b6001600160a01b0390921660209283029190910190910152600101610ee0565b610f9d61107f565b600054600160a81b900460ff1615610ffc576040805162461bcd60e51b815260206004820152601a60248201527f616c726561647920696e2070726f64756374696f6e206d6f6465000000000000604482015290519081900360640190fd5b60008054600161ff0160a01b031916600160a81b1790556040805160076001609c1b01815290517f83af113638b5422f9e977cebc0aaf0eaf2188eb9a8baae7f9d46c42b33a1560c9181900360200190a1565b6000816040516020016110629190611d52565b604051602081830303815290604052805190602001209050919050565b6110876104a4565b6001600160a01b0316336001600160a01b0316146110de576040805162461bcd60e51b815260206004820152600f60248201526e6f6e6c7920676f7665726e616e636560881b604482015290519081900360640190fd5b565b6002546000816001600160401b03811180156110fb57600080fd5b50604051908082528060200260200182016040528015611125578160200160208202803683370190505b5090506000826001600160401b038111801561114057600080fd5b5060405190808252806020026020018201604052801561116a578160200160208202803683370190505b5090505b82156112105782806001900393505061118d60028481548110610b4757fe5b82848151811061119957fe5b602002602001018181525050600360008385815181106111b557fe5b6020026020010151815260200190815260200160002060009054906101000a90046001600160a01b03168184815181106111eb57fe5b60200260200101906001600160a01b031690816001600160a01b03168152505061116e565b60005b845181101561129b5784818151811061122857fe5b60200260200101516001600160a01b031663b00c0b7684846040518363ffffffff1660e01b815260040161125d929190611c7c565b600060405180830381600087803b15801561127757600080fd5b505af115801561128b573d6000803e3d6000fd5b5050600190920191506112139050565b5050505050565b3d604051818101604052816000823e82156112bb578181f35b8181fd5b600054600160b01b900460ff16156112ec573330146112da57fe5b6000805460ff60b01b191690556110de565b6110de61107f565b6112fc61107f565b600082359050600060076001609c1b016001600160a01b0316636221a54b6040518163ffffffff1660e01b815260040160206040518083038186803b15801561134457600080fd5b505afa158015611358573d6000803e3d6000fd5b505050506040513d602081101561136e57600080fd5b505160408051808201825242830180825282516020601f89018190048102820181019094528781529394509290918281019190889088908190840183828082843760009201829052509390945250506001600160e01b031986168152600160208181526040909220845181558483015180519194506113f2939285019201906116de565b509050507fed948300a3694aa01d4a6b258bfd664350193d770c0b51f8387277f6d83ea3b68382878760405180856001600160e01b0319168152602001848152602001806020018281038252848482818152602001925080828437600083820152604051601f909101601f191690920182900397509095505050505050a15050505050565b8151815160408051808201909152601a81527f6172726179206c656e6774687320646f206e6f74206d6174636800000000000060208201529082146114cf5760405162461bcd60e51b8152600401610afe9190611d52565b5060005b818110156109475760006001600160a01b03168382815181106114f257fe5b60200260200101516001600160a01b031614156040518060400160405280600c81526020016b61646472657373207a65726f60a01b815250906115485760405162461bcd60e51b8152600401610afe9190611d52565b50600061155a85838151811061043f57fe5b6000818152600360205260409020549091506001600160a01b03166115bb57600285838151811061158757fe5b602090810291909101810151825460018101845560009384529282902081516115b994919091019291909101906116de565b505b8382815181106115c757fe5b60209081029190910181015160009283526003909152604090912080546001600160a01b0319166001600160a01b039092169190911790556001016114d3565b50805460018160011615610100020316600290046000825580601f1061162d57506102fc565b601f0160209004906000526020600020908101906102fc919061175a565b828054600181600116156101000203166002900490600052602060002090601f01602090048101928261168157600085556116ce565b82601f1061169257805485556116ce565b828001600101855582156116ce57600052602060002091601f016020900482015b828111156116ce5782548255916001019190600101906116b3565b506116da92915061175a565b5090565b828054600181600116156101000203166002900490600052602060002090601f01602090048101928261171457600085556116ce565b82601f1061172d57805160ff19168380011785556116ce565b828001600101855582156116ce579182015b828111156116ce57825182559160200191906001019061173f565b5b808211156116da576000815560010161175b565b600082601f83011261177f578081fd5b8135602061179461178f83611de5565b611dc2565b82815281810190858301838502870184018810156117b0578586fd5b855b858110156117d75781356117c581611e02565b845292840192908401906001016117b2565b5090979650505050505050565b60008083601f8401126117f5578182fd5b5081356001600160401b0381111561180b578182fd5b602083019150836020808302850101111561182557600080fd5b9250929050565b600082601f83011261183c578081fd5b8135602061184c61178f83611de5565b8281528181019085830183850287018401881015611868578586fd5b855b858110156117d757813561187d81611e02565b8452928401929084019060010161186a565b6000601f83818401126118a0578182fd5b823560206118b061178f83611de5565b82815281810190868301865b8581101561193557813589018a603f8201126118d6578889fd5b8581013560406001600160401b038211156118ed57fe5b6118fe828b01601f19168901611dc2565b8281528d82848601011115611911578b8cfd5b828285018a83013791820188018b90525085525092840192908401906001016118bc565b509098975050505050505050565b600060208284031215611954578081fd5b813561195f81611e02565b9392505050565b60008060208385031215611978578081fd5b82356001600160401b0381111561198d578182fd5b611999858286016117e4565b90969095509350505050565b6000602082840312156119b6578081fd5b81356001600160401b038111156119cb578182fd5b6119d78482850161182c565b949350505050565b600080602083850312156119f1578182fd5b82356001600160401b0381111561198d578283fd5b600060208284031215611a17578081fd5b81356001600160401b03811115611a2c578182fd5b6119d78482850161188f565b60008060408385031215611a4a578182fd5b82356001600160401b0380821115611a60578384fd5b611a6c8683870161188f565b93506020850135915080821115611a81578283fd5b50611a8e8582860161176f565b9150509250929050565b600080600060608486031215611aac578081fd5b83356001600160401b0380821115611ac2578283fd5b611ace8783880161188f565b94506020860135915080821115611ae3578283fd5b611aef8783880161176f565b93506040860135915080821115611b04578283fd5b50611b118682870161182c565b9150509250925092565b600060208284031215611b2c578081fd5b5035919050565b600060208284031215611b44578081fd5b81356001600160e01b03198116811461195f578182fd5b60008060208385031215611b6d578182fd5b82356001600160401b0380821115611b83578384fd5b818501915085601f830112611b96578384fd5b813581811115611ba4578485fd5b866020828501011115611bb5578485fd5b60209290920196919550909350505050565b6000815180845260208085019450808401835b83811015611bff5781516001600160a01b031687529582019590820190600101611bda565b509495945050505050565b60008151808452815b81811015611c2f57602081850181015186830182015201611c13565b81811115611c405782602083870101525b50601f01601f19169290920160200192915050565b6001600160a01b0391909116815260200190565b60006020825261195f6020830184611bc7565b604080825283519082018190526000906020906060840190828701845b82811015611cb557815184529284019290840190600101611c99565b50505083810382850152611cc98186611bc7565b9695505050505050565b60006040820160408352808551808352606085019150602092506060838202860101838801855b83811015611d2857605f19888403018552611d16838351611c0a565b94860194925090850190600101611cfa565b505085810384870152611d3b8188611bc7565b98975050505050505050565b901515815260200190565b60006020825261195f6020830184611c0a565b6000838252604060208301526119d76040830184611c0a565b6000808335601e19843603018112611d94578283fd5b8301803591506001600160401b03821115611dad578283fd5b60200191503681900382131561182557600080fd5b6040518181016001600160401b0381118282101715611ddd57fe5b604052919050565b60006001600160401b03821115611df857fe5b5060209081020190565b6001600160a01b03811681146102fc57600080fdfea2646970667358221220bfb457cffe11bc754478141ad6525993b3d3263d73c4141fd133d782b0fd65e964736f6c63430007060033",
  "linkReferences": {},
  "deployedLinkReferences": {}
}