{
    "_format": "hh-sol-artifact-1",
    "contractName": "PChainStakeMirrorVerifier",
    "sourceName": "contracts/staking/implementation/PChainStakeMirrorVerifier.sol",
    "abi": [
        {
            "inputs": [
                {
                    "internalType": "contract IPChainStakeMirrorMultiSigVoting",
                    "name": "_pChainStakeMirrorVoting",
                    "type": "address"
                },
                {
                    "internalType": "uint256",
                    "name": "_minStakeDurationSeconds",
                    "type": "uint256"
                },
                {
                    "internalType": "uint256",
                    "name": "_maxStakeDurationSeconds",
                    "type": "uint256"
                },
                {
                    "internalType": "uint256",
                    "name": "_minStakeAmountGwei",
                    "type": "uint256"
                },
                {
                    "internalType": "uint256",
                    "name": "_maxStakeAmountGwei",
                    "type": "uint256"
                }
            ],
            "stateMutability": "nonpayable",
            "type": "constructor"
        },
        {
            "inputs": [],
            "name": "maxStakeAmountGwei",
            "outputs": [
                {
                    "internalType": "uint256",
                    "name": "",
                    "type": "uint256"
                }
            ],
            "stateMutability": "view",
            "type": "function"
        },
        {
            "inputs": [],
            "name": "maxStakeDurationSeconds",
            "outputs": [
                {
                    "internalType": "uint256",
                    "name": "",
                    "type": "uint256"
                }
            ],
            "stateMutability": "view",
            "type": "function"
        },
        {
            "inputs": [],
            "name": "minStakeAmountGwei",
            "outputs": [
                {
                    "internalType": "uint256",
                    "name": "",
                    "type": "uint256"
                }
            ],
            "stateMutability": "view",
            "type": "function"
        },
        {
            "inputs": [],
            "name": "minStakeDurationSeconds",
            "outputs": [
                {
                    "internalType": "uint256",
                    "name": "",
                    "type": "uint256"
                }
            ],
            "stateMutability": "view",
            "type": "function"
        },
        {
            "inputs": [],
            "name": "pChainStakeMirrorVoting",
            "outputs": [
                {
                    "internalType": "contract IPChainStakeMirrorMultiSigVoting",
                    "name": "",
                    "type": "address"
                }
            ],
            "stateMutability": "view",
            "type": "function"
        },
        {
            "inputs": [
                {
                    "components": [
                        {
                            "internalType": "bytes32",
                            "name": "txId",
                            "type": "bytes32"
                        },
                        {
                            "internalType": "uint8",
                            "name": "stakingType",
                            "type": "uint8"
                        },
                        {
                            "internalType": "bytes20",
                            "name": "inputAddress",
                            "type": "bytes20"
                        },
                        {
                            "internalType": "bytes20",
                            "name": "nodeId",
                            "type": "bytes20"
                        },
                        {
                            "internalType": "uint64",
                            "name": "startTime",
                            "type": "uint64"
                        },
                        {
                            "internalType": "uint64",
                            "name": "endTime",
                            "type": "uint64"
                        },
                        {
                            "internalType": "uint64",
                            "name": "weight",
                            "type": "uint64"
                        }
                    ],
                    "internalType": "struct IPChainStakeMirrorVerifier.PChainStake",
                    "name": "_stakeData",
                    "type": "tuple"
                },
                {
                    "internalType": "bytes32[]",
                    "name": "_merkleProof",
                    "type": "bytes32[]"
                }
            ],
            "name": "verifyStake",
            "outputs": [
                {
                    "internalType": "bool",
                    "name": "",
                    "type": "bool"
                }
            ],
            "stateMutability": "view",
            "type": "function"
        }
    ],
    "bytecode": "0x61010060405234801561001157600080fd5b506040516108db3803806108db833981016040819052610030916100ae565b828411156100595760405162461bcd60e51b815260040161005090610101565b60405180910390fd5b808211156100795760405162461bcd60e51b81526004016100509061012c565b600080546001600160a01b0319166001600160a01b03969096169590951790945560809290925260a05260c05260e052610155565b600080600080600060a086880312156100c5578081fd5b85516001600160a01b03811681146100db578182fd5b602087015160408801516060890151608090990151929a91995097965090945092505050565b602080825260119082015270191d5c985d1a5bdb9cc81a5b9d985b1a59607a1b604082015260600190565b6020808252600f908201526e185b5bdd5b9d1cc81a5b9d985b1a59608a1b604082015260600190565b60805160a05160c05160e05161073f61019c6000398060f8528061025e52508060d4528061021952508061012b52806101ed5250806101c25280610387525061073f6000f3fe608060405234801561001057600080fd5b50600436106100625760003560e01c8063207159ff146100675780636e45ac8114610085578063acbf48fa1461008d578063c1da5a02146100a2578063e7fca64a146100aa578063efc707c6146100ca575b600080fd5b61006f6100d2565b60405161007c91906106eb565b60405180910390f35b61006f6100f6565b61009561011a565b60405161007c9190610628565b61006f610129565b6100bd6100b836600461056d565b61014d565b60405161007c919061061d565b61006f610385565b7f000000000000000000000000000000000000000000000000000000000000000081565b7f000000000000000000000000000000000000000000000000000000000000000081565b6000546001600160a01b031681565b7f000000000000000000000000000000000000000000000000000000000000000081565b600061015f60a08501608086016105f5565b67ffffffffffffffff1661017960c0860160a087016105f5565b67ffffffffffffffff1610156101915750600061037e565b60006101a360a08601608087016105f5565b6101b360c0870160a088016105f5565b0367ffffffffffffffff1690507f0000000000000000000000000000000000000000000000000000000000000000811015801561021057507f00000000000000000000000000000000000000000000000000000000000000008111155b801561025557507f000000000000000000000000000000000000000000000000000000000000000061024860e0870160c088016105f5565b67ffffffffffffffff1610155b801561029a57507f000000000000000000000000000000000000000000000000000000000000000061028d60e0870160c088016105f5565b67ffffffffffffffff1611155b801561037a575061037a84848080602002602001604051908101604052809392919081815260200183836020028082843760009201829052505461036c93506001600160a01b03169150635303548b90506102fb60a08b0160808c016105f5565b6040518263ffffffff1660e01b815260040161031791906106f4565b60206040518083038186803b15801561032f57600080fd5b505afa158015610343573d6000803e3d6000fd5b505050506040513d601f19601f820116820180604052508101906103679190610555565b6103a9565b61037588610432565b610462565b9150505b9392505050565b7f000000000000000000000000000000000000000000000000000000000000000081565b60008054604051630aab8ba560e01b81526001600160a01b0390911690630aab8ba5906103da9085906004016106eb565b60206040518083038186803b1580156103f257600080fd5b505afa158015610406573d6000803e3d6000fd5b505050506040513d601f19601f8201168201806040525081019061042a9190610555565b90505b919050565b600081604051602001610445919061063c565b604051602081830303815290604052805190602001209050919050565b600061046f848484610477565b949350505050565b600081815b855181101561051557600086828151811061049357fe5b602002602001015190508083116104da578281604051602001808381526020018281526020019250505060405160208183030381529060405280519060200120925061050c565b808360405160200180838152602001828152602001925050506040516020818303038152906040528051906020012092505b5060010161047c565b509092149392505050565b80356bffffffffffffffffffffffff198116811461042d57600080fd5b803567ffffffffffffffff8116811461042d57600080fd5b600060208284031215610566578081fd5b5051919050565b6000806000838503610100811215610583578283fd5b60e0811215610590578283fd5b5083925060e084013567ffffffffffffffff808211156105ae578384fd5b818601915086601f8301126105c1578384fd5b8135818111156105cf578485fd5b87602080830285010111156105e2578485fd5b6020830194508093505050509250925092565b600060208284031215610606578081fd5b61037e8261053d565b67ffffffffffffffff169052565b901515815260200190565b6001600160a01b0391909116815260200190565b8135815260e08101602083013560ff811680821461065957600080fd5b60208401525061066b60408401610520565b6bffffffffffffffffffffffff1981811660408501528061068e60608701610520565b166060850152505067ffffffffffffffff6106ab6080850161053d565b1660808301526106bd60a0840161053d565b6106ca60a084018261060f565b506106d760c0840161053d565b6106e460c084018261060f565b5092915050565b90815260200190565b67ffffffffffffffff9190911681526020019056fea2646970667358221220a3862b67caa1303dfab124500d98e2f22c7bdf433b079c87eecb0ea59517b56264736f6c63430007060033",
    "linkReferences": {},
    "deployedLinkReferences": {}
}