{
    "_format": "hh-sol-artifact-1",
    "contractName": "DistributionTreasury",
    "sourceName": "contracts/genesis/implementation/DistributionTreasury.sol",
    "abi": [
        {
            "inputs": [
                {
                    "internalType": "address",
                    "name": "_governance",
                    "type": "address"
                }
            ],
            "stateMutability": "nonpayable",
            "type": "constructor"
        },
        {
            "anonymous": false,
            "inputs": [
                {
                    "indexed": false,
                    "internalType": "bytes4",
                    "name": "selector",
                    "type": "bytes4"
                },
                {
                    "indexed": false,
                    "internalType": "uint256",
                    "name": "allowedAfterTimestamp",
                    "type": "uint256"
                },
                {
                    "indexed": false,
                    "internalType": "bytes",
                    "name": "encodedCall",
                    "type": "bytes"
                }
            ],
            "name": "GovernanceCallTimelocked",
            "type": "event"
        },
        {
            "anonymous": false,
            "inputs": [
                {
                    "indexed": false,
                    "internalType": "address",
                    "name": "initialGovernance",
                    "type": "address"
                }
            ],
            "name": "GovernanceInitialised",
            "type": "event"
        },
        {
            "anonymous": false,
            "inputs": [
                {
                    "indexed": false,
                    "internalType": "address",
                    "name": "governanceSettings",
                    "type": "address"
                }
            ],
            "name": "GovernedProductionModeEntered",
            "type": "event"
        },
        {
            "anonymous": false,
            "inputs": [
                {
                    "indexed": false,
                    "internalType": "bytes4",
                    "name": "selector",
                    "type": "bytes4"
                },
                {
                    "indexed": false,
                    "internalType": "uint256",
                    "name": "timestamp",
                    "type": "uint256"
                }
            ],
            "name": "TimelockedGovernanceCallCanceled",
            "type": "event"
        },
        {
            "anonymous": false,
            "inputs": [
                {
                    "indexed": false,
                    "internalType": "bytes4",
                    "name": "selector",
                    "type": "bytes4"
                },
                {
                    "indexed": false,
                    "internalType": "uint256",
                    "name": "timestamp",
                    "type": "uint256"
                }
            ],
            "name": "TimelockedGovernanceCallExecuted",
            "type": "event"
        },
        {
            "inputs": [],
            "name": "MAX_PULL_AMOUNT_WEI",
            "outputs": [
                {
                    "internalType": "uint256",
                    "name": "",
                    "type": "uint256"
                }
            ],
            "stateMutability": "view",
            "type": "function"
        },
        {
            "inputs": [
                {
                    "internalType": "bytes4",
                    "name": "_selector",
                    "type": "bytes4"
                }
            ],
            "name": "cancelGovernanceCall",
            "outputs": [],
            "stateMutability": "nonpayable",
            "type": "function"
        },
        {
            "inputs": [],
            "name": "distribution",
            "outputs": [
                {
                    "internalType": "address",
                    "name": "",
                    "type": "address"
                }
            ],
            "stateMutability": "view",
            "type": "function"
        },
        {
            "inputs": [
                {
                    "internalType": "bytes4",
                    "name": "_selector",
                    "type": "bytes4"
                }
            ],
            "name": "executeGovernanceCall",
            "outputs": [],
            "stateMutability": "nonpayable",
            "type": "function"
        },
        {
            "inputs": [],
            "name": "governance",
            "outputs": [
                {
                    "internalType": "address",
                    "name": "",
                    "type": "address"
                }
            ],
            "stateMutability": "view",
            "type": "function"
        },
        {
            "inputs": [],
            "name": "governanceSettings",
            "outputs": [
                {
                    "internalType": "contract IGovernanceSettings",
                    "name": "",
                    "type": "address"
                }
            ],
            "stateMutability": "view",
            "type": "function"
        },
        {
            "inputs": [
                {
                    "internalType": "address",
                    "name": "_initialGovernance",
                    "type": "address"
                }
            ],
            "name": "initialise",
            "outputs": [],
            "stateMutability": "nonpayable",
            "type": "function"
        },
        {
            "inputs": [],
            "name": "lastPullTs",
            "outputs": [
                {
                    "internalType": "uint256",
                    "name": "",
                    "type": "uint256"
                }
            ],
            "stateMutability": "view",
            "type": "function"
        },
        {
            "inputs": [],
            "name": "productionMode",
            "outputs": [
                {
                    "internalType": "bool",
                    "name": "",
                    "type": "bool"
                }
            ],
            "stateMutability": "view",
            "type": "function"
        },
        {
            "inputs": [
                {
                    "internalType": "uint256",
                    "name": "_amountWei",
                    "type": "uint256"
                }
            ],
            "name": "pullFunds",
            "outputs": [],
            "stateMutability": "nonpayable",
            "type": "function"
        },
        {
            "inputs": [
                {
                    "internalType": "address",
                    "name": "_distribution",
                    "type": "address"
                }
            ],
            "name": "setDistributionContract",
            "outputs": [],
            "stateMutability": "nonpayable",
            "type": "function"
        },
        {
            "inputs": [],
            "name": "switchToProductionMode",
            "outputs": [],
            "stateMutability": "nonpayable",
            "type": "function"
        },
        {
            "inputs": [
                {
                    "internalType": "bytes4",
                    "name": "",
                    "type": "bytes4"
                }
            ],
            "name": "timelockedCalls",
            "outputs": [
                {
                    "internalType": "uint256",
                    "name": "allowedAfterTimestamp",
                    "type": "uint256"
                },
                {
                    "internalType": "bytes",
                    "name": "encodedCall",
                    "type": "bytes"
                }
            ],
            "stateMutability": "view",
            "type": "function"
        },
        {
            "stateMutability": "payable",
            "type": "receive"
        }
    ],
    "bytecode": "0x608060405234801561001057600080fd5b5060405161135e38038061135e8339818101604052602081101561003357600080fd5b505180806001600160a01b0381161561004f5761004f816100a5565b506001600160a01b03811661009e576040805162461bcd60e51b815260206004820152601060248201526f5f676f7665726e616e6365207a65726f60801b604482015290519081900360640190fd5b5050610167565b600054600160a01b900460ff1615610104576040805162461bcd60e51b815260206004820152601460248201527f696e697469616c6973656420213d2066616c7365000000000000000000000000604482015290519081900360640190fd5b60008054600160a01b60ff60a01b19909116176001600160a01b0319166001600160a01b03831690811790915560408051918252517f9789733827840833afc031fb2ef9ab6894271f77bad2085687cf4ae5c7bee4db916020908290030190a150565b6111e8806101766000396000f3fe6080604052600436106100c65760003560e01c806367fc40291161007f578063e17f212e11610059578063e17f212e146103aa578063e7a764ef146103d3578063ec8d877714610406578063f5a9838314610430576101be565b806367fc40291461029057806374e6310e146102c45780639d6a890f14610377576101be565b8063100223bb146101c357806329d71f6d146101ea5780635aa6e675146101ff5780635ee58efc146102305780635ff270791461024557806362354e031461027b576101be565b366101be576100d3610445565b6001600160a01b0316336001600160a01b031614806100fc57506002546001600160a01b031633145b6040518060400160405280601f81526020017f6f6e6c7920676f7665726e616e6365206f7220646973747269627574696f6e00815250906101bb5760405162461bcd60e51b81526004018080602001828103825283818151815260200191508051906020019080838360005b83811015610180578181015183820152602001610168565b50505050905090810190601f1680156101ad5780820380516001836020036101000a031916815260200191505b509250505060405180910390fd5b50005b600080fd5b3480156101cf57600080fd5b506101d86104da565b60408051918252519081900360200190f35b3480156101f657600080fd5b506101d86104e0565b34801561020b57600080fd5b50610214610445565b604080516001600160a01b039092168252519081900360200190f35b34801561023c57600080fd5b506102146104f0565b34801561025157600080fd5b506102796004803603602081101561026857600080fd5b50356001600160e01b0319166104ff565b005b34801561028757600080fd5b50610214610854565b34801561029c57600080fd5b50610279600480360360208110156102b357600080fd5b50356001600160e01b03191661085f565b3480156102d057600080fd5b506102f8600480360360208110156102e757600080fd5b50356001600160e01b031916610947565b6040518083815260200180602001828103825283818151815260200191508051906020019080838360005b8381101561033b578181015183820152602001610323565b50505050905090810190601f1680156103685780820380516001836020036101000a031916815260200191505b50935050505060405180910390f35b34801561038357600080fd5b506102796004803603602081101561039a57600080fd5b50356001600160a01b03166109ed565b3480156103b657600080fd5b506103bf610aa6565b604080519115158252519081900360200190f35b3480156103df57600080fd5b50610279600480360360208110156103f657600080fd5b50356001600160a01b0316610ab6565b34801561041257600080fd5b506102796004803603602081101561042957600080fd5b5035610b8c565b34801561043c57600080fd5b50610279610d12565b60008054600160a81b900460ff16610468576000546001600160a01b03166104d5565b60076001609c1b016001600160a01b031663732524946040518163ffffffff1660e01b815260040160206040518083038186803b1580156104a857600080fd5b505afa1580156104bc573d6000803e3d6000fd5b505050506040513d60208110156104d257600080fd5b50515b905090565b60035481565b6b0257b4b8c0aa5cf8f500000081565b6002546001600160a01b031681565b60408051630debfda360e41b8152336004820152905160076001609c1b019163debfda30916024808301926020929190829003018186803b15801561054357600080fd5b505afa158015610557573d6000803e3d6000fd5b505050506040513d602081101561056d57600080fd5b50516105b0576040805162461bcd60e51b815260206004820152600d60248201526c37b7363c9032bc32b1baba37b960991b604482015290519081900360640190fd5b6001600160e01b031981166000908152600160205260409020805461061c576040805162461bcd60e51b815260206004820152601a60248201527f74696d656c6f636b3a20696e76616c69642073656c6563746f72000000000000604482015290519081900360640190fd5b8054421015610672576040805162461bcd60e51b815260206004820152601960248201527f74696d656c6f636b3a206e6f7420616c6c6f7765642079657400000000000000604482015290519081900360640190fd5b6000816001018054600181600116156101000203166002900480601f01602080910402602001604051908101604052809291908181526020018280546001816001161561010002031660029004801561070c5780601f106106e15761010080835404028352916020019161070c565b820191906000526020600020905b8154815290600101906020018083116106ef57829003601f168201915b5050506001600160e01b031986166000908152600160208190526040822082815594955090925061074091508301826110cd565b50506000805460ff60b01b1916600160b01b178155604051825130918491819060208401908083835b602083106107885780518252601f199092019160209182019101610769565b6001836020036101000a0380198251168184511680821785525050505050509050019150506000604051808303816000865af19150503d80600081146107ea576040519150601f19603f3d011682016040523d82523d6000602084013e6107ef565b606091505b50506000805460ff60b01b19169055604080516001600160e01b03198716815242602082015281519293507fa7326b57fc9cfe267aaea5e7f0b01757154d265620a0585819416ee9ddd2c438929081900390910190a161084e81610dcc565b50505050565b60076001609c1b0181565b610867610de9565b6001600160e01b031981166000908152600160205260409020546108d2576040805162461bcd60e51b815260206004820152601a60248201527f74696d656c6f636b3a20696e76616c69642073656c6563746f72000000000000604482015290519081900360640190fd5b604080516001600160e01b03198316815242602082015281517f7735b2391c38a81419c513e30ca578db7158eadd7101511b23e221c654d19cf8929181900390910190a16001600160e01b03198116600090815260016020819052604082208281559190610942908301826110cd565b505050565b600160208181526000928352604092839020805481840180548651600296821615610100026000190190911695909504601f810185900485028601850190965285855290949193929091908301828280156109e35780601f106109b8576101008083540402835291602001916109e3565b820191906000526020600020905b8154815290600101906020018083116109c657829003601f168201915b5050505050905082565b600054600160a01b900460ff1615610a43576040805162461bcd60e51b8152602060048201526014602482015273696e697469616c6973656420213d2066616c736560601b604482015290519081900360640190fd5b60008054600160a01b60ff60a01b19909116176001600160a01b0319166001600160a01b03831690811790915560408051918252517f9789733827840833afc031fb2ef9ab6894271f77bad2085687cf4ae5c7bee4db916020908290030190a150565b600054600160a81b900460ff1681565b600054600160b01b900460ff1680610ad85750600054600160a81b900460ff16155b15610b7e57610ae5610e4a565b60408051808201909152600c81526b61646472657373207a65726f60a01b60208201526001600160a01b038216610b5d5760405162461bcd60e51b8152602060048201818152835160248401528351909283926044909101919085019080838360008315610180578181015183820152602001610168565b50600280546001600160a01b0319166001600160a01b038316179055610b89565b610b89600036610e7f565b50565b600254604080518082019091526011815270646973747269627574696f6e206f6e6c7960781b6020820152906001600160a01b03163314610c0e5760405162461bcd60e51b8152602060048201818152835160248401528351909283926044909101919085019080838360008315610180578181015183820152602001610168565b504262263b80600354011115604051806040016040528060098152602001683a37b79037b33a32b760b91b81525090610c885760405162461bcd60e51b8152602060048201818152835160248401528351909283926044909101919085019080838360008315610180578181015183820152602001610168565b506040805180820190915260088152670e8dede40daeac6d60c31b60208201526b0257b4b8c0aa5cf8f5000000821115610d035760405162461bcd60e51b8152602060048201818152835160248401528351909283926044909101919085019080838360008315610180578181015183820152602001610168565b5042600355610b893382611002565b610d1a610de9565b600054600160a81b900460ff1615610d79576040805162461bcd60e51b815260206004820152601a60248201527f616c726561647920696e2070726f64756374696f6e206d6f6465000000000000604482015290519081900360640190fd5b60008054600161ff0160a01b031916600160a81b1790556040805160076001609c1b01815290517f83af113638b5422f9e977cebc0aaf0eaf2188eb9a8baae7f9d46c42b33a1560c9181900360200190a1565b3d604051818101604052816000823e8215610de5578181f35b8181fd5b610df1610445565b6001600160a01b0316336001600160a01b031614610e48576040805162461bcd60e51b815260206004820152600f60248201526e6f6e6c7920676f7665726e616e636560881b604482015290519081900360640190fd5b565b600054600160b01b900460ff1615610e7757333014610e6557fe5b6000805460ff60b01b19169055610e48565b610e48610de9565b610e87610de9565b600082359050600060076001609c1b016001600160a01b0316636221a54b6040518163ffffffff1660e01b815260040160206040518083038186803b158015610ecf57600080fd5b505afa158015610ee3573d6000803e3d6000fd5b505050506040513d6020811015610ef957600080fd5b505160408051808201825242830180825282516020601f89018190048102820181019094528781529394509290918281019190889088908190840183828082843760009201829052509390945250506001600160e01b03198616815260016020818152604090922084518155848301518051919450610f7d93928501920190611111565b509050507fed948300a3694aa01d4a6b258bfd664350193d770c0b51f8387277f6d83ea3b68382878760405180856001600160e01b0319168152602001848152602001806020018281038252848482818152602001925080828437600083820152604051601f909101601f191690920182900397509095505050505050a15050505050565b6040516000906001600160a01b0384169083908381818185875af1925050503d806000811461104d576040519150601f19603f3d011682016040523d82523d6000602084013e611052565b606091505b5050905080604051806040016040528060118152602001701cd95b9908199d5b991cc819985a5b1959607a1b8152509061084e5760405162461bcd60e51b8152602060048201818152835160248401528351909283926044909101919085019080838360008315610180578181015183820152602001610168565b50805460018160011615610100020316600290046000825580601f106110f35750610b89565b601f016020900490600052602060002090810190610b89919061119d565b828054600181600116156101000203166002900490600052602060002090601f016020900481019282611147576000855561118d565b82601f1061116057805160ff191683800117855561118d565b8280016001018555821561118d579182015b8281111561118d578251825591602001919060010190611172565b5061119992915061119d565b5090565b5b80821115611199576000815560010161119e56fea2646970667358221220f66513ccdc9bb304ecb3e65b1f83ee137da6b2ec6915b6dbf3468a615880b23464736f6c63430007060033",
    "linkReferences": {},
    "deployedLinkReferences": {}
}