{
  "_format": "hh-sol-artifact-1",
  "contractName": "Supply",
  "sourceName": "contracts/inflation/implementation/Supply.sol",
  "abi": [
    {
      "inputs": [
        {
          "internalType": "address",
          "name": "_governance",
          "type": "address"
        },
        {
          "internalType": "address",
          "name": "_addressUpdater",
          "type": "address"
        },
        {
          "internalType": "uint256",
          "name": "_initialGenesisAmountWei",
          "type": "uint256"
        },
        {
          "internalType": "uint256",
          "name": "_totalExcludedSupplyWei",
          "type": "uint256"
        },
        {
          "internalType": "contract IITokenPool[]",
          "name": "_tokenPools",
          "type": "address[]"
        }
      ],
      "stateMutability": "nonpayable",
      "type": "constructor"
    },
    {
      "anonymous": false,
      "inputs": [
        {
          "indexed": false,
          "internalType": "uint256",
          "name": "actual",
          "type": "uint256"
        },
        {
          "indexed": false,
          "internalType": "uint256",
          "name": "expected",
          "type": "uint256"
        }
      ],
      "name": "AuthorizedInflationUpdateError",
      "type": "event"
    },
    {
      "anonymous": false,
      "inputs": [
        {
          "indexed": false,
          "internalType": "bytes4",
          "name": "selector",
          "type": "bytes4"
        },
        {
          "indexed": false,
          "internalType": "uint256",
          "name": "allowedAfterTimestamp",
          "type": "uint256"
        },
        {
          "indexed": false,
          "internalType": "bytes",
          "name": "encodedCall",
          "type": "bytes"
        }
      ],
      "name": "GovernanceCallTimelocked",
      "type": "event"
    },
    {
      "anonymous": false,
      "inputs": [
        {
          "indexed": false,
          "internalType": "address",
          "name": "initialGovernance",
          "type": "address"
        }
      ],
      "name": "GovernanceInitialised",
      "type": "event"
    },
    {
      "anonymous": false,
      "inputs": [
        {
          "indexed": false,
          "internalType": "address",
          "name": "governanceSettings",
          "type": "address"
        }
      ],
      "name": "GovernedProductionModeEntered",
      "type": "event"
    },
    {
      "anonymous": false,
      "inputs": [
        {
          "indexed": false,
          "internalType": "bytes4",
          "name": "selector",
          "type": "bytes4"
        },
        {
          "indexed": false,
          "internalType": "uint256",
          "name": "timestamp",
          "type": "uint256"
        }
      ],
      "name": "TimelockedGovernanceCallCanceled",
      "type": "event"
    },
    {
      "anonymous": false,
      "inputs": [
        {
          "indexed": false,
          "internalType": "bytes4",
          "name": "selector",
          "type": "bytes4"
        },
        {
          "indexed": false,
          "internalType": "uint256",
          "name": "timestamp",
          "type": "uint256"
        }
      ],
      "name": "TimelockedGovernanceCallExecuted",
      "type": "event"
    },
    {
      "inputs": [
        {
          "internalType": "contract IITokenPool",
          "name": "_tokenPool",
          "type": "address"
        },
        {
          "internalType": "uint256",
          "name": "_increaseDistributedSupplyByAmountWei",
          "type": "uint256"
        }
      ],
      "name": "addTokenPool",
      "outputs": [],
      "stateMutability": "nonpayable",
      "type": "function"
    },
    {
      "inputs": [],
      "name": "burnAddress",
      "outputs": [
        {
          "internalType": "address payable",
          "name": "",
          "type": "address"
        }
      ],
      "stateMutability": "pure",
      "type": "function"
    },
    {
      "inputs": [
        {
          "internalType": "bytes4",
          "name": "_selector",
          "type": "bytes4"
        }
      ],
      "name": "cancelGovernanceCall",
      "outputs": [],
      "stateMutability": "nonpayable",
      "type": "function"
    },
    {
      "inputs": [
        {
          "internalType": "uint256",
          "name": "_amountWei",
          "type": "uint256"
        }
      ],
      "name": "decreaseDistributedSupply",
      "outputs": [],
      "stateMutability": "nonpayable",
      "type": "function"
    },
    {
      "inputs": [],
      "name": "distributedExcludedSupplyWei",
      "outputs": [
        {
          "internalType": "uint256",
          "name": "",
          "type": "uint256"
        }
      ],
      "stateMutability": "view",
      "type": "function"
    },
    {
      "inputs": [
        {
          "internalType": "bytes4",
          "name": "_selector",
          "type": "bytes4"
        }
      ],
      "name": "executeGovernanceCall",
      "outputs": [],
      "stateMutability": "nonpayable",
      "type": "function"
    },
    {
      "inputs": [],
      "name": "getAddressUpdater",
      "outputs": [
        {
          "internalType": "address",
          "name": "_addressUpdater",
          "type": "address"
        }
      ],
      "stateMutability": "view",
      "type": "function"
    },
    {
      "inputs": [
        {
          "internalType": "uint256",
          "name": "_blockNumber",
          "type": "uint256"
        }
      ],
      "name": "getCirculatingSupplyAt",
      "outputs": [
        {
          "internalType": "uint256",
          "name": "_circulatingSupplyWei",
          "type": "uint256"
        }
      ],
      "stateMutability": "view",
      "type": "function"
    },
    {
      "inputs": [
        {
          "internalType": "uint256",
          "name": "_blockNumber",
          "type": "uint256"
        }
      ],
      "name": "getCirculatingSupplyAtCached",
      "outputs": [
        {
          "internalType": "uint256",
          "name": "_circulatingSupplyWei",
          "type": "uint256"
        }
      ],
      "stateMutability": "nonpayable",
      "type": "function"
    },
    {
      "inputs": [],
      "name": "getInflatableBalance",
      "outputs": [
        {
          "internalType": "uint256",
          "name": "_inflatableBalanceWei",
          "type": "uint256"
        }
      ],
      "stateMutability": "view",
      "type": "function"
    },
    {
      "inputs": [],
      "name": "governance",
      "outputs": [
        {
          "internalType": "address",
          "name": "",
          "type": "address"
        }
      ],
      "stateMutability": "view",
      "type": "function"
    },
    {
      "inputs": [],
      "name": "governanceSettings",
      "outputs": [
        {
          "internalType": "contract IGovernanceSettings",
          "name": "",
          "type": "address"
        }
      ],
      "stateMutability": "view",
      "type": "function"
    },
    {
      "inputs": [
        {
          "internalType": "uint256",
          "name": "_amountWei",
          "type": "uint256"
        }
      ],
      "name": "increaseDistributedSupply",
      "outputs": [],
      "stateMutability": "nonpayable",
      "type": "function"
    },
    {
      "inputs": [],
      "name": "inflation",
      "outputs": [
        {
          "internalType": "address",
          "name": "",
          "type": "address"
        }
      ],
      "stateMutability": "view",
      "type": "function"
    },
    {
      "inputs": [],
      "name": "initialGenesisAmountWei",
      "outputs": [
        {
          "internalType": "uint256",
          "name": "",
          "type": "uint256"
        }
      ],
      "stateMutability": "view",
      "type": "function"
    },
    {
      "inputs": [
        {
          "internalType": "address",
          "name": "_initialGovernance",
          "type": "address"
        }
      ],
      "name": "initialise",
      "outputs": [],
      "stateMutability": "nonpayable",
      "type": "function"
    },
    {
      "inputs": [],
      "name": "productionMode",
      "outputs": [
        {
          "internalType": "bool",
          "name": "",
          "type": "bool"
        }
      ],
      "stateMutability": "view",
      "type": "function"
    },
    {
      "inputs": [],
      "name": "switchToProductionMode",
      "outputs": [],
      "stateMutability": "nonpayable",
      "type": "function"
    },
    {
      "inputs": [
        {
          "internalType": "bytes4",
          "name": "",
          "type": "bytes4"
        }
      ],
      "name": "timelockedCalls",
      "outputs": [
        {
          "internalType": "uint256",
          "name": "allowedAfterTimestamp",
          "type": "uint256"
        },
        {
          "internalType": "bytes",
          "name": "encodedCall",
          "type": "bytes"
        }
      ],
      "stateMutability": "view",
      "type": "function"
    },
    {
      "inputs": [
        {
          "internalType": "uint256",
          "name": "",
          "type": "uint256"
        }
      ],
      "name": "tokenPools",
      "outputs": [
        {
          "internalType": "contract IITokenPool",
          "name": "tokenPool",
          "type": "address"
        },
        {
          "internalType": "uint256",
          "name": "totalLockedWei",
          "type": "uint256"
        },
        {
          "internalType": "uint256",
          "name": "totalInflationAuthorizedWei",
          "type": "uint256"
        },
        {
          "internalType": "uint256",
          "name": "totalClaimedWei",
          "type": "uint256"
        }
      ],
      "stateMutability": "view",
      "type": "function"
    },
    {
      "inputs": [],
      "name": "totalClaimedWei",
      "outputs": [
        {
          "internalType": "uint256",
          "name": "",
          "type": "uint256"
        }
      ],
      "stateMutability": "view",
      "type": "function"
    },
    {
      "inputs": [],
      "name": "totalExcludedSupplyWei",
      "outputs": [
        {
          "internalType": "uint256",
          "name": "",
          "type": "uint256"
        }
      ],
      "stateMutability": "view",
      "type": "function"
    },
    {
      "inputs": [],
      "name": "totalInflationAuthorizedWei",
      "outputs": [
        {
          "internalType": "uint256",
          "name": "",
          "type": "uint256"
        }
      ],
      "stateMutability": "view",
      "type": "function"
    },
    {
      "inputs": [],
      "name": "totalLockedWei",
      "outputs": [
        {
          "internalType": "uint256",
          "name": "",
          "type": "uint256"
        }
      ],
      "stateMutability": "view",
      "type": "function"
    },
    {
      "inputs": [
        {
          "internalType": "uint256",
          "name": "_inflationAuthorizedWei",
          "type": "uint256"
        }
      ],
      "name": "updateAuthorizedInflationAndCirculatingSupply",
      "outputs": [],
      "stateMutability": "nonpayable",
      "type": "function"
    },
    {
      "inputs": [],
      "name": "updateCirculatingSupply",
      "outputs": [],
      "stateMutability": "nonpayable",
      "type": "function"
    },
    {
      "inputs": [
        {
          "internalType": "bytes32[]",
          "name": "_contractNameHashes",
          "type": "bytes32[]"
        },
        {
          "internalType": "address[]",
          "name": "_contractAddresses",
          "type": "address[]"
        }
      ],
      "name": "updateContractAddresses",
      "outputs": [],
      "stateMutability": "nonpayable",
      "type": "function"
    }
  ],
  "bytecode": "0x60c06040523480156200001157600080fd5b5060405162002c3838038062002c38833981810160405260a08110156200003757600080fd5b81516020830151604080850151606086015160808701805193519597949692959194919392820192846401000000008211156200007357600080fd5b9083019060208201858111156200008957600080fd5b8251866020820283011164010000000082111715620000a757600080fd5b82525081516020918201928201910280838360005b83811015620000d6578181015183820152602001620000bc565b5050505090500160405250505083858060006001600160a01b0316816001600160a01b0316146200010c576200010c81620002ab565b506001600160a01b0381166200015c576040805162461bcd60e51b815260206004820152601060248201526f5f676f7665726e616e6365207a65726f60801b604482015290519081900360640190fd5b5062000168816200036e565b5060408051808201909152601b81527f696e697469616c2067656e6573697320616d6f756e74207a65726f00000000006020820152836200022a5760405162461bcd60e51b81526004018080602001828103825283818151815260200191508051906020019080838360005b83811015620001ee578181015183820152602001620001d4565b50505050905090810190601f1680156200021c5780820380516001836020036101000a031916815260200191505b509250505060405180910390fd5b50608083905260a08290526200025762000251848462000392602090811b620011df17901c565b620003f0565b60005b81518110156200029257620002898282815181106200027557fe5b60200260200101516200043d60201b60201c565b6001016200025a565b50620002a061dead62000552565b505050505062000b52565b600054600160a01b900460ff16156200030b576040805162461bcd60e51b815260206004820152601460248201527f696e697469616c6973656420213d2066616c7365000000000000000000000000604482015290519081900360640190fd5b60008054600160a01b60ff60a01b19909116176001600160a01b0319166001600160a01b03831690811790915560408051918252517f9789733827840833afc031fb2ef9ab6894271f77bad2085687cf4ae5c7bee4db916020908290030190a150565b7f714f205b2abd25bef1d06a1af944e38c113fe6160375c4e1d6d5cf28848e771955565b600082821115620003ea576040805162461bcd60e51b815260206004820152601e60248201527f536166654d6174683a207375627472616374696f6e206f766572666c6f770000604482015290519081900360640190fd5b50900390565b6200043a62000424826200041060026200078460201b620012411760201c565b620007d660201b6200128a1790919060201c565b60026200083860201b620012eb1790919060201c565b50565b60095460005b818110156200050257600981815481106200045a57fe5b60009182526020909120600490910201546001600160a01b0384811691161415620004f957604080518082018252601881527f746f6b656e20706f6f6c20616c726561647920616464656400000000000000006020808301918252925162461bcd60e51b81526004810193845282516024820152825192939283926044909201919080838360008315620001ee578181015183820152602001620001d4565b60010162000443565b50600980546001018082556000829052839190839081106200052057fe5b6000918252602090912060049091020180546001600160a01b0319166001600160a01b03929092169190911790555050565b60095460005b8181101562000774576000600982815481106200057157fe5b600091825260208220600491820201805460408051632dafdbbf60e01b81529051929550849384936001600160a01b0390931692632dafdbbf92808301926060929182900301818787803b158015620005c957600080fd5b505af1158015620005de573d6000803e3d6000fd5b505050506040513d6060811015620005f557600080fd5b508051602080830151604090930151919550919350915081906200062690859085906200128a620007d6821b17901c565b10156200062f57fe5b60006200064f8560020154846200039260201b620011df1790919060201c565b90506200066d81600754620007d660201b6200128a1790919060201c565b6007819055506000620006938660030154846200039260201b620011df1790919060201c565b9050620006a081620003f0565b620006bc81600854620007d660201b6200128a1790919060201c565b60085560018601548510620007035760018601548503620006dd8162000a39565b620006f981600654620007d660201b6200128a1790919060201c565b6006555062000751565b60008587600101540390506200072a816005546200039260201b620011df1790919060201c565b6005819055506200074c816006546200039260201b620011df1790919060201c565b600655505b505060018085019390935560028401919091556003909201919091550162000558565b50620007808262000a6d565b5050565b60018101546000906801000000000000000090046001600160401b031680620007b2576000915050620007d1565b600019016000908152602083905260409020546001600160c01b031690505b919050565b60008282018381101562000831576040805162461bcd60e51b815260206004820152601b60248201527f536166654d6174683a206164646974696f6e206f766572666c6f770000000000604482015290519081900360640190fd5b9392505050565b60018201546801000000000000000090046001600160401b0316806200090f576040518060400160405280620008748462000aa860201b60201c565b6001600160c01b03168152602001620008984362000b0760201b620014b11760201c565b6001600160401b03908116909152600080805260208681526040909120835181549490920151909216600160c01b026001600160c01b039182166001600160c01b03199094169390931716919091179055600183018054600160401b600160801b0319166801000000000000000017905562000a34565b600019810160009081526020849052604090208054600160c01b90046001600160401b0316438114156200096957620009488462000aa8565b82546001600160c01b0319166001600160c01b039190911617825562000a31565b8043116200097357fe5b60405180604001604052806200098f8662000aa860201b60201c565b6001600160c01b03168152602001620009b34362000b0760201b620014b11760201c565b6001600160401b039081169091526000858152602088815260409091208351815494909201518316600160c01b026001600160c01b039283166001600160c01b03199095169490941790911692909217909155600180870180549186019092166801000000000000000002600160401b600160801b03199091161790555b50505b505050565b6200043a620004248262000a5960026200078460201b620012411760201c565b6200039260201b620011df1790919060201c565b6000816001600160a01b031631905062000aa262000a9c600b54836200039260201b620011df1790919060201c565b62000a39565b600b5550565b6000600160c01b821062000b03576040805162461bcd60e51b815260206004820152601d60248201527f76616c756520646f65736e27742066697420696e203139322062697473000000604482015290519081900360640190fd5b5090565b600068010000000000000000821062000b035760405162461bcd60e51b815260040180806020018281038252602681526020018062002c126026913960400191505060405180910390fd5b60805160a05161208d62000b856000398061067b52806110a75280611c3f5250806106b15280611020525061208d6000f3fe608060405234801561001057600080fd5b50600436106101a85760003560e01c806374e6310e116100f9578063d0c1c39311610097578063e17f212e11610071578063e17f212e1461055c578063e433f81814610578578063efcf7eb214610580578063f5a98383146105ac576101a8565b8063d0c1c3931461051a578063d9330e6314610522578063df3d9b731461053f576101a8565b8063a2420e20116100d3578063a2420e20146103c6578063b00c0b76146103e3578063be0522e01461050a578063bfebbd2614610512576101a8565b806374e6310e146102f25780639d6a890f146103985780639f71043e146103be576101a8565b80635267a15d116101665780636159b0a3116101405780636159b0a31461029e57806362354e03146102bb57806367fc4029146102c357806370d5ae05146102ea576101a8565b80635267a15d1461024b5780635aa6e6751461026f5780635ff2707914610277576101a8565b8062c0f916146101ad578063037b0890146101fa578063099eea62146102295780631b73b4cb1461023157806332ae2927146102395780633c8c461c14610241575b600080fd5b6101ca600480360360208110156101c357600080fd5b50356105b4565b604080516001600160a01b0390951685526020850193909352838301919091526060830152519081900360800190f35b6102176004803603602081101561021057600080fd5b50356105f8565b60408051918252519081900360200190f35b610217610662565b610217610668565b6102176106e1565b6102496106e7565b005b6102536107b1565b604080516001600160a01b039092168252519081900360200190f35b6102536107d6565b6102496004803603602081101561028d57600080fd5b50356001600160e01b03191661086a565b610249600480360360208110156102b457600080fd5b5035610bbf565b610253610c25565b610249600480360360208110156102d957600080fd5b50356001600160e01b031916610c30565b610253610d18565b6103196004803603602081101561030857600080fd5b50356001600160e01b031916610d1e565b6040518083815260200180602001828103825283818151815260200191508051906020019080838360005b8381101561035c578181015183820152602001610344565b50505050905090810190601f1680156103895780820380516001836020036101000a031916815260200191505b50935050505060405180910390f35b610249600480360360208110156103ae57600080fd5b50356001600160a01b0316610dc4565b610217610e7d565b610249600480360360208110156103dc57600080fd5b5035610e83565b610249600480360360408110156103f957600080fd5b81019060208101813564010000000081111561041457600080fd5b82018360208201111561042657600080fd5b8035906020019184602083028401116401000000008311171561044857600080fd5b919080806020026020016040519081016040528093929190818152602001838360200280828437600092019190915250929594936020810193503591505064010000000081111561049857600080fd5b8201836020820111156104aa57600080fd5b803590602001918460208302840111640100000000831117156104cc57600080fd5b919080806020026020016040519081016040528093929190818152602001838360200280828437600092019190915250929550610f68945050505050565b61025361100f565b61021761101e565b610217611042565b6102176004803603602081101561053857600080fd5b5035611048565b6102496004803603602081101561055557600080fd5b503561105d565b610564611095565b604080519115158252519081900360200190f35b6102176110a5565b6102496004803603604081101561059657600080fd5b506001600160a01b0381351690602001356110c9565b610249611125565b600981815481106105c457600080fd5b600091825260209091206004909102018054600182015460028301546003909301546001600160a01b039092169350919084565b600043821061064e576040805162461bcd60e51b815260206004820181905260248201527f43616e206f6e6c79206265207573656420666f72207061737420626c6f636b73604482015290519081900360640190fd5b61065b60046002846114f9565b5092915050565b60055481565b60006106dc6006546106d66106a86005547f00000000000000000000000000000000000000000000000000000000000000006111df90919063ffffffff16565b6008546106d6907f00000000000000000000000000000000000000000000000000000000000000009061128a565b906111df565b905090565b60065481565b600a5460408051808201909152600e81526d696e666c6174696f6e206f6e6c7960901b6020820152906001600160a01b031633146107a35760405162461bcd60e51b81526004018080602001828103825283818151815260200191508051906020019080838360005b83811015610768578181015183820152602001610750565b50505050905090810190601f1680156107955780820380516001836020036101000a031916815260200191505b509250505060405180910390fd5b506107af61dead611557565b565b7f714f205b2abd25bef1d06a1af944e38c113fe6160375c4e1d6d5cf28848e77195490565b60008054600160a81b900460ff166107f9576000546001600160a01b03166106dc565b60076001609c1b016001600160a01b031663732524946040518163ffffffff1660e01b815260040160206040518083038186803b15801561083957600080fd5b505afa15801561084d573d6000803e3d6000fd5b505050506040513d602081101561086357600080fd5b5051905090565b60408051630debfda360e41b8152336004820152905160076001609c1b019163debfda30916024808301926020929190829003018186803b1580156108ae57600080fd5b505afa1580156108c2573d6000803e3d6000fd5b505050506040513d60208110156108d857600080fd5b505161091b576040805162461bcd60e51b815260206004820152600d60248201526c37b7363c9032bc32b1baba37b960991b604482015290519081900360640190fd5b6001600160e01b0319811660009081526001602052604090208054610987576040805162461bcd60e51b815260206004820152601a60248201527f74696d656c6f636b3a20696e76616c69642073656c6563746f72000000000000604482015290519081900360640190fd5b80544210156109dd576040805162461bcd60e51b815260206004820152601960248201527f74696d656c6f636b3a206e6f7420616c6c6f7765642079657400000000000000604482015290519081900360640190fd5b6000816001018054600181600116156101000203166002900480601f016020809104026020016040519081016040528092919081815260200182805460018160011615610100020316600290048015610a775780601f10610a4c57610100808354040283529160200191610a77565b820191906000526020600020905b815481529060010190602001808311610a5a57829003601f168201915b5050506001600160e01b0319861660009081526001602081905260408220828155949550909250610aab9150830182611f24565b50506000805460ff60b01b1916600160b01b178155604051825130918491819060208401908083835b60208310610af35780518252601f199092019160209182019101610ad4565b6001836020036101000a0380198251168184511680821785525050505050509050019150506000604051808303816000865af19150503d8060008114610b55576040519150601f19603f3d011682016040523d82523d6000602084013e610b5a565b606091505b50506000805460ff60b01b19169055604080516001600160e01b03198716815242602082015281519293507fa7326b57fc9cfe267aaea5e7f0b01757154d265620a0585819416ee9ddd2c438929081900390910190a1610bb981611701565b50505050565b600054600160b01b900460ff1680610be15750600054600160a81b900460ff16155b15610c1757610bee61171e565b600554610bfb90826111df565b600555610c0781611753565b610c1261dead611557565b610c22565b610c2260003661176c565b50565b60076001609c1b0181565b610c386118ef565b6001600160e01b03198116600090815260016020526040902054610ca3576040805162461bcd60e51b815260206004820152601a60248201527f74696d656c6f636b3a20696e76616c69642073656c6563746f72000000000000604482015290519081900360640190fd5b604080516001600160e01b03198316815242602082015281517f7735b2391c38a81419c513e30ca578db7158eadd7101511b23e221c654d19cf8929181900390910190a16001600160e01b03198116600090815260016020819052604082208281559190610d1390830182611f24565b505050565b61dead90565b600160208181526000928352604092839020805481840180548651600296821615610100026000190190911695909504601f81018590048502860185019096528585529094919392909190830182828015610dba5780601f10610d8f57610100808354040283529160200191610dba565b820191906000526020600020905b815481529060010190602001808311610d9d57829003601f168201915b5050505050905082565b600054600160a01b900460ff1615610e1a576040805162461bcd60e51b8152602060048201526014602482015273696e697469616c6973656420213d2066616c736560601b604482015290519081900360640190fd5b60008054600160a01b60ff60a01b19909116176001600160a01b0319166001600160a01b03831690811790915560408051918252517f9789733827840833afc031fb2ef9ab6894271f77bad2085687cf4ae5c7bee4db916020908290030190a150565b60085481565b600a5460408051808201909152600e81526d696e666c6174696f6e206f6e6c7960901b6020820152906001600160a01b03163314610f025760405162461bcd60e51b8152602060048201818152835160248401528351909283926044909101919085019080838360008315610768578181015183820152602001610750565b50600754610f1161dead611557565b610f1b818361128a565b60075414610f6457600754604080519183900382526020820184905280517feeb8970a03ae6e5930263b6b2553da66b8e20080d79a3f33c139e5855574eb739281900390910190a15b5050565b610f706107b1565b6001600160a01b0316336001600160a01b031614610fcc576040805162461bcd60e51b815260206004820152601460248201527337b7363c9030b2323932b9b9903ab83230ba32b960611b604482015290519081900360640190fd5b61100561100083836040518060400160405280600e81526020016d20b2323932b9b9aab83230ba32b960911b81525061194e565b611a7b565b610f648282611a9f565b600a546001600160a01b031681565b7f000000000000000000000000000000000000000000000000000000000000000081565b60075481565b6000611055600283611aef565b90505b919050565b600054600160b01b900460ff168061107f5750600054600160a81b900460ff16155b15610c175761108c61171e565b610c0781611c36565b600054600160a81b900460ff1681565b7f000000000000000000000000000000000000000000000000000000000000000081565b600054600160b01b900460ff16806110eb5750600054600160a81b900460ff16155b1561111a576110f861171e565b61110181611c36565b61110a82611c90565b61111561dead611557565b610f64565b610f6460003661176c565b61112d6118ef565b600054600160a81b900460ff161561118c576040805162461bcd60e51b815260206004820152601a60248201527f616c726561647920696e2070726f64756374696f6e206d6f6465000000000000604482015290519081900360640190fd5b60008054600161ff0160a01b031916600160a81b1790556040805160076001609c1b01815290517f83af113638b5422f9e977cebc0aaf0eaf2188eb9a8baae7f9d46c42b33a1560c9181900360200190a1565b600082821115611236576040805162461bcd60e51b815260206004820152601e60248201527f536166654d6174683a207375627472616374696f6e206f766572666c6f770000604482015290519081900360640190fd5b508082035b92915050565b6001810154600090600160401b900467ffffffffffffffff1680611269576000915050611058565b6000190160009081526020929092525060409020546001600160c01b031690565b6000828201838110156112e4576040805162461bcd60e51b815260206004820152601b60248201527f536166654d6174683a206164646974696f6e206f766572666c6f770000000000604482015290519081900360640190fd5b9392505050565b6001820154600160401b900467ffffffffffffffff16806113a457604051806040016040528061131a84611d9e565b6001600160c01b03168152602001611331436114b1565b67ffffffffffffffff908116909152600080805260208681526040909120835181549490920151909216600160c01b026001600160c01b039182166001600160c01b0319909416939093171691909117905560018301805467ffffffffffffffff60401b1916600160401b179055610d13565b600019810160009081526020849052604090208054600160c01b900467ffffffffffffffff16438114156113fb576113db84611d9e565b82546001600160c01b0319166001600160c01b03919091161782556114aa565b80431161140457fe5b604051806040016040528061141886611d9e565b6001600160c01b0316815260200161142f436114b1565b67ffffffffffffffff9081169091526000858152602088815260409091208351815494909201518316600160c01b026001600160c01b039283166001600160c01b0319909516949094179091169290921790915560018087018054918601909216600160401b0267ffffffffffffffff60401b199091161790555b5050505050565b6000600160401b82106114f55760405162461bcd60e51b81526004018080602001828103825260268152602001806120026026913960400191505060405180910390fd5b5090565b6000818152602084905260408120548190801561151f576000190191506000905061154f565b600061152b8686611aef565b905061153881600161128a565b600086815260208990526040902055925060019150505b935093915050565b60095460005b818110156116f75760006009828154811061157457fe5b600091825260208220600491820201805460408051632dafdbbf60e01b81529051929550849384936001600160a01b0390931692632dafdbbf92808301926060929182900301818787803b1580156115cb57600080fd5b505af11580156115df573d6000803e3d6000fd5b505050506040513d60608110156115f557600080fd5b5080516020820151604090920151909450909250905080611616848461128a565b101561161e57fe5b60006116378560020154846111df90919063ffffffff16565b600754909150611647908261128a565b600755600385015460009061165d9084906111df565b905061166881611df8565b600854611675908261128a565b600855600186015485106116a9576001860154850361169381611753565b6006546116a0908261128a565b600655506116d5565b600186015460055490869003906116c090826111df565b6005556006546116d090826111df565b600655505b505060018085019390935560028401919091556003909201919091550161155d565b50610f6482611e0f565b3d604051818101604052816000823e821561171a578181f35b8181fd5b600054600160b01b900460ff161561174b5733301461173957fe5b6000805460ff60b01b191690556107af565b6107af6118ef565b610c22611764826106d66002611241565b6002906112eb565b6117746118ef565b600082359050600060076001609c1b016001600160a01b0316636221a54b6040518163ffffffff1660e01b815260040160206040518083038186803b1580156117bc57600080fd5b505afa1580156117d0573d6000803e3d6000fd5b505050506040513d60208110156117e657600080fd5b505160408051808201825242830180825282516020601f89018190048102820181019094528781529394509290918281019190889088908190840183828082843760009201829052509390945250506001600160e01b0319861681526001602081815260409092208451815584830151805191945061186a93928501920190611f68565b509050507fed948300a3694aa01d4a6b258bfd664350193d770c0b51f8387277f6d83ea3b68382878760405180856001600160e01b0319168152602001848152602001806020018281038252848482818152602001925080828437600083820152604051601f909101601f191690920182900397509095505050505050a15050505050565b6118f76107d6565b6001600160a01b0316336001600160a01b0316146107af576040805162461bcd60e51b815260206004820152600f60248201526e6f6e6c7920676f7665726e616e636560881b604482015290519081900360640190fd5b600080826040516020018080602001828103825283818151815260200191508051906020019080838360005b8381101561199257818101518382015260200161197a565b50505050905090810190601f1680156119bf5780820380516001836020036101000a031916815260200191505b50925050506040516020818303038152906040528051906020012090506000805b8651811015611a27578681815181106119f557fe5b6020026020010151831415611a1f57858181518110611a1057fe5b60200260200101519150611a27565b6001016119e0565b506001600160a01b038116611a72576040805162461bcd60e51b815260206004820152600c60248201526b61646472657373207a65726f60a01b604482015290519081900360640190fd5b95945050505050565b7f714f205b2abd25bef1d06a1af944e38c113fe6160375c4e1d6d5cf28848e771955565b611acb82826040518060400160405280600981526020016824b7333630ba34b7b760b91b81525061194e565b600a80546001600160a01b0319166001600160a01b03929092169190911790555050565b6001820154600090600160401b900467ffffffffffffffff1680611b1757600091505061123b565b4383101580611b4a57506000198101600090815260208590526040902054600160c01b900467ffffffffffffffff168310155b15611b7257600019016000908152602084905260409020546001600160c01b0316905061123b565b600184015467ffffffffffffffff9081166000818152602087905260409020549091600160c01b90910416841015611bec578015611be15760405162461bcd60e51b81526004018080602001828103825260308152602001806120286030913960400191505060405180910390fd5b60009250505061123b565b6001850154600090611c139087908490600160401b900467ffffffffffffffff1688611e38565b6000908152602087905260409020546001600160c01b0316935050505092915050565b80611c6c6005547f00000000000000000000000000000000000000000000000000000000000000006111df90919063ffffffff16565b1015611c7457fe5b611c7d81611df8565b600554611c8a908261128a565b60055550565b60095460005b81811015611d4f5760098181548110611cab57fe5b60009182526020909120600490910201546001600160a01b0384811691161415611d4757604080518082018252601881527f746f6b656e20706f6f6c20616c726561647920616464656400000000000000006020808301918252925162461bcd60e51b81526004810193845282516024820152825192939283926044909201919080838360008315610768578181015183820152602001610750565b600101611c96565b5060098054600101808255600082905283919083908110611d6c57fe5b6000918252602090912060049091020180546001600160a01b0319166001600160a01b03929092169190911790555050565b6000600160c01b82106114f5576040805162461bcd60e51b815260206004820152601d60248201527f76616c756520646f65736e27742066697420696e203139322062697473000000604482015290519081900360640190fd5b610c2261176482611e096002611241565b9061128a565b600b546001600160a01b0382163190611e3290611e2d9083906111df565b611753565b600b5550565b60008381611e478560016111df565b90505b81811115611eb3576000611e6e6002611e686001611e09868861128a565b90611ebd565b600081815260208a90526040902054909150600160c01b900467ffffffffffffffff168510611e9f57809250611ead565b611eaa8160016111df565b91505b50611e4a565b5095945050505050565b6000808211611f13576040805162461bcd60e51b815260206004820152601a60248201527f536166654d6174683a206469766973696f6e206279207a65726f000000000000604482015290519081900360640190fd5b818381611f1c57fe5b049392505050565b50805460018160011615610100020316600290046000825580601f10611f4a5750610c22565b601f016020900490600052602060002090810190610c229190611fec565b828054600181600116156101000203166002900490600052602060002090601f016020900481019282611f9e5760008555611fe4565b82601f10611fb757805160ff1916838001178555611fe4565b82800160010185558215611fe4579182015b82811115611fe4578251825591602001919060010190611fc9565b506114f59291505b5b808211156114f55760008155600101611fed56fe53616665436173743a2076616c756520646f65736e27742066697420696e2036342062697473436865636b506f696e74486973746f72793a2072656164696e672066726f6d20636c65616e65642d757020626c6f636ba26469706673582212202227caa5ba38fdb631fd4cb38393ca7ae7c3557a2574ab3d0754308c9507274564736f6c6343000706003353616665436173743a2076616c756520646f65736e27742066697420696e2036342062697473",
  "linkReferences": {},
  "deployedLinkReferences": {}
}