{
    "_format": "hh-sol-artifact-1",
    "contractName": "InflationAllocation",
    "sourceName": "contracts/inflation/implementation/InflationAllocation.sol",
    "abi": [
        {
            "inputs": [
                {
                    "internalType": "address",
                    "name": "_governance",
                    "type": "address"
                },
                {
                    "internalType": "address",
                    "name": "_addressUpdater",
                    "type": "address"
                },
                {
                    "internalType": "uint256[]",
                    "name": "_annualInflationScheduleBips",
                    "type": "uint256[]"
                }
            ],
            "stateMutability": "nonpayable",
            "type": "constructor"
        },
        {
            "anonymous": false,
            "inputs": [
                {
                    "indexed": false,
                    "internalType": "uint256[]",
                    "name": "annualInflationPercentagesBips",
                    "type": "uint256[]"
                }
            ],
            "name": "AnnualInflationPercentageScheduleSet",
            "type": "event"
        },
        {
            "anonymous": false,
            "inputs": [
                {
                    "indexed": false,
                    "internalType": "uint256",
                    "name": "percentageBips",
                    "type": "uint256"
                }
            ],
            "name": "AnnualInflationPercentageYielded",
            "type": "event"
        },
        {
            "anonymous": false,
            "inputs": [
                {
                    "indexed": false,
                    "internalType": "bytes4",
                    "name": "selector",
                    "type": "bytes4"
                },
                {
                    "indexed": false,
                    "internalType": "uint256",
                    "name": "allowedAfterTimestamp",
                    "type": "uint256"
                },
                {
                    "indexed": false,
                    "internalType": "bytes",
                    "name": "encodedCall",
                    "type": "bytes"
                }
            ],
            "name": "GovernanceCallTimelocked",
            "type": "event"
        },
        {
            "anonymous": false,
            "inputs": [
                {
                    "indexed": false,
                    "internalType": "address",
                    "name": "initialGovernance",
                    "type": "address"
                }
            ],
            "name": "GovernanceInitialised",
            "type": "event"
        },
        {
            "anonymous": false,
            "inputs": [
                {
                    "indexed": false,
                    "internalType": "address",
                    "name": "governanceSettings",
                    "type": "address"
                }
            ],
            "name": "GovernedProductionModeEntered",
            "type": "event"
        },
        {
            "anonymous": false,
            "inputs": [
                {
                    "indexed": false,
                    "internalType": "address",
                    "name": "oldAddress",
                    "type": "address"
                },
                {
                    "indexed": false,
                    "internalType": "address",
                    "name": "newAddress",
                    "type": "address"
                }
            ],
            "name": "InflationSet",
            "type": "event"
        },
        {
            "anonymous": false,
            "inputs": [
                {
                    "indexed": false,
                    "internalType": "contract IIInflationReceiver[]",
                    "name": "inflationReceivers",
                    "type": "address[]"
                },
                {
                    "indexed": false,
                    "internalType": "uint256[]",
                    "name": "percentagePerReceiverBips",
                    "type": "uint256[]"
                }
            ],
            "name": "InflationSharingPercentagesSet",
            "type": "event"
        },
        {
            "anonymous": false,
            "inputs": [
                {
                    "indexed": false,
                    "internalType": "bytes4",
                    "name": "selector",
                    "type": "bytes4"
                },
                {
                    "indexed": false,
                    "internalType": "uint256",
                    "name": "timestamp",
                    "type": "uint256"
                }
            ],
            "name": "TimelockedGovernanceCallCanceled",
            "type": "event"
        },
        {
            "anonymous": false,
            "inputs": [
                {
                    "indexed": false,
                    "internalType": "bytes4",
                    "name": "selector",
                    "type": "bytes4"
                },
                {
                    "indexed": false,
                    "internalType": "uint256",
                    "name": "timestamp",
                    "type": "uint256"
                }
            ],
            "name": "TimelockedGovernanceCallExecuted",
            "type": "event"
        },
        {
            "inputs": [
                {
                    "internalType": "uint256",
                    "name": "",
                    "type": "uint256"
                }
            ],
            "name": "annualInflationPercentagesBips",
            "outputs": [
                {
                    "internalType": "uint256",
                    "name": "",
                    "type": "uint256"
                }
            ],
            "stateMutability": "view",
            "type": "function"
        },
        {
            "inputs": [
                {
                    "internalType": "bytes4",
                    "name": "_selector",
                    "type": "bytes4"
                }
            ],
            "name": "cancelGovernanceCall",
            "outputs": [],
            "stateMutability": "nonpayable",
            "type": "function"
        },
        {
            "inputs": [
                {
                    "internalType": "bytes4",
                    "name": "_selector",
                    "type": "bytes4"
                }
            ],
            "name": "executeGovernanceCall",
            "outputs": [],
            "stateMutability": "nonpayable",
            "type": "function"
        },
        {
            "inputs": [],
            "name": "getAddressUpdater",
            "outputs": [
                {
                    "internalType": "address",
                    "name": "_addressUpdater",
                    "type": "address"
                }
            ],
            "stateMutability": "view",
            "type": "function"
        },
        {
            "inputs": [],
            "name": "getAnnualPercentageBips",
            "outputs": [
                {
                    "internalType": "uint256",
                    "name": "",
                    "type": "uint256"
                }
            ],
            "stateMutability": "nonpayable",
            "type": "function"
        },
        {
            "inputs": [],
            "name": "getSharingPercentages",
            "outputs": [
                {
                    "components": [
                        {
                            "internalType": "contract IIInflationReceiver",
                            "name": "inflationReceiver",
                            "type": "address"
                        },
                        {
                            "internalType": "uint256",
                            "name": "percentBips",
                            "type": "uint256"
                        }
                    ],
                    "internalType": "struct SharingPercentage[]",
                    "name": "_sharingPercentages",
                    "type": "tuple[]"
                }
            ],
            "stateMutability": "view",
            "type": "function"
        },
        {
            "inputs": [],
            "name": "governance",
            "outputs": [
                {
                    "internalType": "address",
                    "name": "",
                    "type": "address"
                }
            ],
            "stateMutability": "view",
            "type": "function"
        },
        {
            "inputs": [],
            "name": "governanceSettings",
            "outputs": [
                {
                    "internalType": "contract IGovernanceSettings",
                    "name": "",
                    "type": "address"
                }
            ],
            "stateMutability": "view",
            "type": "function"
        },
        {
            "inputs": [],
            "name": "inflation",
            "outputs": [
                {
                    "internalType": "contract Inflation",
                    "name": "",
                    "type": "address"
                }
            ],
            "stateMutability": "view",
            "type": "function"
        },
        {
            "inputs": [
                {
                    "internalType": "uint256",
                    "name": "",
                    "type": "uint256"
                }
            ],
            "name": "inflationReceivers",
            "outputs": [
                {
                    "internalType": "contract IIInflationReceiver",
                    "name": "receiverContract",
                    "type": "address"
                },
                {
                    "internalType": "uint32",
                    "name": "percentageBips",
                    "type": "uint32"
                }
            ],
            "stateMutability": "view",
            "type": "function"
        },
        {
            "inputs": [
                {
                    "internalType": "address",
                    "name": "_initialGovernance",
                    "type": "address"
                }
            ],
            "name": "initialise",
            "outputs": [],
            "stateMutability": "nonpayable",
            "type": "function"
        },
        {
            "inputs": [],
            "name": "lastAnnualInflationPercentageBips",
            "outputs": [
                {
                    "internalType": "uint256",
                    "name": "",
                    "type": "uint256"
                }
            ],
            "stateMutability": "view",
            "type": "function"
        },
        {
            "inputs": [],
            "name": "productionMode",
            "outputs": [
                {
                    "internalType": "bool",
                    "name": "",
                    "type": "bool"
                }
            ],
            "stateMutability": "view",
            "type": "function"
        },
        {
            "inputs": [
                {
                    "internalType": "uint256[]",
                    "name": "_annualInflationScheduleBips",
                    "type": "uint256[]"
                }
            ],
            "name": "setAnnualInflation",
            "outputs": [],
            "stateMutability": "nonpayable",
            "type": "function"
        },
        {
            "inputs": [
                {
                    "internalType": "contract IIInflationReceiver[]",
                    "name": "_inflationReceivers",
                    "type": "address[]"
                },
                {
                    "internalType": "uint256[]",
                    "name": "_percentagePerReceiverBips",
                    "type": "uint256[]"
                }
            ],
            "name": "setSharingPercentages",
            "outputs": [],
            "stateMutability": "nonpayable",
            "type": "function"
        },
        {
            "inputs": [],
            "name": "switchToProductionMode",
            "outputs": [],
            "stateMutability": "nonpayable",
            "type": "function"
        },
        {
            "inputs": [
                {
                    "internalType": "bytes4",
                    "name": "",
                    "type": "bytes4"
                }
            ],
            "name": "timelockedCalls",
            "outputs": [
                {
                    "internalType": "uint256",
                    "name": "allowedAfterTimestamp",
                    "type": "uint256"
                },
                {
                    "internalType": "bytes",
                    "name": "encodedCall",
                    "type": "bytes"
                }
            ],
            "stateMutability": "view",
            "type": "function"
        },
        {
            "inputs": [
                {
                    "internalType": "bytes32[]",
                    "name": "_contractNameHashes",
                    "type": "bytes32[]"
                },
                {
                    "internalType": "address[]",
                    "name": "_contractAddresses",
                    "type": "address[]"
                }
            ],
            "name": "updateContractAddresses",
            "outputs": [],
            "stateMutability": "nonpayable",
            "type": "function"
        }
    ],
    "bytecode": "0x60806040523480156200001157600080fd5b5060405162002469380380620024698339810160408190526200003491620003b2565b8183806001600160a01b038116156200005257620000528162000145565b506001600160a01b038116620000a2576040805162461bcd60e51b815260206004820152601060248201526f5f676f7665726e616e6365207a65726f60801b604482015290519081900360640190fd5b50620000ae8162000208565b5060008151116040518060400160405280601f81526020017f616e6e75616c20696e666c6174696f6e207363686564756c6520656d7074790081525090620001145760405162461bcd60e51b81526004016200010b91906200048f565b60405180910390fd5b50806000815181106200012357fe5b60209081029190910101516004556200013c816200022c565b505050620004e5565b600054600160a01b900460ff1615620001a5576040805162461bcd60e51b815260206004820152601460248201527f696e697469616c6973656420213d2066616c7365000000000000000000000000604482015290519081900360640190fd5b60008054600160a01b60ff60a01b19909116176001600160a01b0319166001600160a01b03831690811790915560408051918252517f9789733827840833afc031fb2ef9ab6894271f77bad2085687cf4ae5c7bee4db916020908290030190a150565b7f714f205b2abd25bef1d06a1af944e38c113fe6160375c4e1d6d5cf28848e771955565b60198151111560405180604001604052806008815260200167746f6f206d616e7960c01b81525090620002745760405162461bcd60e51b81526004016200010b91906200048f565b50805160045460005b828110156200038f57818482815181106200029457fe5b602002602001015111158015620002bf57506000848281518110620002b557fe5b6020026020010151115b8015620002e55750600a61271004848281518110620002da57fe5b602002602001015111155b6040518060400160405280601e81526020017f616e6e75616c20696e666c6174696f6e206f7574206f6620626f756e64730000815250906200033c5760405162461bcd60e51b81526004016200010b91906200048f565b508381815181106200034a57fe5b6020026020010151915060058482815181106200036357fe5b60209081029190910181015182546001818101855560009485529290932090920191909155016200027d565b50505050565b80516001600160a01b0381168114620003ad57600080fd5b919050565b600080600060608486031215620003c7578283fd5b620003d28462000395565b92506020620003e381860162000395565b60408601519093506001600160401b038082111562000400578384fd5b818701915087601f83011262000414578384fd5b8151818111156200042157fe5b838102604051858282010181811085821117156200043b57fe5b604052828152858101935084860182860187018c10156200045a578788fd5b8795505b838610156200047e5780518552600195909501949386019386016200045e565b508096505050505050509250925092565b6000602080835283518082850152825b81811015620004bd578581018301518582016040015282016200049f565b81811115620004cf5783604083870101525b50601f01601f1916929092016040019392505050565b611f7480620004f56000396000f3fe608060405234801561001057600080fd5b50600436106101165760003560e01c806398194029116100a2578063be0522e011610071578063be0522e014610227578063c853b8d41461022f578063e17f212e14610244578063ebee6fa414610259578063f5a983831461026157610116565b806398194029146101e65780639d6a890f146101ee578063b00c0b7614610201578063b2d9e8061461021457610116565b806362354e03116100e957806362354e031461017757806367fc40291461017f578063728a5bcb1461019257806374e6310e146101b257806390ac884b146101d357610116565b80631d019e341461011b5780635267a15d146101455780635aa6e6751461015a5780635ff2707914610162575b600080fd5b61012e610129366004611ce5565b610269565b60405161013c929190611e67565b60405180910390f35b61014d6102a1565b60405161013c9190611d63565b61014d6102c6565b610175610170366004611c33565b61035b565b005b61014d6106b0565b61017561018d366004611c33565b6106bb565b6101a56101a0366004611ce5565b6107a3565b60405161013c9190611e99565b6101c56101c0366004611c33565b6107c4565b60405161013c929190611ea2565b6101756101e1366004611bf8565b61086a565b6101a5610927565b6101756101fc366004611a68565b610ab7565b61017561020f366004611a8b565b610b70565b610175610222366004611b42565b610c1b565b61014d610c64565b610237610c73565b60405161013c9190611df1565b61024c610d7d565b60405161013c9190611e5c565b6101a5610d8d565b610175610d93565b6002818154811061027957600080fd5b6000918252602090912001546001600160a01b0381169150600160a01b900463ffffffff1682565b7f714f205b2abd25bef1d06a1af944e38c113fe6160375c4e1d6d5cf28848e77195490565b60008054600160a81b900460ff166102e9576000546001600160a01b0316610356565b60076001609c1b016001600160a01b031663732524946040518163ffffffff1660e01b815260040160206040518083038186803b15801561032957600080fd5b505afa15801561033d573d6000803e3d6000fd5b505050506040513d602081101561035357600080fd5b50515b905090565b60408051630debfda360e41b8152336004820152905160076001609c1b019163debfda30916024808301926020929190829003018186803b15801561039f57600080fd5b505afa1580156103b3573d6000803e3d6000fd5b505050506040513d60208110156103c957600080fd5b505161040c576040805162461bcd60e51b815260206004820152600d60248201526c37b7363c9032bc32b1baba37b960991b604482015290519081900360640190fd5b6001600160e01b0319811660009081526001602052604090208054610478576040805162461bcd60e51b815260206004820152601a60248201527f74696d656c6f636b3a20696e76616c69642073656c6563746f72000000000000604482015290519081900360640190fd5b80544210156104ce576040805162461bcd60e51b815260206004820152601960248201527f74696d656c6f636b3a206e6f7420616c6c6f7765642079657400000000000000604482015290519081900360640190fd5b6000816001018054600181600116156101000203166002900480601f0160208091040260200160405190810160405280929190818152602001828054600181600116156101000203166002900480156105685780601f1061053d57610100808354040283529160200191610568565b820191906000526020600020905b81548152906001019060200180831161054b57829003601f168201915b5050506001600160e01b031986166000908152600160208190526040822082815594955090925061059c91508301826118a5565b50506000805460ff60b01b1916600160b01b178155604051825130918491819060208401908083835b602083106105e45780518252601f1990920191602091820191016105c5565b6001836020036101000a0380198251168184511680821785525050505050509050019150506000604051808303816000865af19150503d8060008114610646576040519150601f19603f3d011682016040523d82523d6000602084013e61064b565b606091505b50506000805460ff60b01b19169055604080516001600160e01b03198716815242602082015281519293507fa7326b57fc9cfe267aaea5e7f0b01757154d265620a0585819416ee9ddd2c438929081900390910190a16106aa81610e4d565b50505050565b60076001609c1b0181565b6106c3610e6a565b6001600160e01b0319811660009081526001602052604090205461072e576040805162461bcd60e51b815260206004820152601a60248201527f74696d656c6f636b3a20696e76616c69642073656c6563746f72000000000000604482015290519081900360640190fd5b604080516001600160e01b03198316815242602082015281517f7735b2391c38a81419c513e30ca578db7158eadd7101511b23e221c654d19cf8929181900390910190a16001600160e01b0319811660009081526001602081905260408220828155919061079e908301826118a5565b505050565b600581815481106107b357600080fd5b600091825260209091200154905081565b600160208181526000928352604092839020805481840180548651600296821615610100026000190190911695909504601f810185900485028601850190965285855290949193929091908301828280156108605780601f1061083557610100808354040283529160200191610860565b820191906000526020600020905b81548152906001019060200180831161084357829003601f168201915b5050505050905082565b600054600160b01b900460ff168061088c5750600054600160a81b900460ff16155b1561091957610899610ecb565b60055460005b818110156108d25760058054806108b257fe5b60008281526020812082016000199081019190915501905560010161089f565b506108dc82610f00565b7fe3ad326cdb10e1201bcea3d96ccf2f5437ed71942548e5ba0aab68c9bd296fa48260405161090b9190611e49565b60405180910390a150610924565b610924600036611054565b50565b60035460408051808201909152600c81526b06164647265737320697320360a41b60208201526000916001600160a01b031690816109815760405162461bcd60e51b81526004016109789190611e86565b60405180910390fd5b5060035460408051808201909152600e81526d37b7363c9034b7333630ba34b7b760911b6020820152906001600160a01b031633146109d35760405162461bcd60e51b81526004016109789190611e86565b5060055415610a745760056000815481106109ea57fe5b6000918252602090912001546004556005546001811115610a515760005b60018203811015610a4f5760058160010181548110610a2357fe5b906000526020600020015460058281548110610a3b57fe5b600091825260209091200155600101610a08565b505b6005805480610a5c57fe5b60019003818190600052602060002001600090559055505b7fc46384622db26f8a6509e51f7cbe387b3fa773448f19fc9f070fcdc984cffb8e600454604051610aa59190611e99565b60405180910390a160045491505b5090565b600054600160a01b900460ff1615610b0d576040805162461bcd60e51b8152602060048201526014602482015273696e697469616c6973656420213d2066616c736560601b604482015290519081900360640190fd5b60008054600160a01b60ff60a01b19909116176001600160a01b0319166001600160a01b03831690811790915560408051918252517f9789733827840833afc031fb2ef9ab6894271f77bad2085687cf4ae5c7bee4db916020908290030190a150565b610b786102a1565b6001600160a01b0316336001600160a01b031614610bd4576040805162461bcd60e51b815260206004820152601460248201527337b7363c9030b2323932b9b9903ab83230ba32b960611b604482015290519081900360640190fd5b610c0d610c0883836040518060400160405280600e81526020016d20b2323932b9b9aab83230ba32b960911b8152506111d7565b611304565b610c178282611328565b5050565b600054600160b01b900460ff1680610c3d5750600054600160a81b900460ff16155b15610c5957610c4a610ecb565b610c54828261158f565b610c17565b610c17600036611054565b6003546001600160a01b031681565b6002546060908067ffffffffffffffff81118015610c9057600080fd5b50604051908082528060200260200182016040528015610cca57816020015b610cb76118e9565b815260200190600190039081610caf5790505b50915060005b81811015610d785760028181548110610ce557fe5b9060005260206000200160000160149054906101000a900463ffffffff1663ffffffff16838281518110610d1557fe5b6020026020010151602001818152505060028181548110610d3257fe5b60009182526020909120015483516001600160a01b0390911690849083908110610d5857fe5b60209081029190910101516001600160a01b039091169052600101610cd0565b505090565b600054600160a81b900460ff1681565b60045481565b610d9b610e6a565b600054600160a81b900460ff1615610dfa576040805162461bcd60e51b815260206004820152601a60248201527f616c726561647920696e2070726f64756374696f6e206d6f6465000000000000604482015290519081900360640190fd5b60008054600161ff0160a01b031916600160a81b1790556040805160076001609c1b01815290517f83af113638b5422f9e977cebc0aaf0eaf2188eb9a8baae7f9d46c42b33a1560c9181900360200190a1565b3d604051818101604052816000823e8215610e66578181f35b8181fd5b610e726102c6565b6001600160a01b0316336001600160a01b031614610ec9576040805162461bcd60e51b815260206004820152600f60248201526e6f6e6c7920676f7665726e616e636560881b604482015290519081900360640190fd5b565b600054600160b01b900460ff1615610ef857333014610ee657fe5b6000805460ff60b01b19169055610ec9565b610ec9610e6a565b60198151111560405180604001604052806008815260200167746f6f206d616e7960c01b81525090610f455760405162461bcd60e51b81526004016109789190611e86565b50805160045460005b828110156106aa5781848281518110610f6357fe5b602002602001015111158015610f8c57506000848281518110610f8257fe5b6020026020010151115b8015610fb05750600a61271004848281518110610fa557fe5b602002602001015111155b6040518060400160405280601e81526020017f616e6e75616c20696e666c6174696f6e206f7574206f6620626f756e64730000815250906110045760405162461bcd60e51b81526004016109789190611e86565b5083818151811061101157fe5b60200260200101519150600584828151811061102957fe5b6020908102919091018101518254600181810185556000948552929093209092019190915501610f4e565b61105c610e6a565b600082359050600060076001609c1b016001600160a01b0316636221a54b6040518163ffffffff1660e01b815260040160206040518083038186803b1580156110a457600080fd5b505afa1580156110b8573d6000803e3d6000fd5b505050506040513d60208110156110ce57600080fd5b505160408051808201825242830180825282516020601f89018190048102820181019094528781529394509290918281019190889088908190840183828082843760009201829052509390945250506001600160e01b0319861681526001602081815260409092208451815584830151805191945061115293928501920190611900565b509050507fed948300a3694aa01d4a6b258bfd664350193d770c0b51f8387277f6d83ea3b68382878760405180856001600160e01b0319168152602001848152602001806020018281038252848482818152602001925080828437600083820152604051601f909101601f191690920182900397509095505050505050a15050505050565b600080826040516020018080602001828103825283818151815260200191508051906020019080838360005b8381101561121b578181015183820152602001611203565b50505050905090810190601f1680156112485780820380516001836020036101000a031916815260200191505b50925050506040516020818303038152906040528051906020012090506000805b86518110156112b05786818151811061127e57fe5b60200260200101518314156112a85785818151811061129957fe5b602002602001015191506112b0565b600101611269565b506001600160a01b0381166112fb576040805162461bcd60e51b815260206004820152600c60248201526b61646472657373207a65726f60a01b604482015290519081900360640190fd5b95945050505050565b7f714f205b2abd25bef1d06a1af944e38c113fe6160375c4e1d6d5cf28848e771955565b600061135683836040518060400160405280600981526020016824b7333630ba34b7b760b91b8152506111d7565b6003546040519192507f4bdd1012a7d55ed9afad8675a125e1b68c7c15f712c0f3d5cddac69c3b97980591611396916001600160a01b0316908490611d77565b60405180910390a1600380546001600160a01b0319166001600160a01b038316179055600254806113c8575050610c17565b60008167ffffffffffffffff811180156113e157600080fd5b5060405190808252806020026020018201604052801561140b578160200160208202803683370190505b50905060008267ffffffffffffffff8111801561142757600080fd5b50604051908082528060200260200182016040528015611451578160200160208202803683370190505b50905060005b8381101561157c5760006002828154811061146e57fe5b6000918252602080832060408051808201825293909101546001600160a01b038116808552600160a01b90910463ffffffff16928401929092528051637afadd3960e11b81529051929450611525938c938c939263f5f5ba72926004808301939192829003018186803b1580156114e457600080fd5b505afa1580156114f8573d6000803e3d6000fd5b505050506040513d6000823e601f3d908101601f191682016040526115209190810190611c5b565b6111d7565b84838151811061153157fe5b60200260200101906001600160a01b031690816001600160a01b031681525050806020015163ffffffff1683838151811061156857fe5b602090810291909101015250600101611457565b50611587828261158f565b505050505050565b80518251146040518060400160405280600f81526020016e0d8cadccee8d040dad2e6dac2e8c6d608b1b815250906115da5760405162461bcd60e51b81526004016109789190611e86565b50600a8251111560405180604001604052806008815260200167746f6f206d616e7960c01b815250906116205760405162461bcd60e51b81526004016109789190611e86565b50600254600090815b8181101561166657600280548061163c57fe5b600082815260209020810160001990810180546001600160c01b0319169055019055600101611629565b5060005b845181101561180e5761271084828151811061168257fe5b602002602001015111156040518060400160405280601781526020017f686967682073686172696e672070657263656e74616765000000000000000000815250906116e05760405162461bcd60e51b81526004016109789190611e86565b5060006001600160a01b03168582815181106116f857fe5b60200260200101516001600160a01b031614156040518060400160405280600c81526020016b06164647265737320697320360a41b8152509061174e5760405162461bcd60e51b81526004016109789190611e86565b5083818151811061175b57fe5b6020026020010151830192506002604051806040016040528087848151811061178057fe5b60200260200101516001600160a01b031681526020018684815181106117a257fe5b60209081029190910181015163ffffffff90811690925283546001808201865560009586529482902084519101805494909201516001600160a01b03199094166001600160a01b039091161763ffffffff60a01b1916600160a01b93909216929092021790550161166a565b5060408051808201909152601f81527f73756d2073686172696e672070657263656e74616765206e6f74203130302500602082015261271083146118655760405162461bcd60e51b81526004016109789190611e86565b507f5851f041454bd72003e19484c59ec9c1bd9c6f8df07679fd1e94412fb5880b448484604051611897929190611d91565b60405180910390a150505050565b50805460018160011615610100020316600290046000825580601f106118cb5750610924565b601f0160209004906000526020600020908101906109249190611984565b604080518082019091526000808252602082015290565b828054600181600116156101000203166002900490600052602060002090601f016020900481019282611936576000855561197c565b82601f1061194f57805160ff191683800117855561197c565b8280016001018555821561197c579182015b8281111561197c578251825591602001919060010190611961565b50610ab39291505b5b80821115610ab35760008155600101611985565b600082601f8301126119a9578081fd5b813560206119be6119b983611edf565b611ebb565b82815281810190858301838502870184018810156119da578586fd5b855b85811015611a015781356119ef81611f29565b845292840192908401906001016119dc565b5090979650505050505050565b600082601f830112611a1e578081fd5b81356020611a2e6119b983611edf565b8281528181019085830183850287018401881015611a4a578586fd5b855b85811015611a0157813584529284019290840190600101611a4c565b600060208284031215611a79578081fd5b8135611a8481611f29565b9392505050565b60008060408385031215611a9d578081fd5b823567ffffffffffffffff80821115611ab4578283fd5b818501915085601f830112611ac7578283fd5b81356020611ad76119b983611edf565b82815281810190858301838502870184018b1015611af3578788fd5b8796505b84871015611b15578035835260019690960195918301918301611af7565b5096505086013592505080821115611b2b578283fd5b50611b3885828601611999565b9150509250929050565b60008060408385031215611b54578182fd5b823567ffffffffffffffff80821115611b6b578384fd5b818501915085601f830112611b7e578384fd5b81356020611b8e6119b983611edf565b82815281810190858301838502870184018b1015611baa578889fd5b8896505b84871015611bd5578035611bc181611f29565b835260019690960195918301918301611bae565b5096505086013592505080821115611beb578283fd5b50611b3885828601611a0e565b600060208284031215611c09578081fd5b813567ffffffffffffffff811115611c1f578182fd5b611c2b84828501611a0e565b949350505050565b600060208284031215611c44578081fd5b81356001600160e01b031981168114611a84578182fd5b600060208284031215611c6c578081fd5b815167ffffffffffffffff80821115611c83578283fd5b818401915084601f830112611c96578283fd5b815181811115611ca257fe5b611cb5601f8201601f1916602001611ebb565b9150808252856020828501011115611ccb578384fd5b611cdc816020840160208601611efd565b50949350505050565b600060208284031215611cf6578081fd5b5035919050565b6000815180845260208085019450808401835b83811015611d2c57815187529582019590820190600101611d10565b509495945050505050565b60008151808452611d4f816020860160208601611efd565b601f01601f19169290920160200192915050565b6001600160a01b0391909116815260200190565b6001600160a01b0392831681529116602082015260400190565b604080825283519082018190526000906020906060840190828701845b82811015611dd35781516001600160a01b031684529284019290840190600101611dae565b50505083810382850152611de78186611cfd565b9695505050505050565b602080825282518282018190526000919060409081850190868401855b82811015611e3c57815180516001600160a01b03168552860151868501529284019290850190600101611e0e565b5091979650505050505050565b600060208252611a846020830184611cfd565b901515815260200190565b6001600160a01b0392909216825263ffffffff16602082015260400190565b600060208252611a846020830184611d37565b90815260200190565b600083825260406020830152611c2b6040830184611d37565b60405181810167ffffffffffffffff81118282101715611ed757fe5b604052919050565b600067ffffffffffffffff821115611ef357fe5b5060209081020190565b60005b83811015611f18578181015183820152602001611f00565b838111156106aa5750506000910152565b6001600160a01b038116811461092457600080fdfea2646970667358221220cfd49fbc672ee9a9767479443a852f50e0aa9d2e21f99ea79c9d8f6a22cb1e0464736f6c63430007060033",
    "linkReferences": {},
    "deployedLinkReferences": {}
}