{
  "_format": "hh-sol-artifact-1",
  "contractName": "FtsoV2Upgrader",
  "sourceName": "contracts/utils/implementation/FtsoV2Upgrader.sol",
  "abi": [
    {
      "inputs": [
        {
          "internalType": "address",
          "name": "_governance",
          "type": "address"
        }
      ],
      "stateMutability": "nonpayable",
      "type": "constructor"
    },
    {
      "anonymous": false,
      "inputs": [
        {
          "indexed": false,
          "internalType": "bytes4",
          "name": "selector",
          "type": "bytes4"
        },
        {
          "indexed": false,
          "internalType": "uint256",
          "name": "allowedAfterTimestamp",
          "type": "uint256"
        },
        {
          "indexed": false,
          "internalType": "bytes",
          "name": "encodedCall",
          "type": "bytes"
        }
      ],
      "name": "GovernanceCallTimelocked",
      "type": "event"
    },
    {
      "anonymous": false,
      "inputs": [
        {
          "indexed": false,
          "internalType": "address",
          "name": "initialGovernance",
          "type": "address"
        }
      ],
      "name": "GovernanceInitialised",
      "type": "event"
    },
    {
      "anonymous": false,
      "inputs": [
        {
          "indexed": false,
          "internalType": "address",
          "name": "governanceSettings",
          "type": "address"
        }
      ],
      "name": "GovernedProductionModeEntered",
      "type": "event"
    },
    {
      "anonymous": false,
      "inputs": [
        {
          "indexed": false,
          "internalType": "bytes4",
          "name": "selector",
          "type": "bytes4"
        },
        {
          "indexed": false,
          "internalType": "uint256",
          "name": "timestamp",
          "type": "uint256"
        }
      ],
      "name": "TimelockedGovernanceCallCanceled",
      "type": "event"
    },
    {
      "anonymous": false,
      "inputs": [
        {
          "indexed": false,
          "internalType": "bytes4",
          "name": "selector",
          "type": "bytes4"
        },
        {
          "indexed": false,
          "internalType": "uint256",
          "name": "timestamp",
          "type": "uint256"
        }
      ],
      "name": "TimelockedGovernanceCallExecuted",
      "type": "event"
    },
    {
      "inputs": [
        {
          "internalType": "bytes4",
          "name": "_selector",
          "type": "bytes4"
        }
      ],
      "name": "cancelGovernanceCall",
      "outputs": [],
      "stateMutability": "nonpayable",
      "type": "function"
    },
    {
      "inputs": [
        {
          "internalType": "bytes4",
          "name": "_selector",
          "type": "bytes4"
        }
      ],
      "name": "executeGovernanceCall",
      "outputs": [],
      "stateMutability": "nonpayable",
      "type": "function"
    },
    {
      "inputs": [],
      "name": "getAssetFtsos",
      "outputs": [
        {
          "internalType": "contract IIFtso[]",
          "name": "_assetFtsos",
          "type": "address[]"
        }
      ],
      "stateMutability": "view",
      "type": "function"
    },
    {
      "inputs": [],
      "name": "getElasticBandRewardWidthsPPM",
      "outputs": [
        {
          "internalType": "uint256[]",
          "name": "_elasticBandRewardWidthsPPM",
          "type": "uint256[]"
        }
      ],
      "stateMutability": "view",
      "type": "function"
    },
    {
      "inputs": [],
      "name": "getNativeFtso",
      "outputs": [
        {
          "internalType": "contract IIFtso",
          "name": "_nativeFtso",
          "type": "address"
        }
      ],
      "stateMutability": "view",
      "type": "function"
    },
    {
      "inputs": [],
      "name": "getNewFtsos",
      "outputs": [
        {
          "internalType": "contract IIFtso[]",
          "name": "_newFtsos",
          "type": "address[]"
        }
      ],
      "stateMutability": "view",
      "type": "function"
    },
    {
      "inputs": [],
      "name": "governance",
      "outputs": [
        {
          "internalType": "address",
          "name": "",
          "type": "address"
        }
      ],
      "stateMutability": "view",
      "type": "function"
    },
    {
      "inputs": [],
      "name": "governanceSettings",
      "outputs": [
        {
          "internalType": "contract IGovernanceSettings",
          "name": "",
          "type": "address"
        }
      ],
      "stateMutability": "view",
      "type": "function"
    },
    {
      "inputs": [
        {
          "internalType": "address",
          "name": "_initialGovernance",
          "type": "address"
        }
      ],
      "name": "initialise",
      "outputs": [],
      "stateMutability": "nonpayable",
      "type": "function"
    },
    {
      "inputs": [],
      "name": "productionMode",
      "outputs": [
        {
          "internalType": "bool",
          "name": "",
          "type": "bool"
        }
      ],
      "stateMutability": "view",
      "type": "function"
    },
    {
      "inputs": [
        {
          "internalType": "contract FtsoManager",
          "name": "_ftsoManager",
          "type": "address"
        },
        {
          "internalType": "uint256",
          "name": "_maxVotePowerNatThresholdFraction",
          "type": "uint256"
        },
        {
          "internalType": "uint256",
          "name": "_maxVotePowerAssetThresholdFraction",
          "type": "uint256"
        },
        {
          "internalType": "uint256",
          "name": "_lowAssetUSDThreshold",
          "type": "uint256"
        },
        {
          "internalType": "uint256",
          "name": "_highAssetUSDThreshold",
          "type": "uint256"
        },
        {
          "internalType": "uint256",
          "name": "_highAssetTurnoutThresholdBIPS",
          "type": "uint256"
        },
        {
          "internalType": "uint256",
          "name": "_lowNatTurnoutThresholdBIPS",
          "type": "uint256"
        },
        {
          "internalType": "uint256",
          "name": "_elasticBandRewardBIPS",
          "type": "uint256"
        },
        {
          "internalType": "uint256",
          "name": "_rewardExpiryOffsetSeconds",
          "type": "uint256"
        },
        {
          "internalType": "address[]",
          "name": "_trustedAddresses",
          "type": "address[]"
        }
      ],
      "name": "setGovernanceParametersOnFtsoManager",
      "outputs": [],
      "stateMutability": "nonpayable",
      "type": "function"
    },
    {
      "inputs": [
        {
          "internalType": "contract IIFtso[]",
          "name": "_newFtsos",
          "type": "address[]"
        },
        {
          "internalType": "uint256[]",
          "name": "_elasticBandRewardWidthsPPM",
          "type": "uint256[]"
        },
        {
          "internalType": "contract IIFtso",
          "name": "_nativeFtso",
          "type": "address"
        },
        {
          "internalType": "contract IIFtso[]",
          "name": "_assetFtsos",
          "type": "address[]"
        }
      ],
      "name": "setUpgradeData",
      "outputs": [],
      "stateMutability": "nonpayable",
      "type": "function"
    },
    {
      "inputs": [],
      "name": "switchToProductionMode",
      "outputs": [],
      "stateMutability": "nonpayable",
      "type": "function"
    },
    {
      "inputs": [
        {
          "internalType": "bytes4",
          "name": "",
          "type": "bytes4"
        }
      ],
      "name": "timelockedCalls",
      "outputs": [
        {
          "internalType": "uint256",
          "name": "allowedAfterTimestamp",
          "type": "uint256"
        },
        {
          "internalType": "bytes",
          "name": "encodedCall",
          "type": "bytes"
        }
      ],
      "stateMutability": "view",
      "type": "function"
    },
    {
      "inputs": [
        {
          "internalType": "contract FtsoManager",
          "name": "_ftsoManager",
          "type": "address"
        }
      ],
      "name": "upgrade",
      "outputs": [],
      "stateMutability": "nonpayable",
      "type": "function"
    },
    {
      "inputs": [],
      "name": "upgraded",
      "outputs": [
        {
          "internalType": "bool",
          "name": "",
          "type": "bool"
        }
      ],
      "stateMutability": "view",
      "type": "function"
    }
  ],
  "bytecode": "0x60806040526002805460ff191690553480156200001b57600080fd5b5060405162001db538038062001db58339810160408190526200003e9162000176565b80806001600160a01b038116156200005b576200005b81620000b3565b506001600160a01b038116620000ab576040805162461bcd60e51b815260206004820152601060248201526f5f676f7665726e616e6365207a65726f60801b604482015290519081900360640190fd5b5050620001a6565b600054600160a01b900460ff161562000113576040805162461bcd60e51b815260206004820152601460248201527f696e697469616c6973656420213d2066616c7365000000000000000000000000604482015290519081900360640190fd5b60008054600160a01b60ff60a01b19909116176001600160a01b0319166001600160a01b03831690811790915560408051918252517f9789733827840833afc031fb2ef9ab6894271f77bad2085687cf4ae5c7bee4db916020908290030190a150565b60006020828403121562000188578081fd5b81516001600160a01b03811681146200019f578182fd5b9392505050565b611bff80620001b66000396000f3fe608060405234801561001057600080fd5b50600436106101005760003560e01c806367fc4029116100975780639d6a890f116100665780639d6a890f146101e7578063c28de2cd146101fa578063e17f212e1461020f578063f5a983831461021757610100565b806367fc402914610198578063747502c2146101ab57806374e6310e146101b3578063973cdd27146101d457610100565b80635aa6e675116100d35780635aa6e675146101535780635ff270791461016857806362354e031461017b57806363516abc1461018357610100565b80630900f0101461010557806318931c351461011a578063375624c514610138578063464711291461014b575b600080fd5b6101186101133660046115c2565b61021f565b005b6101226107c8565b60405161012f9190611888565b60405180910390f35b6101186101463660046115e5565b61082a565b6101226108e7565b61015b610947565b60405161012f9190611874565b6101186101763660046116d0565b6109dc565b61015b610d2b565b61018b610d36565b60405161012f91906118ff565b6101186101a63660046116d0565b610d8d565b61015b610e75565b6101c66101c13660046116d0565b610e84565b60405161012f929190611b01565b6101186101e23660046116f8565b610f2a565b6101186101f53660046115c2565b610fe6565b61020261109f565b60405161012f9190611937565b6102026110a8565b6101186110b8565b610227611172565b60025460ff16156102535760405162461bcd60e51b815260040161024a90611a5f565b60405180910390fd5b6000816001600160a01b031663a578f55b6040518163ffffffff1660e01b815260040160206040518083038186803b15801561028e57600080fd5b505afa1580156102a2573d6000803e3d6000fd5b505050506040513d601f19601f820116820180604052508101906102c69190611816565b90506000826001600160a01b031663b4dba0f36040518163ffffffff1660e01b815260040160206040518083038186803b15801561030357600080fd5b505afa158015610317573d6000803e3d6000fd5b505050506040513d601f19601f8201168201806040525081019061033b91906117fa565b905081816001600160a01b031663a578f55b6040518163ffffffff1660e01b815260040160206040518083038186803b15801561037757600080fd5b505afa15801561038b573d6000803e3d6000fd5b505050506040513d601f19601f820116820180604052508101906103af9190611816565b146103cc5760405162461bcd60e51b815260040161024a90611a89565b6000816001600160a01b0316633e7ff8576040518163ffffffff1660e01b815260040160206040518083038186803b15801561040757600080fd5b505afa15801561041b573d6000803e3d6000fd5b505050506040513d601f19601f8201168201806040525081019061043f9190611816565b90506000826001600160a01b031663e7c830d46040518163ffffffff1660e01b815260040160206040518083038186803b15801561047c57600080fd5b505afa158015610490573d6000803e3d6000fd5b505050506040513d601f19601f820116820180604052508101906104b49190611816565b60010190506000836001600160a01b03166385f3c9c96040518163ffffffff1660e01b815260040160206040518083038186803b1580156104f457600080fd5b505afa158015610508573d6000803e3d6000fd5b505050506040513d601f19601f8201168201806040525081019061052c9190611816565b604051630e080a9760e41b8152908302860191506001600160a01b0387169063e080a9709061056390869086908690600401611b5c565b600060405180830381600087803b15801561057d57600080fd5b505af1158015610591573d6000803e3d6000fd5b50505050856001600160a01b0316630f15f4c06040518163ffffffff1660e01b8152600401600060405180830381600087803b1580156105d057600080fd5b505af11580156105e4573d6000803e3d6000fd5b5050604051633ac7f8ed60e11b81526001600160a01b038916925063758ff1da915061061b906003906001906000906004016118d5565b600060405180830381600087803b15801561063557600080fd5b505af1158015610649573d6000803e3d6000fd5b505060405163882376c360e01b81526001600160a01b038916925063882376c3915061067f90600090600390600490810161196e565b600060405180830381600087803b15801561069957600080fd5b505af11580156106ad573d6000803e3d6000fd5b50506005546001600160a01b031615915061072c90505760055460405163549d37a160e11b81526001600160a01b038881169263a93a6f42926106f99290911690600690600401611942565b600060405180830381600087803b15801561071357600080fd5b505af1158015610727573d6000803e3d6000fd5b505050505b610738600360006113a8565b610744600460006113a8565b600580546001600160a01b0319169055610760600660006113a8565b856001600160a01b031663f5a983836040518163ffffffff1660e01b8152600401600060405180830381600087803b15801561079b57600080fd5b505af11580156107af573d6000803e3d6000fd5b50506002805460ff191660011790555050505050505050565b6060600680548060200260200160405190810160405280929190818152602001828054801561082057602002820191906000526020600020905b81546001600160a01b03168152600190910190602001808311610802575b5050505050905090565b600054600160b01b900460ff168061084c5750600054600160a81b900460ff16155b156108d6576108596111d3565b825184511461087a5760405162461bcd60e51b815260040161024a90611aca565b835161088d9060039060208701906113c9565b5082516108a190600490602086019061142e565b50600580546001600160a01b0319166001600160a01b03841617905580516108d09060069060208401906113c9565b506108e1565b6108e1600036611208565b50505050565b60606003805480602002602001604051908101604052809291908181526020018280548015610820576020028201919060005260206000209081546001600160a01b03168152600190910190602001808311610802575050505050905090565b60008054600160a81b900460ff1661096a576000546001600160a01b03166109d7565b60076001609c1b016001600160a01b031663732524946040518163ffffffff1660e01b815260040160206040518083038186803b1580156109aa57600080fd5b505afa1580156109be573d6000803e3d6000fd5b505050506040513d60208110156109d457600080fd5b50515b905090565b60408051630debfda360e41b8152336004820152905160076001609c1b019163debfda30916024808301926020929190829003018186803b158015610a2057600080fd5b505afa158015610a34573d6000803e3d6000fd5b505050506040513d6020811015610a4a57600080fd5b5051610a8d576040805162461bcd60e51b815260206004820152600d60248201526c37b7363c9032bc32b1baba37b960991b604482015290519081900360640190fd5b6001600160e01b0319811660009081526001602052604090208054610af9576040805162461bcd60e51b815260206004820152601a60248201527f74696d656c6f636b3a20696e76616c69642073656c6563746f72000000000000604482015290519081900360640190fd5b8054421015610b4f576040805162461bcd60e51b815260206004820152601960248201527f74696d656c6f636b3a206e6f7420616c6c6f7765642079657400000000000000604482015290519081900360640190fd5b6000816001018054600181600116156101000203166002900480601f016020809104026020016040519081016040528092919081815260200182805460018160011615610100020316600290048015610be95780601f10610bbe57610100808354040283529160200191610be9565b820191906000526020600020905b815481529060010190602001808311610bcc57829003601f168201915b5050506001600160e01b0319861660009081526001602081905260408220828155949550909250610c1d9150830182611469565b50506000805460ff60b01b1916600160b01b178155604051825130918491819060208401908083835b60208310610c655780518252601f199092019160209182019101610c46565b6001836020036101000a0380198251168184511680821785525050505050509050019150506000604051808303816000865af19150503d8060008114610cc7576040519150601f19603f3d011682016040523d82523d6000602084013e610ccc565b606091505b50506000805460ff60b01b19169055604080516001600160e01b03198716815242602082015281519293507fa7326b57fc9cfe267aaea5e7f0b01757154d265620a0585819416ee9ddd2c438929081900390910190a16108e18161138b565b60076001609c1b0181565b6060600480548060200260200160405190810160405280929190818152602001828054801561082057602002820191906000526020600020905b815481526020019060010190808311610d70575050505050905090565b610d95611172565b6001600160e01b03198116600090815260016020526040902054610e00576040805162461bcd60e51b815260206004820152601a60248201527f74696d656c6f636b3a20696e76616c69642073656c6563746f72000000000000604482015290519081900360640190fd5b604080516001600160e01b03198316815242602082015281517f7735b2391c38a81419c513e30ca578db7158eadd7101511b23e221c654d19cf8929181900390910190a16001600160e01b03198116600090815260016020819052604082208281559190610e7090830182611469565b505050565b6005546001600160a01b031690565b600160208181526000928352604092839020805481840180548651600296821615610100026000190190911695909504601f81018590048502860185019096528585529094919392909190830182828015610f205780601f10610ef557610100808354040283529160200191610f20565b820191906000526020600020905b815481529060010190602001808311610f0357829003601f168201915b5050505050905082565b600054600160b01b900460ff1680610f4c5750600054600160a81b900460ff16155b15610fcf57610f596111d3565b604051631322679360e01b81526001600160a01b038b1690631322679390610f98906000908d908d908d908d908d908d908d908d908d906004016119cb565b600060405180830381600087803b158015610fb257600080fd5b505af1158015610fc6573d6000803e3d6000fd5b50505050610fda565b610fda600036611208565b50505050505050505050565b600054600160a01b900460ff161561103c576040805162461bcd60e51b8152602060048201526014602482015273696e697469616c6973656420213d2066616c736560601b604482015290519081900360640190fd5b60008054600160a01b60ff60a01b19909116176001600160a01b0319166001600160a01b03831690811790915560408051918252517f9789733827840833afc031fb2ef9ab6894271f77bad2085687cf4ae5c7bee4db916020908290030190a150565b60025460ff1681565b600054600160a81b900460ff1681565b6110c0611172565b600054600160a81b900460ff161561111f576040805162461bcd60e51b815260206004820152601a60248201527f616c726561647920696e2070726f64756374696f6e206d6f6465000000000000604482015290519081900360640190fd5b60008054600161ff0160a01b031916600160a81b1790556040805160076001609c1b01815290517f83af113638b5422f9e977cebc0aaf0eaf2188eb9a8baae7f9d46c42b33a1560c9181900360200190a1565b61117a610947565b6001600160a01b0316336001600160a01b0316146111d1576040805162461bcd60e51b815260206004820152600f60248201526e6f6e6c7920676f7665726e616e636560881b604482015290519081900360640190fd5b565b600054600160b01b900460ff1615611200573330146111ee57fe5b6000805460ff60b01b191690556111d1565b6111d1611172565b611210611172565b600082359050600060076001609c1b016001600160a01b0316636221a54b6040518163ffffffff1660e01b815260040160206040518083038186803b15801561125857600080fd5b505afa15801561126c573d6000803e3d6000fd5b505050506040513d602081101561128257600080fd5b505160408051808201825242830180825282516020601f89018190048102820181019094528781529394509290918281019190889088908190840183828082843760009201829052509390945250506001600160e01b03198616815260016020818152604090922084518155848301518051919450611306939285019201906114ad565b509050507fed948300a3694aa01d4a6b258bfd664350193d770c0b51f8387277f6d83ea3b68382878760405180856001600160e01b0319168152602001848152602001806020018281038252848482818152602001925080828437600083820152604051601f909101601f191690920182900397509095505050505050a15050505050565b3d604051818101604052816000823e82156113a4578181f35b8181fd5b50805460008255906000526020600020908101906113c69190611528565b50565b82805482825590600052602060002090810192821561141e579160200282015b8281111561141e57825182546001600160a01b0319166001600160a01b039091161782556020909201916001909101906113e9565b5061142a929150611528565b5090565b82805482825590600052602060002090810192821561141e579160200282015b8281111561141e57825182559160200191906001019061144e565b50805460018160011615610100020316600290046000825580601f1061148f57506113c6565b601f0160209004906000526020600020908101906113c69190611528565b828054600181600116156101000203166002900490600052602060002090601f0160209004810192826114e3576000855561141e565b82601f106114fc57805160ff191683800117855561141e565b8280016001018555821561141e579182018281111561141e57825182559160200191906001019061144e565b5b8082111561142a5760008155600101611529565b600082601f83011261154d578081fd5b8135602061156261155d83611b96565b611b72565b828152818101908583018385028701840188101561157e578586fd5b855b858110156115a557813561159381611bb4565b84529284019290840190600101611580565b5090979650505050505050565b80356115bd81611bb4565b919050565b6000602082840312156115d3578081fd5b81356115de81611bb4565b9392505050565b600080600080608085870312156115fa578283fd5b843567ffffffffffffffff80821115611611578485fd5b61161d8883890161153d565b9550602091508187013581811115611633578586fd5b8701601f81018913611643578586fd5b803561165161155d82611b96565b81815284810190838601868402850187018d101561166d57898afd5b8994505b8385101561168f578035835260019490940193918601918601611671565b5097506116a292505050604088016115b2565b935060608701359150808211156116b7578283fd5b506116c48782880161153d565b91505092959194509250565b6000602082840312156116e1578081fd5b81356001600160e01b0319811681146115de578182fd5b6000806000806000806000806000806101408b8d031215611717578586fd5b6117218b35611bb4565b8a35995060208b0135985060408b0135975060608b0135965060808b0135955060a08b0135945060c08b0135935060e08b013592506101008b013591506101208b013567ffffffffffffffff811115611778578182fd5b8b01601f81018d13611788578182fd5b61179561155d8235611b96565b8082358252602082019150602083018f60208086350286010111156117b8578485fd5b845b84358110156117e3576117cd8235611bb4565b81358452602093840193909101906001016117ba565b50508093505050509295989b9194979a5092959850565b60006020828403121561180b578081fd5b81516115de81611bb4565b600060208284031215611827578081fd5b5051919050565b6000815480845260208085019450838352808320835b838110156118695781546001600160a01b031687529582019560019182019101611844565b509495945050505050565b6001600160a01b0391909116815260200190565b6020808252825182820181905260009190848201906040850190845b818110156118c95783516001600160a01b0316835292840192918401916001016118a4565b50909695505050505050565b6000606082526118e8606083018661182e565b931515602083015250901515604090910152919050565b6020808252825182820181905260009190848201906040850190845b818110156118c95783518352928401929184019160010161191b565b901515815260200190565b6001600160a01b03831681526040602082018190526000906119669083018461182e565b949350505050565b60008482526020606081840152611988606084018661182e565b8381036040850152845480825285845282842091830190845b818110156119bd578354835260019384019392850192016119a1565b509098975050505050505050565b60006101408083018d845260208d818601528c60408601528b60608601528a60808601528960a08601528860c08601528760e086015286610100860152826101208601528192508551808352610160860193508187019250845b81811015611a4a5783516001600160a01b031685529382019392820192600101611a25565b50929f9e505050505050505050505050505050565b60208082526010908201526f185b1c9958591e481d5c19dc9859195960821b604082015260600190565b60208082526021908201527f7265776172642065706f636820737461727420646f6573206e6f74206d6174636040820152600d60fb1b606082015260800190565b6020808252601a908201527f6172726179206c656e6774687320646f206e6f74206d61746368000000000000604082015260600190565b600083825260206040818401528351806040850152825b81811015611b3457858101830151858201606001528201611b18565b81811115611b455783606083870101525b50601f01601f191692909201606001949350505050565b9283526020830191909152604082015260600190565b60405181810167ffffffffffffffff81118282101715611b8e57fe5b604052919050565b600067ffffffffffffffff821115611baa57fe5b5060209081020190565b6001600160a01b03811681146113c657600080fdfea26469706673582212206045d4c2c341b6c5af227d21c6a05c524e923721740dd0a88b77da3230d1bc5664736f6c63430007060033",
  "linkReferences": {},
  "deployedLinkReferences": {}
}