{
  "_format": "hh-sol-artifact-1",
  "contractName": "PercentageDelegation",
  "sourceName": "contracts/token/lib/PercentageDelegation.sol",
  "abi": [
    {
      "inputs": [],
      "name": "MAX_BIPS",
      "outputs": [
        {
          "internalType": "uint256",
          "name": "",
          "type": "uint256"
        }
      ],
      "stateMutability": "view",
      "type": "function"
    }
  ],
  "bytecode": "0x608c610024600b82828239805160001a607314601757fe5b30600052607381538281f3fe730000000000000000000000000000000000000000301460806040526004361060335760003560e01c8063b3249e9e146038575b600080fd5b603e6050565b60408051918252519081900360200190f35b6127108156fea264697066735822122034b352ec7e0a7607f675caf5ae5fdf3abf3713f57a812813d0c9ed8968addd9164736f6c63430007060033",
  "linkReferences": {},
  "deployedLinkReferences": {}
}