{
  "_format": "hh-sol-artifact-1",
  "contractName": "IncentivePoolAllocation",
  "sourceName": "contracts/tokenPools/implementation/IncentivePoolAllocation.sol",
  "abi": [
    {
      "inputs": [
        {
          "internalType": "address",
          "name": "_governance",
          "type": "address"
        },
        {
          "internalType": "address",
          "name": "_addressUpdater",
          "type": "address"
        },
        {
          "internalType": "uint256[]",
          "name": "_annualIncentivePoolScheduleBips",
          "type": "uint256[]"
        }
      ],
      "stateMutability": "nonpayable",
      "type": "constructor"
    },
    {
      "anonymous": false,
      "inputs": [
        {
          "indexed": false,
          "internalType": "uint256[]",
          "name": "annualIncentivePoolPercentagesBips",
          "type": "uint256[]"
        }
      ],
      "name": "AnnualIncentivePoolPercentageScheduleSet",
      "type": "event"
    },
    {
      "anonymous": false,
      "inputs": [
        {
          "indexed": false,
          "internalType": "uint256",
          "name": "percentageBips",
          "type": "uint256"
        }
      ],
      "name": "AnnualIncentivePoolPercentageYielded",
      "type": "event"
    },
    {
      "anonymous": false,
      "inputs": [
        {
          "indexed": false,
          "internalType": "bytes4",
          "name": "selector",
          "type": "bytes4"
        },
        {
          "indexed": false,
          "internalType": "uint256",
          "name": "allowedAfterTimestamp",
          "type": "uint256"
        },
        {
          "indexed": false,
          "internalType": "bytes",
          "name": "encodedCall",
          "type": "bytes"
        }
      ],
      "name": "GovernanceCallTimelocked",
      "type": "event"
    },
    {
      "anonymous": false,
      "inputs": [
        {
          "indexed": false,
          "internalType": "address",
          "name": "initialGovernance",
          "type": "address"
        }
      ],
      "name": "GovernanceInitialised",
      "type": "event"
    },
    {
      "anonymous": false,
      "inputs": [
        {
          "indexed": false,
          "internalType": "address",
          "name": "governanceSettings",
          "type": "address"
        }
      ],
      "name": "GovernedProductionModeEntered",
      "type": "event"
    },
    {
      "anonymous": false,
      "inputs": [
        {
          "indexed": false,
          "internalType": "address",
          "name": "oldAddress",
          "type": "address"
        },
        {
          "indexed": false,
          "internalType": "address",
          "name": "newAddress",
          "type": "address"
        }
      ],
      "name": "IncentivePoolSet",
      "type": "event"
    },
    {
      "anonymous": false,
      "inputs": [
        {
          "indexed": false,
          "internalType": "contract IIIncentivePoolReceiver[]",
          "name": "incentivePoolReceivers",
          "type": "address[]"
        },
        {
          "indexed": false,
          "internalType": "uint256[]",
          "name": "percentagePerReceiverBips",
          "type": "uint256[]"
        }
      ],
      "name": "IncentivePoolSharingPercentagesSet",
      "type": "event"
    },
    {
      "anonymous": false,
      "inputs": [
        {
          "indexed": false,
          "internalType": "bytes4",
          "name": "selector",
          "type": "bytes4"
        },
        {
          "indexed": false,
          "internalType": "uint256",
          "name": "timestamp",
          "type": "uint256"
        }
      ],
      "name": "TimelockedGovernanceCallCanceled",
      "type": "event"
    },
    {
      "anonymous": false,
      "inputs": [
        {
          "indexed": false,
          "internalType": "bytes4",
          "name": "selector",
          "type": "bytes4"
        },
        {
          "indexed": false,
          "internalType": "uint256",
          "name": "timestamp",
          "type": "uint256"
        }
      ],
      "name": "TimelockedGovernanceCallExecuted",
      "type": "event"
    },
    {
      "inputs": [
        {
          "internalType": "uint256",
          "name": "",
          "type": "uint256"
        }
      ],
      "name": "annualIncentivePoolPercentagesBips",
      "outputs": [
        {
          "internalType": "uint256",
          "name": "",
          "type": "uint256"
        }
      ],
      "stateMutability": "view",
      "type": "function"
    },
    {
      "inputs": [
        {
          "internalType": "bytes4",
          "name": "_selector",
          "type": "bytes4"
        }
      ],
      "name": "cancelGovernanceCall",
      "outputs": [],
      "stateMutability": "nonpayable",
      "type": "function"
    },
    {
      "inputs": [
        {
          "internalType": "bytes4",
          "name": "_selector",
          "type": "bytes4"
        }
      ],
      "name": "executeGovernanceCall",
      "outputs": [],
      "stateMutability": "nonpayable",
      "type": "function"
    },
    {
      "inputs": [],
      "name": "getAddressUpdater",
      "outputs": [
        {
          "internalType": "address",
          "name": "_addressUpdater",
          "type": "address"
        }
      ],
      "stateMutability": "view",
      "type": "function"
    },
    {
      "inputs": [],
      "name": "getAnnualPercentageBips",
      "outputs": [
        {
          "internalType": "uint256",
          "name": "",
          "type": "uint256"
        }
      ],
      "stateMutability": "nonpayable",
      "type": "function"
    },
    {
      "inputs": [],
      "name": "getSharingPercentages",
      "outputs": [
        {
          "components": [
            {
              "internalType": "contract IIIncentivePoolReceiver",
              "name": "incentivePoolReceiver",
              "type": "address"
            },
            {
              "internalType": "uint256",
              "name": "percentBips",
              "type": "uint256"
            }
          ],
          "internalType": "struct SharingPercentage[]",
          "name": "_sharingPercentages",
          "type": "tuple[]"
        }
      ],
      "stateMutability": "view",
      "type": "function"
    },
    {
      "inputs": [],
      "name": "governance",
      "outputs": [
        {
          "internalType": "address",
          "name": "",
          "type": "address"
        }
      ],
      "stateMutability": "view",
      "type": "function"
    },
    {
      "inputs": [],
      "name": "governanceSettings",
      "outputs": [
        {
          "internalType": "contract IGovernanceSettings",
          "name": "",
          "type": "address"
        }
      ],
      "stateMutability": "view",
      "type": "function"
    },
    {
      "inputs": [],
      "name": "incentivePool",
      "outputs": [
        {
          "internalType": "contract IncentivePool",
          "name": "",
          "type": "address"
        }
      ],
      "stateMutability": "view",
      "type": "function"
    },
    {
      "inputs": [
        {
          "internalType": "uint256",
          "name": "",
          "type": "uint256"
        }
      ],
      "name": "incentivePoolReceivers",
      "outputs": [
        {
          "internalType": "contract IIIncentivePoolReceiver",
          "name": "receiverContract",
          "type": "address"
        },
        {
          "internalType": "uint32",
          "name": "percentageBips",
          "type": "uint32"
        }
      ],
      "stateMutability": "view",
      "type": "function"
    },
    {
      "inputs": [
        {
          "internalType": "address",
          "name": "_initialGovernance",
          "type": "address"
        }
      ],
      "name": "initialise",
      "outputs": [],
      "stateMutability": "nonpayable",
      "type": "function"
    },
    {
      "inputs": [],
      "name": "lastAnnualIncentivePoolPercentageBips",
      "outputs": [
        {
          "internalType": "uint256",
          "name": "",
          "type": "uint256"
        }
      ],
      "stateMutability": "view",
      "type": "function"
    },
    {
      "inputs": [],
      "name": "productionMode",
      "outputs": [
        {
          "internalType": "bool",
          "name": "",
          "type": "bool"
        }
      ],
      "stateMutability": "view",
      "type": "function"
    },
    {
      "inputs": [
        {
          "internalType": "uint256[]",
          "name": "_annualIncentivePoolScheduleBips",
          "type": "uint256[]"
        }
      ],
      "name": "setAnnualIncentivePool",
      "outputs": [],
      "stateMutability": "nonpayable",
      "type": "function"
    },
    {
      "inputs": [
        {
          "internalType": "contract IIIncentivePoolReceiver[]",
          "name": "_incentivePoolReceivers",
          "type": "address[]"
        },
        {
          "internalType": "uint256[]",
          "name": "_percentagePerReceiverBips",
          "type": "uint256[]"
        }
      ],
      "name": "setSharingPercentages",
      "outputs": [],
      "stateMutability": "nonpayable",
      "type": "function"
    },
    {
      "inputs": [],
      "name": "switchToProductionMode",
      "outputs": [],
      "stateMutability": "nonpayable",
      "type": "function"
    },
    {
      "inputs": [
        {
          "internalType": "bytes4",
          "name": "",
          "type": "bytes4"
        }
      ],
      "name": "timelockedCalls",
      "outputs": [
        {
          "internalType": "uint256",
          "name": "allowedAfterTimestamp",
          "type": "uint256"
        },
        {
          "internalType": "bytes",
          "name": "encodedCall",
          "type": "bytes"
        }
      ],
      "stateMutability": "view",
      "type": "function"
    },
    {
      "inputs": [
        {
          "internalType": "bytes32[]",
          "name": "_contractNameHashes",
          "type": "bytes32[]"
        },
        {
          "internalType": "address[]",
          "name": "_contractAddresses",
          "type": "address[]"
        }
      ],
      "name": "updateContractAddresses",
      "outputs": [],
      "stateMutability": "nonpayable",
      "type": "function"
    }
  ],
  "bytecode": "0x60806040523480156200001157600080fd5b50604051620023cf380380620023cf83398101604081905262000034916200031d565b8183806001600160a01b038116156200005257620000528162000129565b506001600160a01b038116620000a2576040805162461bcd60e51b815260206004820152601060248201526f5f676f7665726e616e6365207a65726f60801b604482015290519081900360640190fd5b50620000ae81620001ec565b506000815111604051806060016040528060238152602001620023ac6023913990620000f85760405162461bcd60e51b8152600401620000ef9190620003fa565b60405180910390fd5b50806000815181106200010757fe5b6020908102919091010151600455620001208162000210565b50505062000450565b600054600160a01b900460ff161562000189576040805162461bcd60e51b815260206004820152601460248201527f696e697469616c6973656420213d2066616c7365000000000000000000000000604482015290519081900360640190fd5b60008054600160a01b60ff60a01b19909116176001600160a01b0319166001600160a01b03831690811790915560408051918252517f9789733827840833afc031fb2ef9ab6894271f77bad2085687cf4ae5c7bee4db916020908290030190a150565b7f714f205b2abd25bef1d06a1af944e38c113fe6160375c4e1d6d5cf28848e771955565b60198151111560405180604001604052806008815260200167746f6f206d616e7960c01b81525090620002585760405162461bcd60e51b8152600401620000ef9190620003fa565b50805160005b81811015620002fb57600a612710048382815181106200027a57fe5b602002602001015111156040518060600160405280602281526020016200238a6022913990620002bf5760405162461bcd60e51b8152600401620000ef9190620003fa565b506005838281518110620002cf57fe5b60209081029190910181015182546001818101855560009485529290932090920191909155016200025e565b505050565b80516001600160a01b03811681146200031857600080fd5b919050565b60008060006060848603121562000332578283fd5b6200033d8462000300565b925060206200034e81860162000300565b60408601519093506001600160401b03808211156200036b578384fd5b818701915087601f8301126200037f578384fd5b8151818111156200038c57fe5b83810260405185828201018181108582111715620003a657fe5b604052828152858101935084860182860187018c1015620003c5578788fd5b8795505b83861015620003e9578051855260019590950194938601938601620003c9565b508096505050505050509250925092565b6000602080835283518082850152825b8181101562000428578581018301518582016040015282016200040a565b818111156200043a5783604083870101525b50601f01601f1916929092016040019392505050565b611f2a80620004606000396000f3fe608060405234801561001057600080fd5b50600436106101165760003560e01c806374e6310e116100a2578063b00c0b7611610071578063b00c0b7614610211578063b2d9e80614610224578063c853b8d414610237578063e17f212e1461024c578063f5a983831461026157610116565b806374e6310e146101c257806387891059146101e357806398194029146101f65780639d6a890f146101fe57610116565b8063548592eb116100e9578063548592eb146101775780635aa6e6751461018c5780635ff270791461019457806362354e03146101a757806367fc4029146101af57610116565b80632299335a1461011b57806322f9f349146101455780634841422e1461015a5780635267a15d1461016f575b600080fd5b61012e610129366004611c79565b610269565b60405161013c929190611dfb565b60405180910390f35b61014d6102a1565b60405161013c9190611e2d565b6101626102a7565b60405161013c9190611cf7565b6101626102b6565b61018a610185366004611b8c565b6102db565b005b610162610398565b61018a6101a2366004611bc7565b61042d565b610162610782565b61018a6101bd366004611bc7565b61078d565b6101d56101d0366004611bc7565b610875565b60405161013c929190611e36565b61014d6101f1366004611c79565b61091b565b61014d61093c565b61018a61020c3660046119fc565b610ad0565b61018a61021f366004611a1f565b610b89565b61018a610232366004611ad6565b610c34565b61023f610c7d565b60405161013c9190611d85565b610254610d87565b60405161013c9190611df0565b61018a610d97565b6002818154811061027957600080fd5b6000918252602090912001546001600160a01b0381169150600160a01b900463ffffffff1682565b60045481565b6003546001600160a01b031681565b7f714f205b2abd25bef1d06a1af944e38c113fe6160375c4e1d6d5cf28848e77195490565b600054600160b01b900460ff16806102fd5750600054600160a81b900460ff16155b1561038a5761030a610e51565b60055460005b8181101561034357600580548061032357fe5b600082815260208120820160001990810191909155019055600101610310565b5061034d82610e88565b7f7fbb1ce5cf65c46c1d7f259fbd631a3dd87c615eafddedaeffa99c4ea005eed88260405161037c9190611ddd565b60405180910390a150610395565b610395600036610f68565b50565b60008054600160a81b900460ff166103bb576000546001600160a01b0316610428565b60076001609c1b016001600160a01b031663732524946040518163ffffffff1660e01b815260040160206040518083038186803b1580156103fb57600080fd5b505afa15801561040f573d6000803e3d6000fd5b505050506040513d602081101561042557600080fd5b50515b905090565b60408051630debfda360e41b8152336004820152905160076001609c1b019163debfda30916024808301926020929190829003018186803b15801561047157600080fd5b505afa158015610485573d6000803e3d6000fd5b505050506040513d602081101561049b57600080fd5b50516104de576040805162461bcd60e51b815260206004820152600d60248201526c37b7363c9032bc32b1baba37b960991b604482015290519081900360640190fd5b6001600160e01b031981166000908152600160205260409020805461054a576040805162461bcd60e51b815260206004820152601a60248201527f74696d656c6f636b3a20696e76616c69642073656c6563746f72000000000000604482015290519081900360640190fd5b80544210156105a0576040805162461bcd60e51b815260206004820152601960248201527f74696d656c6f636b3a206e6f7420616c6c6f7765642079657400000000000000604482015290519081900360640190fd5b6000816001018054600181600116156101000203166002900480601f01602080910402602001604051908101604052809291908181526020018280546001816001161561010002031660029004801561063a5780601f1061060f5761010080835404028352916020019161063a565b820191906000526020600020905b81548152906001019060200180831161061d57829003601f168201915b5050506001600160e01b031986166000908152600160208190526040822082815594955090925061066e9150830182611839565b50506000805460ff60b01b1916600160b01b178155604051825130918491819060208401908083835b602083106106b65780518252601f199092019160209182019101610697565b6001836020036101000a0380198251168184511680821785525050505050509050019150506000604051808303816000865af19150503d8060008114610718576040519150601f19603f3d011682016040523d82523d6000602084013e61071d565b606091505b50506000805460ff60b01b19169055604080516001600160e01b03198716815242602082015281519293507fa7326b57fc9cfe267aaea5e7f0b01757154d265620a0585819416ee9ddd2c438929081900390910190a161077c816110eb565b50505050565b60076001609c1b0181565b610795611108565b6001600160e01b03198116600090815260016020526040902054610800576040805162461bcd60e51b815260206004820152601a60248201527f74696d656c6f636b3a20696e76616c69642073656c6563746f72000000000000604482015290519081900360640190fd5b604080516001600160e01b03198316815242602082015281517f7735b2391c38a81419c513e30ca578db7158eadd7101511b23e221c654d19cf8929181900390910190a16001600160e01b0319811660009081526001602081905260408220828155919061087090830182611839565b505050565b600160208181526000928352604092839020805481840180548651600296821615610100026000190190911695909504601f810185900485028601850190965285855290949193929091908301828280156109115780601f106108e657610100808354040283529160200191610911565b820191906000526020600020905b8154815290600101906020018083116108f457829003601f168201915b5050505050905082565b6005818154811061092b57600080fd5b600091825260209091200154905081565b60035460408051808201909152600c81526b06164647265737320697320360a41b60208201526000916001600160a01b031690816109965760405162461bcd60e51b815260040161098d9190611e1a565b60405180910390fd5b506003546040805180820190915260128152711bdb9b1e481a5b98d95b9d1a5d99541bdbdb60721b6020820152906001600160a01b031633146109ec5760405162461bcd60e51b815260040161098d9190611e1a565b5060055415610a8d576005600081548110610a0357fe5b6000918252602090912001546004556005546001811115610a6a5760005b60018203811015610a685760058160010181548110610a3c57fe5b906000526020600020015460058281548110610a5457fe5b600091825260209091200155600101610a21565b505b6005805480610a7557fe5b60019003818190600052602060002001600090559055505b7f4805fb2561f2386087bf926a1dbfa43bde61c11b9a2c00ccdc105972caf547b0600454604051610abe9190611e2d565b60405180910390a160045491505b5090565b600054600160a01b900460ff1615610b26576040805162461bcd60e51b8152602060048201526014602482015273696e697469616c6973656420213d2066616c736560601b604482015290519081900360640190fd5b60008054600160a01b60ff60a01b19909116176001600160a01b0319166001600160a01b03831690811790915560408051918252517f9789733827840833afc031fb2ef9ab6894271f77bad2085687cf4ae5c7bee4db916020908290030190a150565b610b916102b6565b6001600160a01b0316336001600160a01b031614610bed576040805162461bcd60e51b815260206004820152601460248201527337b7363c9030b2323932b9b9903ab83230ba32b960611b604482015290519081900360640190fd5b610c26610c2183836040518060400160405280600e81526020016d20b2323932b9b9aab83230ba32b960911b815250611167565b611294565b610c3082826112b8565b5050565b600054600160b01b900460ff1680610c565750600054600160a81b900460ff16155b15610c7257610c63610e51565b610c6d8282611523565b610c30565b610c30600036610f68565b6002546060908067ffffffffffffffff81118015610c9a57600080fd5b50604051908082528060200260200182016040528015610cd457816020015b610cc161187d565b815260200190600190039081610cb95790505b50915060005b81811015610d825760028181548110610cef57fe5b9060005260206000200160000160149054906101000a900463ffffffff1663ffffffff16838281518110610d1f57fe5b6020026020010151602001818152505060028181548110610d3c57fe5b60009182526020909120015483516001600160a01b0390911690849083908110610d6257fe5b60209081029190910101516001600160a01b039091169052600101610cda565b505090565b600054600160a81b900460ff1681565b610d9f611108565b600054600160a81b900460ff1615610dfe576040805162461bcd60e51b815260206004820152601a60248201527f616c726561647920696e2070726f64756374696f6e206d6f6465000000000000604482015290519081900360640190fd5b60008054600161ff0160a01b031916600160a81b1790556040805160076001609c1b01815290517f83af113638b5422f9e977cebc0aaf0eaf2188eb9a8baae7f9d46c42b33a1560c9181900360200190a1565b600054600160b01b900460ff1615610e7e57333014610e6c57fe5b6000805460ff60b01b19169055610e86565b610e86611108565b565b60198151111560405180604001604052806008815260200167746f6f206d616e7960c01b81525090610ecd5760405162461bcd60e51b815260040161098d9190611e1a565b50805160005b8181101561087057600a61271004838281518110610eed57fe5b60200260200101511115604051806060016040528060228152602001611ed36022913990610f2e5760405162461bcd60e51b815260040161098d9190611e1a565b506005838281518110610f3d57fe5b6020908102919091018101518254600181810185556000948552929093209092019190915501610ed3565b610f70611108565b600082359050600060076001609c1b016001600160a01b0316636221a54b6040518163ffffffff1660e01b815260040160206040518083038186803b158015610fb857600080fd5b505afa158015610fcc573d6000803e3d6000fd5b505050506040513d6020811015610fe257600080fd5b505160408051808201825242830180825282516020601f89018190048102820181019094528781529394509290918281019190889088908190840183828082843760009201829052509390945250506001600160e01b0319861681526001602081815260409092208451815584830151805191945061106693928501920190611894565b509050507fed948300a3694aa01d4a6b258bfd664350193d770c0b51f8387277f6d83ea3b68382878760405180856001600160e01b0319168152602001848152602001806020018281038252848482818152602001925080828437600083820152604051601f909101601f191690920182900397509095505050505050a15050505050565b3d604051818101604052816000823e8215611104578181f35b8181fd5b611110610398565b6001600160a01b0316336001600160a01b031614610e86576040805162461bcd60e51b815260206004820152600f60248201526e6f6e6c7920676f7665726e616e636560881b604482015290519081900360640190fd5b600080826040516020018080602001828103825283818151815260200191508051906020019080838360005b838110156111ab578181015183820152602001611193565b50505050905090810190601f1680156111d85780820380516001836020036101000a031916815260200191505b50925050506040516020818303038152906040528051906020012090506000805b86518110156112405786818151811061120e57fe5b60200260200101518314156112385785818151811061122957fe5b60200260200101519150611240565b6001016111f9565b506001600160a01b03811661128b576040805162461bcd60e51b815260206004820152600c60248201526b61646472657373207a65726f60a01b604482015290519081900360640190fd5b95945050505050565b7f714f205b2abd25bef1d06a1af944e38c113fe6160375c4e1d6d5cf28848e771955565b60006112ea83836040518060400160405280600d81526020016c125b98d95b9d1a5d99541bdbdb609a1b815250611167565b6003546040519192507ff0281105762817c6d135d1c427ccdf47b4f67fb3f7c1d32563aeb7e53cdbcbfa9161132a916001600160a01b0316908490611d0b565b60405180910390a1600380546001600160a01b0319166001600160a01b0383161790556002548061135c575050610c30565b60008167ffffffffffffffff8111801561137557600080fd5b5060405190808252806020026020018201604052801561139f578160200160208202803683370190505b50905060008267ffffffffffffffff811180156113bb57600080fd5b506040519080825280602002602001820160405280156113e5578160200160208202803683370190505b50905060005b838110156115105760006002828154811061140257fe5b6000918252602080832060408051808201825293909101546001600160a01b038116808552600160a01b90910463ffffffff16928401929092528051637afadd3960e11b815290519294506114b9938c938c939263f5f5ba72926004808301939192829003018186803b15801561147857600080fd5b505afa15801561148c573d6000803e3d6000fd5b505050506040513d6000823e601f3d908101601f191682016040526114b49190810190611bef565b611167565b8483815181106114c557fe5b60200260200101906001600160a01b031690816001600160a01b031681525050806020015163ffffffff168383815181106114fc57fe5b6020908102919091010152506001016113eb565b5061151b8282611523565b505050505050565b80518251146040518060400160405280600f81526020016e0d8cadccee8d040dad2e6dac2e8c6d608b1b8152509061156e5760405162461bcd60e51b815260040161098d9190611e1a565b50600a8251111560405180604001604052806008815260200167746f6f206d616e7960c01b815250906115b45760405162461bcd60e51b815260040161098d9190611e1a565b50600254600090815b818110156115fa5760028054806115d057fe5b600082815260209020810160001990810180546001600160c01b03191690550190556001016115bd565b5060005b84518110156117a25761271084828151811061161657fe5b602002602001015111156040518060400160405280601781526020017f686967682073686172696e672070657263656e74616765000000000000000000815250906116745760405162461bcd60e51b815260040161098d9190611e1a565b5060006001600160a01b031685828151811061168c57fe5b60200260200101516001600160a01b031614156040518060400160405280600c81526020016b06164647265737320697320360a41b815250906116e25760405162461bcd60e51b815260040161098d9190611e1a565b508381815181106116ef57fe5b6020026020010151830192506002604051806040016040528087848151811061171457fe5b60200260200101516001600160a01b0316815260200186848151811061173657fe5b60209081029190910181015163ffffffff90811690925283546001808201865560009586529482902084519101805494909201516001600160a01b03199094166001600160a01b039091161763ffffffff60a01b1916600160a01b9390921692909202179055016115fe565b5060408051808201909152601f81527f73756d2073686172696e672070657263656e74616765206e6f74203130302500602082015261271083146117f95760405162461bcd60e51b815260040161098d9190611e1a565b507f1cf2c1339e13422eab3161c596e77874697b7673c53738401abeca3ada7678b5848460405161182b929190611d25565b60405180910390a150505050565b50805460018160011615610100020316600290046000825580601f1061185f5750610395565b601f0160209004906000526020600020908101906103959190611918565b604080518082019091526000808252602082015290565b828054600181600116156101000203166002900490600052602060002090601f0160209004810192826118ca5760008555611910565b82601f106118e357805160ff1916838001178555611910565b82800160010185558215611910579182015b828111156119105782518255916020019190600101906118f5565b50610acc9291505b5b80821115610acc5760008155600101611919565b600082601f83011261193d578081fd5b8135602061195261194d83611e73565b611e4f565b828152818101908583018385028701840188101561196e578586fd5b855b8581101561199557813561198381611ebd565b84529284019290840190600101611970565b5090979650505050505050565b600082601f8301126119b2578081fd5b813560206119c261194d83611e73565b82815281810190858301838502870184018810156119de578586fd5b855b85811015611995578135845292840192908401906001016119e0565b600060208284031215611a0d578081fd5b8135611a1881611ebd565b9392505050565b60008060408385031215611a31578081fd5b823567ffffffffffffffff80821115611a48578283fd5b818501915085601f830112611a5b578283fd5b81356020611a6b61194d83611e73565b82815281810190858301838502870184018b1015611a87578788fd5b8796505b84871015611aa9578035835260019690960195918301918301611a8b565b5096505086013592505080821115611abf578283fd5b50611acc8582860161192d565b9150509250929050565b60008060408385031215611ae8578182fd5b823567ffffffffffffffff80821115611aff578384fd5b818501915085601f830112611b12578384fd5b81356020611b2261194d83611e73565b82815281810190858301838502870184018b1015611b3e578889fd5b8896505b84871015611b69578035611b5581611ebd565b835260019690960195918301918301611b42565b5096505086013592505080821115611b7f578283fd5b50611acc858286016119a2565b600060208284031215611b9d578081fd5b813567ffffffffffffffff811115611bb3578182fd5b611bbf848285016119a2565b949350505050565b600060208284031215611bd8578081fd5b81356001600160e01b031981168114611a18578182fd5b600060208284031215611c00578081fd5b815167ffffffffffffffff80821115611c17578283fd5b818401915084601f830112611c2a578283fd5b815181811115611c3657fe5b611c49601f8201601f1916602001611e4f565b9150808252856020828501011115611c5f578384fd5b611c70816020840160208601611e91565b50949350505050565b600060208284031215611c8a578081fd5b5035919050565b6000815180845260208085019450808401835b83811015611cc057815187529582019590820190600101611ca4565b509495945050505050565b60008151808452611ce3816020860160208601611e91565b601f01601f19169290920160200192915050565b6001600160a01b0391909116815260200190565b6001600160a01b0392831681529116602082015260400190565b604080825283519082018190526000906020906060840190828701845b82811015611d675781516001600160a01b031684529284019290840190600101611d42565b50505083810382850152611d7b8186611c91565b9695505050505050565b602080825282518282018190526000919060409081850190868401855b82811015611dd057815180516001600160a01b03168552860151868501529284019290850190600101611da2565b5091979650505050505050565b600060208252611a186020830184611c91565b901515815260200190565b6001600160a01b0392909216825263ffffffff16602082015260400190565b600060208252611a186020830184611ccb565b90815260200190565b600083825260406020830152611bbf6040830184611ccb565b60405181810167ffffffffffffffff81118282101715611e6b57fe5b604052919050565b600067ffffffffffffffff821115611e8757fe5b5060209081020190565b60005b83811015611eac578181015183820152602001611e94565b8381111561077c5750506000910152565b6001600160a01b038116811461039557600080fdfe616e6e75616c20696e63656e74697665506f6f6c206f7574206f6620626f756e6473a26469706673582212205bbf6e3ecabfcd20a874cfd4a6602cd95488bb2bec01948e11aa8a0a9b6a0fc664736f6c63430007060033616e6e75616c20696e63656e74697665506f6f6c206f7574206f6620626f756e6473616e6e75616c20696e63656e74697665506f6f6c207363686564756c6520656d707479",
  "linkReferences": {},
  "deployedLinkReferences": {}
}