{
    "_format": "hh-sol-artifact-1",
    "contractName": "MockVoterWhitelister",
    "sourceName": "contracts/ftso/priceProviderMockContracts/PriceProviderMockContracts.sol",
    "abi": [
        {
            "inputs": [
                {
                    "internalType": "contract MockPriceSubmitter",
                    "name": "_priceSubmitter",
                    "type": "address"
                }
            ],
            "stateMutability": "nonpayable",
            "type": "constructor"
        },
        {
            "anonymous": false,
            "inputs": [
                {
                    "indexed": false,
                    "internalType": "address",
                    "name": "voter",
                    "type": "address"
                },
                {
                    "indexed": false,
                    "internalType": "uint256",
                    "name": "untilRewardEpoch",
                    "type": "uint256"
                }
            ],
            "name": "VoterChilled",
            "type": "event"
        },
        {
            "anonymous": false,
            "inputs": [
                {
                    "indexed": false,
                    "internalType": "address",
                    "name": "voter",
                    "type": "address"
                },
                {
                    "indexed": false,
                    "internalType": "uint256",
                    "name": "ftsoIndex",
                    "type": "uint256"
                }
            ],
            "name": "VoterRemovedFromWhitelist",
            "type": "event"
        },
        {
            "anonymous": false,
            "inputs": [
                {
                    "indexed": false,
                    "internalType": "address",
                    "name": "voter",
                    "type": "address"
                },
                {
                    "indexed": false,
                    "internalType": "uint256",
                    "name": "ftsoIndex",
                    "type": "uint256"
                }
            ],
            "name": "VoterWhitelisted",
            "type": "event"
        },
        {
            "inputs": [
                {
                    "internalType": "uint256",
                    "name": "_ftsoIndex",
                    "type": "uint256"
                }
            ],
            "name": "addFtso",
            "outputs": [],
            "stateMutability": "nonpayable",
            "type": "function"
        },
        {
            "inputs": [
                {
                    "internalType": "address",
                    "name": "",
                    "type": "address"
                }
            ],
            "name": "chilledUntilRewardEpoch",
            "outputs": [
                {
                    "internalType": "uint256",
                    "name": "",
                    "type": "uint256"
                }
            ],
            "stateMutability": "view",
            "type": "function"
        },
        {
            "inputs": [],
            "name": "defaultMaxVotersForFtso",
            "outputs": [
                {
                    "internalType": "uint256",
                    "name": "",
                    "type": "uint256"
                }
            ],
            "stateMutability": "view",
            "type": "function"
        },
        {
            "inputs": [
                {
                    "internalType": "uint256",
                    "name": "_ftsoIndex",
                    "type": "uint256"
                }
            ],
            "name": "getFtsoWhitelistedPriceProviders",
            "outputs": [
                {
                    "internalType": "address[]",
                    "name": "",
                    "type": "address[]"
                }
            ],
            "stateMutability": "view",
            "type": "function"
        },
        {
            "inputs": [
                {
                    "internalType": "string",
                    "name": "_symbol",
                    "type": "string"
                }
            ],
            "name": "getFtsoWhitelistedPriceProvidersBySymbol",
            "outputs": [
                {
                    "internalType": "address[]",
                    "name": "",
                    "type": "address[]"
                }
            ],
            "stateMutability": "view",
            "type": "function"
        },
        {
            "inputs": [
                {
                    "internalType": "uint256",
                    "name": "",
                    "type": "uint256"
                }
            ],
            "name": "maxVotersForFtso",
            "outputs": [
                {
                    "internalType": "uint256",
                    "name": "",
                    "type": "uint256"
                }
            ],
            "stateMutability": "view",
            "type": "function"
        },
        {
            "inputs": [
                {
                    "internalType": "address",
                    "name": "_voter",
                    "type": "address"
                }
            ],
            "name": "requestFullVoterWhitelisting",
            "outputs": [
                {
                    "internalType": "uint256[]",
                    "name": "_supportedIndices",
                    "type": "uint256[]"
                },
                {
                    "internalType": "bool[]",
                    "name": "_success",
                    "type": "bool[]"
                }
            ],
            "stateMutability": "nonpayable",
            "type": "function"
        },
        {
            "inputs": [
                {
                    "internalType": "address",
                    "name": "_voter",
                    "type": "address"
                },
                {
                    "internalType": "uint256",
                    "name": "_ftsoIndex",
                    "type": "uint256"
                }
            ],
            "name": "requestWhitelistingVoter",
            "outputs": [],
            "stateMutability": "nonpayable",
            "type": "function"
        },
        {
            "inputs": [
                {
                    "internalType": "contract IFtsoRegistry",
                    "name": "_ftsoRegistry",
                    "type": "address"
                }
            ],
            "name": "setFtsoRegistry",
            "outputs": [],
            "stateMutability": "nonpayable",
            "type": "function"
        }
    ],
    "bytecode": "0x6080604052600160005534801561001557600080fd5b50604051610c75380380610c7583398101604081905261003491610059565b600480546001600160a01b0319166001600160a01b0392909216919091179055610087565b60006020828403121561006a578081fd5b81516001600160a01b0381168114610080578182fd5b9392505050565b610bdf806100966000396000f3fe608060405234801561001057600080fd5b50600436106100935760003560e01c806347ed51b11161006657806347ed51b1146101095780635fc560141461011157806398dccfc214610124578063aa89dfd414610137578063b06cbaf71461014a57610093565b806309fcb40014610098578063345705a4146100c15780633de2cb1c146100d657806346538074146100e9575b600080fd5b6100ab6100a63660046108e3565b61016b565b6040516100b8919061096f565b60405180910390f35b6100d46100cf3660046108e3565b61022f565b005b6100d46100e4366004610790565b610298565b6100fc6100f7366004610774565b6102ee565b6040516100b89190610b64565b6100fc610300565b6100d461011f366004610774565b610306565b6100fc6101323660046108e3565b610352565b6100ab61014536600461085c565b610364565b61015d610158366004610774565b6103fc565b6040516100b89291906109a4565b600081815260016020526040902054606090806101a35760405162461bcd60e51b815260040161019a90610ad3565b60405180910390fd5b6000838152600360205260409020546001600160a01b0316806101d8575050604080516000815260208101909152905061022a565b60408051600180825281830190925260009160208083019080368337019050509050818160008151811061020857fe5b6001600160a01b0390921660209283029190910190910152925061022a915050565b919050565b6004546001600160a01b031633146102595760405162461bcd60e51b815260040161019a90610b36565b600081815260016020526040902054156102855760405162461bcd60e51b815260040161019a90610a9c565b6000805491815260016020526040902055565b6102a18261054b565b156102be5760405162461bcd60e51b815260040161019a90610a73565b60006102ca8383610551565b9050806102e95760405162461bcd60e51b815260040161019a90610b0a565b505050565b60026020526000908152604090205481565b60005481565b6004546001600160a01b031633146103305760405162461bcd60e51b815260040161019a90610b36565b600580546001600160a01b0319166001600160a01b0392909216919091179055565b60016020526000908152604090205481565b600554604051630e848da360e41b81526060916000916001600160a01b039091169063e848da309061039a908690600401610a20565b60206040518083038186803b1580156103b257600080fd5b505afa1580156103c6573d6000803e3d6000fd5b505050506040513d601f19601f820116820180604052508101906103ea91906108fb565b90506103f58161016b565b9392505050565b6060806104088361054b565b156104255760405162461bcd60e51b815260040161019a90610a73565b600560009054906101000a90046001600160a01b03166001600160a01b031663798aac5b6040518163ffffffff1660e01b815260040160006040518083038186803b15801561047357600080fd5b505afa158015610487573d6000803e3d6000fd5b505050506040513d6000823e601f3d908101601f191682016040526104af91908101906107bb565b80519092508067ffffffffffffffff811180156104cb57600080fd5b506040519080825280602002602001820160405280156104f5578160200160208202803683370190505b50915060005b81811015610544576105208585838151811061051357fe5b6020026020010151610551565b83828151811061052c57fe5b911515602092830291909101909101526001016104fb565b5050915091565b50600090565b6000818152600160205260408120548061057d5760405162461bcd60e51b815260040161019a90610ad3565b6000838152600360205260409020546001600160a01b039081169085168114156105ac5760019250505061063c565b600084815260036020908152604080832080546001600160a01b0319166001600160a01b038a1617905580516001808252818301909252918281019080368337019050509050818160008151811061060057fe5b60200260200101906001600160a01b031690816001600160a01b03168152505061062a8186610642565b610634868661070a565b600193505050505b92915050565b60005b82518110156106a2577f33359f2769756ca8d0da4683f25ee440744d6f18bfb166dbfb59315a8c62b01683828151811061067b57fe5b602002602001015183604051610692929190610956565b60405180910390a1600101610645565b50600480546040516376794efb60e01b81526001600160a01b03909116916376794efb916106d4918691869101610982565b600060405180830381600087803b1580156106ee57600080fd5b505af1158015610702573d6000803e3d6000fd5b505050505050565b7f66a8b13abe95391d1851f5bc319f3dde54ce8f2f40a5fe226aa3251d805832e3828260405161073b929190610956565b60405180910390a160048054604051639d986f9160e01b81526001600160a01b0390911691639d986f91916106d4918691869101610956565b600060208284031215610785578081fd5b81356103f581610b91565b600080604083850312156107a2578081fd5b82356107ad81610b91565b946020939093013593505050565b600060208083850312156107cd578182fd5b825167ffffffffffffffff808211156107e4578384fd5b818501915085601f8301126107f7578384fd5b81518181111561080357fe5b8381029150610813848301610b6d565b8181528481019084860184860187018a101561082d578788fd5b8795505b8386101561084f578051835260019590950194918601918601610831565b5098975050505050505050565b6000602080838503121561086e578182fd5b823567ffffffffffffffff80821115610885578384fd5b818501915085601f830112610898578384fd5b8135818111156108a457fe5b6108b6601f8201601f19168501610b6d565b915080825286848285010111156108cb578485fd5b80848401858401378101909201929092529392505050565b6000602082840312156108f4578081fd5b5035919050565b60006020828403121561090c578081fd5b5051919050565b6000815180845260208085019450808401835b8381101561094b5781516001600160a01b031687529582019590820190600101610926565b509495945050505050565b6001600160a01b03929092168252602082015260400190565b6000602082526103f56020830184610913565b6000604082526109956040830185610913565b90508260208301529392505050565b604080825283519082018190526000906020906060840190828701845b828110156109dd578151845292840192908401906001016109c1565b50505083810382850152845180825285830191830190845b81811015610a135783511515835292840192918401916001016109f5565b5090979650505050505050565b6000602080835283518082850152825b81811015610a4c57858101830151858201604001528201610a30565b81811115610a5d5783604083870101525b50601f01601f1916929092016040019392505050565b6020808252600f908201526e74727573746564206164647265737360881b604082015260600190565b60208082526017908201527f77686974656c69737420616c7265616479206578697374000000000000000000604082015260600190565b60208082526018908201527f4654534f20696e646578206e6f7420737570706f727465640000000000000000604082015260600190565b602080825260129082015271766f746520706f77657220746f6f206c6f7760701b604082015260600190565b60208082526014908201527337b7363c90383934b1b29039bab136b4ba3a32b960611b604082015260600190565b90815260200190565b60405181810167ffffffffffffffff81118282101715610b8957fe5b604052919050565b6001600160a01b0381168114610ba657600080fd5b5056fea26469706673582212208dcf6ec5f6cad1081ca12b7f63c954f85932caef522b857a295f2326d1b7767064736f6c63430007060033",
    "linkReferences": {},
    "deployedLinkReferences": {}
}