{
  "_format": "hh-sol-artifact-1",
  "contractName": "PChainStakeHistory",
  "sourceName": "contracts/staking/lib/PChainStakeHistory.sol",
  "abi": [
    {
      "inputs": [],
      "name": "MAX_NODE_IDS",
      "outputs": [
        {
          "internalType": "uint256",
          "name": "",
          "type": "uint256"
        }
      ],
      "stateMutability": "view",
      "type": "function"
    }
  ],
  "bytecode": "0x608b610024600b82828239805160001a607314601757fe5b30600052607381538281f3fe730000000000000000000000000000000000000000301460806040526004361060335760003560e01c8063aceeec84146038575b600080fd5b603e6050565b60408051918252519081900360200190f35b60038156fea2646970667358221220df66aa2546358b034f1b98e428be076b8d6a2c9439c52486d308a57032c3fd6f64736f6c63430007060033",
  "linkReferences": {},
  "deployedLinkReferences": {}
}