{
  "_format": "hh-sol-artifact-1",
  "contractName": "GovernanceVotePower",
  "sourceName": "contracts/token/implementation/GovernanceVotePower.sol",
  "abi": [
    {
      "inputs": [
        {
          "internalType": "contract IVPToken",
          "name": "_ownerToken",
          "type": "address"
        },
        {
          "internalType": "contract IPChainStakeMirror",
          "name": "_pChainStakeMirror",
          "type": "address"
        }
      ],
      "stateMutability": "nonpayable",
      "type": "constructor"
    },
    {
      "anonymous": false,
      "inputs": [
        {
          "indexed": true,
          "internalType": "address",
          "name": "delegator",
          "type": "address"
        },
        {
          "indexed": true,
          "internalType": "address",
          "name": "fromDelegate",
          "type": "address"
        },
        {
          "indexed": true,
          "internalType": "address",
          "name": "toDelegate",
          "type": "address"
        }
      ],
      "name": "DelegateChanged",
      "type": "event"
    },
    {
      "anonymous": false,
      "inputs": [
        {
          "indexed": true,
          "internalType": "address",
          "name": "delegate",
          "type": "address"
        },
        {
          "indexed": false,
          "internalType": "uint256",
          "name": "previousBalance",
          "type": "uint256"
        },
        {
          "indexed": false,
          "internalType": "uint256",
          "name": "newBalance",
          "type": "uint256"
        }
      ],
      "name": "DelegateVotesChanged",
      "type": "event"
    },
    {
      "inputs": [],
      "name": "cleanerContract",
      "outputs": [
        {
          "internalType": "address",
          "name": "",
          "type": "address"
        }
      ],
      "stateMutability": "view",
      "type": "function"
    },
    {
      "inputs": [
        {
          "internalType": "address",
          "name": "_to",
          "type": "address"
        }
      ],
      "name": "delegate",
      "outputs": [],
      "stateMutability": "nonpayable",
      "type": "function"
    },
    {
      "inputs": [
        {
          "internalType": "address",
          "name": "_owner",
          "type": "address"
        },
        {
          "internalType": "uint256",
          "name": "_count",
          "type": "uint256"
        }
      ],
      "name": "delegatedGovernanceVotePowerHistoryCleanup",
      "outputs": [
        {
          "internalType": "uint256",
          "name": "",
          "type": "uint256"
        }
      ],
      "stateMutability": "nonpayable",
      "type": "function"
    },
    {
      "inputs": [
        {
          "internalType": "address",
          "name": "_owner",
          "type": "address"
        },
        {
          "internalType": "uint256",
          "name": "_count",
          "type": "uint256"
        }
      ],
      "name": "delegatesHistoryCleanup",
      "outputs": [
        {
          "internalType": "uint256",
          "name": "",
          "type": "uint256"
        }
      ],
      "stateMutability": "nonpayable",
      "type": "function"
    },
    {
      "inputs": [],
      "name": "getCleanupBlockNumber",
      "outputs": [
        {
          "internalType": "uint256",
          "name": "",
          "type": "uint256"
        }
      ],
      "stateMutability": "view",
      "type": "function"
    },
    {
      "inputs": [
        {
          "internalType": "address",
          "name": "_who",
          "type": "address"
        },
        {
          "internalType": "uint256",
          "name": "_blockNumber",
          "type": "uint256"
        }
      ],
      "name": "getDelegateOfAt",
      "outputs": [
        {
          "internalType": "address",
          "name": "",
          "type": "address"
        }
      ],
      "stateMutability": "view",
      "type": "function"
    },
    {
      "inputs": [
        {
          "internalType": "address",
          "name": "_who",
          "type": "address"
        }
      ],
      "name": "getDelegateOfAtNow",
      "outputs": [
        {
          "internalType": "address",
          "name": "",
          "type": "address"
        }
      ],
      "stateMutability": "view",
      "type": "function"
    },
    {
      "inputs": [
        {
          "internalType": "address",
          "name": "_who",
          "type": "address"
        }
      ],
      "name": "getVotes",
      "outputs": [
        {
          "internalType": "uint256",
          "name": "",
          "type": "uint256"
        }
      ],
      "stateMutability": "view",
      "type": "function"
    },
    {
      "inputs": [],
      "name": "ownerToken",
      "outputs": [
        {
          "internalType": "contract IVPToken",
          "name": "",
          "type": "address"
        }
      ],
      "stateMutability": "view",
      "type": "function"
    },
    {
      "inputs": [],
      "name": "pChainStakeMirror",
      "outputs": [
        {
          "internalType": "contract IPChainStakeMirror",
          "name": "",
          "type": "address"
        }
      ],
      "stateMutability": "view",
      "type": "function"
    },
    {
      "inputs": [
        {
          "internalType": "address",
          "name": "_cleanerContract",
          "type": "address"
        }
      ],
      "name": "setCleanerContract",
      "outputs": [],
      "stateMutability": "nonpayable",
      "type": "function"
    },
    {
      "inputs": [
        {
          "internalType": "uint256",
          "name": "_blockNumber",
          "type": "uint256"
        }
      ],
      "name": "setCleanupBlockNumber",
      "outputs": [],
      "stateMutability": "nonpayable",
      "type": "function"
    },
    {
      "inputs": [],
      "name": "undelegate",
      "outputs": [],
      "stateMutability": "nonpayable",
      "type": "function"
    },
    {
      "inputs": [
        {
          "internalType": "address",
          "name": "_from",
          "type": "address"
        },
        {
          "internalType": "address",
          "name": "_to",
          "type": "address"
        },
        {
          "internalType": "uint256",
          "name": "",
          "type": "uint256"
        },
        {
          "internalType": "uint256",
          "name": "",
          "type": "uint256"
        },
        {
          "internalType": "uint256",
          "name": "_amount",
          "type": "uint256"
        }
      ],
      "name": "updateAtTokenTransfer",
      "outputs": [],
      "stateMutability": "nonpayable",
      "type": "function"
    },
    {
      "inputs": [
        {
          "internalType": "address",
          "name": "_who",
          "type": "address"
        },
        {
          "internalType": "uint256",
          "name": "_blockNumber",
          "type": "uint256"
        }
      ],
      "name": "votePowerOfAt",
      "outputs": [
        {
          "internalType": "uint256",
          "name": "",
          "type": "uint256"
        }
      ],
      "stateMutability": "view",
      "type": "function"
    }
  ],
  "bytecode": "0x60c060405234801561001057600080fd5b50604051611ac5380380611ac58339818101604052604081101561003357600080fd5b5080516020909101516001600160a01b03821661008a576040805162461bcd60e51b815260206004820152601060248201526f5f6f776e6572546f6b656e207a65726f60801b604482015290519081900360640190fd5b6001600160a01b0381166100e5576040805162461bcd60e51b815260206004820152601760248201527f5f70436861696e5374616b654d6972726f72207a65726f000000000000000000604482015290519081900360640190fd5b6001600160601b0319606092831b8116608052911b1660a05260805160601c60a05160601c61197661014f600039806104d652806106aa528061072f52806108c2525080610304528061058d52806106ce52806107f752806108905280610ab952506119766000f3fe608060405234801561001057600080fd5b50600436106100f55760003560e01c806392bfe6d811610097578063b3e871ee11610066578063b3e871ee1461023f578063eadb436214610265578063f6a494af146102a7578063f7ce0ddf146102cd576100f5565b806392bfe6d8146101dd5780639ab24eb0146102095780639ca20e4e1461022f578063a72ec4b614610237576100f5565b80635c19a95c116100d35780635c19a95c1461019f57806362d9c89a146101c557806365371883146101cd57806392ab89bb146101d5576100f5565b806313de97f5146100fa57806329a59ff2146101195780633c028e9d14610157575b600080fd5b6101176004803603602081101561011057600080fd5b50356102f9565b005b6101456004803603604081101561012f57600080fd5b506001600160a01b0381351690602001356103ed565b60408051918252519081900360200190f35b6101836004803603604081101561016d57600080fd5b506001600160a01b038135169060200135610463565b604080516001600160a01b039092168252519081900360200190f35b610117600480360360208110156101b557600080fd5b50356001600160a01b0316610471565b6101836106a8565b6101836106cc565b6101176106f0565b610145600480360360408110156101f357600080fd5b506001600160a01b0381351690602001356106fc565b6101456004803603602081101561021f57600080fd5b50356001600160a01b031661084f565b610183610863565b610145610872565b6101836004803603602081101561025557600080fd5b50356001600160a01b0316610878565b610117600480360360a081101561027b57600080fd5b506001600160a01b03813581169160208101359091169060408101359060608101359060800135610885565b610117600480360360208110156102bd57600080fd5b50356001600160a01b0316610aae565b610145600480360360408110156102e357600080fd5b506001600160a01b038135169060200135610b40565b336001600160a01b037f00000000000000000000000000000000000000000000000000000000000000001614610369576040805162461bcd60e51b815260206004820152601060248201526f37b7363c9037bbb732b9103a37b5b2b760811b604482015290519081900360640190fd5b6002548110156103aa5760405162461bcd60e51b81526004018080602001828103825260288152602001806118c36028913960400191505060405180910390fd5b4381106103e85760405162461bcd60e51b81526004018080602001828103825260218152602001806118a26021913960400191505060405180910390fd5b600255565b6003546000906001600160a01b03163314610447576040805162461bcd60e51b81526020600482015260156024820152741bdb9b1e4818db19585b995c8818dbdb9d1c9858dd605a1b604482015290519081900360640190fd5b60025461045a9060009085908590610bad565b90505b92915050565b600061045a60018484610bf4565b6001600160a01b0381163314156104cf576040805162461bcd60e51b815260206004820152601a60248201527f63616e27742064656c656761746520746f20796f757273656c66000000000000604482015290519081900360640190fd5b60006106057f00000000000000000000000000000000000000000000000000000000000000006001600160a01b03166370a08231336040518263ffffffff1660e01b815260040180826001600160a01b0316815260200191505060206040518083038186803b15801561054157600080fd5b505afa158015610555573d6000803e3d6000fd5b505050506040513d602081101561056b57600080fd5b5051604080516370a0823160e01b815233600482015290516001600160a01b037f000000000000000000000000000000000000000000000000000000000000000016916370a08231916024808301926020929190829003018186803b1580156105d357600080fd5b505afa1580156105e7573d6000803e3d6000fd5b505050506040513d60208110156105fd57600080fd5b505190610c21565b9050600061061233610878565b90506001600160a01b0381161561062e5761062e338284610c7b565b61063a60013385610d01565b6002805461064d91600191339190610d29565b506001600160a01b0383161561066857610668338484610d5d565b6040516001600160a01b03808516919083169033907f3134e8a2e6d97e929a7e54011ea5485d7d196dd5f0ba4d4ef95803e8e3fc257f90600090a4505050565b7f000000000000000000000000000000000000000000000000000000000000000081565b7f000000000000000000000000000000000000000000000000000000000000000081565b6106fa6000610471565b565b60008061070a818585610d77565b905060006107188585610463565b90506001600160a01b0381166108475760006108407f00000000000000000000000000000000000000000000000000000000000000006001600160a01b0316634ee2cd7e88886040518363ffffffff1660e01b815260040180836001600160a01b031681526020018281526020019250505060206040518083038186803b1580156107a257600080fd5b505afa1580156107b6573d6000803e3d6000fd5b505050506040513d60208110156107cc57600080fd5b50516040805163277166bf60e11b81526001600160a01b038a81166004830152602482018a905291517f000000000000000000000000000000000000000000000000000000000000000090921691634ee2cd7e91604480820192602092909190829003018186803b1580156105d357600080fd5b9290920191505b509392505050565b600061085b82436106fc565b90505b919050565b6003546001600160a01b031681565b60025490565b600061085b600183610d99565b336001600160a01b037f00000000000000000000000000000000000000000000000000000000000000001614806108e45750336001600160a01b037f000000000000000000000000000000000000000000000000000000000000000016145b61092c576040805162461bcd60e51b81526020600482015260146024820152736f6e6c79206f776e657220636f6e74726163747360601b604482015290519081900360640190fd5b836001600160a01b0316856001600160a01b03161415610993576040805162461bcd60e51b815260206004820152601a60248201527f43616e2774207472616e7366657220746f20796f757273656c66000000000000604482015290519081900360640190fd5b6001600160a01b0385161515806109b257506001600160a01b03841615155b6109bb57600080fd5b60006001600160a01b038616156109da576109d586610878565b6109dd565b60005b905060006001600160a01b038616156109fe576109f986610878565b610a01565b60005b90506001600160a01b038716610a30576001600160a01b03811615610a2b57610a2b868285610d5d565b610aa5565b6001600160a01b038616610a58576001600160a01b03821615610a2b57610a2b878385610c7b565b806001600160a01b0316826001600160a01b031614610aa5576001600160a01b03821615610a8b57610a8b878385610c7b565b6001600160a01b03811615610aa557610aa5868285610d5d565b50505050505050565b336001600160a01b037f00000000000000000000000000000000000000000000000000000000000000001614610b1e576040805162461bcd60e51b815260206004820152601060248201526f37b7363c9037bbb732b9103a37b5b2b760811b604482015290519081900360640190fd5b600380546001600160a01b0319166001600160a01b0392909216919091179055565b6003546000906001600160a01b03163314610b9a576040805162461bcd60e51b81526020600482015260156024820152741bdb9b1e4818db19585b995c8818dbdb9d1c9858dd605a1b604482015290519081900360640190fd5b60025461045a9060019085908590610d29565b60006001600160a01b03841615610be8576001600160a01b0384166000908152602086905260409020610be1908484610dba565b9050610bec565b5060005b949350505050565b6001600160a01b0382166000908152602084905260408120610c168184610ea7565b9150505b9392505050565b60008282018381101561045a576040805162461bcd60e51b815260206004820152601b60248201527f536166654d6174683a206164646974696f6e206f766572666c6f770000000000604482015290519081900360640190fd5b6000610c878184610fea565b90506000610c95828461100b565b9050610ca360008583611068565b60028054610cb691600091879190610bad565b50604080518381526020810183905281516001600160a01b038716927fdec2bacdd2f05b59de34da9b523dff8be42e5e38e818c82fdb0bae774387a724928290030190a25050505050565b6001600160a01b0382166000908152602084905260409020610d23818361108a565b50505050565b60006001600160a01b03841615610be8576001600160a01b0384166000908152602086905260409020610be190848461124d565b6000610d698184610fea565b90506000610c958284610c21565b6001600160a01b0382166000908152602084905260408120610c1681846112fb565b6001600160a01b0381166000908152602083905260408120610bec81611433565b600081610dc957506000610c1a565b6001840154600160401b90046001600160401b031680610ded576000915050610c1a565b60018501546001600160401b03166000610e13610e0a8388610c21565b6001850361147b565b9050815b8181108015610e48575060018101600090815260208990526040902054600160c01b90046001600160401b03168610155b15610e6457600081815260208990526040812055600101610e17565b82811115610e9957610e7581611491565b60018901805467ffffffffffffffff19166001600160401b03929092169190911790555b919091039695505050505050565b6001820154600090600160401b90046001600160401b031680610ece57600091505061045d565b4383101580610f0057506000198101600090815260208590526040902054600160a01b90046001600160401b03168310155b15610f2857600019016000908152602084905260409020546001600160a01b0316905061045d565b60018401546001600160401b039081166000818152602087905260409020549091600160a01b90910416841015610fa1578015610f965760405162461bcd60e51b81526004018080602001828103825260308152602001806119116030913960400191505060405180910390fd5b60009250505061045d565b6001850154600090610fc79087908490600160401b90046001600160401b0316886114d9565b6000908152602087905260409020546001600160a01b0316935050505092915050565b6001600160a01b0381166000908152602083905260408120610bec81611563565b600082821115611062576040805162461bcd60e51b815260206004820152601e60248201527f536166654d6174683a207375627472616374696f6e206f766572666c6f770000604482015290519081900360640190fd5b50900390565b6001600160a01b0382166000908152602084905260409020610d2381836115ab565b6001820154600160401b90046001600160401b031680611146576040518060400160405280836001600160a01b031681526020016110c743611491565b6001600160401b03908116909152600080805260208681526040909120835181549490920151909216600160a01b0267ffffffffffffffff60a01b196001600160a01b039092166001600160a01b0319909416939093171691909117905560018301805467ffffffffffffffff60401b1916600160401b179055611248565b600019810160009081526020849052604090208054600160a01b90046001600160401b0316438114156111915781546001600160a01b0319166001600160a01b038516178255611245565b80431161119a57fe5b6040518060400160405280856001600160a01b031681526020016111bd43611491565b6001600160401b039081169091526000858152602088815260409091208351815494909201518316600160a01b0267ffffffffffffffff60a01b196001600160a01b039093166001600160a01b031990951694909417919091169290921790915560018087018054918601909216600160401b0267ffffffffffffffff60401b199091161790555b50505b505050565b60008161125c57506000610c1a565b6001840154600160401b90046001600160401b031680611280576000915050610c1a565b60018501546001600160401b0316600061129d610e0a8388610c21565b9050815b81811080156112d2575060018101600090815260208990526040902054600160a01b90046001600160401b03168610155b15610e6457600081815260208990526040902080546001600160e01b03191690556001016112a1565b6001820154600090600160401b90046001600160401b03168061132257600091505061045d565b438310158061135457506000198101600090815260208590526040902054600160c01b90046001600160401b03168310155b1561137c57600019016000908152602084905260409020546001600160c01b0316905061045d565b60018401546001600160401b039081166000818152602087905260409020549091600160c01b909104168410156113ea578015610f965760405162461bcd60e51b81526004018080602001828103825260308152602001806119116030913960400191505060405180910390fd5b60018501546000906114109087908490600160401b90046001600160401b03168861176c565b6000908152602087905260409020546001600160c01b0316935050505092915050565b6001810154600090600160401b90046001600160401b03168061145a57600091505061085e565b6000190160009081526020929092525060409020546001600160a01b031690565b600081831061148a578161045a565b5090919050565b6000600160401b82106114d55760405162461bcd60e51b81526004018080602001828103825260268152602001806118eb6026913960400191505060405180910390fd5b5090565b600083816114e885600161100b565b90505b81811115611559576000611515600261150f60016115098688610c21565b90610c21565b906117e0565b600081815260208a90526040902054909150600160a01b90046001600160401b0316851061154557809250611553565b61155081600161100b565b91505b506114eb565b5095945050505050565b6001810154600090600160401b90046001600160401b03168061158a57600091505061085e565b6000190160009081526020929092525060409020546001600160c01b031690565b6001820154600160401b90046001600160401b0316806116625760405180604001604052806115d984611847565b6001600160c01b031681526020016115f043611491565b6001600160401b03908116909152600080805260208681526040909120835181549490920151909216600160c01b026001600160c01b039182166001600160c01b0319909416939093171691909117905560018301805467ffffffffffffffff60401b1916600160401b179055611248565b600019810160009081526020849052604090208054600160c01b90046001600160401b0316438114156116b85761169884611847565b82546001600160c01b0319166001600160c01b0391909116178255611245565b8043116116c157fe5b60405180604001604052806116d586611847565b6001600160c01b031681526020016116ec43611491565b6001600160401b039081169091526000858152602088815260409091208351815494909201518316600160c01b026001600160c01b039283166001600160c01b0319909516949094179091169290921790915560018087018054918601909216600160401b0267ffffffffffffffff60401b199091161790555050505050565b6000838161177b85600161100b565b90505b8181111561155957600061179c600261150f60016115098688610c21565b600081815260208a90526040902054909150600160c01b90046001600160401b031685106117cc578092506117da565b6117d781600161100b565b91505b5061177e565b6000808211611836576040805162461bcd60e51b815260206004820152601a60248201527f536166654d6174683a206469766973696f6e206279207a65726f000000000000604482015290519081900360640190fd5b81838161183f57fe5b049392505050565b6000600160c01b82106114d5576040805162461bcd60e51b815260206004820152601d60248201527f76616c756520646f65736e27742066697420696e203139322062697473000000604482015290519081900360640190fdfe636c65616e757020626c6f636b206d75737420626520696e207468652070617374636c65616e757020626c6f636b206e756d626572206d757374206e6576657220646563726561736553616665436173743a2076616c756520646f65736e27742066697420696e2036342062697473436865636b506f696e74486973746f72793a2072656164696e672066726f6d20636c65616e65642d757020626c6f636ba2646970667358221220c815567e569ad1452a087226fe253aa4d6ea202a75266e1215ac1a603a0ea9b864736f6c63430007060033",
  "linkReferences": {},
  "deployedLinkReferences": {}
}