{
    "_format": "hh-sol-artifact-1",
    "contractName": "FtsoRegistryProxy",
    "sourceName": "contracts/utils/implementation/FtsoRegistryProxy.sol",
    "abi": [
        {
            "inputs": [
                {
                    "internalType": "address",
                    "name": "_governance",
                    "type": "address"
                },
                {
                    "internalType": "address",
                    "name": "_initialImplementation",
                    "type": "address"
                }
            ],
            "stateMutability": "nonpayable",
            "type": "constructor"
        },
        {
            "anonymous": false,
            "inputs": [
                {
                    "indexed": false,
                    "internalType": "bytes4",
                    "name": "selector",
                    "type": "bytes4"
                },
                {
                    "indexed": false,
                    "internalType": "uint256",
                    "name": "allowedAfterTimestamp",
                    "type": "uint256"
                },
                {
                    "indexed": false,
                    "internalType": "bytes",
                    "name": "encodedCall",
                    "type": "bytes"
                }
            ],
            "name": "GovernanceCallTimelocked",
            "type": "event"
        },
        {
            "anonymous": false,
            "inputs": [
                {
                    "indexed": false,
                    "internalType": "address",
                    "name": "initialGovernance",
                    "type": "address"
                }
            ],
            "name": "GovernanceInitialised",
            "type": "event"
        },
        {
            "anonymous": false,
            "inputs": [
                {
                    "indexed": false,
                    "internalType": "address",
                    "name": "governanceSettings",
                    "type": "address"
                }
            ],
            "name": "GovernedProductionModeEntered",
            "type": "event"
        },
        {
            "anonymous": false,
            "inputs": [
                {
                    "indexed": false,
                    "internalType": "address",
                    "name": "newImplementation",
                    "type": "address"
                }
            ],
            "name": "ImplementationSet",
            "type": "event"
        },
        {
            "anonymous": false,
            "inputs": [
                {
                    "indexed": false,
                    "internalType": "bytes4",
                    "name": "selector",
                    "type": "bytes4"
                },
                {
                    "indexed": false,
                    "internalType": "uint256",
                    "name": "timestamp",
                    "type": "uint256"
                }
            ],
            "name": "TimelockedGovernanceCallCanceled",
            "type": "event"
        },
        {
            "anonymous": false,
            "inputs": [
                {
                    "indexed": false,
                    "internalType": "bytes4",
                    "name": "selector",
                    "type": "bytes4"
                },
                {
                    "indexed": false,
                    "internalType": "uint256",
                    "name": "timestamp",
                    "type": "uint256"
                }
            ],
            "name": "TimelockedGovernanceCallExecuted",
            "type": "event"
        },
        {
            "stateMutability": "payable",
            "type": "fallback"
        },
        {
            "inputs": [
                {
                    "internalType": "bytes4",
                    "name": "_selector",
                    "type": "bytes4"
                }
            ],
            "name": "cancelGovernanceCall",
            "outputs": [],
            "stateMutability": "nonpayable",
            "type": "function"
        },
        {
            "inputs": [
                {
                    "internalType": "bytes4",
                    "name": "_selector",
                    "type": "bytes4"
                }
            ],
            "name": "executeGovernanceCall",
            "outputs": [],
            "stateMutability": "nonpayable",
            "type": "function"
        },
        {
            "inputs": [],
            "name": "governance",
            "outputs": [
                {
                    "internalType": "address",
                    "name": "",
                    "type": "address"
                }
            ],
            "stateMutability": "view",
            "type": "function"
        },
        {
            "inputs": [],
            "name": "governanceSettings",
            "outputs": [
                {
                    "internalType": "contract IGovernanceSettings",
                    "name": "",
                    "type": "address"
                }
            ],
            "stateMutability": "view",
            "type": "function"
        },
        {
            "inputs": [],
            "name": "implementation",
            "outputs": [
                {
                    "internalType": "address",
                    "name": "_impl",
                    "type": "address"
                }
            ],
            "stateMutability": "view",
            "type": "function"
        },
        {
            "inputs": [
                {
                    "internalType": "address",
                    "name": "_initialGovernance",
                    "type": "address"
                }
            ],
            "name": "initialise",
            "outputs": [],
            "stateMutability": "nonpayable",
            "type": "function"
        },
        {
            "inputs": [],
            "name": "productionMode",
            "outputs": [
                {
                    "internalType": "bool",
                    "name": "",
                    "type": "bool"
                }
            ],
            "stateMutability": "view",
            "type": "function"
        },
        {
            "inputs": [
                {
                    "internalType": "address",
                    "name": "_newImplementation",
                    "type": "address"
                }
            ],
            "name": "setImplementation",
            "outputs": [],
            "stateMutability": "nonpayable",
            "type": "function"
        },
        {
            "inputs": [],
            "name": "switchToProductionMode",
            "outputs": [],
            "stateMutability": "nonpayable",
            "type": "function"
        },
        {
            "inputs": [
                {
                    "internalType": "bytes4",
                    "name": "",
                    "type": "bytes4"
                }
            ],
            "name": "timelockedCalls",
            "outputs": [
                {
                    "internalType": "uint256",
                    "name": "allowedAfterTimestamp",
                    "type": "uint256"
                },
                {
                    "internalType": "bytes",
                    "name": "encodedCall",
                    "type": "bytes"
                }
            ],
            "stateMutability": "view",
            "type": "function"
        },
        {
            "stateMutability": "payable",
            "type": "receive"
        }
    ],
    "bytecode": "0x60806040523480156200001157600080fd5b50604051620011e2380380620011e2833981016040819052620000349162000263565b818181806001600160a01b0381161562000053576200005381620000b9565b506001600160a01b038116620000a3576040805162461bcd60e51b815260206004820152601060248201526f5f676f7665726e616e6365207a65726f60801b604482015290519081900360640190fd5b50620000af816200017c565b5050505062000304565b600054600160a01b900460ff161562000119576040805162461bcd60e51b815260206004820152601460248201527f696e697469616c6973656420213d2066616c7365000000000000000000000000604482015290519081900360640190fd5b60008054600160a01b60ff60a01b19909116176001600160a01b0319166001600160a01b03831690811790915560408051918252517f9789733827840833afc031fb2ef9ab6894271f77bad2085687cf4ae5c7bee4db916020908290030190a150565b60408051808201909152601381527f696d706c656d656e746174696f6e207a65726f0000000000000000000000000060208201526001600160a01b038216620001e35760405162461bcd60e51b8152600401620001da9190620002ae565b60405180910390fd5b507fd76789a12365e9b8630292ae1301ec7e4a740b16ee702e1e2850b778f4874d7c8181556040517fab64f92ab780ecbf4f3866f57cee465ff36c89450dcce20237ca7a8d81fb7d13906200023a9084906200029a565b60405180910390a15050565b80516001600160a01b03811681146200025e57600080fd5b919050565b6000806040838503121562000276578182fd5b620002818362000246565b9150620002916020840162000246565b90509250929050565b6001600160a01b0391909116815260200190565b6000602080835283518082850152825b81811015620002dc57858101830151858201604001528201620002be565b81811115620002ee5783604083870101525b50601f01601f1916929092016040019392505050565b610ece80620003146000396000f3fe6080604052600436106100955760003560e01c806374e6310e1161005957806374e6310e146101415780639d6a890f1461016f578063d784d4261461018f578063e17f212e146101af578063f5a98383146101d1576100a4565b80635aa6e675146100ac5780635c60da1b146100d75780635ff27079146100ec57806362354e031461010c57806367fc402914610121576100a4565b366100a4576100a26101e6565b005b6100a26101e6565b3480156100b857600080fd5b506100c161021d565b6040516100ce9190610e45565b60405180910390f35b3480156100e357600080fd5b506100c16102bf565b3480156100f857600080fd5b506100a2610107366004610dd2565b6102e4565b34801561011857600080fd5b506100c1610640565b34801561012d57600080fd5b506100a261013c366004610dd2565b610658565b34801561014d57600080fd5b5061016161015c366004610dd2565b610740565b6040516100ce929190610e77565b34801561017b57600080fd5b506100a261018a366004610da4565b6107e6565b34801561019b57600080fd5b506100a26101aa366004610da4565b61089f565b3480156101bb57600080fd5b506101c46108ea565b6040516100ce9190610e59565b3480156101dd57600080fd5b506100a26108fa565b60006101f06102bf565b90503660008037600080366000845af43d806000803e81801561021257816000f35b816000fd5b50505050565b60008054600160a81b900460ff16610240576000546001600160a01b03166102ba565b73183faff6997c98a812a3b98748fc80241d08f3126001600160a01b031663732524946040518163ffffffff1660e01b815260040160206040518083038186803b15801561028d57600080fd5b505afa1580156102a1573d6000803e3d6000fd5b505050506040513d60208110156102b757600080fd5b50515b905090565b7fd76789a12365e9b8630292ae1301ec7e4a740b16ee702e1e2850b778f4874d7c5490565b60408051630debfda360e41b8152336004820152905173183faff6997c98a812a3b98748fc80241d08f3129163debfda30916024808301926020929190829003018186803b15801561033557600080fd5b505afa158015610349573d6000803e3d6000fd5b505050506040513d602081101561035f57600080fd5b50516103a2576040805162461bcd60e51b815260206004820152600d60248201526c37b7363c9032bc32b1baba37b960991b604482015290519081900360640190fd5b6001600160e01b031981166000908152600160205260409020805461040e576040805162461bcd60e51b815260206004820152601a60248201527f74696d656c6f636b3a20696e76616c69642073656c6563746f72000000000000604482015290519081900360640190fd5b8054421015610464576040805162461bcd60e51b815260206004820152601960248201527f74696d656c6f636b3a206e6f7420616c6c6f7765642079657400000000000000604482015290519081900360640190fd5b6000816001018054600181600116156101000203166002900480601f0160208091040260200160405190810160405280929190818152602001828054600181600116156101000203166002900480156104fe5780601f106104d3576101008083540402835291602001916104fe565b820191906000526020600020905b8154815290600101906020018083116104e157829003601f168201915b5050506001600160e01b03198616600090815260016020819052604082208281559495509092506105329150830182610cbf565b50506000805460ff60b01b1916600160b01b178155604051825130918491819060208401908083835b6020831061057a5780518252601f19909201916020918201910161055b565b6001836020036101000a0380198251168184511680821785525050505050509050019150506000604051808303816000865af19150503d80600081146105dc576040519150601f19603f3d011682016040523d82523d6000602084013e6105e1565b606091505b50506000805460ff60b01b19169055604080516001600160e01b03198716815242602082015281519293507fa7326b57fc9cfe267aaea5e7f0b01757154d265620a0585819416ee9ddd2c438929081900390910190a1610217816109c1565b73183faff6997c98a812a3b98748fc80241d08f31281565b6106606109de565b6001600160e01b031981166000908152600160205260409020546106cb576040805162461bcd60e51b815260206004820152601a60248201527f74696d656c6f636b3a20696e76616c69642073656c6563746f72000000000000604482015290519081900360640190fd5b604080516001600160e01b03198316815242602082015281517f7735b2391c38a81419c513e30ca578db7158eadd7101511b23e221c654d19cf8929181900390910190a16001600160e01b0319811660009081526001602081905260408220828155919061073b90830182610cbf565b505050565b600160208181526000928352604092839020805481840180548651600296821615610100026000190190911695909504601f810185900485028601850190965285855290949193929091908301828280156107dc5780601f106107b1576101008083540402835291602001916107dc565b820191906000526020600020905b8154815290600101906020018083116107bf57829003601f168201915b5050505050905082565b600054600160a01b900460ff161561083c576040805162461bcd60e51b8152602060048201526014602482015273696e697469616c6973656420213d2066616c736560601b604482015290519081900360640190fd5b60008054600160a01b60ff60a01b19909116176001600160a01b0319166001600160a01b03831690811790915560408051918252517f9789733827840833afc031fb2ef9ab6894271f77bad2085687cf4ae5c7bee4db916020908290030190a150565b600054600160b01b900460ff16806108c15750600054600160a81b900460ff16155b156108dc576108ce610a3f565b6108d781610a74565b6108e7565b6108e7600036610b2f565b50565b600054600160a81b900460ff1681565b6109026109de565b600054600160a81b900460ff1615610961576040805162461bcd60e51b815260206004820152601a60248201527f616c726561647920696e2070726f64756374696f6e206d6f6465000000000000604482015290519081900360640190fd5b60008054600161ff0160a01b031916600160a81b1790556040805173183faff6997c98a812a3b98748fc80241d08f312815290517f83af113638b5422f9e977cebc0aaf0eaf2188eb9a8baae7f9d46c42b33a1560c9181900360200190a1565b3d604051818101604052816000823e82156109da578181f35b8181fd5b6109e661021d565b6001600160a01b0316336001600160a01b031614610a3d576040805162461bcd60e51b815260206004820152600f60248201526e6f6e6c7920676f7665726e616e636560881b604482015290519081900360640190fd5b565b600054600160b01b900460ff1615610a6c57333014610a5a57fe5b6000805460ff60b01b19169055610a3d565b610a3d6109de565b604080518082019091526013815272696d706c656d656e746174696f6e207a65726f60681b60208201526001600160a01b038216610ace5760405162461bcd60e51b8152600401610ac59190610e64565b60405180910390fd5b507fd76789a12365e9b8630292ae1301ec7e4a740b16ee702e1e2850b778f4874d7c8181556040517fab64f92ab780ecbf4f3866f57cee465ff36c89450dcce20237ca7a8d81fb7d1390610b23908490610e45565b60405180910390a15050565b610b376109de565b600082359050600073183faff6997c98a812a3b98748fc80241d08f3126001600160a01b0316636221a54b6040518163ffffffff1660e01b815260040160206040518083038186803b158015610b8c57600080fd5b505afa158015610ba0573d6000803e3d6000fd5b505050506040513d6020811015610bb657600080fd5b505160408051808201825242830180825282516020601f89018190048102820181019094528781529394509290918281019190889088908190840183828082843760009201829052509390945250506001600160e01b03198616815260016020818152604090922084518155848301518051919450610c3a93928501920190610d03565b509050507fed948300a3694aa01d4a6b258bfd664350193d770c0b51f8387277f6d83ea3b68382878760405180856001600160e01b0319168152602001848152602001806020018281038252848482818152602001925080828437600083820152604051601f909101601f191690920182900397509095505050505050a15050505050565b50805460018160011615610100020316600290046000825580601f10610ce557506108e7565b601f0160209004906000526020600020908101906108e79190610d8f565b828054600181600116156101000203166002900490600052602060002090601f016020900481019282610d395760008555610d7f565b82601f10610d5257805160ff1916838001178555610d7f565b82800160010185558215610d7f579182015b82811115610d7f578251825591602001919060010190610d64565b50610d8b929150610d8f565b5090565b5b80821115610d8b5760008155600101610d90565b600060208284031215610db5578081fd5b81356001600160a01b0381168114610dcb578182fd5b9392505050565b600060208284031215610de3578081fd5b81356001600160e01b031981168114610dcb578182fd5b60008151808452815b81811015610e1f57602081850181015186830182015201610e03565b81811115610e305782602083870101525b50601f01601f19169290920160200192915050565b6001600160a01b0391909116815260200190565b901515815260200190565b600060208252610dcb6020830184610dfa565b600083825260406020830152610e906040830184610dfa565b94935050505056fea2646970667358221220637a9b91caacab988a40d525d6c5840023bc1aeb2437e316d1bc91abd044554364736f6c63430007060033",
    "linkReferences": {},
    "deployedLinkReferences": {}
}