{
    "_format": "hh-sol-artifact-1",
    "contractName": "CombinedNat",
    "sourceName": "contracts/token/implementation/CombinedNat.sol",
    "abi": [
        {
            "inputs": [
                {
                    "internalType": "contract WNat",
                    "name": "_wNat",
                    "type": "address"
                },
                {
                    "internalType": "contract PChainStakeMirror",
                    "name": "_pChainStakeMirror",
                    "type": "address"
                }
            ],
            "stateMutability": "nonpayable",
            "type": "constructor"
        },
        {
            "inputs": [
                {
                    "internalType": "address",
                    "name": "_owner",
                    "type": "address"
                }
            ],
            "name": "balanceOf",
            "outputs": [
                {
                    "internalType": "uint256",
                    "name": "",
                    "type": "uint256"
                }
            ],
            "stateMutability": "view",
            "type": "function"
        },
        {
            "inputs": [
                {
                    "internalType": "address",
                    "name": "_owner",
                    "type": "address"
                },
                {
                    "internalType": "uint256",
                    "name": "_blockNumber",
                    "type": "uint256"
                }
            ],
            "name": "balanceOfAt",
            "outputs": [
                {
                    "internalType": "uint256",
                    "name": "",
                    "type": "uint256"
                }
            ],
            "stateMutability": "view",
            "type": "function"
        },
        {
            "inputs": [],
            "name": "pChainStakeMirror",
            "outputs": [
                {
                    "internalType": "contract PChainStakeMirror",
                    "name": "",
                    "type": "address"
                }
            ],
            "stateMutability": "view",
            "type": "function"
        },
        {
            "inputs": [],
            "name": "totalSupply",
            "outputs": [
                {
                    "internalType": "uint256",
                    "name": "",
                    "type": "uint256"
                }
            ],
            "stateMutability": "view",
            "type": "function"
        },
        {
            "inputs": [
                {
                    "internalType": "uint256",
                    "name": "_blockNumber",
                    "type": "uint256"
                }
            ],
            "name": "totalSupplyAt",
            "outputs": [
                {
                    "internalType": "uint256",
                    "name": "",
                    "type": "uint256"
                }
            ],
            "stateMutability": "view",
            "type": "function"
        },
        {
            "inputs": [],
            "name": "wNat",
            "outputs": [
                {
                    "internalType": "contract WNat",
                    "name": "",
                    "type": "address"
                }
            ],
            "stateMutability": "view",
            "type": "function"
        }
    ],
    "bytecode": "0x60c060405234801561001057600080fd5b506040516107883803806107888339818101604052604081101561003357600080fd5b5080516020909101516001600160a01b038216610084576040805162461bcd60e51b815260206004820152600a6024820152695f774e6174207a65726f60b01b604482015290519081900360640190fd5b6001600160a01b0381166100df576040805162461bcd60e51b815260206004820152601760248201527f5f70436861696e5374616b654d6972726f72207a65726f000000000000000000604482015290519081900360640190fd5b6001600160601b0319606092831b8116608052911b1660a05260805160601c60a05160601c61063f610149600039806101235280610244528061035e528061038752806104965250806101c0528061030c52806104405280610545528061058d525061063f6000f3fe608060405234801561001057600080fd5b50600436106100625760003560e01c806318160ddd146100675780634ee2cd7e1461008157806362d9c89a146100ad57806370a08231146100d1578063981b24d0146100f75780639edbf00714610114575b600080fd5b61006f61011c565b60408051918252519081900360200190f35b61006f6004803603604081101561009757600080fd5b506001600160a01b03813516906020013561023d565b6100b561035c565b604080516001600160a01b039092168252519081900360200190f35b61006f600480360360208110156100e757600080fd5b50356001600160a01b0316610380565b61006f6004803603602081101561010d57600080fd5b503561048f565b6100b561058b565b60006102387f00000000000000000000000000000000000000000000000000000000000000006001600160a01b03166318160ddd6040518163ffffffff1660e01b815260040160206040518083038186803b15801561017a57600080fd5b505afa15801561018e573d6000803e3d6000fd5b505050506040513d60208110156101a457600080fd5b5051604080516318160ddd60e01b815290516001600160a01b037f000000000000000000000000000000000000000000000000000000000000000016916318160ddd916004808301926020929190829003018186803b15801561020657600080fd5b505afa15801561021a573d6000803e3d6000fd5b505050506040513d602081101561023057600080fd5b5051906105af565b905090565b60006103557f00000000000000000000000000000000000000000000000000000000000000006001600160a01b0316634ee2cd7e85856040518363ffffffff1660e01b815260040180836001600160a01b031681526020018281526020019250505060206040518083038186803b1580156102b757600080fd5b505afa1580156102cb573d6000803e3d6000fd5b505050506040513d60208110156102e157600080fd5b50516040805163277166bf60e11b81526001600160a01b0387811660048301526024820187905291517f000000000000000000000000000000000000000000000000000000000000000090921691634ee2cd7e91604480820192602092909190829003018186803b15801561020657600080fd5b9392505050565b7f000000000000000000000000000000000000000000000000000000000000000081565b60006104897f00000000000000000000000000000000000000000000000000000000000000006001600160a01b03166370a08231846040518263ffffffff1660e01b815260040180826001600160a01b0316815260200191505060206040518083038186803b1580156103f257600080fd5b505afa158015610406573d6000803e3d6000fd5b505050506040513d602081101561041c57600080fd5b5051604080516370a0823160e01b81526001600160a01b03868116600483015291517f0000000000000000000000000000000000000000000000000000000000000000909216916370a0823191602480820192602092909190829003018186803b15801561020657600080fd5b92915050565b60006104897f00000000000000000000000000000000000000000000000000000000000000006001600160a01b031663981b24d0846040518263ffffffff1660e01b81526004018082815260200191505060206040518083038186803b1580156104f857600080fd5b505afa15801561050c573d6000803e3d6000fd5b505050506040513d602081101561052257600080fd5b505160408051630981b24d60e41b81526004810186905290516001600160a01b037f0000000000000000000000000000000000000000000000000000000000000000169163981b24d0916024808301926020929190829003018186803b15801561020657600080fd5b7f000000000000000000000000000000000000000000000000000000000000000081565b600082820183811015610355576040805162461bcd60e51b815260206004820152601b60248201527f536166654d6174683a206164646974696f6e206f766572666c6f770000000000604482015290519081900360640190fdfea2646970667358221220f3d1f98bbcf55228bb6ccaf74c7e6882587a98302d3d341332876d6a79653e8a64736f6c63430007060033",
    "linkReferences": {},
    "deployedLinkReferences": {}
}