{
  "_format": "hh-sol-artifact-1",
  "contractName": "SelfDestructBurner",
  "sourceName": "contracts/inflation/implementation/SelfDestructBurner.sol",
  "abi": [
    {
      "inputs": [
        {
          "internalType": "contract IFtsoRewardManager",
          "name": "_ftsoRewardManager",
          "type": "address"
        },
        {
          "internalType": "contract IGenericRewardManager",
          "name": "_validatorRewardManager",
          "type": "address"
        }
      ],
      "stateMutability": "nonpayable",
      "type": "constructor"
    },
    {
      "anonymous": false,
      "inputs": [
        {
          "indexed": false,
          "internalType": "address",
          "name": "rewardManager",
          "type": "address"
        }
      ],
      "name": "ClaimFailed",
      "type": "event"
    },
    {
      "inputs": [],
      "name": "ftsoRewardManager",
      "outputs": [
        {
          "internalType": "contract IFtsoRewardManager",
          "name": "",
          "type": "address"
        }
      ],
      "stateMutability": "view",
      "type": "function"
    },
    {
      "inputs": [],
      "name": "trigger",
      "outputs": [],
      "stateMutability": "nonpayable",
      "type": "function"
    },
    {
      "inputs": [],
      "name": "validatorRewardManager",
      "outputs": [
        {
          "internalType": "contract IGenericRewardManager",
          "name": "",
          "type": "address"
        }
      ],
      "stateMutability": "view",
      "type": "function"
    }
  ],
  "bytecode": "0x60c060405234801561001057600080fd5b506040516105f13803806105f183398101604081905261002f9161007c565b6001600160a01b03821661005e5760405162461bcd60e51b8152600401610055906100b5565b60405180910390fd5b6001600160601b0319606092831b8116608052911b1660a0526100f3565b6000806040838503121561008e578182fd5b8251610099816100db565b60208401519092506100aa816100db565b809150509250929050565b6020808252600c908201526b61646472657373207a65726f60a01b604082015260600190565b6001600160a01b03811681146100f057600080fd5b50565b60805160601c60a05160601c6104b361013e60003980610214528061024752806102f2528061038152806103bb525080607d528061012852806101d752806103df52506104b36000f3fe608060405234801561001057600080fd5b50600436106100415760003560e01c80637fec8d3814610046578063874fbac414610050578063d7484db21461006e575b600080fd5b61004e610076565b005b6100586103b9565b6040516100659190610440565b60405180910390f35b6100586103dd565b60003090507f00000000000000000000000000000000000000000000000000000000000000006001600160a01b03166302fb0c5e6040518163ffffffff1660e01b815260040160206040518083038186803b1580156100d457600080fd5b505afa1580156100e8573d6000803e3d6000fd5b505050506040513d601f19601f8201168201806040525081019061010c9190610401565b156102125760405163596090c960e11b81526001600160a01b037f0000000000000000000000000000000000000000000000000000000000000000169063b2c1219290610166908490819060001990600190600401610454565b602060405180830381600087803b15801561018057600080fd5b505af19250505080156101b0575060408051601f3d908101601f191682019092526101ad91810190610428565b60015b610210577f7775c359eeb62b3e10c2488776894ac2cd9716a42dd7c174198f6c653bf293b07f00000000000000000000000000000000000000000000000000000000000000006040516102039190610440565b60405180910390a1610212565b505b7f00000000000000000000000000000000000000000000000000000000000000006001600160a01b0316158015906102d657507f00000000000000000000000000000000000000000000000000000000000000006001600160a01b03166302fb0c5e6040518163ffffffff1660e01b815260040160206040518083038186803b15801561029e57600080fd5b505afa1580156102b2573d6000803e3d6000fd5b505050506040513d601f19601f820116820180604052508101906102d69190610401565b156103b65760405163596090c960e11b81526001600160a01b037f0000000000000000000000000000000000000000000000000000000000000000169063b2c121929061032f9084908190600090600190600401610454565b600060405180830381600087803b15801561034957600080fd5b505af192505050801561035a575060015b6103b6577f7775c359eeb62b3e10c2488776894ac2cd9716a42dd7c174198f6c653bf293b07f00000000000000000000000000000000000000000000000000000000000000006040516103ad9190610440565b60405180910390a15b50565b7f000000000000000000000000000000000000000000000000000000000000000081565b7f000000000000000000000000000000000000000000000000000000000000000081565b600060208284031215610412578081fd5b81518015158114610421578182fd5b9392505050565b600060208284031215610439578081fd5b5051919050565b6001600160a01b0391909116815260200190565b6001600160a01b039485168152929093166020830152604082015290151560608201526080019056fea26469706673582212205f08ce1fa0ad846e22be6c1087488e5a1116298c8f6f60ebf09a226d6624531c64736f6c63430007060033",
  "linkReferences": {},
  "deployedLinkReferences": {}
}