{
  "_format": "hh-sol-artifact-1",
  "contractName": "FtsoRegistry",
  "sourceName": "contracts/utils/implementation/FtsoRegistry.sol",
  "abi": [
    {
      "inputs": [],
      "stateMutability": "nonpayable",
      "type": "constructor"
    },
    {
      "anonymous": false,
      "inputs": [
        {
          "indexed": false,
          "internalType": "bytes4",
          "name": "selector",
          "type": "bytes4"
        },
        {
          "indexed": false,
          "internalType": "uint256",
          "name": "allowedAfterTimestamp",
          "type": "uint256"
        },
        {
          "indexed": false,
          "internalType": "bytes",
          "name": "encodedCall",
          "type": "bytes"
        }
      ],
      "name": "GovernanceCallTimelocked",
      "type": "event"
    },
    {
      "anonymous": false,
      "inputs": [
        {
          "indexed": false,
          "internalType": "address",
          "name": "initialGovernance",
          "type": "address"
        }
      ],
      "name": "GovernanceInitialised",
      "type": "event"
    },
    {
      "anonymous": false,
      "inputs": [
        {
          "indexed": false,
          "internalType": "address",
          "name": "governanceSettings",
          "type": "address"
        }
      ],
      "name": "GovernedProductionModeEntered",
      "type": "event"
    },
    {
      "anonymous": false,
      "inputs": [
        {
          "indexed": false,
          "internalType": "bytes4",
          "name": "selector",
          "type": "bytes4"
        },
        {
          "indexed": false,
          "internalType": "uint256",
          "name": "timestamp",
          "type": "uint256"
        }
      ],
      "name": "TimelockedGovernanceCallCanceled",
      "type": "event"
    },
    {
      "anonymous": false,
      "inputs": [
        {
          "indexed": false,
          "internalType": "bytes4",
          "name": "selector",
          "type": "bytes4"
        },
        {
          "indexed": false,
          "internalType": "uint256",
          "name": "timestamp",
          "type": "uint256"
        }
      ],
      "name": "TimelockedGovernanceCallExecuted",
      "type": "event"
    },
    {
      "inputs": [
        {
          "internalType": "contract IIFtso",
          "name": "_ftsoContract",
          "type": "address"
        }
      ],
      "name": "addFtso",
      "outputs": [
        {
          "internalType": "uint256",
          "name": "_assetIndex",
          "type": "uint256"
        }
      ],
      "stateMutability": "nonpayable",
      "type": "function"
    },
    {
      "inputs": [
        {
          "internalType": "bytes4",
          "name": "_selector",
          "type": "bytes4"
        }
      ],
      "name": "cancelGovernanceCall",
      "outputs": [],
      "stateMutability": "nonpayable",
      "type": "function"
    },
    {
      "inputs": [
        {
          "internalType": "bytes4",
          "name": "_selector",
          "type": "bytes4"
        }
      ],
      "name": "executeGovernanceCall",
      "outputs": [],
      "stateMutability": "nonpayable",
      "type": "function"
    },
    {
      "inputs": [],
      "name": "ftsoManager",
      "outputs": [
        {
          "internalType": "contract IIFtsoManager",
          "name": "",
          "type": "address"
        }
      ],
      "stateMutability": "view",
      "type": "function"
    },
    {
      "inputs": [],
      "name": "getAddressUpdater",
      "outputs": [
        {
          "internalType": "address",
          "name": "_addressUpdater",
          "type": "address"
        }
      ],
      "stateMutability": "view",
      "type": "function"
    },
    {
      "inputs": [],
      "name": "getAllCurrentPrices",
      "outputs": [
        {
          "components": [
            {
              "internalType": "uint256",
              "name": "ftsoIndex",
              "type": "uint256"
            },
            {
              "internalType": "uint256",
              "name": "price",
              "type": "uint256"
            },
            {
              "internalType": "uint256",
              "name": "decimals",
              "type": "uint256"
            },
            {
              "internalType": "uint256",
              "name": "timestamp",
              "type": "uint256"
            }
          ],
          "internalType": "struct IFtsoRegistry.PriceInfo[]",
          "name": "",
          "type": "tuple[]"
        }
      ],
      "stateMutability": "view",
      "type": "function"
    },
    {
      "inputs": [],
      "name": "getAllFtsos",
      "outputs": [
        {
          "internalType": "contract IIFtso[]",
          "name": "_ftsos",
          "type": "address[]"
        }
      ],
      "stateMutability": "view",
      "type": "function"
    },
    {
      "inputs": [
        {
          "internalType": "string",
          "name": "_symbol",
          "type": "string"
        }
      ],
      "name": "getCurrentPrice",
      "outputs": [
        {
          "internalType": "uint256",
          "name": "_price",
          "type": "uint256"
        },
        {
          "internalType": "uint256",
          "name": "_timestamp",
          "type": "uint256"
        }
      ],
      "stateMutability": "view",
      "type": "function"
    },
    {
      "inputs": [
        {
          "internalType": "uint256",
          "name": "_assetIndex",
          "type": "uint256"
        }
      ],
      "name": "getCurrentPrice",
      "outputs": [
        {
          "internalType": "uint256",
          "name": "_price",
          "type": "uint256"
        },
        {
          "internalType": "uint256",
          "name": "_timestamp",
          "type": "uint256"
        }
      ],
      "stateMutability": "view",
      "type": "function"
    },
    {
      "inputs": [
        {
          "internalType": "uint256",
          "name": "_assetIndex",
          "type": "uint256"
        }
      ],
      "name": "getCurrentPriceWithDecimals",
      "outputs": [
        {
          "internalType": "uint256",
          "name": "_price",
          "type": "uint256"
        },
        {
          "internalType": "uint256",
          "name": "_timestamp",
          "type": "uint256"
        },
        {
          "internalType": "uint256",
          "name": "_assetPriceUsdDecimals",
          "type": "uint256"
        }
      ],
      "stateMutability": "view",
      "type": "function"
    },
    {
      "inputs": [
        {
          "internalType": "string",
          "name": "_symbol",
          "type": "string"
        }
      ],
      "name": "getCurrentPriceWithDecimals",
      "outputs": [
        {
          "internalType": "uint256",
          "name": "_price",
          "type": "uint256"
        },
        {
          "internalType": "uint256",
          "name": "_timestamp",
          "type": "uint256"
        },
        {
          "internalType": "uint256",
          "name": "_assetPriceUsdDecimals",
          "type": "uint256"
        }
      ],
      "stateMutability": "view",
      "type": "function"
    },
    {
      "inputs": [
        {
          "internalType": "uint256[]",
          "name": "_indices",
          "type": "uint256[]"
        }
      ],
      "name": "getCurrentPricesByIndices",
      "outputs": [
        {
          "components": [
            {
              "internalType": "uint256",
              "name": "ftsoIndex",
              "type": "uint256"
            },
            {
              "internalType": "uint256",
              "name": "price",
              "type": "uint256"
            },
            {
              "internalType": "uint256",
              "name": "decimals",
              "type": "uint256"
            },
            {
              "internalType": "uint256",
              "name": "timestamp",
              "type": "uint256"
            }
          ],
          "internalType": "struct IFtsoRegistry.PriceInfo[]",
          "name": "",
          "type": "tuple[]"
        }
      ],
      "stateMutability": "view",
      "type": "function"
    },
    {
      "inputs": [
        {
          "internalType": "string[]",
          "name": "_symbols",
          "type": "string[]"
        }
      ],
      "name": "getCurrentPricesBySymbols",
      "outputs": [
        {
          "components": [
            {
              "internalType": "uint256",
              "name": "ftsoIndex",
              "type": "uint256"
            },
            {
              "internalType": "uint256",
              "name": "price",
              "type": "uint256"
            },
            {
              "internalType": "uint256",
              "name": "decimals",
              "type": "uint256"
            },
            {
              "internalType": "uint256",
              "name": "timestamp",
              "type": "uint256"
            }
          ],
          "internalType": "struct IFtsoRegistry.PriceInfo[]",
          "name": "",
          "type": "tuple[]"
        }
      ],
      "stateMutability": "view",
      "type": "function"
    },
    {
      "inputs": [
        {
          "internalType": "uint256",
          "name": "_assetIndex",
          "type": "uint256"
        }
      ],
      "name": "getFtso",
      "outputs": [
        {
          "internalType": "contract IIFtso",
          "name": "_activeFtso",
          "type": "address"
        }
      ],
      "stateMutability": "view",
      "type": "function"
    },
    {
      "inputs": [
        {
          "internalType": "string",
          "name": "_symbol",
          "type": "string"
        }
      ],
      "name": "getFtsoBySymbol",
      "outputs": [
        {
          "internalType": "contract IIFtso",
          "name": "_activeFtso",
          "type": "address"
        }
      ],
      "stateMutability": "view",
      "type": "function"
    },
    {
      "inputs": [
        {
          "internalType": "uint256",
          "name": "_assetIndex",
          "type": "uint256"
        }
      ],
      "name": "getFtsoHistory",
      "outputs": [
        {
          "internalType": "contract IIFtso[5]",
          "name": "_ftsoAddressHistory",
          "type": "address[5]"
        }
      ],
      "stateMutability": "view",
      "type": "function"
    },
    {
      "inputs": [
        {
          "internalType": "string",
          "name": "_symbol",
          "type": "string"
        }
      ],
      "name": "getFtsoIndex",
      "outputs": [
        {
          "internalType": "uint256",
          "name": "_assetIndex",
          "type": "uint256"
        }
      ],
      "stateMutability": "view",
      "type": "function"
    },
    {
      "inputs": [
        {
          "internalType": "uint256",
          "name": "_assetIndex",
          "type": "uint256"
        }
      ],
      "name": "getFtsoSymbol",
      "outputs": [
        {
          "internalType": "string",
          "name": "_symbol",
          "type": "string"
        }
      ],
      "stateMutability": "view",
      "type": "function"
    },
    {
      "inputs": [
        {
          "internalType": "uint256[]",
          "name": "_assetIndices",
          "type": "uint256[]"
        }
      ],
      "name": "getFtsos",
      "outputs": [
        {
          "internalType": "contract IFtsoGenesis[]",
          "name": "_ftsos",
          "type": "address[]"
        }
      ],
      "stateMutability": "view",
      "type": "function"
    },
    {
      "inputs": [],
      "name": "getSupportedFtsos",
      "outputs": [
        {
          "internalType": "contract IIFtso[]",
          "name": "_ftsos",
          "type": "address[]"
        }
      ],
      "stateMutability": "view",
      "type": "function"
    },
    {
      "inputs": [],
      "name": "getSupportedIndices",
      "outputs": [
        {
          "internalType": "uint256[]",
          "name": "_supportedIndices",
          "type": "uint256[]"
        }
      ],
      "stateMutability": "view",
      "type": "function"
    },
    {
      "inputs": [],
      "name": "getSupportedIndicesAndFtsos",
      "outputs": [
        {
          "internalType": "uint256[]",
          "name": "_supportedIndices",
          "type": "uint256[]"
        },
        {
          "internalType": "contract IIFtso[]",
          "name": "_ftsos",
          "type": "address[]"
        }
      ],
      "stateMutability": "view",
      "type": "function"
    },
    {
      "inputs": [],
      "name": "getSupportedIndicesAndSymbols",
      "outputs": [
        {
          "internalType": "uint256[]",
          "name": "_supportedIndices",
          "type": "uint256[]"
        },
        {
          "internalType": "string[]",
          "name": "_supportedSymbols",
          "type": "string[]"
        }
      ],
      "stateMutability": "view",
      "type": "function"
    },
    {
      "inputs": [],
      "name": "getSupportedIndicesSymbolsAndFtsos",
      "outputs": [
        {
          "internalType": "uint256[]",
          "name": "_supportedIndices",
          "type": "uint256[]"
        },
        {
          "internalType": "string[]",
          "name": "_supportedSymbols",
          "type": "string[]"
        },
        {
          "internalType": "contract IIFtso[]",
          "name": "_ftsos",
          "type": "address[]"
        }
      ],
      "stateMutability": "view",
      "type": "function"
    },
    {
      "inputs": [],
      "name": "getSupportedSymbols",
      "outputs": [
        {
          "internalType": "string[]",
          "name": "_supportedSymbols",
          "type": "string[]"
        }
      ],
      "stateMutability": "view",
      "type": "function"
    },
    {
      "inputs": [],
      "name": "getSupportedSymbolsAndFtsos",
      "outputs": [
        {
          "internalType": "string[]",
          "name": "_supportedSymbols",
          "type": "string[]"
        },
        {
          "internalType": "contract IIFtso[]",
          "name": "_ftsos",
          "type": "address[]"
        }
      ],
      "stateMutability": "view",
      "type": "function"
    },
    {
      "inputs": [],
      "name": "governance",
      "outputs": [
        {
          "internalType": "address",
          "name": "",
          "type": "address"
        }
      ],
      "stateMutability": "view",
      "type": "function"
    },
    {
      "inputs": [],
      "name": "governanceSettings",
      "outputs": [
        {
          "internalType": "contract IGovernanceSettings",
          "name": "",
          "type": "address"
        }
      ],
      "stateMutability": "view",
      "type": "function"
    },
    {
      "inputs": [
        {
          "internalType": "address",
          "name": "_initialGovernance",
          "type": "address"
        }
      ],
      "name": "initialise",
      "outputs": [],
      "stateMutability": "nonpayable",
      "type": "function"
    },
    {
      "inputs": [
        {
          "internalType": "address",
          "name": "_addressUpdater",
          "type": "address"
        }
      ],
      "name": "initialiseRegistry",
      "outputs": [],
      "stateMutability": "nonpayable",
      "type": "function"
    },
    {
      "inputs": [],
      "name": "productionMode",
      "outputs": [
        {
          "internalType": "bool",
          "name": "",
          "type": "bool"
        }
      ],
      "stateMutability": "view",
      "type": "function"
    },
    {
      "inputs": [
        {
          "internalType": "contract IIFtso",
          "name": "_ftso",
          "type": "address"
        }
      ],
      "name": "removeFtso",
      "outputs": [],
      "stateMutability": "nonpayable",
      "type": "function"
    },
    {
      "inputs": [],
      "name": "switchToProductionMode",
      "outputs": [],
      "stateMutability": "nonpayable",
      "type": "function"
    },
    {
      "inputs": [
        {
          "internalType": "bytes4",
          "name": "",
          "type": "bytes4"
        }
      ],
      "name": "timelockedCalls",
      "outputs": [
        {
          "internalType": "uint256",
          "name": "allowedAfterTimestamp",
          "type": "uint256"
        },
        {
          "internalType": "bytes",
          "name": "encodedCall",
          "type": "bytes"
        }
      ],
      "stateMutability": "view",
      "type": "function"
    },
    {
      "inputs": [
        {
          "internalType": "bytes32[]",
          "name": "_contractNameHashes",
          "type": "bytes32[]"
        },
        {
          "internalType": "address[]",
          "name": "_contractAddresses",
          "type": "address[]"
        }
      ],
      "name": "updateContractAddresses",
      "outputs": [],
      "stateMutability": "nonpayable",
      "type": "function"
    }
  ],
  "bytecode": "0x60806040523480156200001157600080fd5b5061dead6000620000228162000045565b506001600160a01b038116156200003e576200003e8162000069565b506200012c565b7f714f205b2abd25bef1d06a1af944e38c113fe6160375c4e1d6d5cf28848e771955565b600054600160a01b900460ff1615620000c9576040805162461bcd60e51b815260206004820152601460248201527f696e697469616c6973656420213d2066616c7365000000000000000000000000604482015290519081900360640190fd5b60008054600160a01b60ff60a01b19909116176001600160a01b0319166001600160a01b03831690811790915560408051918252517f9789733827840833afc031fb2ef9ab6894271f77bad2085687cf4ae5c7bee4db916020908290030190a150565b612fa0806200013c6000396000f3fe608060405234801561001057600080fd5b50600436106102115760003560e01c8063798aac5b11610125578063c55d0f56116100ad578063e17f212e1161007c578063e17f212e146104a2578063e68f283b146104b7578063e848da30146104cd578063f5a98383146104e0578063ffc880fd146104e857610211565b8063c55d0f5614610447578063c71a1b201461045a578063ce1c0e4d1461047a578063d75f6d811461048f57610211565b80639d6a890f116100f45780639d6a890f146103f3578063a40060ba14610406578063a670ff871461040e578063a69afdc614610421578063b00c0b761461043457610211565b8063798aac5b1461039857806379d5ea4b146103ad57806397da6af4146103c05780639cb47538146103d357610211565b80635267a15d116101a857806362354e031161017757806362354e031461033257806367fc40291461033a5780636ba31fa11461034d57806374e6310e146103605780637687542c1461038157610211565b80635267a15d146102f857806358f9296f146103005780635aa6e675146103155780635ff270791461031d57610211565b8063257cbd3a116101e4578063257cbd3a146102805780632663f1b4146102a25780632bcdd6ab146102c257806342a0f243146102d757610211565b806306a2ba29146102165780630cf484971461023557806311a7aaaa1461024b578063136d3f6414610260575b600080fd5b61021e6104fb565b60405161022c929190612d6e565b60405180910390f35b61023d61050f565b60405161022c929190612cdf565b610253610625565b60405161022c9190612c1e565b61027361026e366004612aa9565b610634565b60405161022c9190612df4565b61029361028e366004612aa9565b6106b9565b60405161022c93929190612e92565b6102b56102b03660046127fd565b610744565b60405161022c9190612e62565b6102ca6108d5565b60405161022c9190612cb9565b6102ea6102e5366004612a0e565b610991565b60405161022c929190612e84565b610253610a15565b610308610a3a565b60405161022c9190612d04565b610253610a5c565b61033061032b3660046129e6565b610afe565b005b610253610e60565b6103306103483660046129e6565b610e78565b61030861035b366004612957565b610f60565b61037361036e3660046129e6565b61100e565b60405161022c929190612e6b565b6103896110b4565b60405161022c93929190612da6565b6103a06111cd565b60405161022c9190612d5b565b6103086103bb3660046128cf565b6111dd565b6102536103ce366004612a0e565b611329565b6103e66103e1366004612957565b611334565b60405161022c9190612c32565b6103306104013660046127fd565b6114b8565b6102ca611571565b61033061041c3660046127fd565b61157b565b61029361042f366004612a0e565b611723565b610330610442366004612819565b611731565b6102ea610455366004612aa9565b6117dc565b61046d610468366004612aa9565b6117e8565b60405161022c9190612c7f565b6104826118ce565b60405161022c9190612ccc565b61025361049d366004612aa9565b6119e5565b6104aa6119f0565b60405161022c9190612de9565b6104bf611a00565b60405161022c929190612d81565b6102b56104db366004612a0e565b611b19565b610330611b24565b6103306104f63660046127fd565b611beb565b606080610506611c89565b90939092509050565b60608061051a611c89565b80519092509050806001600160401b038111801561053757600080fd5b5060405190808252806020026020018201604052801561056b57816020015b60608152602001906001900390816105565790505b5092505b8015610620578060019003905081818151811061058857fe5b60200260200101516001600160a01b03166395d89b416040518163ffffffff1660e01b815260040160006040518083038186803b1580156105c857600080fd5b505afa1580156105dc573d6000803e3d6000fd5b505050506040513d6000823e601f3d908101601f191682016040526106049190810190612a40565b83828151811061061057fe5b602002602001018190525061056f565b509091565b6004546001600160a01b031681565b606061063f82611ec3565b6001600160a01b03166395d89b416040518163ffffffff1660e01b815260040160006040518083038186803b15801561067757600080fd5b505afa15801561068b573d6000803e3d6000fd5b505050506040513d6000823e601f3d908101601f191682016040526106b39190810190612a40565b92915050565b60008060006106c784611ec3565b6001600160a01b03166365f5cd866040518163ffffffff1660e01b815260040160606040518083038186803b1580156106ff57600080fd5b505afa158015610713573d6000803e3d6000fd5b505050506040513d601f19601f820116820180604052508101906107379190612ae4565b9250925092509193909250565b6004546040805180820190915260118152704654534f206d616e61676572206f6e6c7960781b60208201526000916001600160a01b031633146107a35760405162461bcd60e51b815260040161079a9190612df4565b60405180910390fd5b506000826001600160a01b03166395d89b416040518163ffffffff1660e01b815260040160006040518083038186803b1580156107df57600080fd5b505afa1580156107f3573d6000803e3d6000fd5b505050506040513d6000823e601f3d908101601f1916820160405261081b9190810190612a40565b905060038160405161082d9190612c02565b90815260200160405180910390205491508160001415610884576002805490509150816001016003826040516108639190612c02565b90815260405190819003602001902055600280546001018155600052610893565b60018203915061089382611f74565b82600283815481106108a157fe5b6000918252602082206005909102010180546001600160a01b0319166001600160a01b039290921691909117905550919050565b6002546060906000816001600160401b03811180156108f357600080fd5b5060405190808252806020026020018201604052801561091d578160200160208202803683370190505b5090505b811561098b57816001900391506002828154811061093b57fe5b600091825260208220600590910201015481516001600160a01b039091169082908490811061096657fe5b60200260200101906001600160a01b031690816001600160a01b031681525050610921565b91505090565b60008061099d83612003565b6001600160a01b031663eb91d37e6040518163ffffffff1660e01b8152600401604080518083038186803b1580156109d457600080fd5b505afa1580156109e8573d6000803e3d6000fd5b505050506040513d601f19601f82011682018060405250810190610a0c9190612ac1565b91509150915091565b7f714f205b2abd25bef1d06a1af944e38c113fe6160375c4e1d6d5cf28848e77195490565b6060600080610a47611c89565b91509150610a55828261203f565b9250505090565b60008054600160a81b900460ff16610a7f576000546001600160a01b0316610af9565b73183faff6997c98a812a3b98748fc80241d08f3126001600160a01b031663732524946040518163ffffffff1660e01b815260040160206040518083038186803b158015610acc57600080fd5b505afa158015610ae0573d6000803e3d6000fd5b505050506040513d6020811015610af657600080fd5b50515b905090565b60408051630debfda360e41b8152336004820152905173183faff6997c98a812a3b98748fc80241d08f3129163debfda30916024808301926020929190829003018186803b158015610b4f57600080fd5b505afa158015610b63573d6000803e3d6000fd5b505050506040513d6020811015610b7957600080fd5b5051610bbc576040805162461bcd60e51b815260206004820152600d60248201526c37b7363c9032bc32b1baba37b960991b604482015290519081900360640190fd5b6001600160e01b0319811660009081526001602052604090208054610c28576040805162461bcd60e51b815260206004820152601a60248201527f74696d656c6f636b3a20696e76616c69642073656c6563746f72000000000000604482015290519081900360640190fd5b8054421015610c7e576040805162461bcd60e51b815260206004820152601960248201527f74696d656c6f636b3a206e6f7420616c6c6f7765642079657400000000000000604482015290519081900360640190fd5b6000816001018054600181600116156101000203166002900480601f016020809104026020016040519081016040528092919081815260200182805460018160011615610100020316600290048015610d185780601f10610ced57610100808354040283529160200191610d18565b820191906000526020600020905b815481529060010190602001808311610cfb57829003601f168201915b5050506001600160e01b0319861660009081526001602081905260408220828155949550909250610d4c9150830182612611565b50506000805460ff60b01b1916600160b01b178155604051825130918491819060208401908083835b60208310610d945780518252601f199092019160209182019101610d75565b6001836020036101000a0380198251168184511680821785525050505050509050019150506000604051808303816000865af19150503d8060008114610df6576040519150601f19603f3d011682016040523d82523d6000602084013e610dfb565b606091505b50506000805460ff60b01b19169055604080516001600160e01b03198716815242602082015281519293507fa7326b57fc9cfe267aaea5e7f0b01757154d265620a0585819416ee9ddd2c438929081900390910190a1610e5a816121b6565b50505050565b73183faff6997c98a812a3b98748fc80241d08f31281565b610e806121d3565b6001600160e01b03198116600090815260016020526040902054610eeb576040805162461bcd60e51b815260206004820152601a60248201527f74696d656c6f636b3a20696e76616c69642073656c6563746f72000000000000604482015290519081900360640190fd5b604080516001600160e01b03198316815242602082015281517f7735b2391c38a81419c513e30ca578db7158eadd7101511b23e221c654d19cf8929181900390910190a16001600160e01b03198116600090815260016020819052604082208281559190610f5b90830182612611565b505050565b6060600082516001600160401b0381118015610f7b57600080fd5b50604051908082528060200260200182016040528015610fa5578160200160208202803683370190505b50905060005b8351811015610ffc57610fd0848281518110610fc357fe5b6020026020010151611ec3565b828281518110610fdc57fe5b6001600160a01b0390921660209283029190910190910152600101610fab565b50611007838261203f565b9392505050565b600160208181526000928352604092839020805481840180548651600296821615610100026000190190911695909504601f810185900485028601850190965285855290949193929091908301828280156110aa5780601f1061107f576101008083540402835291602001916110aa565b820191906000526020600020905b81548152906001019060200180831161108d57829003601f168201915b5050505050905082565b60608060606110c1611c89565b81519194509150806001600160401b03811180156110de57600080fd5b5060405190808252806020026020018201604052801561111257816020015b60608152602001906001900390816110fd5790505b5092505b80156111c7578060019003905081818151811061112f57fe5b60200260200101516001600160a01b03166395d89b416040518163ffffffff1660e01b815260040160006040518083038186803b15801561116f57600080fd5b505afa158015611183573d6000803e3d6000fd5b505050506040513d6000823e601f3d908101601f191682016040526111ab9190810190612a40565b8382815181106111b757fe5b6020026020010181905250611116565b50909192565b60606111d7611c89565b50919050565b6060600082516001600160401b03811180156111f857600080fd5b50604051908082528060200260200182016040528015611222578160200160208202803683370190505b509050600083516001600160401b038111801561123e57600080fd5b50604051908082528060200260200182016040528015611268578160200160208202803683370190505b50905060005b84518110156113165761129385828151811061128657fe5b6020026020010151612234565b83828151811061129f57fe5b60200260200101818152505060028382815181106112b957fe5b6020026020010151815481106112cb57fe5b600091825260208220600590910201015482516001600160a01b03909116908390839081106112f657fe5b6001600160a01b039092166020928302919091019091015260010161126e565b50611321828261203f565b949350505050565b60006106b382612003565b600254815160609190806001600160401b038111801561135357600080fd5b5060405190808252806020026020018201604052801561137d578160200160208202803683370190505b5092505b80156114b15780600190039050600084828151811061139c57fe5b60200260200101519050828110604051806040016040528060188152602001600080516020612f4b833981519152815250906113eb5760405162461bcd60e51b815260040161079a9190612df4565b50600281815481106113f957fe5b600091825260208220600590910201015484516001600160a01b039091169085908490811061142457fe5b60200260200101906001600160a01b031690816001600160a01b03168152505060006001600160a01b031684838151811061145b57fe5b60200260200101516001600160a01b031614156114ab5760408051808201825260188152600080516020612f4b8339815191526020820152905162461bcd60e51b815261079a9190600401612df4565b50611381565b5050919050565b600054600160a01b900460ff161561150e576040805162461bcd60e51b8152602060048201526014602482015273696e697469616c6973656420213d2066616c736560601b604482015290519081900360640190fd5b60008054600160a01b60ff60a01b19909116176001600160a01b0319166001600160a01b03831690811790915560408051918252517f9789733827840833afc031fb2ef9ab6894271f77bad2085687cf4ae5c7bee4db916020908290030190a150565b60606106b3611c89565b6004546040805180820190915260118152704654534f206d616e61676572206f6e6c7960781b6020820152906001600160a01b031633146115cf5760405162461bcd60e51b815260040161079a9190612df4565b506000816001600160a01b03166395d89b416040518163ffffffff1660e01b815260040160006040518083038186803b15801561160b57600080fd5b505afa15801561161f573d6000803e3d6000fd5b505050506040513d6000823e601f3d908101601f191682016040526116479190810190612a40565b9050600060038260405161165b9190612c02565b90815260405190819003602001902054905080156116e7576000190161168081611f74565b60006002828154811061168f57fe5b6000918252602082206005909102010180546001600160a01b0319166001600160a01b03929092169190911790556040516003906116ce908490612c02565b9081526020016040518091039020600090555050611720565b60408051808201825260188152600080516020612f4b8339815191526020820152905162461bcd60e51b815261079a9190600401612df4565b50565b60008060006106c784612003565b611739610a15565b6001600160a01b0316336001600160a01b031614611795576040805162461bcd60e51b815260206004820152601460248201527337b7363c9030b2323932b9b9903ab83230ba32b960611b604482015290519081900360640190fd5b6117ce6117c983836040518060400160405280600e81526020016d20b2323932b9b9aab83230ba32b960911b8152506122a9565b6123d6565b6117d882826123fa565b5050565b60008061099d83611ec3565b6117f0612655565b60025482108015611831575060006001600160a01b03166002838154811061181457fe5b60009182526020822060059091020101546001600160a01b031614155b604051806040016040528060188152602001600080516020612f4b833981519152815250906118735760405162461bcd60e51b815260040161079a9190612df4565b506002828154811061188157fe5b600091825260209091206040805160a0810191829052926005908102909201919082845b81546001600160a01b031681526001909101906020018083116118a55750505050509050919050565b606060006118da611c89565b80519092509050806001600160401b03811180156118f757600080fd5b5060405190808252806020026020018201604052801561192b57816020015b60608152602001906001900390816119165790505b5092505b80156119e0578060019003905081818151811061194857fe5b60200260200101516001600160a01b03166395d89b416040518163ffffffff1660e01b815260040160006040518083038186803b15801561198857600080fd5b505afa15801561199c573d6000803e3d6000fd5b505050506040513d6000823e601f3d908101601f191682016040526119c49190810190612a40565b8382815181106119d057fe5b602002602001018190525061192f565b505090565b60006106b382611ec3565b600054600160a81b900460ff1681565b6060806060611a0d611c89565b81519194509150806001600160401b0381118015611a2a57600080fd5b50604051908082528060200260200182016040528015611a5e57816020015b6060815260200190600190039081611a495790505b5092505b8015611b135780600190039050818181518110611a7b57fe5b60200260200101516001600160a01b03166395d89b416040518163ffffffff1660e01b815260040160006040518083038186803b158015611abb57600080fd5b505afa158015611acf573d6000803e3d6000fd5b505050506040513d6000823e601f3d908101601f19168201604052611af79190810190612a40565b838281518110611b0357fe5b6020026020010181905250611a62565b50509091565b60006106b382612234565b611b2c6121d3565b600054600160a81b900460ff1615611b8b576040805162461bcd60e51b815260206004820152601a60248201527f616c726561647920696e2070726f64756374696f6e206d6f6465000000000000604482015290519081900360640190fd5b60008054600161ff0160a01b031916600160a81b1790556040805173183faff6997c98a812a3b98748fc80241d08f312815290517f83af113638b5422f9e977cebc0aaf0eaf2188eb9a8baae7f9d46c42b33a1560c9181900360200190a1565b600054600160b01b900460ff1680611c0d5750600054600160a81b900460ff16155b15611c7e57611c1a61244c565b6000611c24610a15565b6001600160a01b031614611c4a5760405162461bcd60e51b815260040161079a90612e07565b6001600160a01b038116611c705760405162461bcd60e51b815260040161079a90612e34565b611c79816123d6565b611720565b611720600036612481565b60025460609081906000816001600160401b0381118015611ca957600080fd5b50604051908082528060200260200182016040528015611cd3578160200160208202803683370190505b5090506000826001600160401b0381118015611cee57600080fd5b50604051908082528060200260200182016040528015611d18578160200160208202803683370190505b50905060008060005b85811015611db457600060028281548110611d3857fe5b60009182526020822060059091020101546001600160a01b03908116915084168114611dab5781868481518110611d6b57fe5b60200260200101818152505080858481518110611d8457fe5b60200260200101906001600160a01b031690816001600160a01b0316815250508260010192505b50600101611d21565b50806001600160401b0381118015611dcb57600080fd5b50604051908082528060200260200182016040528015611df5578160200160208202803683370190505b509650806001600160401b0381118015611e0e57600080fd5b50604051908082528060200260200182016040528015611e38578160200160208202803683370190505b5095505b8015611eba5780600190039050838181518110611e5557fe5b6020026020010151878281518110611e6957fe5b602002602001018181525050828181518110611e8157fe5b6020026020010151868281518110611e9557fe5b60200260200101906001600160a01b031690816001600160a01b031681525050611e3c565b50505050509091565b6002546040805180820190915260188152600080516020612f4b83398151915260208201526000918310611f0a5760405162461bcd60e51b815260040161079a9190612df4565b50600060028381548110611f1a57fe5b60009182526020822060059091020101546001600160a01b03169050806106b35760408051808201825260188152600080516020612f4b8339815191526020820152905162461bcd60e51b815261079a9190600401612df4565b60045b80156117d85760028281548110611f8a57fe5b90600052602060002090600502016001820360058110611fa657fe5b0154600280546001600160a01b039092169184908110611fc257fe5b90600052602060002090600502018260058110611fdb57fe5b0180546001600160a01b0319166001600160a01b039290921691909117905560001901611f77565b60008061200f83612234565b90506002818154811061201e57fe5b60009182526020822060059091020101546001600160a01b03169392505050565b8051606090806001600160401b038111801561205a57600080fd5b5060405190808252806020026020018201604052801561209457816020015b612081612673565b8152602001906001900390816120795790505b50915060005b818110156121ae578481815181106120ae57fe5b60200260200101518382815181106120c257fe5b602002602001015160000181815250508381815181106120de57fe5b60200260200101516001600160a01b03166365f5cd866040518163ffffffff1660e01b815260040160606040518083038186803b15801561211e57600080fd5b505afa158015612132573d6000803e3d6000fd5b505050506040513d601f19601f820116820180604052508101906121569190612ae4565b85848151811061216257fe5b602002602001015160200186858151811061217957fe5b602002602001015160600187868151811061219057fe5b6020908102919091010151604001929092529190525260010161209a565b505092915050565b3d604051818101604052816000823e82156121cf578181f35b8181fd5b6121db610a5c565b6001600160a01b0316336001600160a01b031614612232576040805162461bcd60e51b815260206004820152600f60248201526e6f6e6c7920676f7665726e616e636560881b604482015290519081900360640190fd5b565b6000806003836040516122479190612c02565b908152602001604051809103902054905060008111604051806040016040528060188152602001600080516020612f4b8339815191528152509061229e5760405162461bcd60e51b815260040161079a9190612df4565b506000190192915050565b600080826040516020018080602001828103825283818151815260200191508051906020019080838360005b838110156122ed5781810151838201526020016122d5565b50505050905090810190601f16801561231a5780820380516001836020036101000a031916815260200191505b50925050506040516020818303038152906040528051906020012090506000805b86518110156123825786818151811061235057fe5b602002602001015183141561237a5785818151811061236b57fe5b60200260200101519150612382565b60010161233b565b506001600160a01b0381166123cd576040805162461bcd60e51b815260206004820152600c60248201526b61646472657373207a65726f60a01b604482015290519081900360640190fd5b95945050505050565b7f714f205b2abd25bef1d06a1af944e38c113fe6160375c4e1d6d5cf28848e771955565b61242882826040518060400160405280600b81526020016a233a39b7a6b0b730b3b2b960a91b8152506122a9565b600480546001600160a01b0319166001600160a01b03929092169190911790555050565b600054600160b01b900460ff16156124795733301461246757fe5b6000805460ff60b01b19169055612232565b6122326121d3565b6124896121d3565b600082359050600073183faff6997c98a812a3b98748fc80241d08f3126001600160a01b0316636221a54b6040518163ffffffff1660e01b815260040160206040518083038186803b1580156124de57600080fd5b505afa1580156124f2573d6000803e3d6000fd5b505050506040513d602081101561250857600080fd5b505160408051808201825242830180825282516020601f89018190048102820181019094528781529394509290918281019190889088908190840183828082843760009201829052509390945250506001600160e01b0319861681526001602081815260409092208451815584830151805191945061258c9392850192019061269b565b509050507fed948300a3694aa01d4a6b258bfd664350193d770c0b51f8387277f6d83ea3b68382878760405180856001600160e01b0319168152602001848152602001806020018281038252848482818152602001925080828437600083820152604051601f909101601f191690920182900397509095505050505050a15050505050565b50805460018160011615610100020316600290046000825580601f106126375750611720565b601f0160209004906000526020600020908101906117209190612727565b6040518060a001604052806005906020820280368337509192915050565b6040518060800160405280600081526020016000815260200160008152602001600081525090565b828054600181600116156101000203166002900490600052602060002090601f0160209004810192826126d15760008555612717565b82601f106126ea57805160ff1916838001178555612717565b82800160010185558215612717579182015b828111156127175782518255916020019190600101906126fc565b50612723929150612727565b5090565b5b808211156127235760008155600101612728565b600082601f83011261274c578081fd5b8135602061276161275c83612ecb565b612ea8565b828152818101908583018385028701840188101561277d578586fd5b855b858110156127a457813561279281612f35565b8452928401929084019060010161277f565b5090979650505050505050565b600082601f8301126127c1578081fd5b81356127cf61275c82612ee8565b8181528460208386010111156127e3578283fd5b816020850160208301379081016020019190915292915050565b60006020828403121561280e578081fd5b813561100781612f35565b6000806040838503121561282b578081fd5b82356001600160401b0380821115612841578283fd5b818501915085601f830112612854578283fd5b8135602061286461275c83612ecb565b82815281810190858301838502870184018b1015612880578788fd5b8796505b848710156128a2578035835260019690960195918301918301612884565b50965050860135925050808211156128b8578283fd5b506128c58582860161273c565b9150509250929050565b600060208083850312156128e1578182fd5b82356001600160401b038111156128f6578283fd5b8301601f81018513612906578283fd5b803561291461275c82612ecb565b81815283810190838501865b84811015612949576129378a8884358901016127b1565b84529286019290860190600101612920565b509098975050505050505050565b60006020808385031215612969578182fd5b82356001600160401b0381111561297e578283fd5b8301601f8101851361298e578283fd5b803561299c61275c82612ecb565b81815283810190838501858402850186018910156129b8578687fd5b8694505b838510156129da5780358352600194909401939185019185016129bc565b50979650505050505050565b6000602082840312156129f7578081fd5b81356001600160e01b031981168114611007578182fd5b600060208284031215612a1f578081fd5b81356001600160401b03811115612a34578182fd5b611321848285016127b1565b600060208284031215612a51578081fd5b81516001600160401b03811115612a66578182fd5b8201601f81018413612a76578182fd5b8051612a8461275c82612ee8565b818152856020838501011115612a98578384fd5b6123cd826020830160208601612f09565b600060208284031215612aba578081fd5b5035919050565b60008060408385031215612ad3578182fd5b505080516020909101519092909150565b600080600060608486031215612af8578081fd5b8351925060208401519150604084015190509250925092565b6000815180845260208085019450808401835b83811015612b495781516001600160a01b031687529582019590820190600101612b24565b509495945050505050565b6000815180845260208085018081965082840281019150828601855b85811015612b9a578284038952612b88848351612bd6565b98850198935090840190600101612b70565b5091979650505050505050565b6000815180845260208085019450808401835b83811015612b4957815187529582019590820190600101612bba565b60008151808452612bee816020860160208601612f09565b601f01601f19169290920160200192915050565b60008251612c14818460208701612f09565b9190910192915050565b6001600160a01b0391909116815260200190565b6020808252825182820181905260009190848201906040850190845b81811015612c735783516001600160a01b031683529284019291840191600101612c4e565b50909695505050505050565b60a08101818360005b6005811015612cb05781516001600160a01b0316835260209283019290910190600101612c88565b50505092915050565b6000602082526110076020830184612b11565b6000602082526110076020830184612b54565b600060408252612cf26040830185612b54565b82810360208401526123cd8185612b11565b602080825282518282018190526000919060409081850190868401855b82811015612b9a57815180518552868101518786015285810151868601526060908101519085015260809093019290850190600101612d21565b6000602082526110076020830184612ba7565b600060408252612cf26040830185612ba7565b600060408252612d946040830185612ba7565b82810360208401526123cd8185612b54565b600060608252612db96060830186612ba7565b8281036020840152612dcb8186612b54565b90508281036040840152612ddf8185612b11565b9695505050505050565b901515815260200190565b6000602082526110076020830184612bd6565b602080825260139082015272185b1c9958591e481a5b9a5d1a585b1a5e9959606a1b604082015260600190565b6020808252601490820152735f6164647265737355706461746572207a65726f60601b604082015260600190565b90815260200190565b6000838252604060208301526113216040830184612bd6565b918252602082015260400190565b9283526020830191909152604082015260600190565b6040518181016001600160401b0381118282101715612ec357fe5b604052919050565b60006001600160401b03821115612ede57fe5b5060209081020190565b60006001600160401b03821115612efb57fe5b50601f01601f191660200190565b60005b83811015612f24578181015183820152602001612f0c565b83811115610e5a5750506000910152565b6001600160a01b038116811461172057600080fdfe4654534f20696e646578206e6f7420737570706f727465640000000000000000a2646970667358221220140380afd31dde92f914f43b02db8f63077049666f36582cd758871e1f8646f264736f6c63430007060033",
  "linkReferences": {},
  "deployedLinkReferences": {}
}