{
  "_format": "hh-sol-artifact-1",
  "contractName": "MockPriceSubmitter",
  "sourceName": "contracts/ftso/priceProviderMockContracts/PriceProviderMockContracts.sol",
  "abi": [
    {
      "inputs": [],
      "stateMutability": "nonpayable",
      "type": "constructor"
    },
    {
      "anonymous": false,
      "inputs": [
        {
          "indexed": true,
          "internalType": "address",
          "name": "submitter",
          "type": "address"
        },
        {
          "indexed": true,
          "internalType": "uint256",
          "name": "epochId",
          "type": "uint256"
        },
        {
          "indexed": false,
          "internalType": "contract IFtsoGenesis[]",
          "name": "ftsos",
          "type": "address[]"
        },
        {
          "indexed": false,
          "internalType": "bytes32[]",
          "name": "hashes",
          "type": "bytes32[]"
        },
        {
          "indexed": false,
          "internalType": "uint256",
          "name": "timestamp",
          "type": "uint256"
        }
      ],
      "name": "PriceHashesSubmitted",
      "type": "event"
    },
    {
      "anonymous": false,
      "inputs": [
        {
          "indexed": true,
          "internalType": "address",
          "name": "voter",
          "type": "address"
        },
        {
          "indexed": true,
          "internalType": "uint256",
          "name": "epochId",
          "type": "uint256"
        },
        {
          "indexed": false,
          "internalType": "contract IFtsoGenesis[]",
          "name": "ftsos",
          "type": "address[]"
        },
        {
          "indexed": false,
          "internalType": "uint256[]",
          "name": "prices",
          "type": "uint256[]"
        },
        {
          "indexed": false,
          "internalType": "uint256[]",
          "name": "randoms",
          "type": "uint256[]"
        },
        {
          "indexed": false,
          "internalType": "uint256",
          "name": "timestamp",
          "type": "uint256"
        }
      ],
      "name": "PricesRevealed",
      "type": "event"
    },
    {
      "inputs": [],
      "name": "getFtsoManager",
      "outputs": [
        {
          "internalType": "address",
          "name": "",
          "type": "address"
        }
      ],
      "stateMutability": "pure",
      "type": "function"
    },
    {
      "inputs": [],
      "name": "getFtsoRegistry",
      "outputs": [
        {
          "internalType": "contract IFtsoRegistryGenesis",
          "name": "",
          "type": "address"
        }
      ],
      "stateMutability": "view",
      "type": "function"
    },
    {
      "inputs": [],
      "name": "getVoterWhitelister",
      "outputs": [
        {
          "internalType": "address",
          "name": "",
          "type": "address"
        }
      ],
      "stateMutability": "view",
      "type": "function"
    },
    {
      "inputs": [
        {
          "internalType": "uint256",
          "name": "_epochId",
          "type": "uint256"
        },
        {
          "internalType": "uint256[]",
          "name": "_ftsoIndices",
          "type": "uint256[]"
        },
        {
          "internalType": "uint256[]",
          "name": "_prices",
          "type": "uint256[]"
        },
        {
          "internalType": "uint256[]",
          "name": "_randoms",
          "type": "uint256[]"
        }
      ],
      "name": "revealPrices",
      "outputs": [],
      "stateMutability": "nonpayable",
      "type": "function"
    },
    {
      "inputs": [
        {
          "internalType": "uint256",
          "name": "_epochId",
          "type": "uint256"
        },
        {
          "internalType": "uint256[]",
          "name": "_ftsoIndices",
          "type": "uint256[]"
        },
        {
          "internalType": "bytes32[]",
          "name": "_hashes",
          "type": "bytes32[]"
        }
      ],
      "name": "submitPriceHashes",
      "outputs": [],
      "stateMutability": "nonpayable",
      "type": "function"
    },
    {
      "inputs": [
        {
          "internalType": "address",
          "name": "_voter",
          "type": "address"
        }
      ],
      "name": "voterWhitelistBitmap",
      "outputs": [
        {
          "internalType": "uint256",
          "name": "",
          "type": "uint256"
        }
      ],
      "stateMutability": "view",
      "type": "function"
    },
    {
      "inputs": [
        {
          "internalType": "address",
          "name": "_voter",
          "type": "address"
        },
        {
          "internalType": "uint256",
          "name": "_ftsoIndex",
          "type": "uint256"
        }
      ],
      "name": "voterWhitelisted",
      "outputs": [],
      "stateMutability": "nonpayable",
      "type": "function"
    },
    {
      "inputs": [
        {
          "internalType": "address[]",
          "name": "_removedVoters",
          "type": "address[]"
        },
        {
          "internalType": "uint256",
          "name": "_ftsoIndex",
          "type": "uint256"
        }
      ],
      "name": "votersRemovedFromWhitelist",
      "outputs": [],
      "stateMutability": "nonpayable",
      "type": "function"
    }
  ],
  "bytecode": "0x60806040523480156200001157600080fd5b503060405162000021906200043b565b6200002d9190620004cc565b604051809103906000f0801580156200004a573d6000803e3d6000fd5b50600080546001600160a01b0319166001600160a01b039290921691909117905560405130906200007b9062000449565b620000879190620004cc565b604051809103906000f080158015620000a4573d6000803e3d6000fd5b50600180546001600160a01b0319166001600160a01b0392831617908190556000546040516317f1580560e21b815291831692635fc5601492620000ef9290911690600401620004cc565b600060405180830381600087803b1580156200010a57600080fd5b505af11580156200011f573d6000803e3d6000fd5b50506040805161018081018252600361014082018181526229a3a160e91b6101608401528252825180840184528181526205852560ec1b6020828101919091528084019190915283518085018552828152624c544360e81b81830152838501528351808501855282815262584c4d60e81b818301526060840152835180850185528281526258444760e81b818301526080840152835180850185528281526241444160e81b8183015260a0840152835180850185526004815263414c474f60e01b8183015260c0840152835180850185528281526208486960eb1b8183015260e084015283518085018552828152622223a160e91b8183015261010084015283518085019094529083526242544360e81b908301526101208101919091529150600090505b600a811015620004335760008282600a81106200025d57fe5b6020020151905060008130607842036078601e6040516200027e9062000457565b6200028e959493929190620004fc565b604051809103906000f080158015620002ab573d6000803e3d6000fd5b50600054604051630998fc6d60e21b81529192506001600160a01b031690632663f1b490620002df908490600401620004cc565b602060405180830381600087803b158015620002fa57600080fd5b505af11580156200030f573d6000803e3d6000fd5b505050506040513d601f19601f8201168201806040525081019062000335919062000465565b5060008054604051630e848da360e41b81526001600160a01b039091169063e848da309062000369908690600401620004e0565b60206040518083038186803b1580156200038257600080fd5b505afa15801562000397573d6000803e3d6000fd5b505050506040513d601f19601f82011682018060405250810190620003bd919062000465565b600154604051630d15c16960e21b81529192506001600160a01b03169063345705a490620003f09084906004016200053e565b600060405180830381600087803b1580156200040b57600080fd5b505af115801562000420573d6000803e3d6000fd5b5050505050505080600101905062000244565b505062000547565b61249980620013c383390190565b610c75806200385c83390190565b6115c780620044d183390190565b60006020828403121562000477578081fd5b5051919050565b60008151808452815b81811015620004a55760208185018101518683018201520162000487565b81811115620004b75782602083870101525b50601f01601f19169290920160200192915050565b6001600160a01b0391909116815260200190565b600060208252620004f560208301846200047e565b9392505050565b600060a082526200051160a08301886200047e565b6001600160a01b039690961660208301525060408101939093526060830191909152608090910152919050565b90815260200190565b610e6c80620005576000396000f3fe608060405234801561001057600080fd5b50600436106100885760003560e01c80638c9d28b61161005b5780638c9d28b6146100f35780639d986f91146100fb578063b39c68581461010e578063c5adc5391461011657610088565b806360848b441461008d57806371e1fad9146100a257806376794efb146100c05780637ac420ad146100d3575b600080fd5b6100a061009b366004610b18565b610129565b005b6100aa610486565b6040516100b79190610c18565b60405180910390f35b6100a06100ce366004610907565b610495565b6100e66100e13660046108b9565b610548565b6040516100b79190610dd3565b6100aa610563565b6100a06101093660046108dc565b610572565b6100aa6105f4565b6100a0610124366004610a57565b61060e565b8251825160408051808201909152601a815279082e4e4c2f240d8cadccee8d0e640c8de40dcdee840dac2e8c6d60331b60208201529082146101875760405162461bcd60e51b815260040161017e9190610d51565b60405180910390fd5b50815181146040518060400160405280601a815260200179082e4e4c2f240d8cadccee8d0e640c8de40dcdee840dac2e8c6d60331b815250906101dd5760405162461bcd60e51b815260040161017e9190610d51565b50600080546040516313968ea760e31b81526001600160a01b0390911690639cb475389061020f908890600401610d3e565b60006040518083038186803b15801561022757600080fd5b505afa15801561023b573d6000803e3d6000fd5b505050506040513d6000823e601f3d908101601f1916820160405261026391908101906109a6565b33600090815260026020526040812054919250600019905b8481101561043357600088828151811061029157fe5b60200260200101519050806001901b8416600014156102e757604080518082018252600f81526e139bdd081dda1a5d195b1a5cdd1959608a1b6020820152905162461bcd60e51b815261017e9190600401610d51565b600019831415610387578482815181106102fd57fe5b60200260200101516001600160a01b031663f72cab28338c6040518363ffffffff1660e01b8152600401610332929190610c2c565b602060405180830381600087803b15801561034c57600080fd5b505af1158015610360573d6000803e3d6000fd5b505050506040513d601f19601f820116820180604052508101906103849190610a3f565b92505b84828151811061039357fe5b60200260200101516001600160a01b03166355f7b69b338c8b86815181106103b757fe5b60200260200101518b87815181106103cb57fe5b6020026020010151886040518663ffffffff1660e01b81526004016103f4959493929190610c66565b600060405180830381600087803b15801561040e57600080fd5b505af1158015610422573d6000803e3d6000fd5b50506001909301925061027b915050565b5087336001600160a01b03167fa32444a31df2f9a116229eec3193d223a6bad89f7670ff17b8e5c7014a377da1858989426040516104749493929190610cf3565b60405180910390a35050505050505050565b6001546001600160a01b031690565b600154604080518082019091526016815275566f7465722077686974656c6973746572206f6e6c7960501b6020820152906001600160a01b031633146104ee5760405162461bcd60e51b815260040161017e9190610d51565b5060005b825181101561054357816001901b196002600085848151811061051157fe5b6020908102919091018101516001600160a01b03168252810191909152604001600020805490911690556001016104f2565b505050565b6001600160a01b031660009081526002602052604090205490565b6000546001600160a01b031690565b600154604080518082019091526016815275566f7465722077686974656c6973746572206f6e6c7960501b6020820152906001600160a01b031633146105cb5760405162461bcd60e51b815260040161017e9190610d51565b506001600160a01b0390911660009081526002602052604090208054600190921b919091179055565b600060405162461bcd60e51b815260040161017e90610da4565b8151815160408051808201909152601a815279082e4e4c2f240d8cadccee8d0e640c8de40dcdee840dac2e8c6d60331b60208201529082146106635760405162461bcd60e51b815260040161017e9190610d51565b50600080546040516313968ea760e31b81526001600160a01b0390911690639cb4753890610695908790600401610d3e565b60006040518083038186803b1580156106ad57600080fd5b505afa1580156106c1573d6000803e3d6000fd5b505050506040513d6000823e601f3d908101601f191682016040526106e991908101906109a6565b336000908152600260205260408120549192505b838110156107fe57600086828151811061071357fe5b60200260200101519050806001901b83166000141561076957604080518082018252600f81526e139bdd081dda1a5d195b1a5cdd1959608a1b6020820152905162461bcd60e51b815261017e9190600401610d51565b83828151811061077557fe5b60200260200101516001600160a01b03166327bd2ad5338a89868151811061079957fe5b60200260200101516040518463ffffffff1660e01b81526004016107bf93929190610c45565b600060405180830381600087803b1580156107d957600080fd5b505af11580156107ed573d6000803e3d6000fd5b5050600190930192506106fd915050565b5085336001600160a01b03167f90c022ade239639b1f8c4ebb8a76df5e03a7129df46cf9bcdae3c1450ea3543484874260405161083d93929190610c94565b60405180910390a3505050505050565b600082601f83011261085d578081fd5b8135602061087261086d83610e00565b610ddc565b828152818101908583018385028701840188101561088e578586fd5b855b858110156108ac57813584529284019290840190600101610890565b5090979650505050505050565b6000602082840312156108ca578081fd5b81356108d581610e1e565b9392505050565b600080604083850312156108ee578081fd5b82356108f981610e1e565b946020939093013593505050565b60008060408385031215610919578182fd5b823567ffffffffffffffff81111561092f578283fd5b8301601f8101851361093f578283fd5b8035602061094f61086d83610e00565b82815281810190848301838502860184018a101561096b578788fd5b8795505b8486101561099657803561098281610e1e565b83526001959095019491830191830161096f565b5098969091013596505050505050565b600060208083850312156109b8578182fd5b825167ffffffffffffffff8111156109ce578283fd5b8301601f810185136109de578283fd5b80516109ec61086d82610e00565b8181528381019083850185840285018601891015610a08578687fd5b8694505b83851015610a33578051610a1f81610e1e565b835260019490940193918501918501610a0c565b50979650505050505050565b600060208284031215610a50578081fd5b5051919050565b600080600060608486031215610a6b578081fd5b8335925060208085013567ffffffffffffffff80821115610a8a578384fd5b610a968883890161084d565b94506040870135915080821115610aab578384fd5b508501601f81018713610abc578283fd5b8035610aca61086d82610e00565b81815283810190838501858402850186018b1015610ae6578687fd5b8694505b83851015610b08578035835260019490940193918501918501610aea565b5080955050505050509250925092565b60008060008060808587031215610b2d578081fd5b84359350602085013567ffffffffffffffff80821115610b4b578283fd5b610b578883890161084d565b94506040870135915080821115610b6c578283fd5b610b788883890161084d565b93506060870135915080821115610b8d578283fd5b50610b9a8782880161084d565b91505092959194509250565b6000815180845260208085019450808401835b83811015610bde5781516001600160a01b031687529582019590820190600101610bb9565b509495945050505050565b6000815180845260208085019450808401835b83811015610bde57815187529582019590820190600101610bfc565b6001600160a01b0391909116815260200190565b6001600160a01b03929092168252602082015260400190565b6001600160a01b039390931683526020830191909152604082015260600190565b6001600160a01b03959095168552602085019390935260408401919091526060830152608082015260a00190565b600060608252610ca76060830186610ba6565b828103602084810191909152855180835286820192820190845b81811015610cdd57845183529383019391830191600101610cc1565b5050809350505050826040830152949350505050565b600060808252610d066080830187610ba6565b8281036020840152610d188187610be9565b90508281036040840152610d2c8186610be9565b91505082606083015295945050505050565b6000602082526108d56020830184610be9565b6000602080835283518082850152825b81811015610d7d57858101830151858201604001528201610d61565b81811115610d8e5783604083870101525b50601f01601f1916929092016040019392505050565b602080825260159082015274139bdd081a5b88191d5b5b5e4818dbdb9d1c9858dd605a1b604082015260600190565b90815260200190565b60405181810167ffffffffffffffff81118282101715610df857fe5b604052919050565b600067ffffffffffffffff821115610e1457fe5b5060209081020190565b6001600160a01b0381168114610e3357600080fd5b5056fea2646970667358221220990f346ce0933e35f40b6d912a6d6a98a0316c86451f42219264a6c71637944b64736f6c6343000706003360806040523480156200001157600080fd5b50604051620024993803806200249983398101604081905262000034916200018d565b80806001600160a01b0381161562000051576200005181620000a9565b506001600160a01b038116620000a1576040805162461bcd60e51b815260206004820152601060248201526f5f676f7665726e616e6365207a65726f60801b604482015290519081900360640190fd5b5050620001bd565b600154600160a01b900460ff161562000109576040805162461bcd60e51b815260206004820152601460248201527f696e697469616c6973656420213d2066616c7365000000000000000000000000604482015290519081900360640190fd5b6001805460ff60a01b1916600160a01b179055600054604080516001600160a01b039283168152918316602083015280517f434a2db650703b36c824e745330d6397cdaa9ee2cc891a4938ae853e1c50b68d9281900390910190a1600080546001600160a01b039092166001600160a01b0319928316179055600180549091169055565b6000602082840312156200019f578081fd5b81516001600160a01b0381168114620001b6578182fd5b9392505050565b6122cc80620001cd6000396000f3fe608060405234801561001057600080fd5b50600436106101cf5760003560e01c806379d5ea4b11610104578063c373a08e116100a2578063d38bfff411610071578063d38bfff4146103fe578063d75f6d8114610411578063e68f283b14610424578063e848da301461043a576101cf565b8063c373a08e146103a3578063c55d0f56146103b6578063c71a1b20146103c9578063ce1c0e4d146103e9576101cf565b80639d6a890f116100de5780639d6a890f14610362578063a40060ba14610375578063a670ff871461037d578063a69afdc614610390576101cf565b806379d5ea4b1461031c57806397da6af41461032f5780639cb4753814610342576101cf565b806358f9296f1161017157806360f7ac971161014b57806360f7ac97146102d55780636ba31fa1146102dd5780637687542c146102f0578063798aac5b14610307576101cf565b806358f9296f146102a15780635aa6e675146102b65780635d36b190146102cb576101cf565b8063257cbd3a116101ad578063257cbd3a146102295780632663f1b41461024b5780632bcdd6ab1461026b57806342a0f24314610280576101cf565b806306a2ba29146101d45780630cf48497146101f3578063136d3f6414610209575b600080fd5b6101dc61044d565b6040516101ea929190612115565b60405180910390f35b6101fb610461565b6040516101ea929190612086565b61021c610217366004611e50565b610577565b6040516101ea9190612190565b61023c610237366004611e50565b6105fc565b6040516101ea939291906121ba565b61025e610259366004611c79565b610687565b6040516101ea91906121a3565b61027361080a565b6040516101ea9190612060565b61029361028e366004611dac565b6108c6565b6040516101ea9291906121ac565b6102a961094a565b6040516101ea91906120ab565b6102be61096c565b6040516101ea9190611fc5565b6102d361097b565b005b6102be610a3d565b6102a96102eb366004611d1d565b610a4c565b6102f8610afa565b6040516101ea9392919061214d565b61030f610c13565b6040516101ea9190612102565b6102a961032a366004611c95565b610c23565b6102be61033d366004611dac565b610d6f565b610355610350366004611d1d565b610d7a565b6040516101ea9190611fd9565b6102d3610370366004611c79565b610f07565b610273610fe1565b6102d361038b366004611c79565b610feb565b61023c61039e366004611dac565b61118f565b6102d36103b1366004611c79565b61119d565b6102936103c4366004611e50565b611242565b6103dc6103d7366004611e50565b61124e565b6040516101ea9190612026565b6103f1611334565b6040516101ea9190612073565b6102d361040c366004611c79565b61144b565b6102be61041f366004611e50565b61150d565b61042c611518565b6040516101ea929190612128565b61025e610448366004611dac565b611631565b60608061045861163c565b90939092509050565b60608061046c61163c565b80519092509050806001600160401b038111801561048957600080fd5b506040519080825280602002602001820160405280156104bd57816020015b60608152602001906001900390816104a85790505b5092505b801561057257806001900390508181815181106104da57fe5b60200260200101516001600160a01b03166395d89b416040518163ffffffff1660e01b815260040160006040518083038186803b15801561051a57600080fd5b505afa15801561052e573d6000803e3d6000fd5b505050506040513d6000823e601f3d908101601f191682016040526105569190810190611dde565b83828151811061056257fe5b60200260200101819052506104c1565b509091565b606061058282611876565b6001600160a01b03166395d89b416040518163ffffffff1660e01b815260040160006040518083038186803b1580156105ba57600080fd5b505afa1580156105ce573d6000803e3d6000fd5b505050506040513d6000823e601f3d908101601f191682016040526105f69190810190611dde565b92915050565b600080600061060a84611876565b6001600160a01b03166365f5cd866040518163ffffffff1660e01b815260040160606040518083038186803b15801561064257600080fd5b505afa158015610656573d6000803e3d6000fd5b505050506040513d601f19601f8201168201806040525081019061067a9190611e8b565b9250925092509193909250565b600080546001600160a01b031633146106d9576040805162461bcd60e51b815260206004820152600f60248201526e6f6e6c7920676f7665726e616e636560881b604482015290519081900360640190fd5b6000826001600160a01b03166395d89b416040518163ffffffff1660e01b815260040160006040518083038186803b15801561071457600080fd5b505afa158015610728573d6000803e3d6000fd5b505050506040513d6000823e601f3d908101601f191682016040526107509190810190611dde565b90506003816040516107629190611fa9565b908152602001604051809103902054915081600014156107b9576002805490509150816001016003826040516107989190611fa9565b908152604051908190036020019020556002805460010181556000526107c8565b6001820391506107c882611927565b82600283815481106107d657fe5b6000918252602082206005909102010180546001600160a01b0319166001600160a01b039290921691909117905550919050565b6002546060906000816001600160401b038111801561082857600080fd5b50604051908082528060200260200182016040528015610852578160200160208202803683370190505b5090505b81156108c057816001900391506002828154811061087057fe5b600091825260208220600590910201015481516001600160a01b039091169082908490811061089b57fe5b60200260200101906001600160a01b031690816001600160a01b031681525050610856565b91505090565b6000806108d2836119ba565b6001600160a01b031663eb91d37e6040518163ffffffff1660e01b8152600401604080518083038186803b15801561090957600080fd5b505afa15801561091d573d6000803e3d6000fd5b505050506040513d601f19601f820116820180604052508101906109419190611e68565b91509150915091565b606060008061095761163c565b9150915061096582826119f6565b9250505090565b6000546001600160a01b031681565b6001546001600160a01b031633146109ca576040805162461bcd60e51b815260206004820152600d60248201526c1b9bdd0818db185a5b585a5b9d609a1b604482015290519081900360640190fd5b600054600154604080516001600160a01b03938416815292909116602083015280517f434a2db650703b36c824e745330d6397cdaa9ee2cc891a4938ae853e1c50b68d9281900390910190a160018054600080546001600160a01b03199081166001600160a01b03841617909155169055565b6001546001600160a01b031681565b6060600082516001600160401b0381118015610a6757600080fd5b50604051908082528060200260200182016040528015610a91578160200160208202803683370190505b50905060005b8351811015610ae857610abc848281518110610aaf57fe5b6020026020010151611876565b828281518110610ac857fe5b6001600160a01b0390921660209283029190910190910152600101610a97565b50610af383826119f6565b9392505050565b6060806060610b0761163c565b81519194509150806001600160401b0381118015610b2457600080fd5b50604051908082528060200260200182016040528015610b5857816020015b6060815260200190600190039081610b435790505b5092505b8015610c0d5780600190039050818181518110610b7557fe5b60200260200101516001600160a01b03166395d89b416040518163ffffffff1660e01b815260040160006040518083038186803b158015610bb557600080fd5b505afa158015610bc9573d6000803e3d6000fd5b505050506040513d6000823e601f3d908101601f19168201604052610bf19190810190611dde565b838281518110610bfd57fe5b6020026020010181905250610b5c565b50909192565b6060610c1d61163c565b50919050565b6060600082516001600160401b0381118015610c3e57600080fd5b50604051908082528060200260200182016040528015610c68578160200160208202803683370190505b509050600083516001600160401b0381118015610c8457600080fd5b50604051908082528060200260200182016040528015610cae578160200160208202803683370190505b50905060005b8451811015610d5c57610cd9858281518110610ccc57fe5b6020026020010151611b6d565b838281518110610ce557fe5b6020026020010181815250506002838281518110610cff57fe5b602002602001015181548110610d1157fe5b600091825260208220600590910201015482516001600160a01b0390911690839083908110610d3c57fe5b6001600160a01b0390921660209283029190910190910152600101610cb4565b50610d6782826119f6565b949350505050565b60006105f6826119ba565b600254815160609190806001600160401b0381118015610d9957600080fd5b50604051908082528060200260200182016040528015610dc3578160200160208202803683370190505b5092505b8015610f0057806001900390506000848281518110610de257fe5b6020026020010151905082811060405180604001604052806018815260200160008051602061227783398151915281525090610e3a5760405162461bcd60e51b8152600401610e319190612190565b60405180910390fd5b5060028181548110610e4857fe5b600091825260208220600590910201015484516001600160a01b0390911690859084908110610e7357fe5b60200260200101906001600160a01b031690816001600160a01b03168152505060006001600160a01b0316848381518110610eaa57fe5b60200260200101516001600160a01b03161415610efa57604080518082018252601881526000805160206122778339815191526020820152905162461bcd60e51b8152610e319190600401612190565b50610dc7565b5050919050565b600154600160a01b900460ff1615610f5d576040805162461bcd60e51b8152602060048201526014602482015273696e697469616c6973656420213d2066616c736560601b604482015290519081900360640190fd5b6001805460ff60a01b1916600160a01b179055600054604080516001600160a01b039283168152918316602083015280517f434a2db650703b36c824e745330d6397cdaa9ee2cc891a4938ae853e1c50b68d9281900390910190a1600080546001600160a01b039092166001600160a01b0319928316179055600180549091169055565b60606105f661163c565b6000546001600160a01b0316331461103c576040805162461bcd60e51b815260206004820152600f60248201526e6f6e6c7920676f7665726e616e636560881b604482015290519081900360640190fd5b6000816001600160a01b03166395d89b416040518163ffffffff1660e01b815260040160006040518083038186803b15801561107757600080fd5b505afa15801561108b573d6000803e3d6000fd5b505050506040513d6000823e601f3d908101601f191682016040526110b39190810190611dde565b905060006003826040516110c79190611fa9565b908152604051908190036020019020549050801561115357600019016110ec81611927565b6000600282815481106110fb57fe5b6000918252602082206005909102010180546001600160a01b0319166001600160a01b039290921691909117905560405160039061113a908490611fa9565b908152602001604051809103902060009055505061118c565b604080518082018252601881526000805160206122778339815191526020820152905162461bcd60e51b8152610e319190600401612190565b50565b600080600061060a846119ba565b6000546001600160a01b031633146111ee576040805162461bcd60e51b815260206004820152600f60248201526e6f6e6c7920676f7665726e616e636560881b604482015290519081900360640190fd5b600180546001600160a01b0383166001600160a01b0319909116811790915560408051918252517f1f95fb40be3a947982072902a887b521248d1d8931a39eb38f84f4d6fd758b699181900360200190a150565b6000806108d283611876565b611256611be2565b60025482108015611297575060006001600160a01b03166002838154811061127a57fe5b60009182526020822060059091020101546001600160a01b031614155b604051806040016040528060188152602001600080516020612277833981519152815250906112d95760405162461bcd60e51b8152600401610e319190612190565b50600282815481106112e757fe5b600091825260209091206040805160a0810191829052926005908102909201919082845b81546001600160a01b0316815260019091019060200180831161130b5750505050509050919050565b6060600061134061163c565b80519092509050806001600160401b038111801561135d57600080fd5b5060405190808252806020026020018201604052801561139157816020015b606081526020019060019003908161137c5790505b5092505b801561144657806001900390508181815181106113ae57fe5b60200260200101516001600160a01b03166395d89b416040518163ffffffff1660e01b815260040160006040518083038186803b1580156113ee57600080fd5b505afa158015611402573d6000803e3d6000fd5b505050506040513d6000823e601f3d908101601f1916820160405261142a9190810190611dde565b83828151811061143657fe5b6020026020010181905250611395565b505090565b6000546001600160a01b0316331461149c576040805162461bcd60e51b815260206004820152600f60248201526e6f6e6c7920676f7665726e616e636560881b604482015290519081900360640190fd5b600054604080516001600160a01b039283168152918316602083015280517f434a2db650703b36c824e745330d6397cdaa9ee2cc891a4938ae853e1c50b68d9281900390910190a1600080546001600160a01b039092166001600160a01b0319928316179055600180549091169055565b60006105f682611876565b606080606061152561163c565b81519194509150806001600160401b038111801561154257600080fd5b5060405190808252806020026020018201604052801561157657816020015b60608152602001906001900390816115615790505b5092505b801561162b578060019003905081818151811061159357fe5b60200260200101516001600160a01b03166395d89b416040518163ffffffff1660e01b815260040160006040518083038186803b1580156115d357600080fd5b505afa1580156115e7573d6000803e3d6000fd5b505050506040513d6000823e601f3d908101601f1916820160405261160f9190810190611dde565b83828151811061161b57fe5b602002602001018190525061157a565b50509091565b60006105f682611b6d565b60025460609081906000816001600160401b038111801561165c57600080fd5b50604051908082528060200260200182016040528015611686578160200160208202803683370190505b5090506000826001600160401b03811180156116a157600080fd5b506040519080825280602002602001820160405280156116cb578160200160208202803683370190505b50905060008060005b85811015611767576000600282815481106116eb57fe5b60009182526020822060059091020101546001600160a01b0390811691508416811461175e578186848151811061171e57fe5b6020026020010181815250508085848151811061173757fe5b60200260200101906001600160a01b031690816001600160a01b0316815250508260010192505b506001016116d4565b50806001600160401b038111801561177e57600080fd5b506040519080825280602002602001820160405280156117a8578160200160208202803683370190505b509650806001600160401b03811180156117c157600080fd5b506040519080825280602002602001820160405280156117eb578160200160208202803683370190505b5095505b801561186d578060019003905083818151811061180857fe5b602002602001015187828151811061181c57fe5b60200260200101818152505082818151811061183457fe5b602002602001015186828151811061184857fe5b60200260200101906001600160a01b031690816001600160a01b0316815250506117ef565b50505050509091565b6002546040805180820190915260188152600080516020612277833981519152602082015260009183106118bd5760405162461bcd60e51b8152600401610e319190612190565b506000600283815481106118cd57fe5b60009182526020822060059091020101546001600160a01b03169050806105f657604080518082018252601881526000805160206122778339815191526020820152905162461bcd60e51b8152610e319190600401612190565b60045b80156119b6576002828154811061193d57fe5b9060005260206000209060050201600182036005811061195957fe5b0154600280546001600160a01b03909216918490811061197557fe5b9060005260206000209060050201826005811061198e57fe5b0180546001600160a01b0319166001600160a01b03929092169190911790556000190161192a565b5050565b6000806119c683611b6d565b9050600281815481106119d557fe5b60009182526020822060059091020101546001600160a01b03169392505050565b8051606090806001600160401b0381118015611a1157600080fd5b50604051908082528060200260200182016040528015611a4b57816020015b611a38611c00565b815260200190600190039081611a305790505b50915060005b81811015611b6557848181518110611a6557fe5b6020026020010151838281518110611a7957fe5b60200260200101516000018181525050838181518110611a9557fe5b60200260200101516001600160a01b03166365f5cd866040518163ffffffff1660e01b815260040160606040518083038186803b158015611ad557600080fd5b505afa158015611ae9573d6000803e3d6000fd5b505050506040513d601f19601f82011682018060405250810190611b0d9190611e8b565b858481518110611b1957fe5b6020026020010151602001868581518110611b3057fe5b6020026020010151606001878681518110611b4757fe5b60209081029190910101516040019290925291905252600101611a51565b505092915050565b600080600383604051611b809190611fa9565b90815260200160405180910390205490506000811160405180604001604052806018815260200160008051602061227783398151915281525090611bd75760405162461bcd60e51b8152600401610e319190612190565b506000190192915050565b6040518060a001604052806005906020820280368337509192915050565b6040518060800160405280600081526020016000815260200160008152602001600081525090565b600082601f830112611c38578081fd5b8135611c4b611c4682612210565b6121d0565b818152846020838601011115611c5f578283fd5b816020850160208301379081016020019190915292915050565b600060208284031215611c8a578081fd5b8135610af381612261565b60006020808385031215611ca7578182fd5b82356001600160401b03811115611cbc578283fd5b8301601f81018513611ccc578283fd5b8035611cda611c46826121f3565b81815283810190838501865b84811015611d0f57611cfd8a888435890101611c28565b84529286019290860190600101611ce6565b509098975050505050505050565b60006020808385031215611d2f578182fd5b82356001600160401b03811115611d44578283fd5b8301601f81018513611d54578283fd5b8035611d62611c46826121f3565b8181528381019083850185840285018601891015611d7e578687fd5b8694505b83851015611da0578035835260019490940193918501918501611d82565b50979650505050505050565b600060208284031215611dbd578081fd5b81356001600160401b03811115611dd2578182fd5b610d6784828501611c28565b600060208284031215611def578081fd5b81516001600160401b03811115611e04578182fd5b8201601f81018413611e14578182fd5b8051611e22611c4682612210565b818152856020838501011115611e36578384fd5b611e47826020830160208601612231565b95945050505050565b600060208284031215611e61578081fd5b5035919050565b60008060408385031215611e7a578081fd5b505080516020909101519092909150565b600080600060608486031215611e9f578081fd5b8351925060208401519150604084015190509250925092565b6000815180845260208085019450808401835b83811015611ef05781516001600160a01b031687529582019590820190600101611ecb565b509495945050505050565b6000815180845260208085018081965082840281019150828601855b85811015611f41578284038952611f2f848351611f7d565b98850198935090840190600101611f17565b5091979650505050505050565b6000815180845260208085019450808401835b83811015611ef057815187529582019590820190600101611f61565b60008151808452611f95816020860160208601612231565b601f01601f19169290920160200192915050565b60008251611fbb818460208701612231565b9190910192915050565b6001600160a01b0391909116815260200190565b6020808252825182820181905260009190848201906040850190845b8181101561201a5783516001600160a01b031683529284019291840191600101611ff5565b50909695505050505050565b60a08101818360005b60058110156120575781516001600160a01b031683526020928301929091019060010161202f565b50505092915050565b600060208252610af36020830184611eb8565b600060208252610af36020830184611efb565b6000604082526120996040830185611efb565b8281036020840152611e478185611eb8565b602080825282518282018190526000919060409081850190868401855b82811015611f41578151805185528681015187860152858101518686015260609081015190850152608090930192908501906001016120c8565b600060208252610af36020830184611f4e565b6000604082526120996040830185611f4e565b60006040825261213b6040830185611f4e565b8281036020840152611e478185611efb565b6000606082526121606060830186611f4e565b82810360208401526121728186611efb565b905082810360408401526121868185611eb8565b9695505050505050565b600060208252610af36020830184611f7d565b90815260200190565b918252602082015260400190565b9283526020830191909152604082015260600190565b6040518181016001600160401b03811182821017156121eb57fe5b604052919050565b60006001600160401b0382111561220657fe5b5060209081020190565b60006001600160401b0382111561222357fe5b50601f01601f191660200190565b60005b8381101561224c578181015183820152602001612234565b8381111561225b576000848401525b50505050565b6001600160a01b038116811461118c57600080fdfe4654534f20696e646578206e6f7420737570706f727465640000000000000000a264697066735822122098822979c1567e3f5937ddf88bfaad2ab053d7ef515ec1d1a49e69b73ca25fa964736f6c634300070600336080604052600160005534801561001557600080fd5b50604051610c75380380610c7583398101604081905261003491610059565b600480546001600160a01b0319166001600160a01b0392909216919091179055610087565b60006020828403121561006a578081fd5b81516001600160a01b0381168114610080578182fd5b9392505050565b610bdf806100966000396000f3fe608060405234801561001057600080fd5b50600436106100935760003560e01c806347ed51b11161006657806347ed51b1146101095780635fc560141461011157806398dccfc214610124578063aa89dfd414610137578063b06cbaf71461014a57610093565b806309fcb40014610098578063345705a4146100c15780633de2cb1c146100d657806346538074146100e9575b600080fd5b6100ab6100a63660046108e3565b61016b565b6040516100b8919061096f565b60405180910390f35b6100d46100cf3660046108e3565b61022f565b005b6100d46100e4366004610790565b610298565b6100fc6100f7366004610774565b6102ee565b6040516100b89190610b64565b6100fc610300565b6100d461011f366004610774565b610306565b6100fc6101323660046108e3565b610352565b6100ab61014536600461085c565b610364565b61015d610158366004610774565b6103fc565b6040516100b89291906109a4565b600081815260016020526040902054606090806101a35760405162461bcd60e51b815260040161019a90610ad3565b60405180910390fd5b6000838152600360205260409020546001600160a01b0316806101d8575050604080516000815260208101909152905061022a565b60408051600180825281830190925260009160208083019080368337019050509050818160008151811061020857fe5b6001600160a01b0390921660209283029190910190910152925061022a915050565b919050565b6004546001600160a01b031633146102595760405162461bcd60e51b815260040161019a90610b36565b600081815260016020526040902054156102855760405162461bcd60e51b815260040161019a90610a9c565b6000805491815260016020526040902055565b6102a18261054b565b156102be5760405162461bcd60e51b815260040161019a90610a73565b60006102ca8383610551565b9050806102e95760405162461bcd60e51b815260040161019a90610b0a565b505050565b60026020526000908152604090205481565b60005481565b6004546001600160a01b031633146103305760405162461bcd60e51b815260040161019a90610b36565b600580546001600160a01b0319166001600160a01b0392909216919091179055565b60016020526000908152604090205481565b600554604051630e848da360e41b81526060916000916001600160a01b039091169063e848da309061039a908690600401610a20565b60206040518083038186803b1580156103b257600080fd5b505afa1580156103c6573d6000803e3d6000fd5b505050506040513d601f19601f820116820180604052508101906103ea91906108fb565b90506103f58161016b565b9392505050565b6060806104088361054b565b156104255760405162461bcd60e51b815260040161019a90610a73565b600560009054906101000a90046001600160a01b03166001600160a01b031663798aac5b6040518163ffffffff1660e01b815260040160006040518083038186803b15801561047357600080fd5b505afa158015610487573d6000803e3d6000fd5b505050506040513d6000823e601f3d908101601f191682016040526104af91908101906107bb565b80519092508067ffffffffffffffff811180156104cb57600080fd5b506040519080825280602002602001820160405280156104f5578160200160208202803683370190505b50915060005b81811015610544576105208585838151811061051357fe5b6020026020010151610551565b83828151811061052c57fe5b911515602092830291909101909101526001016104fb565b5050915091565b50600090565b6000818152600160205260408120548061057d5760405162461bcd60e51b815260040161019a90610ad3565b6000838152600360205260409020546001600160a01b039081169085168114156105ac5760019250505061063c565b600084815260036020908152604080832080546001600160a01b0319166001600160a01b038a1617905580516001808252818301909252918281019080368337019050509050818160008151811061060057fe5b60200260200101906001600160a01b031690816001600160a01b03168152505061062a8186610642565b610634868661070a565b600193505050505b92915050565b60005b82518110156106a2577f33359f2769756ca8d0da4683f25ee440744d6f18bfb166dbfb59315a8c62b01683828151811061067b57fe5b602002602001015183604051610692929190610956565b60405180910390a1600101610645565b50600480546040516376794efb60e01b81526001600160a01b03909116916376794efb916106d4918691869101610982565b600060405180830381600087803b1580156106ee57600080fd5b505af1158015610702573d6000803e3d6000fd5b505050505050565b7f66a8b13abe95391d1851f5bc319f3dde54ce8f2f40a5fe226aa3251d805832e3828260405161073b929190610956565b60405180910390a160048054604051639d986f9160e01b81526001600160a01b0390911691639d986f91916106d4918691869101610956565b600060208284031215610785578081fd5b81356103f581610b91565b600080604083850312156107a2578081fd5b82356107ad81610b91565b946020939093013593505050565b600060208083850312156107cd578182fd5b825167ffffffffffffffff808211156107e4578384fd5b818501915085601f8301126107f7578384fd5b81518181111561080357fe5b8381029150610813848301610b6d565b8181528481019084860184860187018a101561082d578788fd5b8795505b8386101561084f578051835260019590950194918601918601610831565b5098975050505050505050565b6000602080838503121561086e578182fd5b823567ffffffffffffffff80821115610885578384fd5b818501915085601f830112610898578384fd5b8135818111156108a457fe5b6108b6601f8201601f19168501610b6d565b915080825286848285010111156108cb578485fd5b80848401858401378101909201929092529392505050565b6000602082840312156108f4578081fd5b5035919050565b60006020828403121561090c578081fd5b5051919050565b6000815180845260208085019450808401835b8381101561094b5781516001600160a01b031687529582019590820190600101610926565b509495945050505050565b6001600160a01b03929092168252602082015260400190565b6000602082526103f56020830184610913565b6000604082526109956040830185610913565b90508260208301529392505050565b604080825283519082018190526000906020906060840190828701845b828110156109dd578151845292840192908401906001016109c1565b50505083810382850152845180825285830191830190845b81811015610a135783511515835292840192918401916001016109f5565b5090979650505050505050565b6000602080835283518082850152825b81811015610a4c57858101830151858201604001528201610a30565b81811115610a5d5783604083870101525b50601f01601f1916929092016040019392505050565b6020808252600f908201526e74727573746564206164647265737360881b604082015260600190565b60208082526017908201527f77686974656c69737420616c7265616479206578697374000000000000000000604082015260600190565b60208082526018908201527f4654534f20696e646578206e6f7420737570706f727465640000000000000000604082015260600190565b602080825260129082015271766f746520706f77657220746f6f206c6f7760701b604082015260600190565b60208082526014908201527337b7363c90383934b1b29039bab136b4ba3a32b960611b604082015260600190565b90815260200190565b60405181810167ffffffffffffffff81118282101715610b8957fe5b604052919050565b6001600160a01b0381168114610ba657600080fd5b5056fea26469706673582212208dcf6ec5f6cad1081ca12b7f63c954f85932caef522b857a295f2326d1b7767064736f6c6343000706003360806040523480156200001157600080fd5b50604051620015c7380380620015c7833981810160405260a08110156200003757600080fd5b81019080805160405193929190846401000000008211156200005857600080fd5b9083019060208201858111156200006e57600080fd5b82516401000000008111828201881017156200008957600080fd5b82525081516020918201929091019080838360005b83811015620000b85781810151838201526020016200009e565b50505050905090810190601f168015620000e65780820380516001836020036101000a031916815260200191505b5060409081526020828101519183015160608401516080909401518751939650909450916200011c916001919088019062000163565b50426003556000805460ff19166001179055600680546001600160a01b039095166001600160a01b031990951694909417909355600991909155600a55600b55506200020f565b828054600181600116156101000203166002900490600052602060002090601f0160209004810192826200019b5760008555620001e6565b82601f10620001b657805160ff1916838001178555620001e6565b82800160010185558215620001e6579182015b82811115620001e6578251825591602001919060010190620001c9565b50620001f4929150620001f8565b5090565b5b80821115620001f45760008155600101620001f9565b6113a8806200021f6000396000f3fe608060405234801561001057600080fd5b506004361061023d5760003560e01c80637d1d6f121161013b578063cf35bdd0116100b8578063e536f3961161007c578063e536f39614610540578063eb91d37e146107c2578063f670ebe314610923578063f72cab2814610948578063f937d6ad146109745761023d565b8063cf35bdd01461080f578063d0d552dd1461082c578063d89601fd14610852578063e3749e0c1461085a578063e3b3a3b3146108ee5761023d565b80639edbf007116100ff5780639edbf00714610636578063a29a839f146107ba578063af52df08146107c2578063c5d8b9e7146107e3578063cd4b6914146106465761023d565b80637d1d6f1214610646578063826cc76b146106635780638357d08c1461068057806395d89b411461073d578063974d7a6b146105405761023d565b80633cacb3ae116101c957806355f7b69b1161018d57806355f7b69b146105945780635a3c9d8e146105d25780635c222bad1461063657806365f5cd86146104735780636b52b2421461063e5761023d565b80633cacb3ae1461047357806340462a2d1461047b5780634afd5102146105405780635303548b1461055d578063555989da1461058c5761023d565b8063144e159111610210578063144e15911461037757806318931c351461039d57806327bd2ad5146103f55780632f0a6f3c14610427578063306ba253146104505761023d565b806302fb0c5e14610242578063040d73b81461025e57806311a7aaaa146102ae578063131fdee2146102d2575b600080fd5b61024a61097c565b604080519115158252519081900360200190f35b610266610985565b6040518086815260200185815260200184600581111561028257fe5b815260200183815260200182600581111561029957fe5b81526020019550505050505060405180910390f35b6102b6610994565b604080516001600160a01b039092168252519081900360200190f35b610375600480360360208110156102e857600080fd5b81019060208101813564010000000081111561030357600080fd5b82018360208201111561031557600080fd5b8035906020019184602083028401116401000000008311171561033757600080fd5b919080806020026020016040519081016040528093929190818152602001838360200280828437600092019190915250929550610999945050505050565b005b61037f610a3f565b60408051938452602084019290925282820152519081900360600190f35b6103a5610a4d565b60408051602080825283518183015283519192839290830191858101910280838360005b838110156103e15781810151838201526020016103c9565b505050509050019250505060405180910390f35b6103756004803603606081101561040b57600080fd5b506001600160a01b038135169060208101359060400135610ab1565b6103756004803603606081101561043d57600080fd5b5080359060208101359060400135610999565b6103756004803603604081101561046657600080fd5b5080359060200135610999565b61037f610c56565b6104a06004803603604081101561049157600080fd5b50803590602001351515610c60565b604051808060200180602001848152602001838103835286818151815260200191508051906020019060200280838360005b838110156104ea5781810151838201526020016104d2565b50505050905001838103825285818151815260200191508051906020019060200280838360005b83811015610529578181015183820152602001610511565b505050509050019550505050505060405180910390f35b6103756004803603602081101561055657600080fd5b5035610999565b61057a6004803603602081101561057357600080fd5b5035610ccc565b60408051918252519081900360200190f35b610375610999565b610375600480360360a08110156105aa57600080fd5b506001600160a01b038135169060208101359060408101359060608101359060800135610cdf565b61037560048036036101208110156105e957600080fd5b81359160208101359160408201359160608101359160808201359160a08101359160c08201359160e081013591810190610120810161010082013564010000000081111561030357600080fd5b6102b6610f65565b61057a610fc8565b61057a6004803603602081101561065c57600080fd5b5035610f65565b6102b66004803603602081101561067957600080fd5b5035610fcd565b610688610ff7565b604051808060200180602001878152602001868152602001858152602001848152602001838103835289818151815260200191508051906020019060200280838360005b838110156106e45781810151838201526020016106cc565b50505050905001838103825288818151815260200191508051906020019060200280838360005b8381101561072357818101518382015260200161070b565b505050509050019850505050505050505060405180910390f35b61074561109c565b6040805160208082528351818301528351919283929083019185019080838360005b8381101561077f578181015183820152602001610767565b50505050905090810190601f1680156107ac5780820380516001836020036101000a031916815260200191505b509250505060405180910390f35b61057a611129565b6107ca611138565b6040805192835260208301919091528051918290030190f35b61057a600480360360408110156107f957600080fd5b50803590602001356001600160a01b031661113e565b6102b66004803603602081101561082557600080fd5b5035611166565b6103756004803603602081101561084257600080fd5b50356001600160a01b0316610999565b61057a610994565b610862611176565b604051808a815260200189815260200188815260200187815260200186815260200185815260200184815260200183815260200180602001828103825283818151815260200191508051906020019060200280838360005b838110156108d25781810151838201526020016108ba565b505050509050019a505050505050505050505060405180910390f35b6108f6611248565b60408051958652602086019490945284840192909252606084015215156080830152519081900360a00190f35b6103756004803603604081101561093957600080fd5b50803590602001351515610999565b61057a6004803603604081101561095e57600080fd5b506001600160a01b03813516906020013561127e565b6102b6611286565b60005460ff1681565b60008060008060009091929394565b600090565b6040805180820190915260178152600080516020611330833981519152602082015260405162461bcd60e51b81526004018080602001828103825283818151815260200191508051906020019080838360005b83811015610a045781810151838201526020016109ec565b50505050905090810190601f168015610a315780820380516001836020036101000a031916815260200191505b509250505060405180910390fd5b600954600a54600b54909192565b604080518082018252601781526000805160206113308339815191526020808301918252925162461bcd60e51b8152600481019384528251602482015282516060949283926044019180838360008315610a045781810151838201526020016109ec565b6006546001600160a01b03163314610acb57610acb611295565b610ad36112fd565b82146040518060400160405280600e81526020016d15dc9bdb99c8195c1bd8da081a5960921b81525090610b485760405162461bcd60e51b8152602060048201818152835160248401528351909283926044909101919085019080838360008315610a045781810151838201526020016109ec565b5060008281526004602090815260408083206001600160a01b0387168452825291829020548251808401909352601983527f4475706c6963617465207375626d697420696e2065706f6368000000000000009183019190915215610bed5760405162461bcd60e51b8152602060048201818152835160248401528351909283926044909101919085019080838360008315610a045781810151838201526020016109ec565b5060008281526004602090815260408083206001600160a01b038716808552908352928190208490558051848152429281019290925280518593927f615c0184a2b16dbbcd09eae0bf239e28977aa4e6ff2204eda59c14016310bb6692908290030190a3505050565b6000806000909192565b604080518082018252601781526000805160206113308339815191526020808301918252925162461bcd60e51b81526004810193845282516024820152825160609485946000949093919283926044019190808383898315610a045781810151838201526020016109ec565b6000610cd782611304565b90505b919050565b6006546001600160a01b03163314610cf957610cf9611295565b60408051808201909152600e81526d0a0e4d2c6ca40e8dede40d0d2ced60931b6020820152600160801b8410610d705760405162461bcd60e51b8152602060048201818152835160248401528351909283926044909101919085019080838360008315610a045781810151838201526020016109ec565b50600a546009546001860190910201428111801590610d925750600b54810142105b6040518060400160405280601881526020017f52657665616c20706572696f64206e6f7420616374697665000000000000000081525090610e145760405162461bcd60e51b8152602060048201818152835160248401528351909283926044909101919085019080838360008315610a045781810151838201526020016109ec565b506040805160208082018790528183018690526001600160a01b0389166060808401829052845180850390910181526080840180865281519184019190912060008b81526004855286812093815292909352908490205460e084019094526023808252939091149290916113509060a0013990610ed25760405162461bcd60e51b8152602060048201818152835160248401528351909283926044909101919085019080838360008315610a045781810151838201526020016109ec565b5060008581526004602090815260408083206001600160a01b038a16808552908352818420849055888452600d8352818420818552835281842088905581518881529283018790524283830152606083018490526080830193909352518792917f408bc8c9d02102257c33373c2df5771b03067bd8ea7ec60c35f314ec4ee99d05919081900360a00190a3505050505050565b604080518082018252601781526000805160206113308339815191526020808301918252925162461bcd60e51b81526004810193845282516024820152825160009492839260440191808383898315610a045781810151838201526020016109ec565b600581565b60088181548110610fdd57600080fd5b6000918252602090912001546001600160a01b0316905081565b6060806000806000806000604051806040016040528060178152602001600080516020611330833981519152815250906110725760405162461bcd60e51b8152602060048201818152835160248401528351909283926044909101919085019080838360008315610a045781810151838201526020016109ec565b50506040805160008082526020820181815282840190935290979196509450849350839250829150565b60018054604080516020600284861615610100026000190190941693909304601f810184900484028201840190925281815292918301828280156111215780601f106110f657610100808354040283529160200191611121565b820191906000526020600020905b81548152906001019060200180831161110457829003601f168201915b505050505081565b60006111336112fd565b905090565b60008091565b6000918252600d602090815260408084206001600160a01b0393909316845291905290205490565b60078181548110610fdd57600080fd5b60008060008060008060008060606000604051806040016040528060178152602001600080516020611330833981519152815250906111f65760405162461bcd60e51b8152602060048201818152835160248401528351909283926044909101919085019080838360008315610a045781810151838201526020016109ec565b506000808080808080808060405190808252806020026020018201604052801561122a578160200160208202803683370190505b50985098509850985098509850985098509850909192939495969798565b60008060008060006112586112fd565b9450600a548560010102600954019350600b548401925060009150600090509091929394565b600092915050565b6006546001600160a01b031681565b604080518082018252600d81526c1058d8d95cdcc819195b9a5959609a1b6020808301918252925162461bcd60e51b81526004810193845282516024820152825192939283926044909201919080838360008315610a045781810151838201526020016109ec565b6000611133425b600060095482101561131857506000610cda565b600a5460095483038161132757fe5b049050610cda56fe556e617661696c61626c6520666f722074657374696e67000000000000000000507269636520616c72656164792072657665616c6564206f72206e6f742076616c6964a26469706673582212208e01d48ce074613ec8fa0526a302163aa28bf8e376cbce09d576baa7d7f7a50464736f6c63430007060033",
  "linkReferences": {},
  "deployedLinkReferences": {}
}