{
  "_format": "hh-sol-artifact-1",
  "contractName": "DistributionToDelegators",
  "sourceName": "contracts/tokenPools/implementation/DistributionToDelegators.sol",
  "abi": [
    {
      "inputs": [
        {
          "internalType": "address",
          "name": "_governance",
          "type": "address"
        },
        {
          "internalType": "contract FlareDaemon",
          "name": "_flareDaemon",
          "type": "address"
        },
        {
          "internalType": "address",
          "name": "_addressUpdater",
          "type": "address"
        },
        {
          "internalType": "contract DistributionTreasury",
          "name": "_treasury",
          "type": "address"
        },
        {
          "internalType": "uint256",
          "name": "_totalEntitlementWei",
          "type": "uint256"
        },
        {
          "internalType": "uint256",
          "name": "_latestEntitlementStartTs",
          "type": "uint256"
        }
      ],
      "stateMutability": "nonpayable",
      "type": "constructor"
    },
    {
      "anonymous": false,
      "inputs": [
        {
          "indexed": true,
          "internalType": "address",
          "name": "whoClaimed",
          "type": "address"
        },
        {
          "indexed": true,
          "internalType": "address",
          "name": "sentTo",
          "type": "address"
        },
        {
          "indexed": false,
          "internalType": "uint256",
          "name": "month",
          "type": "uint256"
        },
        {
          "indexed": false,
          "internalType": "uint256",
          "name": "amountWei",
          "type": "uint256"
        }
      ],
      "name": "AccountClaimed",
      "type": "event"
    },
    {
      "anonymous": false,
      "inputs": [
        {
          "indexed": true,
          "internalType": "address",
          "name": "theAccount",
          "type": "address"
        },
        {
          "indexed": false,
          "internalType": "bool",
          "name": "confirmed",
          "type": "bool"
        }
      ],
      "name": "AccountOptOut",
      "type": "event"
    },
    {
      "anonymous": false,
      "inputs": [
        {
          "indexed": false,
          "internalType": "uint256",
          "name": "entitlementStartTs",
          "type": "uint256"
        }
      ],
      "name": "EntitlementStart",
      "type": "event"
    },
    {
      "anonymous": false,
      "inputs": [
        {
          "indexed": false,
          "internalType": "bytes4",
          "name": "selector",
          "type": "bytes4"
        },
        {
          "indexed": false,
          "internalType": "uint256",
          "name": "allowedAfterTimestamp",
          "type": "uint256"
        },
        {
          "indexed": false,
          "internalType": "bytes",
          "name": "encodedCall",
          "type": "bytes"
        }
      ],
      "name": "GovernanceCallTimelocked",
      "type": "event"
    },
    {
      "anonymous": false,
      "inputs": [
        {
          "indexed": false,
          "internalType": "address",
          "name": "initialGovernance",
          "type": "address"
        }
      ],
      "name": "GovernanceInitialised",
      "type": "event"
    },
    {
      "anonymous": false,
      "inputs": [
        {
          "indexed": false,
          "internalType": "address",
          "name": "governanceSettings",
          "type": "address"
        }
      ],
      "name": "GovernedProductionModeEntered",
      "type": "event"
    },
    {
      "anonymous": false,
      "inputs": [
        {
          "indexed": false,
          "internalType": "bytes4",
          "name": "selector",
          "type": "bytes4"
        },
        {
          "indexed": false,
          "internalType": "uint256",
          "name": "timestamp",
          "type": "uint256"
        }
      ],
      "name": "TimelockedGovernanceCallCanceled",
      "type": "event"
    },
    {
      "anonymous": false,
      "inputs": [
        {
          "indexed": false,
          "internalType": "bytes4",
          "name": "selector",
          "type": "bytes4"
        },
        {
          "indexed": false,
          "internalType": "uint256",
          "name": "timestamp",
          "type": "uint256"
        }
      ],
      "name": "TimelockedGovernanceCallExecuted",
      "type": "event"
    },
    {
      "anonymous": false,
      "inputs": [
        {
          "indexed": false,
          "internalType": "bool",
          "name": "useGoodRandom",
          "type": "bool"
        },
        {
          "indexed": false,
          "internalType": "uint256",
          "name": "maxWaitForGoodRandomSeconds",
          "type": "uint256"
        }
      ],
      "name": "UseGoodRandomSet",
      "type": "event"
    },
    {
      "inputs": [
        {
          "internalType": "address[]",
          "name": "_rewardOwners",
          "type": "address[]"
        },
        {
          "internalType": "uint256",
          "name": "_month",
          "type": "uint256"
        }
      ],
      "name": "autoClaim",
      "outputs": [],
      "stateMutability": "nonpayable",
      "type": "function"
    },
    {
      "inputs": [
        {
          "internalType": "bytes4",
          "name": "_selector",
          "type": "bytes4"
        }
      ],
      "name": "cancelGovernanceCall",
      "outputs": [],
      "stateMutability": "nonpayable",
      "type": "function"
    },
    {
      "inputs": [
        {
          "internalType": "address",
          "name": "_rewardOwner",
          "type": "address"
        },
        {
          "internalType": "address",
          "name": "_recipient",
          "type": "address"
        },
        {
          "internalType": "uint256",
          "name": "_month",
          "type": "uint256"
        },
        {
          "internalType": "bool",
          "name": "_wrap",
          "type": "bool"
        }
      ],
      "name": "claim",
      "outputs": [
        {
          "internalType": "uint256",
          "name": "_rewardAmount",
          "type": "uint256"
        }
      ],
      "stateMutability": "nonpayable",
      "type": "function"
    },
    {
      "inputs": [],
      "name": "claimSetupManager",
      "outputs": [
        {
          "internalType": "contract ClaimSetupManager",
          "name": "",
          "type": "address"
        }
      ],
      "stateMutability": "view",
      "type": "function"
    },
    {
      "inputs": [],
      "name": "combinedNat",
      "outputs": [
        {
          "internalType": "contract IICombinedNatBalance",
          "name": "",
          "type": "address"
        }
      ],
      "stateMutability": "view",
      "type": "function"
    },
    {
      "inputs": [
        {
          "internalType": "address[]",
          "name": "_optOutAddresses",
          "type": "address[]"
        }
      ],
      "name": "confirmOptOutOfAirdrop",
      "outputs": [],
      "stateMutability": "nonpayable",
      "type": "function"
    },
    {
      "inputs": [],
      "name": "daemonize",
      "outputs": [
        {
          "internalType": "bool",
          "name": "",
          "type": "bool"
        }
      ],
      "stateMutability": "nonpayable",
      "type": "function"
    },
    {
      "inputs": [
        {
          "internalType": "uint256",
          "name": "",
          "type": "uint256"
        }
      ],
      "name": "endBlockNumber",
      "outputs": [
        {
          "internalType": "uint256",
          "name": "",
          "type": "uint256"
        }
      ],
      "stateMutability": "view",
      "type": "function"
    },
    {
      "inputs": [],
      "name": "entitlementStartTs",
      "outputs": [
        {
          "internalType": "uint256",
          "name": "",
          "type": "uint256"
        }
      ],
      "stateMutability": "view",
      "type": "function"
    },
    {
      "inputs": [
        {
          "internalType": "bytes4",
          "name": "_selector",
          "type": "bytes4"
        }
      ],
      "name": "executeGovernanceCall",
      "outputs": [],
      "stateMutability": "nonpayable",
      "type": "function"
    },
    {
      "inputs": [],
      "name": "flareDaemon",
      "outputs": [
        {
          "internalType": "contract FlareDaemon",
          "name": "",
          "type": "address"
        }
      ],
      "stateMutability": "view",
      "type": "function"
    },
    {
      "inputs": [],
      "name": "getAddressUpdater",
      "outputs": [
        {
          "internalType": "address",
          "name": "_addressUpdater",
          "type": "address"
        }
      ],
      "stateMutability": "view",
      "type": "function"
    },
    {
      "inputs": [
        {
          "internalType": "uint256",
          "name": "_month",
          "type": "uint256"
        }
      ],
      "name": "getClaimableAmount",
      "outputs": [
        {
          "internalType": "uint256",
          "name": "_amountWei",
          "type": "uint256"
        }
      ],
      "stateMutability": "view",
      "type": "function"
    },
    {
      "inputs": [
        {
          "internalType": "address",
          "name": "_account",
          "type": "address"
        },
        {
          "internalType": "uint256",
          "name": "_month",
          "type": "uint256"
        }
      ],
      "name": "getClaimableAmountOf",
      "outputs": [
        {
          "internalType": "uint256",
          "name": "_amountWei",
          "type": "uint256"
        }
      ],
      "stateMutability": "view",
      "type": "function"
    },
    {
      "inputs": [],
      "name": "getClaimableMonths",
      "outputs": [
        {
          "internalType": "uint256",
          "name": "_startMonth",
          "type": "uint256"
        },
        {
          "internalType": "uint256",
          "name": "_endMonth",
          "type": "uint256"
        }
      ],
      "stateMutability": "view",
      "type": "function"
    },
    {
      "inputs": [],
      "name": "getContractName",
      "outputs": [
        {
          "internalType": "string",
          "name": "",
          "type": "string"
        }
      ],
      "stateMutability": "pure",
      "type": "function"
    },
    {
      "inputs": [],
      "name": "getCurrentMonth",
      "outputs": [
        {
          "internalType": "uint256",
          "name": "_currentMonth",
          "type": "uint256"
        }
      ],
      "stateMutability": "view",
      "type": "function"
    },
    {
      "inputs": [],
      "name": "getMonthToExpireNext",
      "outputs": [
        {
          "internalType": "uint256",
          "name": "_monthToExpireNext",
          "type": "uint256"
        }
      ],
      "stateMutability": "view",
      "type": "function"
    },
    {
      "inputs": [],
      "name": "getTokenPoolSupplyData",
      "outputs": [
        {
          "internalType": "uint256",
          "name": "_lockedFundsWei",
          "type": "uint256"
        },
        {
          "internalType": "uint256",
          "name": "_totalInflationAuthorizedWei",
          "type": "uint256"
        },
        {
          "internalType": "uint256",
          "name": "_totalClaimedWei",
          "type": "uint256"
        }
      ],
      "stateMutability": "view",
      "type": "function"
    },
    {
      "inputs": [],
      "name": "governance",
      "outputs": [
        {
          "internalType": "address",
          "name": "",
          "type": "address"
        }
      ],
      "stateMutability": "view",
      "type": "function"
    },
    {
      "inputs": [],
      "name": "governanceSettings",
      "outputs": [
        {
          "internalType": "contract IGovernanceSettings",
          "name": "",
          "type": "address"
        }
      ],
      "stateMutability": "view",
      "type": "function"
    },
    {
      "inputs": [
        {
          "internalType": "address",
          "name": "_initialGovernance",
          "type": "address"
        }
      ],
      "name": "initialise",
      "outputs": [],
      "stateMutability": "nonpayable",
      "type": "function"
    },
    {
      "inputs": [],
      "name": "latestEntitlementStartTs",
      "outputs": [
        {
          "internalType": "uint256",
          "name": "",
          "type": "uint256"
        }
      ],
      "stateMutability": "view",
      "type": "function"
    },
    {
      "inputs": [],
      "name": "maxWaitForGoodRandomSeconds",
      "outputs": [
        {
          "internalType": "uint256",
          "name": "",
          "type": "uint256"
        }
      ],
      "stateMutability": "view",
      "type": "function"
    },
    {
      "inputs": [
        {
          "internalType": "address",
          "name": "_rewardOwner",
          "type": "address"
        }
      ],
      "name": "nextClaimableMonth",
      "outputs": [
        {
          "internalType": "uint256",
          "name": "",
          "type": "uint256"
        }
      ],
      "stateMutability": "view",
      "type": "function"
    },
    {
      "inputs": [
        {
          "internalType": "address",
          "name": "",
          "type": "address"
        }
      ],
      "name": "optOut",
      "outputs": [
        {
          "internalType": "bool",
          "name": "",
          "type": "bool"
        }
      ],
      "stateMutability": "view",
      "type": "function"
    },
    {
      "inputs": [
        {
          "internalType": "uint256",
          "name": "",
          "type": "uint256"
        }
      ],
      "name": "optOutAddresses",
      "outputs": [
        {
          "internalType": "address",
          "name": "",
          "type": "address"
        }
      ],
      "stateMutability": "view",
      "type": "function"
    },
    {
      "inputs": [
        {
          "internalType": "address",
          "name": "",
          "type": "address"
        }
      ],
      "name": "optOutCandidate",
      "outputs": [
        {
          "internalType": "bool",
          "name": "",
          "type": "bool"
        }
      ],
      "stateMutability": "view",
      "type": "function"
    },
    {
      "inputs": [],
      "name": "optOutOfAirdrop",
      "outputs": [],
      "stateMutability": "nonpayable",
      "type": "function"
    },
    {
      "inputs": [],
      "name": "priceSubmitter",
      "outputs": [
        {
          "internalType": "contract IIRandomProvider",
          "name": "",
          "type": "address"
        }
      ],
      "stateMutability": "view",
      "type": "function"
    },
    {
      "inputs": [],
      "name": "productionMode",
      "outputs": [
        {
          "internalType": "bool",
          "name": "",
          "type": "bool"
        }
      ],
      "stateMutability": "view",
      "type": "function"
    },
    {
      "inputs": [],
      "name": "sendFundsBackToTreasury",
      "outputs": [],
      "stateMutability": "nonpayable",
      "type": "function"
    },
    {
      "inputs": [
        {
          "internalType": "uint256",
          "name": "_entitlementStartTs",
          "type": "uint256"
        }
      ],
      "name": "setEntitlementStart",
      "outputs": [],
      "stateMutability": "nonpayable",
      "type": "function"
    },
    {
      "inputs": [
        {
          "internalType": "bool",
          "name": "_useGoodRandom",
          "type": "bool"
        },
        {
          "internalType": "uint256",
          "name": "_maxWaitForGoodRandomSeconds",
          "type": "uint256"
        }
      ],
      "name": "setUseGoodRandom",
      "outputs": [],
      "stateMutability": "nonpayable",
      "type": "function"
    },
    {
      "inputs": [
        {
          "internalType": "uint256",
          "name": "",
          "type": "uint256"
        }
      ],
      "name": "startBlockNumber",
      "outputs": [
        {
          "internalType": "uint256",
          "name": "",
          "type": "uint256"
        }
      ],
      "stateMutability": "view",
      "type": "function"
    },
    {
      "inputs": [],
      "name": "stop",
      "outputs": [],
      "stateMutability": "nonpayable",
      "type": "function"
    },
    {
      "inputs": [],
      "name": "stopped",
      "outputs": [
        {
          "internalType": "bool",
          "name": "",
          "type": "bool"
        }
      ],
      "stateMutability": "view",
      "type": "function"
    },
    {
      "inputs": [],
      "name": "switchToFallbackMode",
      "outputs": [
        {
          "internalType": "bool",
          "name": "",
          "type": "bool"
        }
      ],
      "stateMutability": "view",
      "type": "function"
    },
    {
      "inputs": [],
      "name": "switchToProductionMode",
      "outputs": [],
      "stateMutability": "nonpayable",
      "type": "function"
    },
    {
      "inputs": [
        {
          "internalType": "bytes4",
          "name": "",
          "type": "bytes4"
        }
      ],
      "name": "timelockedCalls",
      "outputs": [
        {
          "internalType": "uint256",
          "name": "allowedAfterTimestamp",
          "type": "uint256"
        },
        {
          "internalType": "bytes",
          "name": "encodedCall",
          "type": "bytes"
        }
      ],
      "stateMutability": "view",
      "type": "function"
    },
    {
      "inputs": [
        {
          "internalType": "uint256",
          "name": "",
          "type": "uint256"
        }
      ],
      "name": "totalAvailableAmount",
      "outputs": [
        {
          "internalType": "uint256",
          "name": "",
          "type": "uint256"
        }
      ],
      "stateMutability": "view",
      "type": "function"
    },
    {
      "inputs": [],
      "name": "totalBurnedWei",
      "outputs": [
        {
          "internalType": "uint256",
          "name": "",
          "type": "uint256"
        }
      ],
      "stateMutability": "view",
      "type": "function"
    },
    {
      "inputs": [],
      "name": "totalClaimedWei",
      "outputs": [
        {
          "internalType": "uint256",
          "name": "",
          "type": "uint256"
        }
      ],
      "stateMutability": "view",
      "type": "function"
    },
    {
      "inputs": [],
      "name": "totalDistributableAmount",
      "outputs": [
        {
          "internalType": "uint256",
          "name": "",
          "type": "uint256"
        }
      ],
      "stateMutability": "view",
      "type": "function"
    },
    {
      "inputs": [],
      "name": "totalEntitlementWei",
      "outputs": [
        {
          "internalType": "uint256",
          "name": "",
          "type": "uint256"
        }
      ],
      "stateMutability": "view",
      "type": "function"
    },
    {
      "inputs": [
        {
          "internalType": "uint256",
          "name": "",
          "type": "uint256"
        }
      ],
      "name": "totalUnclaimedAmount",
      "outputs": [
        {
          "internalType": "uint256",
          "name": "",
          "type": "uint256"
        }
      ],
      "stateMutability": "view",
      "type": "function"
    },
    {
      "inputs": [
        {
          "internalType": "uint256",
          "name": "",
          "type": "uint256"
        }
      ],
      "name": "totalUnclaimedWeight",
      "outputs": [
        {
          "internalType": "uint256",
          "name": "",
          "type": "uint256"
        }
      ],
      "stateMutability": "view",
      "type": "function"
    },
    {
      "inputs": [],
      "name": "treasury",
      "outputs": [
        {
          "internalType": "contract DistributionTreasury",
          "name": "",
          "type": "address"
        }
      ],
      "stateMutability": "view",
      "type": "function"
    },
    {
      "inputs": [
        {
          "internalType": "bytes32[]",
          "name": "_contractNameHashes",
          "type": "bytes32[]"
        },
        {
          "internalType": "address[]",
          "name": "_contractAddresses",
          "type": "address[]"
        }
      ],
      "name": "updateContractAddresses",
      "outputs": [],
      "stateMutability": "nonpayable",
      "type": "function"
    },
    {
      "inputs": [],
      "name": "updateTotalEntitlementWei",
      "outputs": [],
      "stateMutability": "nonpayable",
      "type": "function"
    },
    {
      "inputs": [],
      "name": "useGoodRandom",
      "outputs": [
        {
          "internalType": "bool",
          "name": "",
          "type": "bool"
        }
      ],
      "stateMutability": "view",
      "type": "function"
    },
    {
      "inputs": [
        {
          "internalType": "uint256",
          "name": "",
          "type": "uint256"
        },
        {
          "internalType": "uint256",
          "name": "",
          "type": "uint256"
        }
      ],
      "name": "votePowerBlockNumbers",
      "outputs": [
        {
          "internalType": "uint256",
          "name": "",
          "type": "uint256"
        }
      ],
      "stateMutability": "view",
      "type": "function"
    },
    {
      "inputs": [],
      "name": "wNat",
      "outputs": [
        {
          "internalType": "contract WNat",
          "name": "",
          "type": "address"
        }
      ],
      "stateMutability": "view",
      "type": "function"
    },
    {
      "inputs": [],
      "name": "waitingForGoodRandomSinceTs",
      "outputs": [
        {
          "internalType": "uint256",
          "name": "",
          "type": "uint256"
        }
      ],
      "stateMutability": "view",
      "type": "function"
    },
    {
      "stateMutability": "payable",
      "type": "receive"
    }
  ],
  "bytecode": "0x60e06040523480156200001157600080fd5b50604051620049c6380380620049c6833981810160405260c08110156200003757600080fd5b508051602082015160408301516060840151608085015160a090950151939492939192909183868681806001600160a01b038116156200007c576200007c81620002ce565b506001600160a01b038116620000cc576040805162461bcd60e51b815260206004820152601060248201526f5f676f7665726e616e6365207a65726f60801b604482015290519081900360640190fd5b506001600160a01b0381166200011d576040805162461bcd60e51b8152602060048201526011602482015270666c617265206461656d6f6e207a65726f60781b604482015290519081900360640190fd5b60601b6001600160601b0319166080525060016002556200013e8162000391565b5060408051808201909152600c81526b61646472657373207a65726f60a01b60208201526001600160a01b038416620001f85760405162461bcd60e51b81526004018080602001828103825283818151815260200191508051906020019080838360005b83811015620001bc578181015183820152602001620001a2565b50505050905090810190601f168015620001ea5780820380516001836020036101000a031916815260200191505b509250505060405180910390fd5b5060408051808201909152600b81526a1a5b881d1a19481c185cdd60aa1b6020820152428210156200026d5760405162461bcd60e51b8152602060048201818152835160248401528351909283926044909101919085019080838360008315620001bc578181015183820152602001620001a2565b506001600160601b0319606084901b1660c052600382905560a081905260078190556040805182815290517f6887b4fbe6e282072c586eed840058a3507439898b1521541253e5a78a41c69b9181900360200190a1505050505050620003b5565b600054600160a01b900460ff16156200032e576040805162461bcd60e51b815260206004820152601460248201527f696e697469616c6973656420213d2066616c7365000000000000000000000000604482015290519081900360640190fd5b60008054600160a01b60ff60a01b19909116176001600160a01b0319166001600160a01b03831690811790915560408051918252517f9789733827840833afc031fb2ef9ab6894271f77bad2085687cf4ae5c7bee4db916020908290030190a150565b7f714f205b2abd25bef1d06a1af944e38c113fe6160375c4e1d6d5cf28848e771955565b60805160601c60a05160c05160601c6145b1620004156000398061036d5280610f5352806116d25280611de35280613878528061390252806139965250806126f35280612b7e5250806117f452806124545280612a5752506145b16000f3fe6080604052600436106103395760003560e01c8063a1077532116101ab578063ddd1b67e116100f7578063f1e01c2211610095578063f5a983831161006f578063f5a9838314610d0a578063f5f5ba7214610d1f578063f937d6ad14610da9578063f94fcc6d14610dbe57610419565b8063f1e01c2214610cb6578063f2325e3814610ce0578063f2a1f76714610cf557610419565b8063e28ef1f7116100d1578063e28ef1f714610c23578063e4c1e96c14610c4d578063e60eb6ff14610c77578063f12d31ae14610c8c57610419565b8063ddd1b67e14610be4578063e17f212e14610bf9578063e22fdece14610c0e57610419565b8063b0b742ac11610164578063c4db96191161013e578063c4db961914610b5d578063cb063fa214610b72578063d461048314610b87578063d9d065c114610bba57610419565b8063b0b742ac14610ae8578063b23b6ef114610afd578063b2c1219214610b1257610419565b8063a107753214610932578063a90a38e114610947578063aa7579ac14610979578063ae6771611461098e578063af3267fe146109a3578063b00c0b76146109b857610419565b806361a30370116102855780637d8ca242116102235780638dc305fa116101fd5780638dc305fa1461085a5780639d6a890f146108d55780639edbf007146109085780639f71043e1461091d57610419565b80637d8ca242146107f15780638635f8981461081b57806389e6faa61461083057610419565b806367fc40291161025f57806367fc4029146106e05780636d0e8c341461071457806374e6310e1461072957806375f12b21146107dc57610419565b806361a303701461068c57806361d027b3146106b657806362354e03146106cb57610419565b8063257a7ee2116102f257806333cd2400116102cc57806333cd2400146105cb5780635267a15d146106125780635aa6e675146106435780635ff270791461065857610419565b8063257a7ee21461052f5780632dafdbbf1461055f5780632e6584521461059257610419565b8063023666481461041e57806302573715146104455780630732d2ea1461047357806307da68f51461048a57806315c29c5b1461049f578063220c1c16146104b457610419565b366104195760408051808201909152600d81526c7472656173757279206f6e6c7960981b6020820152336001600160a01b037f000000000000000000000000000000000000000000000000000000000000000016146104165760405162461bcd60e51b81526004018080602001828103825283818151815260200191508051906020019080838360005b838110156103db5781810151838201526020016103c3565b50505050905090810190601f1680156104085780820380516001836020036101000a031916815260200191505b509250505060405180910390fd5b50005b600080fd5b34801561042a57600080fd5b50610433610df1565b60408051918252519081900360200190f35b34801561045157600080fd5b5061045a610df7565b6040805192835260208301919091528051918290030190f35b34801561047f57600080fd5b50610488610f37565b005b34801561049657600080fd5b50610488610f8c565b3480156104ab57600080fd5b50610433610fa3565b3480156104c057600080fd5b50610488600480360360208110156104d757600080fd5b810190602081018135600160201b8111156104f157600080fd5b82018360208201111561050357600080fd5b803590602001918460208302840111600160201b8311171561052457600080fd5b509092509050610fa9565b34801561053b57600080fd5b506104336004803603604081101561055257600080fd5b508035906020013561114e565b34801561056b57600080fd5b5061057461117f565b60408051938452602084019290925282820152519081900360600190f35b34801561059e57600080fd5b50610433600480360360408110156105b557600080fd5b506001600160a01b0381351690602001356111dd565b3480156105d757600080fd5b506105fe600480360360208110156105ee57600080fd5b50356001600160a01b0316611281565b604080519115158252519081900360200190f35b34801561061e57600080fd5b50610627611296565b604080516001600160a01b039092168252519081900360200190f35b34801561064f57600080fd5b506106276112bb565b34801561066457600080fd5b506104886004803603602081101561067b57600080fd5b50356001600160e01b031916611351565b34801561069857600080fd5b50610627600480360360208110156106af57600080fd5b50356116a6565b3480156106c257600080fd5b506106276116d0565b3480156106d757600080fd5b506106276116f4565b3480156106ec57600080fd5b506104886004803603602081101561070357600080fd5b50356001600160e01b0319166116ff565b34801561072057600080fd5b506105fe6117e7565b34801561073557600080fd5b5061075d6004803603602081101561074c57600080fd5b50356001600160e01b031916611be3565b6040518083815260200180602001828103825283818151815260200191508051906020019080838360005b838110156107a0578181015183820152602001610788565b50505050905090810190601f1680156107cd5780820380516001836020036101000a031916815260200191505b50935050505060405180910390f35b3480156107e857600080fd5b506105fe611c89565b3480156107fd57600080fd5b506104336004803603602081101561081457600080fd5b5035611c92565b34801561082757600080fd5b50610488611d2f565b34801561083c57600080fd5b506104336004803603602081101561085357600080fd5b5035611ede565b34801561086657600080fd5b506104886004803603604081101561087d57600080fd5b810190602081018135600160201b81111561089757600080fd5b8201836020820111156108a957600080fd5b803590602001918460208302840111600160201b831117156108ca57600080fd5b919350915035611ef0565b3480156108e157600080fd5b50610488600480360360208110156108f857600080fd5b50356001600160a01b0316612384565b34801561091457600080fd5b5061062761243d565b34801561092957600080fd5b5061043361244c565b34801561093e57600080fd5b50610627612452565b34801561095357600080fd5b506104886004803603604081101561096a57600080fd5b50803515159060200135612476565b34801561098557600080fd5b50610433612615565b34801561099a57600080fd5b506104336126f1565b3480156109af57600080fd5b50610433612715565b3480156109c457600080fd5b50610488600480360360408110156109db57600080fd5b810190602081018135600160201b8111156109f557600080fd5b820183602082011115610a0757600080fd5b803590602001918460208302840111600160201b83111715610a2857600080fd5b9190808060200260200160405190810160405280939291908181526020018383602002808284376000920191909152509295949360208101935035915050600160201b811115610a7757600080fd5b820183602082011115610a8957600080fd5b803590602001918460208302840111600160201b83111715610aaa57600080fd5b91908080602002602001604051908101604052809392919081815260200183836020028082843760009201919091525092955061271b945050505050565b348015610af457600080fd5b506106276127c2565b348015610b0957600080fd5b506104336127d1565b348015610b1e57600080fd5b5061043360048036036080811015610b3557600080fd5b506001600160a01b0381358116916020810135909116906040810135906060013515156127d7565b348015610b6957600080fd5b506106276129c7565b348015610b7e57600080fd5b506105fe6129d6565b348015610b9357600080fd5b506105fe60048036036020811015610baa57600080fd5b50356001600160a01b03166129e4565b348015610bc657600080fd5b5061043360048036036020811015610bdd57600080fd5b50356129f9565b348015610bf057600080fd5b50610433612a0b565b348015610c0557600080fd5b506105fe612a3a565b348015610c1a57600080fd5b506105fe612a4a565b348015610c2f57600080fd5b5061048860048036036020811015610c4657600080fd5b5035612ac3565b348015610c5957600080fd5b5061043360048036036020811015610c7057600080fd5b5035612c67565b348015610c8357600080fd5b50610433612c79565b348015610c9857600080fd5b5061043360048036036020811015610caf57600080fd5b5035612c7f565b348015610cc257600080fd5b5061043360048036036020811015610cd957600080fd5b5035612c91565b348015610cec57600080fd5b50610433612ca3565b348015610d0157600080fd5b50610488612ca9565b348015610d1657600080fd5b50610488612d84565b348015610d2b57600080fd5b50610d34612e3e565b6040805160208082528351818301528351919283929083019185019080838360005b83811015610d6e578181015183820152602001610d56565b50505050905090810190601f168015610d9b5780820380516001836020036101000a031916815260200191505b509250505060405180910390f35b348015610db557600080fd5b50610627612e75565b348015610dca57600080fd5b5061043360048036036020811015610de157600080fd5b50356001600160a01b0316612e84565b60055481565b6008546040805180820190915260128152716e6f206d6f6e746820636c61696d61626c6560701b6020820152600091829190600160801b90046001600160801b0316610e845760405162461bcd60e51b81526020600482018181528351602484015283519092839260449091019190850190808383600083156103db5781810151838201526020016103c3565b50610e8d612615565b6008549092506000196001600160801b03600160801b909204821601169050808211801590610ebd575061044c82105b6040518060400160405280601081526020016f185b1c9958591e48199a5b9a5cda195960821b81525090610f325760405162461bcd60e51b81526020600482018181528351602484015283519092839260449091019190850190808383600083156103db5781810151838201526020016103c3565b509091565b610f3f612e9f565b600654600090610f79906001600160a01b037f00000000000000000000000000000000000000000000000000000000000000001631612efe565b9050600354811015610f8757fe5b600355565b610f94612e9f565b6013805460ff19166001179055565b60145481565b600054600160b01b900460ff1680610fcb5750600054600160a81b900460ff16155b1561113f57610fd8612f61565b8060005b81811015611138576000848483818110610ff257fe5b602090810292909201356001600160a01b0316600081815260108452604090819020548151808301909252600d82526c1b9bdd081bdc1d1959081bdd5d609a1b948201949094529093509160ff16905061108d5760405162461bcd60e51b81526020600482018181528351602484015283519092839260449091019190850190808383600083156103db5781810151838201526020016103c3565b5061109781612f96565b6001600160a01b0381166000818152601160209081526040808320805460ff1916600190811790915560128054808301825594527fbb8a6a4669ba250d26cd7a459eca9d215f8307e33aebe50379bc5a3617ec344490930180546001600160a01b031916851790558051928352517f82b45541b9ba7a8fe574a801f120df904cff6cde36bee6c217c9514949aa0cb89281900390910190a250600101610fdc565b505061114a565b61114a600036613026565b5050565b600b602052816000526040600020818154811061116a57600080fd5b90600052602060002001600091509150505481565b6013546000908190819060ff16611198576003546111b9565b6111b9476111b3600554600454612efe90919063ffffffff16565b90612efe565b9250600091506111d6600554600454612efe90919063ffffffff16565b9050909192565b600042600754106040518060400160405280600b81526020016a1b9bdd081cdd185c9d195960aa1b815250906112545760405162461bcd60e51b81526020600482018181528351602484015283519092839260449091019190850190808383600083156103db5781810151838201526020016103c3565b5061125e83612f96565b61126f611269612615565b836131a9565b611279838361332d565b949350505050565b60106020526000908152604090205460ff1681565b7f714f205b2abd25bef1d06a1af944e38c113fe6160375c4e1d6d5cf28848e77195490565b60008054600160a81b900460ff166112de576000546001600160a01b031661134b565b60076001609c1b016001600160a01b031663732524946040518163ffffffff1660e01b815260040160206040518083038186803b15801561131e57600080fd5b505afa158015611332573d6000803e3d6000fd5b505050506040513d602081101561134857600080fd5b50515b90505b90565b60408051630debfda360e41b8152336004820152905160076001609c1b019163debfda30916024808301926020929190829003018186803b15801561139557600080fd5b505afa1580156113a9573d6000803e3d6000fd5b505050506040513d60208110156113bf57600080fd5b5051611402576040805162461bcd60e51b815260206004820152600d60248201526c37b7363c9032bc32b1baba37b960991b604482015290519081900360640190fd5b6001600160e01b031981166000908152600160205260409020805461146e576040805162461bcd60e51b815260206004820152601a60248201527f74696d656c6f636b3a20696e76616c69642073656c6563746f72000000000000604482015290519081900360640190fd5b80544210156114c4576040805162461bcd60e51b815260206004820152601960248201527f74696d656c6f636b3a206e6f7420616c6c6f7765642079657400000000000000604482015290519081900360640190fd5b6000816001018054600181600116156101000203166002900480601f01602080910402602001604051908101604052809291908181526020018280546001816001161561010002031660029004801561155e5780601f106115335761010080835404028352916020019161155e565b820191906000526020600020905b81548152906001019060200180831161154157829003601f168201915b5050506001600160e01b0319861660009081526001602081905260408220828155949550909250611592915083018261443f565b50506000805460ff60b01b1916600160b01b178155604051825130918491819060208401908083835b602083106115da5780518252601f1990920191602091820191016115bb565b6001836020036101000a0380198251168184511680821785525050505050509050019150506000604051808303816000865af19150503d806000811461163c576040519150601f19603f3d011682016040523d82523d6000602084013e611641565b606091505b50506000805460ff60b01b19169055604080516001600160e01b03198716815242602082015281519293507fa7326b57fc9cfe267aaea5e7f0b01757154d265620a0585819416ee9ddd2c438929081900390910190a16116a0816134e8565b50505050565b601281815481106116b657600080fd5b6000918252602090912001546001600160a01b0316905081565b7f000000000000000000000000000000000000000000000000000000000000000081565b60076001609c1b0181565b611707612e9f565b6001600160e01b03198116600090815260016020526040902054611772576040805162461bcd60e51b815260206004820152601a60248201527f74696d656c6f636b3a20696e76616c69642073656c6563746f72000000000000604482015290519081900360640190fd5b604080516001600160e01b03198316815242602082015281517f7735b2391c38a81419c513e30ca578db7158eadd7101511b23e221c654d19cf8929181900390910190a16001600160e01b031981166000908152600160208190526040822082815591906117e29083018261443f565b505050565b6000336001600160a01b037f0000000000000000000000000000000000000000000000000000000000000000161461185a576040805162461bcd60e51b815260206004820152601160248201527037b7363c90333630b932903230b2b6b7b760791b604482015290519081900360640190fd5b6002805414156118b1576040805162461bcd60e51b815260206004820152601f60248201527f5265656e7472616e637947756172643a207265656e7472616e742063616c6c00604482015290519081900360640190fd5b600280556007544210806118d4575060085461044c6001600160801b0390911610155b156118e157506000611b5b565b60006118f86007544261350590919063ffffffff16565b905060006119098262015180613562565b90506201518081028203600061192182614650613562565b9050600081118015611934575061044c83105b801561194c5750600083815260096020526040902054155b156119635760008381526009602052604090204390555b600083118015611975575061044c8311155b8015611992575060001983016000908152600a6020526040902054155b156119ae5760001983016000908152600a602052604090204390555b6018546040805163deea13e760e01b815290516000926001600160a01b03169163deea13e7916004808301926020929190829003018186803b1580156119f357600080fd5b505afa158015611a07573d6000803e3d6000fd5b505050506040513d6020811015611a1d57600080fd5b50516008546001600160801b03166000908152600960205260409020549091508015801590611a4b57508181105b15611aeb576008546001600160801b03166000908152600d6020526040812054611a7590476135c9565b600880546001600160801b03808216600101166fffffffffffffffffffffffffffffffff1990911617905590508015611ae957600554611ab59082612efe565b60055560405161dead9082156108fc029083906000818181858888f19350505050158015611ae7573d6000803e3d6000fd5b505b505b600085118015611afd575061044c8511155b8015611b1f57506008546001600160801b03600160801b909104166000198601145b8015611b2e575060135460ff16155b15611b5057611b3f600186036135df565b15611b5057611b5060018603613834565b600196505050505050505b600160025547611b696139f8565b11156040518060400160405280600f81526020016e62616c616e636520746f6f206c6f7760881b81525090611bdf5760405162461bcd60e51b81526020600482018181528351602484015283519092839260449091019190850190808383600083156103db5781810151838201526020016103c3565b5090565b600160208181526000928352604092839020805481840180548651600296821615610100026000190190911695909504601f81018590048502860185019096528585529094919392909190830182828015611c7f5780601f10611c5457610100808354040283529160200191611c7f565b820191906000526020600020905b815481529060010190602001808311611c6257829003601f168201915b5050505050905082565b60135460ff1681565b600042600754106040518060400160405280600b81526020016a1b9bdd081cdd185c9d195960aa1b81525090611d095760405162461bcd60e51b81526020600482018181528351602484015283519092839260449091019190850190808383600083156103db5781810151838201526020016103c3565b50611d1333612f96565b611d1e611269612615565b611d28338361332d565b9392505050565b600054600160b01b900460ff1680611d515750600054600160a81b900460ff16155b15611ed157611d5e612f61565b60135460408051808201909152600b81526a1b9bdd081cdd1bdc1c195960aa1b60208201529060ff16611dd25760405162461bcd60e51b81526020600482018181528351602484015283519092839260449091019190850190808383600083156103db5781810151838201526020016103c3565b506040516000906001600160a01b037f0000000000000000000000000000000000000000000000000000000000000000169047908381818185875af1925050503d8060008114611e3e576040519150601f19603f3d011682016040523d82523d6000602084013e611e43565b606091505b50509050806040518060400160405280601981526020017f73656e64696e672066756e6473206261636b206661696c65640000000000000081525090611eca5760405162461bcd60e51b81526020600482018181528351602484015283519092839260449091019190850190808383600083156103db5781810151838201526020016103c3565b5050611edc565b611edc600036613026565b565b600a6020526000908152604090205481565b42600754106040518060400160405280600b81526020016a1b9bdd081cdd185c9d195960aa1b81525090611f655760405162461bcd60e51b81526020600482018181528351602484015283519092839260449091019190850190808383600083156103db5781810151838201526020016103c3565b506013546040805180820190915260078152661cdd1bdc1c195960ca1b60208201529060ff1615611fd75760405162461bcd60e51b81526020600482018181528351602484015283519092839260449091019190850190808383600083156103db5781810151838201526020016103c3565b5060028054141561202f576040805162461bcd60e51b815260206004820152601f60248201527f5265656e7472616e637947756172643a207265656e7472616e742063616c6c00604482015290519081900360640190fd5b6002805560005b8281101561206a5761206284848381811061204d57fe5b905060200201356001600160a01b0316613a2d565b600101612036565b506000612075612615565b905061208181836131a9565b6019546040805163712441d960e11b81523360048201818152602483019384526044830188905260009485946001600160a01b039091169363e24883b293928b928b92606401846020850280828437600081840152601f19601f82011690508083019250505094505050505060006040518083038186803b15801561210557600080fd5b505afa158015612119573d6000803e3d6000fd5b505050506040513d6000823e601f3d908101601f19168201604090815281101561214257600080fd5b8101908080516040519392919084600160201b82111561216157600080fd5b90830190602082018581111561217657600080fd5b82518660208202830111600160201b8211171561219257600080fd5b82525081516020918201928201910280838360005b838110156121bf5781810151838201526020016121a7565b50505050919091016040525060200151929450919250600091508190505b868110156122d55760008888838181106121f357fe5b905060200201356001600160a01b03169050600085838151811061221357fe5b6020908102919091018101516001600160a01b03841660009081526011909252604082205490925060ff166122505761224e83838a8c613aa7565b015b816001600160a01b0316836001600160a01b0316146122775761227582838a8c613aa7565b015b60408051808201909152601881527f636c61696d656420616d6f756e7420746f6f20736d616c6c00000000000000006020820152948101946122bc9082908890613bc9565b90506122ca82826001613c23565b5050506001016121dd565b506004546122e39082612efe565b6004556122fb336122f48489613d6b565b6000613c23565b505060016002555047905061230e6139f8565b11156040518060400160405280600f81526020016e62616c616e636520746f6f206c6f7760881b815250906116a05760405162461bcd60e51b81526020600482018181528351602484015283519092839260449091019190850190808383600083156103db5781810151838201526020016103c3565b600054600160a01b900460ff16156123da576040805162461bcd60e51b8152602060048201526014602482015273696e697469616c6973656420213d2066616c736560601b604482015290519081900360640190fd5b60008054600160a01b60ff60a01b19909116176001600160a01b0319166001600160a01b03831690811790915560408051918252517f9789733827840833afc031fb2ef9ab6894271f77bad2085687cf4ae5c7bee4db916020908290030190a150565b6018546001600160a01b031681565b60045481565b7f000000000000000000000000000000000000000000000000000000000000000081565b600054600160b01b900460ff16806124985750600054600160a81b900460ff16155b1561113f576124a5612f61565b811561253b576000811180156124be575062093a808111155b60405180604001604052806012815260200171696e76616c696420706172616d657465727360701b815250906125355760405162461bcd60e51b81526020600482018181528351602484015283519092839260449091019190850190808383600083156103db5781810151838201526020016103c3565b506125b8565b604080518082019091526012815271696e76616c696420706172616d657465727360701b602082015281156125b15760405162461bcd60e51b81526020600482018181528351602484015283519092839260449091019190850190808383600083156103db5781810151838201526020016103c3565b5060006015555b6013805461ff001916610100841515908102919091179091556014829055604080519182526020820183905280517f5c9bf067f2a8b23128e64d5ce119251f51d6c0c24e0d7bf430c2dd77df3ec0929281900390910190a161114a565b600080601860009054906101000a90046001600160a01b03166001600160a01b031663deea13e76040518163ffffffff1660e01b815260040160206040518083038186803b15801561266657600080fd5b505afa15801561267a573d6000803e3d6000fd5b505050506040513d602081101561269057600080fd5b50516008546001600160801b031660009081526009602052604090205490915080158015906126be57508181105b156126de5750506008546001600160801b0390811660010116905061134e565b50506008546001600160801b0316905090565b7f000000000000000000000000000000000000000000000000000000000000000081565b60065481565b612723611296565b6001600160a01b0316336001600160a01b03161461277f576040805162461bcd60e51b815260206004820152601460248201527337b7363c9030b2323932b9b9903ab83230ba32b960611b604482015290519081900360640190fd5b6127b86127b383836040518060400160405280600e81526020016d20b2323932b9b9aab83230ba32b960911b815250613dc4565b613ef1565b61114a8282613f15565b6017546001600160a01b031681565b60155481565b600042600754106040518060400160405280600b81526020016a1b9bdd081cdd185c9d195960aa1b8152509061284e5760405162461bcd60e51b81526020600482018181528351602484015283519092839260449091019190850190808383600083156103db5781810151838201526020016103c3565b506013546040805180820190915260078152661cdd1bdc1c195960ca1b60208201529060ff16156128c05760405162461bcd60e51b81526020600482018181528351602484015283519092839260449091019190850190808383600083156103db5781810151838201526020016103c3565b50600280541415612918576040805162461bcd60e51b815260206004820152601f60248201527f5265656e7472616e637947756172643a207265656e7472616e742063616c6c00604482015290519081900360640190fd5b6002805584846129288282614065565b612934878787876140f2565b6001600255925047915061294890506139f8565b11156040518060400160405280600f81526020016e62616c616e636520746f6f206c6f7760881b815250906129be5760405162461bcd60e51b81526020600482018181528351602484015283519092839260449091019190850190808383600083156103db5781810151838201526020016103c3565b50949350505050565b6019546001600160a01b031681565b601354610100900460ff1681565b60116020526000908152604090205460ff1681565b600d6020526000908152604090205481565b600080612a236007544261414690919063ffffffff16565b9150612a3490508162015180613562565b91505090565b600054600160a81b900460ff1681565b6000336001600160a01b037f00000000000000000000000000000000000000000000000000000000000000001614612abd576040805162461bcd60e51b815260206004820152601160248201527037b7363c90333630b932903230b2b6b7b760791b604482015290519081900360640190fd5b50600090565b600054600160b01b900460ff1680612ae55750600054600160a81b900460ff16155b15612c5957612af2612f61565b42600754116040518060400160405280600f81526020016e185b1c9958591e481cdd185c9d1959608a1b81525090612b6b5760405162461bcd60e51b81526020600482018181528351602484015283519092839260449091019190850190808383600083156103db5781810151838201526020016103c3565b50618c9f1942018110801590612ba157507f00000000000000000000000000000000000000000000000000000000000000008111155b60405180604001604052806015815260200174077726f6e672073746172742074696d657374616d7605c1b81525090612c1b5760405162461bcd60e51b81526020600482018181528351602484015283519092839260449091019190850190808383600083156103db5781810151838201526020016103c3565b5060078190556040805182815290517f6887b4fbe6e282072c586eed840058a3507439898b1521541253e5a78a41c69b9181900360200190a1612c64565b612c64600036613026565b50565b600c6020526000908152604090205481565b60075481565b600e6020526000908152604090205481565b60096020526000908152604090205481565b60035481565b336000908152601060209081526040918290205482518084019093526011835270185b1c9958591e481bdc1d1959081bdd5d607a1b9183019190915260ff1615612d345760405162461bcd60e51b81526020600482018181528351602484015283519092839260449091019190850190808383600083156103db5781810151838201526020016103c3565b50336000818152601060209081526040808320805460ff191660011790558051928352517f82b45541b9ba7a8fe574a801f120df904cff6cde36bee6c217c9514949aa0cb89281900390910190a2565b612d8c612e9f565b600054600160a81b900460ff1615612deb576040805162461bcd60e51b815260206004820152601a60248201527f616c726561647920696e2070726f64756374696f6e206d6f6465000000000000604482015290519081900360640190fd5b60008054600161ff0160a01b031916600160a81b1790556040805160076001609c1b01815290517f83af113638b5422f9e977cebc0aaf0eaf2188eb9a8baae7f9d46c42b33a1560c9181900360200190a1565b60408051808201909152601881527f446973747269627574696f6e546f44656c656761746f72730000000000000000602082015290565b6016546001600160a01b031681565b6000612e9782612e92612615565b614168565b90505b919050565b612ea76112bb565b6001600160a01b0316336001600160a01b031614611edc576040805162461bcd60e51b815260206004820152600f60248201526e6f6e6c7920676f7665726e616e636560881b604482015290519081900360640190fd5b600082820183811015612f58576040805162461bcd60e51b815260206004820152601b60248201527f536166654d6174683a206164646974696f6e206f766572666c6f770000000000604482015290519081900360640190fd5b90505b92915050565b600054600160b01b900460ff1615612f8e57333014612f7c57fe5b6000805460ff60b01b19169055611edc565b611edc612e9f565b6001600160a01b03811660009081526011602081815260409283902054835180850190945291835270185b1c9958591e481bdc1d1959081bdd5d607a1b9083015260ff161561114a5760405162461bcd60e51b81526020600482018181528351602484015283519092839260449091019190850190808383600083156103db5781810151838201526020016103c3565b61302e612e9f565b600082359050600060076001609c1b016001600160a01b0316636221a54b6040518163ffffffff1660e01b815260040160206040518083038186803b15801561307657600080fd5b505afa15801561308a573d6000803e3d6000fd5b505050506040513d60208110156130a057600080fd5b505160408051808201825242830180825282516020601f89018190048102820181019094528781529394509290918281019190889088908190840183828082843760009201829052509390945250506001600160e01b0319861681526001602081815260409092208451815584830151805191945061312493928501920190614483565b509050507fed948300a3694aa01d4a6b258bfd664350193d770c0b51f8387277f6d83ea3b68382878760405180856001600160e01b0319168152602001848152602001806020018281038252848482818152602001925080828437600083820152604051601f909101601f191690920182900397509095505050505050a15050505050565b60408051808201909152600d81526c1b5bdb9d1a08195e1c1a5c9959609a1b60208201528183111561321c5760405162461bcd60e51b81526020600482018181528351602484015283519092839260449091019190850190808383600083156103db5781810151838201526020016103c3565b506040805180820190915260138152726d6f6e7468206e6f7420636c61696d61626c6560681b602082015261044c82106132975760405162461bcd60e51b81526020600482018181528351602484015283519092839260449091019190850190808383600083156103db5781810151838201526020016103c3565b5060085460408051808201909152601781527f6d6f6e7468206e6f7420636c61696d61626c6520796574000000000000000000602082015290600160801b90046001600160801b031682106117e25760405162461bcd60e51b81526020600482018181528351602484015283519092839260449091019190850190808383600083156103db5781810151838201526020016103c3565b6001600160a01b0382166000908152600f6020526040812054819083101561335a575060009050806134e1565b6000838152600d60205260409020548061337b5760008092509250506134e1565b6000848152600b60209081526040808320805482518185028101850190935280835291929091908301828280156133d157602002820191906000526020600020905b8154815260200190600101908083116133bd575b5050505050905060005b600381101561348e5760175482516001600160a01b0390911690634ee2cd7e90899085908590811061340957fe5b60200260200101516040518363ffffffff1660e01b815260040180836001600160a01b031681526020018281526020019250505060206040518083038186803b15801561345557600080fd5b505afa158015613469573d6000803e3d6000fd5b505050506040513d602081101561347f57600080fd5b505194909401936001016133db565b50836134a2576000809350935050506134e1565b6000858152600e6020526040902054848114156134c457509091506134e19050565b8085106134cd57fe5b846134d984828461418b565b945094505050505b9250929050565b3d604051818101604052816000823e8215613501578181f35b8181fd5b60008282111561355c576040805162461bcd60e51b815260206004820152601e60248201527f536166654d6174683a207375627472616374696f6e206f766572666c6f770000604482015290519081900360640190fd5b50900390565b60008082116135b8576040805162461bcd60e51b815260206004820152601a60248201527f536166654d6174683a206469766973696f6e206279207a65726f000000000000604482015290519081900360640190fd5b8183816135c157fe5b049392505050565b60008183106135d85781612f58565b5090919050565b6013546000908190610100900460ff16156136ba576016546040805163a978fb6b60e01b815281516000936001600160a01b03169263a978fb6b9260048082019391829003018186803b15801561363557600080fd5b505afa158015613649573d6000803e3d6000fd5b505050506040513d604081101561365f57600080fd5b5080516020909101519092509050806136ae5760155461368757505042601555506000612e9a565b42601454601554011161369e5760006015556136a9565b600092505050612e9a565b6136b4565b60006015555b50613739565b601660009054906101000a90046001600160a01b03166001600160a01b031663d89601fd6040518163ffffffff1660e01b815260040160206040518083038186803b15801561370857600080fd5b505afa15801561371c573d6000803e3d6000fd5b505050506040513d602081101561373257600080fd5b5051420190505b600083815260096020908152604080832054600a909252808320548151600380825260808201909352929390928484038390049281602001602082028036833701905050905060005b60038110156137ed5760408051602080820198909852808201839052815180820383018152606090910190915280519601959095209460008387816137c357fe5b068483028701019050808383815181106137d957fe5b602090810291909101015250600101613782565b506000878152600b60209081526040909120825161380d9284019061450b565b5061381781614291565b6000888152600e6020526040902055506001945050505050919050565b600061384f613847600184810190613d6b565b61044c6135c9565b905060006139306139006006546138758561044c60035461418b9092919063ffffffff16565b037f00000000000000000000000000000000000000000000000000000000000000006001600160a01b03166329d71f6d6040518163ffffffff1660e01b815260040160206040518083038186803b1580156138cf57600080fd5b505afa1580156138e3573d6000803e3d6000fd5b505050506040513d60208110156138f957600080fd5b50516135c9565b7f00000000000000000000000000000000000000000000000000000000000000006001600160a01b0316316135c9565b6000848152600c60209081526040808320849055600d9091528082208390556006805484019055600880546001600160801b03600189018116600160801b029116179055805163ec8d877760e01b81526004810184905290519293506001600160a01b037f0000000000000000000000000000000000000000000000000000000000000000169263ec8d87779260248084019391929182900301818387803b1580156139db57600080fd5b505af11580156139ef573d6000803e3d6000fd5b50505050505050565b60135460009060ff16612abd57613a28600554613a2260045460065461350590919063ffffffff16565b90613505565b61134b565b60408051808201909152600e81526d726563697069656e74207a65726f60901b60208201526001600160a01b03821661114a5760405162461bcd60e51b81526020600482018181528351602484015283519092839260449091019190850190808383600083156103db5781810151838201526020016103c3565b600080613ab48685614168565b90505b828111613b7f57600080613acb888461332d565b90925090508015613b75576000838152600d6020526040902054613aef9082613505565b6000848152600d6020908152604080832093909355600e90522054613b149083613505565b6000848152600e60209081526040918290209290925580518581529182018390528051958301956001600160a01b03808b1693908c16927fbdb59bec3f0c77052f6645d7365d5008c0affb5d51489a220d01bb1af96897b092918290030190a35b5050600101613ab7565b506001600160a01b0385166000908152600f6020526040902054600183011115611279576001600160a01b0385166000908152600f60205260409020600183019055949350505050565b60008184841115613c1b5760405162461bcd60e51b81526020600482018181528351602484015283519092839260449091019190850190808383600083156103db5781810151838201526020016103c3565b505050900390565b81156117e2578015613c9e576018546040805163b760faf960e01b81526001600160a01b0386811660048301529151919092169163b760faf991859160248082019260009290919082900301818588803b158015613c8057600080fd5b505af1158015613c94573d6000803e3d6000fd5b50505050506117e2565b6040516000906001600160a01b0385169084908381818185875af1925050503d8060008114613ce9576040519150601f19603f3d011682016040523d82523d6000602084013e613cee565b606091505b50509050806040518060400160405280600c81526020016b18db185a5b4819985a5b195960a21b81525090613d645760405162461bcd60e51b81526020600482018181528351602484015283519092839260449091019190850190808383600083156103db5781810151838201526020016103c3565b5050505050565b600082613d7a57506000612f5b565b82820282848281613d8757fe5b0414612f585760405162461bcd60e51b815260040180806020018281038252602181526020018061455b6021913960400191505060405180910390fd5b600080826040516020018080602001828103825283818151815260200191508051906020019080838360005b83811015613e08578181015183820152602001613df0565b50505050905090810190601f168015613e355780820380516001836020036101000a031916815260200191505b50925050506040516020818303038152906040528051906020012090506000805b8651811015613e9d57868181518110613e6b57fe5b6020026020010151831415613e9557858181518110613e8657fe5b60200260200101519150613e9d565b600101613e56565b506001600160a01b038116613ee8576040805162461bcd60e51b815260206004820152600c60248201526b61646472657373207a65726f60a01b604482015290519081900360640190fd5b95945050505050565b7f714f205b2abd25bef1d06a1af944e38c113fe6160375c4e1d6d5cf28848e771955565b613f3c82826040518060400160405280600481526020016315d3985d60e21b815250613dc4565b601860006101000a8154816001600160a01b0302191690836001600160a01b03160217905550613f9682826040518060400160405280601181526020017021b630b4b6a9b2ba3ab826b0b730b3b2b960791b815250613dc4565b601960006101000a8154816001600160a01b0302191690836001600160a01b03160217905550613fed82826040518060400160405280600e81526020016d283934b1b2a9bab136b4ba3a32b960911b815250613dc4565b601660006101000a8154816001600160a01b0302191690836001600160a01b0316021790555061404182826040518060400160405280600b81526020016a10dbdb589a5b995913985d60aa1b815250613dc4565b601780546001600160a01b0319166001600160a01b03929092169190911790555050565b336001600160a01b038316141561407b5761114a565b6019546040805163ce2caa5760e01b81523360048201526001600160a01b03858116602483015284811660448301529151919092169163ce2caa57916064808301926000929190829003018186803b1580156140d657600080fd5b505afa1580156140ea573d6000803e3d6000fd5b505050505050565b60006140fd84613a2d565b61410685612f96565b6000614110612615565b905061411c81856131a9565b61412886868387613aa7565b6004549092506141389083612efe565b6004556129be858385613c23565b6000808383111561415c575060009050806134e1565b50600193919092039150565b6001600160a01b0382166000908152600f6020526040812054612f58908361442f565b60008082116141d4576040805162461bcd60e51b815260206004820152601060248201526f4469766973696f6e206279207a65726f60801b604482015290519081900360640190fd5b836141e157506000611d28565b838302838582816141ee57fe5b041415614207578281816141fe57fe5b04915050611d28565b600083868161421257fe5b049050600084878161422057fe5b069050600085878161422e57fe5b049050600086888161423c57fe5b069050614284614256886142508685613d6b565b90613562565b6111b36142638686613d6b565b6111b36142708987613d6b565b6111b38d61427e8c8b613d6b565b90613d6b565b9998505050505050505050565b6000805b60038110156143365760175483516001600160a01b039091169063981b24d0908590849081106142c157fe5b60200260200101516040518263ffffffff1660e01b81526004018082815260200191505060206040518083038186803b1580156142fd57600080fd5b505afa158015614311573d6000803e3d6000fd5b505050506040513d602081101561432757600080fd5b50519190910190600101614295565b506012545b80156144295780806001900391505060006012828154811061435957fe5b60009182526020822001546001600160a01b031691505b60038110156144225760175485516001600160a01b0390911690634ee2cd7e90849088908590811061439e57fe5b60200260200101516040518363ffffffff1660e01b815260040180836001600160a01b031681526020018281526020019250505060206040518083038186803b1580156143ea57600080fd5b505afa1580156143fe573d6000803e3d6000fd5b505050506040513d602081101561441457600080fd5b505190930392600101614370565b505061433b565b50919050565b6000818310156135d85781612f58565b50805460018160011615610100020316600290046000825580601f106144655750612c64565b601f016020900490600052602060002090810190612c649190614545565b828054600181600116156101000203166002900490600052602060002090601f0160209004810192826144b957600085556144ff565b82601f106144d257805160ff19168380011785556144ff565b828001600101855582156144ff579182015b828111156144ff5782518255916020019190600101906144e4565b50611bdf929150614545565b8280548282559060005260206000209081019282156144ff57916020028201828111156144ff5782518255916020019190600101906144e4565b5b80821115611bdf576000815560010161454656fe536166654d6174683a206d756c7469706c69636174696f6e206f766572666c6f77a264697066735822122022543d3071cf15b8104c47ee38b068d3d5c7ea0cb8d2ded4a86626b7df9dbe7664736f6c63430007060033",
  "linkReferences": {},
  "deployedLinkReferences": {}
}