{
    "_format": "hh-sol-artifact-1",
    "contractName": "InitialAirdrop",
    "sourceName": "contracts/genesis/implementation/InitialAirdrop.sol",
    "abi": [
        {
            "inputs": [
                {
                    "internalType": "address",
                    "name": "_governance",
                    "type": "address"
                }
            ],
            "stateMutability": "nonpayable",
            "type": "constructor"
        },
        {
            "anonymous": false,
            "inputs": [
                {
                    "indexed": false,
                    "internalType": "address",
                    "name": "account",
                    "type": "address"
                }
            ],
            "name": "AccountRemoved",
            "type": "event"
        },
        {
            "anonymous": false,
            "inputs": [
                {
                    "indexed": false,
                    "internalType": "address[]",
                    "name": "accounts",
                    "type": "address[]"
                }
            ],
            "name": "AccountsAdded",
            "type": "event"
        },
        {
            "anonymous": false,
            "inputs": [
                {
                    "indexed": false,
                    "internalType": "uint256",
                    "name": "initialAirdropStartTs",
                    "type": "uint256"
                }
            ],
            "name": "AirdropStart",
            "type": "event"
        },
        {
            "anonymous": false,
            "inputs": [
                {
                    "indexed": true,
                    "internalType": "address",
                    "name": "account",
                    "type": "address"
                },
                {
                    "indexed": false,
                    "internalType": "uint256",
                    "name": "amountWei",
                    "type": "uint256"
                }
            ],
            "name": "AirdropTransferFailure",
            "type": "event"
        },
        {
            "anonymous": false,
            "inputs": [
                {
                    "indexed": false,
                    "internalType": "bytes4",
                    "name": "selector",
                    "type": "bytes4"
                },
                {
                    "indexed": false,
                    "internalType": "uint256",
                    "name": "allowedAfterTimestamp",
                    "type": "uint256"
                },
                {
                    "indexed": false,
                    "internalType": "bytes",
                    "name": "encodedCall",
                    "type": "bytes"
                }
            ],
            "name": "GovernanceCallTimelocked",
            "type": "event"
        },
        {
            "anonymous": false,
            "inputs": [
                {
                    "indexed": false,
                    "internalType": "address",
                    "name": "initialGovernance",
                    "type": "address"
                }
            ],
            "name": "GovernanceInitialised",
            "type": "event"
        },
        {
            "anonymous": false,
            "inputs": [
                {
                    "indexed": false,
                    "internalType": "address",
                    "name": "governanceSettings",
                    "type": "address"
                }
            ],
            "name": "GovernedProductionModeEntered",
            "type": "event"
        },
        {
            "anonymous": false,
            "inputs": [
                {
                    "indexed": false,
                    "internalType": "bytes4",
                    "name": "selector",
                    "type": "bytes4"
                },
                {
                    "indexed": false,
                    "internalType": "uint256",
                    "name": "timestamp",
                    "type": "uint256"
                }
            ],
            "name": "TimelockedGovernanceCallCanceled",
            "type": "event"
        },
        {
            "anonymous": false,
            "inputs": [
                {
                    "indexed": false,
                    "internalType": "bytes4",
                    "name": "selector",
                    "type": "bytes4"
                },
                {
                    "indexed": false,
                    "internalType": "uint256",
                    "name": "timestamp",
                    "type": "uint256"
                }
            ],
            "name": "TimelockedGovernanceCallExecuted",
            "type": "event"
        },
        {
            "inputs": [],
            "name": "DISTRIBUTION_ADDRESS",
            "outputs": [
                {
                    "internalType": "address",
                    "name": "",
                    "type": "address"
                }
            ],
            "stateMutability": "view",
            "type": "function"
        },
        {
            "inputs": [
                {
                    "internalType": "uint256",
                    "name": "",
                    "type": "uint256"
                }
            ],
            "name": "airdropAccounts",
            "outputs": [
                {
                    "internalType": "address",
                    "name": "",
                    "type": "address"
                }
            ],
            "stateMutability": "view",
            "type": "function"
        },
        {
            "inputs": [],
            "name": "airdropAccountsLength",
            "outputs": [
                {
                    "internalType": "uint256",
                    "name": "",
                    "type": "uint256"
                }
            ],
            "stateMutability": "view",
            "type": "function"
        },
        {
            "inputs": [
                {
                    "internalType": "address",
                    "name": "",
                    "type": "address"
                }
            ],
            "name": "airdropAmountsWei",
            "outputs": [
                {
                    "internalType": "uint256",
                    "name": "",
                    "type": "uint256"
                }
            ],
            "stateMutability": "view",
            "type": "function"
        },
        {
            "inputs": [
                {
                    "internalType": "bytes4",
                    "name": "_selector",
                    "type": "bytes4"
                }
            ],
            "name": "cancelGovernanceCall",
            "outputs": [],
            "stateMutability": "nonpayable",
            "type": "function"
        },
        {
            "inputs": [
                {
                    "internalType": "bytes4",
                    "name": "_selector",
                    "type": "bytes4"
                }
            ],
            "name": "executeGovernanceCall",
            "outputs": [],
            "stateMutability": "nonpayable",
            "type": "function"
        },
        {
            "inputs": [],
            "name": "governance",
            "outputs": [
                {
                    "internalType": "address",
                    "name": "",
                    "type": "address"
                }
            ],
            "stateMutability": "view",
            "type": "function"
        },
        {
            "inputs": [],
            "name": "governanceSettings",
            "outputs": [
                {
                    "internalType": "contract IGovernanceSettings",
                    "name": "",
                    "type": "address"
                }
            ],
            "stateMutability": "view",
            "type": "function"
        },
        {
            "inputs": [],
            "name": "initialAirdropStartTs",
            "outputs": [
                {
                    "internalType": "uint256",
                    "name": "",
                    "type": "uint256"
                }
            ],
            "stateMutability": "view",
            "type": "function"
        },
        {
            "inputs": [
                {
                    "internalType": "address",
                    "name": "_initialGovernance",
                    "type": "address"
                }
            ],
            "name": "initialise",
            "outputs": [],
            "stateMutability": "nonpayable",
            "type": "function"
        },
        {
            "inputs": [],
            "name": "latestAirdropStartTs",
            "outputs": [
                {
                    "internalType": "uint256",
                    "name": "",
                    "type": "uint256"
                }
            ],
            "stateMutability": "view",
            "type": "function"
        },
        {
            "inputs": [],
            "name": "nextAirdropAccountIndexToTransfer",
            "outputs": [
                {
                    "internalType": "uint256",
                    "name": "",
                    "type": "uint256"
                }
            ],
            "stateMutability": "view",
            "type": "function"
        },
        {
            "inputs": [],
            "name": "productionMode",
            "outputs": [
                {
                    "internalType": "bool",
                    "name": "",
                    "type": "bool"
                }
            ],
            "stateMutability": "view",
            "type": "function"
        },
        {
            "inputs": [
                {
                    "internalType": "address",
                    "name": "_addressToRemove",
                    "type": "address"
                },
                {
                    "internalType": "bool",
                    "name": "_sendAirdropToAddress",
                    "type": "bool"
                }
            ],
            "name": "removeAirdropAccount",
            "outputs": [],
            "stateMutability": "nonpayable",
            "type": "function"
        },
        {
            "inputs": [
                {
                    "internalType": "address[]",
                    "name": "_accounts",
                    "type": "address[]"
                },
                {
                    "internalType": "uint256[]",
                    "name": "_balances",
                    "type": "uint256[]"
                }
            ],
            "name": "setAirdropBalances",
            "outputs": [],
            "stateMutability": "nonpayable",
            "type": "function"
        },
        {
            "inputs": [
                {
                    "internalType": "uint256",
                    "name": "_initialAirdropStartTs",
                    "type": "uint256"
                }
            ],
            "name": "setAirdropStart",
            "outputs": [],
            "stateMutability": "nonpayable",
            "type": "function"
        },
        {
            "inputs": [
                {
                    "internalType": "uint256",
                    "name": "_latestAirdropStartTs",
                    "type": "uint256"
                }
            ],
            "name": "setLatestAirdropStart",
            "outputs": [],
            "stateMutability": "nonpayable",
            "type": "function"
        },
        {
            "inputs": [],
            "name": "switchToProductionMode",
            "outputs": [],
            "stateMutability": "nonpayable",
            "type": "function"
        },
        {
            "inputs": [
                {
                    "internalType": "bytes4",
                    "name": "",
                    "type": "bytes4"
                }
            ],
            "name": "timelockedCalls",
            "outputs": [
                {
                    "internalType": "uint256",
                    "name": "allowedAfterTimestamp",
                    "type": "uint256"
                },
                {
                    "internalType": "bytes",
                    "name": "encodedCall",
                    "type": "bytes"
                }
            ],
            "stateMutability": "view",
            "type": "function"
        },
        {
            "inputs": [],
            "name": "totalInitialAirdropWei",
            "outputs": [
                {
                    "internalType": "uint256",
                    "name": "",
                    "type": "uint256"
                }
            ],
            "stateMutability": "view",
            "type": "function"
        },
        {
            "inputs": [],
            "name": "totalTransferredAirdropWei",
            "outputs": [
                {
                    "internalType": "uint256",
                    "name": "",
                    "type": "uint256"
                }
            ],
            "stateMutability": "view",
            "type": "function"
        },
        {
            "inputs": [],
            "name": "transferAirdrop",
            "outputs": [],
            "stateMutability": "nonpayable",
            "type": "function"
        },
        {
            "inputs": [
                {
                    "internalType": "address",
                    "name": "_recipient",
                    "type": "address"
                }
            ],
            "name": "withdrawUndistributedFunds",
            "outputs": [],
            "stateMutability": "nonpayable",
            "type": "function"
        },
        {
            "stateMutability": "payable",
            "type": "receive"
        }
    ],
    "bytecode": "0x60806040523480156200001157600080fd5b506040516200259738038062002597833981810160405260208110156200003757600080fd5b505180806001600160a01b0381161562000056576200005681620000b3565b506001600160a01b038116620000a6576040805162461bcd60e51b815260206004820152601060248201526f5f676f7665726e616e6365207a65726f60801b604482015290519081900360640190fd5b5050600160025562000176565b600054600160a01b900460ff161562000113576040805162461bcd60e51b815260206004820152601460248201527f696e697469616c6973656420213d2066616c7365000000000000000000000000604482015290519081900360640190fd5b60008054600160a01b60ff60a01b19909116176001600160a01b0319166001600160a01b03831690811790915560408051918252517f9789733827840833afc031fb2ef9ab6894271f77bad2085687cf4ae5c7bee4db916020908290030190a150565b61241180620001866000396000f3fe6080604052600436106101445760003560e01c806374e6310e116100b6578063c602a77e1161006f578063c602a77e14610579578063ce592dfb1461058e578063d5261971146105a3578063e17f212e146105b8578063ea1e6321146105e1578063f5a9838314610614576101aa565b806374e6310e146104045780637800ef72146104b757806384b488dc146104cc5780638dc7b1a91461050757806390568f81146105315780639d6a890f14610546576101aa565b80635dcb0170116101085780635dcb0170146102795780635ff270791461028e57806361235585146102c257806362354e031461039157806367fc4029146103a65780636de80541146103da576101aa565b80633f630c3a146101af5780633ff27863146101d657806346a549b5146102095780634a4b698a1461021e5780635aa6e67514610264576101aa565b366101aa57610151610629565b6001600160a01b0316336001600160a01b0316146101a8576040805162461bcd60e51b815260206004820152600f60248201526e6f6e6c7920676f7665726e616e636560881b604482015290519081900360640190fd5b005b600080fd5b3480156101bb57600080fd5b506101c46106be565b60408051918252519081900360200190f35b3480156101e257600080fd5b506101a8600480360360208110156101f957600080fd5b50356001600160a01b03166106c4565b34801561021557600080fd5b506101c461090f565b34801561022a57600080fd5b506102486004803603602081101561024157600080fd5b5035610915565b604080516001600160a01b039092168252519081900360200190f35b34801561027057600080fd5b50610248610629565b34801561028557600080fd5b506101c461093f565b34801561029a57600080fd5b506101a8600480360360208110156102b157600080fd5b50356001600160e01b031916610945565b3480156102ce57600080fd5b506101a8600480360360408110156102e557600080fd5b81019060208101813564010000000081111561030057600080fd5b82018360208201111561031257600080fd5b8035906020019184602083028401116401000000008311171561033457600080fd5b91939092909160208101903564010000000081111561035257600080fd5b82018360208201111561036457600080fd5b8035906020019184602083028401116401000000008311171561038657600080fd5b509092509050610c9a565b34801561039d57600080fd5b50610248610ff8565b3480156103b257600080fd5b506101a8600480360360208110156103c957600080fd5b50356001600160e01b031916611003565b3480156103e657600080fd5b506101a8600480360360208110156103fd57600080fd5b50356110eb565b34801561041057600080fd5b506104386004803603602081101561042757600080fd5b50356001600160e01b0319166112ea565b6040518083815260200180602001828103825283818151815260200191508051906020019080838360005b8381101561047b578181015183820152602001610463565b50505050905090810190601f1680156104a85780820380516001836020036101000a031916815260200191505b50935050505060405180910390f35b3480156104c357600080fd5b50610248611390565b3480156104d857600080fd5b506101a8600480360360408110156104ef57600080fd5b506001600160a01b03813516906020013515156113a8565b34801561051357600080fd5b506101a86004803603602081101561052a57600080fd5b50356118c8565b34801561053d57600080fd5b506101c4611974565b34801561055257600080fd5b506101a86004803603602081101561056957600080fd5b50356001600160a01b031661197a565b34801561058557600080fd5b506101c4611a33565b34801561059a57600080fd5b506101c4611a39565b3480156105af57600080fd5b506101a8611a3f565b3480156105c457600080fd5b506105cd611d06565b604080519115158252519081900360200190f35b3480156105ed57600080fd5b506101c46004803603602081101561060457600080fd5b50356001600160a01b0316611d16565b34801561062057600080fd5b506101a8611d28565b60008054600160a81b900460ff1661064c576000546001600160a01b03166106b9565b60076001609c1b016001600160a01b031663732524946040518163ffffffff1660e01b815260040160206040518083038186803b15801561068c57600080fd5b505afa1580156106a0573d6000803e3d6000fd5b505050506040513d60208110156106b657600080fd5b50515b905090565b60065481565b600054600160b01b900460ff16806106e65750600054600160a81b900460ff16155b15610901576106f3611de2565b60075415801590610705575042600754105b6040518060400160405280600b81526020016a1b9bdd081cdd185c9d195960aa1b815250906107b25760405162461bcd60e51b81526004018080602001828103825283818151815260200191508051906020019080838360005b8381101561077757818101518382015260200161075f565b50505050905090810190601f1680156107a45780820380516001836020036101000a031916815260200191505b509250505060405180910390fd5b50600354600a546040805180820190915260138152721b9bdd081e595d08191a5cdd1c9a589d5d1959606a1b602082015291146108305760405162461bcd60e51b815260206004820181815283516024840152835190928392604490910191908501908083836000831561077757818101518382015260200161075f565b506040516000906001600160a01b0383169047908381818185875af1925050503d806000811461087c576040519150601f19603f3d011682016040523d82523d6000602084013e610881565b606091505b50509050806040518060400160405280600f81526020016e1d1c985b9cd9995c8819985a5b1959608a1b815250906108fa5760405162461bcd60e51b815260206004820181815283516024840152835190928392604490910191908501908083836000831561077757818101518382015260200161075f565b505061090c565b61090c600036611e19565b50565b60085481565b6003818154811061092557600080fd5b6000918252602090912001546001600160a01b0316905081565b60075481565b60408051630debfda360e41b8152336004820152905160076001609c1b019163debfda30916024808301926020929190829003018186803b15801561098957600080fd5b505afa15801561099d573d6000803e3d6000fd5b505050506040513d60208110156109b357600080fd5b50516109f6576040805162461bcd60e51b815260206004820152600d60248201526c37b7363c9032bc32b1baba37b960991b604482015290519081900360640190fd5b6001600160e01b0319811660009081526001602052604090208054610a62576040805162461bcd60e51b815260206004820152601a60248201527f74696d656c6f636b3a20696e76616c69642073656c6563746f72000000000000604482015290519081900360640190fd5b8054421015610ab8576040805162461bcd60e51b815260206004820152601960248201527f74696d656c6f636b3a206e6f7420616c6c6f7765642079657400000000000000604482015290519081900360640190fd5b6000816001018054600181600116156101000203166002900480601f016020809104026020016040519081016040528092919081815260200182805460018160011615610100020316600290048015610b525780601f10610b2757610100808354040283529160200191610b52565b820191906000526020600020905b815481529060010190602001808311610b3557829003601f168201915b5050506001600160e01b0319861660009081526001602081905260408220828155949550909250610b8691508301826122d5565b50506000805460ff60b01b1916600160b01b178155604051825130918491819060208401908083835b60208310610bce5780518252601f199092019160209182019101610baf565b6001836020036101000a0380198251168184511680821785525050505050509050019150506000604051808303816000865af19150503d8060008114610c30576040519150601f19603f3d011682016040523d82523d6000602084013e610c35565b606091505b50506000805460ff60b01b19169055604080516001600160e01b03198716815242602082015281519293507fa7326b57fc9cfe267aaea5e7f0b01757154d265620a0585819416ee9ddd2c438929081900390910190a1610c9481611f9c565b50505050565b600054600160b01b900460ff1680610cbc5750600054600160a81b900460ff16155b15610fed57610cc9611de2565b604080518082019091526008815267746f6f206d616e7960c01b60208201526103e8841115610d395760405162461bcd60e51b815260206004820181815283516024840152835190928392604490910191908501908083836000831561077757818101518382015260200161075f565b5060408051808201909152601781527f617272617973206c656e67746873206d69736d617463680000000000000000006020820152838214610dbc5760405162461bcd60e51b815260206004820181815283516024840152835190928392604490910191908501908083836000831561077757818101518382015260200161075f565b5060075460408051808201909152600f81526e185b1c9958591e481cdd185c9d1959608a1b60208201529015610e335760405162461bcd60e51b815260206004820181815283516024840152835190928392604490910191908501908083836000831561077757818101518382015260200161075f565b5060006005600086866000818110610e4757fe5b905060200201356001600160a01b03166001600160a01b03166001600160a01b03168152602001908152602001600020541115610e8357610fe8565b6003546000805b61ffff8116861115610f6e57600087878361ffff16818110610ea857fe5b905060200201356001600160a01b031690506000610eeb6105dc61271089898761ffff16818110610ed557fe5b90506020020135611fb99092919063ffffffff16565b6003805460018082019092557fc2575a0e9e593c00f959f8c92f12db2869c3395a3b0502d05e2516446f71f85b0180546001600160a01b0319166001600160a01b0386169081179091556000908152600460209081526040808320999093019889905560059052208190559050610f6284826120c7565b93505050600101610e8a565b50600654610f7c90826120c7565b6006819055507fc21490756c6f0185a8ad2363084fd0a45b06707979f77786b5e681bddc1d2fa1868660405180806020018281038252848482818152602001925060200280828437600083820152604051601f909101601f19169092018290039550909350505050a150505b610c94565b610c94600036611e19565b60076001609c1b0181565b61100b61212a565b6001600160e01b03198116600090815260016020526040902054611076576040805162461bcd60e51b815260206004820152601a60248201527f74696d656c6f636b3a20696e76616c69642073656c6563746f72000000000000604482015290519081900360640190fd5b604080516001600160e01b03198316815242602082015281517f7735b2391c38a81419c513e30ca578db7158eadd7101511b23e221c654d19cf8929181900390910190a16001600160e01b031981166000908152600160208190526040822082815591906110e6908301826122d5565b505050565b600054600160b01b900460ff168061110d5750600054600160a81b900460ff16155b156109015761111a611de2565b600754158061112a575042600754115b6040518060400160405280600f81526020016e185b1c9958591e481cdd185c9d1959608a1b8152509061119e5760405162461bcd60e51b815260206004820181815283516024840152835190928392604490910191908501908083836000831561077757818101518382015260200161075f565b50806007541080156111b257506008548111155b60405180604001604052806015815260200174077726f6e672073746172742074696d657374616d7605c1b8152509061122c5760405162461bcd60e51b815260206004820181815283516024840152835190928392604490910191908501908083836000831561077757818101518382015260200161075f565b5060078190556040805182815290517fd17095b0cb6319c5430ce8553f9ce78001789e1f94f47f377653a16198f2a90b9181900360200190a14761126e612189565b11156040518060400160405280600f81526020016e62616c616e636520746f6f206c6f7760881b815250906112e45760405162461bcd60e51b815260206004820181815283516024840152835190928392604490910191908501908083836000831561077757818101518382015260200161075f565b5061090c565b600160208181526000928352604092839020805481840180548651600296821615610100026000190190911695909504601f810185900485028601850190965285855290949193929091908301828280156113865780601f1061135b57610100808354040283529160200191611386565b820191906000526020600020905b81548152906001019060200180831161136957829003601f168201915b5050505050905082565b73628b0e1a5215fb2610347eedbf9cee68043d7c9281565b600054600160b01b900460ff16806113ca5750600054600160a81b900460ff16155b156118b9576113d7611de2565b60028054141561142e576040805162461bcd60e51b815260206004820152601f60248201527f5265656e7472616e637947756172643a207265656e7472616e742063616c6c00604482015290519081900360640190fd5b6002805560075460408051808201909152600f81526e185b1c9958591e481cdd185c9d1959608a1b60208201529042106114a95760405162461bcd60e51b815260206004820181815283516024840152835190928392604490910191908501908083836000831561077757818101518382015260200161075f565b506001600160a01b0382166000908152600460205260409020548061153257604080518082018252600f81526e6163636f756e74206d697373696e6760881b6020808301918252925162461bcd60e51b8152600481019384528251602482015282519293928392604490920191908083836000831561077757818101518382015260200161075f565b6003548110156115ba576003805460009190600019810190811061155257fe5b600091825260209091200154600380546001600160a01b0390921692508291600019850190811061157f57fe5b600091825260208083209190910180546001600160a01b0319166001600160a01b039485161790559290911681526004909152604090208190555b6001600160a01b03831660009081526005602052604090205460038054806115de57fe5b60008281526020808220830160001990810180546001600160a01b03191690559092019092556001600160a01b03861682526004815260408083208390556005909152812055821561170a5760095461163790826120c7565b6009556040516000906001600160a01b0386169083908381818185875af1925050503d8060008114611685576040519150601f19603f3d011682016040523d82523d6000602084013e61168a565b606091505b50509050806040518060400160405280600f81526020016e1d1c985b9cd9995c8819985a5b1959608a1b815250906117035760405162461bcd60e51b815260206004820181815283516024840152835190928392604490910191908501908083836000831561077757818101518382015260200161075f565b50506117f1565b60065461171790826121a2565b60065560405160009073628b0e1a5215fb2610347eedbf9cee68043d7c929083908381818185875af1925050503d8060008114611770576040519150601f19603f3d011682016040523d82523d6000602084013e611775565b606091505b50509050806040518060400160405280600f81526020016e1d1c985b9cd9995c8819985a5b1959608a1b815250906117ee5760405162461bcd60e51b815260206004820181815283516024840152835190928392604490910191908501908083836000831561077757818101518382015260200161075f565b50505b604080516001600160a01b038616815290517fbf2e373b8263f701e10efcac80ea442afcb29c6852b3a42b0b46cc8edaaf54a79181900360200190a1505060016002554761183d612189565b11156040518060400160405280600f81526020016e62616c616e636520746f6f206c6f7760881b815250906118b35760405162461bcd60e51b815260206004820181815283516024840152835190928392604490910191908501908083836000831561077757818101518382015260200161075f565b506118c4565b6118c4600036611e19565b5050565b600054600160b01b900460ff16806118ea5750600054600160a81b900460ff16155b15610901576118f7611de2565b60085460408051808201909152600b81526a185b1c9958591e481cd95d60aa1b602082015290156119695760405162461bcd60e51b815260206004820181815283516024840152835190928392604490910191908501908083836000831561077757818101518382015260200161075f565b50600881905561090c565b60095481565b600054600160a01b900460ff16156119d0576040805162461bcd60e51b8152602060048201526014602482015273696e697469616c6973656420213d2066616c736560601b604482015290519081900360640190fd5b60008054600160a01b60ff60a01b19909116176001600160a01b0319166001600160a01b03831690811790915560408051918252517f9789733827840833afc031fb2ef9ab6894271f77bad2085687cf4ae5c7bee4db916020908290030190a150565b600a5481565b60035490565b60075415801590611a51575042600754105b6040518060400160405280600b81526020016a1b9bdd081cdd185c9d195960aa1b81525090611ac15760405162461bcd60e51b815260206004820181815283516024840152835190928392604490910191908501908083836000831561077757818101518382015260200161075f565b50600280541415611b19576040805162461bcd60e51b815260206004820152601f60248201527f5265656e7472616e637947756172643a207265656e7472616e742063616c6c00604482015290519081900360640190fd5b60028055600a54600354600091611b35916032909101906121ff565b600a549091506000905b82811015611c6d57600060038281548110611b5657fe5b60009182526020808320909101546001600160a01b0316808352600582526040808420805490859055600490935283209290925560038054929350909184908110611b9d57fe5b6000918252602082200180546001600160a01b03191690556040516001600160a01b0384169061520890849084818181858888f193505050503d8060008114611c02576040519150601f19603f3d011682016040523d82523d6000602084013e611c07565b606091505b505090508015611c2257611c1b85836120c7565b9450611c62565b6040805183815290516001600160a01b038516917fa63e265bae965e6aae4283d17bf7ba298580ba5924f711fe7da1a7ee4ae19ef5919081900360200190a25b505050600101611b3f565b50600954611c7b90826120c7565b60095550600a55600160025547611c90612189565b11156040518060400160405280600f81526020016e62616c616e636520746f6f206c6f7760881b8152509061090c5760405162461bcd60e51b815260206004820181815283516024840152835190928392604490910191908501908083836000831561077757818101518382015260200161075f565b600054600160a81b900460ff1681565b60056020526000908152604090205481565b611d3061212a565b600054600160a81b900460ff1615611d8f576040805162461bcd60e51b815260206004820152601a60248201527f616c726561647920696e2070726f64756374696f6e206d6f6465000000000000604482015290519081900360640190fd5b60008054600161ff0160a01b031916600160a81b1790556040805160076001609c1b01815290517f83af113638b5422f9e977cebc0aaf0eaf2188eb9a8baae7f9d46c42b33a1560c9181900360200190a1565b600054600160b01b900460ff1615611e0f57333014611dfd57fe5b6000805460ff60b01b19169055611e17565b611e1761212a565b565b611e2161212a565b600082359050600060076001609c1b016001600160a01b0316636221a54b6040518163ffffffff1660e01b815260040160206040518083038186803b158015611e6957600080fd5b505afa158015611e7d573d6000803e3d6000fd5b505050506040513d6020811015611e9357600080fd5b505160408051808201825242830180825282516020601f89018190048102820181019094528781529394509290918281019190889088908190840183828082843760009201829052509390945250506001600160e01b03198616815260016020818152604090922084518155848301518051919450611f1793928501920190612319565b509050507fed948300a3694aa01d4a6b258bfd664350193d770c0b51f8387277f6d83ea3b68382878760405180856001600160e01b0319168152602001848152602001806020018281038252848482818152602001925080828437600083820152604051601f909101601f191690920182900397509095505050505050a15050505050565b3d604051818101604052816000823e8215611fb5578181f35b8181fd5b6000808211612002576040805162461bcd60e51b815260206004820152601060248201526f4469766973696f6e206279207a65726f60801b604482015290519081900360640190fd5b8361200f575060006120c0565b8383028385828161201c57fe5b0414156120355782818161202c57fe5b049150506120c0565b600083868161204057fe5b049050600084878161204e57fe5b069050600085878161205c57fe5b049050600086888161206a57fe5b0690506120b86120848861207e8685612215565b9061226e565b6120b26120918686612215565b6120b261209e8987612215565b6120b28d6120ac8c8b612215565b90612215565b906120c7565b955050505050505b9392505050565b600082820183811015612121576040805162461bcd60e51b815260206004820152601b60248201527f536166654d6174683a206164646974696f6e206f766572666c6f770000000000604482015290519081900360640190fd5b90505b92915050565b612132610629565b6001600160a01b0316336001600160a01b031614611e17576040805162461bcd60e51b815260206004820152600f60248201526e6f6e6c7920676f7665726e616e636560881b604482015290519081900360640190fd5b60006106b96009546006546121a290919063ffffffff16565b6000828211156121f9576040805162461bcd60e51b815260206004820152601e60248201527f536166654d6174683a207375627472616374696f6e206f766572666c6f770000604482015290519081900360640190fd5b50900390565b600081831061220e5781612121565b5090919050565b60008261222457506000612124565b8282028284828161223157fe5b04146121215760405162461bcd60e51b81526004018080602001828103825260218152602001806123bb6021913960400191505060405180910390fd5b60008082116122c4576040805162461bcd60e51b815260206004820152601a60248201527f536166654d6174683a206469766973696f6e206279207a65726f000000000000604482015290519081900360640190fd5b8183816122cd57fe5b049392505050565b50805460018160011615610100020316600290046000825580601f106122fb575061090c565b601f01602090049060005260206000209081019061090c91906123a5565b828054600181600116156101000203166002900490600052602060002090601f01602090048101928261234f5760008555612395565b82601f1061236857805160ff1916838001178555612395565b82800160010185558215612395579182015b8281111561239557825182559160200191906001019061237a565b506123a19291506123a5565b5090565b5b808211156123a157600081556001016123a656fe536166654d6174683a206d756c7469706c69636174696f6e206f766572666c6f77a26469706673582212207a475c623dc61c3e1b9ed67ed3fd3de638ee8ea0cdd1c8f305d66f71d16d3b0464736f6c63430007060033",
    "linkReferences": {},
    "deployedLinkReferences": {}
}