{
  "_format": "hh-sol-artifact-1",
  "contractName": "AddressUpdater",
  "sourceName": "contracts/addressUpdater/implementation/AddressUpdater.sol",
  "abi": [
    {
      "inputs": [
        {
          "internalType": "address",
          "name": "_governance",
          "type": "address"
        }
      ],
      "stateMutability": "nonpayable",
      "type": "constructor"
    },
    {
      "anonymous": false,
      "inputs": [
        {
          "indexed": false,
          "internalType": "bytes4",
          "name": "selector",
          "type": "bytes4"
        },
        {
          "indexed": false,
          "internalType": "uint256",
          "name": "allowedAfterTimestamp",
          "type": "uint256"
        },
        {
          "indexed": false,
          "internalType": "bytes",
          "name": "encodedCall",
          "type": "bytes"
        }
      ],
      "name": "GovernanceCallTimelocked",
      "type": "event"
    },
    {
      "anonymous": false,
      "inputs": [
        {
          "indexed": false,
          "internalType": "address",
          "name": "initialGovernance",
          "type": "address"
        }
      ],
      "name": "GovernanceInitialised",
      "type": "event"
    },
    {
      "anonymous": false,
      "inputs": [
        {
          "indexed": false,
          "internalType": "address",
          "name": "governanceSettings",
          "type": "address"
        }
      ],
      "name": "GovernedProductionModeEntered",
      "type": "event"
    },
    {
      "anonymous": false,
      "inputs": [
        {
          "indexed": false,
          "internalType": "bytes4",
          "name": "selector",
          "type": "bytes4"
        },
        {
          "indexed": false,
          "internalType": "uint256",
          "name": "timestamp",
          "type": "uint256"
        }
      ],
      "name": "TimelockedGovernanceCallCanceled",
      "type": "event"
    },
    {
      "anonymous": false,
      "inputs": [
        {
          "indexed": false,
          "internalType": "bytes4",
          "name": "selector",
          "type": "bytes4"
        },
        {
          "indexed": false,
          "internalType": "uint256",
          "name": "timestamp",
          "type": "uint256"
        }
      ],
      "name": "TimelockedGovernanceCallExecuted",
      "type": "event"
    },
    {
      "inputs": [
        {
          "internalType": "string[]",
          "name": "_contractNames",
          "type": "string[]"
        },
        {
          "internalType": "address[]",
          "name": "_contractAddresses",
          "type": "address[]"
        }
      ],
      "name": "addOrUpdateContractNamesAndAddresses",
      "outputs": [],
      "stateMutability": "nonpayable",
      "type": "function"
    },
    {
      "inputs": [
        {
          "internalType": "bytes4",
          "name": "_selector",
          "type": "bytes4"
        }
      ],
      "name": "cancelGovernanceCall",
      "outputs": [],
      "stateMutability": "nonpayable",
      "type": "function"
    },
    {
      "inputs": [
        {
          "internalType": "bytes4",
          "name": "_selector",
          "type": "bytes4"
        }
      ],
      "name": "executeGovernanceCall",
      "outputs": [],
      "stateMutability": "nonpayable",
      "type": "function"
    },
    {
      "inputs": [
        {
          "internalType": "string",
          "name": "_name",
          "type": "string"
        }
      ],
      "name": "getContractAddress",
      "outputs": [
        {
          "internalType": "address",
          "name": "",
          "type": "address"
        }
      ],
      "stateMutability": "view",
      "type": "function"
    },
    {
      "inputs": [
        {
          "internalType": "bytes32",
          "name": "_nameHash",
          "type": "bytes32"
        }
      ],
      "name": "getContractAddressByHash",
      "outputs": [
        {
          "internalType": "address",
          "name": "",
          "type": "address"
        }
      ],
      "stateMutability": "view",
      "type": "function"
    },
    {
      "inputs": [
        {
          "internalType": "string[]",
          "name": "_names",
          "type": "string[]"
        }
      ],
      "name": "getContractAddresses",
      "outputs": [
        {
          "internalType": "address[]",
          "name": "",
          "type": "address[]"
        }
      ],
      "stateMutability": "view",
      "type": "function"
    },
    {
      "inputs": [
        {
          "internalType": "bytes32[]",
          "name": "_nameHashes",
          "type": "bytes32[]"
        }
      ],
      "name": "getContractAddressesByHash",
      "outputs": [
        {
          "internalType": "address[]",
          "name": "",
          "type": "address[]"
        }
      ],
      "stateMutability": "view",
      "type": "function"
    },
    {
      "inputs": [],
      "name": "getContractNamesAndAddresses",
      "outputs": [
        {
          "internalType": "string[]",
          "name": "_contractNames",
          "type": "string[]"
        },
        {
          "internalType": "address[]",
          "name": "_contractAddresses",
          "type": "address[]"
        }
      ],
      "stateMutability": "view",
      "type": "function"
    },
    {
      "inputs": [],
      "name": "governance",
      "outputs": [
        {
          "internalType": "address",
          "name": "",
          "type": "address"
        }
      ],
      "stateMutability": "view",
      "type": "function"
    },
    {
      "inputs": [],
      "name": "governanceSettings",
      "outputs": [
        {
          "internalType": "contract IGovernanceSettings",
          "name": "",
          "type": "address"
        }
      ],
      "stateMutability": "view",
      "type": "function"
    },
    {
      "inputs": [
        {
          "internalType": "address",
          "name": "_initialGovernance",
          "type": "address"
        }
      ],
      "name": "initialise",
      "outputs": [],
      "stateMutability": "nonpayable",
      "type": "function"
    },
    {
      "inputs": [],
      "name": "productionMode",
      "outputs": [
        {
          "internalType": "bool",
          "name": "",
          "type": "bool"
        }
      ],
      "stateMutability": "view",
      "type": "function"
    },
    {
      "inputs": [
        {
          "internalType": "string[]",
          "name": "_contractNames",
          "type": "string[]"
        }
      ],
      "name": "removeContracts",
      "outputs": [],
      "stateMutability": "nonpayable",
      "type": "function"
    },
    {
      "inputs": [],
      "name": "switchToProductionMode",
      "outputs": [],
      "stateMutability": "nonpayable",
      "type": "function"
    },
    {
      "inputs": [
        {
          "internalType": "bytes4",
          "name": "",
          "type": "bytes4"
        }
      ],
      "name": "timelockedCalls",
      "outputs": [
        {
          "internalType": "uint256",
          "name": "allowedAfterTimestamp",
          "type": "uint256"
        },
        {
          "internalType": "bytes",
          "name": "encodedCall",
          "type": "bytes"
        }
      ],
      "stateMutability": "view",
      "type": "function"
    },
    {
      "inputs": [
        {
          "internalType": "string[]",
          "name": "_contractNames",
          "type": "string[]"
        },
        {
          "internalType": "address[]",
          "name": "_contractAddresses",
          "type": "address[]"
        },
        {
          "internalType": "contract IIAddressUpdatable[]",
          "name": "_contractsToUpdate",
          "type": "address[]"
        }
      ],
      "name": "update",
      "outputs": [],
      "stateMutability": "nonpayable",
      "type": "function"
    },
    {
      "inputs": [
        {
          "internalType": "contract IIAddressUpdatable[]",
          "name": "_contractsToUpdate",
          "type": "address[]"
        }
      ],
      "name": "updateContractAddresses",
      "outputs": [],
      "stateMutability": "nonpayable",
      "type": "function"
    }
  ],
  "bytecode": "0x60806040523480156200001157600080fd5b506040516200203a3803806200203a83398101604081905262000034916200016c565b80806001600160a01b0381161562000051576200005181620000a9565b506001600160a01b038116620000a1576040805162461bcd60e51b815260206004820152601060248201526f5f676f7665726e616e6365207a65726f60801b604482015290519081900360640190fd5b50506200019c565b600054600160a01b900460ff161562000109576040805162461bcd60e51b815260206004820152601460248201527f696e697469616c6973656420213d2066616c7365000000000000000000000000604482015290519081900360640190fd5b60008054600160a01b60ff60a01b19909116176001600160a01b0319166001600160a01b03831690811790915560408051918252517f9789733827840833afc031fb2ef9ab6894271f77bad2085687cf4ae5c7bee4db916020908290030190a150565b6000602082840312156200017e578081fd5b81516001600160a01b038116811462000195578182fd5b9392505050565b611e8e80620001ac6000396000f3fe608060405234801561001057600080fd5b506004361061010b5760003560e01c806367fc4029116100a25780639933dba6116100715780639933dba6146102145780639d6a890f14610227578063e17f212e1461023a578063ee6f63c31461024f578063f5a98383146102625761010b565b806367fc4029146101ba57806370d44f28146101cd57806374e6310e146101e05780638246e467146102015761010b565b80635aa6e675116100de5780635aa6e675146101775780635e11e2d11461017f5780635ff270791461019f57806362354e03146101b25761010b565b806304433bbc14610110578063159354a2146101395780631b0e29601461014c5780632f26c5c314610161575b600080fd5b61012361011e366004611b9c565b61026a565b6040516101309190611c96565b60405180910390f35b610123610147366004611b5c565b6102d0565b61015f61015a3660046119e6565b6102eb565b005b6101696102ff565b604051610130929190611d14565b6101236104a4565b61019261018d3660046119a7565b610546565b6040516101309190611caa565b61015f6101ad366004611b74565b610605565b610123610967565b61015f6101c8366004611b74565b61097f565b61015f6101db366004611a47565b610a67565b6101f36101ee366004611b74565b610caf565b604051610130929190611da6565b61015f61020f366004611a79565b610d55565b61015f610222366004611ad9565b610da2565b61015f610235366004611984565b610df4565b610242610ead565b6040516101309190611d88565b61019261025d366004611a20565b610ebd565b61015f610fbc565b6000600360006102af85858080601f01602080910402602001604051908101604052809392919081815260200183838082843760009201919091525061108392505050565b81526020810191909152604001600020546001600160a01b03169392505050565b6000908152600360205260409020546001600160a01b031690565b6102f36110b3565b6102fc81611114565b50565b6060806002805480602002602001604051908101604052809291908181526020016000905b828210156103cf5760008481526020908190208301805460408051601f60026000196101006001871615020190941693909304928301859004850281018501909152818152928301828280156103bb5780601f10610390576101008083540402835291602001916103bb565b820191906000526020600020905b81548152906001019060200180831161039e57829003601f168201915b505050505081526020019060010190610324565b50508251929450829150506001600160401b03811180156103ef57600080fd5b50604051908082528060200260200182016040528015610419578160200160208202803683370190505b5091505b801561049f578080600190039150506003600061044c85848151811061043f57fe5b6020026020010151611083565b815260200190815260200160002060009054906101000a90046001600160a01b031682828151811061047a57fe5b60200260200101906001600160a01b031690816001600160a01b03168152505061041d565b509091565b60008054600160a81b900460ff166104c7576000546001600160a01b0316610541565b73183faff6997c98a812a3b98748fc80241d08f3126001600160a01b031663732524946040518163ffffffff1660e01b815260040160206040518083038186803b15801561051457600080fd5b505afa158015610528573d6000803e3d6000fd5b505050506040513d602081101561053e57600080fd5b50515b905090565b60606000826001600160401b038111801561056057600080fd5b5060405190808252806020026020018201604052801561058a578160200160208202803683370190505b50905060005b838110156105fd57600360008686848181106105a857fe5b90506020020135815260200190815260200160002060009054906101000a90046001600160a01b03168282815181106105dd57fe5b6001600160a01b0390921660209283029190910190910152600101610590565b509392505050565b60408051630debfda360e41b8152336004820152905173183faff6997c98a812a3b98748fc80241d08f3129163debfda30916024808301926020929190829003018186803b15801561065657600080fd5b505afa15801561066a573d6000803e3d6000fd5b505050506040513d602081101561068057600080fd5b50516106c3576040805162461bcd60e51b815260206004820152600d60248201526c37b7363c9032bc32b1baba37b960991b604482015290519081900360640190fd5b6001600160e01b031981166000908152600160205260409020805461072f576040805162461bcd60e51b815260206004820152601a60248201527f74696d656c6f636b3a20696e76616c69642073656c6563746f72000000000000604482015290519081900360640190fd5b8054421015610785576040805162461bcd60e51b815260206004820152601960248201527f74696d656c6f636b3a206e6f7420616c6c6f7765642079657400000000000000604482015290519081900360640190fd5b6000816001018054600181600116156101000203166002900480601f01602080910402602001604051908101604052809291908181526020018280546001816001161561010002031660029004801561081f5780601f106107f45761010080835404028352916020019161081f565b820191906000526020600020905b81548152906001019060200180831161080257829003601f168201915b5050506001600160e01b03198616600090815260016020819052604082208281559495509092506108539150830182611648565b50506000805460ff60b01b1916600160b01b178155604051825130918491819060208401908083835b6020831061089b5780518252601f19909201916020918201910161087c565b6001836020036101000a0380198251168184511680821785525050505050509050019150506000604051808303816000865af19150503d80600081146108fd576040519150601f19603f3d011682016040523d82523d6000602084013e610902565b606091505b50506000805460ff60b01b19169055604080516001600160e01b03198716815242602082015281519293507fa7326b57fc9cfe267aaea5e7f0b01757154d265620a0585819416ee9ddd2c438929081900390910190a1610961816112d6565b50505050565b73183faff6997c98a812a3b98748fc80241d08f31281565b6109876110b3565b6001600160e01b031981166000908152600160205260409020546109f2576040805162461bcd60e51b815260206004820152601a60248201527f74696d656c6f636b3a20696e76616c69642073656c6563746f72000000000000604482015290519081900360640190fd5b604080516001600160e01b03198316815242602082015281517f7735b2391c38a81419c513e30ca578db7158eadd7101511b23e221c654d19cf8929181900390910190a16001600160e01b03198116600090815260016020819052604082208281559190610a6290830182611648565b505050565b600054600160b01b900460ff1680610a895750600054600160a81b900460ff16155b15610ca457610a966112f3565b60005b8151811015610c9e576000828281518110610ab057fe5b602002602001015190506000610ac582611083565b600081815260036020908152604091829020548251808401909352600c83526b61646472657373207a65726f60a01b91830191909152919250906001600160a01b0316610b2e5760405162461bcd60e51b8152600401610b259190611d93565b60405180910390fd5b50600081815260036020526040902080546001600160a01b03191690556002545b8015610c1757808060019003915050610c0660028281548110610b6e57fe5b600091825260209182902001805460408051601f6002600019610100600187161502019094169390930492830185900485028101850190915281815292830182828015610bfc5780601f10610bd157610100808354040283529160200191610bfc565b820191906000526020600020905b815481529060010190602001808311610bdf57829003601f168201915b5050505050611083565b821415610c1257610c17565b610b4f565b600280546000198101908110610c2957fe5b9060005260206000200160028281548110610c4057fe5b906000526020600020019080546001816001161561010002031660029004610c6992919061168c565b506002805480610c7557fe5b600190038181906000526020600020016000610c919190611648565b9055505050600101610a99565b506102fc565b6102fc600036611328565b600160208181526000928352604092839020805481840180548651600296821615610100026000190190911695909504601f81018590048502860185019096528585529094919392909190830182828015610d4b5780601f10610d2057610100808354040283529160200191610d4b565b820191906000526020600020905b815481529060010190602001808311610d2e57829003601f168201915b5050505050905082565b600054600160b01b900460ff1680610d775750600054600160a81b900460ff16155b15610d9357610d846112f3565b610d8e82826114b8565b610d9e565b610d9e600036611328565b5050565b600054600160b01b900460ff1680610dc45750600054600160a81b900460ff16155b15610de957610dd16112f3565b610ddb83836114b8565b610de481611114565b610a62565b610a62600036611328565b600054600160a01b900460ff1615610e4a576040805162461bcd60e51b8152602060048201526014602482015273696e697469616c6973656420213d2066616c736560601b604482015290519081900360640190fd5b60008054600160a01b60ff60a01b19909116176001600160a01b0319166001600160a01b03831690811790915560408051918252517f9789733827840833afc031fb2ef9ab6894271f77bad2085687cf4ae5c7bee4db916020908290030190a150565b600054600160a81b900460ff1681565b60606000826001600160401b0381118015610ed757600080fd5b50604051908082528060200260200182016040528015610f01578160200160208202803683370190505b50905060005b838110156105fd5760036000610f6e878785818110610f2257fe5b9050602002810190610f349190611dbf565b8080601f01602080910402602001604051908101604052809392919081815260200183838082843760009201919091525061108392505050565b815260200190815260200160002060009054906101000a90046001600160a01b0316828281518110610f9c57fe5b6001600160a01b0390921660209283029190910190910152600101610f07565b610fc46110b3565b600054600160a81b900460ff1615611023576040805162461bcd60e51b815260206004820152601a60248201527f616c726561647920696e2070726f64756374696f6e206d6f6465000000000000604482015290519081900360640190fd5b60008054600161ff0160a01b031916600160a81b1790556040805173183faff6997c98a812a3b98748fc80241d08f312815290517f83af113638b5422f9e977cebc0aaf0eaf2188eb9a8baae7f9d46c42b33a1560c9181900360200190a1565b6000816040516020016110969190611d93565b604051602081830303815290604052805190602001209050919050565b6110bb6104a4565b6001600160a01b0316336001600160a01b031614611112576040805162461bcd60e51b815260206004820152600f60248201526e6f6e6c7920676f7665726e616e636560881b604482015290519081900360640190fd5b565b6002546000816001600160401b038111801561112f57600080fd5b50604051908082528060200260200182016040528015611159578160200160208202803683370190505b5090506000826001600160401b038111801561117457600080fd5b5060405190808252806020026020018201604052801561119e578160200160208202803683370190505b5090505b8215611244578280600190039350506111c160028481548110610b6e57fe5b8284815181106111cd57fe5b602002602001018181525050600360008385815181106111e957fe5b6020026020010151815260200190815260200160002060009054906101000a90046001600160a01b031681848151811061121f57fe5b60200260200101906001600160a01b031690816001600160a01b0316815250506111a2565b60005b84518110156112cf5784818151811061125c57fe5b60200260200101516001600160a01b031663b00c0b7684846040518363ffffffff1660e01b8152600401611291929190611cbd565b600060405180830381600087803b1580156112ab57600080fd5b505af11580156112bf573d6000803e3d6000fd5b5050600190920191506112479050565b5050505050565b3d604051818101604052816000823e82156112ef578181f35b8181fd5b600054600160b01b900460ff16156113205733301461130e57fe5b6000805460ff60b01b19169055611112565b6111126110b3565b6113306110b3565b600082359050600073183faff6997c98a812a3b98748fc80241d08f3126001600160a01b0316636221a54b6040518163ffffffff1660e01b815260040160206040518083038186803b15801561138557600080fd5b505afa158015611399573d6000803e3d6000fd5b505050506040513d60208110156113af57600080fd5b505160408051808201825242830180825282516020601f89018190048102820181019094528781529394509290918281019190889088908190840183828082843760009201829052509390945250506001600160e01b031986168152600160208181526040909220845181558483015180519194506114339392850192019061171f565b509050507fed948300a3694aa01d4a6b258bfd664350193d770c0b51f8387277f6d83ea3b68382878760405180856001600160e01b0319168152602001848152602001806020018281038252848482818152602001925080828437600083820152604051601f909101601f191690920182900397509095505050505050a15050505050565b8151815160408051808201909152601a81527f6172726179206c656e6774687320646f206e6f74206d6174636800000000000060208201529082146115105760405162461bcd60e51b8152600401610b259190611d93565b5060005b818110156109615760006001600160a01b031683828151811061153357fe5b60200260200101516001600160a01b031614156040518060400160405280600c81526020016b61646472657373207a65726f60a01b815250906115895760405162461bcd60e51b8152600401610b259190611d93565b50600061159b85838151811061043f57fe5b6000818152600360205260409020549091506001600160a01b03166115fc5760028583815181106115c857fe5b602090810291909101810151825460018101845560009384529282902081516115fa949190910192919091019061171f565b505b83828151811061160857fe5b60209081029190910181015160009283526003909152604090912080546001600160a01b0319166001600160a01b03909216919091179055600101611514565b50805460018160011615610100020316600290046000825580601f1061166e57506102fc565b601f0160209004906000526020600020908101906102fc919061179b565b828054600181600116156101000203166002900490600052602060002090601f0160209004810192826116c2576000855561170f565b82601f106116d3578054855561170f565b8280016001018555821561170f57600052602060002091601f016020900482015b8281111561170f5782548255916001019190600101906116f4565b5061171b92915061179b565b5090565b828054600181600116156101000203166002900490600052602060002090601f016020900481019282611755576000855561170f565b82601f1061176e57805160ff191683800117855561170f565b8280016001018555821561170f579182015b8281111561170f578251825591602001919060010190611780565b5b8082111561171b576000815560010161179c565b600082601f8301126117c0578081fd5b813560206117d56117d083611e26565b611e03565b82815281810190858301838502870184018810156117f1578586fd5b855b8581101561181857813561180681611e43565b845292840192908401906001016117f3565b5090979650505050505050565b60008083601f840112611836578182fd5b5081356001600160401b0381111561184c578182fd5b602083019150836020808302850101111561186657600080fd5b9250929050565b600082601f83011261187d578081fd5b8135602061188d6117d083611e26565b82815281810190858301838502870184018810156118a9578586fd5b855b858110156118185781356118be81611e43565b845292840192908401906001016118ab565b6000601f83818401126118e1578182fd5b823560206118f16117d083611e26565b82815281810190868301865b8581101561197657813589018a603f820112611917578889fd5b8581013560406001600160401b0382111561192e57fe5b61193f828b01601f19168901611e03565b8281528d82848601011115611952578b8cfd5b828285018a83013791820188018b90525085525092840192908401906001016118fd565b509098975050505050505050565b600060208284031215611995578081fd5b81356119a081611e43565b9392505050565b600080602083850312156119b9578081fd5b82356001600160401b038111156119ce578182fd5b6119da85828601611825565b90969095509350505050565b6000602082840312156119f7578081fd5b81356001600160401b03811115611a0c578182fd5b611a188482850161186d565b949350505050565b60008060208385031215611a32578182fd5b82356001600160401b038111156119ce578283fd5b600060208284031215611a58578081fd5b81356001600160401b03811115611a6d578182fd5b611a18848285016118d0565b60008060408385031215611a8b578182fd5b82356001600160401b0380821115611aa1578384fd5b611aad868387016118d0565b93506020850135915080821115611ac2578283fd5b50611acf858286016117b0565b9150509250929050565b600080600060608486031215611aed578081fd5b83356001600160401b0380821115611b03578283fd5b611b0f878388016118d0565b94506020860135915080821115611b24578283fd5b611b30878388016117b0565b93506040860135915080821115611b45578283fd5b50611b528682870161186d565b9150509250925092565b600060208284031215611b6d578081fd5b5035919050565b600060208284031215611b85578081fd5b81356001600160e01b0319811681146119a0578182fd5b60008060208385031215611bae578182fd5b82356001600160401b0380821115611bc4578384fd5b818501915085601f830112611bd7578384fd5b813581811115611be5578485fd5b866020828501011115611bf6578485fd5b60209290920196919550909350505050565b6000815180845260208085019450808401835b83811015611c405781516001600160a01b031687529582019590820190600101611c1b565b509495945050505050565b60008151808452815b81811015611c7057602081850181015186830182015201611c54565b81811115611c815782602083870101525b50601f01601f19169290920160200192915050565b6001600160a01b0391909116815260200190565b6000602082526119a06020830184611c08565b604080825283519082018190526000906020906060840190828701845b82811015611cf657815184529284019290840190600101611cda565b50505083810382850152611d0a8186611c08565b9695505050505050565b60006040820160408352808551808352606085019150602092506060838202860101838801855b83811015611d6957605f19888403018552611d57838351611c4b565b94860194925090850190600101611d3b565b505085810384870152611d7c8188611c08565b98975050505050505050565b901515815260200190565b6000602082526119a06020830184611c4b565b600083825260406020830152611a186040830184611c4b565b6000808335601e19843603018112611dd5578283fd5b8301803591506001600160401b03821115611dee578283fd5b60200191503681900382131561186657600080fd5b6040518181016001600160401b0381118282101715611e1e57fe5b604052919050565b60006001600160401b03821115611e3957fe5b5060209081020190565b6001600160a01b03811681146102fc57600080fdfea26469706673582212209bbd13ba267b4393aa4d71ddd640e5670b2e0543907ce8f1c78d6d72ce82447664736f6c63430007060033",
  "linkReferences": {},
  "deployedLinkReferences": {}
}