{
    "_format": "hh-sol-artifact-1",
    "contractName": "DelegationAccount",
    "sourceName": "contracts/claiming/implementation/DelegationAccount.sol",
    "abi": [
        {
            "anonymous": false,
            "inputs": [
                {
                    "indexed": false,
                    "internalType": "address",
                    "name": "to",
                    "type": "address"
                },
                {
                    "indexed": false,
                    "internalType": "uint256",
                    "name": "bips",
                    "type": "uint256"
                }
            ],
            "name": "DelegateFtso",
            "type": "event"
        },
        {
            "anonymous": false,
            "inputs": [
                {
                    "indexed": false,
                    "internalType": "address",
                    "name": "to",
                    "type": "address"
                }
            ],
            "name": "DelegateGovernance",
            "type": "event"
        },
        {
            "anonymous": false,
            "inputs": [
                {
                    "indexed": false,
                    "internalType": "address",
                    "name": "executor",
                    "type": "address"
                },
                {
                    "indexed": false,
                    "internalType": "uint256",
                    "name": "amount",
                    "type": "uint256"
                }
            ],
            "name": "ExecutorFeePaid",
            "type": "event"
        },
        {
            "anonymous": false,
            "inputs": [
                {
                    "indexed": false,
                    "internalType": "contract IERC20",
                    "name": "token",
                    "type": "address"
                },
                {
                    "indexed": false,
                    "internalType": "uint256",
                    "name": "amount",
                    "type": "uint256"
                }
            ],
            "name": "ExternalTokenTransferred",
            "type": "event"
        },
        {
            "anonymous": false,
            "inputs": [
                {
                    "indexed": false,
                    "internalType": "address",
                    "name": "owner",
                    "type": "address"
                },
                {
                    "indexed": false,
                    "internalType": "contract IClaimSetupManager",
                    "name": "manager",
                    "type": "address"
                }
            ],
            "name": "Initialize",
            "type": "event"
        },
        {
            "anonymous": false,
            "inputs": [
                {
                    "indexed": false,
                    "internalType": "address",
                    "name": "to",
                    "type": "address"
                },
                {
                    "indexed": false,
                    "internalType": "uint256",
                    "name": "blockNumber",
                    "type": "uint256"
                }
            ],
            "name": "RevokeFtso",
            "type": "event"
        },
        {
            "anonymous": false,
            "inputs": [],
            "name": "UndelegateAllFtso",
            "type": "event"
        },
        {
            "anonymous": false,
            "inputs": [],
            "name": "UndelegateGovernance",
            "type": "event"
        },
        {
            "anonymous": false,
            "inputs": [
                {
                    "indexed": false,
                    "internalType": "uint256",
                    "name": "amount",
                    "type": "uint256"
                }
            ],
            "name": "WithdrawToOwner",
            "type": "event"
        },
        {
            "inputs": [
                {
                    "internalType": "contract WNat",
                    "name": "_wNat",
                    "type": "address"
                },
                {
                    "internalType": "address[]",
                    "name": "_delegatees",
                    "type": "address[]"
                },
                {
                    "internalType": "uint256[]",
                    "name": "_bips",
                    "type": "uint256[]"
                }
            ],
            "name": "batchDelegate",
            "outputs": [],
            "stateMutability": "nonpayable",
            "type": "function"
        },
        {
            "inputs": [
                {
                    "internalType": "contract WNat",
                    "name": "_wNat",
                    "type": "address"
                },
                {
                    "internalType": "address",
                    "name": "_to",
                    "type": "address"
                },
                {
                    "internalType": "uint256",
                    "name": "_bips",
                    "type": "uint256"
                }
            ],
            "name": "delegate",
            "outputs": [],
            "stateMutability": "nonpayable",
            "type": "function"
        },
        {
            "inputs": [
                {
                    "internalType": "contract IGovernanceVotePower",
                    "name": "_governanceVP",
                    "type": "address"
                },
                {
                    "internalType": "address",
                    "name": "_to",
                    "type": "address"
                }
            ],
            "name": "delegateGovernance",
            "outputs": [],
            "stateMutability": "nonpayable",
            "type": "function"
        },
        {
            "inputs": [
                {
                    "internalType": "address",
                    "name": "_owner",
                    "type": "address"
                },
                {
                    "internalType": "contract IIClaimSetupManager",
                    "name": "_manager",
                    "type": "address"
                }
            ],
            "name": "initialize",
            "outputs": [],
            "stateMutability": "nonpayable",
            "type": "function"
        },
        {
            "inputs": [],
            "name": "manager",
            "outputs": [
                {
                    "internalType": "contract IIClaimSetupManager",
                    "name": "",
                    "type": "address"
                }
            ],
            "stateMutability": "view",
            "type": "function"
        },
        {
            "inputs": [],
            "name": "owner",
            "outputs": [
                {
                    "internalType": "address",
                    "name": "",
                    "type": "address"
                }
            ],
            "stateMutability": "view",
            "type": "function"
        },
        {
            "inputs": [
                {
                    "internalType": "contract WNat",
                    "name": "_wNat",
                    "type": "address"
                },
                {
                    "internalType": "address",
                    "name": "_who",
                    "type": "address"
                },
                {
                    "internalType": "uint256",
                    "name": "_blockNumber",
                    "type": "uint256"
                }
            ],
            "name": "revokeDelegationAt",
            "outputs": [],
            "stateMutability": "nonpayable",
            "type": "function"
        },
        {
            "inputs": [
                {
                    "internalType": "contract WNat",
                    "name": "_wNat",
                    "type": "address"
                },
                {
                    "internalType": "contract IERC20",
                    "name": "_token",
                    "type": "address"
                },
                {
                    "internalType": "uint256",
                    "name": "_amount",
                    "type": "uint256"
                }
            ],
            "name": "transferExternalToken",
            "outputs": [],
            "stateMutability": "nonpayable",
            "type": "function"
        },
        {
            "inputs": [
                {
                    "internalType": "contract WNat",
                    "name": "_wNat",
                    "type": "address"
                }
            ],
            "name": "undelegateAll",
            "outputs": [],
            "stateMutability": "nonpayable",
            "type": "function"
        },
        {
            "inputs": [
                {
                    "internalType": "contract IGovernanceVotePower",
                    "name": "_governanceVP",
                    "type": "address"
                }
            ],
            "name": "undelegateGovernance",
            "outputs": [],
            "stateMutability": "nonpayable",
            "type": "function"
        },
        {
            "inputs": [
                {
                    "internalType": "contract WNat",
                    "name": "_wNat",
                    "type": "address"
                },
                {
                    "internalType": "uint256",
                    "name": "_amount",
                    "type": "uint256"
                }
            ],
            "name": "withdraw",
            "outputs": [],
            "stateMutability": "nonpayable",
            "type": "function"
        },
        {
            "stateMutability": "payable",
            "type": "receive"
        }
    ],
    "bytecode": "0x608060405234801561001057600080fd5b50611172806100206000396000f3fe6080604052600436106100a05760003560e01c80638da5cb5b116100645780638da5cb5b146102a257806397c9c8f8146102b7578063a3ea6d1b146102ea578063ba75294e1461032d578063c26f3acf14610471578063f3fef3a3146104b45761017e565b80631d75e42a146101835780632fbd2432146101c0578063481c6a7514610203578063485cc955146102345780635eb71cfb1461026f5761017e565b3661017e57600160009054906101000a90046001600160a01b03166001600160a01b0316639edbf0076040518163ffffffff1660e01b815260040160206040518083038186803b1580156100f357600080fd5b505afa158015610107573d6000803e3d6000fd5b505050506040513d602081101561011d57600080fd5b505160408051630d0e30db60e41b815290516001600160a01b039092169163d0e30db0913491600480830192600092919082900301818588803b15801561016357600080fd5b505af1158015610177573d6000803e3d6000fd5b5050505050005b600080fd5b34801561018f57600080fd5b506101be600480360360408110156101a657600080fd5b506001600160a01b03813581169160200135166104ed565b005b3480156101cc57600080fd5b506101be600480360360608110156101e357600080fd5b506001600160a01b0381358116916020810135909116906040013561059d565b34801561020f57600080fd5b5061021861066f565b604080516001600160a01b039092168252519081900360200190f35b34801561024057600080fd5b506101be6004803603604081101561025757600080fd5b506001600160a01b038135811691602001351661067e565b34801561027b57600080fd5b506101be6004803603602081101561029257600080fd5b50356001600160a01b03166107e1565b3480156102ae57600080fd5b50610218610868565b3480156102c357600080fd5b506101be600480360360208110156102da57600080fd5b50356001600160a01b0316610877565b3480156102f657600080fd5b506101be6004803603606081101561030d57600080fd5b506001600160a01b038135811691602081013590911690604001356108fe565b34801561033957600080fd5b506101be6004803603606081101561035057600080fd5b6001600160a01b03823516919081019060408101602082013564010000000081111561037b57600080fd5b82018360208201111561038d57600080fd5b803590602001918460208302840111640100000000831117156103af57600080fd5b91908080602002602001604051908101604052809392919081815260200183836020028082843760009201919091525092959493602081019350359150506401000000008111156103ff57600080fd5b82018360208201111561041157600080fd5b8035906020019184602083028401116401000000008311171561043357600080fd5b9190808060200260200160405190810160405280939291908181526020018383602002808284376000920191909152509295506109be945050505050565b34801561047d57600080fd5b506101be6004803603606081101561049457600080fd5b506001600160a01b03813581169160208101359091169060400135610b5f565b3480156104c057600080fd5b506101be600480360360408110156104d757600080fd5b506001600160a01b038135169060200135610c1f565b6104f5610d8e565b816001600160a01b0316635c19a95c826040518263ffffffff1660e01b815260040180826001600160a01b03168152602001915050600060405180830381600087803b15801561054457600080fd5b505af1158015610558573d6000803e3d6000fd5b5050604080516001600160a01b038516815290517f2a43727004aa69d4d11a4d14597d4ecf8a51520814f9e2d2bab48c6e55c6e9d79350908190036020019150a15050565b6105a5610d8e565b826001600160a01b0316826001600160a01b0316141561060c576040805162461bcd60e51b815260206004820152601e60248201527f5472616e736665722066726f6d20774e6174206e6f7420616c6c6f7765640000604482015290519081900360640190fd5b604080516001600160a01b03841681526020810183905281517f631980fc538964af4895291cf0157c34fc5f44e9cdcf11fd1a7afd4ecb957e38929181900390910190a160005461066a906001600160a01b03848116911683610e0e565b505050565b6001546001600160a01b031681565b6000546001600160a01b0316156106d0576040805162461bcd60e51b81526020600482015260116024820152701bdddb995c88185b1c9958591e481cd95d607a1b604482015290519081900360640190fd5b6001600160a01b038216610720576040805162461bcd60e51b81526020600482015260126024820152716f776e65722061646472657373207a65726f60701b604482015290519081900360640190fd5b6001600160a01b038116610772576040805162461bcd60e51b81526020600482015260146024820152736d616e616765722061646472657373207a65726f60601b604482015290519081900360640190fd5b600080546001600160a01b038085166001600160a01b031992831617928390556001805485831693168317905560408051939091168352602083019190915280517fdc90fed0326ba91706deeac7eb34ac9f8b680734f9d782864dc29704d23bed6a9281900390910190a15050565b6107e9610d8e565b806001600160a01b031663b302f3936040518163ffffffff1660e01b8152600401600060405180830381600087803b15801561082457600080fd5b505af1158015610838573d6000803e3d6000fd5b50506040517f83bbf0b19b33deab75aca5070581a87d23a1d81063cc68bdb09dc7b61e84419f925060009150a150565b6000546001600160a01b031681565b61087f610d8e565b806001600160a01b03166392ab89bb6040518163ffffffff1660e01b8152600401600060405180830381600087803b1580156108ba57600080fd5b505af11580156108ce573d6000803e3d6000fd5b50506040517f3e4505bd111f4b092b91a3808e321660c85fa6277bc8f5d5c8999b81a2a6770e925060009150a150565b610906610d8e565b826001600160a01b031663bbd6fbf883836040518363ffffffff1660e01b815260040180836001600160a01b0316815260200182815260200192505050600060405180830381600087803b15801561095d57600080fd5b505af1158015610971573d6000803e3d6000fd5b5050604080516001600160a01b03861681526020810185905281517fb301a02edbd2e3311a3894a266b925ffee8289bfd65e70c0235d257a15ad2fdb9450908190039091019150a1505050565b6109c6610d8e565b826001600160a01b031663b302f3936040518163ffffffff1660e01b8152600401600060405180830381600087803b158015610a0157600080fd5b505af1158015610a15573d6000803e3d6000fd5b50506040517f83bbf0b19b33deab75aca5070581a87d23a1d81063cc68bdb09dc7b61e84419f925060009150a160005b8251811015610b5957836001600160a01b031663026e402b848381518110610a6957fe5b6020026020010151848481518110610a7d57fe5b60200260200101516040518363ffffffff1660e01b815260040180836001600160a01b0316815260200182815260200192505050600060405180830381600087803b158015610acb57600080fd5b505af1158015610adf573d6000803e3d6000fd5b505050507ffb1e2ddf3e19469b9483f3361ad44324d92dd0604d2ff86949fe49faf810d50b838281518110610b1057fe5b6020026020010151838381518110610b2457fe5b602002602001015160405180836001600160a01b031681526020018281526020019250505060405180910390a1600101610a45565b50505050565b610b67610d8e565b826001600160a01b031663026e402b83836040518363ffffffff1660e01b815260040180836001600160a01b0316815260200182815260200192505050600060405180830381600087803b158015610bbe57600080fd5b505af1158015610bd2573d6000803e3d6000fd5b5050604080516001600160a01b03861681526020810185905281517ffb1e2ddf3e19469b9483f3361ad44324d92dd0604d2ff86949fe49faf810d50b9450908190039091019150a1505050565b610c27610d8e565b6040805182815290517fe2545a40deb08fdd272a905111e915edfcdd5a17e89efe28afe7c4bf266a36919181900360200190a1600080546040805163a9059cbb60e01b81526001600160a01b0392831660048201526024810185905290519185169163a9059cbb9160448082019260209290919082900301818787803b158015610cb057600080fd5b505af1158015610cc4573d6000803e3d6000fd5b505050506040513d6020811015610cda57600080fd5b505160408051808201909152600f81526e1d1c985b9cd9995c8819985a5b1959608a1b602082015290915081610b595760405162461bcd60e51b81526004018080602001828103825283818151815260200191508051906020019080838360005b83811015610d53578181015183820152602001610d3b565b50505050905090810190601f168015610d805780820380516001836020036101000a031916815260200191505b509250505060405180910390fd5b60015460408051808201909152600c81526b37b7363c9036b0b730b3b2b960a11b6020820152906001600160a01b03163314610e0b5760405162461bcd60e51b8152602060048201818152835160248401528351909283926044909101919085019080838360008315610d53578181015183820152602001610d3b565b50565b604080516001600160a01b038416602482015260448082018490528251808303909101815260649091019091526020810180516001600160e01b031663a9059cbb60e01b17905261066a9084906000610eb0826040518060400160405280602081526020017f5361666545524332303a206c6f772d6c6576656c2063616c6c206661696c6564815250856001600160a01b0316610f0c9092919063ffffffff16565b80519091501561066a57808060200190516020811015610ecf57600080fd5b505161066a5760405162461bcd60e51b815260040180806020018281038252602a815260200180611113602a913960400191505060405180910390fd5b6060610f1b8484600085610f25565b90505b9392505050565b606082471015610f665760405162461bcd60e51b81526004018080602001828103825260268152602001806110ed6026913960400191505060405180910390fd5b610f6f85611080565b610fc0576040805162461bcd60e51b815260206004820152601d60248201527f416464726573733a2063616c6c20746f206e6f6e2d636f6e7472616374000000604482015290519081900360640190fd5b600080866001600160a01b031685876040518082805190602001908083835b60208310610ffe5780518252601f199092019160209182019101610fdf565b6001836020036101000a03801982511681845116808217855250505050505090500191505060006040518083038185875af1925050503d8060008114611060576040519150601f19603f3d011682016040523d82523d6000602084013e611065565b606091505b5091509150611075828286611086565b979650505050505050565b3b151590565b60608315611095575081610f1e565b8251156110a55782518084602001fd5b60405162461bcd60e51b8152602060048201818152845160248401528451859391928392604401919085019080838360008315610d53578181015183820152602001610d3b56fe416464726573733a20696e73756666696369656e742062616c616e636520666f722063616c6c5361666545524332303a204552433230206f7065726174696f6e20646964206e6f742073756363656564a264697066735822122094c3a60c8c5b55cb8f658ce6192a5f25aec5d09d5550747928577df44391149e64736f6c63430007060033",
    "linkReferences": {},
    "deployedLinkReferences": {}
}