{
  "_format": "hh-sol-artifact-1",
  "contractName": "PChainStake",
  "sourceName": "contracts/staking/implementation/PChainStake.sol",
  "abi": [
    {
      "anonymous": false,
      "inputs": [
        {
          "indexed": false,
          "internalType": "uint256",
          "name": "_blockNumber",
          "type": "uint256"
        }
      ],
      "name": "CreatedTotalSupplyCache",
      "type": "event"
    },
    {
      "anonymous": false,
      "inputs": [
        {
          "indexed": false,
          "internalType": "bytes20",
          "name": "nodeId",
          "type": "bytes20"
        },
        {
          "indexed": false,
          "internalType": "uint256",
          "name": "blockNumber",
          "type": "uint256"
        }
      ],
      "name": "VotePowerCacheCreated",
      "type": "event"
    },
    {
      "anonymous": false,
      "inputs": [
        {
          "indexed": true,
          "internalType": "address",
          "name": "owner",
          "type": "address"
        },
        {
          "indexed": true,
          "internalType": "bytes20",
          "name": "nodeId",
          "type": "bytes20"
        },
        {
          "indexed": false,
          "internalType": "uint256",
          "name": "priorVotePower",
          "type": "uint256"
        },
        {
          "indexed": false,
          "internalType": "uint256",
          "name": "newVotePower",
          "type": "uint256"
        }
      ],
      "name": "VotePowerChanged",
      "type": "event"
    },
    {
      "inputs": [
        {
          "internalType": "address",
          "name": "_owner",
          "type": "address"
        },
        {
          "internalType": "uint256",
          "name": "_count",
          "type": "uint256"
        }
      ],
      "name": "balanceHistoryCleanup",
      "outputs": [
        {
          "internalType": "uint256",
          "name": "",
          "type": "uint256"
        }
      ],
      "stateMutability": "nonpayable",
      "type": "function"
    },
    {
      "inputs": [
        {
          "internalType": "address",
          "name": "_owner",
          "type": "address"
        },
        {
          "internalType": "uint256",
          "name": "_blockNumber",
          "type": "uint256"
        }
      ],
      "name": "balanceOfAt",
      "outputs": [
        {
          "internalType": "uint256",
          "name": "_balance",
          "type": "uint256"
        }
      ],
      "stateMutability": "view",
      "type": "function"
    },
    {
      "inputs": [
        {
          "internalType": "bytes20[]",
          "name": "_owners",
          "type": "bytes20[]"
        },
        {
          "internalType": "uint256",
          "name": "_blockNumber",
          "type": "uint256"
        }
      ],
      "name": "batchVotePowerOfAt",
      "outputs": [
        {
          "internalType": "uint256[]",
          "name": "_votePowers",
          "type": "uint256[]"
        }
      ],
      "stateMutability": "view",
      "type": "function"
    },
    {
      "inputs": [],
      "name": "cleanerContract",
      "outputs": [
        {
          "internalType": "address",
          "name": "",
          "type": "address"
        }
      ],
      "stateMutability": "view",
      "type": "function"
    },
    {
      "inputs": [
        {
          "internalType": "address",
          "name": "_owner",
          "type": "address"
        },
        {
          "internalType": "uint256",
          "name": "_count",
          "type": "uint256"
        }
      ],
      "name": "stakesHistoryCleanup",
      "outputs": [
        {
          "internalType": "uint256",
          "name": "",
          "type": "uint256"
        }
      ],
      "stateMutability": "nonpayable",
      "type": "function"
    },
    {
      "inputs": [
        {
          "internalType": "address",
          "name": "_owner",
          "type": "address"
        }
      ],
      "name": "stakesOf",
      "outputs": [
        {
          "internalType": "bytes20[]",
          "name": "_nodeIds",
          "type": "bytes20[]"
        },
        {
          "internalType": "uint256[]",
          "name": "_amounts",
          "type": "uint256[]"
        }
      ],
      "stateMutability": "view",
      "type": "function"
    },
    {
      "inputs": [
        {
          "internalType": "address",
          "name": "_owner",
          "type": "address"
        },
        {
          "internalType": "uint256",
          "name": "_blockNumber",
          "type": "uint256"
        }
      ],
      "name": "stakesOfAt",
      "outputs": [
        {
          "internalType": "bytes20[]",
          "name": "_nodeIds",
          "type": "bytes20[]"
        },
        {
          "internalType": "uint256[]",
          "name": "_amounts",
          "type": "uint256[]"
        }
      ],
      "stateMutability": "view",
      "type": "function"
    },
    {
      "inputs": [
        {
          "internalType": "uint256",
          "name": "_blockNumber",
          "type": "uint256"
        }
      ],
      "name": "totalSupplyAt",
      "outputs": [
        {
          "internalType": "uint256",
          "name": "_totalSupply",
          "type": "uint256"
        }
      ],
      "stateMutability": "view",
      "type": "function"
    },
    {
      "inputs": [
        {
          "internalType": "uint256",
          "name": "_blockNumber",
          "type": "uint256"
        }
      ],
      "name": "totalSupplyCacheCleanup",
      "outputs": [
        {
          "internalType": "uint256",
          "name": "",
          "type": "uint256"
        }
      ],
      "stateMutability": "nonpayable",
      "type": "function"
    },
    {
      "inputs": [
        {
          "internalType": "uint256",
          "name": "_count",
          "type": "uint256"
        }
      ],
      "name": "totalSupplyHistoryCleanup",
      "outputs": [
        {
          "internalType": "uint256",
          "name": "",
          "type": "uint256"
        }
      ],
      "stateMutability": "nonpayable",
      "type": "function"
    },
    {
      "inputs": [],
      "name": "totalVotePower",
      "outputs": [
        {
          "internalType": "uint256",
          "name": "",
          "type": "uint256"
        }
      ],
      "stateMutability": "view",
      "type": "function"
    },
    {
      "inputs": [
        {
          "internalType": "uint256",
          "name": "_blockNumber",
          "type": "uint256"
        }
      ],
      "name": "totalVotePowerAt",
      "outputs": [
        {
          "internalType": "uint256",
          "name": "",
          "type": "uint256"
        }
      ],
      "stateMutability": "view",
      "type": "function"
    },
    {
      "inputs": [
        {
          "internalType": "uint256",
          "name": "_blockNumber",
          "type": "uint256"
        }
      ],
      "name": "totalVotePowerAtCached",
      "outputs": [
        {
          "internalType": "uint256",
          "name": "",
          "type": "uint256"
        }
      ],
      "stateMutability": "nonpayable",
      "type": "function"
    },
    {
      "inputs": [
        {
          "internalType": "bytes20",
          "name": "_nodeId",
          "type": "bytes20"
        },
        {
          "internalType": "uint256",
          "name": "_blockNumber",
          "type": "uint256"
        }
      ],
      "name": "votePowerCacheCleanup",
      "outputs": [
        {
          "internalType": "uint256",
          "name": "",
          "type": "uint256"
        }
      ],
      "stateMutability": "nonpayable",
      "type": "function"
    },
    {
      "inputs": [
        {
          "internalType": "address",
          "name": "_owner",
          "type": "address"
        },
        {
          "internalType": "bytes20",
          "name": "_nodeId",
          "type": "bytes20"
        }
      ],
      "name": "votePowerFromTo",
      "outputs": [
        {
          "internalType": "uint256",
          "name": "_votePower",
          "type": "uint256"
        }
      ],
      "stateMutability": "view",
      "type": "function"
    },
    {
      "inputs": [
        {
          "internalType": "address",
          "name": "_owner",
          "type": "address"
        },
        {
          "internalType": "bytes20",
          "name": "_nodeId",
          "type": "bytes20"
        },
        {
          "internalType": "uint256",
          "name": "_blockNumber",
          "type": "uint256"
        }
      ],
      "name": "votePowerFromToAt",
      "outputs": [
        {
          "internalType": "uint256",
          "name": "_votePower",
          "type": "uint256"
        }
      ],
      "stateMutability": "view",
      "type": "function"
    },
    {
      "inputs": [
        {
          "internalType": "bytes20",
          "name": "_nodeId",
          "type": "bytes20"
        },
        {
          "internalType": "uint256",
          "name": "_count",
          "type": "uint256"
        }
      ],
      "name": "votePowerHistoryCleanup",
      "outputs": [
        {
          "internalType": "uint256",
          "name": "",
          "type": "uint256"
        }
      ],
      "stateMutability": "nonpayable",
      "type": "function"
    },
    {
      "inputs": [
        {
          "internalType": "bytes20",
          "name": "_nodeId",
          "type": "bytes20"
        }
      ],
      "name": "votePowerOf",
      "outputs": [
        {
          "internalType": "uint256",
          "name": "",
          "type": "uint256"
        }
      ],
      "stateMutability": "view",
      "type": "function"
    },
    {
      "inputs": [
        {
          "internalType": "bytes20",
          "name": "_nodeId",
          "type": "bytes20"
        },
        {
          "internalType": "uint256",
          "name": "_blockNumber",
          "type": "uint256"
        }
      ],
      "name": "votePowerOfAt",
      "outputs": [
        {
          "internalType": "uint256",
          "name": "",
          "type": "uint256"
        }
      ],
      "stateMutability": "view",
      "type": "function"
    },
    {
      "inputs": [
        {
          "internalType": "bytes20",
          "name": "_nodeId",
          "type": "bytes20"
        },
        {
          "internalType": "uint256",
          "name": "_blockNumber",
          "type": "uint256"
        }
      ],
      "name": "votePowerOfAtCached",
      "outputs": [
        {
          "internalType": "uint256",
          "name": "",
          "type": "uint256"
        }
      ],
      "stateMutability": "nonpayable",
      "type": "function"
    }
  ],
  "bytecode": "0x608060405234801561001057600080fd5b50611b8c806100206000396000f3fe608060405234801561001057600080fd5b506004361061012c5760003560e01c80639ca20e4e116100ad578063c13edf7011610071578063c13edf7014610517578063caeb942b14610543578063f0e292c914610560578063f5f3d4f71461058c578063f62f8f3a146105945761012c565b80639ca20e4e1461037d578063a2e96264146103a1578063a9e70199146103ce578063b4eb2a81146104c3578063bd61ffee146104ea5761012c565b806346431374116100f457806346431374146102a55780634be91f32146102d25780634ee2cd7e146102fe57806359c345f51461032a578063981b24d0146103605761012c565b8063119b923a146101315780631f7ff2c71461017057806333b69c4c146101ac5780633e5aa26a1461026b57806343ea370b14610288575b600080fd5b61015e6004803603604081101561014757600080fd5b506001600160601b031981351690602001356105b1565b60408051918252519081900360200190f35b61015e6004803603606081101561018657600080fd5b506001600160a01b03813516906001600160601b0319602082013516906040013561062e565b6101d2600480360360208110156101c257600080fd5b50356001600160a01b031661069e565b604051808060200180602001838103835285818151815260200191508051906020019060200280838360005b838110156102165781810151838201526020016101fe565b50505050905001838103825284818151815260200191508051906020019060200280838360005b8381101561025557818101518382015260200161023d565b5050505090500194505050505060405180910390f35b61015e6004803603602081101561028157600080fd5b50356106cd565b61015e6004803603602081101561029e57600080fd5b50356106e0565b61015e600480360360408110156102bb57600080fd5b506001600160601b0319813516906020013561079b565b6101d2600480360360408110156102e857600080fd5b506001600160a01b038135169060200135610816565b61015e6004803603604081101561031457600080fd5b506001600160a01b038135169060200135610889565b61015e6004803603604081101561034057600080fd5b5080356001600160a01b031690602001356001600160601b0319166108e1565b61015e6004803603602081101561037657600080fd5b5035610903565b610385610959565b604080516001600160a01b039092168252519081900360200190f35b61015e600480360360408110156103b757600080fd5b506001600160601b03198135169060200135610968565b610473600480360360408110156103e457600080fd5b8101906020810181356401000000008111156103ff57600080fd5b82018360208201111561041157600080fd5b8035906020019184602083028401116401000000008311171561043357600080fd5b9190808060200260200160405190810160405280939291908181526020018383602002808284376000920191909152509295505091359250610a2d915050565b60408051602080825283518183015283519192839290830191858101910280838360005b838110156104af578181015183820152602001610497565b505050509050019250505060405180910390f35b61015e600480360360208110156104d957600080fd5b50356001600160601b031916610b6b565b61015e6004803603604081101561050057600080fd5b506001600160601b03198135169060200135610b7c565b61015e6004803603604081101561052d57600080fd5b506001600160a01b038135169060200135610c82565b61015e6004803603602081101561055957600080fd5b5035610d07565b61015e6004803603604081101561057657600080fd5b506001600160a01b038135169060200135610d12565b61015e610d7f565b61015e600480360360208110156105aa57600080fd5b5035610d8f565b6005546000906001600160a01b0316331461060b576040805162461bcd60e51b815260206004820152601560248201527413db9b1e4818db19585b995c8818dbdb9d1c9858dd605a1b604482015290519081900360640190fd5b6106258360601c8361061b610dfa565b6007929190610e00565b90505b92915050565b6000816004548110156106725760405162461bcd60e51b815260040180806020018281038252602d815260200180611ad4602d913960400191505060405180910390fd5b6001600160a01b0385166000908152600660205260409020610695908585610e0e565b95945050505050565b6001600160a01b038116600090815260066020526040902060609081906106c490610e53565b91509150915091565b60006106d882610903565b90505b919050565b6005546000906001600160a01b0316331461073a576040805162461bcd60e51b815260206004820152601560248201527413db9b1e4818db19585b995c8818dbdb9d1c9858dd605a1b604482015290519081900360640190fd5b6004548210610790576040805162461bcd60e51b815260206004820152601e60248201527f4e6f20636c65616e757020616674657220636c65616e757020626c6f636b0000604482015290519081900360640190fd5b6106d8600383610e60565b6000816004548110156107df5760405162461bcd60e51b815260040180806020018281038252602d815260200180611ad4602d913960400191505060405180910390fd5b43831015610800576107f960086007606087901c86610e94565b915061080f565b6107f96007606086901c610f03565b5092915050565b6060808260045481101561085b5760405162461bcd60e51b815260040180806020018281038252602d815260200180611ad4602d913960400191505060405180910390fd5b6001600160a01b038516600090815260066020526040902061087d9085610f0f565b92509250509250929050565b6000816004548110156108cd5760405162461bcd60e51b815260040180806020018281038252602d815260200180611ad4602d913960400191505060405180910390fd5b6108d960008585611073565b949350505050565b6001600160a01b03821660009081526006602052604081206106259083611095565b6000816004548110156109475760405162461bcd60e51b815260040180806020018281038252602d815260200180611ad4602d913960400191505060405180910390fd5b6109526001846110d9565b9392505050565b6005546001600160a01b031681565b6005546000906001600160a01b031633146109c2576040805162461bcd60e51b815260206004820152601560248201527413db9b1e4818db19585b995c8818dbdb9d1c9858dd605a1b604482015290519081900360640190fd5b6109ca610dfa565b8210610a1d576040805162461bcd60e51b815260206004820152601e60248201527f4e6f20636c65616e757020616674657220636c65616e757020626c6f636b0000604482015290519081900360640190fd5b6106256008606085901c8461121c565b606081600454811015610a715760405162461bcd60e51b815260040180806020018281038252602d815260200180611ad4602d913960400191505060405180910390fd5b438310610ac5576040805162461bcd60e51b815260206004820181905260248201527f43616e206f6e6c79206265207573656420666f72207061737420626c6f636b73604482015290519081900360640190fd5b83516001600160401b0381118015610adc57600080fd5b50604051908082528060200260200182016040528015610b06578160200160208202803683370190505b50915060005b8451811015610b6357610b446007868381518110610b2657fe5b602002602001015160601c866008610e94909392919063ffffffff16565b838281518110610b5057fe5b6020908102919091010152600101610b0c565b505092915050565b60006106d86007606084901c610f03565b600081600454811015610bc05760405162461bcd60e51b815260040180806020018281038252602d815260200180611ad4602d913960400191505060405180910390fd5b438310610c14576040805162461bcd60e51b815260206004820181905260248201527f43616e206f6e6c79206265207573656420666f72207061737420626c6f636b73604482015290519081900360640190fd5b600080610c2960086007606089901c88611289565b915091508015610c7957604080516001600160601b0319881681526020810187905281517fb34d3f5bc1f5b60002062672fcc0a956db7b59b3416f8c5343e9aef5adc7b971929181900390910190a15b50949350505050565b6005546000906001600160a01b03163314610cdc576040805162461bcd60e51b815260206004820152601560248201527413db9b1e4818db19585b995c8818dbdb9d1c9858dd605a1b604482015290519081900360640190fd5b61062582610ce8610dfa565b6001600160a01b03861660009081526006602052604090209190611313565b60006106d88261145c565b6005546000906001600160a01b03163314610d6c576040805162461bcd60e51b815260206004820152601560248201527413db9b1e4818db19585b995c8818dbdb9d1c9858dd605a1b604482015290519081900360640190fd5b600454610625906000908590859061154a565b6000610d8a43610903565b905090565b6005546000906001600160a01b03163314610de9576040805162461bcd60e51b815260206004820152601560248201527413db9b1e4818db19585b995c8818dbdb9d1c9858dd605a1b604482015290519081900360640190fd5b6004546106d8906001908490611585565b60045490565b60006106958585858561154a565b6000806000610e1d8685611626565b9150915081610e3157600092505050610952565b6000818152602087905260409020610e4990866116f6565b9695505050505050565b6060806106c48343610f0f565b60008181526020839052604081205415610e8b57506000818152602083905260408120556001610628565b50600092915050565b604080516001600160a01b03841660208083019190915281830184905282518083038401815260609092018352815191810191909120600081815291879052918120549091908015610eed576000190191506108d99050565b610ef886868661175b565b979650505050505050565b60006106258383611768565b606080600080610f1f8686611626565b9150915081610f49575050604080516000808252602082019081528183019092529250905061106c565b6000818152602087815260408083208380529182905290912060010154600160e01b900460ff16806001600160401b0381118015610f8657600080fd5b50604051908082528060200260200182016040528015610fb0578160200160208202803683370190505b509550806001600160401b0381118015610fc957600080fd5b50604051908082528060200260200182016040528015610ff3578160200160208202803683370190505b50945060005b818110156110665760008181526020849052604090206001810154885160609190911b9089908490811061102957fe5b6001600160601b0319909216602092830291909101909101528054875188908490811061105257fe5b602090810291909101015250600101610ff9565b50505050505b9250929050565b6001600160a01b038216600090815260208490526040812061069581846110d9565b6001820154600090600160401b90046001600160401b0316806110bc576000915050610628565b600019810160009081526020859052604090206108d990846116f6565b6001820154600090600160401b90046001600160401b031680611100576000915050610628565b438310158061113257506000198101600090815260208590526040902054600160c01b90046001600160401b03168310155b1561115a57600019016000908152602084905260409020546001600160c01b03169050610628565b60018401546001600160401b039081166000818152602087905260409020549091600160c01b909104168410156111d35780156111c85760405162461bcd60e51b8152600401808060200182810382526030815260200180611b276030913960400191505060405180910390fd5b600092505050610628565b60018501546000906111f99087908490600160401b90046001600160401b031688611789565b6000908152602087905260409020546001600160c01b0316935050505092915050565b604080516001600160a01b03841660208083019190915281830184905282518083038401815260609092018352815191810191909120600081815291869052918120549091901561127e57600090815260208590526040812055506001610952565b506000949350505050565b604080516001600160a01b03841660208083019190915281830184905282518083038401815260609092018352815191810191909120600081815291879052918120549091829180156112e7576000190192506000915061130a9050565b60006112f488888861175b565b9050611301898483611813565b93506001925050505b94509492505050565b60008161132257506000610952565b6001840154600160401b90046001600160401b031680611346576000915050610952565b60018501546001600160401b0316600061136c6113638388611831565b6001850361188b565b9050815b81811080156113ac57506001818101600090815260208a8152604080832083805290915290200154600160a01b90046001600160401b03168610155b1561141957600081815260208981526040808320838052918290528220600101549091600160e01b90910460ff16905b8181101561140e576000818152602084905260408120908155600190810180546001600160e81b0319169055016113dc565b505050600101611370565b8281111561144e5761142a816118a1565b60018901805467ffffffffffffffff19166001600160401b03929092169190911790555b919091039695505050505050565b6000816004548110156114a05760405162461bcd60e51b815260040180806020018281038252602d815260200180611ad4602d913960400191505060405180910390fd5b4383106114f4576040805162461bcd60e51b815260206004820181905260248201527f43616e206f6e6c79206265207573656420666f72207061737420626c6f636b73604482015290519081900360640190fd5b60008061150460036001876118e9565b915091508015611542576040805186815290517ffec477a10b4fcdfdf1114eb32b3caf6118b2d76d20e1fcb70007274bb4b616be9181900360200190a15b509392505050565b60006001600160a01b0384161561127e576001600160a01b038416600090815260208690526040902061157e908484611585565b90506108d9565b60008161159457506000610952565b6001840154600160401b90046001600160401b0316806115b8576000915050610952565b60018501546001600160401b031660006115d56113638388611831565b9050815b818110801561160a575060018101600090815260208990526040902054600160c01b90046001600160401b03168610155b15611419576000818152602089905260408120556001016115d9565b600182015460009081906001600160401b0380821691600160401b9004168061165257600093506116ed565b6000198101600090815260208781526040808320838052909152902060010154600160a01b90046001600160401b0316851061169757600193506001810392506116ed565b600082815260208781526040808320838052909152902060010154600160a01b90046001600160401b03168510156116da5781156116d157fe5b600093506116ed565b600193506116ea86838388611947565b92505b50509250929050565b600080805260208390526040812060010154600160e01b900460ff16815b8181101561127e576000818152602086905260409020600181015460601b6001600160601b0319908116908616141561175257549250610628915050565b50600101611714565b60006108d9848484611073565b6001600160a01b03811660009081526020839052604081206108d9816119c7565b60008381611798856001611a0f565b90505b818111156118095760006117c560026117bf60016117b98688611831565b90611831565b90611a6c565b600081815260208a90526040902054909150600160c01b90046001600160401b031685106117f557809250611803565b611800816001611a0f565b91505b5061179b565b5095945050505050565b61181e816001611831565b6000928352602093909352506040902055565b600082820183811015610625576040805162461bcd60e51b815260206004820152601b60248201527f536166654d6174683a206164646974696f6e206f766572666c6f770000000000604482015290519081900360640190fd5b600081831061189a5781610625565b5090919050565b6000600160401b82106118e55760405162461bcd60e51b8152600401808060200182810382526026815260200180611b016026913960400191505060405180910390fd5b5090565b6000818152602084905260408120548190801561190f576000190191506000905061193f565b600061191b86866110d9565b9050611928816001611831565b600086815260208990526040902055925060019150505b935093915050565b60008381611956856001611a0f565b90505b8181111561180957600061197760026117bf60016117b98688611831565b600081815260208a81526040808320838052909152902060010154909150600160a01b90046001600160401b031685106119b3578092506119c1565b6119be816001611a0f565b91505b50611959565b6001810154600090600160401b90046001600160401b0316806119ee5760009150506106db565b6000190160009081526020929092525060409020546001600160c01b031690565b600082821115611a66576040805162461bcd60e51b815260206004820152601e60248201527f536166654d6174683a207375627472616374696f6e206f766572666c6f770000604482015290519081900360640190fd5b50900390565b6000808211611ac2576040805162461bcd60e51b815260206004820152601a60248201527f536166654d6174683a206469766973696f6e206279207a65726f000000000000604482015290519081900360640190fd5b818381611acb57fe5b04939250505056fe436865636b506f696e7461626c653a2072656164696e672066726f6d20636c65616e65642d757020626c6f636b53616665436173743a2076616c756520646f65736e27742066697420696e2036342062697473436865636b506f696e74486973746f72793a2072656164696e672066726f6d20636c65616e65642d757020626c6f636ba26469706673582212208c64e4e97f647cd42e7dca4937bad492fd477e4e4283efecea15e757c919af3364736f6c63430007060033",
  "linkReferences": {},
  "deployedLinkReferences": {}
}