{
  "_format": "hh-sol-artifact-1",
  "contractName": "InflationAllocation",
  "sourceName": "contracts/governance/implementation/InflationAllocation.sol",
  "abi": [
    {
      "inputs": [
        {
          "internalType": "address",
          "name": "_governance",
          "type": "address"
        },
        {
          "internalType": "contract Inflation",
          "name": "_inflation",
          "type": "address"
        },
        {
          "internalType": "uint256",
          "name": "_annualInflationBips",
          "type": "uint256"
        }
      ],
      "stateMutability": "nonpayable",
      "type": "constructor"
    },
    {
      "anonymous": false,
      "inputs": [
        {
          "indexed": false,
          "internalType": "uint256[]",
          "name": "annualInflationPercentagesBips",
          "type": "uint256[]"
        }
      ],
      "name": "AnnualInflationPercentageScheduleSet",
      "type": "event"
    },
    {
      "anonymous": false,
      "inputs": [
        {
          "indexed": false,
          "internalType": "uint256",
          "name": "percentageBips",
          "type": "uint256"
        }
      ],
      "name": "AnnualInflationPercentageYielded",
      "type": "event"
    },
    {
      "anonymous": false,
      "inputs": [
        {
          "indexed": false,
          "internalType": "address",
          "name": "proposedGovernance",
          "type": "address"
        }
      ],
      "name": "GovernanceProposed",
      "type": "event"
    },
    {
      "anonymous": false,
      "inputs": [
        {
          "indexed": false,
          "internalType": "address",
          "name": "oldGovernance",
          "type": "address"
        },
        {
          "indexed": false,
          "internalType": "address",
          "name": "newGoveranance",
          "type": "address"
        }
      ],
      "name": "GovernanceUpdated",
      "type": "event"
    },
    {
      "anonymous": false,
      "inputs": [
        {
          "indexed": false,
          "internalType": "address",
          "name": "oldAddress",
          "type": "address"
        },
        {
          "indexed": false,
          "internalType": "address",
          "name": "newAddress",
          "type": "address"
        }
      ],
      "name": "InflationSet",
      "type": "event"
    },
    {
      "anonymous": false,
      "inputs": [
        {
          "indexed": false,
          "internalType": "contract IIInflationReceiver[]",
          "name": "inflationRecievers",
          "type": "address[]"
        },
        {
          "indexed": false,
          "internalType": "uint256[]",
          "name": "percentagePerReceiverBips",
          "type": "uint256[]"
        }
      ],
      "name": "InflationSharingPercentagesSet",
      "type": "event"
    },
    {
      "inputs": [
        {
          "internalType": "uint256",
          "name": "",
          "type": "uint256"
        }
      ],
      "name": "annualInflationPercentagesBips",
      "outputs": [
        {
          "internalType": "uint256",
          "name": "",
          "type": "uint256"
        }
      ],
      "stateMutability": "view",
      "type": "function"
    },
    {
      "inputs": [],
      "name": "claimGovernance",
      "outputs": [],
      "stateMutability": "nonpayable",
      "type": "function"
    },
    {
      "inputs": [],
      "name": "getAnnualPercentageBips",
      "outputs": [
        {
          "internalType": "uint256",
          "name": "",
          "type": "uint256"
        }
      ],
      "stateMutability": "nonpayable",
      "type": "function"
    },
    {
      "inputs": [],
      "name": "getSharingPercentages",
      "outputs": [
        {
          "components": [
            {
              "internalType": "contract IIInflationReceiver",
              "name": "inflationReceiver",
              "type": "address"
            },
            {
              "internalType": "uint256",
              "name": "percentBips",
              "type": "uint256"
            }
          ],
          "internalType": "struct SharingPercentage[]",
          "name": "_sharingPercentages",
          "type": "tuple[]"
        }
      ],
      "stateMutability": "view",
      "type": "function"
    },
    {
      "inputs": [],
      "name": "governance",
      "outputs": [
        {
          "internalType": "address",
          "name": "",
          "type": "address"
        }
      ],
      "stateMutability": "view",
      "type": "function"
    },
    {
      "inputs": [],
      "name": "inflation",
      "outputs": [
        {
          "internalType": "contract Inflation",
          "name": "",
          "type": "address"
        }
      ],
      "stateMutability": "view",
      "type": "function"
    },
    {
      "inputs": [
        {
          "internalType": "uint256",
          "name": "",
          "type": "uint256"
        }
      ],
      "name": "inflationReceivers",
      "outputs": [
        {
          "internalType": "contract IIInflationReceiver",
          "name": "receiverContract",
          "type": "address"
        },
        {
          "internalType": "uint32",
          "name": "percentageBips",
          "type": "uint32"
        }
      ],
      "stateMutability": "view",
      "type": "function"
    },
    {
      "inputs": [
        {
          "internalType": "address",
          "name": "_governance",
          "type": "address"
        }
      ],
      "name": "initialise",
      "outputs": [],
      "stateMutability": "nonpayable",
      "type": "function"
    },
    {
      "inputs": [],
      "name": "lastAnnualInflationPercentageBips",
      "outputs": [
        {
          "internalType": "uint256",
          "name": "",
          "type": "uint256"
        }
      ],
      "stateMutability": "view",
      "type": "function"
    },
    {
      "inputs": [
        {
          "internalType": "address",
          "name": "_governance",
          "type": "address"
        }
      ],
      "name": "proposeGovernance",
      "outputs": [],
      "stateMutability": "nonpayable",
      "type": "function"
    },
    {
      "inputs": [],
      "name": "proposedGovernance",
      "outputs": [
        {
          "internalType": "address",
          "name": "",
          "type": "address"
        }
      ],
      "stateMutability": "view",
      "type": "function"
    },
    {
      "inputs": [
        {
          "internalType": "uint256[]",
          "name": "_annualInflationScheduleBips",
          "type": "uint256[]"
        }
      ],
      "name": "setAnnualInflation",
      "outputs": [],
      "stateMutability": "nonpayable",
      "type": "function"
    },
    {
      "inputs": [
        {
          "internalType": "contract Inflation",
          "name": "_inflation",
          "type": "address"
        }
      ],
      "name": "setInflation",
      "outputs": [],
      "stateMutability": "nonpayable",
      "type": "function"
    },
    {
      "inputs": [
        {
          "internalType": "contract IIInflationReceiver[]",
          "name": "_inflationRecievers",
          "type": "address[]"
        },
        {
          "internalType": "uint256[]",
          "name": "_percentagePerReceiverBips",
          "type": "uint256[]"
        }
      ],
      "name": "setSharingPercentages",
      "outputs": [],
      "stateMutability": "nonpayable",
      "type": "function"
    },
    {
      "inputs": [
        {
          "internalType": "address",
          "name": "_governance",
          "type": "address"
        }
      ],
      "name": "transferGovernance",
      "outputs": [],
      "stateMutability": "nonpayable",
      "type": "function"
    }
  ],
  "bytecode": "0x60806040523480156200001157600080fd5b50604051620015e2380380620015e2833981016040819052620000349162000224565b82806001600160a01b038116156200005157620000518162000140565b506001600160a01b038116620000a1576040805162461bcd60e51b815260206004820152601060248201526f5f676f7665726e616e6365207a65726f60801b604482015290519081900360640190fd5b50600081118015620000b557506103e88111155b6040518060400160405280601e81526020017f616e6e75616c20696e666c6174696f6e206f7574206f6620626f756e6473000081525090620001155760405162461bcd60e51b81526004016200010c91906200026b565b60405180910390fd5b50600455600380546001600160a01b0319166001600160a01b039290921691909117905550620002da565b600154600160a01b900460ff1615620001a0576040805162461bcd60e51b815260206004820152601460248201527f696e697469616c6973656420213d2066616c7365000000000000000000000000604482015290519081900360640190fd5b6001805460ff60a01b1916600160a01b179055600054604080516001600160a01b039283168152918316602083015280517f434a2db650703b36c824e745330d6397cdaa9ee2cc891a4938ae853e1c50b68d9281900390910190a1600080546001600160a01b039092166001600160a01b0319928316179055600180549091169055565b60008060006060848603121562000239578283fd5b83516200024681620002c1565b60208501519093506200025981620002c1565b80925050604084015190509250925092565b6000602080835283518082850152825b8181101562000299578581018301518582016040015282016200027b565b81811115620002ab5783604083870101525b50601f01601f1916929092016040019392505050565b6001600160a01b0381168114620002d757600080fd5b50565b6112f880620002ea6000396000f3fe608060405234801561001057600080fd5b50600436106100f55760003560e01c80639d6a890f11610097578063c853b8d411610066578063c853b8d4146101c7578063d38bfff4146101dc578063ebee6fa4146101ef578063ee323c92146101f7576100f5565b80639d6a890f14610186578063b2d9e80614610199578063be0522e0146101ac578063c373a08e146101b4576100f5565b806360f7ac97116100d357806360f7ac9714610143578063728a5bcb1461014b57806390ac884b1461016b578063981940291461017e576100f5565b80631d019e34146100fa5780635aa6e675146101245780635d36b19014610139575b600080fd5b61010d61010836600461109f565b61020a565b60405161011b9291906111ed565b60405180910390f35b61012c610242565b60405161011b91906110b7565b610141610251565b005b61012c610313565b61015e61015936600461109f565b610322565b60405161011b919061125f565b610141610179366004611030565b610343565b61015e610576565b610141610194366004610f4d565b6106fb565b6101416101a7366004610f70565b6107d5565b61012c610b3c565b6101416101c2366004610f4d565b610b4b565b6101cf610bf0565b60405161011b919061115b565b6101416101ea366004610f4d565b610cfa565b61015e610dbc565b610141610205366004610f4d565b610dc2565b6002818154811061021a57600080fd5b6000918252602090912001546001600160a01b0381169150600160a01b900463ffffffff1682565b6000546001600160a01b031681565b6001546001600160a01b031633146102a0576040805162461bcd60e51b815260206004820152600d60248201526c1b9bdd0818db185a5b585a5b9d609a1b604482015290519081900360640190fd5b600054600154604080516001600160a01b03938416815292909116602083015280517f434a2db650703b36c824e745330d6397cdaa9ee2cc891a4938ae853e1c50b68d9281900390910190a160018054600080546001600160a01b03199081166001600160a01b03841617909155169055565b6001546001600160a01b031681565b6005818154811061033257600080fd5b600091825260209091200154905081565b6000546001600160a01b03163314610394576040805162461bcd60e51b815260206004820152600f60248201526e6f6e6c7920676f7665726e616e636560881b604482015290519081900360640190fd5b604080518082019091526008815267746f6f206d616e7960c01b6020820152600a8211156103de5760405162461bcd60e51b81526004016103d5919061120c565b60405180910390fd5b50600454819060005b828110156104b757818585838181106103fc57fe5b90506020020135111580156104235750600085858381811061041a57fe5b90506020020135115b801561044357506103e885858381811061043957fe5b9050602002013511155b6040518060400160405280601e81526020017f616e6e75616c20696e666c6174696f6e206f7574206f6620626f756e64730000815250906104975760405162461bcd60e51b81526004016103d5919061120c565b508484828181106104a457fe5b60200291909101359250506001016103e7565b5060055460005b818110156104f15760058054806104d157fe5b6000828152602081208201600019908101919091550190556001016104be565b5060005b8381101561053557600586868381811061050b57fe5b835460018082018655600095865260209586902092909502939093013592019190915550016104f5565b507fe3ad326cdb10e1201bcea3d96ccf2f5437ed71942548e5ba0aab68c9bd296fa485856040516105679291906111b3565b60405180910390a15050505050565b60035460408051808201909152600c81526b06164647265737320697320360a41b60208201526000916001600160a01b031690816105c75760405162461bcd60e51b81526004016103d5919061120c565b5060035460408051808201909152600e81526d37b7363c9034b7333630ba34b7b760911b6020820152906001600160a01b031633146106195760405162461bcd60e51b81526004016103d5919061120c565b50600554156106ba57600560008154811061063057fe5b60009182526020909120015460045560055460018111156106975760005b60018203811015610695576005816001018154811061066957fe5b90600052602060002001546005828154811061068157fe5b60009182526020909120015560010161064e565b505b60058054806106a257fe5b60019003818190600052602060002001600090559055505b7fc46384622db26f8a6509e51f7cbe387b3fa773448f19fc9f070fcdc984cffb8e6004546040516106eb919061125f565b60405180910390a1505060045490565b600154600160a01b900460ff1615610751576040805162461bcd60e51b8152602060048201526014602482015273696e697469616c6973656420213d2066616c736560601b604482015290519081900360640190fd5b6001805460ff60a01b1916600160a01b179055600054604080516001600160a01b039283168152918316602083015280517f434a2db650703b36c824e745330d6397cdaa9ee2cc891a4938ae853e1c50b68d9281900390910190a1600080546001600160a01b039092166001600160a01b0319928316179055600180549091169055565b6000546001600160a01b03163314610826576040805162461bcd60e51b815260206004820152600f60248201526e6f6e6c7920676f7665726e616e636560881b604482015290519081900360640190fd5b80518251146040518060400160405280600f81526020016e0d8cadccee8d040dad2e6dac2e8c6d608b1b815250906108715760405162461bcd60e51b81526004016103d5919061120c565b50600a8251111560405180604001604052806008815260200167746f6f206d616e7960c01b815250906108b75760405162461bcd60e51b81526004016103d5919061120c565b50600254600090815b818110156108fd5760028054806108d357fe5b600082815260209020810160001990810180546001600160c01b03191690550190556001016108c0565b5060005b8451811015610aa55761271084828151811061091957fe5b602002602001015111156040518060400160405280601781526020017f686967682073686172696e672070657263656e74616765000000000000000000815250906109775760405162461bcd60e51b81526004016103d5919061120c565b5060006001600160a01b031685828151811061098f57fe5b60200260200101516001600160a01b031614156040518060400160405280600c81526020016b06164647265737320697320360a41b815250906109e55760405162461bcd60e51b81526004016103d5919061120c565b508381815181106109f257fe5b60200260200101518301925060026040518060400160405280878481518110610a1757fe5b60200260200101516001600160a01b03168152602001868481518110610a3957fe5b60209081029190910181015163ffffffff90811690925283546001808201865560009586529482902084519101805494909201516001600160a01b03199094166001600160a01b039091161763ffffffff60a01b1916600160a01b939092169290920217905501610901565b5060408051808201909152601f81527f73756d2073686172696e672070657263656e74616765206e6f7420313030250060208201526127108314610afc5760405162461bcd60e51b81526004016103d5919061120c565b507f5851f041454bd72003e19484c59ec9c1bd9c6f8df07679fd1e94412fb5880b448484604051610b2e9291906110e5565b60405180910390a150505050565b6003546001600160a01b031681565b6000546001600160a01b03163314610b9c576040805162461bcd60e51b815260206004820152600f60248201526e6f6e6c7920676f7665726e616e636560881b604482015290519081900360640190fd5b600180546001600160a01b0383166001600160a01b0319909116811790915560408051918252517f1f95fb40be3a947982072902a887b521248d1d8931a39eb38f84f4d6fd758b699181900360200190a150565b6002546060908067ffffffffffffffff81118015610c0d57600080fd5b50604051908082528060200260200182016040528015610c4757816020015b610c34610eca565b815260200190600190039081610c2c5790505b50915060005b81811015610cf55760028181548110610c6257fe5b9060005260206000200160000160149054906101000a900463ffffffff1663ffffffff16838281518110610c9257fe5b6020026020010151602001818152505060028181548110610caf57fe5b60009182526020909120015483516001600160a01b0390911690849083908110610cd557fe5b60209081029190910101516001600160a01b039091169052600101610c4d565b505090565b6000546001600160a01b03163314610d4b576040805162461bcd60e51b815260206004820152600f60248201526e6f6e6c7920676f7665726e616e636560881b604482015290519081900360640190fd5b600054604080516001600160a01b039283168152918316602083015280517f434a2db650703b36c824e745330d6397cdaa9ee2cc891a4938ae853e1c50b68d9281900390910190a1600080546001600160a01b039092166001600160a01b0319928316179055600180549091169055565b60045481565b6000546001600160a01b03163314610e13576040805162461bcd60e51b815260206004820152600f60248201526e6f6e6c7920676f7665726e616e636560881b604482015290519081900360640190fd5b60408051808201909152600c81526b06164647265737320697320360a41b602082015281906001600160a01b038216610e5f5760405162461bcd60e51b81526004016103d5919061120c565b506003546040517f4bdd1012a7d55ed9afad8675a125e1b68c7c15f712c0f3d5cddac69c3b97980591610e9f916001600160a01b039091169085906110cb565b60405180910390a150600380546001600160a01b0319166001600160a01b0392909216919091179055565b604080518082019091526000808252602082015290565b600082601f830112610ef1578081fd5b81356020610f06610f018361128c565b611268565b8281528181019085830183850287018401881015610f22578586fd5b855b85811015610f4057813584529284019290840190600101610f24565b5090979650505050505050565b600060208284031215610f5e578081fd5b8135610f69816112aa565b9392505050565b60008060408385031215610f82578081fd5b823567ffffffffffffffff80821115610f99578283fd5b818501915085601f830112610fac578283fd5b81356020610fbc610f018361128c565b82815281810190858301838502870184018b1015610fd8578788fd5b8796505b84871015611003578035610fef816112aa565b835260019690960195918301918301610fdc565b5096505086013592505080821115611019578283fd5b5061102685828601610ee1565b9150509250929050565b60008060208385031215611042578182fd5b823567ffffffffffffffff80821115611059578384fd5b818501915085601f83011261106c578384fd5b81358181111561107a578485fd5b866020808302850101111561108d578485fd5b60209290920196919550909350505050565b6000602082840312156110b0578081fd5b5035919050565b6001600160a01b0391909116815260200190565b6001600160a01b0392831681529116602082015260400190565b604080825283519082018190526000906020906060840190828701845b828110156111275781516001600160a01b031684529284019290840190600101611102565b50505083810382850152845180825285830191830190845b81811015610f405783518352928401929184019160010161113f565b602080825282518282018190526000919060409081850190868401855b828110156111a657815180516001600160a01b03168552860151868501529284019290850190600101611178565b5091979650505050505050565b6020808252810182905260006001600160fb1b038311156111d2578081fd5b60208302808560408501379190910160400190815292915050565b6001600160a01b0392909216825263ffffffff16602082015260400190565b6000602080835283518082850152825b818110156112385785810183015185820160400152820161121c565b818111156112495783604083870101525b50601f01601f1916929092016040019392505050565b90815260200190565b60405181810167ffffffffffffffff8111828210171561128457fe5b604052919050565b600067ffffffffffffffff8211156112a057fe5b5060209081020190565b6001600160a01b03811681146112bf57600080fd5b5056fea264697066735822122010ebd9724c47c521e9cec3c58123cb3e6dee644a670c31476ae10b0a59831db664736f6c63430007060033",
  "linkReferences": {},
  "deployedLinkReferences": {}
}