{
  "_format": "hh-sol-artifact-1",
  "contractName": "Supply",
  "sourceName": "contracts/inflation/implementation/Supply.sol",
  "abi": [
    {
      "inputs": [
        {
          "internalType": "address",
          "name": "_governance",
          "type": "address"
        },
        {
          "internalType": "address",
          "name": "_burnAddress",
          "type": "address"
        },
        {
          "internalType": "address",
          "name": "_inflation",
          "type": "address"
        },
        {
          "internalType": "uint256",
          "name": "_initialGenesisAmountWei",
          "type": "uint256"
        },
        {
          "internalType": "uint256",
          "name": "_totalFoundationSupplyWei",
          "type": "uint256"
        },
        {
          "internalType": "contract IITokenPool[]",
          "name": "_tokenPools",
          "type": "address[]"
        }
      ],
      "stateMutability": "nonpayable",
      "type": "constructor"
    },
    {
      "anonymous": false,
      "inputs": [
        {
          "indexed": false,
          "internalType": "uint256",
          "name": "actual",
          "type": "uint256"
        },
        {
          "indexed": false,
          "internalType": "uint256",
          "name": "expected",
          "type": "uint256"
        }
      ],
      "name": "AuthorizedInflationUpdateError",
      "type": "event"
    },
    {
      "anonymous": false,
      "inputs": [
        {
          "indexed": false,
          "internalType": "address",
          "name": "proposedGovernance",
          "type": "address"
        }
      ],
      "name": "GovernanceProposed",
      "type": "event"
    },
    {
      "anonymous": false,
      "inputs": [
        {
          "indexed": false,
          "internalType": "address",
          "name": "oldGovernance",
          "type": "address"
        },
        {
          "indexed": false,
          "internalType": "address",
          "name": "newGoveranance",
          "type": "address"
        }
      ],
      "name": "GovernanceUpdated",
      "type": "event"
    },
    {
      "inputs": [
        {
          "internalType": "contract IITokenPool",
          "name": "_tokenPool",
          "type": "address"
        },
        {
          "internalType": "uint256",
          "name": "_decreaseFoundationSupplyByAmountWei",
          "type": "uint256"
        }
      ],
      "name": "addTokenPool",
      "outputs": [],
      "stateMutability": "nonpayable",
      "type": "function"
    },
    {
      "inputs": [],
      "name": "burnAddress",
      "outputs": [
        {
          "internalType": "address",
          "name": "",
          "type": "address"
        }
      ],
      "stateMutability": "view",
      "type": "function"
    },
    {
      "inputs": [
        {
          "internalType": "address",
          "name": "_burnAddress",
          "type": "address"
        }
      ],
      "name": "changeBurnAddress",
      "outputs": [],
      "stateMutability": "nonpayable",
      "type": "function"
    },
    {
      "inputs": [],
      "name": "claimGovernance",
      "outputs": [],
      "stateMutability": "nonpayable",
      "type": "function"
    },
    {
      "inputs": [
        {
          "internalType": "uint256",
          "name": "_amountWei",
          "type": "uint256"
        }
      ],
      "name": "decreaseFoundationSupply",
      "outputs": [],
      "stateMutability": "nonpayable",
      "type": "function"
    },
    {
      "inputs": [],
      "name": "distributedFoundationSupplyWei",
      "outputs": [
        {
          "internalType": "uint256",
          "name": "",
          "type": "uint256"
        }
      ],
      "stateMutability": "view",
      "type": "function"
    },
    {
      "inputs": [
        {
          "internalType": "uint256",
          "name": "_blockNumber",
          "type": "uint256"
        }
      ],
      "name": "getCirculatingSupplyAt",
      "outputs": [
        {
          "internalType": "uint256",
          "name": "_circulatingSupplyWei",
          "type": "uint256"
        }
      ],
      "stateMutability": "view",
      "type": "function"
    },
    {
      "inputs": [
        {
          "internalType": "uint256",
          "name": "_blockNumber",
          "type": "uint256"
        }
      ],
      "name": "getCirculatingSupplyAtCached",
      "outputs": [
        {
          "internalType": "uint256",
          "name": "_circulatingSupplyWei",
          "type": "uint256"
        }
      ],
      "stateMutability": "nonpayable",
      "type": "function"
    },
    {
      "inputs": [],
      "name": "getInflatableBalance",
      "outputs": [
        {
          "internalType": "uint256",
          "name": "_inflatableBalanceWei",
          "type": "uint256"
        }
      ],
      "stateMutability": "view",
      "type": "function"
    },
    {
      "inputs": [],
      "name": "governance",
      "outputs": [
        {
          "internalType": "address",
          "name": "",
          "type": "address"
        }
      ],
      "stateMutability": "view",
      "type": "function"
    },
    {
      "inputs": [],
      "name": "inflation",
      "outputs": [
        {
          "internalType": "address",
          "name": "",
          "type": "address"
        }
      ],
      "stateMutability": "view",
      "type": "function"
    },
    {
      "inputs": [],
      "name": "initialGenesisAmountWei",
      "outputs": [
        {
          "internalType": "uint256",
          "name": "",
          "type": "uint256"
        }
      ],
      "stateMutability": "view",
      "type": "function"
    },
    {
      "inputs": [
        {
          "internalType": "address",
          "name": "_governance",
          "type": "address"
        }
      ],
      "name": "initialise",
      "outputs": [],
      "stateMutability": "nonpayable",
      "type": "function"
    },
    {
      "inputs": [
        {
          "internalType": "address",
          "name": "_governance",
          "type": "address"
        }
      ],
      "name": "proposeGovernance",
      "outputs": [],
      "stateMutability": "nonpayable",
      "type": "function"
    },
    {
      "inputs": [],
      "name": "proposedGovernance",
      "outputs": [
        {
          "internalType": "address",
          "name": "",
          "type": "address"
        }
      ],
      "stateMutability": "view",
      "type": "function"
    },
    {
      "inputs": [
        {
          "internalType": "address",
          "name": "_inflation",
          "type": "address"
        }
      ],
      "name": "setInflation",
      "outputs": [],
      "stateMutability": "nonpayable",
      "type": "function"
    },
    {
      "inputs": [
        {
          "internalType": "uint256",
          "name": "",
          "type": "uint256"
        }
      ],
      "name": "tokenPools",
      "outputs": [
        {
          "internalType": "contract IITokenPool",
          "name": "tokenPool",
          "type": "address"
        },
        {
          "internalType": "uint256",
          "name": "foundationAllocatedFundsWei",
          "type": "uint256"
        },
        {
          "internalType": "uint256",
          "name": "totalInflationAuthorizedWei",
          "type": "uint256"
        },
        {
          "internalType": "uint256",
          "name": "totalClaimedWei",
          "type": "uint256"
        }
      ],
      "stateMutability": "view",
      "type": "function"
    },
    {
      "inputs": [],
      "name": "totalFoundationSupplyWei",
      "outputs": [
        {
          "internalType": "uint256",
          "name": "",
          "type": "uint256"
        }
      ],
      "stateMutability": "view",
      "type": "function"
    },
    {
      "inputs": [],
      "name": "totalInflationAuthorizedWei",
      "outputs": [
        {
          "internalType": "uint256",
          "name": "",
          "type": "uint256"
        }
      ],
      "stateMutability": "view",
      "type": "function"
    },
    {
      "inputs": [
        {
          "internalType": "address",
          "name": "_governance",
          "type": "address"
        }
      ],
      "name": "transferGovernance",
      "outputs": [],
      "stateMutability": "nonpayable",
      "type": "function"
    },
    {
      "inputs": [
        {
          "internalType": "uint256",
          "name": "_inflationAuthorizedWei",
          "type": "uint256"
        }
      ],
      "name": "updateAuthorizedInflationAndCirculatingSupply",
      "outputs": [],
      "stateMutability": "nonpayable",
      "type": "function"
    }
  ],
  "bytecode": "0x60a06040523480156200001157600080fd5b5060405162001e9638038062001e96833981810160405260c08110156200003757600080fd5b815160208301516040808501516060860151608087015160a0880180519451969895979396929591949293820192846401000000008211156200007957600080fd5b9083019060208201858111156200008f57600080fd5b8251866020820283011164010000000082111715620000ad57600080fd5b82525081516020918201928201910280838360005b83811015620000dc578181015183820152602001620000c2565b50505050905001604052505050858060006001600160a01b0316816001600160a01b0316146200011157620001118162000352565b506001600160a01b03811662000161576040805162461bcd60e51b815260206004820152601060248201526f5f676f7665726e616e6365207a65726f60801b604482015290519081900360640190fd5b5060408051808201909152600e81526d696e666c6174696f6e207a65726f60901b60208201526001600160a01b0385166200021d5760405162461bcd60e51b81526004018080602001828103825283818151815260200191508051906020019080838360005b83811015620001e1578181015183820152602001620001c7565b50505050905090810190601f1680156200020f5780820380516001836020036101000a031916815260200191505b509250505060405180910390fd5b5060408051808201909152601b81527f696e697469616c2067656e6573697320616d6f756e74207a65726f0000000000602082015283620002a15760405162461bcd60e51b8152602060048201818152835160248401528351909283926044909101919085019080838360008315620001e1578181015183820152602001620001c7565b50600a80546001600160a01b03199081166001600160a01b0388811691909117909255600980549091169186169190911790556080839052600682905562000300620002fa848462000436602090811b62000b3617901c565b62000499565b60005b81518110156200033b57620003328282815181106200031e57fe5b6020026020010151620004e660201b60201c565b60010162000303565b5062000346620005fb565b50505050505062000ba9565b600154600160a01b900460ff1615620003b2576040805162461bcd60e51b815260206004820152601460248201527f696e697469616c6973656420213d2066616c7365000000000000000000000000604482015290519081900360640190fd5b6001805460ff60a01b1916600160a01b179055600054604080516001600160a01b039283168152918316602083015280517f434a2db650703b36c824e745330d6397cdaa9ee2cc891a4938ae853e1c50b68d9281900390910190a1600080546001600160a01b039092166001600160a01b0319928316179055600180549091169055565b6000828211156200048e576040805162461bcd60e51b815260206004820152601e60248201527f536166654d6174683a207375627472616374696f6e206f766572666c6f770000604482015290519081900360640190fd5b508082035b92915050565b620004e3620004cd82620004b960026200079260201b62000b931760201c565b620007a060201b62000b9f1790919060201c565b60026200080260201b62000c001790919060201c565b50565b60085460005b81811015620005ab57600881815481106200050357fe5b60009182526020909120600490910201546001600160a01b0384811691161415620005a257604080518082018252601881527f746f6b656e20706f6f6c20616c726561647920616464656400000000000000006020808301918252925162461bcd60e51b81526004810193845282516024820152825192939283926044909201919080838360008315620001e1578181015183820152602001620001c7565b600101620004ec565b5060088054600101808255600082905283919083908110620005c957fe5b6000918252602090912060049091020180546001600160a01b0319166001600160a01b03929092169190911790555050565b60085460005b8181101562000787576000600882815481106200061a57fe5b600091825260208220600491820201805460408051632dafdbbf60e01b81529051929550849384936001600160a01b0390931692632dafdbbf928083019260609291829003018186803b1580156200067157600080fd5b505afa15801562000686573d6000803e3d6000fd5b505050506040513d60608110156200069d57600080fd5b50805160208083015160409093015191955091935091508190620006ce908590859062000b9f620007a0821b17901c565b1015620006d757fe5b6000620006f78560020154846200043660201b62000b361790919060201c565b90506200071581600554620007a060201b62000b9f1790919060201c565b600581905550620007436200073d8660010154866200043660201b62000b361790919060201c565b620008d3565b62000765620002fa8660030154846200043660201b62000b361790919060201c565b5060018085019390935560028401919091556003909201919091550162000601565b50620004e362000907565b60006200049382436200093d565b600082820183811015620007fb576040805162461bcd60e51b815260206004820152601b60248201527f536166654d6174683a206164646974696f6e206f766572666c6f770000000000604482015290519081900360640190fd5b9392505050565b81548062000848576040805180820190915243815260208082018481528554600181810188556000888152939093209351600290910290930192835551910155620008ce565b60008360000160018303815481106200085d57fe5b60009182526020909120600290910201805490915043811415620008885760018201849055620008cb565b8043116200089257fe5b604080518082019091524381526020808201868152875460018181018a5560008a81529390932093516002909102909301928355519101555b50505b505050565b620004e3620004cd82620008f360026200079260201b62000b931760201c565b6200043660201b62000b361790919060201c565b600a54600b546001600160a01b03909116319062000938906200073d90839062000436602090811b62000b3617901c565b600b55565b8154600090806200095357600091505062000493565b43831015806200098757508360000160018203815481106200097157fe5b9060005260206000209060020201600001548310155b15620009bb57836000016001820381548110620009a057fe5b90600052602060002090600202016001015491505062000493565b60018401548454859082908110620009cf57fe5b90600052602060002090600202016000015484101562000a3457801562000a285760405162461bcd60e51b815260040180806020018281038252603081526020018062001e666030913960400191505060405180910390fd5b60009250505062000493565b600062000a4386838762000a72565b905085600001818154811062000a5557fe5b906000526020600020906002020160010154935050505092915050565b600080839050600062000a99600187805490506200043660201b62000b361790919060201c565b90505b8181111562000b3757600062000ae1600262000acd6001620004b98787620007a060201b62000b9f1790919060201c565b62000b4060201b62000ccb1790919060201c565b90508487828154811062000af157fe5b9060005260206000209060020201600001541162000b125780925062000b30565b62000b2d6001826200043660201b62000b361790919060201c565b91505b5062000a9c565b50949350505050565b600080821162000b97576040805162461bcd60e51b815260206004820152601a60248201527f536166654d6174683a206469766973696f6e206279207a65726f000000000000604482015290519081900360640190fd5b81838162000ba157fe5b049392505050565b60805161129d62000bc96000398061041e52806107b4525061129d6000f3fe608060405234801561001057600080fd5b50600436106101365760003560e01c8063b6aa5b51116100b8578063d0c1c3931161007c578063d0c1c393146102a3578063d38bfff4146102ab578063d9330e63146102d1578063ee323c92146102ee578063ee3d170614610314578063efcf7eb21461033a57610136565b8063b6aa5b5114610248578063be0522e014610265578063bfebbd261461026d578063c373a08e14610275578063cd58d6cb1461029b57610136565b80635d36b190116100ff5780635d36b190146101eb57806360f7ac97146101f557806370d5ae05146101fd5780639d6a890f14610205578063a2420e201461022b57610136565b8062c0f9161461013b578063037b0890146101885780631b73b4cb146101b757806344044ba2146101bf5780635aa6e675146101c7575b600080fd5b6101586004803603602081101561015157600080fd5b5035610366565b604080516001600160a01b0390951685526020850193909352838301919091526060830152519081900360800190f35b6101a56004803603602081101561019e57600080fd5b50356103aa565b60408051918252519081900360200190f35b6101a5610414565b6101a5610450565b6101cf610456565b604080516001600160a01b039092168252519081900360200190f35b6101f3610465565b005b6101cf610527565b6101cf610536565b6101f36004803603602081101561021b57600080fd5b50356001600160a01b0316610545565b6101f36004803603602081101561024157600080fd5b503561061f565b6101f36004803603602081101561025e57600080fd5b503561073e565b6101cf6107a3565b6101a56107b2565b6101f36004803603602081101561028b57600080fd5b50356001600160a01b03166107d6565b6101a561087b565b6101a5610881565b6101f3600480360360208110156102c157600080fd5b50356001600160a01b0316610887565b6101a5600480360360208110156102e757600080fd5b5035610949565b6101f36004803603602081101561030457600080fd5b50356001600160a01b031661095c565b6101f36004803603602081101561032a57600080fd5b50356001600160a01b0316610a4a565b6101f36004803603604081101561035057600080fd5b506001600160a01b038135169060200135610acb565b6008818154811061037657600080fd5b600091825260209091206004909102018054600182015460028301546003909301546001600160a01b039092169350919084565b6000438210610400576040805162461bcd60e51b815260206004820181905260248201527f43616e206f6e6c79206265207573656420666f72207061737420626c6f636b73604482015290519081900360640190fd5b61040d6004600284610d32565b5092915050565b600061044b6005547f0000000000000000000000000000000000000000000000000000000000000000610b9f90919063ffffffff16565b905090565b60075481565b6000546001600160a01b031681565b6001546001600160a01b031633146104b4576040805162461bcd60e51b815260206004820152600d60248201526c1b9bdd0818db185a5b585a5b9d609a1b604482015290519081900360640190fd5b600054600154604080516001600160a01b03938416815292909116602083015280517f434a2db650703b36c824e745330d6397cdaa9ee2cc891a4938ae853e1c50b68d9281900390910190a160018054600080546001600160a01b03199081166001600160a01b03841617909155169055565b6001546001600160a01b031681565b600a546001600160a01b031681565b600154600160a01b900460ff161561059b576040805162461bcd60e51b8152602060048201526014602482015273696e697469616c6973656420213d2066616c736560601b604482015290519081900360640190fd5b6001805460ff60a01b1916600160a01b179055600054604080516001600160a01b039283168152918316602083015280517f434a2db650703b36c824e745330d6397cdaa9ee2cc891a4938ae853e1c50b68d9281900390910190a1600080546001600160a01b039092166001600160a01b0319928316179055600180549091169055565b60095460408051808201909152600e81526d696e666c6174696f6e206f6e6c7960901b6020820152906001600160a01b031633146106db5760405162461bcd60e51b81526004018080602001828103825283818151815260200191508051906020019080838360005b838110156106a0578181015183820152602001610688565b50505050905090810190601f1680156106cd5780820380516001836020036101000a031916815260200191505b509250505060405180910390fd5b506005546106e7610d90565b6106f18183610b9f565b6005541461073a57600554604080519183900382526020820184905280517feeb8970a03ae6e5930263b6b2553da66b8e20080d79a3f33c139e5855574eb739281900390910190a15b5050565b6000546001600160a01b0316331461078f576040805162461bcd60e51b815260206004820152600f60248201526e6f6e6c7920676f7665726e616e636560881b604482015290519081900360640190fd5b61079881610ee4565b6107a0610d90565b50565b6009546001600160a01b031681565b7f000000000000000000000000000000000000000000000000000000000000000081565b6000546001600160a01b03163314610827576040805162461bcd60e51b815260206004820152600f60248201526e6f6e6c7920676f7665726e616e636560881b604482015290519081900360640190fd5b600180546001600160a01b0383166001600160a01b0319909116811790915560408051918252517f1f95fb40be3a947982072902a887b521248d1d8931a39eb38f84f4d6fd758b699181900360200190a150565b60065481565b60055481565b6000546001600160a01b031633146108d8576040805162461bcd60e51b815260206004820152600f60248201526e6f6e6c7920676f7665726e616e636560881b604482015290519081900360640190fd5b600054604080516001600160a01b039283168152918316602083015280517f434a2db650703b36c824e745330d6397cdaa9ee2cc891a4938ae853e1c50b68d9281900390910190a1600080546001600160a01b039092166001600160a01b0319928316179055600180549091169055565b6000610956600283610f20565b92915050565b6000546001600160a01b031633146109ad576040805162461bcd60e51b815260206004820152600f60248201526e6f6e6c7920676f7665726e616e636560881b604482015290519081900360640190fd5b60408051808201909152600e81526d696e666c6174696f6e207a65726f60901b60208201526001600160a01b038216610a275760405162461bcd60e51b81526020600482018181528351602484015283519092839260449091019190850190808383600083156106a0578181015183820152602001610688565b50600980546001600160a01b0319166001600160a01b0392909216919091179055565b6000546001600160a01b03163314610a9b576040805162461bcd60e51b815260206004820152600f60248201526e6f6e6c7920676f7665726e616e636560881b604482015290519081900360640190fd5b610aa3610d90565b6000600b55600a80546001600160a01b0319166001600160a01b0383161790556107a0611046565b6000546001600160a01b03163314610b1c576040805162461bcd60e51b815260206004820152600f60248201526e6f6e6c7920676f7665726e616e636560881b604482015290519081900360640190fd5b610b2581610ee4565b610b2e8261106d565b61073a610d90565b600082821115610b8d576040805162461bcd60e51b815260206004820152601e60248201527f536166654d6174683a207375627472616374696f6e206f766572666c6f770000604482015290519081900360640190fd5b50900390565b60006109568243610f20565b600082820183811015610bf9576040805162461bcd60e51b815260206004820152601b60248201527f536166654d6174683a206164646974696f6e206f766572666c6f770000000000604482015290519081900360640190fd5b9392505050565b815480610c44576040805180820190915243815260208082018481528554600181810188556000888152939093209351600290910290930192835551910155610cc6565b6000836000016001830381548110610c5857fe5b60009182526020909120600290910201805490915043811415610c815760018201849055610cc3565b804311610c8a57fe5b604080518082019091524381526020808201868152875460018181018a5560008a81529390932093516002909102909301928355519101555b50505b505050565b6000808211610d21576040805162461bcd60e51b815260206004820152601a60248201527f536166654d6174683a206469766973696f6e206279207a65726f000000000000604482015290519081900360640190fd5b818381610d2a57fe5b049392505050565b60008181526020849052604081205481908015610d585760001901915060009050610d88565b6000610d648686610f20565b9050610d71816001610b9f565b600086815260208990526040902055925060019150505b935093915050565b60085460005b81811015610edb57600060088281548110610dad57fe5b600091825260208220600491820201805460408051632dafdbbf60e01b81529051929550849384936001600160a01b0390931692632dafdbbf928083019260609291829003018186803b158015610e0357600080fd5b505afa158015610e17573d6000803e3d6000fd5b505050506040513d6060811015610e2d57600080fd5b5080516020820151604090920151909450909250905080610e4e8484610b9f565b1015610e5657fe5b6000610e6f856002015484610b3690919063ffffffff16565b600554909150610e7f9082610b9f565b6005556001850154610e9b90610e96908690610b36565b61117b565b610eba610eb5866003015484610b3690919063ffffffff16565b61119a565b50600180850193909355600284019190915560039092019190915501610d96565b506107a0611046565b80610efc600754600654610b3690919063ffffffff16565b1015610f0457fe5b610f0d8161119a565b600754610f1a9082610b9f565b60075550565b815460009080610f34576000915050610956565b4383101580610f665750836000016001820381548110610f5057fe5b9060005260206000209060020201600001548310155b15610f9757836000016001820381548110610f7d57fe5b906000526020600020906002020160010154915050610956565b60018401548454859082908110610faa57fe5b90600052602060002090600202016000015484101561100b5780156110005760405162461bcd60e51b81526004018080602001828103825260308152602001806112386030913960400191505060405180910390fd5b600092505050610956565b60006110188683876111b1565b905085600001818154811061102957fe5b906000526020600020906002020160010154935050505092915050565b600a54600b546001600160a01b03909116319061106890610e96908390610b36565b600b55565b60085460005b8181101561112c576008818154811061108857fe5b60009182526020909120600490910201546001600160a01b038481169116141561112457604080518082018252601881527f746f6b656e20706f6f6c20616c726561647920616464656400000000000000006020808301918252925162461bcd60e51b815260048101938452825160248201528251929392839260449092019190808383600083156106a0578181015183820152602001610688565b600101611073565b506008805460010180825560008290528391908390811061114957fe5b6000918252602090912060049091020180546001600160a01b0319166001600160a01b03929092169190911790555050565b6107a06111928261118c6002610b93565b90610b36565b600290610c00565b6107a0611192826111ab6002610b93565b90610b9f565b8254600090839082906111c5906001610b36565b90505b8181111561122e5760006111ec60026111e660016111ab8688610b9f565b90610ccb565b9050848782815481106111fb57fe5b9060005260206000209060020201600001541161121a57809250611228565b611225816001610b36565b91505b506111c8565b5094935050505056fe436865636b506f696e74486973746f72793a2072656164696e672066726f6d20636c65616e65642d757020626c6f636ba264697066735822122055e8c953d1efef3a34b1b911cfa26f92c14369efd4064f0908b28f163799e56064736f6c63430007060033436865636b506f696e74486973746f72793a2072656164696e672066726f6d20636c65616e65642d757020626c6f636b",
  "linkReferences": {},
  "deployedLinkReferences": {}
}