{
    "_format": "hh-sol-artifact-1",
    "contractName": "MockFtsoRegistry",
    "sourceName": "contracts/ftso/priceProviderMockContracts/PriceProviderMockContracts.sol",
    "abi": [
        {
            "inputs": [
                {
                    "internalType": "address",
                    "name": "_governance",
                    "type": "address"
                }
            ],
            "stateMutability": "nonpayable",
            "type": "constructor"
        },
        {
            "anonymous": false,
            "inputs": [
                {
                    "indexed": false,
                    "internalType": "bytes4",
                    "name": "selector",
                    "type": "bytes4"
                },
                {
                    "indexed": false,
                    "internalType": "uint256",
                    "name": "allowedAfterTimestamp",
                    "type": "uint256"
                },
                {
                    "indexed": false,
                    "internalType": "bytes",
                    "name": "encodedCall",
                    "type": "bytes"
                }
            ],
            "name": "GovernanceCallTimelocked",
            "type": "event"
        },
        {
            "anonymous": false,
            "inputs": [
                {
                    "indexed": false,
                    "internalType": "address",
                    "name": "initialGovernance",
                    "type": "address"
                }
            ],
            "name": "GovernanceInitialised",
            "type": "event"
        },
        {
            "anonymous": false,
            "inputs": [
                {
                    "indexed": false,
                    "internalType": "address",
                    "name": "governanceSettings",
                    "type": "address"
                }
            ],
            "name": "GovernedProductionModeEntered",
            "type": "event"
        },
        {
            "anonymous": false,
            "inputs": [
                {
                    "indexed": false,
                    "internalType": "bytes4",
                    "name": "selector",
                    "type": "bytes4"
                },
                {
                    "indexed": false,
                    "internalType": "uint256",
                    "name": "timestamp",
                    "type": "uint256"
                }
            ],
            "name": "TimelockedGovernanceCallCanceled",
            "type": "event"
        },
        {
            "anonymous": false,
            "inputs": [
                {
                    "indexed": false,
                    "internalType": "bytes4",
                    "name": "selector",
                    "type": "bytes4"
                },
                {
                    "indexed": false,
                    "internalType": "uint256",
                    "name": "timestamp",
                    "type": "uint256"
                }
            ],
            "name": "TimelockedGovernanceCallExecuted",
            "type": "event"
        },
        {
            "inputs": [
                {
                    "internalType": "contract IIFtso",
                    "name": "_ftsoContract",
                    "type": "address"
                }
            ],
            "name": "addFtso",
            "outputs": [
                {
                    "internalType": "uint256",
                    "name": "_assetIndex",
                    "type": "uint256"
                }
            ],
            "stateMutability": "nonpayable",
            "type": "function"
        },
        {
            "inputs": [
                {
                    "internalType": "bytes4",
                    "name": "_selector",
                    "type": "bytes4"
                }
            ],
            "name": "cancelGovernanceCall",
            "outputs": [],
            "stateMutability": "nonpayable",
            "type": "function"
        },
        {
            "inputs": [
                {
                    "internalType": "bytes4",
                    "name": "_selector",
                    "type": "bytes4"
                }
            ],
            "name": "executeGovernanceCall",
            "outputs": [],
            "stateMutability": "nonpayable",
            "type": "function"
        },
        {
            "inputs": [],
            "name": "getAllCurrentPrices",
            "outputs": [
                {
                    "components": [
                        {
                            "internalType": "uint256",
                            "name": "ftsoIndex",
                            "type": "uint256"
                        },
                        {
                            "internalType": "uint256",
                            "name": "price",
                            "type": "uint256"
                        },
                        {
                            "internalType": "uint256",
                            "name": "decimals",
                            "type": "uint256"
                        },
                        {
                            "internalType": "uint256",
                            "name": "timestamp",
                            "type": "uint256"
                        }
                    ],
                    "internalType": "struct IFtsoRegistry.PriceInfo[]",
                    "name": "",
                    "type": "tuple[]"
                }
            ],
            "stateMutability": "view",
            "type": "function"
        },
        {
            "inputs": [],
            "name": "getAllFtsos",
            "outputs": [
                {
                    "internalType": "contract IIFtso[]",
                    "name": "_ftsos",
                    "type": "address[]"
                }
            ],
            "stateMutability": "view",
            "type": "function"
        },
        {
            "inputs": [
                {
                    "internalType": "string",
                    "name": "_symbol",
                    "type": "string"
                }
            ],
            "name": "getCurrentPrice",
            "outputs": [
                {
                    "internalType": "uint256",
                    "name": "_price",
                    "type": "uint256"
                },
                {
                    "internalType": "uint256",
                    "name": "_timestamp",
                    "type": "uint256"
                }
            ],
            "stateMutability": "view",
            "type": "function"
        },
        {
            "inputs": [
                {
                    "internalType": "uint256",
                    "name": "_assetIndex",
                    "type": "uint256"
                }
            ],
            "name": "getCurrentPrice",
            "outputs": [
                {
                    "internalType": "uint256",
                    "name": "_price",
                    "type": "uint256"
                },
                {
                    "internalType": "uint256",
                    "name": "_timestamp",
                    "type": "uint256"
                }
            ],
            "stateMutability": "view",
            "type": "function"
        },
        {
            "inputs": [
                {
                    "internalType": "uint256",
                    "name": "_assetIndex",
                    "type": "uint256"
                }
            ],
            "name": "getCurrentPriceWithDecimals",
            "outputs": [
                {
                    "internalType": "uint256",
                    "name": "_price",
                    "type": "uint256"
                },
                {
                    "internalType": "uint256",
                    "name": "_timestamp",
                    "type": "uint256"
                },
                {
                    "internalType": "uint256",
                    "name": "_assetPriceUsdDecimals",
                    "type": "uint256"
                }
            ],
            "stateMutability": "view",
            "type": "function"
        },
        {
            "inputs": [
                {
                    "internalType": "string",
                    "name": "_symbol",
                    "type": "string"
                }
            ],
            "name": "getCurrentPriceWithDecimals",
            "outputs": [
                {
                    "internalType": "uint256",
                    "name": "_price",
                    "type": "uint256"
                },
                {
                    "internalType": "uint256",
                    "name": "_timestamp",
                    "type": "uint256"
                },
                {
                    "internalType": "uint256",
                    "name": "_assetPriceUsdDecimals",
                    "type": "uint256"
                }
            ],
            "stateMutability": "view",
            "type": "function"
        },
        {
            "inputs": [
                {
                    "internalType": "uint256[]",
                    "name": "_indices",
                    "type": "uint256[]"
                }
            ],
            "name": "getCurrentPricesByIndices",
            "outputs": [
                {
                    "components": [
                        {
                            "internalType": "uint256",
                            "name": "ftsoIndex",
                            "type": "uint256"
                        },
                        {
                            "internalType": "uint256",
                            "name": "price",
                            "type": "uint256"
                        },
                        {
                            "internalType": "uint256",
                            "name": "decimals",
                            "type": "uint256"
                        },
                        {
                            "internalType": "uint256",
                            "name": "timestamp",
                            "type": "uint256"
                        }
                    ],
                    "internalType": "struct IFtsoRegistry.PriceInfo[]",
                    "name": "",
                    "type": "tuple[]"
                }
            ],
            "stateMutability": "view",
            "type": "function"
        },
        {
            "inputs": [
                {
                    "internalType": "string[]",
                    "name": "_symbols",
                    "type": "string[]"
                }
            ],
            "name": "getCurrentPricesBySymbols",
            "outputs": [
                {
                    "components": [
                        {
                            "internalType": "uint256",
                            "name": "ftsoIndex",
                            "type": "uint256"
                        },
                        {
                            "internalType": "uint256",
                            "name": "price",
                            "type": "uint256"
                        },
                        {
                            "internalType": "uint256",
                            "name": "decimals",
                            "type": "uint256"
                        },
                        {
                            "internalType": "uint256",
                            "name": "timestamp",
                            "type": "uint256"
                        }
                    ],
                    "internalType": "struct IFtsoRegistry.PriceInfo[]",
                    "name": "",
                    "type": "tuple[]"
                }
            ],
            "stateMutability": "view",
            "type": "function"
        },
        {
            "inputs": [
                {
                    "internalType": "uint256",
                    "name": "_assetIndex",
                    "type": "uint256"
                }
            ],
            "name": "getFtso",
            "outputs": [
                {
                    "internalType": "contract IIFtso",
                    "name": "_activeFtso",
                    "type": "address"
                }
            ],
            "stateMutability": "view",
            "type": "function"
        },
        {
            "inputs": [
                {
                    "internalType": "string",
                    "name": "_symbol",
                    "type": "string"
                }
            ],
            "name": "getFtsoBySymbol",
            "outputs": [
                {
                    "internalType": "contract IIFtso",
                    "name": "_activeFtso",
                    "type": "address"
                }
            ],
            "stateMutability": "view",
            "type": "function"
        },
        {
            "inputs": [
                {
                    "internalType": "uint256",
                    "name": "_assetIndex",
                    "type": "uint256"
                }
            ],
            "name": "getFtsoHistory",
            "outputs": [
                {
                    "internalType": "contract IIFtso[5]",
                    "name": "_ftsoAddressHistory",
                    "type": "address[5]"
                }
            ],
            "stateMutability": "view",
            "type": "function"
        },
        {
            "inputs": [
                {
                    "internalType": "string",
                    "name": "_symbol",
                    "type": "string"
                }
            ],
            "name": "getFtsoIndex",
            "outputs": [
                {
                    "internalType": "uint256",
                    "name": "_assetIndex",
                    "type": "uint256"
                }
            ],
            "stateMutability": "view",
            "type": "function"
        },
        {
            "inputs": [
                {
                    "internalType": "uint256",
                    "name": "_assetIndex",
                    "type": "uint256"
                }
            ],
            "name": "getFtsoSymbol",
            "outputs": [
                {
                    "internalType": "string",
                    "name": "_symbol",
                    "type": "string"
                }
            ],
            "stateMutability": "view",
            "type": "function"
        },
        {
            "inputs": [
                {
                    "internalType": "uint256[]",
                    "name": "_assetIndices",
                    "type": "uint256[]"
                }
            ],
            "name": "getFtsos",
            "outputs": [
                {
                    "internalType": "contract IFtsoGenesis[]",
                    "name": "_ftsos",
                    "type": "address[]"
                }
            ],
            "stateMutability": "view",
            "type": "function"
        },
        {
            "inputs": [],
            "name": "getSupportedFtsos",
            "outputs": [
                {
                    "internalType": "contract IIFtso[]",
                    "name": "_ftsos",
                    "type": "address[]"
                }
            ],
            "stateMutability": "view",
            "type": "function"
        },
        {
            "inputs": [],
            "name": "getSupportedIndices",
            "outputs": [
                {
                    "internalType": "uint256[]",
                    "name": "_supportedIndices",
                    "type": "uint256[]"
                }
            ],
            "stateMutability": "view",
            "type": "function"
        },
        {
            "inputs": [],
            "name": "getSupportedIndicesAndFtsos",
            "outputs": [
                {
                    "internalType": "uint256[]",
                    "name": "_supportedIndices",
                    "type": "uint256[]"
                },
                {
                    "internalType": "contract IIFtso[]",
                    "name": "_ftsos",
                    "type": "address[]"
                }
            ],
            "stateMutability": "view",
            "type": "function"
        },
        {
            "inputs": [],
            "name": "getSupportedIndicesAndSymbols",
            "outputs": [
                {
                    "internalType": "uint256[]",
                    "name": "_supportedIndices",
                    "type": "uint256[]"
                },
                {
                    "internalType": "string[]",
                    "name": "_supportedSymbols",
                    "type": "string[]"
                }
            ],
            "stateMutability": "view",
            "type": "function"
        },
        {
            "inputs": [],
            "name": "getSupportedIndicesSymbolsAndFtsos",
            "outputs": [
                {
                    "internalType": "uint256[]",
                    "name": "_supportedIndices",
                    "type": "uint256[]"
                },
                {
                    "internalType": "string[]",
                    "name": "_supportedSymbols",
                    "type": "string[]"
                },
                {
                    "internalType": "contract IIFtso[]",
                    "name": "_ftsos",
                    "type": "address[]"
                }
            ],
            "stateMutability": "view",
            "type": "function"
        },
        {
            "inputs": [],
            "name": "getSupportedSymbols",
            "outputs": [
                {
                    "internalType": "string[]",
                    "name": "_supportedSymbols",
                    "type": "string[]"
                }
            ],
            "stateMutability": "view",
            "type": "function"
        },
        {
            "inputs": [],
            "name": "getSupportedSymbolsAndFtsos",
            "outputs": [
                {
                    "internalType": "string[]",
                    "name": "_supportedSymbols",
                    "type": "string[]"
                },
                {
                    "internalType": "contract IIFtso[]",
                    "name": "_ftsos",
                    "type": "address[]"
                }
            ],
            "stateMutability": "view",
            "type": "function"
        },
        {
            "inputs": [],
            "name": "governance",
            "outputs": [
                {
                    "internalType": "address",
                    "name": "",
                    "type": "address"
                }
            ],
            "stateMutability": "view",
            "type": "function"
        },
        {
            "inputs": [],
            "name": "governanceSettings",
            "outputs": [
                {
                    "internalType": "contract IGovernanceSettings",
                    "name": "",
                    "type": "address"
                }
            ],
            "stateMutability": "view",
            "type": "function"
        },
        {
            "inputs": [
                {
                    "internalType": "address",
                    "name": "_initialGovernance",
                    "type": "address"
                }
            ],
            "name": "initialise",
            "outputs": [],
            "stateMutability": "nonpayable",
            "type": "function"
        },
        {
            "inputs": [],
            "name": "productionMode",
            "outputs": [
                {
                    "internalType": "bool",
                    "name": "",
                    "type": "bool"
                }
            ],
            "stateMutability": "view",
            "type": "function"
        },
        {
            "inputs": [
                {
                    "internalType": "contract IIFtso",
                    "name": "_ftso",
                    "type": "address"
                }
            ],
            "name": "removeFtso",
            "outputs": [],
            "stateMutability": "nonpayable",
            "type": "function"
        },
        {
            "inputs": [],
            "name": "switchToProductionMode",
            "outputs": [],
            "stateMutability": "nonpayable",
            "type": "function"
        },
        {
            "inputs": [
                {
                    "internalType": "bytes4",
                    "name": "",
                    "type": "bytes4"
                }
            ],
            "name": "timelockedCalls",
            "outputs": [
                {
                    "internalType": "uint256",
                    "name": "allowedAfterTimestamp",
                    "type": "uint256"
                },
                {
                    "internalType": "bytes",
                    "name": "encodedCall",
                    "type": "bytes"
                }
            ],
            "stateMutability": "view",
            "type": "function"
        }
    ],
    "bytecode": "0x60806040523480156200001157600080fd5b5060405162002beb38038062002beb83398101604081905262000034916200016c565b80806001600160a01b0381161562000051576200005181620000a9565b506001600160a01b038116620000a1576040805162461bcd60e51b815260206004820152601060248201526f5f676f7665726e616e6365207a65726f60801b604482015290519081900360640190fd5b50506200019c565b600054600160a01b900460ff161562000109576040805162461bcd60e51b815260206004820152601460248201527f696e697469616c6973656420213d2066616c7365000000000000000000000000604482015290519081900360640190fd5b60008054600160a01b60ff60a01b19909116176001600160a01b0319166001600160a01b03831690811790915560408051918252517f9789733827840833afc031fb2ef9ab6894271f77bad2085687cf4ae5c7bee4db916020908290030190a150565b6000602082840312156200017e578081fd5b81516001600160a01b038116811462000195578182fd5b9392505050565b612a3f80620001ac6000396000f3fe608060405234801561001057600080fd5b50600436106101e55760003560e01c8063798aac5b1161010f578063c55d0f56116100a2578063e17f212e11610071578063e17f212e14610453578063e68f283b14610468578063e848da301461047e578063f5a9838314610491576101e5565b8063c55d0f56146103f8578063c71a1b201461040b578063ce1c0e4d1461042b578063d75f6d8114610440576101e5565b80639d6a890f116100de5780639d6a890f146103b7578063a40060ba146103ca578063a670ff87146103d2578063a69afdc6146103e5576101e5565b8063798aac5b1461035c57806379d5ea4b1461037157806397da6af4146103845780639cb4753814610397576101e5565b806358f9296f1161018757806367fc40291161015657806367fc4029146102fe5780636ba31fa11461031157806374e6310e146103245780637687542c14610345576101e5565b806358f9296f146102b75780635aa6e675146102cc5780635ff27079146102e157806362354e03146102f6576101e5565b8063257cbd3a116101c3578063257cbd3a1461023f5780632663f1b4146102615780632bcdd6ab1461028157806342a0f24314610296576101e5565b806306a2ba29146101ea5780630cf4849714610209578063136d3f641461021f575b600080fd5b6101f2610499565b604051610200929190612868565b60405180910390f35b6102116104ad565b6040516102009291906127d9565b61023261022d3660046125a3565b6105c3565b60405161020091906128ee565b61025261024d3660046125a3565b61064a565b60405161020093929190612931565b61027461026f3660046123a4565b6106d5565b6040516102009190612901565b610289610841565b60405161020091906127b3565b6102a96102a43660046124ff565b6108fd565b604051610200929190612923565b6102bf610981565b60405161020091906127fe565b6102d46109a3565b6040516102009190612718565b6102f46102ef3660046124d7565b610a38565b005b6102d4610d8d565b6102f461030c3660046124d7565b610d98565b6102bf61031f366004612448565b610e80565b6103376103323660046124d7565b610f2e565b60405161020092919061290a565b61034d610fd4565b604051610200939291906128a0565b6103646110ed565b6040516102009190612855565b6102bf61037f3660046123c0565b6110fd565b6102d46103923660046124ff565b611249565b6103aa6103a5366004612448565b611254565b604051610200919061272c565b6102f46103c53660046123a4565b6113e1565b61028961149a565b6102f46103e03660046123a4565b6114aa565b6102526103f33660046124ff565b61163c565b6102a96104063660046125a3565b61164a565b61041e6104193660046125a3565b611656565b6040516102009190612779565b61043361173c565b60405161020091906127c6565b6102d461044e3660046125a3565b611853565b61045b61185e565b60405161020091906128e3565b61047061186e565b60405161020092919061287b565b61027461048c3660046124ff565b611987565b6102f4611992565b6060806104a4611a4c565b90939092509050565b6060806104b8611a4c565b80519092509050806001600160401b03811180156104d557600080fd5b5060405190808252806020026020018201604052801561050957816020015b60608152602001906001900390816104f45790505b5092505b80156105be578060019003905081818151811061052657fe5b60200260200101516001600160a01b03166395d89b416040518163ffffffff1660e01b815260040160006040518083038186803b15801561056657600080fd5b505afa15801561057a573d6000803e3d6000fd5b505050506040513d6000823e601f3d908101601f191682016040526105a29190810190612531565b8382815181106105ae57fe5b602002602001018190525061050d565b509091565b60606105ce82611c86565b6001600160a01b03166395d89b416040518163ffffffff1660e01b815260040160006040518083038186803b15801561060657600080fd5b505afa15801561061a573d6000803e3d6000fd5b505050506040513d6000823e601f3d908101601f191682016040526106429190810190612531565b90505b919050565b600080600061065884611c86565b6001600160a01b03166365f5cd866040518163ffffffff1660e01b815260040160606040518083038186803b15801561069057600080fd5b505afa1580156106a4573d6000803e3d6000fd5b505050506040513d601f19601f820116820180604052508101906106c891906125de565b9250925092509193909250565b60008054600160b01b900460ff16806106f85750600054600160a81b900460ff16155b1561083657610705611d37565b6000826001600160a01b03166395d89b416040518163ffffffff1660e01b815260040160006040518083038186803b15801561074057600080fd5b505afa158015610754573d6000803e3d6000fd5b505050506040513d6000823e601f3d908101601f1916820160405261077c9190810190612531565b905060038160405161078e91906126fc565b908152602001604051809103902054915081600014156107e5576002805490509150816001016003826040516107c491906126fc565b908152604051908190036020019020556002805460010181556000526107f4565b6001820391506107f482611d6e565b826002838154811061080257fe5b6000918252602082206005909102010180546001600160a01b0319166001600160a01b039290921691909117905550610645565b610645600036611e01565b6002546060906000816001600160401b038111801561085f57600080fd5b50604051908082528060200260200182016040528015610889578160200160208202803683370190505b5090505b81156108f75781600190039150600282815481106108a757fe5b600091825260208220600590910201015481516001600160a01b03909116908290849081106108d257fe5b60200260200101906001600160a01b031690816001600160a01b03168152505061088d565b91505090565b60008061090983611f84565b6001600160a01b031663eb91d37e6040518163ffffffff1660e01b8152600401604080518083038186803b15801561094057600080fd5b505afa158015610954573d6000803e3d6000fd5b505050506040513d601f19601f8201168201806040525081019061097891906125bb565b91509150915091565b606060008061098e611a4c565b9150915061099c8282611fc0565b9250505090565b60008054600160a81b900460ff166109c6576000546001600160a01b0316610a33565b60076001609c1b016001600160a01b031663732524946040518163ffffffff1660e01b815260040160206040518083038186803b158015610a0657600080fd5b505afa158015610a1a573d6000803e3d6000fd5b505050506040513d6020811015610a3057600080fd5b50515b905090565b60408051630debfda360e41b8152336004820152905160076001609c1b019163debfda30916024808301926020929190829003018186803b158015610a7c57600080fd5b505afa158015610a90573d6000803e3d6000fd5b505050506040513d6020811015610aa657600080fd5b5051610ae9576040805162461bcd60e51b815260206004820152600d60248201526c37b7363c9032bc32b1baba37b960991b604482015290519081900360640190fd5b6001600160e01b0319811660009081526001602052604090208054610b55576040805162461bcd60e51b815260206004820152601a60248201527f74696d656c6f636b3a20696e76616c69642073656c6563746f72000000000000604482015290519081900360640190fd5b8054421015610bab576040805162461bcd60e51b815260206004820152601960248201527f74696d656c6f636b3a206e6f7420616c6c6f7765642079657400000000000000604482015290519081900360640190fd5b6000816001018054600181600116156101000203166002900480601f016020809104026020016040519081016040528092919081815260200182805460018160011615610100020316600290048015610c455780601f10610c1a57610100808354040283529160200191610c45565b820191906000526020600020905b815481529060010190602001808311610c2857829003601f168201915b5050506001600160e01b0319861660009081526001602081905260408220828155949550909250610c799150830182612228565b50506000805460ff60b01b1916600160b01b178155604051825130918491819060208401908083835b60208310610cc15780518252601f199092019160209182019101610ca2565b6001836020036101000a0380198251168184511680821785525050505050509050019150506000604051808303816000865af19150503d8060008114610d23576040519150601f19603f3d011682016040523d82523d6000602084013e610d28565b606091505b50506000805460ff60b01b19169055604080516001600160e01b03198716815242602082015281519293507fa7326b57fc9cfe267aaea5e7f0b01757154d265620a0585819416ee9ddd2c438929081900390910190a1610d8781612137565b50505050565b60076001609c1b0181565b610da0612154565b6001600160e01b03198116600090815260016020526040902054610e0b576040805162461bcd60e51b815260206004820152601a60248201527f74696d656c6f636b3a20696e76616c69642073656c6563746f72000000000000604482015290519081900360640190fd5b604080516001600160e01b03198316815242602082015281517f7735b2391c38a81419c513e30ca578db7158eadd7101511b23e221c654d19cf8929181900390910190a16001600160e01b03198116600090815260016020819052604082208281559190610e7b90830182612228565b505050565b6060600082516001600160401b0381118015610e9b57600080fd5b50604051908082528060200260200182016040528015610ec5578160200160208202803683370190505b50905060005b8351811015610f1c57610ef0848281518110610ee357fe5b6020026020010151611c86565b828281518110610efc57fe5b6001600160a01b0390921660209283029190910190910152600101610ecb565b50610f278382611fc0565b9392505050565b600160208181526000928352604092839020805481840180548651600296821615610100026000190190911695909504601f81018590048502860185019096528585529094919392909190830182828015610fca5780601f10610f9f57610100808354040283529160200191610fca565b820191906000526020600020905b815481529060010190602001808311610fad57829003601f168201915b5050505050905082565b6060806060610fe1611a4c565b81519194509150806001600160401b0381118015610ffe57600080fd5b5060405190808252806020026020018201604052801561103257816020015b606081526020019060019003908161101d5790505b5092505b80156110e7578060019003905081818151811061104f57fe5b60200260200101516001600160a01b03166395d89b416040518163ffffffff1660e01b815260040160006040518083038186803b15801561108f57600080fd5b505afa1580156110a3573d6000803e3d6000fd5b505050506040513d6000823e601f3d908101601f191682016040526110cb9190810190612531565b8382815181106110d757fe5b6020026020010181905250611036565b50909192565b60606110f7611a4c565b50919050565b6060600082516001600160401b038111801561111857600080fd5b50604051908082528060200260200182016040528015611142578160200160208202803683370190505b509050600083516001600160401b038111801561115e57600080fd5b50604051908082528060200260200182016040528015611188578160200160208202803683370190505b50905060005b8451811015611236576111b38582815181106111a657fe5b60200260200101516121b3565b8382815181106111bf57fe5b60200260200101818152505060028382815181106111d957fe5b6020026020010151815481106111eb57fe5b600091825260208220600590910201015482516001600160a01b039091169083908390811061121657fe5b6001600160a01b039092166020928302919091019091015260010161118e565b506112418282611fc0565b949350505050565b600061064282611f84565b600254815160609190806001600160401b038111801561127357600080fd5b5060405190808252806020026020018201604052801561129d578160200160208202803683370190505b5092505b80156113da578060019003905060008482815181106112bc57fe5b602002602001015190508281106040518060400160405280601881526020016000805160206129ea833981519152815250906113145760405162461bcd60e51b815260040161130b91906128ee565b60405180910390fd5b506002818154811061132257fe5b600091825260208220600590910201015484516001600160a01b039091169085908490811061134d57fe5b60200260200101906001600160a01b031690816001600160a01b03168152505060006001600160a01b031684838151811061138457fe5b60200260200101516001600160a01b031614156113d457604080518082018252601881526000805160206129ea8339815191526020820152905162461bcd60e51b815261130b91906004016128ee565b506112a1565b5050919050565b600054600160a01b900460ff1615611437576040805162461bcd60e51b8152602060048201526014602482015273696e697469616c6973656420213d2066616c736560601b604482015290519081900360640190fd5b60008054600160a01b60ff60a01b19909116176001600160a01b0319166001600160a01b03831690811790915560408051918252517f9789733827840833afc031fb2ef9ab6894271f77bad2085687cf4ae5c7bee4db916020908290030190a150565b60606114a4611a4c565b92915050565b600054600160b01b900460ff16806114cc5750600054600160a81b900460ff16155b1561162e576114d9611d37565b6000816001600160a01b03166395d89b416040518163ffffffff1660e01b815260040160006040518083038186803b15801561151457600080fd5b505afa158015611528573d6000803e3d6000fd5b505050506040513d6000823e601f3d908101601f191682016040526115509190810190612531565b9050600060038260405161156491906126fc565b90815260405190819003602001902054905080156115f0576000190161158981611d6e565b60006002828154811061159857fe5b6000918252602082206005909102010180546001600160a01b0319166001600160a01b03929092169190911790556040516003906115d79084906126fc565b9081526020016040518091039020600090555050611629565b604080518082018252601881526000805160206129ea8339815191526020820152905162461bcd60e51b815261130b91906004016128ee565b611639565b611639600036611e01565b50565b600080600061065884611f84565b60008061090983611c86565b61165e61226c565b6002548210801561169f575060006001600160a01b03166002838154811061168257fe5b60009182526020822060059091020101546001600160a01b031614155b6040518060400160405280601881526020016000805160206129ea833981519152815250906116e15760405162461bcd60e51b815260040161130b91906128ee565b50600282815481106116ef57fe5b600091825260209091206040805160a0810191829052926005908102909201919082845b81546001600160a01b031681526001909101906020018083116117135750505050509050919050565b60606000611748611a4c565b80519092509050806001600160401b038111801561176557600080fd5b5060405190808252806020026020018201604052801561179957816020015b60608152602001906001900390816117845790505b5092505b801561184e57806001900390508181815181106117b657fe5b60200260200101516001600160a01b03166395d89b416040518163ffffffff1660e01b815260040160006040518083038186803b1580156117f657600080fd5b505afa15801561180a573d6000803e3d6000fd5b505050506040513d6000823e601f3d908101601f191682016040526118329190810190612531565b83828151811061183e57fe5b602002602001018190525061179d565b505090565b600061064282611c86565b600054600160a81b900460ff1681565b606080606061187b611a4c565b81519194509150806001600160401b038111801561189857600080fd5b506040519080825280602002602001820160405280156118cc57816020015b60608152602001906001900390816118b75790505b5092505b801561198157806001900390508181815181106118e957fe5b60200260200101516001600160a01b03166395d89b416040518163ffffffff1660e01b815260040160006040518083038186803b15801561192957600080fd5b505afa15801561193d573d6000803e3d6000fd5b505050506040513d6000823e601f3d908101601f191682016040526119659190810190612531565b83828151811061197157fe5b60200260200101819052506118d0565b50509091565b6000610642826121b3565b61199a612154565b600054600160a81b900460ff16156119f9576040805162461bcd60e51b815260206004820152601a60248201527f616c726561647920696e2070726f64756374696f6e206d6f6465000000000000604482015290519081900360640190fd5b60008054600161ff0160a01b031916600160a81b1790556040805160076001609c1b01815290517f83af113638b5422f9e977cebc0aaf0eaf2188eb9a8baae7f9d46c42b33a1560c9181900360200190a1565b60025460609081906000816001600160401b0381118015611a6c57600080fd5b50604051908082528060200260200182016040528015611a96578160200160208202803683370190505b5090506000826001600160401b0381118015611ab157600080fd5b50604051908082528060200260200182016040528015611adb578160200160208202803683370190505b50905060008060005b85811015611b7757600060028281548110611afb57fe5b60009182526020822060059091020101546001600160a01b03908116915084168114611b6e5781868481518110611b2e57fe5b60200260200101818152505080858481518110611b4757fe5b60200260200101906001600160a01b031690816001600160a01b0316815250508260010192505b50600101611ae4565b50806001600160401b0381118015611b8e57600080fd5b50604051908082528060200260200182016040528015611bb8578160200160208202803683370190505b509650806001600160401b0381118015611bd157600080fd5b50604051908082528060200260200182016040528015611bfb578160200160208202803683370190505b5095505b8015611c7d5780600190039050838181518110611c1857fe5b6020026020010151878281518110611c2c57fe5b602002602001018181525050828181518110611c4457fe5b6020026020010151868281518110611c5857fe5b60200260200101906001600160a01b031690816001600160a01b031681525050611bff565b50505050509091565b60025460408051808201909152601881526000805160206129ea83398151915260208201526000918310611ccd5760405162461bcd60e51b815260040161130b91906128ee565b50600060028381548110611cdd57fe5b60009182526020822060059091020101546001600160a01b03169050806114a457604080518082018252601881526000805160206129ea8339815191526020820152905162461bcd60e51b815261130b91906004016128ee565b600054600160b01b900460ff1615611d6457333014611d5257fe5b6000805460ff60b01b19169055611d6c565b611d6c612154565b565b60045b8015611dfd5760028281548110611d8457fe5b90600052602060002090600502016001820360058110611da057fe5b0154600280546001600160a01b039092169184908110611dbc57fe5b90600052602060002090600502018260058110611dd557fe5b0180546001600160a01b0319166001600160a01b039290921691909117905560001901611d71565b5050565b611e09612154565b600082359050600060076001609c1b016001600160a01b0316636221a54b6040518163ffffffff1660e01b815260040160206040518083038186803b158015611e5157600080fd5b505afa158015611e65573d6000803e3d6000fd5b505050506040513d6020811015611e7b57600080fd5b505160408051808201825242830180825282516020601f89018190048102820181019094528781529394509290918281019190889088908190840183828082843760009201829052509390945250506001600160e01b03198616815260016020818152604090922084518155848301518051919450611eff9392850192019061228a565b509050507fed948300a3694aa01d4a6b258bfd664350193d770c0b51f8387277f6d83ea3b68382878760405180856001600160e01b0319168152602001848152602001806020018281038252848482818152602001925080828437600083820152604051601f909101601f191690920182900397509095505050505050a15050505050565b600080611f90836121b3565b905060028181548110611f9f57fe5b60009182526020822060059091020101546001600160a01b03169392505050565b8051606090806001600160401b0381118015611fdb57600080fd5b5060405190808252806020026020018201604052801561201557816020015b612002612316565b815260200190600190039081611ffa5790505b50915060005b8181101561212f5784818151811061202f57fe5b602002602001015183828151811061204357fe5b6020026020010151600001818152505083818151811061205f57fe5b60200260200101516001600160a01b03166365f5cd866040518163ffffffff1660e01b815260040160606040518083038186803b15801561209f57600080fd5b505afa1580156120b3573d6000803e3d6000fd5b505050506040513d601f19601f820116820180604052508101906120d791906125de565b8584815181106120e357fe5b60200260200101516020018685815181106120fa57fe5b602002602001015160600187868151811061211157fe5b6020908102919091010151604001929092529190525260010161201b565b505092915050565b3d604051818101604052816000823e8215612150578181f35b8181fd5b61215c6109a3565b6001600160a01b0316336001600160a01b031614611d6c576040805162461bcd60e51b815260206004820152600f60248201526e6f6e6c7920676f7665726e616e636560881b604482015290519081900360640190fd5b6000806003836040516121c691906126fc565b9081526020016040518091039020549050600081116040518060400160405280601881526020016000805160206129ea8339815191528152509061221d5760405162461bcd60e51b815260040161130b91906128ee565b506000190192915050565b50805460018160011615610100020316600290046000825580601f1061224e5750611639565b601f016020900490600052602060002090810190611639919061233e565b6040518060a001604052806005906020820280368337509192915050565b828054600181600116156101000203166002900490600052602060002090601f0160209004810192826122c05760008555612306565b82601f106122d957805160ff1916838001178555612306565b82800160010185558215612306579182015b828111156123065782518255916020019190600101906122eb565b5061231292915061233e565b5090565b6040518060800160405280600081526020016000815260200160008152602001600081525090565b5b80821115612312576000815560010161233f565b600082601f830112612363578081fd5b813561237661237182612987565b612947565b81815284602083860101111561238a578283fd5b816020850160208301379081016020019190915292915050565b6000602082840312156123b5578081fd5b8135610f27816129d4565b600060208083850312156123d2578182fd5b82356001600160401b038111156123e7578283fd5b8301601f810185136123f7578283fd5b80356124056123718261296a565b81815283810190838501865b8481101561243a576124288a888435890101612353565b84529286019290860190600101612411565b509098975050505050505050565b6000602080838503121561245a578182fd5b82356001600160401b0381111561246f578283fd5b8301601f8101851361247f578283fd5b803561248d6123718261296a565b81815283810190838501858402850186018910156124a9578687fd5b8694505b838510156124cb5780358352600194909401939185019185016124ad565b50979650505050505050565b6000602082840312156124e8578081fd5b81356001600160e01b031981168114610f27578182fd5b600060208284031215612510578081fd5b81356001600160401b03811115612525578182fd5b61124184828501612353565b600060208284031215612542578081fd5b81516001600160401b03811115612557578182fd5b8201601f81018413612567578182fd5b805161257561237182612987565b818152856020838501011115612589578384fd5b61259a8260208301602086016129a8565b95945050505050565b6000602082840312156125b4578081fd5b5035919050565b600080604083850312156125cd578081fd5b505080516020909101519092909150565b6000806000606084860312156125f2578081fd5b8351925060208401519150604084015190509250925092565b6000815180845260208085019450808401835b838110156126435781516001600160a01b03168752958201959082019060010161261e565b509495945050505050565b6000815180845260208085018081965082840281019150828601855b858110156126945782840389526126828483516126d0565b9885019893509084019060010161266a565b5091979650505050505050565b6000815180845260208085019450808401835b83811015612643578151875295820195908201906001016126b4565b600081518084526126e88160208601602086016129a8565b601f01601f19169290920160200192915050565b6000825161270e8184602087016129a8565b9190910192915050565b6001600160a01b0391909116815260200190565b6020808252825182820181905260009190848201906040850190845b8181101561276d5783516001600160a01b031683529284019291840191600101612748565b50909695505050505050565b60a08101818360005b60058110156127aa5781516001600160a01b0316835260209283019290910190600101612782565b50505092915050565b600060208252610f27602083018461260b565b600060208252610f27602083018461264e565b6000604082526127ec604083018561264e565b828103602084015261259a818561260b565b602080825282518282018190526000919060409081850190868401855b828110156126945781518051855286810151878601528581015186860152606090810151908501526080909301929085019060010161281b565b600060208252610f2760208301846126a1565b6000604082526127ec60408301856126a1565b60006040825261288e60408301856126a1565b828103602084015261259a818561264e565b6000606082526128b360608301866126a1565b82810360208401526128c5818661264e565b905082810360408401526128d9818561260b565b9695505050505050565b901515815260200190565b600060208252610f2760208301846126d0565b90815260200190565b60008382526040602083015261124160408301846126d0565b918252602082015260400190565b9283526020830191909152604082015260600190565b6040518181016001600160401b038111828210171561296257fe5b604052919050565b60006001600160401b0382111561297d57fe5b5060209081020190565b60006001600160401b0382111561299a57fe5b50601f01601f191660200190565b60005b838110156129c35781810151838201526020016129ab565b83811115610d875750506000910152565b6001600160a01b038116811461163957600080fdfe4654534f20696e646578206e6f7420737570706f727465640000000000000000a264697066735822122001e137c29674d4a64e73c17252c99a667f2d7062d2dc5ff784a7754da58012b964736f6c63430007060033",
    "linkReferences": {},
    "deployedLinkReferences": {}
}